:102A9400E4FDFCC3ED9FEC9E5015E4FBFA0BBB0078
:0F2AA400010AEB64644A70F50DBD00010C80E47B
:012AB3002200
:1029020075CF907591FF7592FF759AFF759BFF7554
:10291200A1FF75A2FF75B1FF75B2FF75C1FF75C248
:10292200FF75D9FF75DAFF75A0FF7590FF7580FFFF
:0C29320075D8FF75C0FF75B0FFD2AF2252
:10287200300146900184E030E71C547FF01220586A
:102882009002B812067B20030A122B867FFA7E0082
:10289200122A94122B7D300020900214E475F0016C
:1028A2001204C4D3900215E09414900214E0940030
:0A28B2004007E4F0A3F0120C962298
:102B1900122902122AB4122AEA43CF10122872800B
:012B2900F8B3
:10232A000000000000000007000A0BB8025800C8AD
:10233A0000020000000000020064000AFFFFFFFF25
:10234A00000A023F040851000100023F040853003A
:10235A000100023F040847000100023F040856003A
:10236A000100023F040857000100023F040851001F
:10237A000100023F040853000100023F040847001D
:10238A000100023F040856000100023F04085700FA
:10239A000100023F040851000100023F04085300F3
:1023AA000100023F040847000100023F04085600EA
:1023BA000100023F040857000100023F04085100CF
:1023CA000100023F040853000100023F04084700CD
:1023DA000100023F040856000100023F04085700AA
:1023EA000100023F040847000100023F04085600AA
:1023FA000100023F040857000100023F0408570089
:10240A000100023F040847000100023F0408560089
:10241A000100023F040857000100023F0408570068
:10242A000100023F040847000100023F0408560069
:0A243A000100023F040857000100F2
:1026EF00410205004101881441017F964102060114
:1026FF0041015C0041011D144100DE9641003F0184
:04270F004100400045
:10293E00E475F0010204C4C3941F7480948022E4F1
:10294E00900185F0A3F02274E62FF582E43401F5B0
:10295E00832274602FF582E43400F58322E4900123
:05296E0080F0A3F0223F
:0B2B3600902334E493FE740193FF220F
:0B2B4100902338E493FE740193FF2200
:082B5600902332740193FF2269
:032B7A007F0022B7
:102AD000AD07ED25E0245AF8E6FEED25E0245BF88D
:0A2AE000E67C002400FFEC3EFE221D
:062B6E00122955E0FF22D0
:082B5E0090232C740193FF2267
:062B7400122960E0FF22BF
:082B6600900000E0C313FF2200
:0A2B4C00900000E075F00384FF2202
:102B0400122AD0EF7803C333CE33CED8F9FF7C003A
:052B14007D0A02046FC0
:10282700E4FBFA90028F1206870000000090028FE7
:102837001206877FFFFFFFEB122945502A90028F70
:10284700120663780112063D90028F12067B30D77D
:1028570013747F2AF582E43400F583EBF00AEA1259
:0A286700294550030B80D0751801BD
:012871002244
:1029DC00EF14601214601414601114601524047048
:1029EC001990234C800890234D800390234EE49340
:0D29FC00FF2290233E740193FF227F0022F2
:1029A800902330740193900000F090234A740193AF
:1029B800900187F0122827E4FFEF122945500E12E4
:1029C8002960E4F01229557408F00F80EC12294DA3
:0329D80012296C55
:0129DB0022D9
:10205800E4900290F0A31206870000000090029519
:1020680012068700000000122B8050030221F9128B
:10207800276690029112067BE490028FF090028FFF
:10208800E0C3951850529002911206637801120627
:102098003D90029112067B30D73690029512066F5A
:1020A800C000C001E47F01FEFDFC90028FE0247FA8
:1020B800F582E43400F583E0F9F8120650D001D037
:1020C8000012060490029512067B900290E004F03C
:1020D80090028FE004F080A5900290E0FF7E00C39C
:1020E8009402748094804018D207EF94037480940B
:1020F800804005122B838008122B5EEF6002C20716
:1021080020071EE4FFFEFDFC90029512066FC31225
:10211800062C600890018512293E801512294D80F1
:102128001090017D12293E9002951206870000004A
:102138000090017CE0FF601B90015CE0FEEFB506BB
:102148000890018012293E800D90017CE090015C8E
:10215800F0800012296B90009EE0FEA3E0FF4E6025
:1021680022900040E0FD7C00EFB5050CECB50608B8
:1021780090018212293E801290009EA3E0900040B8
:10218800F08000E4900182F0A3F0122B36D3900186
:1021980081E09F900180E09E4006122B8312296BFC
:1021A800122B36D3900183E09F900182E09E400A73
:1021B800122B83E4900182F0A3F0122B36D3900106
:1021C80086E09F900185E09E4006122B8312294DE0
:1021D800D390017EE0942C90017DE09401401D1283
:1021E8002B839002057401F0E490017DF0A3F08048
:1021F8000B90233AE4740193FF12220A900295028D
:0222080006636B
:0D2713000116004202B400004202B60000B0
:10198900E0FE243EF8E6A3F0E0FD75F002900001C8
:101999001206B8E0FAA3E0FBED75F0029000A00290
:1019A90006B8C3E49FFFE49EFEE075F00290011EB5
:1019B9001206B8E0FCA3E0C39FEE6480F8EC6480F3
:1019C9009822E0FE2441F582E43400F583E4F0EF47
:1019D900A2E713FD3395E0FCEE90000175F00202D9
:1019E90006B890029BE025E0249DF582E43402F5D7
:1019F9008322F582E43401F583E4F074C72FF5827C
:101A0900E43401F583E4F090011EEF75F00202065B
:101A1900B82FFFE03EFE3395E0FDFC9002AA1206C6
:101A29007BE47F78FEFDFC9002AA12066F0204E7B0
:101A390074DF2FF582E43400F583229002AEE0FFD3
:101A4900245DF582E43401F58322E0FE2441F58228
:101A5900E43400F583E004F074412EF582E43400A7
:101A6900F58322ED75F0029001890206B8C3900250
:101A79009DE090029C9FEE6480F8E06480982212B9
:101A890005729002AEEEF0A3EFF09002A8EEF0A37B
:101A9900EFF02290029FE0FFC3951822D3EB9FEE4F
:101AA9006480F8EA6480982290029BE024FEF58223
:101AB900E43400F5832290029BE024C7F582E434E4
:101AC90001F583229002AEE0FEA3E0FBAA06E4F949
:101AD900F822900187E0FF3395E0FEC3E49FFFE41D
:101AE9009EFE22E0FEA3E0FF900187E0FD3395E032
:101AF900FCC3EF9DFFEE9C22E4F0A3F0A3F0A3F05A
:101B0900A3F022E50E5514FFE50D5513FEE50C551E
:101B190012FDE50B55112290029EE0C394037480D7
:101B290094802290029FE004F022E0FEA3E0FF7C73
:101B39000012045DAD03AC0202046F9DEC6480F8F1
:101B4900E064809822E0FCA3E0FD75F00222900297
:101B59009E7401F022C3EF94327480948022FF7E38
:101B690000E0FCA3E0FD02045DE0FCA3E0C39BFDF3
:101B7900EC9AFCEE22900187E0FB3395E0FAFEEB4C
:101B890022900187E0FFFD3395E0FC22E0FF9002FF
:101B9900A0E0FEEFC39E22E583A2E713FEE58213D0
:101BA900FF22E0FCA3E0FDD322EC8DF00204C4E0A7
:101BB900FEA3E0C39DFFEE9C22E0FDEF9D7480F83B
:101BC9006E9822EE8FF00204C425E0FFE033FE2276
:101BD900E0FEA3E0FF75F002E922900299E0FF9090
:0E1BE90002B3E0229FE5F06480F87480982239
:0C2B2A00EF4E6007EF1F70F81E80F522D0
:03005B000225DC9F
:1025DC00C0E0C0F0C083C082C0D075D000C000C0C5
:0D25EC0001C002C003C004C005C006C00746
:1025F900C209E5191219A2E5E5F0A3E5E4F0051908
:10260900E519C39518400C751900900184E04480C0
:10261900F08002D209AF19122B6E7E00AC09AD0A07
:1026290012045D8EE78FE6AF19122B74E5E2548030
:102639004FF5E2747F2519F582E43400F583E0440F
:0826490080F5E8300902D2EE31
:10265100D007D006D005D004D003D002D001D000DD
:0B266100D0D0D082D083D0F0D0E03287
:102AEA0075FE8543FF2053DB7FD2AFC208E4F51998
:0A2AFA00900184F01229A80229734C
:032B7D00D2EE2273
:102A0900E4FD900184E0547FF0D2EE900184E0541B
:102A19008070127FE87E03122B2A43CF100DEDC37D
:052A2900121B6040E6F5
:012A2E002285
:1028BC009002BC7420F0122A099002BCE0FF14F0C4
:1028CC00EF70F3122A2F122B569002BCEFF0122A43
:1028DC0009E49002BDF09002BDE0FFC39518500BC7
:1028EC0012266C9002BDE004F080EB9002BCE0FF7D
:0528FC0014F0EF70D99B
:0129010022B3
:102A5200E4FFEFC39518501875F002EF1219A5E0C4
:102A6200FCA3E0FDEF1219E2ECF0A3EDF00F80E21F
:012A72002241
:10276600E4F51A900299F0900299E0FFC39518508B
:1027760053A37401F012266CE4FFEFC395155012B3
:1027860074222FF8900299E0667004A3F080030F7C
:1027960080E8E4FFEFC395175012743E2FF89002BD
:1027A60099E0667004A3F080030F80E890029AE037
:1027B60064017008900299E0FF1216A1900299E058
:1027C60004F080A3121BF712108DAF0EAE0DAD0CE8
:0227D600AC0B4A
:0127D80022DE
:102444009002AEEDF09002ACEEF0A3EFF0900187B5
:10245400E0FDFB3395E0FAC3E49BFBE49AFAC3EF97
:102464009BEA6480F8EE6480984064EDFF3395E065
:10247400FE9002AC121BAB1219C15053A3E09001A1
:102484001E1219E5121BB2122B419002AE1219B2A0
:10249400400E9002AEE0FF1219E2E475F0018017DD
:1024A400122B419002AE1219AB50169002AEE0FF0F
:1024B4001219E274FFF5F01204C4121A10E4F0A326
:1024C400F0121A44E4F074412F121A64E4F0221258
:1024D4001ADBC39002ADE09002AC121A7E503A129D
:1024E4001A44E004F0745D2F121A4BE0FF75F00AF1
:1024F40084E5F07048121B5E9002AEE04008121AA8
:1025040049E4F0D208221219E2C083C082121AEC04
:10251400D082D083F0A3EFF022121B8AD39002ADB5
:10252400E09002AC121B4440149002AE121A53E025
:0E253400642070099002AE1219CB121BB22265
:0516A10090029BEFF038
:1016A600E49002A3F090029BE0FF1219E2121B4E97
:1016B600EF1219A5121BB890029CF0A3EFF0E47F7D
:1016C60001FEFDFC90029BE0F9F81206508F148E85
:1016D600138D128C11AF01122AD09002A1EEF0A345
:1016E600EFF0121A764005121B578005E490029E11
:1016F600F090029EE06401600302186190029BE094
:10170600FF24DF121A3CE0C394FA748094805006DA
:10171600121A39E004F0121B0CFCE4FBFAF9F8C3C8
:1017260012062C6003021848900000E09002A0F018
:10173600122B7AEF6030E490029EF0A3F0121A9C0E
:101746005018121A39E0C3940174809480400690B0
:10175600029EE004F0121B2C80E3121B204007902F
:1017660002A0E0240AF090029BE024DF121A3C1249
:101776001B955003021848E490029EF0122B5EEF70
:10178600705E90029FF0121A9C502290029BE06FAE
:101796006016122B4C90029FE024DF121A3CE0C325
:1017A6009F4005121B578005121B2C80D9122B7ADD
:1017B600EF3395E04F706390029EE0705DA3F012E8
:1017C6001A9C505690029BE06F6010122B4C9002B0
:1017D6009F121AB4E0C39F4002803C121B2C80DF8C
:1017E600122B7AEF3395E04F70309002A0F0900202
:1017F6009FF0121A9C5018121A39E0C39402748092
:10180600948040069002A0E004F0121B2C80E39026
:1018160002A0121B234003121B5790029EE0640194
:101826007002D20730031BE50E4514FFE50D451384
:10183600FEE50C4512FDE50B45118F0E8E0D8D0C48
:10184600F50B90029BE0FF245D1219FBE4F0A3F078
:1018560074412FF582E4340002194390029BE0FFA5
:10186600122B04AC06AD0790029CE0FEA3E0FFD36A
:101876009DEC6480F8EE6480984008121AB1E0048A
:10188600F08007051A121AB1E4F090029BE0FD12EF
:101896002444121B0C4D4E4F700302194F9002A1A7
:1018A600E0FCA3E0FDAE047802CEA2E713CE13D887
:1018B600F8FFC3ED9FFFEC9EFE121A764003021955
:1018C60048121ABFE004F0122B669002A0EFF0E473
:1018D60090029FF0121A9C5018121A39E0C3940114
:1018E60074809480400690029EE004F0121B2C80C7
:1018F600E3121B204008900000E09002A0F0900246
:101906009BE0FB121AC3121B95407774C72B121A61
:10191600C5E4F0AF14AE13AD12AC11120611E50E0C
:101926005FFFE50D5EFEE50C5DFDE50B5C8F0E8E43
:101936000D8D0CF50B74DF2BF582E43400F583E492
:10194600F022121ABFE014F02290029BE0FF24DF7F
:10195600121A3CE4F0E518146F7027E51AC39518BF
:101966004020E490029FF0121A9C500E121A39E0A1
:101976006003121B57121B2C80ED90029EE0700232
:02198600C20796
:01198800223C
:101BF700D20A9002A0120687000000009002A412E9
:101C07001B01A3F09002B475F0011204C4E4900222
:101C17009FF090029FE0FFC395154003021CCA7412
:101C2700222FF8E69002A9F0E0FF1219E2121B4EEC
:101C3700EF1219A5121BB8FE90029BF0A3EFF090CC
:101C4700017FD3121BC24007E49002B4F0A3F090C7
:101C57000188E0FFC390029CE09F7480F890029B8C
:101C6700E06480985004E4F0A3F09002A9E0FF122A
:101C77002AD0AA06AB0790029B7D64121B33900201
:101C87009BEEF0A3EFF04E603190029BE0FEA3E0E5
:101C9700FF9002A4121BCC9002A012066FC0009006
:101CA700029FE090029B121B67EE3395E0FDFCD08C
:101CB700001204DA9002A012067B90029FE004F063
:101CC700021C199002B4E07002A3E06003021DD267
:101CD700E51524FFFDE434FFFC1203A3C004C0058F
:101CE700C006C00790028AE0FCE41203A8D003D024
:101CF70002D001D0001203017B0A7AD779A3783B7F
:101D0700120107E4FBFA79C878421201F8C004C04F
:101D170005C006C0079002A0120663E412039ED016
:101D270003D002D001D0001201F81203DC9002A008
:101D370012067B9002A4E0FEA3E0FF4E7003021E92
:101D470045AB07AA06E4F9F89002A012066312054C
:101D570072EF2432FFE43EFEE43DFDE43CFCE47B0D
:101D670064FAF9F81205729002A4EEF0A3EFF030CE
:101D77000A0F90029DEEF0A3EFF090017CF0C20AEB
:101D8700229002A6121BCC9002A8E004F0E064089F
:101D9700702C9002A6E0FEA3E07803CEC313CE1307
:101DA700D8F9FF9002A6EEF0A3EFF090029DEEF0B7
:101DB700A3EFF0E49002A8F09002A6F0A3F090023F
:101DC7009DA3E090017CF0E004F022E490017CF018
:101DD700900206E0FFD39002B5E09F9002B4E09432
:101DE70000405BE4F0A3F090029FF090029FE0FFB9
:101DF700C39515504974222FF8E6FF9002A9F0E029
:101E0700FE1219E2121B4EEE1219A5E0FAA3E0C367
:101E17009DFEEA9C90029BF0A3CEF0122AD090027E
:101E2700AAEEF0A3EFF090029BE0FEA3E0FF900282
:0E1E3700A9E0FD12244490029FE004F080AD6B
:011E4500227A
:10108D00D20A9002AA120687000000009002AE124A
:10109D001B019002B675F0011204C4E490029BF09E
:1010AD0090029BE0FFC395175063121989121B72B2
:1010BD001219EFECF0A3EDF09000DEE0FDEF121948
:1010CD00EFE0FEA3E0FFD39D7480F8EE64809840BE
:1010DD0007E49002B6F0A3F090011DC3121BC2509D
:1010ED00071219EBE4F0A3F090029CE0FF122AD056
:1010FD00AA06AB071219EB7D0A121B331219EBEE80
:10110D00F0A3EFF090029BE004F00210AD9002B658
:10111D00E0FEA3E0FF4E600302125A90029F121BE5
:10112D00AB90029EE090029D121B444007E490029A
:10113D00A5F080069002A57401F09002A51219EE9B
:10114D00121BAB9002A2E09DEC6480F89002A1E02E
:10115D0064809840069002A57402F0EF4E60030281
:10116D0013A390029FE0FEA3E0FF90029DE0FCA37D
:10117D00E0FD2FFFEC3EFE9002A2E02FFF9002A1BA
:10118D00E03E9002AEF0A3EFF09002A5E070249047
:10119D0002A0E090029F121BD2ED2FFFEC121A1D40
:1011AD00C006C007121ACDD007D006121A8824F037
:1011BD0002121F9002A5E0640170289002A2E09037
:1011CD0002A1121BD29002A0E090029F121A1AC027
:1011DD0006C007121ACDD007D006121A889002A6A3
:1011ED00EE80359002A5E06402703190029EE025FC
:1011FD00E0FF90029DE033FE9002A2E09002A1126A
:10120D001A1AC006C007121ACDD007D006121A88B6
:10121D002478FFE43E9002A6F0A3EFF0D39002A74E
:10122D00E094689002A6E09401400874FE75F09871
:10123D001204C490024DE09002A6121B677C017D42
:10124D006812046F90009EEEF0A3EFF022E4900080
:10125D009EF0A3F0900206E0FFD39002B7E09F90BE
:10126D0002B6E0940050030213A3E4F0A3F0900241
:10127D009BF090029BE0FFC3951740030213A3124E
:10128D001989121B721219EFECF0A3EDF090018782
:10129D00E0FEFD3395E0FCC3E49DFDE49CFCEF1204
:1012AD0019EFE0FAA3E0FBC39DEC121AA9406DEE15
:1012BD00FF3395E0FE121AA550621219EBE0FEA362
:1012CD00E0FF90029CE090011E121A14121BCC122A
:1012DD002B4190029C1219B2400E90029CE0FF121D
:1012ED0019E2E475F0018017122B4190029C12193E
:1012FD00AB501690029CE0FF1219E274FFF5F0124C
:10130D0004C4121A10E4F0A3F090029C121A47E4E0
:10131D00F074412F121A64E4F002139A121ADB12C0
:10132D0019EB1219BC504090029C121A47E004F0C0
:10133D00745D2F121A4BE0FF75F00A84E5F0704DC5
:10134D00121B5E90029CE0400A121A49E4F0D2088A
:10135D0002139A1219E2C083C082121AECD082D005
:10136D0083F0A3EFF08026121B8A1219EBE0FAA38B
:10137D00E0D39DEC121AA9401490029C121A53E06E
:10138D006420700990029C1219CB121BB290029B23
:06139D00E004F002127FE3
:0113A3002227
:102A2F00E4FFEFC39518501A75F002EF1219A5E0E5
:102A3F00FCA3E0FD900189121A13ECF0A3EDF00F47
:022A4F0080E025
:012A51002262
:02266C00AD07B8
:10266E00121A6CE0FEA3E0FF1219A1E0FAA3E0C378
:10267E009FFFEA9EAB07FA900032121BA0121AA51A
:10268E00500C121BA0121AE4C3121AA6500A1219E9
:10269E00A1E0FEA3E0FF8030121A6CE0FAA3E0FB8B
:1026AE00AE027803CEC313CE13D8F9FFC3EB9FFB54
:1026BE00EA9EFA1219A1E0FEA3E07803CEC313CE70
:1026CE0013D8F92BFFEA3EFE121A6CEEF0A3EFF0D0
:1026DE00121A6CE0FEA3E0FF1219A1EEF0A3EFF0C8
:0126EE0022C9
:032B8000A2082286
:032B8300D2082253
:10297300E4FFEFC39518501A121A39E4F0745D2F6F
:102983001219FBE4F0A3F074FE2F121AB7E4F00F50
:1029930080E0E4F50EF50DF50CF50B7508FFF50F6A
:0429A300F510C20861
:0129A700220D
:05220A00900299EFF0C5
:10220F00C3E516121B254030E4F516900205E07069
:10221F001CF9E9C395185015E9121A6D121BD990C4
:10222F0000011206B8EEF0A3EFF00980E512297352
:10223F00C208E4900205F0229002B3E004F0121BF2
:10224F00E3B50706122A2FE4F508121BE3D39F50BC
:10225F0003022329E4F9E9C3951840030222F0751C
:10226F00F002E9121A70121BD91219A5E0FCA3E0B3
:10227F00C39FFFEC9EAD07FC900205E0702E121B72
:10228F007E7802C333CE33CED8F9FFD3ED1219C106
:10229F004046E49BFFE49AFEEF7802C333CE33CE81
:1022AF00D8F9FFC3ED1219C1502E8035121B7E785D
:1022BF0003C333CE33CED8F9FFD3ED1219C1401873
:1022CF00E49BFFE49AFEEF7803C333CE33CED8F905
:1022DF00FFC3ED1219C14009AF0112266C0902228A
:1022EF0065E9B518020508900299E0FD75F008A49C
:1022FF00FF9002B3E0C3121BED401FE4F0C20705CD
:10230F0016ED75F004A4FFC3E508121BED400BE4B6
:0A231F00F516122A52122973C208A3
:012329002291
:10272000C106C101011B004102080044024800002B
:102730000000C100420214000041020700410241B2
:102740000041023A0041024E00C1034102380041FB
:10275000024D0042028B0000420236000045023B5F
:052760004000041F40D1
:101E46007D5F90023EE0FEA3E0FF7C001206C47BAD
:101E560064E4FAF9F80205723EF583E0FFF5A7900F
:101E6600024CE02FF022EF25E0249EF8E6FE9002D9
:101E760008E0FDEF2DFF25E0245AF8A60690028D16
:101E8600E025E0249FF8E6FEEF25E0245BF8A606B1
:101E9600E004F022789DE675F002A42404FFE43500
:101EA600F0FE900239E0C39FEE6480F874809822B9
:101EB60090028DE0FF900208E02FF090024F74012F
:101EC600F0900208E0789A6622740190024FF09032
:101ED6000244E0F42290024F04F0D201D203229091
:101EE6000290E0FD25E02416F582E43402F5832213
:101EF60090024CE0FF74FF9FF5A7E4900239F022B0
:101F060075A75590024C74AAF02275A7AA90024CA8
:101F16007455F022747F2FF582E43400F58322FF96
:101F2600D3E5E49FE5E59E2275E88090023EE0FE5B
:101F3600A3E02290020EE0FF7E00900236E0FCA3B2
:101F4600E0FD12045DEF25E0FFEE33FE229002472E
:101F5600E0FF7E0022900239E0D3940174809480E1
:101F660022900239E0FFFD7C00D3940374809480B4
:101F760022E5E1540F2401FDE433FC7E0F7FA0121D
:101F8600046F8E098F0A22789DE6C454F0789B264A
:101F9600F5E108E6F5E390024EE0789F2290028D87
:101FA600E0FFC3789D962274E62FF582E43401F5AE
:101FB600832224FFFFE434FFFE7C007D0502046FCC
:101FC600540FFE90024CE02EF022FFE4FCFDFE02D0
:101FD6000650F0E5E25480FFE04FF5E2D2EE22E053
:101FE600D3940474809480229002B802066390020F
:101FF6008DE004F022789BE6FF7E0022C3941074E5
:1020060080948022FC7F4012046F90020EEFF02233
:10201600E04480F5E8D2EE22F582E43400F583222E
:10202600900239E0FD7C0022900239E0D3940774D7
:102036008094802275A7A890024C74A8F022C3ED64
:102046009404EC6480948022F583EEF0E490028E92
:02205600F02276
:032B8600D2022256
:102AB400E4900239F0C20290024F04F0438FC075D3
:0C2AC400A45075A54175A60343AA012289
:102A7300121F77E4900250F0900250E0FFC39518C4
:102A8300500E121FAD7408F0900250E004F080E87D
:012A93002220
:100C9600E4900295F0A3F0121F2EFF8EE78FE65325
:100CA600A9EFE490028FF090028FE0C395184003FD
:100CB600020F4043CF10A37401F0900290E0FF7E34
:100CC600001220024003020E4390023DE0C454F09D
:100CD600FD900290E04DF5E190023CE0FDF5E290DA
:100CE600023BE0FCF5E390020BECF0A3EDF0EF2401
:100CF60001FDEE330E12200A90028FE0247F121FB0
:100D06001D12201630EDFDC2ED121E46C3121F271E
:100D1600403C90020BE02402F0E0F5E3D2EE30ED29
:100D2600FDC2ED90020BE0C3945074809480401392
:100D3600A3E02402F0E0FFF5E2C3EF943074809460
:100D460080504B121E46C3121F2750C68040121FEA
:100D5600317805CEC313CE13D8F9121F25502F9024
:100D6600020BE024FEF0E0F5E3D2EE30EDFDC2ED3D
:100D760090020BE0D39402748094804011121F31CC
:100D86007805CEC313CE13D8F9121F2540D1D2EE63
:100D960030EDFDC2ED900212E5E5F0A3E5E4F0903A
:100DA6000212E0FEA3E0FF90020BE0FD7C001206BB
:100DB600C490029112067BE47F0AFEFDFC9002912C
:100DC60012066F1204E7C006C007121F31FBAA06FF
:100DD600E4F9F8D007D006120572A804A905AA06F8
:100DE600AB0790020CE075F014A4FFAEF0E4FCFD36
:100DF6001204DAE47B0AFAF9F81204E7C007900253
:100E06000EE0FBE4FAF9F8D007120572121EE5EEC1
:100E1600F0A3EFF0ED121EEAE0FEA3E0FF900295CC
:100E2600E0FCA3E0FDC3EF9DEE9C4008900295EE2A
:100E3600F0A3EFF0900290E004F0020CC090029054
:100E46007401F0900290E01220024003020F00901D
:100E56000295E0FEA3E0FF7C007D5E121E52121E8C
:100E6600E5E0FAA3E0C39FEA9E5003020EF7900264
:100E760041E0FF7015D3ED121F704006900290E01E
:100E8600801990020F7403F0801DEF6401701890B2
:100E96000290E0FF121F6F4008EF1490020FF080DF
:100EA6000690020F7402F0900290E0FFEF1220020B
:100EB6005015EF121EEAE0FCA3E0FD900210EC8D47
:100EC600F01204C40F80E5900210E0FEA3E0FF904C
:100ED6000290E0FDC374109DFDE49400FC12046FC3
:100EE600900210EEF0A3EFF0E4900295F0A3F080EC
:100EF60009900290E004F0020E4990020FE0FF7E96
:100F060000D390028CE09F90028BE09E5005EEF09D
:100F1600A3EFF090028BE0FEA3E0FF900210E0FC4E
:100F2600A3E0FDC39FEC9E4008900236ECF0A3EDD3
:100F3600F090028FE004F0020CAD90028CE02401E8
:100F4600FD90028BE034007E0112200A900241E0FF
:100F5600FB7A007015121F397C027DBC12046F905B
:100F6600020CEFF075F003A48015EB64014A7013D0
:100F7600121F397C017DF412046F90020CEFF09081
:100F8600020BF0121F2EFF8EE78FE690028BA3E076
:100F9600FFE5E154F04FF5E1122A7390024EE0604E
:100FA6000575E2808003E4F5E290023AE0C454F06D
:100FB600FFE5E1540F4FF5E190020BE0F5E3E49015
:100FC600028FF090028FE0FFC39518400302107461
:100FD60043CF10E5E25480FE90020CE0FD4EF5E2B0
:100FE600A3EDF0121F1A12201630EDFDC2ED7D6939
:100FF600121E487B02121E57C3121F27402690025C
:101006000DE004121FD830EDFDC2ED121F31FF7C3A
:10101600007D69121E52E47B02121E58C3121F275E
:1010260050DC8031121E46E47B02121E58121F2627
:10103600502390020DE014121FD830EDFDC2ED9042
:10104600020D121FE5400E121E46E47B02121E58C8
:10105600121F2640DD90020DE0FF90028FE0246013
:1010660012201EEFF090028FE004F0020FC9C200BA
:10107600E4900236F0A3F090028BF0A3F043A9109F
:0610860090007F1220160D
:01108C002241
:1013A400121F53C394A07480948050030216A0D3D8
:1013B400EF94AD7480948040030216A0EF64A260A1
:1013C40008EF64A6600302149912202670173002F5
:1013D40008D20612203A02167FC206E4F5A790024C
:1013E4004CF002167F900251E075F004A4FBAAF0C1
:1013F400D3ED9BEA6480F8EC6480985078900239CD
:10140400E0FF5403606624FE604F146055240260BC
:10141400030216A0EF24FFFFE434FFFEEF7802CEB0
:10142400C313CE13D8F9FF75F0029001891206B8E0
:10143400E0FDA3E0900242CDF0A3EDF075F002EFE1
:101444009000011206B8E0FEA3E0FF900209EEF05E
:10145400A3EFF0121E6302167F900209121E6102AE
:10146400167F900242A3121E6102167F900242125E
:101474001E6102167FEB2401FFE43A121EA75003FB
:101484000216A0121EF62006030216A0C20690023F
:1014940047F0C20222900247E064AA600302154C9E
:1014A400122026700612203A02167F900251E0752F
:1014B400F005A4FFD3ED9FE5F06480F8EC64809818
:1014C4005071900239E0FF75F00584E5F060502416
:1014D400FE601B146024146035240360030216A00C
:1014E400E5E1540FF5A7E5E1121FC602167FE5E317
:1014F400F5A7E5E3121FC802167FE5E154F0C454D2
:101504000FF5A7E5E154F0C4121FC602167FEF12CF
:101514001FB874E62FF5827401121E5E02167F90C6
:101524000239E0121FB874602FF5827400121E5E37
:1015340002167F900251E075F005A42401121EA347
:1015440050030216A00215FA900247E0FF64A3704C
:101554002C12202664017010900060E0FEF5A79024
:10156400024CE02EF002167FED64024C600302167A
:10157400A090024CE0FEC374FF9E021602EF64AD1D
:101584006003021608900239E07003E004F0900250
:1015940039E0FFFB7A00121FE6504DEF24FE601D78
:1015A40014602A146037240360030216A0121FEE8D
:1015B400781812063D8FA7121E6502167F121FEEC1
:1015C400781012063D8FA7121E6502167F121FEEB9
:1015D400780812063D8FA7121E6502167F121FEEB1
:1015E4008FA7121E6502167FC3EB9405EA648094EC
:1015F4008050030216A090024CE0FF74FF9F121E5D
:10160400FE021690300440900239E07003E004F0CA
:10161400121F675026EF24FE601014601624027017
:101624007B90017C121E6102167F90028A121E6159
:1016340002167F900238121E618040122044405CE2
:10164400121EF6C2048045300547900239E070034B
:10165400E004F0121F67502AEF24FE601014601596
:101664002402703890009EA3121E61800E90024DD9
:10167400121E618006900238121E61900239E00445
:10168400F0221220444015121EF6C205900247F0C3
:0D16940022E4900247F090024CE0F5A722FE
:1006F100E490028DF0A3F090024FE024FE606014BC
:100701007003020C6924026003020C87AFA7C3EFD8
:1007110094A0748094805003020C87AFA7D3EF9408
:10072100AD748094804003020C87AFA7EF64A26090
:100731000EAFA7EF64A66007AFA7EF64AA70089099
:10074100024F7403F0800690024F7402F09002474A
:10075100E5A7F0900244E5A7F0E4900239F0229079
:100761000239E0FF249BF8A6A7749B2FF8E6FF90BF
:100771000244E02FF0900239E004F0121F5364A00C
:100781007028900239E0D394207480948050030241
:100791000C87789BE6900241F078AFE690024EF02C
:1007A10078B1E690023AF0020C56EF64A84E60036D
:1007B10002089F900239121FE55003020C87789DB1
:1007C100E67810121FD0C004C005C006C007789E8D
:1007D100E67818121FD0D003D002D001D000120445
:1007E100DAC004C005C006C007789CE6FFE4FCFD42
:1007F100FE7808120650D003D002D001D0001204B6
:10080100DAC004A905AA06AB07789BE6FFE4FCFD64
:10081100FED0001204DA90024812067BE4F518902B
:10082100028DF090028DE0FBC3941F748094805080
:1008310024900248120663780112063D9002481284
:10084100067B30D70B747F2518121F1DEBF005189E
:10085100121FF480CE900251E518F0789AF675E1F6
:100861003790024EE0600575E2808003E4F5E2E432
:1008710090028DF090028DE0FFC395185013121F66
:10088100AD7408F074602F12201EE4F0121FF48082
:10089100E3D201D2009002077401F0020966121F2F
:1008A1005364A9700F04121ED17006200003020CBC
:1008B1005B020C62EF64A14E703C90025104F01295
:1008C100202E5003020C87121F8D6007E64480F52D
:1008D100E28003E6F5E2789EE69001E6F0121F77EA
:1008E100789FE6900060F078A1E690007FF075189F
:1008F10001D201020966121F5364A57019C203785F
:100901009BE6900251F0F518E4F51BD201121F5B32
:100911004003020C5622EF64A44E704F12202E5059
:1009210003020C87121F8D6007E64480F5E2800305
:10093100E6F5E2789FE6FF7460251B12201EEFF0BA
:1009410018E6FF74E6251B121FB0EFF078A1E6FF51
:10095100747F251B121F1DEFF0051BE51BD3951896
:100961005003020C56122B83020C56121F5364A320
:10097100700F90024F04121ED47003020C4C020C33
:1009810051EF64AB4E6003020AB5121F5B500302C4
:100991000C87121FFB64017010121EDB900244E0F1
:1009A100F47003020C5B020C62EF64034E700B12D5
:1009B1000C887003020C5B020C62789BE664027087
:1009C1002C121E9A5003020C87E490028DF0121F24
:1009D100A35005121E6C80F6121EB67001F0900233
:1009E10044E0F47005121F068003121F10121FFB52
:1009F10064217010121EDB900244E0F47003020CBB
:100A01005B020C62EF64234E700B120C88700302C0
:100A11000C5B020C62789BE66422702C121E9A50C9
:100A210003020C87E490028DF0121FA35005121EE1
:100A31006C80F6121EB67001F0900244E0F470056D
:100A4100121F068003121F10121FFB641170101277
:100A51001EDB900244E0F47003020C5B020C62EFB7
:100A610064134E701590024F04F0122B83900244D0
:100A7100E0F47003020C5B020C62789BE664126086
:100A810003020C56121E9A5003020C87E490028D49
:100A9100F0121FA35005121E6C80F6121EB67001D3
:100AA100F0900244E0F47006121F06020C56121F69
:100AB10010020C56121F5364AD7024121F5B5003B9
:100AC100020C87789BE664016003020C56121EDB60
:100AD100E4900239121ED47003020C4C020C51EF47
:100AE10064AC4E6003020C56900239E0FF121F5FA6
:100AF1005003020C87789BE664216003020B857822
:100B01009DE6FD2404FBE433FAC3EF9BEA121EAF1A
:100B11005003020C87789CE690028AF08D15E490D0
:100B2100028DF090028DE0C39515504BE0FF249E9D
:100B3100F8E6FE74522FF582E4340212204E900240
:100B41008EE0FFC39518502A121F1AE0FF90028D04
:100B5100E0FE2452F582E43402F583E0B5070B9000
:100B6100028EE0FF74222EF8A60790028EE004F0B8
:100B710080CC121FF480AC121ECF7005121F0680AC
:100B810003121F10121FFB64227017121EDBE49068
:100B91000239F0D204900244E0F47003020C4C02DA
:100BA1000C51EF64114E6003020C34789DE6FF2472
:100BB10004FDE433FC900239E0C39DEC121EAF50FA
:100BC10003020C87789CE690024DF08F17E49002A7
:100BD1008DF090028DE0C39517504BE0FF249EF8F5
:100BE100E6FE746E2FF582E4340212204E90028EDE
:100BF100E0FFC39518502A121F1AE0FF90028DE002
:100C0100FE246EF582E43402F583E0B5070B900211
:100C11008EE0FF743E2EF8A60790028EE004F0806D
:100C2100CC121FF480AC121ECF7005121F06800378
:100C3100121F10789BE66412701B121EDBE49002F7
:100C410039F0D205900244E0F4700575A75580147F
:100C510075A7AA8008121ECF700775A755121F0924
:100C61002275A7AA121F1322900244E0FFC374FF4A
:100C71009FB5A71290024F7401F0E4F5A790024CC2
:060C8100F090023904F0BE
:0F0C87002290024F04F0122B83900244E0F422DB
:03007B000227D980
:1027D900C0E0C0F0C083C082C0D075D000C000C0C6
:1027E90001C002C003C004C005C006C007E5A4308B
:1027F900E10643A4021213A4E5A430E00643A401B0
:102809001206F1D007D006D005D004D003D002D0EB
:0E28190001D000D0D0D082D083D0F0D0E032F9
:0300000002254294
:1025420078FFE4F6D8FD9000007F007E04E4F0A35B
:0A255200DFFCDEFA7581BB0225975D
:10010000020448E86480F8E933E83360110460F0E1
:10011000ED33EC337009E8FCE9FDEAFEEBFF220465
:1001200060DED3EB9FEA9EE99DE8C2E78CF0C2F760
:1001300095F0400CE8CCF8E9CDF9EACEFAEBCFFB2C
:1001400012041385D0F05804700320D5B3E804706E
:10015000075002B2D502045292D5EC0460F7E4CC09
:10016000C0E0C398F8603B94186008400DD0E0FBF5
:1001700002042AE4FBFAC9FC8028E830E406E4C95A
:10018000FBE4CAFCE830E305E4C9CACBFCE8540749
:100190006010F8C3E913F9EA13FAEB13FBEC13FC54
:1001A000D8F130F52FC3E49CFCEF9BFFEE9AFEEDF7
:1001B00099FDD0E0FBEF4E4D4C701222DB030204A0
:1001C0004FEC2CFCEF33FFEE33FEED33FDED30E76B
:1001D000EB02042AEF2BFFEE3AFEED39FDD0E0FBF7
:1001E00050130BBB0003020452ED13FDEE13FEEFA0
:0801F00013FFEC13FC02042ACA
:1001F800EC4D6011E8497017ED33EC3304600DE401
:10020800FCFFFEFD22E933E8330470F802044812CB
:10021800041358046009E4CC2481500628500902CC
:10022800045228400302044FC0E0EB4A7044B980EE
:1002380006D0E0FB02043EEF4E701CBD8008EBFFC9
:10024800EAFEE9FD80EBE98DF0A4FEE5F00202E1AB
:10025800E9CDF9EAFEEBFFEF89F0A4FCE5F0CE89E1
:10026800F0A42EFFE435F0CD89F0A42DFEE435F09E
:100278008067EF4E7005BD80D780C3EF8BF0A4ACCC
:10028800F0EE8BF0A42CFCE435F0F8EF8AF0A42C07
:10029800E5F038FCE433CB8DF0A42CFCE5F03BF81A
:1002A800EE8AF0A42CFCE5F038F8E433CF89F0A40A
:1002B8002CFCE5F038CF3400CE89F0A42FFFE5F010
:1002C8003EFEE433C98DF0A42EFEE5F039CD8AF068
:1002D800A42FFFE5F03EFEE43DFD33D0E0FB5007E0
:1002E8000BBB000F020452EC2CFCEF33FFEE33FE85
:0602F800ED33FD02042AB3
:1002FE00020452EC5D046005E859047003020448E0
:10030E00120413580460F6EC4860F2EC7004FDFE23
:10031E00FF22C860DB2481C85009C39860025006D2
:10032E0002044F9850CAF582E9294B4A7005AB82F8
:10033E0002043E75F0007C1A7880C3EF9BEE9AEDB6
:10034E0099400DC3EF9BFFEE9AFEED99FDE842F04A
:10035E00DC23ACF0D0E0FFD0E0FED0E0FDAB82209D
:10036E00E7101BEB60BAEC2CFCEF33FFEE33FEED27
:10037E0033FD02042AE803F830E705C0F075F000FB
:10038E00EF2FFFEE33FEED33FD40B830E7C280AA0B
:10039E0075F020800E75F010800575F0087D007EDA
:1003AE00007F003392D530D50312061EEC33401079
:1003BE00EF33FFEE33FEED33FDEC33FCD5F0ED22E3
:0E03CE00E5F0247EA2D513CC92E7CDCEFF221F
:1003DC00EDD2E7CD33EC3392D524814006E4FFFE19
:1003EC00FDFC22FCE4CFCECDCC24E0501174FF8078
:1003FC00EDC3CC13CCCD13CDCE13CECF13CF047015
:07040C00F030D5DE02061EF0
:10041300E9D2E7C933E833F892D5EDD2E7CD33EC2F
:0704230033FC5002B2D522A8
:10042A00EC30E7100FBF000C0EBE00080DBD000433
:10043A000BEB6014A2D5EB13FCED92E7FD2274FFDF
:10044A00FCFDFEFF22E480F8A2D574FF13FC7D8038
:03045A00E480EF4C
:10255C00022B19E493A3F8E493A34003F68001F251
:10256C0008DFF48029E493A3F85407240CC8C33380
:10257C00C4540F4420C8834004F456800146F6DF4F
:10258C00E4800B01020408102040809026EFE47ECA
:10259C00019360BCA3FF543F30E509541FFEE49344
:1025AC00A360010ECF54C025E060A840B8E493A30B
:1025BC00FAE493A3F8E493A3C8C582C8CAC583CA36
:1025CC00F0A3C8C582C8CAC583CADFE9DEE780BEEE
:012765000073
:10045D00EF8DF0A4A8F0CF8CF0A428CE8DF0A42EB3
:02046D00FE226D
:10046F00BC000BBE0029EF8DF084FFADF022E4CC71
:10047F00F875F008EF2FFFEE33FEEC33FCEE9DEC3A
:10048F00984005FCEE9DFE0FD5F0E9E4CEFD22ED80
:10049F00F8F5F0EE8420D21CFEADF075F008EF2FCA
:1004AF00FFED33FD4007985006D5F0F222C398FDBB
:0504BF000FD5F0EA2258
:1004C400C5F0F8A3E028F0C5F0F8E58215827002C3
:0604D4001583E038F02260
:0D04DA00EF2BFFEE3AFEED39FDEC38FC2271
:1004E700E88FF0A4CC8BF0A42CFCE98EF0A42CFCB4
:1004F7008AF0EDA42CFCEA8EF0A4CDA8F08BF0A432
:100507002DCC3825F0FDE98FF0A42CCD35F0FCEB90
:100517008EF0A4FEA9F0EB8FF0A4CFC5F02ECD3955
:0F052700FEE43CFCEAA42DCE35F0FDE43CFC22C2
:1005360075F008758200EF2FFFEE33FECD33CDCC7C
:1005460033CCC58233C5829BED9AEC99E5829840FF
:100556000CF582EE9BFEED9AFDEC99FC0FD5F0D6DC
:10056600E4CEFBE4CDFAE4CCF9A88222B800C1B906
:100576000059BA002DEC8BF084CFCECDFCE5F0CB44
:10058600F97818EF2FFFEE33FEED33FDEC33FCEB7D
:1005960033FB10D703994004EB99FB0FD8E5E4F938
:1005A600FA227818EF2FFFEE33FEED33FDEC33FC25
:1005B600C933C910D7059BE99A4007EC9BFCE99A19
:1005C600F90FD8E0E4C9FAE4CCFB2275F010EF2F5E
:1005D600FFEE33FEED33FDCC33CCC833C810D7075E
:1005E6009BEC9AE899400AED9BFDEC9AFCE899F899
:0E05F6000FD5F0DAE4CDFBE4CCFAE4C8F9222C
:0D060400EF4BFFEE4AFEED49FDEC48FC22F5
:0D061100CFF4CFCEF4CECDF4CDCCF4CC227E
:0E061E00C3E49FFFE49EFEE49DFDE49CFC22ED
:10062C00EB9FF5F0EA9E42F0E99D42F0E89C45F024
:01063C00229B
:10063D00E8600FECC313FCED13FDEE13FEEF13FF9B
:03064D00D8F122BF
:10065000E8600FEFC333FFEE33FEED33FDEC33FC08
:03066000D8F122AC
:0C066300E0FCA3E0FDA3E0FEA3E0FF220A
:0C066F00E0F8A3E0F9A3E0FAA3E0FB220E
:0C067B00ECF0A3EDF0A3EEF0A3EFF022F2
:10068700A8828583F0D083D08212069E12069E121E
:10069700069E12069EE473E493A3C583C5F0C58343
:1006A700C8C582C8F0A3C583C5F0C583C8C582C8BD
:0106B7002220
:0C06B800A42582F582E5F03583F583224D
:1006C400EC8EF0A4CCC5F0CCCDF8EFA4CEC5F02DC3
:1006D400FDE43CFCE8A42EC8C5F03DFDE43CFCEF81
:0D06E400A4FFE5F028FEE43DFDE43CFC220F
:00000001FF
