:10000000021100300003021003210330000302102C
:100010000B210B30000302101321133000030210D8
:100020001B211B3000030210232123300003021088
:100030002B212B3000030210332133300003021038
:100040003B213B30000302104321433000030210E8
:100050004B214B3000030210532153300003021098
:100060005B215B3000030210632163300003021048
:100070006B216B30000302107321733000030210F8
:100080007B217B30000302108321833000030210A8
:100090008B218B3000030210932193300003021058
:1000A0009B219B3000030210A321A3300003021008
:0300B000AB21ABD6
:10100000D2EE22021046C284D28222024BF2D28455
:10101000C2822202104EC294D2A522021052D29451
:10102000C2A522025D59C2A6D2A72202105AD2A698
:10103000C2A722021056C280D28122021062D28040
:10104000C2812202106A5388FD3222021071538835
:10105000F7323202107253ADDF323202689D126BEA
:10106000FE2232024CF77520FF2232021079A209CB
:1010700022323202107AD2092232320210817F01EA
:10108000223232026592AFC722323202108222220D
:03109300021089BF
:10109B0002108A900E02EFF0900E03ECF0A3EDF02D
:1010AB00900E02E0FFEF54F0FF7E00EF4E702253E4
:1010BB00D2FD900E03E0FEA3E0FF900E02E0FDEDEB
:1010CB0025E02440F582E43420F583EEF0A3EFF025
:1010DB0022900E03E0FEA3E0FF900E02E0FDED5424
:1010EB000FFDED25E02434F582E43420F583EEF09A
:0410FB00A3EFF0224D
:1011000078FFE4F6D8FD9000007F007E01E4F0A3B4
:10111000DFFCDEFA75812A02115502428BE493A3AB
:10112000F8E493A34003F68001F208DFF48029E499
:1011300093A3F85407240CC8C333C4540F4420C8E5
:10114000834004F456800146F6DFE4800B0102047C
:101150000810204080903F78E47E019360BCA3FF9C
:10116000543F30E509541FFEE493A360010ECF54B1
:10117000C025E060A840B8E493A3FAE493A3F8E4A0
:1011800093A3C8C582C8CAC583CAF0A3C8C582C80C
:10119000CAC583CADFE9DEE780BE900DA8EFF090F4
:1011A0000DA9ECF0A3EDF0900DABEAF0A3EBF090FD
:1011B0000DA8E0FFEF121D0411C80011D40111E0C9
:1011C0000211EC03000011FF900DA9E0FEA3E0FF67
:1011D000126A5722900DA9E0FEA3E0FF126A822254
:1011E000900DA9E0FEA3E0FF126C4F22900DA9E044
:1011F000FEA3E0FF900DABE0FCA3E0FD126BE2224A
:10120000202304140215C5E86480F8E933E833604C
:10121000110460F0ED33EC337009E8FCE9FDEAFEFF
:10122000EBFF220460DED3EB9FEA9EE99DE8C2E774
:101230008CF0C2F795F0400CE8CCF8E9CDF9EACE95
:10124000FAEBCFFB12159085D0F05804700320D52F
:10125000B3E80470075002B2D50215CF92D5EC0462
:1012600060F7E4CCC0E0C398F8603B941860084095
:101270000DD0E0FB0215A7E4FBFAC9FC8028E8309A
:10128000E406E4C9FBE4CAFCE830E305E4C9CACBE0
:10129000FCE854076010F8C3E913F9EA13FAEB13FA
:1012A000FBEC13FCD8F130F52FC3E49CFCEF9BFF63
:1012B000EE9AFEED99FDD0E0FBEF4E4D4C70122200
:1012C000DB030215CCEC2CFCEF33FFEE33FEED33E9
:1012D000FDED30E7EB0215A7EF2BFFEE3AFEED39FF
:1012E000FDD0E0FB50130BBB00030215CFED13FD47
:1012F000EE13FEEF13FFEC13FC0215A7EC4D60118B
:10130000E8497017ED33EC3304600DE4FCFFFEFD9B
:1013100022E933E8330470F80215C5121590580419
:101320006009E4CC248150062850090215CF2840DA
:10133000030215CCC0E0EB4A7044B98006D0E0FB54
:101340000215BBEF4E701CBD8008EBFFEAFEE9FD05
:1013500080EBE98DF0A4FEE5F00213E5E9CDF9EAB2
:10136000FEEBFFEF89F0A4FCE5F0CE89F0A42EFFA0
:10137000E435F0CD89F0A42DFEE435F08067EF4E22
:101380007005BD80D780C3EF8BF0A4ACF0EE8BF07E
:10139000A42CFCE435F0F8EF8AF0A42CE5F038FC3E
:1013A000E433CB8DF0A42CFCE5F03BF8EE8AF0A4FE
:1013B0002CFCE5F038F8E433CF89F0A42CFCE5F000
:1013C00038CF3400CE89F0A42FFFE5F03EFEE433A1
:1013D000C98DF0A42EFEE5F039CD8AF0A42FFFE5EB
:1013E000F03EFEE43DFD33D0E0FB50070BBB000FA9
:1013F0000215CFEC2CFCEF33FFEE33FEED33FD0294
:1014000015A70215CFEC5D046005E85904700302CE
:1014100015C5121590580460F6EC4860F2EC7004A3
:10142000FDFEFF22C860DB2481C85009C39860021A
:1014300050060215CC9850CAF582E9294B4A70052E
:10144000AB820215BB75F0007C1A7880C3EF9BEE6F
:101450009AED99400DC3EF9BFFEE9AFEED99FDE8E2
:1014600042F0DC23ACF0D0E0FFD0E0FED0E0FDABFA
:101470008220E7101BEB60BAEC2CFCEF33FFEE335D
:10148000FEED33FD0215A7E803F830E705C0F0755F
:10149000F000EF2FFFEE33FEED33FD40B830E7C232
:1014A00080AA74F8CC6480CCC86480C8F5820460DB
:1014B0004FC3EB9FF5F0EA9E42F0E99D42F0E89CB5
:1014C00045F0603C501DE5825FFFE582D313CB5BA6
:1014D000CBF42B5582FB50280ABA002409B900200E
:1014E00008801DE5825BFBE582D313CF5FCFF4C399
:1014F000132F5582FF50090EBE00050DBD00010CD3
:10150000C3EB9FF5F0EA9E42F0E99D42F0E89C456E
:10151000F06007CC4820E701B3EC2275F020800E84
:1015200075F010800575F0087D007E007F00339215
:10153000D530D503121A68EC334010EF33FFEE3389
:10154000FEED33FDEC33FCD5F0ED22E5F0247EA278
:10155000D513CC92E7CDCEFF22EDD2E7CD33EC33DD
:1015600092D524814006E4FFFEFDFC22FCE4CFCEB0
:10157000CDCC24E0501174FF80EDC3CC13CCCD133F
:10158000CDCE13CECF13CF0470F030D5DE021A6863
:10159000E9D2E7C933E833F892D5EDD2E7CD33ECA1
:1015A00033FC5002B2D522EC30E7100FBF000C0E16
:1015B000BE00080DBD00040BEB6014A2D5EB13FCBC
:1015C000ED92E7FD2274FFFCFDFEFF22E480F8A20D
:1015D000D574FF13FC7D80E480EFE709F608DFFA9D
:1015E0008046E709F208DFFA803E88828C83E709AB
:1015F000F0A3DFFA8032E309F608DFFA8078E30926
:10160000F208DFFA807088828C83E309F0A3DFFAA6
:10161000806489828A83E0A3F608DFFA8058898291
:101620008A83E0A3F208DFFA804C80D280FA80C679
:1016300080D4806980F28033801080A680EA809A0E
:1016400080A880DA80E280CA803389828A83ECFABB
:10165000E493A3C8C582C8CCC583CCF0A3C8C58217
:10166000C8CCC583CCDFE9DEE7800D89828A83E4BC
:1016700093A3F608DFF9ECFAA9F0EDFB2289828A40
:1016800083ECFAE0A3C8C582C8CCC583CCF0A3C85C
:10169000C582C8CCC583CCDFEADEE880DB89828ADC
:1016A00083E493A3F208DFF980CC88F0EF60010EA9
:1016B0004E60C388F0ED2402B4040050B9F582EB0B
:1016C0002402B4040050AF232345822390162A73CA
:1016D000BB010689828A83E0225002E722BBFE0218
:1016E000E32289828A83E49322BB010CE58229F5F7
:1016F00082E5833AF583E0225006E92582F8E62266
:10170000BBFE06E92582F8E222E58229F582E5831F
:101710003AF583E49322BB010989828A83F8E028A1
:10172000F022500327F722BBFE05F8E328F3228AB4
:10173000838982F8E4932822BB010FF8E58229F51A
:1017400082E5833AF583E028F0225009C58229F822
:10175000E58226F622BBFE09C58229F8E22582F23F
:1017600022F8EA2583F583E9932822BB01068982C2
:101770008A83F0225002F722BBFE01F322F8BB015C
:101780000DE58229F582E5833AF583E8F0225006DB
:10179000E92582C8F622BBFE05E92582C8F222EFC0
:1017A0008DF0A4A8F0CF8CF0A428CE8DF0A42EFE4E
:1017B00022BC000BBE0029EF8DF084FFADF022E4C7
:1017C000CCF875F008EF2FFFEE33FEEC33FCEE9D06
:1017D000EC984005FCEE9DFE0FD5F0E9E4CEFD222D
:1017E000EDF8F5F0EE8420D21CFEADF075F008EFB8
:1017F0002FFFED33FD4007985006D5F0F222C39835
:10180000FD0FD5F0EA22C5F0F8A3E028F0C5F0F806
:10181000E582158270021583E038F022A3F8E0C556
:10182000F025F0F0E582158270021583E0C838F0EB
:10183000E822BB010A89828A83E0F5F0A3E0225006
:101840000687F009E71922BBFE07E3F5F009E31963
:101850002289828A83E493F5F074019322BB0110FC
:10186000E58229F582E5833AF583E0F5F0A3E022ED
:101870005009E92582F886F008E622BBFE0AE92530
:1018800082F8E2F5F008E222E5832AF583E993F590
:10189000F0A3E99322BB010789828A8302180650CC
:1018A0000B09C5F027F7C5F01937F722BBFE0D0964
:1018B000F8E325F0F3C5F019E338F322F889828ABA
:1018C0008374019325F0C5F0F8E4933822BB010D31
:1018D000C58229C582C5833AC5830218065011C541
:1018E0008229F808E5F026F618F5F0E58236F622AA
:1018F000BBFE11C58229F808E225F0F5F0F218E2E6
:101900003582F222F8E58229F582E5832AF583748F
:10191000019325F0F5F0E4933822BB010A89828A0D
:1019200083F0E5F0A3F0225006F709A7F01922BBD7
:10193000FE06F3E5F009F31922F8BB0111E582294F
:10194000F582E5833AF583E8F0E5F0A3F02250094B
:10195000E92582C8F608A6F022BBFE09E92582C85F
:10196000F2E5F008F222EF2BFFEE3AFEED39FDEC46
:1019700038FC2275F008758200EF2FFFEE33FECDA4
:1019800033CDCC33CCC58233C5829BED9AEC99E53F
:101990008298400CF582EE9BFEED9AFDEC99FC0FCF
:1019A000D5F0D6E4CEFBE4CDFAE4CCF9A88222B897
:1019B00000C1B90059BA002DEC8BF084CFCECDFC1C
:1019C000E5F0CBF97818EF2FFFEE33FEED33FDECA9
:1019D00033FCEB33FB10D703994004EB99FB0FD892
:1019E000E5E4F9FA227818EF2FFFEE33FEED33FD30
:1019F000EC33FCC933C910D7059BE99A4007EC9B2F
:101A0000FCE99AF90FD8E0E4C9FAE4CCFB2275F0BE
:101A100010EF2FFFEE33FEED33FDCC33CCC833C8CF
:101A200010D7079BEC9AE899400AED9BFDEC9AFCD5
:101A3000E899F80FD5F0DAE4CDFBE4CCFAE4C8F984
:101A400022EF5BFFEE5AFEED59FDEC58FC22EF6BE6
:101A5000FFEE6AFEED69FDEC68FC22CFF4CFCEF418
:101A6000CECDF4CDCCF4CC22C3E49FFFE49EFEE4C3
:101A70009DFDE49CFC22EB9FF5F0EA9E42F0E99D7F
:101A800042F0EC6480C864809845F022EB9FF5F04A
:101A9000EA9E42F0E99D42F0E89C45F022E8600FA2
:101AA000ECC313FCED13FDEE13FEEF13FFD8F12290
:101AB000E8600FEFC333FFEE33FEED33FDEC33FC94
:101AC000D8F122BB010DE58229F582E5833AF58341
:101AD000021B0D5007E92582F8021D5CBBFE07E9D9
:101AE0002582F8021D68E58229F582E5833AF583AF
:101AF000021B19BB010789828A83021B9A5005E9E0
:101B0000F8021D9EBBFE05E9F8021DAA22E0FCA317
:101B1000E0FDA3E0FEA3E0FF22E493FC740193FD4B
:101B2000740293FE740393FF22E0F8A3E0F9A3E0AC
:101B3000FAA3E0FB22BB010DE58229F582E5833A99
:101B4000F583021B295007E92582F8021D74BBFEAC
:101B500007E92582F8021D81E58229F582E5833AAD
:101B6000F583021D8E7401FF3395E0FEFDFCA3A3F7
:101B7000A3E0CF2FF0E582158270021583E0CE3E00
:101B8000F0E582158270021583E0CD3DF0E5821507
:101B90008270021583E0CC3CF022ECF0A3EDF0A3C0
:101BA000EEF0A3EFF022A8828583F0D083D08212DA
:101BB0001BBD121BBD121BBD121BBDE473E493A31E
:101BC000C583C5F0C583C8C582C8F0A3C583C5F069
:101BD000C583C8C582C822A42582F582E5F0358375
:101BE000F58322E0FBA3E0FAA3E0F922F8E0FBA3EF
:101BF000A3E0F925F0F0E582158270021583E0FA82
:101C000038F022EBF0A3EAF0A3E9F022BB01078948
:101C1000828A83021BE35005E9F8021DB6BBFE056C
:101C2000E9F8021DC889828A83021DDABB011A897C
:101C3000828A83D0F0D0E0F8D0E0F9D0E0FAD0E0AA
:101C4000FBE8C0E0C0F0021C035016E9F8D083D0D6
:101C500082D0E0F9D0E0FAD0E0FBC082C083021D60
:101C6000BFBBFE16E9F8D083D082D0E0F9D0E0FA0D
:101C7000D0E0FBC082C083021DD122BB010DE582F2
:101C800029F582E5833AF583021BE35007E92582B3
:101C9000F8021DB6BBFE07E92582F8021DC8E582E1
:101CA00029F582E5833AF583021DDABB0120E5823E
:101CB00029F582E5833AF583D0F0D0E0F8D0E0F959
:101CC000D0E0FAD0E0FBE8C0E0C0F0021C035018FE
:101CD000E92582F8D083D082D0E0F9D0E0FAD0E0D4
:101CE000FBC082C083021DBFBBFE18E92582F8D06D
:101CF00083D082D0E0F9D0E0FAD0E0FBC082C0838C
:101D0000021DD122D083D082F8E493701274019323
:101D1000700DA3A393F8740193F5828883E4737420
:101D200002936860EFA3A3A380DF8A838982E473B0
:101D3000EF4E6012EF60010EEDBB010B89828A83CA
:101D4000F0A3DFFCDEFA2289F05007F709DFFCA9D7
:101D5000F022BBFEFCF309DFFCA9F022E6FC08E65A
:101D6000FD08E6FE08E6FF22E2FC08E2FD08E2FECE
:101D700008E2FF22E6FB08E6F908E6FA08E6CBF8F7
:101D800022E2FB08E2F908E2FA08E2CBF822E49347
:101D9000F8740193F9740293FA740393FB22ECF63E
:101DA00008EDF608EEF608EFF622ECF208EDF20880
:101DB000EEF208EFF222E6FB08E6FA08E6F922EB7B
:101DC000F608EAF608E9F622E2FB08E2FA08E2F988
:101DD00022EBF208EAF208E9F222E493FB740193A1
:101DE000FA740293F922900922E0FFEF20E11590A6
:101DF0000925E0FF7E00D3EF9400EE6480948050CC
:101E000003021EAF90096FE0FFEF4401FF90096FDE
:101E1000EFF0900922E0FFEF30E1089009707403C1
:101E2000F08064900925E0FFEF30E00890097074BD
:101E30001FF08053900925E0FFEF30E10890097012
:101E40007420F08042900925E0FFEF30E20890090D
:101E5000707421F08031900925E0FFEF30E30890A5
:101E600009707422F08020900925E0FFEF30E4082B
:101E70009009707423F0800F900925E0FFEF30E5A2
:101E8000069009707424F0900922E0FFEF54FDFFE2
:101E9000900922EFF0900925E4F0900975E4F090A4
:101EA0000971E4F0A3E4F0900973E4F0A3E4F09086
:101EB000096FE0FFEF20E003022215900970E0FFB8
:101EC0007E00EF64014E70537BFF7A6D7977C0031B
:101ED000C002C0017B017A097971900BF4121C03D6
:101EE0007B017A097973900BF7121C037B017A0945
:101EF0007975900BFA121C03D001D002D003122C7A
:101F0000A97E00EF64014E600302221C90096FE07D
:101F1000FFEF54FEFF90096FEFF022900970E0FF91
:101F20007E00EF64024E70537BFF7A6D799FC00391
:101F3000C002C0017B017A097971900BF4121C0375
:101F40007B017A097973900BF7121C037B017A09E4
:101F50007975900BFA121C03D001D002D003122C19
:101F6000A97E00EF64014E600302221C90096FE01D
:101F7000FFEF54FEFF90096FEFF022900970E0FF31
:101F80007E00EF64034E70537BFF7A6D79C7C00308
:101F9000C002C0017B017A097971900BF4121C0315
:101FA0007B017A097973900BF7121C037B017A0984
:101FB0007975900BFA121C03D001D002D003122CB9
:101FC000A97E00EF64014E600302221C90096FE0BD
:101FD000FFEF54FEFF90096FEFF022900970E0FFD1
:101FE0007E00EF641F4E70537B017A097976C0033F
:101FF000C002C0017B017A097971900BF4121C03B5
:102000007B017A097973900BF7121C037B017A0923
:102010007975900BFA121C03D001D002D003122C58
:10202000A97E00EF64014E600302221C90096FE05C
:10203000FFEF54FEFF90096FEFF022900970E0FF70
:102040007E00EF64204E70537B017A0979AEC003A5
:10205000C002C0017B017A097971900BF4121C0354
:102060007B017A097973900BF7121C037B017A09C3
:102070007975900BFA121C03D001D002D003122CF8
:10208000A97E00EF64014E600302221C90096FE0FC
:10209000FFEF54FEFF90096FEFF022900970E0FF10
:1020A0007E00EF64214E70537B017A0979BEC00334
:1020B000C002C0017B017A097971900BF4121C03F4
:1020C0007B017A097973900BF7121C037B017A0963
:1020D0007975900BFA121C03D001D002D003122C98
:1020E000A97E00EF64014E600302221C90096FE09C
:1020F000FFEF54FEFF90096FEFF022900970E0FFB0
:102100007E00EF64224E70537B017A0979CEC003C2
:10211000C002C0017B017A097971900BF4121C0393
:102120007B017A097973900BF7121C037B017A0902
:102130007975900BFA121C03D001D002D003122C37
:10214000A97E00EF64014E600302221C90096FE03B
:10215000FFEF54FEFF90096FEFF022900970E0FF4F
:102160007E00EF64234E70507B017A0979EEC00344
:10217000C002C0017B017A097971900BF4121C0333
:102180007B017A097973900BF7121C037B017A09A2
:102190007975900BFA121C03D001D002D003122CD7
:1021A000A97E00EF64014E707390096FE0FFEF5459
:1021B000FEFF90096FEFF022900970E0FF7E00EFC4
:1021C00064244E70577B017A0979FEC003C002C0B7
:1021D000017B017A097971900BF4121C037B017A5F
:1021E000097973900BF7121C037B017A09797590BA
:1021F0000BFA121C03D001D002D003122CA97E00CE
:10220000EF64014E701690096FE0FFEF54FEFF90EF
:10221000096FEFF0227D007F001266A422900B511F
:10222000EFF0E4900B59F0900B51E0900A81123CD2
:1022300030123D73900B52F0A3EFF0E47F01FEFDEE
:10224000FC900B51E0F9F8121AB08F298E288D27D7
:102250008C26AF01126767900B57EEF0A3EFF012D8
:102260003C834005123D958005E4900B54F0900BA3
:1022700054E0640160030223CF900B51E0FF248DF2
:10228000123C98E0C394FA748094805006123C95F6
:10229000E004F0123D46FCE4FBFAF9F8C3121A8C94
:1022A00060030223BC900A80E0900B56F012107E6F
:1022B000EF6030E4900B54F0A3F0123CD0501812B1
:1022C0003C95E0C39401748094804006900B54E0E8
:1022D00004F0123D5A80E3123D034007900B56E094
:1022E000240FF0900B51E0248D123C98123DB55014
:1022F000030223BCE4900B54F0126D51EF705E901A
:102300000B55F0123CD05022900B51E06F6016122A
:102310006D0E900B55E0248D123C98E0C39F400554
:10232000123D958005123D5A80D912107EEF3395EB
:10233000E04F7063900B54E0705DA3F0123CD050FE
:1023400056900B51E06F6010126D0E900B55123CC1
:10235000EAE0C39F4002803C123D5A80DF12107EAB
:10236000EF3395E04F7030900B56F0900B55F01214
:102370003CD05018123C95E0C39402748094804085
:1023800006900B56E004F0123D5A80E3900B561273
:102390003D064003123D95900B54E064017002D25B
:1023A00008E5254529FFE5244528FEE5234527FDC9
:1023B000E52245268F258E248D23F522900B51E0B2
:1023C000FF2495123C46E4F0A3123CDD0225E29086
:1023D0000B51E0FF1267A7900B52E0FCA3E0FDD386
:1023E000123C774008123CE7E004F0800B900CEDC3
:1023F000E004F0123CE7E4F0123D7DC3E49FFBE40F
:102400009EFAC3ED9BEA123C794066D3123C84509D
:1024100060123D24F583E4123CDD123CAE60030201
:102420002536900B52E0FEA3E0FF900B51E0900A9E
:1024300091123CCAEE8FF0121806126D3B123C65E9
:102440004009123CA0E475F0018019126D3BC3E411
:102450009FFFE49EFE123C654003022536123CA01D
:1024600074FFF5F0121806123C5BE4F0A3F00225AD
:1024700036123D7DC3E49FFFE4123C815073123D50
:1024800024123CD9F583E4F074952FF582E4340AE4
:10249000F583E0FF75F00A84E5F07044C3EF9464BF
:1024A00074809480900B51E04010123D29F583E434
:1024B000F0D209900AA504F08026123CA5C083C082
:1024C00082E0FEA3E0FF900A9EE0A2E713FD3395B1
:1024D000E0FCC3EF9DFFEE9CD082D083F0A3EFF031
:1024E000900B51E0FF900CE6E06F704A74FFF080B3
:1024F00045123D7DD3123C84403C900B51E0123D8F
:1025000029123CAE7030123D9C123CD9F583E06438
:10251000207023123D9CF583E4F0900A9EE0A2E730
:1025200013A2E713FD3395E0FC75F002EF123CA80F
:10253000EC8DF0121806123D464D4E4F70030225E9
:10254000EE900B57E0FCA3E0FDAE047802CEA2E7CC
:1025500013CE13D8F8FFC3ED9FFFEC123C8140036C
:102560000225E7123CF5E004F0126D66900B56EF81
:10257000F0E4900B55F0123CD05018123C95E0C39B
:102580009401748094804006900B54E004F0123D56
:102590005A80E3123D034008900A80E0900B56F009
:1025A000900B51E0FB123CF9123DB5500302263866
:1025B00074A32B123CFBE4F0AF29AE28AD27AC2668
:1025C000121A5BE5255FFFE5245EFEE5235DFDE570
:1025D000225C8F258E248D23F522748D2BF582E4C9
:1025E000340AF583E4F022123CF5E014F022900B5B
:1025F00051E0248D123C98123CB07008900B51E0D1
:10260000FF125C59E52A14FF900B51E06F7029907E
:102610000CEDE0C3952A4020E4900B55F0123CD01D
:10262000500E123C95E06003123D95123D5A80ED2C
:10263000900B54E07002C20822900962E0FFEF5450
:102640007FFF900E6AEFF0900928E0FFEF30E10382
:102650000229D4900920E0FFEF20E70122900E6AC2
:10266000E0FF900962E0FEEE547FFEEEC39F500E45
:10267000900962E0FFEF547FFF900E6AEFF090093F
:102680002CE0FEA3E0FFEF4E600302282E9009230A
:10269000E0FFEF54FEFF900923EFF0900923E0FFE5
:1026A000EF54EFFF900923EFF0900E6AE0FF7E00F9
:1026B000D3EF9401EE648094805062900AD9E0FFD9
:1026C000EF20E13C900920E0FFEF30E33390092157
:1026D000E0FFEF30E72A900AD9E0FFEF54FEFF90C9
:1026E0000AD9EFF0900AD9E0FFEF4402FF900AD92F
:1026F000EFF0900925E0FFEF4401FF900925EFF08E
:10270000900923E0FFEF4402FF900923EFF09009C6
:1027100023E0FFEF54DFFF900923EFF022900E6AD1
:10272000E0FF7E00D3EF9403EE64809480400302C8
:10273000281F900AD9E0FFEF20E03C900920E0FF3D
:10274000EF30E333900921E0FFEF30E72A900AD918
:10275000E0FFEF4401FF900AD9EFF0900AD9E0FFC3
:10276000EF54FDFF900AD9EFF0900925E0FFEF4408
:1027700008FF900925EFF0900AD9E0FFEF131354FA
:102780003FFFEF543FFF7E00D3EF9405EE6480944B
:1027900080501E900923E0FFEF4402FF900923EFD1
:1027A000F0900923E0FFEF54DFFF900923EFF08062
:1027B0001C900923E0FFEF54FDFF900923EFF090F8
:1027C0000923E0FFEF54DFFF900923EFF0900AD9CF
:1027D000E0FFEF1313543FFEEF5403FFEE04FEEE51
:1027E000543FFEEE25E025E0FEEE4FFF900AD9EFC4
:1027F000F0900AD9E0FFEF1313543FFFEF543FFF6F
:102800007E00C3EF940AEE6480948050030229D4C2
:10281000900AD9E0FFEF5403FF900AD9EFF022901D
:102820000DB8E4F07B007D017F0212602E2290093A
:1028300023E0FFEF54FDFF900923EFF0900923E020
:10284000FFEF54DFFF900923EFF0900E6AE0FF7E68
:1028500000D3EF9403EE64809480506B900923E0E2
:10286000FFEF4401FF900923EFF0900923E0FFEF11
:1028700054EFFF900923EFF0900AD9E0FFEF30E129
:10288000030229D4900920E0FFEF20E3030229D4BA
:10289000900921E0FFEF20E7030229D4900AD9E054
:1028A000FFEF54FEFF900AD9EFF0900AD9E0FFEF56
:1028B0004402FF900AD9EFF0900925E0FFEF4401B0
:1028C000FF900925EFF022900E6AE0FF7E00D3EF23
:1028D000940AEE6480948040030229C6900AD9E0ED
:1028E000FFEF20E03C900920E0FFEF30E333900958
:1028F00021E0FFEF30E72A900AD9E0FFEF4401FF23
:10290000900AD9EFF0900AD9E0FFEF54FDFF900A4A
:10291000D9EFF0900925E0FFEF4408FF900925EF7B
:10292000F0900AD9E0FFEF1313543FFFEF543FFF3D
:102930007E00C3EF9405EE64809480501E900923BE
:10294000E0FFEF4401FF900923EFF0900923E0FF3F
:10295000EF54EFFF900923EFF0801C900923E0FF74
:10296000EF54FEFF900923EFF0900923E0FFEF54AE
:10297000EFFF900923EFF0900AD9E0FFEF13135413
:102980003FFEEF5403FFEE04FEEE543FFEEE25E063
:1029900025E0FEEE4FFF900AD9EFF0900AD9E0FF54
:1029A000EF1313543FFFEF543FFF7E00C3EF940A31
:1029B000EE64809480401D900AD9E0FFEF5403FF3D
:1029C000900AD9EFF022900DB8E4F07B007D017FF2
:1029D0000112602E22900E28E4F0900921E0FFEF12
:1029E00020E003022A72900DB9E0FFEF1313543F69
:1029F000FEEF5403FFEE04FEEE543FFEEE25E0250D
:102A0000E0FEEE4FFF900DB9EFF0900923E4F09057
:102A10000DB9E0FFEF1313543FFFEF543FFF7E006B
:102A2000EF640A4E700E900DB9E0FFEF5403FF9073
:102A30000DB9EFF0900DB9E0FFEF1313543FFFEF26
:102A4000543FFF7E00C3EF9405EE648094805011E4
:102A5000900923E0FFEF4404FF900923EFF0022CDC
:102A60008B900923E0FFEF54FBFF900923EFF00266
:102A70002C8B900DBCE0FF7E00EF64024E600302E1
:102A80002B6C900DB9E0FFEF1313543FFFEF543F51
:102A9000FFEF75F00584AFF07E00EF4E6003022B70
:102AA00021900DBBE0FF7E00EF64014E7020900D81
:102AB000B9E0FFEF5403FFEF2404FFA807740108F7
:102AC0008002C333D8FCFF900E28EFF0801A900DDF
:102AD000B9E0FFEF5403FFA8077401088002C33375
:102AE000D8FCFF900E28EFF0900E28E0FF9009230D
:102AF000E0FEEE5FFFEF6017900923E0FF900E28E5
:102B0000E0FEEEF4FEEF5EFF900923EFF0801290FE
:102B10000923E0FF900E28E0FEEF4EFF900923EF1F
:102B2000F0900DB9E0FFEF1313543FFFEF543FFF58
:102B30007E00D3EF9400EE648094804027900DB91E
:102B4000E0FFEF1313543FFEEF5403FFEE14FEEECD
:102B5000543FFEEE25E025E0FEEE4FFF900DB9EF6D
:102B6000F0022C8B900DBCE4F0022C8B900DBCE09D
:102B7000FF7E00EF4E6003022C22900DBBE0FF7E33
:102B800000EF64014E703A900DB9E0FFEF5403FF7F
:102B9000EF2404FFA8077401088002C333D8FCFFA8
:102BA000900E29EFF0900DB9E0FFEF5403FFA80756
:102BB0007401088002C333D8FCFF900E28EFF08028
:102BC00038900DB9E0FFEF5403FFA80774010880A7
:102BD00002C333D8FCFF900E29EFF0900DB9E0FF4F
:102BE000EF5403FFEF2404FFA8077401088002C319
:102BF00033D8FCFF900E28EFF0900923E0FF900EF1
:102C000029E0FEEF4EFF900923EFF0900923E0FF4B
:102C1000900E28E0FEEEF4FEEF5EFF900923EFF049
:102C20008069900DBCE0FF7E00EF64014E705C9007
:102C30000DBBE0FF7E00EF64014E7020900DB9E007
:102C4000FFEF5403FFEF2404FFA80774010880027C
:102C5000C333D8FCFF900E29EFF0801A900DB9E035
:102C6000FFEF5403FFA8077401088002C333D8FCA8
:102C7000FF900E29EFF0900923E0FF900E29E0FE6F
:102C8000EEF4FEEF5EFF900923EFF0900924E0FFE1
:102C9000EF30E504D2928002C292900924E0FFEF67
:102CA00030E403D29022C29022900BF1121C0390C8
:102CB0000BFA121BE31216D0FF7E00EF64FF4E707A
:102CC000037F0122900BFA121BE31216D0FF7E083D
:102CD000EF8EF0A4FFAEF0900BF1121BE3E92FF999
:102CE000EA3EFA75820475830012185DFDACF0E4CB
:102CF0001215207BCD7ACC794C783E1212FCC004A0
:102D0000C005C006C007900BF4121BE3121832FD79
:102D1000ACF0E4121520A804A905AA06AB07D00759
:102D2000D006D005D0041214A24003022E3F900B0F
:102D3000F1121BE3C003C002C001900BFA121BE3A7
:102D40001216D0FF75F008EFA4F58285F083D0014C
:102D5000D002D003121B3590096BE0FEA3E0FFE424
:102D6000FCFDC3121A8C7003022E08900BF1121B8B
:102D7000E3C003C002C001900BFA121BE31216D08D
:102D8000FF75F008EFA4F58285F083D001D002D062
:102D900003121AC390096BEEF0A3EFF0900BF1123F
:102DA0001BE3C003C002C001900BFA121BE3121612
:102DB000D0FF75F008EFA4F58285F083D001D00232
:102DC000D003121AC3AD07AC067F10125CD9900B6A
:102DD000F1121BE3C003C002C001900BFA121BE307
:102DE0001216D0FF75F008EFA4F58285F083D001AC
:102DF000D002D003121AC390096DEEF0A3EFF07D5C
:102E0000017F001266A4802790096DE0FCA3E0FD1D
:102E1000E41215207B007A007900783F1212FC1230
:102E20001559AD07AC06AC06AD077F0212109E9097
:102E30000BF4121BE3E475F001121895022F699050
:102E40000BFA121BE31216D0FF7E08EF8EF0A4FFE0
:102E5000AEF0900BF1121BE3E92FF9EA3EFA75820E
:102E60000675830012185DFDACF0E41215207BCDD1
:102E70007ACC794C783E1212FCC004C005C006C062
:102E800007900BF7121BE3121832FDACF0E4121599
:102E900020A804A905AA06AB07D007D006D005D004
:102EA000041214A250197D007C007F0212109E9023
:102EB0000BF7121BE3E475F001121895022F6990CD
:102EC0000BFA121BE37401121716900BF4121BE39A
:102ED000E475F00012191A900BF7121BE3E475F079
:102EE0000012191A900BF1121BE3C003C002C001BB
:102EF000900BFA121BE31216D0FF75F008EFA4F541
:102F00008285F083D001D002D003121AC390096DDC
:102F1000EEF0A3EFF0900BF1121BE3C003C002C070
:102F200001900BFA121BE31216D0FF75F008EFA404
:102F3000F58285F083D001D002D003121AC37BFF43
:102F40007AFF79FF7800C3121A8C701D900BFA1269
:102F50001BE374FF12176B90096BE4F0A3E4F07DA0
:102F6000007F001266A47F01227F002290092CE0DE
:102F7000FEA3E0FFEF4E60030230187F007ED47D99
:102F80008F7C05900932121B29C3121A8C50031230
:102F9000591D7B607A0379007800900932121B0D6D
:102FA0001219AF900D07121B9A7FE07EA57D017C60
:102FB00000900D07121B29C3121A8C400302309A8D
:102FC000900D07121B29C374E09BFF74A59AFE7431
:102FD0000199FDE498FC900D07121B9A900D0712C1
:102FE0001B0DE412151B7B007A00798778441214BC
:102FF00005900D0B121B9A900D0B121B0D121559FB
:10300000EF547FFF900962E0FEEE5480FEEE4FFF2A
:10301000900962EFF002309A7F007E9C7DDA7C019D
:1030200090092E121B29C3121A8C500312591D7BB2
:10303000607A037900780090092E121B0D1219AFE7
:10304000900D07121B9A900D07121B29C374A09BA9
:10305000FF748C9AFEE499FDE498FC900D07121B16
:103060009A900D07121B0DE412151B7B007A007954
:10307000B47843121405900D0B121B9A900D0B128D
:103080001B0D121559EF547FFF900962E0FEEE54BC
:1030900080FEEE4FFF900962EFF090092CE0FEA356
:1030A000E0FFEF4E600302315D900924E0FFEF2066
:1030B000E60302315D7F747EC27D037C0090093A95
:1030C000121B29C3121A8C500312588F90093A12FE
:1030D0001B0DE412151B7B927A917933783D121205
:1030E000FC121559900D07121B9A7F307E2A7D0025
:1030F0007C00900D07121B29D3121A8C400A900DE8
:1031000007121BA600002A30900D07121B29C3745A
:10311000309BFF742A9AFEE499FDE498FC900D0719
:10312000121B9A900D07121B0DE412151B7B007ADF
:103130000079D87842121405900D0B121B9A900D4D
:103140000B121B0D121559EF547FFF900963E0FE1F
:10315000EE5480FEEE4FFF900963EFF02290092CB1
:10316000E0FEA3E0FFEF64014E600302322190090C
:1031700024E0FFEF20E6030232217FC57E407D017F
:103180007C00900936121B29C3121A8C5003125866
:103190008F900936121B0DE412151B7B927A9179E0
:1031A00033783D1212FC121559900D07121B9A7FAD
:1031B000107E0E7D007C00900D07121B29D3121A81
:1031C0008C400A900D07121BA600000E10900D07F0
:1031D000121B29C374109BFF740E9AFEE499FDE440
:1031E00098FC900D07121B9A900D07121B0DE4120C
:1031F000151B7B007A0079107842121405900D0B94
:10320000121B9A900D0B121B0D121559EF547FFFD4
:10321000900963E0FEEE5480FEEE4FFF900963EFED
:10322000F022900C82EEF0A3EFF0900C84121C03BD
:10323000900C82E0FEA3E0FF900C87EEF0A3EFF08D
:10324000900C84121BE3900C89121C03900921E05E
:10325000FFEF20E1030233A3900C87E0FEA3E0FF21
:10326000D3EF9458EE9402501F900C87E0FEA3E039
:10327000FF7BFD7AFF7D507C00125DD8900C891297
:103280001BE3121AF30233A3900C87E0FEA3E0FFC6
:10329000D3EF9470EE9403501F900C87E0FEA3E0F0
:1032A000FF7BFB7AFF7D8C7C00125DD8900C89122D
:1032B0001BE3121AF30233A3900C87E0FEA3E0FF96
:1032C000D3EF9484EE9404501F900C87E0FEA3E0AB
:1032D000FF7BCA7AFF7D747C01125DD8900C891245
:1032E0001BE3121AF30233A3900C87E0FEA3E0FF66
:1032F000D3EF944CEE9405501F900C87E0FEA3E0B2
:10330000FF7BF47AFE7D717C04125DD8900C8912EB
:103310001BE3121AF30233A3900C87E0FEA3E0FF35
:10332000D3EF944AEE9406501E900C87E0FEA3E083
:10333000FF7B7A7AFE7DC77C05125DD8900C8912DE
:103340001BE3121AF3805C900C87E0FEA3E0FFD32E
:10335000EF941CEE9407501E900C87E0FEA3E0FF54
:103360007B527AFF7D337C03125DD8900C89121B4F
:10337000E3121AF3802D900C87E0FEA3E0FFD3EF59
:10338000941CEE9407501C900C87E0FEA3E0FF7B9A
:103390001F7AFF7D817C03125DD8900C89121BE39C
:1033A000121AF3900921E0FFEF20E2030234589053
:1033B0000C87E0FEA3E0FFC3EF94B1EE9408501E2B
:1033C000900C87E0FEA3E0FF7B007A007DCD7C00BF
:1033D000125DD8900C89121BE3121AF3807A900CBC
:1033E00087E0FEA3E0FFC3EF9412EE940C501E9012
:1033F0000C87E0FEA3E0FF7B7F7AFE7D8B7C0312CF
:103400005DD8900C89121BE3121AF3804B900C8745
:10341000E0FEA3E0FFC3EF94D9EE940D501E900C94
:1034200087E0FEA3E0FF7BA37AFB7D587C07125D5B
:10343000D8900C89121BE3121AF3801C900C87E0C1
:10344000FEA3E0FF7BBD7AEA7DE07C1A125DD89096
:103450000C89121BE3121AF3900921E0FF22900954
:1034600021E0FFEF30E00302367F900928E0FFEF14
:1034700030E10302367F900920E0FFEF20E70122D0
:10348000900922E0FFEF30E60302367F900920E04A
:10349000FFEF30E41E900922E0FFEF20E215900AD2
:1034A000DEE4F0900922E0FFEF4404FF900922EFF0
:1034B000F0C2DB900ADEE0FFEF121D0434D50034C9
:1034C000FA0135370235AD0335CC043617053641E0
:1034D000060000367FD2C2900ADE7401F090092304
:1034E000E0FFEF4480FF900923EFF0900924E0FF14
:1034F000EF4440FF900924EFF022900ADFE475F0DA
:1035000001121806900ADFE0FEA3E0FFD3EF940952
:10351000EE9400500302367F900ADFE4F0A3E4F05B
:10352000D2C0900ADEE004F0900921E0FFEF4440B1
:10353000FF900921EFF022900920E0FFEF20E42521
:10354000900921E0FFEF20E008900964E4F0A3E493
:10355000F0900ADEE004F0900923E0FFEF547FFFD3
:10356000900923EFF0900964E475F00112181CAF84
:10357000F0FEC374C09F745D9E400302367F9009C5
:1035800021E0FFEF54BFFF900921EFF0900921E007
:10359000FFEF4401FF900921EFF0126D25900DB867
:1035A0007428F07B027D007F0312602E22C2C2903D
:1035B0000ADFE4F0A3E4F0900ADEE004F0900922D0
:1035C000E0FFEF54FBFF900922EFF022900ADFE4C6
:1035D00075F001121806900ADFE0FEA3E0FFD3EFBA
:1035E0009409EE9400500302367F900ADFE4F0A3C2
:1035F000E4F0C2C0900924E0FFEF54BFFF9009241B
:10360000EFF0900ADEE004F0900921E0FFEF54BFF4
:10361000FF900921EFF022900ADFE475F001121803
:1036200006900ADFE0FEA3E0FFD3EF9470EE94175C
:10363000404D900ADFE4F0A3E4F0900ADEE004F0ED
:1036400022900ADFE475F001121806900ADFE0FE0E
:10365000A3E0FFD3EF94B0EE94044014900ADFE4AB
:10366000F0A3E4F0900ADEE004F0C2DBC2C0800404
:10367000D2DBD2C0900920E0FFEF30E402C2DB22AF
:1036800090091DE0FF7E00C3EF940AEE64809480F1
:10369000400302388B900ABFE004F0900AC0E0FFBC
:1036A000EF121D0436B400372B0137A2023816037F
:1036B0000000388B900ABFE0FF7E00EF64014E707F
:1036C0000412101622900ABFE0FF7E00EF64034E42
:1036D000700B7D017F0112577043AD4022900ABFED
:1036E000E0FF7E00EF64054E701A126C1990091D00
:1036F000E0FDED25E024C9F582E43408F583EEF021
:10370000A3EFF022900ABFE0FF7E00C3EF940AEE21
:1037100064809480500302388B900AC0E004F090DB
:103720000ABFE4F012101E12100622900ABFE0FF3A
:103730007E00EF64014E700412102622900ABFE052
:10374000FF7E00EF64034E700B7D017F0312577004
:1037500043AD4022900ABFE0FF7E00EF64054E704B
:103760001A126C1990091DE0FDED25E024F1F58297
:10377000E43408F583EEF0A3EFF022900ABFE0FFF7
:103780007E00C3EF940AEE64809480500302388B6D
:10379000900AC0E004F0900ABFE4F012102E12105C
:1037A0000E22900ABFE0FF7E00EF64014E7004120B
:1037B000103622900ABFE0FF7E00EF64034E700BCC
:1037C0007D017F0612577043AD4022900ABFE0FF93
:1037D0007E00EF64054E701A126C1990091DE0FD11
:1037E000ED25E024DDF582E43408F583EEF0A3EF67
:1037F000F022900ABFE0FF7E00C3EF940AEE6480DF
:103800009480500302388B900AC0E004F0900ABF05
:10381000E4F012103E22900ABFE0FF7E00EF640148
:103820004E700412100622900ABFE0FF7E00EF6483
:10383000034E700B7D017F0712577043AD402290FD
:103840000ABFE0FF7E00EF64054E701A126C1990FB
:10385000091DE0FDED25E024B5F582E43408F5838B
:10386000EEF0A3EFF022900ABFE0FF7E00C3EF94DA
:103870000AEE648094804013900AC0E4F0900ABF7E
:10388000E4F012100E90091DE004F022900E1DEFDE
:10389000F0900E1EEDF0900E1FEBF0900E1DE0FF6D
:1038A000EF121D0438BA00390601395202399E035D
:1038B00039EA043A360500003A7F900E1FE0FFEF28
:1038C000121D0438D00038E70138FB0200003A7FAF
:1038D000900E1EE0FFEFF4FFEF529A900E1EE0FFF5
:1038E000EFF4FFEF529B22900E1EE0FFEFF4FFEF8C
:1038F000529A900E1EE0FFEF429B22900E1EE0FFB8
:10390000EF429A222222900E1FE0FFEF121D04398F
:103910001C0039330139470200003A7F900E1EE047
:10392000FFEFF4FFEF5291900E1EE0FFEFF4FFEF78
:10393000529222900E1EE0FFEFF4FFEF5291900E94
:103940001EE0FFEF429222900E1EE0FFEF42912216
:103950002222900E1FE0FFEF121D04396800397F0C
:103960000139930200003A7F900E1EE0FFEFF4FF52
:10397000EF52A1900E1EE0FFEFF4FFEF52A2229053
:103980000E1EE0FFEFF4FFEF52A1900E1EE0FFEFDE
:1039900042A222900E1EE0FFEF42A1222222900EB0
:1039A0001FE0FFEF121D0439B40039CB0139DF02EB
:1039B00000003A7F900E1EE0FFEFF4FFEF52B1904F
:1039C0000E1EE0FFEFF4FFEF52B222900E1EE0FF5A
:1039D000EFF4FFEF52B1900E1EE0FFEF42B22290E3
:1039E0000E1EE0FFEF42B1222222900E1FE0FFEFF9
:1039F000121D043A00003A17013A2B0200003A7FE8
:103A0000900E1EE0FFEFF4FFEF52C1900E1EE0FF9C
:103A1000EFF4FFEF52C222900E1EE0FFEFF4FFEF33
:103A200052C1900E1EE0FFEF42C222900E1EE0FF38
:103A3000EF42C1222222900E1FE0FFEF121D043A36
:103A40004C003A63013A770200003A7F900E1EE084
:103A5000FFEFF4FFEF52D9900E1EE0FFEFF4FFEFFF
:103A600052DA22900E1EE0FFEFF4FFEF52D9900ED3
:103A70001EE0FFEF42DA22900E1EE0FFEF42D92255
:103A8000900AD6E475F001121806900928E0FFEFBD
:103A900020E103023C2B900928E0FFEF1313543F71
:103AA000FFEF5401FF900928E0FEEEC313FEEE5431
:103AB00001FEEE6FFFEF6044900AD8E4F090092811
:103AC000E0FFEF5402FFEF25E0FF900928E0FEEE53
:103AD00054FBFEEE4FFF900928EFF0900923E4F02D
:103AE000900925E0FFEF54EFFF900925EFF09009D2
:103AF00024E0FFEF54EFFF900924EFF0900AD6E0A6
:103B0000FEA3E0FFEF30E003023C2B900AD8E0FF79
:103B1000EF121D043B33003B4A013B61023B78033B
:103B20003B8F043BA6053BDD063BE4073C0F08004A
:103B3000003C2BD2C0900923E0FFEF4410FF900916
:103B400023EFF0900AD8E004F022D2C2900923E0DB
:103B5000FFEF4420FF900923EFF0900AD8E004F033
:103B600022D2C1900923E0FFEF4480FF900923EFA8
:103B7000F0900AD8E004F022D2DB900923E0FFEFB6
:103B80004440FF900923EFF0900AD8E004F022D2DD
:103B9000C3900923E0FFEF4408FF900923EFF09062
:103BA0000AD8E004F022900924E0FFEF4420FF90BF
:103BB0000924EFF0900924E0FFEF4410FF9009245E
:103BC000EFF090092374FFF0900925E0FFEF441017
:103BD000FF900925EFF0900AD8E004F022900AD86F
:103BE000E004F022900923E4F0900924E0FFEF5470
:103BF000DFFF900924EFF0900924E0FFEF54EFFF7E
:103C0000900924EFF0126D25900AD8E004F022907C
:103C10000928E0FFEF4408FF900928EFF0900928F9
:103C2000E0FFEF54FDFF900928EFF022E0900A9F9B
:103C3000FF75F002121BD7E0FCA3E0FDEF900A89AC
:103C400075F002021BD7F582E4340AF583E4F074C0
:103C5000A32FF582E4340AF583E4F0900A91EF751E
:103C6000F002021BD7900B51E075F002900A9112FE
:103C70001BD7E0FCA3E0C39FEE6480F8EC6480985F
:103C8000229EFEC3900B53E09FEE6480F8900B528F
:103C9000E064809822748D2FF582E4340AF5832243
:103CA000900B51E0FF75F002900A81021BD7F5835B
:103CB000E4F0FFFEFDFCAB25AA24A923A822C30241
:103CC0001A8C900B52E0FD900A9F75F002021BD7F0
:103CD000900B55E0FFC3952A22F583E004F074852C
:103CE0002FF582E4340A22900B51E0248FF582E410
:103CF000340AF58322900B51E024A3F582E4340AC0
:103D0000F58322900B54E0C3940374809480227D49
:103D10000A1217B1AD037C0012179F900B5AE0FDF9
:103D2000900A8122900B51E0FF2495F582E4340A39
:103D300022E0FCA3E0FD75F002EF900A9F121BD772
:103D4000ECF0A3EDF022E5255529FFE5245528FEEA
:103D5000E5235527FDE522552622900B55E004F07A
:103D6000227E00900CE7E0FCA3E0FD12179F8EE797
:103D70008FE622E0FEA3E0C39DFFEE9C22900A9E08
:103D8000E0FF3395E0FE22A4FFE0C39FE5F06480EE
:103D9000F874809822900B547401F022900B51E03B
:103DA000FF2485F582E4340A22900A9EE0FB3395D5
:103DB000E0FAFEEB22E0FF900B56E0FEEFC39E22FE
:103DC0009FEE6480F8EA64809822900B50E0FF90A8
:103DD0000CE5E022900B30EEF0A3EFF0900B32EC0C
:103DE000F0A3EDF0900B34EAF0A3EBF0900B34E08D
:103DF000FEA3E0FF900B30E0FCA3E0FDD3ED9FECD1
:103E00009E5003023EBA900B34E0FEA3E0FF900BFD
:103E100030E0FCA3E0FDC3ED9FFDEC9EFCE4121539
:103E200020900B38121B9A900B36E0FEA3E0FF9017
:103E30000B32E0FCA3E0FDC3ED9FFDEC9EFCE41221
:103E40001520C004C005C006C0077F007EF07D7F3E
:103E50007C45900B38121B291212FCD003D002D0E3
:103E600001D000121405900B38121B9A900B36E00B
:103E7000FCA3E0FDE41215207B007AF0797F784501
:103E8000121405900B3C121B9A900B3C121B0D90C8
:103E90000B38121B291212FC900B3C121B9A900B30
:103EA00034E0FCA3E0FDE4121520900B3C121B292A
:103EB000121207900B3C121B9A22900B30E0FEA3CB
:103EC000E0FF900B34E0FCA3E0FDC3ED9FFDEC9E12
:103ED000FCE4121520900B38121B9A900B32E0FE76
:103EE000A3E0FF900B36E0FCA3E0FDC3ED9FFDECEB
:103EF0009EFCE4121520C004C005C006C0077F0068
:103F00007EF07D7F7C45900B38121B291212FCD06D
:103F100003D002D001D000121405900B38121B9A66
:103F2000900B36E0FCA3E0FDE41215207B007AF054
:103F3000797F7845121405900B3C121B9A900B3C2C
:103F4000121B0D900B38121B291212FC900B3C1205
:103F50001B9A900B34E0FCA3E0FDE4121520900BBB
:103F60003C121B29121207900B3C121B9A900B3C1F
:103F7000121BA60000000022410E60014404B0EDB7
:103F8000B88320410021004100A700410003004800
:103F900009590000000000000000420AD60000415C
:103FA0000AD800410AD900410AE100420AEA0000A9
:103FB000420ADA0000410ADC00410ADE05420ADF5B
:103FC0000000420AE2006E420AE40032420AE605BC
:103FD0008C420AE80460410ABF00410AC000410A5D
:103FE000C1006038097600000E74017C0078000082
:103FF0000E74017C007800000E74017C00780000D3
:104000000E74017C007800000E74017C00780000C2
:104010000E74017C007800FFFFFFFFFFFFFF5009D7
:10402000AE00000CE400C8037000FFFFFFFFFFFFBD
:10403000FF5009BE00000C4E00C8012C00FFFFFF1E
:10404000FFFFFFFF602009CE00000D48026C026CEC
:1040500000000D48026C026C00000D48026C026CFE
:1040600000FFFFFFFFFFFFFF5009EE000008FC0705
:10407000D003E800FFFFFFFFFFFFFF5809FE00002D
:1040800006A400780064000008FC0078006400FFCB
:10409000FFFFFFFFFFFF42096B000042096D0000B8
:1040A000410D3400410D3500410D2F00410D300010
:1040B000410D3100410D3200410D3300580A50E1ED
:1040C00000E20FE326E437E502E600E7F9E8F9E964
:1040D000F9EA05EB01EC03580A68E100E20FE32678
:1040E000E437E502E600E7F9E8F9E9F9EA05EB016A
:1040F000EC03410CEB00410AA500410A2000C10A73
:10410000440A45AA5555AA440A4C00000000440A36
:10411000410000000000900D2FE0FF7E00C3EF94EF
:10412000FFEE648094805006900D2FE004F090091B
:1041300020E0FFEF20E2030241E0900D30E0FF7E3F
:1041400000D3EF9400EE6480948050030241DB9032
:104150000D30E0FF7E00C3EF9414EE648094805035
:104160007A900D2FE0FF7E00C3EF94C8EE64809438
:10417000805050900928E0FFEF20E147900D31E09A
:1041800004F0900925E0FFEF4404FF900925EFF0CB
:10419000900D31E0FF7E00D3EF9404EE64809480B4
:1041A0004021900928E0FFEF4402FF900928EFF03A
:1041B000900D30E4F0900920E0FFEF54FEFF9009ED
:1041C00020EFF0900D30E4F0900920E0FFEF54FE76
:1041D000FF900920EFF012108F8005900D30E4F071
:1041E000900920E0FFEF30E016900920E0FFEF5447
:1041F000FEFF900920EFF0900D30E004F0801C905D
:104200000D30E0FF7E00D3EF94C8EE6480948050C0
:1042100079900920E0FFEF20E00122900D30E0FFCF
:104220007E00EF643C4E702B900925E0FFEF4402C6
:10423000FF900925EFF0900920E0FFEF54DFFF9099
:104240000920EFF0900920E0FFEF4440FF900920A3
:10425000EFF022900D30E0FF7E00EF64644E702A94
:10426000900925E0FFEF54FBFF900925EFF090093E
:1042700020E0FFEF4420FF900920EFF0900920E0BC
:10428000FFEF54BFFF900920EFF0221210661210CA
:104290005E125ED07BFF7A6579D7C003C002C00191
:1042A0007B017A0079A8900D39121C03D001D0024D
:1042B000D00312641B7F00126B881265491249D328
:1042C000125B4C126D5C43CF10900A9BE0FFEF2015
:1042D000E703024397900A9BE0FFEF547FFF900AA9
:1042E0009BEFF01243D2900BD1121B9A7F007E00FD
:1042F0007D007C00900BD1121B29D3121A8C500325
:10430000024386900BD1121B0DEF5402FFEE5400B6
:10431000FEED5400FDEC5400FCEC4D4E4F601C9043
:104320000920E0FFEF4401FF900920EFF090092001
:10433000E0FFEF54FBFF900920EFF0900BD1121B30
:104340000D7808121A9D900BD1121B9A900BD11266
:104350001B0DEF5440FFEE5400FEED5400FDEC54F5
:1043600000FCEC4D4E4F602C900920E0FFEF440222
:10437000FF900920EFF0900920E0FFEF54FBFF9041
:104380000920EFF0800E900920E0FFEF4404FF9039
:104390000920EFF0121000125AC3E5B720E5109083
:1043A0000BD5E0FF7E00EF645A4E60030242C690D8
:1043B0000BD5E0FFEF54A5FF900BD5EFF01255970A
:1043C000900922E0FFEF4402FF900922EFF0024241
:1043D000C622751000751800751700751600751542
:1043E0000012106E50030245021269788F148E136A
:1043F0008D128C11750F00E50FC3952A5051AF1423
:10440000AE13AD12AC117801121A9D8F148E138D5C
:10441000128C1130D7357F017E007D007C00AB0F00
:1044200074872BF582E4340AF583E0F9A801121AA7
:10443000B0E5184FFFE5174EFEE5164DFDE5154CAE
:10444000FC8F188E178D168C150510050F80A8AFE0
:10445000107E00C3EF9402EE64809480401ED20868
:10446000AF107E00C3EF9403EE6480948040051289
:1044700010768008126D51EF6002C20820082C7F70
:10448000007E007D007C00AB18AA17A916A815C3F2
:10449000121A8C600C900A9CE475F00112180680C8
:1044A00020900A9CE4F0A3E4F08016900A99E47549
:1044B000F0011218067518007517007516007515AD
:1044C00000126D30900A9CE0FCA3E0FDD3ED9FEC60
:1044D0009E400B121076900A9CE4F0A3E4F0900A40
:1044E00099E0FEA3E0FFD3EF942CEE94014020125C
:1044F0001076900AA57401F0900A99E4F0A3E4F014
:10450000800D906DDFE493FE740193FF124518AFA8
:1045100018AE17AD16AC1522900B50EFF0900CEBC7
:10452000123D06403EE4F0900AA5E0702B900B513E
:10453000F0900B51E0C3952A501EE0FF123CC7E0FB
:10454000FCA3E0FD75F002EF123CA8ECF0A3EDF047
:10455000900B51E004F080D9126862C209E4900A1D
:10456000A5F022900CE5E004F0123DCAB507081250
:104570006CEFE4900CE6F0123DCAD39F5003024664
:1045800049E4900B51F0900B51E0C3952A507A12F8
:104590003C2C123D73AD07FC900AA5E0702E123D35
:1045A000A97802C333CE33CED8F9FFD3ED123C77CE
:1045B0004046E49BFFE49AFEEF7802C333CE33CE4D
:1045C000D8F9FFC3ED123C77502E803D123DA978FB
:1045D00003C333CE33CED8F9FFD3ED123C77401866
:1045E000E49BFFE49AFEEF7803C333CE33CED8F9D1
:1045F000FFC3ED123C774011900B51E0FF124DECE0
:10460000900B51E004F0024586900B51E0B52A066C
:10461000900CE6E004F0900B50E0FD75F008900C73
:10462000E5123D874023E4F0C208900CEBE004F073
:10463000ED75F004900CE6123D87400DE4900CEB14
:10464000F0126BA7126862C20922900907E0FEA36C
:10465000E0FF7B017A09790D123222900905E0FE14
:10466000A3E0FF7B017A09791112322290090BE055
:10467000FEA3E0FF7B017A09791512322290090925
:10468000E0FEA3E0FF7B017A09790912322290094A
:1046900021E0FFEF4402FF900921EFF0900ADCE0F7
:1046A000FF7E00C3EF943CEE64809480506C9009D0
:1046B00021E0FFEF4404FF900921EFF0900905E0AD
:1046C000FEA3E0FFD3EF9464EE9400500C900966D3
:1046D0007402F0A3741CF08041900905E0FEA3E091
:1046E000FFD3EF942CEE9401500C9009667401F006
:1046F000A374E0F08024900905E0FEA3E0FFD3EF6F
:1047000094F4EE9401500B900966E4F0A374F0F079
:104710008008900966E4F0A3E4F0900ADCE0FF7EF4
:1047200000C3EF943CEE648094805007900ADCE074
:1047300004F022900966E0FEA3E0FFD3EF9400EEC0
:104740009400401F900966E0FEA3E0FFEF64FF7055
:1047500003EE64FF600D90096674FF75F0FF121898
:1047600006800CD2C390096674FFF0A374FFF0902A
:104770000920E0FFEF20E402C2C322900BE5121CE7
:1047800003900BE8E4F0A3E4F0900BEA74FFF0A3CD
:1047900074FFF0900BECE4F0A3E4F0900BEEE4F087
:1047A000A3E4F0900BF0E4F0900BF0E0FF7E00C388
:1047B000EF940AEE648094804003024848900BE531
:1047C000121BE3900BF0E0FF75F002EFA4F5828579
:1047D000F08312185DFFAEF0900BEEEEF0A3EFF059
:1047E000900BE8E0FEA3E0FF900BEEE0FCA3E0FD01
:1047F000D3ED9FEC9E4010900BEEE0FEA3E0FF9007
:104800000BE8EEF0A3EFF0900BEAE0FEA3E0FF90E0
:104810000BEEE0FCA3E0FDC3ED9FEC9E5010900B6F
:10482000EEE0FEA3E0FF900BEAEEF0A3EFF0900BBA
:10483000EEE0FEA3E0FF900BECEE8FF01218069076
:104840000BF0E004F00247A8900BECE0FEA3E0FFC1
:10485000900BEAE0FCA3E0FDC3EF9DFFEE9CFE9011
:104860000BECEEF0A3EFF0900BECE0FEA3E0FF907A
:104870000BE8E0FCA3E0FDC3EF9DFFEE9CFE900B78
:10488000ECEEF0A3EFF0900BECE0FEA3E0FFEF788E
:1048900003CEC313CE13D8F9FF900BECEEF0A3EFC9
:1048A000F0900BECE0FEA3E0FF22900DD5EEF0A31C
:1048B000EFF0900DD7EDF0900DD7E0FFEF121D0453
:1048C00048CA00494001000049D2900DD5E0FEA33E
:1048D000E0FFEEFF7E00EF540FFF90095BEFF090DA
:1048E000095BE0FFEF906E0193FF90095BEFF090A2
:1048F0000DD5E0FEA3E0FFEEC4F854F0C868FEEF6B
:10490000C4540F48FFEF540FFF90095CEFF090097B
:104910005CE0FFEF906E0193FF90095CEFF0900D6B
:10492000D5E0FEA3E0FFEF540FFF90095DEFF0909C
:10493000095DE0FFEF906E0193FF90095DEFF022BB
:10494000900DD5E0FEA3E0FFD3EF94E7EE94034093
:104950000A900DD57403F0A374E7F0900DD5E0FE36
:10496000A3E0FF7C007D641217B190095BEFF0902B
:10497000095BE0FFEF906E0193FF90095BEFF09011
:104980000DD5E0FEA3E0FF7C007D0A1217B17C008C
:104990007D0A1217B1AF0590095CEFF090095CE059
:1049A000FFEF906E0193FF90095CEFF0900DD5E062
:1049B000FEA3E0FF7C007D0A1217B1AF0590095DF0
:1049C000EFF090095DE0FFEF906E0193FF90095DBD
:1049D000EFF022900968121BE3900C1C7404F09015
:1049E0000C1D7402F07F007E007D007C001256D802
:1049F0007E00EF4E701D900968121BE3900C1C7432
:104A000004F0900C1D7402F07F007E007D007C009D
:104A10001256D8900968121BE37582027583001242
:104A2000185DFFAEF0C3EF94FFEE94FF50169009AF
:104A300061E0FFEF54FDFF900961EFF07F007E0021
:104A400012616322900968121BE3900C1C7404F03D
:104A5000900C1D7402F07F007E027D007C001256D7
:104A6000D87E00EF4E701D900968121BE3900C1C5D
:104A70007404F0900C1D7402F07F007E027D007CB7
:104A8000001256D8900968121BE3758202758300E4
:104A900012185DFFAEF0C3EF94FFEE94FF50169036
:104AA0000961E0FFEF4402FF900961EFF07F007EB3
:104AB0000212616322900961E0FFEF54FDFF90094B
:104AC00061EFF07F007E021261637E007F047D0053
:104AD000900968121BE3121D30900922E0FFEF4499
:104AE00040FF900922EFF022900C63121B9AE59888
:104AF000542FFF900C6BE0FEEF4EFF900C6DE0FE2C
:104B0000EF4EF598900C6BE0FF7E00EF4E70377F14
:104B1000007E007D007C00900C67121B29C3121AD6
:104B20008C70065398DF024BEF7F017E007D007C86
:104B300000900C67121B29C3121A8C6003024BEF02
:104B4000439820024BEFE5C854CFFF900C6CE0FE79
:104B5000EF4EF5C8900C6CE0FF7E00EF4E70419078
:104B60000C67121B29900C63121B0D1219AF7B00EE
:104B70007A01790078001219AF8F8D900C67121BA3
:104B800029900C63121B0D1219AFEF54FFFFEE5466
:104B900000FEED5400FDEC5400FC8F8BC28E804F64
:104BA000900C6CE0FF7E00EF64304E704275CE02D8
:104BB000900C67121B29900C63121B0D1219AF7B0E
:104BC000007A01790078001219AF8FCB900C671230
:104BD0001B29900C63121B0D1219AFEF54FFFFEE4F
:104BE0005400FEED5400FDEC5400FC8FCAD2CAD232
:104BF000AC22C0E0C0F0C083C082C0D075D000C07D
:104C000000C001C002C003C004C005C006C0077FC9
:104C1000007E83126B441269A790094DE475F00180
:104C200012180690094FE004F0900950E004F0904B
:104C30000951E004F0900951E0FFEF75F00584AFF1
:104C4000F07E00EF4E7013900929E0FFEF4410FF53
:104C5000900929EFF0900951E4F0900950E0FFEF3E
:104C600075F03284AFF07E00EF4E7013900929E0AA
:104C7000FFEF4404FF900929EFF0900950E4F09011
:104C8000094DE0FEA3E0FF7C037DE81217B1ED4C77
:104C90007016900929E0FFEF4408FF900929EFF012
:104CA00090094DE4F0A3E4F090094FE0FFEF75F0B8
:104CB0006484AFF07E00EF4E7013900929E0FFEF9F
:104CC0004401FF900929EFF090094FE4F01236807B
:104CD000900929E0FFEF30E403125639D007D006DF
:104CE000D005D004D003D002D001D000D0D0D082E3
:104CF000D083D0F0D0E032C0E0C0F0C083C082C02A
:104D0000D075D000C000C001C002C003C004C005FF
:104D1000C006C00753B7BFE5B720E503024DD1C2B7
:104D2000AF7B007D047F0012388C7B007D107F00FC
:104D300012388C7B007D087F0412388C7B007D0448
:104D40007F0412388C7B007D027F0412388C7B003C
:104D50007D807F0312388C7B007D207F0312388C8E
:104D60007B007D107F0312388C7B007D087F03124F
:104D7000388C7B007D047F0312388C7B007D027FA2
:104D80000312388C7B007D017F0112388C7B007D03
:104D9000047F0112388C7B007D107F0112388C7BE0
:104DA000007D207F0212388C7B007D407F0212380C
:104DB0008C7B007D807F0212388C7B007D017F0020
:104DC00012388C7B007D027F0012388C125597D2EE
:104DD000AFD007D006D005D004D003D002D001D088
:104DE00000D0D0D082D083D0F0D0E032900B52EF00
:104DF000F0F9123C2C123D73900B53F0A3EFF0AF7F
:104E000001126767AD07AC06900B53E0FEA3E0FF0D
:104E1000D39DEC6480F8EE6480985014C3E49DFB4D
:104E2000E49CFAC3EF9BEA6480F8EE648098500E2D
:104E3000900B52E0FF123C3D123D31024ED0ECA2ED
:104E4000E713FEED13FF900B53E0FAA3E0FBD31240
:104E50003DC05016ECA2E713FEED13FFC3E49FFF25
:104E6000E49EFEC3EB123DC05023123CC2E0FAA305
:104E7000E0FBEAC313FEEB13FFC3EB9FFBEA9EFAD2
:104E8000ED123C3DE0C313FEA3E0138032123CC29E
:104E9000E0FAA3E0FBAE027803CEC313CE13D8F939
:104EA000FFC3EB9FFBEA9EFA75F002ED900A8912B0
:104EB0001BD7E0FEA3E07803CEC313CE13D8F92BA3
:104EC000FFEA3EFE900B52E0123CC7EEF0A3EFF07B
:104ED000900B52123C2CECF0A3EDF022900E36EF2A
:104EE000F0900E37E4F053DCF843DC02E58E54C05A
:104EF000FF7E00EF64404E7045900E36E0FF7E006E
:104F0000EF64804E601D900E36E0FF7E00EF64403F
:104F10004E6010900E36E0FF7E00EF64084E600396
:104F2000024FB4900E36E0FFEF55C5FFEF600890DA
:104F30000E377401F0807D900E37E4F08076E58EB8
:104F400054C0FF7E00EF64804E7043900E36E0FF49
:104F50007E00EF64804E701B900E36E0FFEF55C56B
:104F6000FFEF6008900E377401F08048900E37E430
:104F7000F08041900E36E0FFEF55C4FFEF600890DF
:104F80000E377401F0802D900E37E4F08026E58E08
:104F900054C0FF7E00EF64C04E7019900E36E0FFE3
:104FA000EF55C4FFEF6008900E377401F080059054
:104FB0000E37E4F0900E37E0FF22900E6EE599F088
:104FC000900C8CE0FF7E00EF4E7034900E6EE0FF90
:104FD0007E00EF64A54E701C900E6EE0FF900C8E6C
:104FE000EFF0900E6EE0FF900C8DE02FF0900C8CA7
:104FF000E004F022900C8CE4F0900C8DE4F0229010
:105000000C8CE0FF7E00EF64074E7062900C8DE028
:10501000FF900E6EE0FEEE6F7049900C90E0FF7E08
:1050200000D3EF9400EE648094804010900921E05A
:10503000FFEF4480FF900921EFF0800E900921E0FE
:10504000FFEF547FFF900921EFF0900928E0FFEF78
:1050500054FEFF900928EFF0900C8CE4F0900C8D3A
:10506000E4F022900C8CE4F0900C8DE4F022900E91
:105070006EE0FF900C8CE0FE748E2EF582E4340C12
:10508000F583EFF0900C8CE004F0900E6EE0FF9052
:105090000C8DE02FF0227B027D047F0012388C7B88
:1050A000027D107F0012388C7B017D207F0012383A
:1050B0008C7B027D087F0512388C7B027D087F0483
:1050C00012388C7B027D047F0412388C7B027D02B7
:1050D0007F0412388C7B027D017F0412388C7B02A6
:1050E0007D807F0312388C7B027D207F0312388CF9
:1050F0007B027D107F0312388C7B027D087F0312B8
:10510000388C7B027D047F0312388C7B027D027F0A
:105110000312388C7B027D017F0112388C7B027D6B
:10512000047F0112388C7B027D107F0112388C7B4A
:10513000027D207F0212388C7B027D407F02123874
:105140008C7B027D807F0212388C7B027D017F0088
:1051500012388C7B027D027F0012388C7B027D40EE
:105160007F0112388C7B027D407F0312388C2290A5
:105170000920E0FFEF30E115900920E0FFEF54FD3A
:10518000FF900920EFF0900D32E004F0229009200A
:10519000E0FFEF20E203025243900D32E0FF7E0079
:1051A000D3EF9400EE648094805003025230900D4F
:1051B00032E0FF7E00C3EF940AEE6480948050706A
:1051C000900920E0FFEF30E513900920E0FFEF5455
:1051D000DFFF900920EFF012108E8054900920E03C
:1051E000FFEF30E64B90092CE0FEA3E0FFEF4E709E
:1051F0001A90092CE4F0A37401F0900DB87428F013
:105200007B027D017F0112602E801790092CE4F053
:10521000A3E4F0900DB87428F07B027D017F0212A8
:10522000602E900925E0FFEF4402FF900925EFF082
:10523000900D32E4F0900920E0FFEF54FDFF90095B
:1052400020EFF022900E81EFF053DCF843DC02E512
:105250008E54C0FF7E00EF64404E7033900E81E0AC
:10526000FF7E00EF64804E601A900E81E0FF7E00AA
:10527000EF64404E600D900E81E0FF7E00EF640809
:105280004E7073900E81E0FFEFF4FFEF52C522E500
:105290008E54C0FF7E00EF64804E7025900E81E03A
:1052A000FF7E00EF64804E700C900E81E0FFEFF403
:1052B000FFEF52C522900E81E0FFEFF4FFEF52C4E2
:1052C00022E58E54C0FF7E00EF64C04E7028900E21
:1052D00081E0FF7E00EF64024E600D900E81E0FFE2
:1052E0007E00EF64014E700EE5C454FCFF900E8109
:1052F000E0FEEF4EF5C422900E26EFF090091EE07E
:10530000FF7E00C3EF940FEE648094804005900907
:105310001EE4F0900E27E4F090091EE0FF900E27A7
:10532000E0FEEED39F5063900E27E0FF743E2FF512
:1053300082E43409F583E0FF900E26E0FEEE6F7004
:1053400041900E26E0FF7E00EF64154E6034900E13
:1053500026E0FF7E00EF64164E6027900E26E0FFE9
:105360007E00EF64174E601A900E26E0FF7E00EF7D
:1053700064184E600D900E26E0FF7E00EF64144E20
:105380007024900E27E004F0808E900E26E0FF90AF
:10539000091EE0FE743E2EF582E43409F583EFF039
:1053A00090091EE004F022900C2CEEF0A3EFF09098
:1053B0000C2E121C03900C2E121BE3900C34121CAA
:1053C00003900C32E4F0900C31E0FF900C32E0FEE0
:1053D000EEC39F5078900C32E0FF7E00900C2CE0E2
:1053E000FCA3E0FDEF2DFFEE3CFE900C34121BE31E
:1053F000900C32E0FD8D827583001216E9FD12617A
:1054000000900C32E0FF7E00900C2CE0FCA3E0FD4D
:10541000EF2DFFEE3CFEE4FCFD900D2B7402F0122C
:1054200062CC900C33EFF0900C34121BE3900C32F2
:10543000E0FF8F827583001216E9FF900C33E0FEC7
:10544000EEB50791900C32E004F00253C67F0122C2
:10545000900E0BEFF0900E0CEDF0900E0DEBF09027
:105460000E0BE0FFEF121D0454780054860254A87E
:105470000354CE04000054F3900E0CE0FF900E0D88
:10548000E0FD12694822900E0CE0FF7E00EF4E70A6
:1054900004C2AD8002D2AD900E0DE0FF7E00EF4E53
:1054A0007003C2BD22D2BD22900E0CE0FF7E00EF41
:1054B0004E700553A9BF800343A940900E0DE0FF35
:1054C0007E00EF4E700453B9BF2243B94022900EC4
:1054D0000CE0FF7E00EF4E700553A97F800343A9C7
:1054E00080900E0DE0FF7E00EF4E700453B97F22D6
:1054F00043B98022900DFCEFF0900DFDEDF0900D82
:10550000FCE0FFEF54F0FF7E00EF4E7042900DFD87
:10551000E0FF7E00EF64014E7019900DFCE0FFEF9C
:10552000540FFFA8077401088002C333D8FCFFEFB3
:1055300042D322900DFCE0FFEF540FFFA807740147
:10554000088002C333D8FCFFEFF4FFEF52D3229060
:105550000DFCE0FFEF54F0FFEFC4540FF5CE900DBB
:10556000FCE0FFEF30E008900DFE7420F080069024
:105570000DFE7410F0900DFDE0FF7E00EF64014E13
:105580007009900DFEE0FFEF42C922900DFEE0FF92
:10559000EFF4FFEF52C922900961E0FFEF20E172C2
:1055A000900968121BE3758202758300E475F001AF
:1055B0001218CD900968121BE3900C317404F07F2F
:1055C000007E001253A77E00EF4E706C90096812A7
:1055D0001BE3900C317404F07F007E001253A77E11
:1055E00000EF4E7053900968121BE3900C31740465
:1055F000F07F007E001253A77E00EF4E703A9009B4
:1056000068121BE3900C317404F07F007E02125389
:10561000A722900968121BE3758202758300E47566
:10562000F000121939900968121BE3900C317404D0
:10563000F07F007E021253A722900923E0FF7E0034
:10564000EF4E7005C2B3C2B522D2B7D2B4D2B2D235
:10565000B1900924E0FFEF30E33F900924E0FFEF31
:1056600054F7FF900924EFF0D2B3C2B5900923E0BC
:10567000FFEF30E402C2B7900923E0FFEF30E5020C
:10568000C2B4900923E0FFEF30E602C2B2900923D2
:10569000E0FFEF30E741C2B122900924E0FFEF4480
:1056A00008FF900924EFF0C2B3D2B5900923E0FFC0
:1056B000EF30E002C2B7900923E0FFEF30E102C211
:1056C000B4900923E0FFEF30E202C2B2900923E078
:1056D000FFEF30E302C2B122900C15121B9A900C1E
:1056E00019121C03900C20E5F4F0A2AFE433FF90F4
:1056F0000C1FEFF0900C1FE0FF7E00EF4E6002C227
:10570000AF900C1DE0FF8FF4900C1EE4F0900C1590
:10571000121B0D8F828E83E493FF900C19121BE3F2
:10572000900C1EE0FE8E82758300EF12177D900CA8
:1057300015121B0D7B017A00790078001219669012
:105740000C15121B9A900C1CE0FF900C1EE004FE3E
:10575000F0EEC39F40B7900C20E0FF8FF4900C1F39
:10576000E0FF7E00EF4E6002D2AF900C1EE0FF2201
:10577000900DD1EFF0900DD2EDF0900DD1E0FF7EC5
:1057800000C3EF941FEE648094805065900DD1E0CB
:10579000FF7E007401A807088005C333CE33CED83E
:1057A000F9FF900DD3EEF0A3EFF0900DD2E0FF7E65
:1057B00000EF4E7022900DD3E0FEA3E0FFEFF4FF68
:1057C000EF52AB900DD3E0FEA3E0FFEEFF7E00EFC3
:1057D000F4FFEF52AC801A900DD3E0FEA3E0FFEF90
:1057E00042AB900DD3E0FEA3E0FFEEFF7E00EF4260
:1057F000ACE5AD54E0FF900DD1E0FEEF4EF5AD22EB
:1058000090091DE0FF7E00C3EF940AEE648094804F
:10581000407C900AC1E0FF7E00C3EF9405EE6480F7
:105820009480501B900AC1E004F0900AC1E0FF7E12
:1058300000C3EE64809480505590091DE4F02290DE
:105840000AC1740FF090091DE4F07B017A0879B564
:1058500012477B900905EEF0A3EFF07B017A0879FF
:10586000C912477B900907EEF0A3EFF07B017A089D
:1058700079DD12477B900909EEF0A3EFF07B017A06
:105880000879F112477B90090BEEF0A3EFF022901C
:105890000E68EFF0900928E0FFEF30E345900E68C6
:1058A000E0FF7E00EF4E701D90093A121B0DEF24B1
:1058B00058FFEE3402FEED3400FDEC3400FC90099C
:1058C0003A121B9A22900936121B0DEF2458FFEE54
:1058D0003402FEED3400FDEC3400FC900936121B5E
:1058E0009A22900E68E0FF7E00EF4E701890093A01
:1058F000121B0D7B017A007900780012196690095D
:105900003A121B9A22900936121B0D7B017A0079FC
:10591000007800121966900936121B9A22900E69BF
:10592000EFF0900928E0FFEF30E345900E69E0FFCB
:105930007E00EF4E701D900932121B0DEF2480FF88
:10594000EE3451FEED3401FDEC3400FC90093212CE
:105950001B9A2290092E121B0DEF2480FFEE34516A
:10596000FEED3401FDEC3400FC90092E121B9A224E
:10597000900E69E0FF7E00EF4E7018900932121B06
:105980000D7B017A007900780012196690093212B5
:105990001B9A2290092E121B0D7B017A0079007848
:1059A0000012196690092E121B9A22900929E0FF15
:1059B000EF30E413900929E0FFEF54EFFF9009293D
:1059C000EFF07F141252F7900929E0FFEF30E11356
:1059D000900929E0FFEF54FDFF900929EFF07F15B2
:1059E0001252F7900929E0FFEF30E213900929E005
:1059F000FFEF54FBFF900929EFF07F161252F7904A
:105A00000929E0FFEF30E013900929E0FFEF54FE91
:105A1000FF900929EFF07F171252F7900929E0FF54
:105A2000EF30E313900929E0FFEF54F7FF900929C5
:105A3000EFF07F181252F722C2AF75FEC1AFFFD24E
:105A4000AFEF5430FD7C0070047920801CED6410B1
:105A50004C700479108012ED64204C700479088039
:105A600008ED64304C70027904E924F8601824F8D9
:105A7000602024F06028241C7030900B527401F0D8
:105A8000A374F4F08026900B527403F0A374E8F032
:105A9000801A900B527407F0A374D0F0800E900B14
:105AA00052740FF0A374A0F08002E4F9900B52E05E
:105AB0007002A3E0600C900B5274FFF5F012180610
:105AC00080EA221259AB125BD5EF121D045ADD1485
:105AD0005AE1165AF1175AFE1800005B4B121DE6E8
:105AE0002212516F12411612661C125FBF12345EF1
:105AF000221226391258001262761229D522900AF3
:105B0000E2E0FEA3E0FFC006C007900AE6E0FCA3C7
:105B1000E0FD900AE4E0FAA3E0FB900AE8E0FEA3CF
:105B2000E0FF900B36EEF0A3EFF0D007D006123D69
:105B3000D4122F6C126661123A80900920E0FFEFB8
:105B40004480FF900920EFF012464A2275FE8543FB
:105B5000FF2053DB7FD2AFC209E4900CECF0900A37
:105B60009BF012621DE4FF1264FFEF2401FDE43399
:105B7000FC7E0F7FA01217B1900CE7EEF0A3EFF0C0
:105B8000E4FF126BC6123D617F021264FFEFC45442
:105B9000F0FEC006E4FF1264FFD0E02FF5E17F03C2
:105BA0001264FFE5E254804FF5E27F041264FFEFD8
:105BB0006008E5E254804480F5E27F011264FF8FC3
:105BC000E312686243A910900A87E04480F5E81266
:105BD0005F49026BA790091FE0FF7E00C3EF940F9F
:105BE000EE64809480401D90091FE4F090091FE04E
:105BF000FF743E2FF582E43409F583E0FF900E67D1
:105C0000EFF0804F90091EE0FF90091FE0FEEEC309
:105C10009F401290091FE4F090091EE4F0900E6777
:105C200074FFF0802E90091FE0FF743E2FF582E490
:105C30003409F583E0FF900E67EFF090091FE0FF55
:105C4000743E2FF582E43409F58374FFF090091F48
:105C5000E004F0900E67E0FF22900B5AEFF0126C18
:105C600081900B5BEFF0125CCE900CE8E025E0FF3A
:105C7000900CE7E033FE7C00123D0F123C40E0FA4E
:105C8000A3E0C39FEA9E5009900B5BE0603F148045
:105C90002D125CCE900CE7E0FEA3E0FF7C007D07B8
:105CA00012179F123D0F123C5FE0FAA3E0D39FEA68
:105CB0009E401A900B5BE0FF647E6011EF04FF745E
:105CC000972DF582E4340AF583EFF0D20922900B88
:105CD0005AE0FF126BC6EFFB22900DF9EFF0900D2A
:105CE000FAECF0A3EDF0900DF9E0FFEF540FFF7E1A
:105CF00000EF4E7039900DFA74FF75F0FF12180620
:105D0000900DF9E0FFEF54F0FFE5D254CFFEEE4FD7
:105D1000F5D2900DFAE0FEA3E0FFEEFF7E008FD5F6
:105D2000900DFAE0FEA3E0FFEF54FFF5D422900DB2
:105D3000F9E0FFEF540FF5CE900DF9E4F0900DFA75
:105D4000E0FEA3E0FFEEFF7E008FCB900DFAE0FEB9
:105D5000A3E0FFEF54FFF5CA22C0E0C0F0C083C04B
:105D600082C0D075D000C000C001C002C003C00412
:105D7000C005C006C0073099355398FD900E60E00D
:105D8000FF7E00C3EF9407EE64809480501B900E5A
:105D900060E004F0900E60E0FF74592FF582E43467
:105DA00009F583E0FF8F998005900E60E4F030984C
:105DB000065398FE124FBA5398FD5398FED007D061
:105DC00006D005D004D003D002D001D000D0D0D06E
:105DD00082D083D0F0D0E032900BD7EEF0A3EFF07A
:105DE000900BD9ECF0A3EDF0900BDBEAF0A3EBF015
:105DF000900BD7E0FCA3E0FDE41215207B007AF0C5
:105E0000797F7845121405900BDD121B9A900BD9FF
:105E1000E0FCA3E0FDEC121520900BDD121B291213
:105E200012FCC004C005C006C007900BDBE0FCA359
:105E3000E0FDEC121520A804A905AA06AB07D007BF
:105E4000D006D005D00412120B900BE1121B9A90D1
:105E50000BE1121B0D22900E62EFF0900E62E0FF3C
:105E6000900019121BE3900015E0FCA3E0FD8D8269
:105E70008C83EF12177D900015E475F0011218065F
:105E8000900017E475F001121806900019121BE338
:105E90001216D0FF7E00EF64184E601290001912A7
:105EA0001BE31216D0FF7E00EF64044E70089000D2
:105EB00015E4F0A3E4F0900015E0FEA3E0FFC3EFCB
:105EC0009485EE94004008900015E4F0A3E4F022DD
:105ED000D292D290D2B3D2B5C2B7C2B4C2B2C2B11A
:105EE0007DD07C077F0212109E900929E0FFEF30E1
:105EF000E0F743CF10900AE1E004F0900929E0FFB9
:105F0000EF54FEFF900929EFF0900AE1E0FF7E00D8
:105F1000C3EF941EEE64809480501D900AE1E0FF70
:105F20007E00C3EF9402EE6480948040BC7D007CD0
:105F3000007F0212109E80B1C2B3C2B5C2B7C2B414
:105F4000C2B2C2B1C292C29022900B507420F01221
:105F50006AFAE4900B51F0900B51E0FFC3952A5080
:105F600021E0FE123C3DE0FCA3E0FD75F002EE12E4
:105F70003CA8ECF0A3EDF0125C59900B51E004F05A
:105F800080D5900B50E0FF14F0EF70C3126CEF124D
:105F90006D46900B50EFF0126AFAE4900B51F090BE
:105FA0000B51E0FFC3952A500B124DEC900B51E0C2
:105FB00004F080EB900B50E0FF14F0EF70D922203A
:105FC0008518900920E0FFEF20E30F900920E0FF03
:105FD000EF4408FF900920EFF0222085349009203B
:105FE000E0FFEF30E32B00000000000000000000A5
:105FF00020850F900920E0FFEF4410FF900920EF6B
:10600000F022900920E0FFEF54F7FF900920EFF015
:1060100022900920E0FFEF54EFFF900920EFF0906D
:106020000920E0FFEF54F7FF900920EFF022900DD8
:10603000B5EFF0900DB6EDF0900DB7EBF0900DBC14
:10604000E0FF7E00EF64024E6051900DB5E0FFEF7F
:1060500014FFEF5403FF900DB9E0FEEE54FCFEEE8A
:106060004FFF900DB9EFF0900DB8E0FFEF543FFFF8
:10607000EF25E025E0FF900DB9E0FEEE5403FEEEC3
:106080004FFF900DB9EFF0900DB6E0FF900DBBEF14
:10609000F0900DB7E0FF900DBCEFF0227508007591
:1060A0000900750D02750C40750B00750A00750826
:1060B00000AF087E00C3EF941FEE64809480503CD4
:1060C000AF0DAE0CAD0BAC0A7801121A9D8F0D8E80
:1060D0000C8D0B8C0A30D720AF0974872FF582E422
:1060E000340AF583E508F00509AF097E00C3EF9493
:1060F00002EE648094805004050880B585092A2248
:10610000AB07AA06900B5CE5F4F0A2AFE433A3F072
:10611000AFDFA3E4F0A3EFF0C2AF75F402AF058FD9
:10612000F5EAF5F3AF038FF2AFF3EFFEADF27C00CB
:10613000E42DEC3EC39418501475F1F075F610433D
:10614000F6020000000080050000000000900B5CDB
:10615000E0F5F4900B5EA3E0F5DF900B5DE024FF2B
:1061600092AF22AD07AC06900B50E5F4F0A2AFE47D
:1061700033A3F0AFDFA3E4F0A3EFF0C2AF75F402F6
:10618000ECF5F3AF058FF2AFF3EFFEADF27C00E478
:106190002DEC3EC39418501475F1F075F62043F6BB
:1061A000020000000080050000000000900B50E09D
:1061B000F5F4900B52A3E0F5DF900B51E024FF9231
:1061C000AF22C20C900CECE0123C3DE5E5F0A3E5FB
:1061D000E4F0900CECE004F0E0C3952A400BE4F00E
:1061E000900A9BE04480F08002D20C900CECE0FF1F
:1061F000126BC6123D61900CECE0FF126C81E5E27F
:1062000054804FF5E2900CECE02487F582E4340AE8
:10621000F583E04480F5E8300C02D2EE22906DD593
:10622000E493FE740193FF900A80EFF0906DEFE429
:1062300093FE740193FF900A9EEFF012609C750E1E
:1062400000E50EC3952A5025AF0EEF75F008A42483
:10625000F5F582E4346DF583E493FFAE0E74972E6A
:10626000F582E4340AF583EFF0050E80D4900A9CA1
:10627000E4F0A3E4F02290095974A5F090095A744F
:1062800008F012632290095EEFF0900960E4F012CA
:106290006D01900E6DE4F0900E6DE0FF7E00C3EF97
:1062A0009407EE64809480501F900E6DE0FF745947
:1062B0002FF582E43409F583E0FF900960E02FF0C8
:1062C000900E6DE004F080CF7599A522900D2712F5
:1062D0001B9A900D2EE5F4F0A2AFE433FF900D2D44
:1062E000EFF0900D2DE0FF7E00EF4E6002C2AF9008
:1062F0000D2BE0FF8FF4900D27121B0D8F828E83E4
:10630000E493FF900D2CEFF0900D2EE0FF8FF490B2
:106310000D2DE0FF7E00EF4E6002D2AF900D2CE01D
:10632000FF2290092CE0FEA3E0FFEF4E7022900EBA
:106330006CE0FFEF54FCFF900E6CEFF0900E6CE001
:10634000FFEF54CFFFEF4410FF900E6CEFF0802072
:10635000900E6CE0FFEF54FCFFEF4401FF900E6CD9
:10636000EFF0900E6CE0FFEF54CFFF900E6CEFF06B
:10637000900E6CE0FF22900E11EEF0A3EFF0900E65
:1063800013EDF0900E13E0FF7E00EF4E7021900EA3
:1063900011E0FEA3E0FFEFF4FFEF52AB900E11E02F
:1063A000FEA3E0FFEEFF7E00EFF4FFEF52AC229081
:1063B0000E11E0FEA3E0FFEF42AB900E11E0FEA352
:1063C000E0FFEEFF7E00EF42AC22900E61EFF09016
:1063D0000E61E0FF9001ADE0FCA3E0FD74AF2DF590
:1063E0008274013CF583EFF09001ADE475F0011289
:1063F00018069001ADE0FEA3E0FFD3EF9400EE9409
:106400000240089001ADE4F0A3E4F0900E61E0FFDB
:10641000EFB40D069001A87403F022900D36121C03
:10642000039085F0E493FF900D3CEFF09012001282
:106430001B19900D3CE02FF0900A187401F0900A9F
:1064400019E4F0A3E4F0900A1BE4F0A3E4F0900D4B
:1064500039121BE3900A1D121C03900D36121BE328
:10646000900A49121C0322900DC5EFF0900DC6EC66
:10647000F0A3EDF0900DC8EBF0900DC5E0FF900D8E
:10648000C6E0FCA3E0FD12109E900DC5E0FF900D4C
:10649000C8E0FD1254F4900DC8E0FF7E00EF6401E7
:1064A0004E700F900DC5E0FFEFC4540FFF7D011239
:1064B00066A422900E46EFF0900E47EDF0900E4647
:1064C000E0FF7E00EF4E7005538EFE8010900E466A
:1064D000E0FF7E00EF64014E7003438E01900E4793
:1064E000E0FF7E00EF64014E70045389FB22900EA2
:1064F00047E0FF7E00EF64024E7003438904229060
:106500000E72EFF0900E72E0FFEF121D0465200096
:10651000652701652E02653503653B04000065466D
:10652000906DF1E493FF22906DF2E493FF22906D61
:10653000F3E493FF227F00126C8122906DE3E493D9
:10654000FE740193FF227F00227E007F0A7D007B84
:10655000017A097920121D307E007F147D007B01B5
:106560007A09792A121D307E007F0A7D007B017A2C
:10657000097961121D307E007F0C7D007B017A0954
:10658000794D121D307B017A09792A900968121C15
:106590000322C0E0C0F0C083C082C0D075D000C06C
:1065A00000C001C002C003C004C005C006C007127D
:1065B00069117F011252447F02125244D007D00663
:1065C000D005D004D003D002D001D000D0D0D082EA
:1065D000D083D0F0D0E032900E63EFF0900004E072
:1065E000FFEF121D0465F80065F801660102660AF6
:1065F0000365F80400006613900E63E0FF1263CA9F
:1066000022900E63E0FF125E5622900E63E0FF12AE
:1066100063CA22900E63E0FF1263CA22900920E051
:10662000FFEF30E208900D33E004F08005900D3369
:10663000E4F0900D33E0FF7E00D3EF94C8EE648069
:106640009480401C900920E0FFEF54BFFF90092088
:10665000EFF0900920E0FFEF54DFFF900920EFF00A
:1066600022900922E0FFEF30E639900ADAE475F073
:1066700001121806D2C2D2C0D2C1D2C3900ADAE047
:10668000FEA3E0FFD3EF9484EE94034016C2C2C28F
:10669000C0C2C1C2C3900922E0FFEF4440FF90098D
:1066A00022EFF022900E3EEFF0900E3FEDF0900EB4
:1066B0003EE0FF7E00EF4E7013900E3FE0FF7E0045
:1066C000EF4E600443D2802253D27F22900E3EE0F0
:1066D000FF8FCE900E3FE0FF7E00EF4E600443C878
:1066E000042253C8FB22900DADEFF0900DAE121CAA
:1066F00003900DADE0FF90000DEFF09000117403DA
:10670000F0A374E8F0900DAE121BE3900019121C78
:1067100003900015E4F0A3E4F0900017E4F0A3E484
:10672000F090000FE4F0227B017D017F0212388C93
:106730007B017D027F0212388C900C67121BA60031
:10674000002580900C6B7440F0900C6CE4F0900C81
:106750006D7410F07F007E487DE87C01124AE87D70
:10676000007F01126A2B22900E6FEFF0900E6FE007
:10677000FFEF75F008A424F7F582E4346DF583E4A7
:1067800093FF7E00EF7F00FE900E6FE0FDED75F051
:1067900008A424F8F582E4346DF583E493FD7C00CD
:1067A000EF2DFFEE3CFE22900DD8EFF0900DD8E0DB
:1067B000FF126767900DD9EEF0A3EFF0900DD9E0CE
:1067C000FEA3E0FFEF7803C333CE33CED8F9FF7CCE
:1067D000007D0A1217B1900DD9EEF0A3EFF0900DE5
:1067E000D9E0FEA3E0FF227D9F7C0F7F10125CD9D1
:1067F0007B017D007C007F021264677F00126B1FAB
:106800007D007F00126AAB900DD0E4F07B007D200C
:106810007F001268D87B007D007F001254507D01FC
:106820007F001266A4227D007F10126C987D017F8C
:10683000027E001263767D017F087E001263767D02
:10684000017F407E001263767D017F807E001263AF
:10685000767D017F011257707F01126C69C2AEC252
:10686000BE22E4FFEFC3952A501A123C95E4F0745F
:10687000952F123C46E4F0A3F0748F2F123CEDE408
:10688000F00F80E0E4F525F524F523F522900CE6E1
:1068900074FFF0E4900CE9F0A3F0C20922C0E0C05C
:1068A000F0C083C082C0D075D000C000C001C0025B
:1068B000C003C004C005C006C0071261C2D007D023
:1068C00006D005D004D003D002D001D000D0D0D063
:1068D00082D083D0F0D0E032900DCDEFF0900DCE8D
:1068E000EDF0900DCFEBF0900DCDE0FF7E00EF4E80
:1068F000701EE5D754C0FF900DCEE0FEEF4EFF9026
:106900000DCFE0FEEF4EFF900DD0E0FEEF4EF5D73D
:10691000227F02124EDCEF60077F02125244D20A3D
:106920007F01124EDCEF601F7F011252441210866D
:10693000900E74EFF0900E74E0FF900A49121BE382
:1069400089828A83121D2E22900E40EFF0900E4114
:10695000EDF0900E40E0FF7E00EF4E600543A9028F
:10696000800353A9FD900E41E0FF7E00EF4E7004BE
:1069700053B9FD2243B90222E4900CEDF0900B5084
:10698000F0900B50E0FFC3952A5013124DEC900B82
:1069900050E0FF12221D900B50E004F080E3AF2581
:1069A000AE24AD23AC2222900005121B0D7B017A90
:1069B0000079007800121966900005121B9A900069
:1069C00013E475F0011218069001A9E475F00112A4
:1069D000180622900D8FEFF0900D8FE0FF900004CD
:1069E000EFF0900005121BA600000000900D901221
:1069F0001B0D900009121B9A9001A87401F02290BF
:106A00000E52EFF0900E53EDF0900E52E0FF7E002C
:106A1000EF4E7004C2A98002D2A9900E53E0FF7E0F
:106A200000EF4E7003C2B922D2B922900E56EFF099
