:10000000021100300003021003210330000302102C
:100010000B210B30000302101321133000030210D8
:100020001B211B3000030210232123300003021088
:100030002B212B3000030210332133300003021038
:100040003B213B30000302104321433000030210E8
:100050004B214B3000030210532153300003021098
:100060005B215B3000030210632163300003021048
:100070006B216B30000302107321733000030210F8
:100080007B217B30000302108321833000030210A8
:100090008B218B3000030210932193300003021058
:1000A0009B219B3000030210A321A3300003021008
:0300B000AB21ABD6
:10100000D2EE22021046C284D28222024F13D28430
:10101000C2822202104EC294D2A522021052D29451
:10102000C2A52202602FC2A6D2A72202105AD2A6BF
:10103000C2A722021056C280D28122021062D28040
:10104000C2812202106A5388FD3222021071538835
:10105000F7323202107253ADDF3232026B57126E2A
:10106000E62232026C617520FF2232021079A20959
:1010700022323202107AD2092232320210817F01EA
:0F10800022323202684CAFC72232320210822273
:03109300021089BF
:10109B0002108A900DCFEFF0900DD0ECF0A3EDF095
:1010AB00900DCFE0FFEF54F0FF7E00EF4E70225318
:1010BB00D2FD900DD0E0FEA3E0FF900DCFE0FDED53
:1010CB0025E02440F582E43420F583EEF0A3EFF025
:1010DB0022900DD0E0FEA3E0FF900DCFE0FDED548C
:1010EB000FFDED25E02434F582E43420F583EEF09A
:0410FB00A3EFF0224D
:1011000078FFE4F6D8FD9000007F007E01E4F0A3B4
:10111000DFFCDEFA75812A02115502412EE493A309
:10112000F8E493A34003F68001F208DFF48029E499
:1011300093A3F85407240CC8C333C4540F4420C8E5
:10114000834004F456800146F6DFE4800B0102047C
:101150000810204080903E5DE47E019360BCA3FFB8
:10116000543F30E509541FFEE493A360010ECF54B1
:10117000C025E060A840B8E493A3FAE493A3F8E4A0
:1011800093A3C8C582C8CAC583CAF0A3C8C582C80C
:10119000CAC583CADFE9DEE780BE900D76EFF09026
:1011A0000D77ECF0A3EDF0900D79EAF0A3EBF09061
:1011B0000D76E0FFEF121D0411C80011D40111E0FB
:1011C0000211EC03000011FF900D77E0FEA3E0FF99
:1011D000126D3F22900D77E0FEA3E0FF126D6A22B0
:1011E000900D77E0FEA3E0FF126F3722900D77E0BD
:1011F000FEA3E0FF900D79E0FCA3E0FD126ECA2291
:10120000202304140215C5E86480F8E933E833604C
:10121000110460F0ED33EC337009E8FCE9FDEAFEFF
:10122000EBFF220460DED3EB9FEA9EE99DE8C2E774
:101230008CF0C2F795F0400CE8CCF8E9CDF9EACE95
:10124000FAEBCFFB12159085D0F05804700320D52F
:10125000B3E80470075002B2D50215CF92D5EC0462
:1012600060F7E4CCC0E0C398F8603B941860084095
:101270000DD0E0FB0215A7E4FBFAC9FC8028E8309A
:10128000E406E4C9FBE4CAFCE830E305E4C9CACBE0
:10129000FCE854076010F8C3E913F9EA13FAEB13FA
:1012A000FBEC13FCD8F130F52FC3E49CFCEF9BFF63
:1012B000EE9AFEED99FDD0E0FBEF4E4D4C70122200
:1012C000DB030215CCEC2CFCEF33FFEE33FEED33E9
:1012D000FDED30E7EB0215A7EF2BFFEE3AFEED39FF
:1012E000FDD0E0FB50130BBB00030215CFED13FD47
:1012F000EE13FEEF13FFEC13FC0215A7EC4D60118B
:10130000E8497017ED33EC3304600DE4FCFFFEFD9B
:1013100022E933E8330470F80215C5121590580419
:101320006009E4CC248150062850090215CF2840DA
:10133000030215CCC0E0EB4A7044B98006D0E0FB54
:101340000215BBEF4E701CBD8008EBFFEAFEE9FD05
:1013500080EBE98DF0A4FEE5F00213E5E9CDF9EAB2
:10136000FEEBFFEF89F0A4FCE5F0CE89F0A42EFFA0
:10137000E435F0CD89F0A42DFEE435F08067EF4E22
:101380007005BD80D780C3EF8BF0A4ACF0EE8BF07E
:10139000A42CFCE435F0F8EF8AF0A42CE5F038FC3E
:1013A000E433CB8DF0A42CFCE5F03BF8EE8AF0A4FE
:1013B0002CFCE5F038F8E433CF89F0A42CFCE5F000
:1013C00038CF3400CE89F0A42FFFE5F03EFEE433A1
:1013D000C98DF0A42EFEE5F039CD8AF0A42FFFE5EB
:1013E000F03EFEE43DFD33D0E0FB50070BBB000FA9
:1013F0000215CFEC2CFCEF33FFEE33FEED33FD0294
:1014000015A70215CFEC5D046005E85904700302CE
:1014100015C5121590580460F6EC4860F2EC7004A3
:10142000FDFEFF22C860DB2481C85009C39860021A
:1014300050060215CC9850CAF582E9294B4A70052E
:10144000AB820215BB75F0007C1A7880C3EF9BEE6F
:101450009AED99400DC3EF9BFFEE9AFEED99FDE8E2
:1014600042F0DC23ACF0D0E0FFD0E0FED0E0FDABFA
:101470008220E7101BEB60BAEC2CFCEF33FFEE335D
:10148000FEED33FD0215A7E803F830E705C0F0755F
:10149000F000EF2FFFEE33FEED33FD40B830E7C232
:1014A00080AA74F8CC6480CCC86480C8F5820460DB
:1014B0004FC3EB9FF5F0EA9E42F0E99D42F0E89CB5
:1014C00045F0603C501DE5825FFFE582D313CB5BA6
:1014D000CBF42B5582FB50280ABA002409B900200E
:1014E00008801DE5825BFBE582D313CF5FCFF4C399
:1014F000132F5582FF50090EBE00050DBD00010CD3
:10150000C3EB9FF5F0EA9E42F0E99D42F0E89C456E
:10151000F06007CC4820E701B3EC2275F020800E84
:1015200075F010800575F0087D007E007F00339215
:10153000D530D503121A68EC334010EF33FFEE3389
:10154000FEED33FDEC33FCD5F0ED22E5F0247EA278
:10155000D513CC92E7CDCEFF22EDD2E7CD33EC33DD
:1015600092D524814006E4FFFEFDFC22FCE4CFCEB0
:10157000CDCC24E0501174FF80EDC3CC13CCCD133F
:10158000CDCE13CECF13CF0470F030D5DE021A6863
:10159000E9D2E7C933E833F892D5EDD2E7CD33ECA1
:1015A00033FC5002B2D522EC30E7100FBF000C0E16
:1015B000BE00080DBD00040BEB6014A2D5EB13FCBC
:1015C000ED92E7FD2274FFFCFDFEFF22E480F8A20D
:1015D000D574FF13FC7D80E480EFE709F608DFFA9D
:1015E0008046E709F208DFFA803E88828C83E709AB
:1015F000F0A3DFFA8032E309F608DFFA8078E30926
:10160000F208DFFA807088828C83E309F0A3DFFAA6
:10161000806489828A83E0A3F608DFFA8058898291
:101620008A83E0A3F208DFFA804C80D280FA80C679
:1016300080D4806980F28033801080A680EA809A0E
:1016400080A880DA80E280CA803389828A83ECFABB
:10165000E493A3C8C582C8CCC583CCF0A3C8C58217
:10166000C8CCC583CCDFE9DEE7800D89828A83E4BC
:1016700093A3F608DFF9ECFAA9F0EDFB2289828A40
:1016800083ECFAE0A3C8C582C8CCC583CCF0A3C85C
:10169000C582C8CCC583CCDFEADEE880DB89828ADC
:1016A00083E493A3F208DFF980CC88F0EF60010EA9
:1016B0004E60C388F0ED2402B4040050B9F582EB0B
:1016C0002402B4040050AF232345822390162A73CA
:1016D000BB010689828A83E0225002E722BBFE0218
:1016E000E32289828A83E49322BB010CE58229F5F7
:1016F00082E5833AF583E0225006E92582F8E62266
:10170000BBFE06E92582F8E222E58229F582E5831F
:101710003AF583E49322BB010989828A83F8E028A1
:10172000F022500327F722BBFE05F8E328F3228AB4
:10173000838982F8E4932822BB010FF8E58229F51A
:1017400082E5833AF583E028F0225009C58229F822
:10175000E58226F622BBFE09C58229F8E22582F23F
:1017600022F8EA2583F583E9932822BB01068982C2
:101770008A83F0225002F722BBFE01F322F8BB015C
:101780000DE58229F582E5833AF583E8F0225006DB
:10179000E92582C8F622BBFE05E92582C8F222EFC0
:1017A0008DF0A4A8F0CF8CF0A428CE8DF0A42EFE4E
:1017B00022BC000BBE0029EF8DF084FFADF022E4C7
:1017C000CCF875F008EF2FFFEE33FEEC33FCEE9D06
:1017D000EC984005FCEE9DFE0FD5F0E9E4CEFD222D
:1017E000EDF8F5F0EE8420D21CFEADF075F008EFB8
:1017F0002FFFED33FD4007985006D5F0F222C39835
:10180000FD0FD5F0EA22C5F0F8A3E028F0C5F0F806
:10181000E582158270021583E038F022A3F8E0C556
:10182000F025F0F0E582158270021583E0C838F0EB
:10183000E822BB010A89828A83E0F5F0A3E0225006
:101840000687F009E71922BBFE07E3F5F009E31963
:101850002289828A83E493F5F074019322BB0110FC
:10186000E58229F582E5833AF583E0F5F0A3E022ED
:101870005009E92582F886F008E622BBFE0AE92530
:1018800082F8E2F5F008E222E5832AF583E993F590
:10189000F0A3E99322BB010789828A8302180650CC
:1018A0000B09C5F027F7C5F01937F722BBFE0D0964
:1018B000F8E325F0F3C5F019E338F322F889828ABA
:1018C0008374019325F0C5F0F8E4933822BB010D31
:1018D000C58229C582C5833AC5830218065011C541
:1018E0008229F808E5F026F618F5F0E58236F622AA
:1018F000BBFE11C58229F808E225F0F5F0F218E2E6
:101900003582F222F8E58229F582E5832AF583748F
:10191000019325F0F5F0E4933822BB010A89828A0D
:1019200083F0E5F0A3F0225006F709A7F01922BBD7
:10193000FE06F3E5F009F31922F8BB0111E582294F
:10194000F582E5833AF583E8F0E5F0A3F02250094B
:10195000E92582C8F608A6F022BBFE09E92582C85F
:10196000F2E5F008F222EF2BFFEE3AFEED39FDEC46
:1019700038FC2275F008758200EF2FFFEE33FECDA4
:1019800033CDCC33CCC58233C5829BED9AEC99E53F
:101990008298400CF582EE9BFEED9AFDEC99FC0FCF
:1019A000D5F0D6E4CEFBE4CDFAE4CCF9A88222B897
:1019B00000C1B90059BA002DEC8BF084CFCECDFC1C
:1019C000E5F0CBF97818EF2FFFEE33FEED33FDECA9
:1019D00033FCEB33FB10D703994004EB99FB0FD892
:1019E000E5E4F9FA227818EF2FFFEE33FEED33FD30
:1019F000EC33FCC933C910D7059BE99A4007EC9B2F
:101A0000FCE99AF90FD8E0E4C9FAE4CCFB2275F0BE
:101A100010EF2FFFEE33FEED33FDCC33CCC833C8CF
:101A200010D7079BEC9AE899400AED9BFDEC9AFCD5
:101A3000E899F80FD5F0DAE4CDFBE4CCFAE4C8F984
:101A400022EF5BFFEE5AFEED59FDEC58FC22EF6BE6
:101A5000FFEE6AFEED69FDEC68FC22CFF4CFCEF418
:101A6000CECDF4CDCCF4CC22C3E49FFFE49EFEE4C3
:101A70009DFDE49CFC22EB9FF5F0EA9E42F0E99D7F
:101A800042F0EC6480C864809845F022EB9FF5F04A
:101A9000EA9E42F0E99D42F0E89C45F022E8600FA2
:101AA000ECC313FCED13FDEE13FEEF13FFD8F12290
:101AB000E8600FEFC333FFEE33FEED33FDEC33FC94
:101AC000D8F122BB010DE58229F582E5833AF58341
:101AD000021B0D5007E92582F8021D5CBBFE07E9D9
:101AE0002582F8021D68E58229F582E5833AF583AF
:101AF000021B19BB010789828A83021B9A5005E9E0
:101B0000F8021D9EBBFE05E9F8021DAA22E0FCA317
:101B1000E0FDA3E0FEA3E0FF22E493FC740193FD4B
:101B2000740293FE740393FF22E0F8A3E0F9A3E0AC
:101B3000FAA3E0FB22BB010DE58229F582E5833A99
:101B4000F583021B295007E92582F8021D74BBFEAC
:101B500007E92582F8021D81E58229F582E5833AAD
:101B6000F583021D8E7401FF3395E0FEFDFCA3A3F7
:101B7000A3E0CF2FF0E582158270021583E0CE3E00
:101B8000F0E582158270021583E0CD3DF0E5821507
:101B90008270021583E0CC3CF022ECF0A3EDF0A3C0
:101BA000EEF0A3EFF022A8828583F0D083D08212DA
:101BB0001BBD121BBD121BBD121BBDE473E493A31E
:101BC000C583C5F0C583C8C582C8F0A3C583C5F069
:101BD000C583C8C582C822A42582F582E5F0358375
:101BE000F58322E0FBA3E0FAA3E0F922F8E0FBA3EF
:101BF000A3E0F925F0F0E582158270021583E0FA82
:101C000038F022EBF0A3EAF0A3E9F022BB01078948
:101C1000828A83021BE35005E9F8021DB6BBFE056C
:101C2000E9F8021DC889828A83021DDABB011A897C
:101C3000828A83D0F0D0E0F8D0E0F9D0E0FAD0E0AA
:101C4000FBE8C0E0C0F0021C035016E9F8D083D0D6
:101C500082D0E0F9D0E0FAD0E0FBC082C083021D60
:101C6000BFBBFE16E9F8D083D082D0E0F9D0E0FA0D
:101C7000D0E0FBC082C083021DD122BB010DE582F2
:101C800029F582E5833AF583021BE35007E92582B3
:101C9000F8021DB6BBFE07E92582F8021DC8E582E1
:101CA00029F582E5833AF583021DDABB0120E5823E
:101CB00029F582E5833AF583D0F0D0E0F8D0E0F959
:101CC000D0E0FAD0E0FBE8C0E0C0F0021C035018FE
:101CD000E92582F8D083D082D0E0F9D0E0FAD0E0D4
:101CE000FBC082C083021DBFBBFE18E92582F8D06D
:101CF00083D082D0E0F9D0E0FAD0E0FBC082C0838C
:101D0000021DD122D083D082F8E493701274019323
:101D1000700DA3A393F8740193F5828883E4737420
:101D200002936860EFA3A3A380DF8A838982E473B0
:101D3000EF4E6012EF60010EEDBB010B89828A83CA
:101D4000F0A3DFFCDEFA2289F05007F709DFFCA9D7
:101D5000F022BBFEFCF309DFFCA9F022E6FC08E65A
:101D6000FD08E6FE08E6FF22E2FC08E2FD08E2FECE
:101D700008E2FF22E6FB08E6F908E6FA08E6CBF8F7
:101D800022E2FB08E2F908E2FA08E2CBF822E49347
:101D9000F8740193F9740293FA740393FB22ECF63E
:101DA00008EDF608EEF608EFF622ECF208EDF20880
:101DB000EEF208EFF222E6FB08E6FA08E6F922EB7B
:101DC000F608EAF608E9F622E2FB08E2FA08E2F988
:101DD00022EBF208EAF208E9F222E493FB740193A1
:101DE000FA740293F922900922E0FFEF20E11590A6
:101DF0000925E0FF7E00D3EF9400EE6480948050CC
:101E000003021EAF90096FE0FFEF4401FF90096FDE
:101E1000EFF0900922E0FFEF30E1089009707403C1
:101E2000F08064900925E0FFEF30E00890097074BD
:101E30001FF08053900925E0FFEF30E10890097012
:101E40007420F08042900925E0FFEF30E20890090D
:101E5000707421F08031900925E0FFEF30E30890A5
:101E600009707422F08020900925E0FFEF30E4082B
:101E70009009707423F0800F900925E0FFEF30E5A2
:101E8000069009707424F0900922E0FFEF54FDFFE2
:101E9000900922EFF0900925E4F0900975E4F090A4
:101EA0000971E4F0A3E4F0900973E4F0A3E4F09086
:101EB000096FE0FFEF20E003022215900970E0FFB8
:101EC0007E00EF64014E70537BFF7A70795BC00334
:101ED000C002C0017B017A097971900BB8121C0312
:101EE0007B017A097973900BBB121C037B017A0981
:101EF0007975900BBE121C03D001D002D003122CB6
:101F0000387E00EF64014E600302221C90096FE0EE
:101F1000FFEF54FEFF90096FEFF022900970E0FF91
:101F20007E00EF64024E70537BFF7A707983C003AA
:101F3000C002C0017B017A097971900BB8121C03B1
:101F40007B017A097973900BBB121C037B017A0920
:101F50007975900BBE121C03D001D002D003122C55
:101F6000387E00EF64014E600302221C90096FE08E
:101F7000FFEF54FEFF90096FEFF022900970E0FF31
:101F80007E00EF64034E70537BFF7A7079ABC00321
:101F9000C002C0017B017A097971900BB8121C0351
:101FA0007B017A097973900BBB121C037B017A09C0
:101FB0007975900BBE121C03D001D002D003122CF5
:101FC000387E00EF64014E600302221C90096FE02E
:101FD000FFEF54FEFF90096FEFF022900970E0FFD1
:101FE0007E00EF641F4E70537BFF7A7079B3C0039D
:101FF000C002C0017B017A097971900BB8121C03F1
:102000007B017A097973900BBB121C037B017A095F
:102010007975900BBE121C03D001D002D003122C94
:10202000387E00EF64014E600302221C90096FE0CD
:10203000FFEF54FEFF90096FEFF022900970E0FF70
:102040007E00EF64204E70537B017A097976C003DD
:10205000C002C0017B017A097971900BB8121C0390
:102060007B017A097973900BBB121C037B017A09FF
:102070007975900BBE121C03D001D002D003122C34
:10208000387E00EF64014E600302221C90096FE06D
:10209000FFEF54FEFF90096FEFF022900970E0FF10
:1020A0007E00EF64214E70537B017A097986C0036C
:1020B000C002C0017B017A097971900BB8121C0330
:1020C0007B017A097973900BBB121C037B017A099F
:1020D0007975900BBE121C03D001D002D003122CD4
:1020E000387E00EF64014E600302221C90096FE00D
:1020F000FFEF54FEFF90096FEFF022900970E0FFB0
:102100007E00EF64224E70537B017A097996C003FA
:10211000C002C0017B017A097971900BB8121C03CF
:102120007B017A097973900BBB121C037B017A093E
:102130007975900BBE121C03D001D002D003122C73
:10214000387E00EF64014E600302221C90096FE0AC
:10215000FFEF54FEFF90096FEFF022900970E0FF4F
:102160007E00EF64234E70507B017A0979B6C0037C
:10217000C002C0017B017A097971900BB8121C036F
:102180007B017A097973900BBB121C037B017A09DE
:102190007975900BBE121C03D001D002D003122C13
:1021A000387E00EF64014E707390096FE0FFEF54CA
:1021B000FEFF90096FEFF022900970E0FF7E00EFC4
:1021C00064244E70577B017A0979C6C003C002C0EF
:1021D000017B017A097971900BB8121C037B017A9B
:1021E000097973900BBB121C037B017A09797590F6
:1021F0000BBE121C03D001D002D003122C387E007B
:10220000EF64014E701690096FE0FFEF54FEFF90EF
:10221000096FEFF0227D007F0012695E22900BE6CD
:10222000EFF0E4900BEEF0900BE6E0900A491239E3
:1022300083123AC6900BE7F0A3EFF0E47F01FEFDB6
:10224000FC900BE6E0F9F8121AB08F298E288D2742
:102250008C26AF01126A21900BECEEF0A3EFF01286
:1022600039D64005123AE88005E4900BE9F0900B6E
:10227000E9E0640160030223CF900BE6E0FF245500
:102280001239EBE0C394FA7480948050061239E856
:10229000E004F0123A99FCE4FBFAF9F8C3121A8C44
:1022A00060030223BC900A48E0900BEBF012107E12
:1022B000EF6030E4900BE9F0A3F0123A23501812CB
:1022C00039E8E0C39401748094804006900BE9E003
:1022D00004F0123AAD80E3123A564007900BEBE05F
:1022E000240FF0900BE6E024551239EB123B085016
:1022F000030223BCE4900BE9F012702CEF705E90A7
:102300000BEAF0123A235022900BE6E06F601612AF
:102310006FE9900BEAE024551239EBE0C39F4005CA
:10232000123AE88005123AAD80D912107EEF33954B
:10233000E04F7063900BE9E0705DA3F0123A235018
:1023400056900BE6E06F6010126FE9900BEA123ABC
:102350003DE0C39F4002803C123AAD80DF12107E08
:10236000EF3395E04F7030900BEBF0900BEAF012EA
:102370003A2350181239E8E0C394027480948040E4
:1023800006900BEBE004F0123AAD80E3900BEB12F9
:102390003A594003123AE8900BE9E064017002D226
:1023A00008E5254529FFE5244528FEE5234527FDC9
:1023B000E52245268F258E248D23F522900BE6E01D
:1023C000FF245D123999E4F0A3123A300225E2901D
:1023D0000BE6E0FF126A61900BE7E0FCA3E0FDD39F
:1023E0001239CA4008123A3AE004F0800B900CBC53
:1023F000E004F0123A3AE4F0123AD0C3E49FFBE46E
:102400009EFAC3ED9BEA1239CC4066D31239D750FD
:1024100060123A77F583E4123A30123A016003020F
:102420002536900BE7E0FEA3E0FF900BE6E0900A74
:1024300059123A1DEE8FF01218061270161239B8A2
:1024400040091239F3E475F0018019127016C3E4E3
:102450009FFFE49EFE1239B840030225361239F37D
:1024600074FFF5F01218061239AEE4F0A3F002255D
:1024700036123AD0C3E49FFFE41239D45073123AB3
:1024800077123A2CF583E4F0745D2FF582E4340A78
:10249000F583E0FF75F00A84E5F07044C3EF9464BF
:1024A00074809480900BE6E04010123A7CF583E44F
:1024B000F0D209900A6D04F080261239F8C083C06A
:1024C00082E0FEA3E0FF900A66E0A2E713FD3395E9
:1024D000E0FCC3EF9DFFEE9CD082D083F0A3EFF031
:1024E000900BE6E0FF900CB5E06F704A74FFF0804F
:1024F00045123AD0D31239D7403C900BE6E0123A5D
:102500007C123A017030123AEF123A2CF583E064F3
:10251000207023123AEFF583E4F0900A66E0A2E718
:1025200013A2E713FD3395E0FC75F002EF1239FBBF
:10253000EC8DF0121806123A994D4E4F7003022599
:10254000EE900BECE0FCA3E0FDAE047802CEA2E737
:1025500013CE13D8F8FFC3ED9FFFEC1239D440031C
:102560000225E7123A48E004F0127041900BEBEFBD
:10257000F0E4900BEAF0123A2350181239E8E0C365
:102580009401748094804006900BE9E004F0123AC4
:10259000AD80E3123A564008900A48E0900BEBF009
:1025A000900BE6E0FB123A4C123B0850030226382F
:1025B000746B2B123A4EE4F0AF29AE28AD27AC264F
:1025C000121A5BE5255FFFE5245EFEE5235DFDE570
:1025D000225C8F258E248D23F52274552BF582E401
:1025E000340AF583E4F022123A48E014F022900B0A
:1025F000E6E024551239EB123A037008900BE6E03E
:10260000FF125F2FE52A14FF900BE6E06F70299010
:102610000CBCE0C3952A4020E4900BEAF0123A2368
:10262000500E1239E8E06003123AE8123AAD80ED3C
:10263000900BE9E07002C20822900C47EEF0A3EF85
:10264000F0900C49121C03900C47E0FEA3E0FF90B1
:102650000C4CEEF0A3EFF0900C49121BE3900C4EE3
:10266000121C03900C4E121BE3C003C002C0017B7E
:10267000017A09790DD082D083D0E06B7008E965CA
:10268000827003EA65836003022760900C4CE0FED1
:10269000A3E0FFD3EF9479EE9401501D900C4CE031
:1026A000FEA3E0FF7B007A007D467C001260AE90C6
:1026B0000C4E121BE3121AF322900C4CE0FEA3E026
:1026C000FFD3EF9484EE9404501D900C4CE0FEA3D5
:1026D000E0FF7BCA7AFF7D747C011260AE900C4EE5
:1026E000121BE3121AF322900C4CE0FEA3E0FFD37E
:1026F000EF944CEE9405501D900C4CE0FEA3E0FFCF
:102700007BFE7AFE7D717C041260AE900C4E121B33
:10271000E3121AF322900C4CE0FEA3E0FFC006C0C7
:1027200007900C4CE0FEA3E0FFEF2459FDEE34FBD4
:10273000FCE41215207B007A007900783F1212FC2D
:10274000121559AB07AA06AA06AB07D007D0067D1B
:10275000A87C011260AE900C4E121BE3121AF322F9
:10276000900C4E121BE3C003C002C0017B017A092A
:102770007911D082D083D0E06B7008E96582700354
:10278000EA6583600302282F900C4CE0FEA3E0FF73
:10279000C3EF94B1EE9408501D900C4CE0FEA3E002
:1027A000FF7B007A007DCD7C001260AE900C4E1253
:1027B0001BE3121AF322900C4CE0FEA3E0FFC3EFE0
:1027C0009412EE940C501D900C4CE0FEA3E0FF7BA5
:1027D0007F7AFE7D8B7C031260AE900C4E121BE361
:1027E000121AF322900C4CE0FEA3E0FFC3EF94D941
:1027F000EE940D501D900C4CE0FEA3E0FF7BA37AFD
:10280000FB7D587C071260AE900C4E121BE3121A2F
:10281000F322900C4CE0FEA3E0FF7BBD7AEA7DE062
:102820007C1A1260AE900C4E121BE3121AF3229027
:102830000C4CE0FEA3E0FFD3EF9470EE9403501D28
:10284000900C4CE0FEA3E0FF7BFB7AFF7D8C7C00CC
:102850001260AE900C4E121BE3121AF322900C4C35
:10286000E0FEA3E0FFD3EF9484EE9404501D900C9F
:102870004CE0FEA3E0FF7BCA7AFF7D747C0112600E
:10288000AE900C4E121BE3121AF322900C4CE0FE99
:10289000A3E0FFD3EF944CEE9405501D900C4CE058
:1028A000FEA3E0FF7BF47AFE7D717C041260AE90A3
:1028B0000C4E121BE3121AF322900C4CE0FEA3E024
:1028C000FFD3EF944AEE9406501D900C4CE0FEA30B
:1028D000E0FF7B7A7AFE7DC77C051260AE900C4EDD
:1028E000121BE3121AF322900C4CE0FEA3E0FFD37C
:1028F000EF941CEE9407501D900C4CE0FEA3E0FFFB
:102900007B527AFF7D337C031260AE900C4E121B1B
:10291000E3121AF322900C4CE0FEA3E0FFD3EF94F5
:102920001CEE9407501C900C4CE0FEA3E0FF7B1FB4
:102930007AFF7D817C031260AE900C4E121BE31275
:102940001AF322900962E0FFEF547FFF900E31EFFF
:10295000F0900928E0FFEF30E103022C37900921C5
:10296000E0FFEF20E40122900E31E0FF900962E0E9
:10297000FEEE547FFEEEC39F500E900962E0FFEF23
:10298000547FFF900E31EFF090092CE0FEA3E0FFA2
:10299000EF4E6003022AED900E31E0FF7E00D3EF90
:1029A0009401EE648094805059900AA1E0FFEF20DA
:1029B000E133900920E0FFEF30E32A900AA1E0FF25
:1029C000EF54FEFF900AA1EFF0900AA1E0FFEF4460
:1029D00002FF900AA1EFF0900925E0FFEF4401FF0C
:1029E000900925EFF0900D4EE4F07B017D017F0210
:1029F000124884900D4EE4F07B007D007F02124867
:102A00008422900E31E0FF7E00D3EF9403EE6480C9
:102A100094804003022AC2900AA1E0FFEF20E05018
:102A2000900920E0FFEF30E347900AA1E0FFEF4478
:102A300001FF900AA1EFF0900AA1E0FFEF54FDFF23
:102A4000900AA1EFF0900925E0FFEF4408FF9009FC
:102A500025EFF0900D4EE4F07B017D017F021248DE
:102A600084900D4E7428F07B027D007F0212488412
:102A7000900AA1E0FFEF1313543FFEEF5403FFEE63
:102A800004FEEE543FFEEE25E025E0FEEE4FFF9003
:102A90000AA1EFF0900AA1E0FFEF1313543FFFEFFC
:102AA000543FFF7E00C3EF940AEE6480948050038D
:102AB000022C37900AA1E0FFEF5403FF900AA1EF28
:102AC000F022900D4EE4F07B017D007F02124884DD
:102AD000900D4EE4F07B017D017F01124884900D42
:102AE0004EE4F07B007D017F0212488422900E317B
:102AF000E0FF7E00D3EF9403EE6480948050519009
:102B00000D4EE4F07B007D007F01124884900AA105
:102B1000E0FFEF30E103022C37900920E0FFEF20C7
:102B2000E303022C37900AA1E0FFEF54FEFF900A66
:102B3000A1EFF0900AA1E0FFEF4402FF900AA1EF9D
:102B4000F0900925E0FFEF4401FF900925EFF02206
:102B5000900E31E0FF7E00D3EF940AEE6480948003
:102B60004003022C0D900AA1E0FFEF20E0509009F5
:102B700020E0FFEF30E347900AA1E0FFEF4401FFC0
:102B8000900AA1EFF0900AA1E0FFEF54FDFF900A38
:102B9000A1EFF0900925E0FFEF4408FF900925EF31
:102BA000F0900D4EE4F07B017D017F01124884908E
:102BB0000D4E7428F07B027D007F01124884900A3C
:102BC000A1E0FFEF1313543FFEEF5403FFEE04FEAA
:102BD000EE543FFEEE25E025E0FEEE4FFF900AA109
:102BE000EFF0900AA1E0FFEF1313543FFFEF543FC3
:102BF000FF7E00C3EF940AEE648094804039900A0F
:102C0000A1E0FFEF5403FF900AA1EFF022900D4ED8
:102C1000E4F07B017D017F02124884900D4EE4F0C8
:102C20007B017D007F01124884900D4EE4F07B0013
:102C30007D017F0112488422900BB5121C03900B7A
:102C4000BE121BE31216D0FF7E00EF64FF4E70032E
:102C50007F0122900BBE121BE31216D0FF7E08EFFD
:102C60008EF0A4FFAEF0900BB5121BE3E92FF9EA4A
:102C70003EFA75820475830012185DFDACF0E41213
:102C800015207BCD7ACC794C783E1212FCC004C062
:102C900005C006C007900BB8121BE3121832FDAC3A
:102CA000F0E4121520A804A905AA06AB07D007D0A6
:102CB00006D005D0041214A24003022DCE900BB50D
:102CC000121BE3C003C002C001900BBE121BE31233
:102CD00016D0FF75F008EFA4F58285F083D001D0FF
:102CE00002D003121B3590096BE0FEA3E0FFE4FC69
:102CF000FDC3121A8C7003022D97900BB5121BE3C3
:102D0000C003C002C001900BBE121BE31216D0FF1D
:102D100075F008EFA4F58285F083D001D002D003CE
:102D2000121AC390096BEEF0A3EFF0900BB5121BD3
:102D3000E3C003C002C001900BBE121BE31216D009
:102D4000FF75F008EFA4F58285F083D001D002D0A2
:102D500003121AC3AD07AC067F10125FAF900BB51C
:102D6000121BE3C003C002C001900BBE121BE31292
:102D700016D0FF75F008EFA4F58285F083D001D05E
:102D800002D003121AC390096DEEF0A3EFF07D019B
:102D90007F0012695E802790096DE0FCA3E0FDE4EE
:102DA0001215207B007A007900783F1212FC121570
:102DB00059AD07AC06AC06AD077F0212109E900B12
:102DC000B8121BE3E475F001121895022EF8900B6F
:102DD000BE121BE31216D0FF7E08EF8EF0A4FFAEEA
:102DE000F0900BB5121BE3E92FF9EA3EFA75820663
:102DF00075830012185DFDACF0E41215207BCD7ACE
:102E0000CC794C783E1212FCC004C005C006C00745
:102E1000900BBB121BE3121832FDACF0E41215202C
:102E2000A804A905AA06AB07D007D006D005D00490
:102E30001214A250197D007C007F0212109E900B8C
:102E4000BB121BE3E475F001121895022EF8900BEB
:102E5000BE121BE37401121716900BB8121BE3E4A9
:102E600075F00012191A900BBB121BE3E475F00009
:102E700012191A900BB5121BE3C003C002C00190D7
:102E80000BBE121BE31216D0FF75F008EFA4F582FB
:102E900085F083D001D002D003121AC390096DEEE1
:102EA000F0A3EFF0900BB5121BE3C003C002C0010A
:102EB000900BBE121BE31216D0FF75F008EFA4F5BD
:102EC0008285F083D001D002D003121AC37BFF7A2F
:102ED000FF79FF7800C3121A8C701D900BBE121B75
:102EE000E374FF12176B90096BE4F0A3E4F07D002C
:102EF0007F0012695E7F01227F002290092CE0FE94
:102F0000A3E0FFEF4E6003022FA77F007ED47D8FEA
:102F10007C05900932121B29C3121A8C5003125CD3
:102F2000827B607A0379007800900932121B0D12BF
:102F300019AF900CD6121B9A7FE07EA57D017C0014
:102F4000900CD6121B29C3121A8C40030230299010
:102F50000CD6121B29C374E09BFF74A59AFE740162
:102F600099FDE498FC900CD6121B9A900CD6121B7B
:102F70000DE412151B7B007A007987784412140542
:102F8000900CDA121B9A900CDA121B0D121559EFE5
:102F9000547FFF900962E0FEEE5480FEEE4FFF90FA
:102FA0000962EFF00230297F007E9C7DDA7C01907F
:102FB000092E121B29C3121A8C5003125C827B60EB
:102FC0007A037900780090092E121B0D1219AF9028
:102FD0000CD6121B9A900CD6121B29C374A09BFF0F
:102FE000748C9AFEE499FDE498FC900CD6121B9A1E
:102FF000900CD6121B0DE412151B7B007A0079B4DD
:103000007843121405900CDA121B9A900CDA121BFA
:103010000D121559EF547FFF900962E0FEEE5480C7
:10302000FEEE4FFF900962EFF090092CE0FEA3E066
:10303000FFEF4E60030230EC900924E0FFEF20E642
:10304000030230EC7F747EC27D037C0090093A124B
:103050001B29C3121A8C5003125BF790093A121BFA
:103060000DE412151B7B927A917933783D1212FC94
:10307000121559900CD6121B9A7F307E2A7D007C47
:1030800000900CD6121B29D3121A8C400A900CD631
:10309000121BA600002A30900CD6121B29C37430D4
:1030A0009BFF742A9AFEE499FDE498FC900CD612DA
:1030B0001B9A900CD6121B0DE412151B7B007A0094
:1030C00079D87842121405900CDA121B9A900CDA17
:1030D000121B0D121559EF547FFF900963E0FEEEAD
:1030E0005480FEEE4FFF900963EFF02290092CE030
:1030F000FEA3E0FFEF64014E60030231B0900924AB
:10310000E0FFEF20E6030231B07FC57E407D017C09
:1031100000900936121B29C3121A8C5003125BF758
:10312000900936121B0DE412151B7B927A917933AC
:10313000783D1212FC121559900CD6121B9A7F1072
:103140007E0E7D007C00900CD6121B29D3121A8CA7
:10315000400A900CD6121BA600000E10900CD6123E
:103160001B29C374109BFF740E9AFEE499FDE4982A
:10317000FC900CD6121B9A900CD6121B0DE4121563
:103180001B7B007A0079107842121405900CDA1239
:103190001B9A900CDA121B0D121559EF547FFF90F9
:1031A0000963E0FEEE5480FEEE4FFF900963EFF0FE
:1031B00022900921E0FFEF30E0030233D29009288A
:1031C000E0FFEF30E1030233D2900921E0FFEF206E
:1031D000E40122900922E0FFEF30E6030233D290AF
:1031E0000920E0FFEF30E41E900922E0FFEF20E22B
:1031F00015900AA5E4F0900922E0FFEF4404FF9047
:103200000922EFF0C2DB900AA5E0FFEF121D0432A5
:103210002800324D01328A02330003331F04336A1F
:1032200005339406000033D2D2C2900AA57401F08F
:10323000900923E0FFEF4480FF900923EFF090090D
:1032400024E0FFEF4440FF900924EFF022900AA60B
:10325000E475F001121806900AA6E0FEA3E0FFD381
:10326000EF9409EE940050030233D2900AA6E4F0E2
:10327000A3E4F0D2C0900AA5E004F0900921E0FF99
:10328000EF4440FF900921EFF022900920E0FFEF8A
:1032900020E425900921E0FFEF20E008900964E494
:1032A000F0A3E4F0900AA5E004F0900923E0FFEF1A
:1032B000547FFF900923EFF0900964E475F0011248
:1032C000181CAFF0FEC374C09F745D9E40030233B0
:1032D000D2900921E0FFEF54BFFF900921EFF09059
:1032E0000921E0FFEF4401FF900921EFF012700087
:1032F000900D4E7428F07B027D007F0312488422DB
:10330000C2C2900AA6E4F0A3E4F0900AA5E004F09B
:10331000900922E0FFEF54FBFF900922EFF022908A
:103320000AA6E475F001121806900AA6E0FEA3E0D2
:10333000FFD3EF9409EE940050030233D2900AA613
:10334000E4F0A3E4F0C2C0900924E0FFEF54BFFF13
:10335000900924EFF0900AA5E004F0900921E0FF25
:10336000EF54BFFF900921EFF022900AA6E475F018
:1033700001121806900AA6E0FEA3E0FFD3EF9470B6
:10338000EE9417404D900AA6E4F0A3E4F0900AA54D
:10339000E004F022900AA6E475F001121806900AE3
:1033A000A6E0FEA3E0FFD3EF94B0EE9404401490A7
:1033B0000AA6E4F0A3E4F0900AA5E004F0C2DBC2A0
:1033C000C08004D2DBD2C0900920E0FFEF30E402DD
:1033D000C2DB2290091DE0FF7E00C3EF940AEE6479
:1033E00080948040030235DE900A87E004F0900A62
:1033F00088E0FFEF121D04340700347E0134F5022B
:10340000356903000035DE900A87E0FF7E00EF6437
:10341000014E700412101622900A87E0FF7E00EF22
:1034200064034E700B7D017F01125AD843AD4022D8
:10343000900A87E0FF7E00EF64054E701A126F015C
:1034400090091DE0FDED25E024C9F582E43408F57E
:1034500083EEF0A3EFF022900A87E0FF7E00C3EF37
:10346000940AEE6480948050030235DE900A88E06E
:1034700004F0900A87E4F012101E12100622900A3F
:1034800087E0FF7E00EF64014E7004121026229048
:103490000A87E0FF7E00EF64034E700B7D017F031F
:1034A000125AD843AD4022900A87E0FF7E00EF64B5
:1034B000054E701A126F0190091DE0FDED25E02404
:1034C000F1F582E43408F583EEF0A3EFF022900AE0
:1034D00087E0FF7E00C3EF940AEE6480948050037F
:1034E0000235DE900A88E004F0900A87E4F01210BA
:1034F0002E12100E22900A87E0FF7E00EF64014E2C
:10350000700412103622900A87E0FF7E00EF6403F9
:103510004E700B7D017F06125AD843AD4022900AAF
:1035200087E0FF7E00EF64054E701A126F0190096C
:103530001DE0FDED25E024DDF582E43408F583EEA1
:10354000F0A3EFF022900A87E0FF7E00C3EF940A19
:10355000EE6480948050030235DE900A88E004F027
:10356000900A87E4F012103E22900A87E0FF7E0066
:10357000EF64014E700412100622900A87E0FF7E6D
:1035800000EF64034E700B7D017F07125AD843ADE4
:103590004022900A87E0FF7E00EF64054E701A1209
:1035A0006F0190091DE0FDED25E024B5F582E434BE
:1035B00008F583EEF0A3EFF022900A87E0FF7E008B
:1035C000C3EF940AEE648094804013900A88E4F07C
:1035D000900A87E4F012100E90091DE004F022908A
:1035E0000DEAEFF0900DEBEDF0900DECEBF0900D9F
:1035F000EAE0FFEF121D04360D0036590136A50230
:1036000036F103373D04378905000037D2900DECC1
:10361000E0FFEF121D04362300363A01364E020059
:103620000037D2900DEBE0FFEFF4FFEF529A900DD0
:10363000EBE0FFEFF4FFEF529B22900DEBE0FFEF8A
:10364000F4FFEF529A900DEBE0FFEF429B22900DBA
:10365000EBE0FFEF429A222222900DECE0FFEF1206
:103660001D04366F00368601369A02000037D2906C
:103670000DEBE0FFEFF4FFEF5291900DEBE0FFEF69
:10368000F4FFEF529222900DEBE0FFEFF4FFEF52C8
:1036900091900DEBE0FFEF429222900DEBE0FFEFF7
:1036A0004291222222900DECE0FFEF121D0436BB66
:1036B0000036D20136E602000037D2900DEBE0FF73
:1036C000EFF4FFEF52A1900DEBE0FFEFF4FFEF52AC
:1036D000A222900DEBE0FFEFF4FFEF52A1900DEB73
:1036E000E0FFEF42A222900DEBE0FFEF42A1222289
:1036F00022900DECE0FFEF121D04370700371E018A
:10370000373202000037D2900DEBE0FFEFF4FFEF0D
:1037100052B1900DEBE0FFEFF4FFEF52B222900DAB
:10372000EBE0FFEFF4FFEF52B1900DEBE0FFEF4263
:10373000B222900DEBE0FFEF42B1222222900DEC7D
:10374000E0FFEF121D04375300376A01377E020095
:103750000037D2900DEBE0FFEFF4FFEF52C1900D78
:10376000EBE0FFEFF4FFEF52C222900DEBE0FFEF32
:10377000F4FFEF52C1900DEBE0FFEF42C222900D3B
:10378000EBE0FFEF42C1222222900DECE0FFEF12AE
:103790001D04379F0037B60137CA02000037D290A8
:1037A0000DEBE0FFEFF4FFEF52D9900DEBE0FFEFF0
:1037B000F4FFEF52DA22900DEBE0FFEFF4FFEF524F
:1037C000D9900DEBE0FFEF42DA22900DEBE0FFEF36
:1037D00042D922900A9EE475F00112180690092839
:1037E000E0FFEF20E10302397E900928E0FFEF13AC
:1037F00013543FFFEF5401FF900928E0FEEEC3137E
:10380000FEEE5401FEEE6FFFEF6044900AA0E4F07C
:10381000900928E0FFEF5402FFEF25E0FF90092810
:10382000E0FEEE54FBFEEE4FFF900928EFF090090A
:1038300023E4F0900925E0FFEF54EFFF900925EF16
:10384000F0900924E0FFEF54EFFF900924EFF0908F
:103850000A9EE0FEA3E0FFEF30E00302397E900A0B
:10386000A0E0FFEF121D04388600389D0138B40235
:1038700038CB0338E20438F90539300639370739CF
:1038800062080000397ED2C0900923E0FFEF4410A7
:10389000FF900923EFF0900AA0E004F022D2C2903A
:1038A0000923E0FFEF4420FF900923EFF0900AA0E6
:1038B000E004F022D2C1900923E0FFEF4480FF90A2
:1038C0000923EFF0900AA0E004F022D2DB90092354
:1038D000E0FFEF4440FF900923EFF0900AA0E004DE
:1038E000F022D2C3900923E0FFEF4408FF900923A0
:1038F000EFF0900AA0E004F022900924E0FFEF44EA
:1039000020FF900924EFF0900924E0FFEF4410FF1E
:10391000900924EFF090092374FFF0900925E0FF4F
:10392000EF4410FF900925EFF0900AA0E004F02288
:10393000900AA0E004F022900923E4F0900924E02A
:10394000FFEF54DFFF900924EFF0900924E0FFEF30
:1039500054EFFF900924EFF0127000900AA0E004E9
:10396000F022900928E0FFEF4408FF900928EFF0CB
:10397000900928E0FFEF54FDFF900928EFF022E0C6
:10398000900A67FF75F002121BD7E0FCA3E0FDEF81
:10399000900A5175F002021BD7F582E4340AF583D0
:1039A000E4F0746B2FF582E4340AF583E4F0900AB6
:1039B00059EF75F002021BD7900BE6E075F002900C
:1039C0000A59121BD7E0FCA3E0C39FEE6480F8EC19
:1039D000648098229EFEC3900BE8E09FEE6480F81E
:1039E000900BE7E06480982274552FF582E4340A46
:1039F000F58322900BE6E0FF75F002900A49021B66
:103A0000D7F583E4F0FFFEFDFCAB25AA24A923A88B
:103A100022C3021A8C900BE7E0FD900A6775F00252
:103A2000021BD7900BEAE0FFC3952A22F583E0043E
:103A3000F0744D2FF582E4340A22900BE6E024570F
:103A4000F582E4340AF58322900BE6E0246BF582DC
:103A5000E4340AF58322900BE9E0C3940374809464
:103A600080227D0A1217B1AD037C0012179F900BC4
:103A7000EFE0FD900A4922900BE6E0FF245DF5821D
:103A8000E4340A22E0FCA3E0FD75F002EF900A673F
:103A9000121BD7ECF0A3EDF022E5255529FFE52414
:103AA0005528FEE5235527FDE522552622900BEAF1
:103AB000E004F0227E00900CB6E0FCA3E0FD1217BB
:103AC0009F8EE78FE622E0FEA3E0C39DFFEE9C22DF
:103AD000900A66E0FF3395E0FE22A4FFE0C39FE575
:103AE000F06480F874809822900BE97401F02290C1
:103AF0000BE6E0FF244DF582E4340A22900A66E0EA
:103B0000FB3395E0FAFEEB22E0FF900BEBE0FEEFDB
:103B1000C39E229FEE6480F8EA64809822900BE5B1
:103B2000E0FF900CB4E022900AF7EEF0A3EFF090E3
:103B30000AF9ECF0A3EDF0900AFBEAF0A3EBF090A9
:103B40000AFBE0FEA3E0FF900AF7E0FCA3E0FDD350
:103B5000ED9FEC9E5003023C0D900AFBE0FEA3E0BB
:103B6000FF900AF7E0FCA3E0FDC3ED9FFDEC9EFC97
:103B7000E4121520900AFF121B9A900AFDE0FEA3A2
:103B8000E0FF900AF9E0FCA3E0FDC3ED9FFDEC9E91
:103B9000FCE4121520C004C005C006C0077F007EEB
:103BA000F07D7F7C45900AFF121B291212FCD00386
:103BB000D002D001D000121405900AFF121B9A9077
:103BC0000AFDE0FCA3E0FDE41215207B007AF07909
:103BD0007F7845121405900B03121B9A900B031269
:103BE0001B0D900AFF121B291212FC900B03121BD3
:103BF0009A900AFBE0FCA3E0FDE4121520900B0371
:103C0000121B29121207900B03121B9A22900AF71B
:103C1000E0FEA3E0FF900AFBE0FCA3E0FDC3ED9F04
:103C2000FDEC9EFCE4121520900AFF121B9A900AEC
:103C3000F9E0FEA3E0FF900AFDE0FCA3E0FDC3ED88
:103C40009FFDEC9EFCE4121520C004C005C006C018
:103C5000077F007EF07D7F7C45900AFF121B2912B2
:103C600012FCD003D002D001D000121405900AFF3C
:103C7000121B9A900AFDE0FCA3E0FDE41215207BE4
:103C8000007AF0797F7845121405900B03121B9A85
:103C9000900B03121B0D900AFF121B291212FC90AD
:103CA0000B03121B9A900AFBE0FCA3E0FDE4121543
:103CB00020900B03121B29121207900B03121B9A60
:103CC000900B03121BA60000000022900920E0FFC9
:103CD000EF30E714900920E0FFEF54FDFF9009203A
:103CE000EFF0900C60E4F022900C5FE0FF7E00C3E8
:103CF000EF94FFEE648094805006900C5FE004F037
:103D0000900920E0FFEF20E203023DB2900C60E05A
:103D1000FF7E00D3EF9400EE648094805003023D58
:103D2000AD900C60E0FF7E00C3EF9414EE648094CD
:103D300080507A900C5FE0FF7E00C3EF94C8EE6481
:103D40008094805050900928E0FFEF20E147900CCC
:103D500061E004F0900925E0FFEF4404FF9009259D
:103D6000EFF0900C61E0FF7E00D3EF9404EE6480EE
:103D700094804021900928E0FFEF4402FF90092839
:103D8000EFF0900C60E4F0900920E0FFEF54FEFFAC
:103D9000900920EFF0900C60E4F0900920E0FFEF34
:103DA00054FEFF900920EFF012108E8005900C60F9
:103DB000E4F0900920E0FFEF30E016900920E0FFEA
:103DC000EF54FEFF900920EFF0900C60E004F080CB
:103DD0001C900C60E0FF7E00D3EF94C8EE648094EA
:103DE000805079900920E0FFEF20E00122900C60E4
:103DF000E0FF7E00EF643C4E702B900925E0FFEF62
:103E00004402FF900925EFF0900920E0FFEF54DF16
:103E1000FF900920EFF0900920E0FFEF4440FF9071
:103E20000920EFF022900C60E0FF7E00EF64644E0A
:103E3000702A900925E0FFEF4410FF900925EFF06C
:103E4000900920E0FFEF4420FF900920EFF0900957
:103E500020E0FFEF54BFFF900920EFF022440B88D1
:103E600000000000410E29014404B0EDB883204158
:103E70000021004100A7004100030048095900004B
:103E8000000000000000420A9E0000410AA000411C
:103E90000AA100410AA800420AB10000420AA20099
:103EA00000410AA400410AA505420AA60000420AF0
:103EB000A9006E420AAB0032420AAD058C420AAF3D
:103EC0000460410A8700410A8800410A89005009BC
:103ED0007600000CE400C8037000FFFFFFFFFFFF47
:103EE000FF50098600000C4E00C8012C00FFFFFFA8
:103EF000FFFFFFFF6020099600000D48026C026C76
:103F000000000D48026C026C00000D48026C026C4F
:103F100000FFFFFFFFFFFFFF5009B6000008FC078E
:103F2000D003E800FFFFFFFFFFFFFF5809C60000B6
:103F300006A400780064000008FC0078006400FF1C
:103F4000FFFFFFFFFFFF42096B000042096D000009
:103F5000410C6300410C6400410C5B00420C5C00AE
:103F600000410C5E00410C5F00410C6000410C619F
:103F700000410C6200580A18E100E20FE326E43722
:103F8000E502E600E7F9E8F9E9F9EA05EB01EC03F7
:103F9000580A30E100E20FE326E437E502E600E7E5
:103FA000F9E8F9E9F9EA05EB01EC03410BF100410D
:103FB0000CBA00410A6D004109E800C10A440A0D2B
:103FC000AA5555AA440A1400000000440A0900003A
:103FD000000000900907E0FEA3E0FF7B017A097969
:103FE0000D122639900905E0FEA3E0FF7B017A0956
:103FF000791112263990090BE0FEA3E0FF7B017ACC
:10400000097915122639900909E0FEA3E0FF7B012A
:104010007A097919122639900921E0FFEF4402FF4D
:10402000900921EFF0900AA4E0FF7E00C3EF943CDA
:10403000EE648094805078900921E0FFEF4404FF03
:10404000900921EFF07F007E007DC87C429009112D
:10405000121B291214A26002500C9009667402F01F
:10406000A3741CF080497F007E007D967C439009FC
:1040700011121B291214A26002500C9009667401DF
:10408000F0A374E0F080287F007E007DFA7C4390EE
:104090000911121B291214A26002500B900966E448
:1040A000F0A374F0F08008900966E4F0A3E4F07FD8
:1040B000007E007D7A7C44900915121B291214A2FF
:1040C000600B4009900966E4F0A37401F0900AA423
:1040D000E0FF7E00C3EF943CEE6480948050079034
:1040E0000AA4E004F022900966E0FEA3E0FFD3EF0B
:1040F0009400EE9400401F900966E0FEA3E0FFEFFD
:1041000064FF7003EE64FF600D90096674FF75F044
:10411000FF121806800CD2C390096674FFF0A374D6
:10412000FFF0900920E0FFEF20E402C2C32212104A
:104130006612105E1263047BFF7A687991C003C037
:1041400002C0017B017A0079A8900D01121C03D0F6
:1041500001D002D00312671E7F00126E70124CF461
:10416000125E221270371263E443CF10900A63E0AC
:10417000FFEF20E703024241900A63E0FFEF547F24
:10418000FF900A63EFF012427E900B88121B9A7F19
:10419000007E007D007C00900B88121B29D3121A30
:1041A0008C50030242307F027E407D007C00900BE9
:1041B00088121B29C3121A8C701E900920E0FFEF91
:1041C0004480FF900920EFF0900920E0FFEF54FBBE
:1041D000FF900920EFF08066900B88121B0DEF54C2
:1041E00002FFEE5400FEED5400FDEC5400FCEC4DDB
:1041F0004E4F601E900920E0FFEF4401FF90092020
:10420000EFF0900920E0FFEF54FBFF900920EFF062
:10421000802C900920E0FFEF4402FF900920EFF08E
:10422000900920E0FFEF54FBFF900920EFF0800E93
:10423000900920E0FFEF4404FF900920EFF01210F6
:1042400000125A45E5B720E510900B8CE0FF7E0088
:10425000EF645A4E6003024169900B8CE0FFEF540B
:10426000A5FF900B8CEFF07F011243C4900922E070
:10427000FFEF4402FF900922EFF00241692275101E
:104280000075180075170075160075150012106E70
:1042900050030243AE126C328F148E138D128C11A8
:1042A000750F00E50FC3952A5051AF14AE13AD1230
:1042B000AC117801121A9D8F148E138D128C11304F
:1042C000D7357F017E007D007C00AB0F744F2BF54E
:1042D00082E4340AF583E0F9A801121AB0E5184F18
:1042E000FFE5174EFEE5164DFDE5154CFC8F188ECB
:1042F000178D168C150510050F80A8AF107E00C312
:10430000EF9402EE64809480401ED208AF107E00CD
:10431000C3EF9403EE648094804005121076800809
:1043200012702CEF6002C20820082C7F007E007DF6
:10433000007C00AB18AA17A916A815C3121A8C6026
:104340000C900A64E475F0011218068020900A644B
:10435000E4F0A3E4F08016900A61E475F00112180D
:104360000675180075170075160075150012700B8C
:10437000900A64E0FCA3E0FDD3ED9FEC9E400B129D
:104380001076900A64E4F0A3E4F0900A61E0FEA3E2
:10439000E0FFD3EF942CEE94014020121076900AA7
:1043A0006D7401F0900A61E4F0A3E4F0800D907068
:1043B000FBE493FE740193FF1244FAAF18AE17ADFD
:1043C00016AC1522900E33EFF0900E33E0FF7E0016
:1043D000EF4E7074900961E0FFEF30E1030244F9A1
:1043E000900968121BE3900BA17414F07F007E000B
:1043F00012539B7E00EF4E60030244F9900968124D
:104400001BE3900BA17414F07F007E0012539B7E7F
:1044100000EF4E60030244F9900968121BE3900B11
:10442000A17414F07F007E0012539B7E00EF4E605B
:10443000030244F9900968121BE3900BA17414F075
:104440007F007E0012539B22900E33E0FF7E00EF30
:1044500064014E707E900961E0FFEF30E103024499
:10446000F9900968121BE3758202758300E475F008
:10447000011218CD900968121BE3900BA17414F07F
:104480007F007E0212539B7E00EF4E706C90096895
:10449000121BE3900BA17414F07F007E0212539B59
:1044A0007E00EF4E7053900968121BE3900BA174CD
:1044B00014F07F007E0212539B7E00EF4E703A9004
:1044C0000968121BE3900BA17414F07F007E0212A6
:1044D000539B22900968121BE3758202758300E4E6
:1044E00075F000121939900968121BE3900BA17442
:1044F00014F07F007E0212539B22900BE5EFF090A8
:104500000CBA123A59403EE4F0900A6DE0702B90DC
:104510000BE6F0900BE6E0C3952A501EE0FF123A3E
:104520001AE0FCA3E0FD75F002EF1239FBECF0A3FA
:10453000EDF0900BE6E004F080D9126B1CC209E4A8
:10454000900A6DF022900CB4E004F0123B1DB50708
:1045500008126FD7E4900CB5F0123B1DD39F5003A7
:1045600002462BE4900BE6F0900BE6E0C3952A5050
:104570007A12397F123AC6AD07FC900A6DE0702EB0
:10458000123AFC7802C333CE33CED8F9FFD3ED1202
:1045900039CA4046E49BFFE49AFEEF7802C333CE6B
:1045A00033CED8F9FFC3ED1239CA502E803D123AEE
:1045B000FC7803C333CE33CED8F9FFD3ED1239CA1A
:1045C0004018E49BFFE49AFEEF7803C333CE33CE6A
:1045D000D8F9FFC3ED1239CA4011900BE6E0FF1283
:1045E0005018900BE6E004F0024568900BE6E0B549
:1045F0002A06900CB5E004F0900BE5E0FD75F0089C
:10460000900CB4123ADA4023E4F0C208900CBAE0FD
:1046100004F0ED75F004900CB5123ADA400DE49018
:104620000CBAF0126E8F126B1CC20922900BA912E9
:104630001C03900BACE4F0A3E4F0900BAE74FFF01D
:10464000A374FFF0900BB0E4F0A3E4F0900BB2E49D
:10465000F0A3E4F0900BB4E4F0900BB4E0FF7E0024
:10466000C3EF940AEE6480948040030246F9900BF5
:10467000A9121BE3900BB4E0FF75F002EFA4F582E2
:1046800085F08312185DFFAEF0900BB2EEF0A3EF51
:10469000F0900BACE0FEA3E0FF900BB2E0FCA3E0D7
:1046A000FDD3ED9FEC9E4010900BB2E0FEA3E0FF27
:1046B000900BACEEF0A3EFF0900BAEE0FEA3E0FFAA
:1046C000900BB2E0FCA3E0FDC3ED9FEC9E50109078
:1046D0000BB2E0FEA3E0FF900BAEEEF0A3EFF09084
:1046E0000BB2E0FEA3E0FF900BB0EE8FF0121806C5
:1046F000900BB4E004F0024659900BB0E0FEA3E04A
:10470000FF900BAEE0FCA3E0FDC3EF9DFFEE9CFE2F
:10471000900BB0EEF0A3EFF0900BB0E0FEA3E0FF43
:10472000900BACE0FCA3E0FDC3EF9DFFEE9CFE9080
:104730000BB0EEF0A3EFF0900BB0E0FEA3E0FFEFC4
:104740007803CEC313CE13D8F9FF900BB0EEF0A3CD
:10475000EFF0900BB0E0FEA3E0FF22900DA2EEF090
:10476000A3EFF0900DA4EDF0900DA4E0FFEF121D6B
:1047700004477B0047F10100004883900DA2E0FE52
:10478000A3E0FFEEFF7E00EF540FFF90095BEFF018
:1047900090095BE0FFEF90711D93FF90095BEFF0D4
:1047A000900DA2E0FEA3E0FFEEC4F854F0C868FE4E
:1047B000EFC4540F48FFEF540FFF90095CEFF090E7
:1047C000095CE0FFEF90711D93FF90095CEFF090A2
:1047D0000DA2E0FEA3E0FFEF540FFF90095DEFF0A4
:1047E00090095DE0FFEF90711D93FF90095DEFF080
:1047F00022900DA2E0FEA3E0FFD3EF94E7EE940336
:10480000400A900DA27403F0A374E7F0900DA2E0AB
:10481000FEA3E0FF7C007D641217B190095BEFF00E
:1048200090095BE0FFEF90711D93FF90095BEFF043
:10483000900DA2E0FEA3E0FF7C007D0A1217B17C80
:10484000007D0A1217B1AF0590095CEFF090095C8A
:10485000E0FFEF90711D93FF90095CEFF0900DA2C7
:10486000E0FEA3E0FF7C007D0A1217B1AF059009BE
:104870005DEFF090095DE0FFEF90711D93FF9009EF
:104880005DEFF022900D4BEFF0900D4CEDF0900DA0
:104890004DEBF0900D86E0FF7E00EF64024E70035A
:1048A0000249A6900D4BE0FFEF14FFEF5403FF9079
:1048B0000D83E0FEEE54FCFEEE4FFF900D83EFF013
:1048C000900D4EE0FFEF543FFFEF25E025E0FF9015
:1048D0000D83E0FEEE5403FEEE4FFF900D83EFF0EC
:1048E000900D4CE0FF900D85EFF0900D4DE0FF90A6
:1048F0000D86EFF0900D85E0FF7E00EF64014E70B5
:104900003A900D83E0FFEF5403FFEF2404FFA80764
:104910007401088002C333D8FCFF900D50EFF09073
:104920000D83E0FFEF5403FFA8077401088002C362
:1049300033D8FCFF900D4FEFF08038900D83E0FFEF
:10494000EF5403FFA8077401088002C333D8FCFFAB
:10495000900D50EFF0900D83E0FFEF5403FFEF2434
:1049600004FFA8077401088002C333D8FCFF900D30
:104970004FEFF0900D86E0FF7E00EF4E7013900930
:1049800023E0FF900D50E0FEEF4EFF900923EFF083
:1049900022900923E0FF900D50E0FEEEF4FEEF5E62
:1049A000FF900923EFF022900E32E4F0900D86E0A4
:1049B000FF7E00EF64024E6003024AA5900D83E083
:1049C000FFEF1313543FFFEF543FFF7E00D3EF94EC
:1049D00000EE648094805003024AA0900D83E0FFB3
:1049E000EF1313543FFEEF5403FFEE14FEEE543F5B
:1049F000FEEE25E025E0FEEE4FFF900D83EFF090F8
:104A00000D83E0FFEF1313543FFFEF543FFFEF75AB
:104A1000F00584AFF07E00EF4E6003024AA5900DD2
:104A200085E0FF7E00EF64014E7020900D83E0FF73
:104A3000EF5403FFEF2404FFA8077401088002C3AA
:104A400033D8FCFF900E32EFF0801A900D83E0FF18
:104A5000EF5403FFA8077401088002C333D8FCFF9A
:104A6000900E32EFF0900E32E0FF900923E0FEEE60
:104A70005FFFEF6017900923E0FF900E32E0FEEE3B
:104A8000F4FEEF5EFF900923EFF08019900923E018
:104A9000FF900E32E0FEEF4EFF900923EFF080050D
:104AA000900D86E4F0900924E0FFEF30E504D29207
:104AB0008002C292900924E0FFEF30E403D29022FA
:104AC000C29022900E34E4F0900928E0FFEF20E13C
:104AD00009900928E0FFEF30E363900BF1E0FF0459
:104AE000F07E00D3EF94C8EE648094804005900B74
:104AF000F1E4F0900BF1E0FF7E00C3EF9464EE640C
:104B0000809480501C90090D121B0D121559126FC4
:104B100097900E34E0FFEF4440FF900E34EFF080AA
:104B200028900911121B0D121559126F97900E340F
:104B3000E0FFEF54BFFF900E34EFF0800C90090DB2
:104B4000121B0D121559126F97900923E0FFEF30D9
:104B5000E514900E34E0FFEF54CFFFEF4410FF90C8
:104B60000E34EFF0802B900923E0FFEF30E114903A
:104B70000E34E0FFEF54CFFFEF4420FF900E34EFF0
:104B8000F0800E900E34E0FFEF54CFFF900E34EF24
:104B9000F0900923E0FFEF30E414900E34E0FFEFD3
:104BA00054FCFFEF4401FF900E34EFF0802B90098E
:104BB00023E0FFEF30E014900E34E0FFEF54FCFFF1
:104BC000EF4402FF900E34EFF0800E900E34E0FFC1
:104BD000EF54FCFF900E34EFF0900E34E0FF229083
:104BE0000920E0FFEF30E714900920E0FFEF54FDCB
:104BF000FF900920EFF0900C5EE4F022900920E095
:104C0000FFEF30E123900920E0FFEF54FDFF900912
:104C100020EFF0900920E0FFEF54FEFF900920EF15
:104C2000F0900C5EE004F022900920E0FFEF20E21B
:104C300003024CF3900C5EE0FF7E00D3EF9400EE95
:104C4000648094805003024CEE900C5EE0FF7E0086
:104C5000C3EF940AEE648094804003024CEE900906
:104C600020E0FFEF30E521900920E0FFEF54DFFF67
:104C7000900920EFF012621C900921E0FFEF442020
:104C8000FF900921EFF08052900920E0FFEF30E61D
:104C90004990092CE0FEA3E0FFEF4E701990092C1B
:104CA000E4F0A37401F0900D4EE4F07B007D017FF1
:104CB00001124884801690092CE4F0A3E4F0900DD2
:104CC0004EE4F07B007D017F02124884900925E0CC
:104CD000FFEF4402FF900925EFF0900C5EE4F090A6
:104CE0000920E0FFEF54FDFF900920EFF022900C27
:104CF0005EE4F022900968121BE3900BE07414F05C
:104D0000900BE17402F07F007E007D007C00125960
:104D1000AD7E00EF4E701D900968121BE3900BE012
:104D20007414F0900BE17402F07F007E007D007C33
:104D3000001259AD900968121BE375820275830059
:104D400012185DFFAEF0C3EF94FFEE94FF50169083
:104D50000961E0FFEF54FDFF900961EFF07F007EF5
:104D60000012651022900968121BE3900BE0741486
:104D7000F0900BE17402F07F007E027D007C001257
:104D800059AD7E00EF4E701D900968121BE3900B29
:104D9000E07414F0900BE17402F07F007E027D005D
:104DA0007C001259AD900968121BE375820275836D
:104DB0000012185DFFAEF0C3EF94FFEE94FF5016A3
:104DC000900961E0FFEF4402FF900961EFF07F007E
:104DD0007E0212651022900961E0FFEF54FDFF9002
:104DE0000961EFF07F007E021265107E007F047D76
:104DF00000900968121BE3121D30900922E0FFEFBA
:104E00004440FF900922EFF022900C28121B9AE5F3
:104E100098542FFF900C30E0FEEF4EFF900C32E0E4
:104E2000FEEF4EF598900C30E0FF7E00EF4E7037AD
:104E30007F007E007D007C00900C2C121B29C31289
:104E40001A8C70065398DF024F107F017E007D00A0
:104E50007C00900C2C121B29C3121A8C6003024F89
:104E600010439820024F10E5C854CFFF900C31E05A
:104E7000FEEF4EF5C8900C31E0FF7E00EF4E704122
:104E8000900C2C121B29900C28121B0D1219AF7BB1
:104E9000007A01790078001219AF8F8D900C2C12D6
:104EA0001B29900C28121B0D1219AFEF54FFFFEEB7
:104EB0005400FEED5400FDEC5400FC8F8BC28E803C
:104EC0004F900C31E0FF7E00EF64304E704275CEA3
:104ED00002900C2C121B29900C28121B0D1219AFDA
:104EE0007B007A01790078001219AF8FCB900C2CDF
:104EF000121B29900C28121B0D1219AFEF54FFFF43
:104F0000EE5400FEED5400FDEC5400FC8FCAD2CAF2
:104F1000D2AC22C0E0C0F0C083C082C0D075D00047
:104F2000C000C001C002C003C004C005C006C00765
:104F30007F007E83126E2C126C8F90094DE475F009
:104F40000112180690094FE004F0900950E004F0B7
:104F5000900951E004F0900951E0FFEF75F00584ED
:104F6000AFF07E00EF4E7013900929E0FFEF441080
:104F7000FF900929EFF0900951E4F0900950E0FF0B
:104F8000EF75F03284AFF07E00EF4E701390092978
:104F9000E0FFEF4404FF900929EFF0900950E4F09E
:104FA00090094DE0FEA3E0FF7C037DE81217B1ED10
:104FB0004C7016900929E0FFEF4408FF900929EF93
:104FC000F090094DE4F0A3E4F090094FE0FFEF7595
:104FD000F06484AFF07E00EF4E7013900929E0FF7B
:104FE000EF4401FF900929EFF090094FE4F01233EC
:104FF000D3900929E0FFEF30E403125913D007D012
:1050000006D005D004D003D002D001D000D0D0D03B
:1050100082D083D0F0D0E032900BE7EFF0F9123974
:105020007F123AC6900BE8F0A3EFF0AF01126A21AD
:10503000AD07AC06900BE8E0FEA3E0FFD39DEC6467
:1050400080F8EE6480985014C3E49DFBE49CFAC39E
:10505000EF9BEA6480F8EE648098500E900BE7E0D6
:10506000FF123990123A840250FCECA2E713FEEDD5
:1050700013FF900BE8E0FAA3E0FBD3123B135016AA
:10508000ECA2E713FEED13FFC3E49FFFE49EFEC313
:10509000EB123B135023123A15E0FAA3E0FBEAC3EC
:1050A00013FEEB13FFC3EB9FFBEA9EFAED12399060
:1050B000E0C313FEA3E0138032123A15E0FAA3E036
:1050C000FBAE027803CEC313CE13D8F9FFC3EB9F18
:1050D000FBEA9EFA75F002ED900A51121BD7E0FE32
:1050E000A3E07803CEC313CE13D8F92BFFEA3EFE1C
:1050F000900BE7E0123A1AEEF0A3EFF0900BE712F4
:10510000397FECF0A3EDF022900DFFEFF0900E0050
:10511000E4F053DCF843DC02E58E54C0FF7E00EF80
:1051200064404E7045900DFFE0FF7E00EF64804EBE
:10513000601D900DFFE0FF7E00EF64404E60109018
:105140000DFFE0FF7E00EF64084E60030251E09027
:105150000DFFE0FFEF55C5FFEF6008900E007401F2
:10516000F0807D900E00E4F08076E58E54C0FF7EE6
:1051700000EF64804E7043900DFFE0FF7E00EF640F
:10518000804E701B900DFFE0FFEF55C5FFEF6008EC
:10519000900E007401F08048900E00E4F080419081
:1051A0000DFFE0FFEF55C4FFEF6008900E007401A3
:1051B000F0802D900E00E4F08026E58E54C0FF7E36
:1051C00000EF64C04E7019900DFFE0FFEF55C4FF73
:1051D000EF6008900E007401F08005900E00E4F07E
:1051E000900E00E0FF22900E36E599F0900BF2E071
:1051F000FF7E00EF4E7034900E36E0FF7E00EF64CD
:10520000A54E701C900E36E0FF900BF4EFF0900E60
:1052100036E0FF900BF3E02FF0900BF2E004F02269
:10522000900BF2E4F0900BF3E4F022900BF2E0FF2D
:105230007E00EF64074E7062900BF3E0FF900E3635
:10524000E0FEEE6F7049900BF6E0FF7E00D3EF9426
:1052500000EE648094804010900921E0FFEF4480CC
:10526000FF900921EFF0800E900921E0FFEF547FBD
:10527000FF900921EFF0900928E0FFEF54FEFF9026
:105280000928EFF0900BF2E4F0900BF3E4F0229099
:105290000BF2E4F0900BF3E4F022900E36E0FF9076
:1052A0000BF2E0FE74F42EF582E4340BF583EFF09C
:1052B000900BF2E004F0900E36E0FF900BF3E02F3D
:1052C000F0227B027D047F001235DF7B027D107FA0
:1052D000001235DF7B017D207F001235DF7B027DF0
:1052E000087F051235DF7B027D087F041235DF7BE6
:1052F000027D047F041235DF7B027D027F041235BC
:10530000DF7B027D017F041235DF7B027D807F031E
:105310001235DF7B027D207F031235DF7B027D109B
:105320007F031235DF7B027D087F031235DF7B02AE
:105330007D047F031235DF7B027D027F031235DFA0
:105340007B027D017F011235DF7B027D047F01122C
:1053500035DF7B027D107F011235DF7B027D207FF0
:10536000021235DF7B027D407F021235DF7B027D3A
:10537000807F021235DF7B027D017F001235DF7BEB
:10538000027D027F001235DF7B027D407F011235F6
:10539000DF7B027D407F031235DF22900B9CEEF015
:1053A000A3EFF0900B9E121C03900B9E121BE39038
:1053B0000BA4121C03900B9CE0FEA3E0FF900BA734
:1053C000EEF0A3EFF0900BA2E4F0900BA1E0FF90C1
:1053D0000BA2E0FEEEC39F507B900BA2E0FF7E008D
:1053E000900BA7E0FCA3E0FDEF2DFFEE3CFE900B41
:1053F000A4121BE3900BA2E0FD8D827583001216B0
:10540000E9FD1264AD900BA2E0FF7E00900BA7E0D7
:10541000FCA3E0FDEF2DFFEE3CFEE4FCFD900CFA5A
:105420007402F0126623900BA3EFF0900BA4121BF2
:10543000E3900BA2E0FF8F827583001216E9FF90C4
:105440000BA3E0FEEE6F60037F0022900BA2E0044E
:10545000F00253CA7F0122C2AF7B007D047F00129D
:1054600035DF7B007D107F001235DF7B007D087FFC
:10547000041235DF7B007D047F041235DF7B007D65
:10548000027F041235DF7B007D807F031235DF7BD6
:10549000007D207F031235DF7B007D107F031235F6
:1054A000DF7B007D087F031235DF7B007D047F03F7
:1054B0001235DF7B007D027F031235DF7B007D012B
:1054C0007F011235DF7B007D047F011235DF7B0019
:1054D0007D107F011235DF7B007D207F021235DFDA
:1054E0007B007D407F021235DF7B007D807F0212D2
:1054F00035DF7B007D017F001235DF7B007D027F81
:10550000001235DF7F011243C4D2AF22900E49EF63
:10551000F053DCF843DC02E58E54C0FF7E00EF64FC
:10552000404E7033900E49E0FF7E00EF64804E6085
:105530001A900E49E0FF7E00EF64404E600D900E21
:1055400049E0FF7E00EF64084E7073900E49E0FF63
:10555000EFF4FFEF52C522E58E54C0FF7E00EF64EA
:10556000804E7025900E49E0FF7E00EF64804E7003
:105570000C900E49E0FFEFF4FFEF52C522900E4968
:10558000E0FFEFF4FFEF52C422E58E54C0FF7E002F
:10559000EF64C04E7028900E49E0FF7E00EF640279
:1055A0004E600D900E49E0FF7E00EF64014E700EDC
:1055B000E5C454FCFF900E49E0FEEF4EF5C4229086
:1055C0000DF3EFF090091EE0FF7E00C3EF940FEEA5
:1055D00064809480400590091EE4F0900DF4E4F09E
:1055E00090091EE0FF900DF4E0FEEED39F50639013
:1055F0000DF4E0FF743E2FF582E43409F583E0FFFB
:10560000900DF3E0FEEE6F7041900DF3E0FF7E0031
:10561000EF64154E6034900DF3E0FF7E00EF6416EA
:105620004E6027900DF3E0FF7E00EF64174E601A86
:10563000900DF3E0FF7E00EF64184E600D900DF3C7
:10564000E0FF7E00EF64144E7024900DF4E004F04F
:10565000808E900DF3E0FF90091EE0FE743E2EF563
:1056600082E43409F583EFF090091EE004F0229003
:105670000921E0FFEF20E509900C5CE4F0A3E4F0E1
:1056800022900C5CE475F001121806900920E0FFEE
:10569000EF20E70302571D900C5CE0FEA3E0FFC380
:1056A000EF9470EE94175075900C5BE004F0900C42
:1056B0005BE0FF7E00D3EF9464EE64809480405DF5
:1056C000900925E0FFEF4408FF900925EFF09009CD
:1056D00020E0FFEF547FFF900920EFF07F00125D84
:1056E0009890092CE0FEA3E0FFEF4E701990092C72
:1056F000E4F0A37401F0900D4E741EF07B027D0166
:105700007F011248842290092CE4F0A3E4F0900D6C
:105710004E741EF07B027D017F02124884229009A4
:1057200029E0FFEF30E614900929E0FFEF54BFFFB6
:10573000900929EFF07F191255BF22900929E0FF47
:10574000EF30E414900929E0FFEF54EFFF900929AE
:10575000EFF07F141255BF22900929E0FFEF30E1EE
:1057600014900929E0FFEF54FDFF900929EFF07F25
:10577000151255BF22900929E0FFEF30E21490097D
:1057800029E0FFEF54FBFF900929EFF07F16125537
:10579000BF22900929E0FFEF30E014900929E0FFD3
:1057A000EF54FEFF900929EFF07F171255BF2290AA
:1057B0000929E0FFEF30E313900929E0FFEF54F7E8
:1057C000FF900929EFF07F181255BF22900DD8EFF6
:1057D000F0900DD9EDF0900DDAEBF0900DD8E0FFE0
:1057E000EF121D0457F400580202582403584A04CB
:1057F0000000586F900DD9E0FF900DDAE0FD126CBB
:105800000222900DD9E0FF7E00EF4E7004C2AD8001
:1058100002D2AD900DDAE0FF7E00EF4E7003C2BD04
:1058200022D2BD22900DD9E0FF7E00EF4E700553CD
:10583000A9BF800343A940900DDAE0FF7E00EF4E40
:10584000700453B9BF2243B94022900DD9E0FF7EC6
:1058500000EF4E700553A97F800343A980900DDAB5
:10586000E0FF7E00EF4E700453B97F2243B98022DF
:10587000900DC9EFF0900DCAEDF0900DC9E0FFEF6B
:1058800054F0FF7E00EF4E7042900DCAE0FF7E00A4
:10589000EF64014E7019900DC9E0FFEF540FFFA89F
:1058A000077401088002C333D8FCFFEF42D3229073
:1058B0000DC9E0FFEF540FFFA8077401088002C371
:1058C00033D8FCFFEFF4FFEF52D322900DC9E0FF75
:1058D000EF54F0FFEFC4540FF5CE900DC9E0FFEF89
:1058E00030E008900DCB7420F08006900DCB741042
:1058F000F0900DCAE0FF7E00EF64014E7009900D3C
:10590000CBE0FFEF42C922900DCBE0FFEFF4FFEFB9
:1059100052C922900923E0FF7E00EF4E7005C2B30A
:10592000C2B52212704B900924E0FFEF30E33F90A4
:105930000924E0FFEF54F7FF900924EFF0D2B3C23F
:10594000B5900923E0FFEF30E402C2B7900923E0ED
:10595000FFEF30E502C2B4900923E0FFEF30E6022A
:10596000C2B2900923E0FFEF30E741C2B1229009B3
:1059700024E0FFEF4408FF900924EFF0C2B3D2B552
:10598000900923E0FFEF30E002C2B7900923E0FF67
:10599000EF30E102C2B4900923E0FFEF30E202C22F
:1059A000B2900923E0FFEF30E302C2B122900BD99D
:1059B000121B9A900BDD121C03900BE4E5F4F0A28D
:1059C000AFE433FF900BE3EFF0900BE3E0FF7E00DA
:1059D000EF4E6002C2AF900BE1E0FF8FF4900BE25C
:1059E000E4F0900BD9121B0D8F828E83E493FF900D
:1059F0000BDD121BE3900BE2E0FE8E82758300EF5D
:105A000012177D900BD9121B0D7B017A007900785B
:105A100000121966900BD9121B9A900BE0E0FF90D0
:105A20000BE2E004FEF0EEC39F40B7900BE4E0FF12
:105A30008FF4900BE3E0FF7E00EF4E6002D2AF9058
:105A40000BE2E0FF2212571E125EABEF121D045A4A
:105A500066145A6A165A7D175A8A185A6219000033
:105A60005AD712545722121DE622124BDF123CCB9A
:105A700012566F1268D61263751231B12212294381
:105A8000125B681262911249A722900AA9E0FEA354
:105A9000E0FFC006C007900AADE0FCA3E0FD900A5D
:105AA000ABE0FAA3E0FB900AAFE0FEA3E0FF900AB0
:105AB000FDEEF0A3EFF0D007D006123B27122EFB2D
:105AC00012691B1237D3900921E0FFEF4410FF90B9
:105AD0000921EFF0123FD322900D9BEFF0900D9C27
:105AE000EDF0900D9BE0FF7E00C3EF941FEE64800D
:105AF00094805065900D9BE0FF7E007401A807081C
:105B00008005C333CE33CED8F9FF900D9DEEF0A3C0
:105B1000EFF0900D9CE0FF7E00EF4E7022900D9D07
:105B2000E0FEA3E0FFEFF4FFEF52AB900D9DE0FE2F
:105B3000A3E0FFEEFF7E00EFF4FFEF52AC801A907F
:105B40000D9DE0FEA3E0FFEF42AB900D9DE0FEA3B4
:105B5000E0FFEEFF7E00EF42ACE5AD54E0FF900DBC
:105B60009BE0FEEF4EF5AD2290091DE0FF7E00C3E5
:105B7000EF940AEE64809480407C900A89E0FF7E76
:105B800000C3EF9405EE64809480501B900A89E076
:105B900004F0900A89E0FF7E00C3EE648094805098
:105BA0005590091DE4F022900A89740FF090091DA8
:105BB000E4F07B017A0879B512462C900905EEF0E5
:105BC000A3EFF07B017A0879C912462C900907EE01
:105BD000F0A3EFF07B017A0879DD12462C900909D9
:105BE000EEF0A3EFF07B017A0879F112462C9009D0
:105BF0000BEEF0A3EFF022900928E0FFEF30E34630
:105C000090092CE0FEA3E0FFEF4E701D90093A12C0
:105C10001B0DEF2458FFEE3402FEED3400FDEC3492
:105C200000FC90093A121B9A22900936121B0DEFC4
:105C30002458FFEE3402FEED3400FDEC3400FC90FD
:105C40000936121B9A2290092CE0FEA3E0FFEF4ECA
:105C5000701890093A121B0D7B017A0079007800C8
:105C600012196690093A121B9A22900936121B0DDE
:105C70007B017A0079007800121966900936121BB0
:105C80009A22900928E0FFEF30E34690092CE0FECD
:105C9000A3E0FFEF4E701D900932121B0DEF24A7F9
:105CA000FFEE3451FEED3401FDEC3400FC9009327E
:105CB000121B9A2290092E121B0DEF24A7FFEE341F
:105CC00051FEED3401FDEC3400FC90092E121B9ABC
:105CD0002290092CE0FEA3E0FFEF4E7018900932ED
:105CE000121B0D7B017A0079007800121966900969
:105CF00032121B9A2290092E121B0D7B017A007919
:105D000000780012196690092E121B9A22C2AF75F4
:105D1000FEC1AFFFD2AFEF5430FD7C00700479209C
:105D2000801CED64104C700479108012ED64204CDE
:105D3000700479088008ED64304C70027904E9241D
:105D4000F8601824F8602024F06028241C7030903B
:105D50000BE77401F0A374F4F08026900BE7740352
:105D6000F0A374E8F0801A900BE77407F0A374D0E6
:105D7000F0800E900BE7740FF0A374A0F08002E4A3
:105D8000F9900BE7E07002A3E0600C900BE774FF62
:105D9000F5F012180680EA22900D9FEFF0900DA109
:105DA000E4F0900D9FE0FF7E00EF4E7024900968B4
:105DB000121BE3900BE07414F0900BE17402F07F7F
:105DC000007E007D007C001259AD900DA0EFF080A8
:105DD0002F900D9FE0FF7E00EF64014E702290092E
:105DE00068121BE3900BE07414F0900BE17402F066
:105DF0007F007E027D007C001259AD900DA0EFF077
:105E0000900DA0E0FF7E00EF64144E6014900DA191
:105E1000E0FF04F07E00D3EF9403EE6480948050A2
:105E2000812275FE8543FF2053DB7FD2AFC209E498
:105E3000900CBBF0900A63F01265CAE4FF1268028E
:105E4000EF2401FDE433FC7E0F7FA01217B1900C0C
:105E5000B6EEF0A3EFF0E4FF126EAE123AB47F029A
:105E6000126802EFC454F0FEC006E4FF126802D0CC
:105E7000E02FF5E17F03126802E5E254804FF5E27E
:105E80007F04126802EF6008E5E254804480F5E286
:105E90007F011268028FE3126B1C43A910900A4F16
:105EA000E04480F5E81261A6026E8F90091FE0FFC2
:105EB0007E00C3EF940FEE64809480401D90091F14
:105EC000E4F090091FE0FF743E2FF582E43409F5F9
:105ED00083E0FF900E30EFF0804F90091EE0FF90BE
:105EE000091FE0FEEEC39F401290091FE4F09009E5
:105EF0001EE4F0900E3074FFF0802E90091FE0FF3A
:105F0000743E2FF582E43409F583E0FF900E30EF04
:105F1000F090091FE0FF743E2FF582E43409F58309
:105F200074FFF090091FE004F0900E30E0FF229023
:105F30000BEFEFF0126F69900BF0EFF0125FA4908F
:105F40000CB7E025E0FF900CB6E033FE7C00123A7F
:105F500062123993E0FAA3E0C39FEA9E5009900BC6
:105F6000F0E0603F14802D125FA4900CB6E0FEA319
:105F7000E0FF7C007D0712179F123A621239B2E0EF
:105F8000FAA3E0D39FEA9E401A900BF0E0FF647EF4
:105F90006011EF04FF745F2DF582E4340AF583EF9E
:105FA000F0D20922900BEFE0FF126EAEEFFB2290D1
:105FB0000DC6EFF0900DC7ECF0A3EDF0900DC6E02C
:105FC000FFEF540FFF7E00EF4E7039900DC774FF46
:105FD00075F0FF121806900DC6E0FFEF54F0FFE5D4
:105FE000D254CFFEEE4FF5D2900DC7E0FEA3E0FFF6
:105FF000EEFF7E008FD5900DC7E0FEA3E0FFEF54CB
:10600000FFF5D422900DC6E0FFEF540FF5CE900DB2
:10601000C6E4F0900DC7E0FEA3E0FFEEFF7E008F28
:10602000CB900DC7E0FEA3E0FFEF54FFF5CA22C0FE
:10603000E0C0F0C083C082C0D075D000C000C001F5
:10604000C002C003C004C005C006C0073099355364
:1060500098FD900E29E0FF7E00C3EF9407EE648068
:106060009480501B900E29E004F0900E29E0FF74FC
:10607000592FF582E43409F583E0FF8F998005906C
:106080000E29E4F03098065398FE1251E65398FD1D
:106090005398FED007D006D005D004D003D002D04C
:1060A00001D000D0D0D082D083D0F0D0E032900B9D
:1060B0008EEEF0A3EFF0900B90ECF0A3EDF0900BD0
:1060C00092EAF0A3EBF0900B8EE0FCA3E0FDE4126B
:1060D00015207B007AF0797F7845121405900B9497
:1060E000121B9A900B90E0FCA3E0FDEC121520909F
:1060F0000B94121B291212FCC004C005C006C00775
:10610000900B92E0FCA3E0FDEC121520A804A90579
:10611000AA06AB07D007D006D005D00412120B9008
:106120000B98121B9A900B98121B0D22900E2BEFBE
:10613000F0900E2BE0FF900019121BE3900015E089
:10614000FCA3E0FD8D828C83EF12177D900015E497
:1061500075F001121806900017E475F00112180688
:10616000900019121BE31216D0FF7E00EF64184E48
:106170006012900019121BE31216D0FF7E00EF642C
:10618000044E7008900015E4F0A3E4F0900015E0D0
:10619000FEA3E0FFC3EF9485EE9400400890001545
:1061A000E4F0A3E4F022900BE57420F0126DE2E439
:1061B000900BE6F0900BE6E0FFC3952A5021E0FE3D
:1061C000123990E0FCA3E0FD75F002EE1239FBEC11
:1061D000F0A3EDF0125F2F900BE6E004F080D59075
:1061E0000BE5E0FF14F0EF70C3126FD7127021902F
:1061F0000BE5EFF0126DE2E4900BE6F0900BE6E0B9
:10620000FFC3952A500B125018900BE6E004F08063
:10621000EB900BE5E0FF14F0EF70D9227F00124302
:10622000C490092CE0FEA3E0FFEF4E7032900932DB
:10623000121BA60000000090093A121BA6000000E5
:1062400000900D4EE4F07B017D017F0212488490A6
:106250000D4E7428F07B027D017F0212488422904B
:10626000092E121BA600000000900936121BA60082
:10627000000000900D4EE4F07B017D017F0112488B
:1062800084900D4E7428F07B027D017F01124884BA
:106290002290095974A5F090095A7408F0124AC363
:1062A00090095EEFF090095EE0FFEF5440FFEFC40D
:1062B000135407FF90095FE0FEEE54FDFEEE4FFF22
:1062C00090095FEFF0900960E4F0900E35E4F090F3
:1062D0000E35E0FF7E00C3EF9407EE64809480509B
:1062E0001F900E35E0FF74592FF582E43409F583D1
:1062F000E0FF900960E02FF0900E35E004F080CFD1
:106300007599A522D292D290D2B3D2B5C2B7C2B4F7
:10631000C2B2C2B17DD07C077F0212109E900929C3
:10632000E0FFEF30E0F743CF10900AA8E004F090D0
:106330000929E0FFEF54FEFF900929EFF0900AA829
:10634000E0FF7E00C3EF941EEE64809480501D90A9
:106350000AA8E0FF7E00C3EF9402EE6480948040C0
:10636000BC7D007C007F0212109E80B1C2B3C2B51A
:10637000C292C29022208518900920E0FFEF20E30E
:106380000F900920E0FFEF4408FF900920EFF02272
:10639000208534900920E0FFEF30E32B000000005F
:1063A00000000000000020850F900920E0FFEF446E
:1063B00010FF900920EFF022900920E0FFEF54F742
:1063C000FF900920EFF022900920E0FFEF54EFFF4B
:1063D000900920EFF0900920E0FFEF54F7FF9009BB
:1063E00020EFF0227E007F0A7D007B017A09792070
:1063F000121D307E007F147D007B017A09792A12FC
:106400001D307E007F0A7D007B017A097961121DB3
:10641000307E007F0C7D007B017A09794D121D30A2
:106420007B017A09792A900968121C03900928E0F7
:10643000FFEF54F7FF900928EFF0900920E0FFEFFD
:10644000547FFF900920EFF0227508007509007550
:106450000D02750C40750B00750A00750800AF0839
:106460007E00C3EF941FEE64809480503CAF0DAE6D
:106470000CAD0BAC0A7801121A9D8F0D8E0C8D0B92
:106480008C0A30D720AF09744F2FF582E4340AF517
:1064900083E508F00509AF097E00C3EF9402EE64BE
:1064A0008094805004050880B585092A22AB07AA8C
:1064B00006900BE5E5F4F0A2AFE433A3F0AFDFA361
:1064C000E4F0A3EFF0C2AF75F402AF058FF5EAF583
:1064D000F3AF038FF2AFF3EFFEADF27C00E42DECEF
:1064E0003EC39418501475F1F075F61043F602008F
:1064F00000000080050000000000900BE5E0F5F4CE
:10650000900BE7A3E0F5DF900BE6E024FF92AF22CB
:10651000AD07AC06900BE5E5F4F0A2AFE433A3F0D1
:10652000AFDFA3E4F0A3EFF0C2AF75F402ECF5F334
:10653000AF058FF2AFF3EFFEADF27C00E42DEC3E41
:10654000C39418501475F1F075F62043F60200005C
:10655000000080050000000000900BE5E0F5F490DD
:106560000BE7A3E0F5DF900BE6E024FF92AF22C239
:106570000C900CBBE0123990E5E5F0A3E5E4F09057
:106580000CBBE004F0E0C3952A400BE4F0900A63F2
:10659000E04480F08002D20C900CBBE0FF126EAEA3
:1065A000123AB4900CBBE0FF126F69E5E254804FE1
:1065B000F5E2900CBBE0244FF582E4340AF583E069
:1065C0004480F5E8300C02D2EE229070F1E493FEA4
:1065D000740193FF900A48EFF090710BE493FE74FE
:1065E0000193FF900A66EFF0126449750E00E50E04
:1065F000C3952A5025AF0EEF75F008A42411F5823B
:10660000E43471F583E493FFAE0E745F2EF582E4FB
:10661000340AF583EFF0050E80D4900A64E4F0A309
:10662000E4F022900CF6121B9A900CFDE5F4F0A217
:10663000AFE433FF900CFCEFF0900CFCE0FF7E0029
:10664000EF4E6002C2AF900CFAE0FF8FF4900CF6B0
:10665000121B0D8F828E83E493FF900CFBEFF09062
:106660000CFDE0FF8FF4900CFCE0FF7E00EF4E602D
:1066700002D2AF900CFBE0FF22900DDEEEF0A3EF14
:10668000F0900DE0EDF0900DE0E0FF7E00EF4E7039
:1066900021900DDEE0FEA3E0FFEFF4FFEF52AB90A0
:1066A0000DDEE0FEA3E0FFEEFF7E00EFF4FFEF5211
:1066B000AC22900DDEE0FEA3E0FFEF42AB900DDEDA
:1066C000E0FEA3E0FFEEFF7E00EF42AC22900E2A38
:1066D000EFF0900E2AE0FF9001ADE0FCA3E0FD7426
:1066E000AF2DF58274013CF583EFF09001ADE475B8
:1066F000F0011218069001ADE0FEA3E0FFD3EF9485
:1067000000EE940240089001ADE4F0A3E4F0900E96
:106710002AE0FFEFB40D069001A87403F022900C5C
:10672000FE121C039085F0E493FF900D04EFF090AF
:106730001200121B19900D04E02FF09009E0740173
:10674000F09009E1E4F0A3E4F09009E3E4F0A3E4BD
:10675000F0900D01121BE39009E5121C03900CFE52
:10676000121BE3900A11121C0322900D8FEFF09080
:106770000D90ECF0A3EDF0900D92EBF0900D8FE00A
:10678000FF900D90E0FCA3E0FD12109E900D8FE0B5
:10679000FF900D92E0FD125870900D92E0FF7E0088
:1067A000EF64014E700F900D8FE0FFEFC4540FFFA8
:1067B0007D0112695E22900E0FEFF0900E10EDF049
:1067C000900E0FE0FF7E00EF4E7005538EFE80109E
:1067D000900E0FE0FF7E00EF64014E7003438E01C8
:1067E000900E10E0FF7E00EF64014E70045389FBB1
:1067F00022900E10E0FF7E00EF64024E700343898A
:106800000422900E3AEFF0900E3AE0FFEF121D04D2
:10681000682300682A01683102683803683E040072
:1068200000684990710DE493FF2290710EE493FF8C
:106830002290710FE493FF227F00126F6922907003
:10684000FFE493FE740193FF227F0022C0E0C0F0BA
:10685000C083C082C0D075D000C000C001C002C0DB
:1068600003C004C005C006C007126BCB7F011255E0
:106870000C7F0212550CD007D006D005D004D003EF
:10688000D002D001D000D0D0D082D083D0F0D0E0E0
:1068900032900E2CEFF0900004E0FFEF121D046820
:1068A000B20068B20168BB0268C40368B2040000A9
:1068B00068CD900E2CE0FF1266CD22900E2CE0FFEA
:1068C00012612C22900E2CE0FF1266CD22900E2C2D
:1068D000E0FF1266CD22900920E0FFEF30E2089041
:1068E0000C62E004F08005900C62E4F0900C62E031
:1068F000FF7E00D3EF94C8EE64809480401C900922
:1069000020E0FFEF54BFFF900920EFF0900920E056
:10691000FFEF54DFFF900920EFF022900922E0FF03
:10692000EF30E639900AA2E475F001121806D2C2DF
:10693000D2C0D2C1D2C3900AA2E0FEA3E0FFD3EF3F
:106940009484EE94034016C2C2C2C0C2C1C2C390B6
:106950000922E0FFEF4440FF900922EFF022900E61
:1069600007EFF0900E08EDF0900E07E0FF7E00EFCD
:106970004E7013900E08E0FF7E00EF4E600443D28D
:10698000802253D27F22900E07E0FF8FCE900E0818
:10699000E0FF7E00EF4E600443C8042253C8FB2290
:1069A000900D7BEFF0900D7C121C03900D7BE0FFAF
:1069B00090000DEFF09000117403F0A374E8F090D4
:1069C0000D7C121BE3900019121C03900015E4F0DB
:1069D000A3E4F0900017E4F0A3E4F090000FE4F0DB
:1069E000227B017D017F021235DF7B017D027F0268
:1069F0001235DF900C2C121BA600002580900C3065
:106A00007440F0900C31E4F0900C327410F07F0080
:106A10007E487DE87C01124E097D007F01126D13D6
:106A200022900E37EFF0900E37E0FFEF75F008A4DC
