:10000000021100300003021003210330000302102C
:100010000B210B30000302101321133000030210D8
:100020001B211B3000030210232123300003021088
:100030002B212B3000030210332133300003021038
:100040003B213B30000302104321433000030210E8
:100050004B214B3000030210532153300003021098
:100060005B215B3000030210632163300003021048
:100070006B216B30000302107321733000030210F8
:100080007B217B30000302108321833000030210A8
:100090008B218B3000030210932193300003021058
:1000A0009B219B3000030210A321A3300003021008
:0300B000AB21ABD6
:10100000D2EE2202102EC284D28222024B1FC29440
:10101000D2A522021036D294C2A52202103AC2A64C
:10102000D2A722027228C280D281220210425388A3
:10103000FD322202103E5388F7323202104A53AD7D
:10104000DF32320210521278EC223202105A1200B1
:101050000022320210617520FF2232027420A209A0
:10106000223232025794D2092232320210627F01B8
:0E107000223232021069AF9922323202106A27
:03108300021071E7
:03108B00021072DE
:03109300021079CF
:10109B0002107A900D51EFF0900D52ECF0A3EDF0A1
:1010AB00900D51E0FFEF54F0FF7E00EF4E70225396
:1010BB00D2FD900D52E0FEA3E0FF900D51E0FDED4F
:1010CB0025E02440F582E43420F583EEF0A3EFF025
:1010DB0022900D52E0FEA3E0FF900D51E0FDED5488
:1010EB000FFDED25E02434F582E43420F583EEF09A
:0410FB00A3EFF0224D
:1011000078FFE4F6D8FD9000007F007E01E4F0A3B4
:10111000DFFCDEFA75812A02115502429DE493A399
:10112000F8E493A34003F68001F208DFF48029E499
:1011300093A3F85407240CC8C333C4540F4420C8E5
:10114000834004F456800146F6DFE4800B0102047C
:101150000810204080903A89E47E019360BCA3FF90
:10116000543F30E509541FFEE493A360010ECF54B1
:10117000C025E060A840B8E493A3FAE493A3F8E4A0
:1011800093A3C8C582C8CAC583CAF0A3C8C582C80C
:10119000CAC583CADFE9DEE780BE900D1BEFF09081
:1011A0000D1CECF0A3EDF0900D1EEAF0A3EBF09017
:1011B0000D1BE0FFEF121BF211C80011D40111E06A
:1011C0000211EC03000011FF900D1CE0FEA3E0FFF4
:1011D00012761022900D1CE0FEA3E0FF127664222E
:1011E000900D1CE0FEA3E0FF12793D22900D1CE063
:1011F000FEA3E0FF900D1EE0FCA3E0FD1278D022DC
:1012000020230414EC4D6011E8497017ED33EC33E2
:1012100004600DE4FCFFFEFD22E933E8330470F8BE
:101220000214CD12149858046009E4CC24815006AD
:101230002850090214D72840030214D4C0E0EB4A16
:101240007044B98006D0E0FB0214C3EF4E701CBDA1
:101250008008EBFFEAFEE9FD80EBE98DF0A4FEE5F6
:10126000F00212EDE9CDF9EAFEEBFFEF89F0A4FC04
:10127000E5F0CE89F0A42EFFE435F0CD89F0A42D61
:10128000FEE435F08067EF4E7005BD80D780C3EF78
:101290008BF0A4ACF0EE8BF0A42CFCE435F0F8EF6E
:1012A0008AF0A42CE5F038FCE433CB8DF0A42CFCC0
:1012B000E5F03BF8EE8AF0A42CFCE5F038F8E433D6
:1012C000CF89F0A42CFCE5F038CF3400CE89F0A40F
:1012D0002FFFE5F03EFEE433C98DF0A42EFEE5F0CD
:1012E00039CD8AF0A42FFFE5F03EFEE43DFD33D07A
:1012F000E0FB50070BBB000F0214D7EC2CFCEF33C4
:10130000FFEE33FEED33FD0214AF0214D7EC5D04A3
:101310006005E8590470030214CD12149858046053
:10132000F6EC4860F2EC7004FDFEFF22C860DB249E
:1013300081C85009C398600250060214D49850CA5C
:10134000F582E9294B4A7005AB820214C375F0009F
:101350007C1A7880C3EF9BEE9AED99400DC3EF9B0A
:10136000FFEE9AFEED99FDE842F0DC23ACF0D0E010
:10137000FFD0E0FED0E0FDAB8220E7101BEB60BAAF
:10138000EC2CFCEF33FFEE33FEED33FD0214AFE83F
:1013900003F830E705C0F075F000EF2FFFEE33FEE5
:1013A000ED33FD40B830E7C280AA74F8CC6480CC3D
:1013B000C86480C8F58204604FC3EB9FF5F0EA9ED5
:1013C00042F0E99D42F0E89C45F0603C501DE5820A
:1013D0005FFFE582D313CB5BCBF42B5582FB502808
:1013E0000ABA002409B9002008801DE5825BFBE5EC
:1013F00082D313CF5FCFF4C3132F5582FF50090E52
:10140000BE00050DBD00010CC3EB9FF5F0EA9E4246
:10141000F0E99D42F0E89C45F06007CC4820E701E8
:10142000B3EC2275F020800E75F010800575F00881
:101430007D007E007F003392D530D503121970EC09
:10144000334010EF33FFEE33FEED33FDEC33FCD5CC
:10145000F0ED22E5F0247EA2D513CC92E7CDCEFFAD
:1014600022EDD2E7CD33EC3392D524814006E4FF60
:10147000FEFDFC22FCE4CFCECDCC24E0501174FF65
:1014800080EDC3CC13CCCD13CDCE13CECF13CF0470
:1014900070F030D5DE021970E9D2E7C933E833F8CD
:1014A00092D5EDD2E7CD33EC33FC5002B2D522EC2D
:1014B00030E7100FBF000C0EBE00080DBD00040B7E
:1014C000EB6014A2D5EB13FCED92E7FD2274FFFC58
:1014D000FDFEFF22E480F8A2D574FF13FC7D80E4BA
:1014E00080EFE709F608DFFA8046E709F208DFFA3D
:1014F000803E88828C83E709F0A3DFFA8032E3091B
:10150000F608DFFA8078E309F208DFFA8070888253
:101510008C83E309F0A3DFFA806489828A83E0A3E5
:10152000F608DFFA805889828A83E0A3F208DFFA9E
:10153000804C80D280FA80C680D4806980F280336B
:10154000801080A680EA809A80A880DA80E280CA33
:10155000803389828A83ECFAE493A3C8C582C8CC1D
:10156000C583CCF0A3C8C582C8CCC583CCDFE9DE77
:10157000E7800D89828A83E493A3F608DFF9ECFA09
:10158000A9F0EDFB2289828A83ECFAE0A3C8C58228
:10159000C8CCC583CCF0A3C8C582C8CCC583CCDF7A
:1015A000EADEE880DB89828A83E493A3F208DFF92C
:1015B00080CC88F0EF60010E4E60C388F0ED24020D
:1015C000B4040050B9F582EB2402B4040050AF23F8
:1015D0002345822390153273BB010689828A83E0FA
:1015E000225002E722BBFE02E32289828A83E4932F
:1015F00022BB010CE58229F582E5833AF583E022DE
:101600005006E92582F8E622BBFE06E92582F8E2CB
:1016100022E58229F582E5833AF583E49322BB0132
:101620000989828A83F8E028F022500327F722BB39
:10163000FE05F8E328F3228A838982F8E4932822BE
:10164000BB010FF8E58229F582E5833AF583E028AE
:10165000F0225009C58229F8E58226F622BBFE0950
:10166000C58229F8E22582F222F8EA2583F583E98A
:10167000932822BB010689828A83F0225002F72236
:10168000BBFE01F322F8BB010DE58229F582E5835B
:101690003AF583E8F0225006E92582C8F622BBFE1F
:1016A00005E92582C8F222EF8DF0A4A8F0CF8CF0D6
:1016B000A428CE8DF0A42EFE22BC000BBE0029EF84
:1016C0008DF084FFADF022E4CCF875F008EF2FFF29
:1016D000EE33FEEC33FCEE9DEC984005FCEE9DFEF7
:1016E0000FD5F0E9E4CEFD22EDF8F5F0EE8420D23E
:1016F0001CFEADF075F008EF2FFFED33FD400798AD
:101700005006D5F0F222C398FD0FD5F0EA22C5F0BD
:10171000F8A3E028F0C5F0F8E58215827002158381
:10172000E038F022A3F8E0C5F025F0F0E58215825C
:1017300070021583E0C838F0E822BB010A89828A6A
:1017400083E0F5F0A3E022500687F009E71922BBF9
:10175000FE07E3F5F009E3192289828A83E493F511
:10176000F074019322BB0110E58229F582E5833AEA
:10177000F583E0F5F0A3E0225009E92582F886F030
:1017800008E622BBFE0AE92582F8E2F5F008E2222B
:10179000E5832AF583E993F5F0A3E99322BB0107DA
:1017A00089828A8302170E500B09C5F027F7C5F00E
:1017B0001937F722BBFE0D09F8E325F0F3C5F01940
:1017C000E338F322F889828A8374019325F0C5F007
:1017D000F8E4933822BB010DC58229C582C5833A3E
:1017E000C58302170E5011C58229F808E5F026F6C8
:1017F00018F5F0E58236F622BBFE11C58229F808FD
:10180000E225F0F5F0F218E23582F222F8E58229BD
:10181000F582E5832AF58374019325F0F5F0E493CE
:101820003822BB010A89828A83F0E5F0A3F02250B6
:1018300006F709A7F01922BBFE06F3E5F009F31934
:1018400022F8BB0111E58229F582E5833AF583E8A8
:10185000F0E5F0A3F0225009E92582C8F608A6F0C9
:1018600022BBFE09E92582C8F2E5F008F222EF2B3F
:10187000FFEE3AFEED39FDEC38FC2275F00875827A
:1018800000EF2FFFEE33FECD33CDCC33CCC582330A
:10189000C5829BED9AEC99E58298400CF582EE9B0F
:1018A000FEED9AFDEC99FC0FD5F0D6E4CEFBE4CD2D
:1018B000FAE4CCF9A88222B800C1B90059BA002DC7
:1018C000EC8BF084CFCECDFCE5F0CBF97818EF2F80
:1018D000FFEE33FEED33FDEC33FCEB33FB10D703AF
:1018E000994004EB99FB0FD8E5E4F9FA227818EF58
:1018F0002FFFEE33FEED33FDEC33FCC933C910D7B7
:10190000059BE99A4007EC9BFCE99AF90FD8E0E4C3
:10191000C9FAE4CCFB2275F010EF2FFFEE33FEED99
:1019200033FDCC33CCC833C810D7079BEC9AE89969
:10193000400AED9BFDEC9AFCE899F80FD5F0DAE44B
:10194000CDFBE4CCFAE4C8F922EF5BFFEE5AFEEDE2
:1019500059FDEC58FC22EF6BFFEE6AFEED69FDECE1
:1019600068FC22CFF4CFCEF4CECDF4CDCCF4CC2293
:10197000C3E49FFFE49EFEE49DFDE49CFC22EB9FFC
:10198000F5F0EA9E42F0E99D42F0EC6480C8648084
:101990009845F022EB9FF5F0EA9E42F0E99D42F077
:1019A000E89C45F022E8600FECC313FCED13FDEE5C
:1019B00013FEEF13FFD8F122E8600FEFC333FFEE01
:1019C00033FEED33FDEC33FCD8F122BB010DE58293
:1019D00029F582E5833AF5830219FB5007E9258250
:1019E000F8021C4ABBFE07E92582F8021C56E58274
:1019F00029F582E5833AF583021A07E0FCA3E0FDAE
:101A0000A3E0FEA3E0FF22E493FC740193FD7402C3
:101A100093FE740393FF22E0F8A3E0F9A3E0FAA396
:101A2000E0FB22BB010DE58229F582E5833AF583CF
:101A3000021A175007E92582F8021C62BBFE07E96B
:101A40002582F8021C6FE58229F582E5833AF58349
:101A5000021C7C7401FF3395E0FEFDFCA3A3A3E010
:101A6000CF2FF0E582158270021583E0CE3EF0E5BF
:101A700082158270021583E0CD3DF0E582158270FB
:101A8000021583E0CC3CF022ECF0A3EDF0A3EEF0E5
:101A9000A3EFF022A8828583F0D083D082121AAB04
:101AA000121AAB121AAB121AABE473E493A3C583F8
:101AB000C5F0C583C8C582C8F0A3C583C5F0C5837A
:101AC000C8C582C822A42582F582E5F03583F58356
:101AD00022E0FBA3E0FAA3E0F922F8E0FBA3A3E0F5
:101AE000F925F0F0E582158270021583E0FA38F0EE
:101AF00022EBF0A3EAF0A3E9F022BB010789828A76
:101B000083021AD15005E9F8021C8CBBFE05E9F8E6
:101B1000021C9E89828A83021CB0BB011A89828AB8
:101B200083D0F0D0E0F8D0E0F9D0E0FAD0E0FBE8E4
:101B3000C0E0C0F0021AF15016E9F8D083D082D08C
:101B4000E0F9D0E0FAD0E0FBC082C083021C95BB74
:101B5000FE16E9F8D083D082D0E0F9D0E0FAD0E0E8
:101B6000FBC082C083021CA722BB010DE58229F5C0
:101B700082E5833AF583021AD15007E92582F802FB
:101B80001C8CBBFE07E92582F8021C9EE58229F524
:101B900082E5833AF583021CB0BB0120E58229F57A
:101BA00082E5833AF583D0F0D0E0F8D0E0F9D0E0D8
:101BB000FAD0E0FBE8C0E0C0F0021AF15018E925C5
:101BC00082F8D083D082D0E0F9D0E0FAD0E0FBC038
:101BD00082C083021C95BBFE18E92582F8D083D011
:101BE00082D0E0F9D0E0FAD0E0FBC082C083021CD2
:101BF000A722D083D082F8E4937012740193700D01
:101C0000A3A393F8740193F5828883E47374029319
:101C10006860EFA3A3A380DF8A838982E473EF4E19
:101C20006012EF60010EEDBB010B89828A83F0A385
:101C3000DFFCDEFA2289F05007F709DFFCA9F02269
:101C4000BBFEFCF309DFFCA9F022E6FC08E6FD0878
:101C5000E6FE08E6FF22E2FC08E2FD08E2FE08E2FA
:101C6000FF22E6FB08E6F908E6FA08E6CBF822E2EE
:101C7000FB08E2F908E2FA08E2CBF822E493F874F0
:101C80000193F9740293FA740393FB22E6FB08E6CE
:101C9000FA08E6F922EBF608EAF608E9F622E2FB92
:101CA00008E2FA08E2F922EBF208EAF208E9F22285
:101CB000E493FB740193FA740293F922900CB4122A
:101CC0001AF1900CB7E4F0A3E4F090000FE0FF7E6F
:101CD00000EF4E70407F4312749490000F7401F037
:101CE00090000E7401F0900013E4F0A3E4F0900073
:101CF00002E4F0900ABC121A940000000090000068
:101D0000E4F0A37401F09000A7E4F090001D121A13
:101D10009400000000900011E0FEA3E0FF9000138B
:101D2000E0FCA3E0FDD3ED9FEC9E4013900002E0A9
:101D300004F07F15127494900013E4F0A3E4F09083
:101D4000000FE0FF7E00EF64014E6003022163900C
:101D50000017E0FEA3E0FFC3EF9401EE94005003F0
:101D6000022163900019121AD11215D8FF7E00EFDC
:101D700064044E6003021EB6900CBAE4F0900CBAF4
:101D8000E0FF7E00C3EF94FFEE64809480504E909D
:101D90000CBAE0FF7E00C374FF9FFFE49EFE74B0A8
:101DA0002FF58274033EF583E0FF7E00EF64FF4E63
:101DB0007023900CBAE0FF7E00C374FF9FFFE49E87
:101DC000FE74AF2FF58274033EF583E0FF7E00EFD3
:101DD000641A4E6008900CBAE004F080A0900CBA2F
:101DE000E0FFEF2406FF900CBAEFF090001D1219EF
:101DF000FBC004C005C006C0077B017A0379B09020
:101E00000CBAE0FF7E00C3E49FFF74019EFEE4FC79
:101E1000FD900B6B121A88D007D006D005D00412A3
:101E2000634190001D121A88900CBBE4F0900CBB2B
:101E3000E0FF7E00C3EF9404EE64809480505390E2
:101E40000CBAE0FF7E00C3E49FFF74019EFE900C7D
:101E5000BBE0FD7C00EF2DFFEE3CFE74B02FF58261
:101E600074033EF583E0FB90001D1219FBEF6B60DD
:101E7000089000A77401F0801990001D1219FB78DA
:101E8000081219A590001D121A88900CBBE004F0EE
:101E9000809B900013E4F0A3E4F0900017E4F0A31B
:101EA000E4F090000E7402F090000F7402F07F06D0
:101EB0001274947F0122900019121AD11215D8FFC2
:101EC0007E00EF64184E7024900013E4F0A3E4F059
:101ED000900017E4F0A3E4F090000E7405F0900079
:101EE0000F7402F07F061274947F0322900017E0B3
:101EF000FEA3E0FFD3EF9485EE9400401B90001307
:101F0000E4F0A3E4F0900002E004F0900017E4F0A5
:101F1000A3E4F07F15127494900019121AD11215CF
:101F2000D8FF7E00EF64014E60030221639000172A
:101F3000E0FEA3E0FFEF64854E60030221639000A2
:101F400013E4F0A3E4F0900017E4F0A3E4F09000B1
:101F500019121AD17582017583001215F1FF7E00E6
:101F6000900000E0FCA3E0FD7C00ED6F7002EC6EE1
:101F70006003022157900002E4F0900000E0FEA30D
:101F8000E0FFC3EF9403EE9400402F90001D121960
:101F9000FBC004C005C006C0077B017A0379B0907E
:101FA0000B6B121A9400000080D007D006D005D029
:101FB0000412634190001D121A88900CBAE4F0904C
:101FC0000CBAE0FF7E00C3EF9480EE6480948050F2
:101FD00058900CBAE0FF74302FF582E43404F58396
:101FE000E0FF900CBAE0FE74B02EF582E43403F505
:101FF00083EFF0900CBAE0FF7E00EF2403FFEE3495
:1020000000FE900019121AD18F828E831215F1FFF3
:10201000900CBAE0FE74302EF582E43404F583EFC0
:10202000F0900CBAE004F08096900CB7E0FEA3E0CC
:10203000FFC006C007900019121AD1E92403F9EA7B
:102040003400FA900C50121A9400000080D007D08F
:1020500006125D6D900CB7EEF0A3EFF09000191230
:102060001AD17582837583001215F1FF7E00EF7F10
:1020700000FE900CB7E0FCA3E0FDC3ED9FFFEC9EDB
:10208000FE900019121AD17582847583001215F121
:10209000FD7C00C3EF9DFFEE9CFEEF4E600302212E
:1020A00049900000E0FEA3E0FFEF24FFFFEE34FFC5
:1020B000FE900CB4121AD1758201758300EE8FF078
:1020C000121841900CB4121AD1758203758300E482
:1020D00075F080121841900CB9E4F0900CB4121A0B
:1020E000D1758203758300121765FFAEF0900CB9AD
:1020F000E0FD7C00C3ED9FEC9E5042900CB9E0FFE8
:102100007E00EF2403FFEE3400FE900019121AD176
:102110008F828E831215F1FF900CB4121AD1758242
:1021200005758300121B69900CB9E0FE8E827583E1
:1021300000EF121685900CB9E004F0809E9000002C
:10214000E475F00112170E801A900002E02402F0EC
:102150007F15127494800C900002E02402F07F1529
:10216000127494900002E0FF7E00C3EF9419EE64B5
:1021700080948040267F181274947F181274947F84
:1021800018127494900017E4F0A3E4F090000E7419
:1021900005F090000F7402F07F03227F0022900A66
:1021A0004DE0FFEF20E115900A50E0FF7E00D3EFF5
:1021B0009400EE64809480500302228A9008B8E074
:1021C000FFEF4401FF9008B8EFF0900A50E0FFEFF6
:1021D00030E6099008B97401F0022262900A50E0DA
:1021E000FFEF30E7089008B97402F08075900A4D4F
:1021F000E0FFEF30E1089008B97403F08064900AC2
:1022000050E0FFEF30E0089008B9741FF080539061
:102210000A50E0FFEF30E1089008B97420F08042E6
:10222000900A50E0FFEF30E2089008B97421F08086
:1022300031900A50E0FFEF30E3089008B97422F0C3
:102240008020900A50E0FFEF30E4089008B9742332
:10225000F0800F900A50E0FFEF30E5069008B97467
:1022600024F0900A4DE0FFEF54FDFF900A4DEFF08F
:10227000900A50E4F09008BEE4F09008BAE4F0A3AD
:10228000E4F09008BCE4F0A3E4F09008B8E0FFEFBD
:1022900020E0030225F09008B9E0FF7E00EF640122
:1022A0004E70537B017A0879BFC003C002C0017B26
:1022B000017A0879BA900BFE121AF17B017A08793B
:1022C000BC900C01121AF17B017A0879BE900C04C3
:1022D000121AF1D001D002D0031230907E00EF64C8
:1022E000014E60030225F79008B8E0FFEF54FEFFAF
:1022F0009008B8EFF0229008B9E0FF7E00EF64028A
:102300004E70537B017A0879E7C003C002C0017B9D
:10231000017A0879BA900BFE121AF17B017A0879DA
:10232000BC900C01121AF17B017A0879BE900C0462
:10233000121AF1D001D002D0031230907E00EF6467
:10234000014E60030225F79008B8E0FFEF54FEFF4E
:102350009008B8EFF0229008B9E0FF7E00EF640328
:102360004E70537B017A09790FC003C002C0017B14
:10237000017A0879BA900BFE121AF17B017A08797A
:10238000BC900C01121AF17B017A0879BE900C0402
:10239000121AF1D001D002D0031230907E00EF6407
:1023A000014E60030225F79008B8E0FFEF54FEFFEE
:1023B0009008B8EFF0229008B9E0FF7E00EF641FAC
:1023C0004E70537B017A097947C003C002C0017B7C
:1023D000017A0879BA900BFE121AF17B017A08791A
:1023E000BC900C01121AF17B017A0879BE900C04A2
:1023F000121AF1D001D002D0031230907E00EF64A7
:10240000014E60030225F79008B8E0FFEF54FEFF8D
:102410009008B8EFF0229008B9E0FF7E00EF64204A
:102420004E70537B017A09797FC003C002C0017BE3
:10243000017A0879BA900BFE121AF17B017A0879B9
:10244000BC900C01121AF17B017A0879BE900C0441
:10245000121AF1D001D002D0031230907E00EF6446
:10246000014E60030225F79008B8E0FFEF54FEFF2D
:102470009008B8EFF0229008B9E0FF7E00EF6421E9
:102480004E70537B017A09798FC003C002C0017B73
:10249000017A0879BA900BFE121AF17B017A087959
:1024A000BC900C01121AF17B017A0879BE900C04E1
:1024B000121AF1D001D002D0031230907E00EF64E6
:1024C000014E60030225F79008B8E0FFEF54FEFFCD
:1024D0009008B8EFF0229008B9E0FF7E00EF642288
:1024E0004E70537B017A09799FC003C002C0017B03
:1024F000017A0879BA900BFE121AF17B017A0879F9
:10250000BC900C01121AF17B017A0879BE900C0480
:10251000121AF1D001D002D0031230907E00EF6485
:10252000014E60030225F79008B8E0FFEF54FEFF6C
:102530009008B8EFF0229008B9E0FF7E00EF642326
:102540004E70507B017A0979BFC003C002C0017B85
:10255000017A0879BA900BFE121AF17B017A087998
:10256000BC900C01121AF17B017A0879BE900C0420
:10257000121AF1D001D002D0031230907E00EF6425
:10258000014E70739008B8E0FFEF54FEFF9008B85A
:10259000EFF0229008B9E0FF7E00EF64244E705700
:1025A0007B017A0979CFC003C002C0017B017A08A0
:1025B00079BA900BFE121AF17B017A0879BC900C63
:1025C00001121AF17B017A0879BE900C04121AF1FB
:1025D000D001D002D0031230907E00EF64014E7023
:1025E000169008B8E0FFEF54FEFF9008B8EFF02215
:1025F0007D007F001271E622900BA5EFF0E4900BB6
:10260000ADF0900BA5E0900AFC1247E01249239030
:102610000BA6F0A3EFF0E47F01FEFDFC900BA5E01C
:10262000F9F81219B88F298E288D278C26AF011240
:1026300072EA900BABEEF0A3EFF0124833400512B4
:1026400049458005E4900BA8F0900BA8E064016078
:10265000030227AA900BA5E0FF2408124848E0C314
:1026600094FA748094805006124845E004F01248B1
:10267000F6FCE4FBFAF9F8C31219946003022797F9
:10268000900AFBE0900BAAF012106EEF6030E4901D
:102690000BA8F0A3F01248805018124845E0C394EC
:1026A00001748094804006900BA8E004F012490A5F
:1026B00080E31248B34007900BAAE0240FF0900B80
:1026C000A5E024081248481249655003022797E400
:1026D000900BA8F0127A4CEF705E900BA9F01248A4
:1026E000805022900BA5E06F6016127A14900BA90F
:1026F000E02408124848E0C39F4005124945800580
:1027000012490A80D912106EEF3395E04F70639032
:102710000BA8E0705DA3F01248805056900BA5E026
:102720006F6010127A14900BA912489AE0C39F4070
:1027300002803C12490A80DF12106EEF3395E04FA1
:102740007030900BAAF0900BA9F01248805018122C
:102750004845E0C39402748094804006900BAAE040
:1027600004F012490A80E3900BAA1248B640031203
:102770004945900BA8E064017002D208E52545297F
:10278000FFE5244528FEE5234527FDE52245268F64
:10279000258E248D23F522900BA5E0FF24101247EF
:1027A000F6E4F0A312488D0229BD900BA5E0FF12BC
:1027B000732A900BA6E0FCA3E0FDD3124827400843
:1027C000124897E004F0800B900CA2E004F012484D
:1027D00097E4F012492DC3E49FFBE49EFAC3ED9BFE
:1027E000EA1248294066D312483450601248D4F5A2
:1027F00083E412488D12485E6003022911900BA6F3
:10280000E0FEA3E0FF900BA5E0900B0C12487AEEDF
:102810008FF012170E127A361248154009124850DE
:10282000E475F0018019127A36C3E49FFFE49EFE3E
:10283000124815400302291112485074FFF5F01296
:10284000170E12480BE4F0A3F002291112492DC310
:10285000E49FFFE412483150731248D4124889F5BE
:1028600083E4F074102FF582E4340BF583E0FF75F8
:10287000F00A84E5F07044C3EF946474809480900F
:102880000BA5E040101248D9F583E4F0D209900B73
:102890002004F08026124855C083C082E0FEA3E0E9
:1028A000FF900B19E0A2E713FD3395E0FCC3EF9D09
:1028B000FFEE9CD082D083F0A3EFF0900BA5E0FF59
:1028C000900C9BE06F704A74FFF0804512492DD345
:1028D000124834403C900BA5E01248D912485E7073
:1028E0003012494C124889F583E064207023124964
:1028F0004CF583E4F0900B19E0A2E713A2E713FD77
:102900003395E0FC75F002EF124858EC8DF0121789
:102910000E1248F64D4E4F70030229C9900BABE0E2
:10292000FCA3E0FDAE047802CEA2E713CE13D8F8E4
:10293000FFC3ED9FFFEC12483140030229C2124849
:10294000A5E004F0127A61900BAAEFF0E4900BA9D5
:10295000F01248805018124845E0C39401748094E6
:10296000804006900BA8E004F012490A80E3124868
:10297000B34008900AFBE0900BAAF0900BA5E0FB97
:102980001248A91249655003022A13741E2B1248DB
:10299000ABE4F0AF29AE28AD27AC26121963E525CC
:1029A0005FFFE5245EFEE5235DFDE5225C8F258E5D
:1029B000248D23F52274082BF582E4340BF583E48F
:1029C000F0221248A5E014F022900BA5E024081292
:1029D00048481248607008900BA5E0FF126821E596
:1029E0002A14FF900BA5E06F7029900CA2E0C3950C
:1029F0002A4020E4900BA9F0124880500E1248455E
:102A0000E0600312494512490A80ED900BA8E0707E
:102A100002C20822900A8CE0FFEF547FFF900DAABB
:102A2000EFF0900A53E0FFEF30E103022D62900DCA
:102A3000AAE0FF900A8CE0FEEE547FFEEEC39F50AA
:102A40000E900A8CE0FFEF547FFF900DAAEFF090FC
:102A50000A57E0FEA3E0FFEF4E6003022BDF900D6C
:102A6000AAE0FF7E00D3EF9401EE64809480505979
:102A7000900BF2E0FFEF20E033900A4BE0FFEF30E5
:102A8000E32A900BF2E0FFEF54FEFF900BF2EFF021
:102A9000900BF2E0FFEF4402FF900BF2EFF0900A90
:102AA00050E0FFEF4401FF900A50EFF0900A4EE033
:102AB000FFEF4402FF900A4EEFF0900A4EE0FFEF66
:102AC00054DFFF900A4EEFF022900DAAE0FF7E0047
:102AD000D3EF9403EE648094804003022BC2900BEA
:102AE000F2E0FFEF20E033900A4BE0FFEF30E32A03
:102AF000900BF2E0FFEF4401FF900BF2EFF0900B30
:102B0000F2E0FFEF54FDFF900BF2EFF0900A50E07F
:102B1000FFEF4408FF900A50EFF0900BF2E0FFEF58
:102B20001313543FFFEF543FFF7E00D3EF9405EEA5
:102B300064809480501E900A4EE0FFEF4402FF90A4
:102B40000A4EEFF0900A4EE0FFEF54DFFF900A4E7E
:102B5000EFF0801C900A4EE0FFEF54FDFF900A4E0C
:102B6000EFF0900A4EE0FFEF54DFFF900A4EEFF0D7
:102B7000900BF2E0FFEF1313543FFEEF5403FFEE10
:102B800004FEEE543FFEEE25E025E0FEEE4FFF9002
:102B90000BF2EFF0900BF2E0FFEF1313543FFFEF57
:102BA000543FFF7E00C3EF940AEE6480948050038C
:102BB000022D62900BF2E0FFEF5403FF900BF2EF57
:102BC000F022900A4EE0FFEF54FDFF900A4EEFF026
:102BD000900A4EE0FFEF4420FF900A4EEFF0229063
:102BE0000DAAE0FF7E00D3EF9403EE648094805042
:102BF0005F900A4EE0FFEF4401FF900A4EEFF09025
:102C00000A4EE0FFEF54EFFF900A4EEFF0900BF208
:102C1000E0FFEF30E003022D62900A4BE0FFEF206F
:102C2000E303022D62900BF2E0FFEF54FEFF900BE6
:102C3000F2EFF0900BF2E0FFEF4402FF900BF2EFA7
:102C4000F0900A50E0FFEF4401FF900A50EFF022AD
:102C5000900DAAE0FF7E00D3EF940AEE648094808A
:102C60004003022D46900BF2E0FFEF20E033900A84
:102C70004BE0FFEF30E32A900BF2E0FFEF4401FF5F
:102C8000900BF2EFF0900BF2E0FFEF54FDFF900B92
:102C9000F2EFF0900A50E0FFEF4408FF900A50EF87
:102CA000F0900BF2E0FFEF1313543FFFEF543FFFA0
:102CB0007E00C3EF9405EE64809480501E900A4E0F
:102CC000E0FFEF4401FF900A4EEFF0900A4EE0FF64
:102CD000EF54EFFF900A4EEFF0801C900A4EE0FF99
:102CE000EF54FEFF900A4EEFF0900A4EE0FFEF54D3
:102CF000EFFF900A4EEFF0900BF2E0FFEF1313544A
:102D00003FFEEF5403FFEE04FEEE543FFEEE25E0DF
:102D100025E0FEEE4FFF900BF2EFF0900BF2E0FF9C
:102D2000EF1313543FFFEF543FFF7E00C3EF940AAD
:102D3000EE64809480402B900BF2E0FFEF5403FF91
:102D4000900BF2EFF022900A4EE0FFEF54FEFF905E
:102D50000A4EEFF0900A4EE0FFEF4410FF900A4E4B
:102D6000EFF022900DA5E4F0900004E0FF7E00C398
:102D7000EF9405EE64809480500302308A90000442
:102D8000E0FF7E00EF64084E6015900003E0FF7ED8
:102D900000D3EF9420EE648094805003022EFB7FDA
:102DA0002C7E017D007C00900005121A17C31219B9
:102DB000944027900005121A94000000007BFF7ACF
:102DC0007A79781276DC900003E004F0900003E05A
:102DD000FFEF547FFF900003EFF09001A8E0FF7E2B
:102DE00000EF64034E600302308A9001A87401F082
:102DF0009001ADE4F0A3E4F0900004E0FF7E00EF6A
:102E000064084E6003022EBC7B017A0179AFC003D7
:102E1000C002C0017BFF7A7A7982900CAF121AF15E
:102E2000D001D002D003126F0AEF60097BFF7A7ADB
:102E3000798D1276DC7B017A0179AFC003C002C0C4
:102E4000017BFF7A7A7995900CAF121AF1D001D0FC
:102E500002D003126F0AEF60097BFF7A7A798D1234
:102E600076DC7B017A0179AFC003C002C0017BFF31
:102E70007A7A79AB900CAF121AF1D001D002D0035C
:102E8000126F0AEF60097BFF7A7A79C61276DC7BD3
:102E9000017A0179AFC003C002C0017BFF7A7A7961
:102EA000D8900CAF121AF1D001D002D003126F0AE1
:102EB000EF60097BFF7A7A798D1276DC7B017A01EB
:102EC00079AFC003C002C0017BFF7A7A79EC900C25
:102ED000AF121AF1D001D002D003126F0AEF7003C3
:102EE00002308A900D03121A9400000FA07F001286
:102EF000758C900DA57401F002308A7F2C7E017DC7
:102F0000007C00900005121A17C3121994401E90FD
:102F10000005121A9400000000900003E004F090F5
:102F20000003E0FFEF547FFF900003EFF0900004F8
:102F3000E0FFEF121BF22F43052FAD0630160700FE
:102F40000030847BFF7A7A79FCC003C002C0017B29
:102F5000FF7A7B7916900B77121AF17BFF7A7B79D7
:102F600019900B7A121AF1900B7D121A940000003E
:102F7000647BFF7A7679DC900B81121AF1D001D054
:102F800002D003125979900021EFF0900021E0FF68
:102F90007E00EF64024E600302308A900D03121A25
:102FA0009400000FA07F0612758C02308A7BFF7A96
:102FB0007B791FC003C002C0017BFF7A7B7916902A
:102FC0000B77121AF17BFF7A7B7919900B7A121A20
:102FD000F1900B7D121A94000000647BFF7A7679E1
:102FE000DC900B81121AF1D001D002D00312597972
:102FF000900021EFF0900021E0FF7E00EF64024E90
:10300000600302308A900D03121A9400000FA07F13
:103010000712758C80747BFF7A7A79C6C003C00270
:10302000C0017BFF7A7B7916900B77121AF17BFF38
:103030007A7B7919900B7A121AF1900B7D121A94FF
:10304000000000647BFF7A7679DC900B81121AF124
:10305000D001D002D003125979900021EFF09000F6
:1030600021E0FF7E00EF64024E701F900D03121AE4
:103070009400000FA07F0812758C9001A9E4F0A3C2
:10308000E4F080069000047405F0900DA5E0FF22A6
:10309000900BFB121AF1900C04121AD11215D8FFE2
:1030A0007E00EF64FF4E70037F0122900C04121A21
:1030B000D11215D8FF7E08EF8EF0A4FFAEF0900B72
:1030C000FB121AD1E92FF9EA3EFA758204758300E2
:1030D000121765FDACF0E41214287BCD7ACC794C44
:1030E000783E121204C004C005C006C007900BFE53
:1030F000121AD112173AFDACF0E4121428A804A950
:1031000005AA06AB07D007D006D005D0041213AA33
:103110004003023226900BFB121AD1C003C002C03A
:1031200001900C04121AD11215D8FF75F008EFA403
:10313000F58285F083D001D002D003121A239008C3
:10314000B4E0FEA3E0FFE4FCFDC312199470030297
:1031500031EF900BFB121AD1C003C002C001900CDA
:1031600004121AD11215D8FF75F008EFA4F5828564
:10317000F083D001D002D0031219CB9008B4EEF046
:10318000A3EFF0900BFB121AD1C003C002C0019054
:103190000C04121AD11215D8FF75F008EFA4F582AD
:1031A00085F083D001D002D0031219CBAD07AC0655
:1031B0007F101268A1900BFB121AD1C003C002C08D
:1031C00001900C04121AD11215D8FF75F008EFA463
:1031D000F58285F083D001D002D0031219CB90087C
:1031E000B6EEF0A3EFF07D017F001271E68027902C
:1031F00008B6E0FCA3E0FDE41214287B007A007915
:1032000000783F121204121461AD07AC06AC06AD93
:10321000077F0212109E900BFE121AD1E475F00186
:1032200012179D023350900C04121AD11215D8FFB8
:103230007E08EF8EF0A4FFAEF0900BFB121AD1E9DE
:103240002FF9EA3EFA758206758300121765FDAC08
:10325000F0E41214287BCD7ACC794C783E1212041B
:10326000C004C005C006C007900C01121AD1121785
:103270003AFDACF0E4121428A804A905AA06AB078D
:10328000D007D006D005D0041213AA50197D007CB7
:10329000007F0212109E900C01121AD1E475F00109
:1032A00012179D023350900C04121AD17401121699
:1032B0001E900BFE121AD1E475F000121822900C29
:1032C00001121AD1E475F000121822900BFB121AA9
:1032D000D1C003C002C001900C04121AD11215D83B
:1032E000FF75F008EFA4F58285F083D001D002D0FD
:1032F000031219CB9008B6EEF0A3EFF0900BFB127F
:103300001AD1C003C002C001900C04121AD11215C8
:10331000D8FF75F008EFA4F58285F083D001D002C4
:10332000D0031219CB7BFF7AFF79FF7800C3121903
:1033300094701D900C04121AD174FF121673900829
:10334000B4E4F0A3E4F07D007F001271E67F012277
:103350007F0022900A57E0FEA3E0FFEF4E600302D9
:1033600033FF7F007ED47D8F7C05900A5D121A1793
:10337000C312199450031264F57B607A03790078C4
:1033800000900A5D1219FB1218B7900CBC121A8833
:103390007FE07EA57D017C00900CBC121A17C31241
:1033A00019944003023481900CBC121A17C374E0C4
:1033B0009BFF74A59AFE740199FDE498FC900CBCE7
:1033C000121A88900CBC1219FBE41214237B007AA9
:1033D000007987784412130D900CC0121A88900C53
:1033E000C01219FB121461EF547FFF900A8CE0FEAB
:1033F000EE5480FEEE4FFF900A8CEFF00234817F96
:10340000007E9C7DDA7C01900A59121A17C31219AA
:103410009450031264F57B607A0379007800900A77
:10342000591219FB1218B7900CBC121A88900CBCD8
:10343000121A17C374A09BFF748C9AFEE499FDE4E2
:1034400098FC900CBC121A88900CBC1219FBE41268
:1034500014237B007A0079B4784312130D900CC0CA
:10346000121A88900CC01219FB121461EF547FFFDE
:10347000900A8CE0FEEE5480FEEE4FFF900A8CEF37
:10348000F0900A57E0FEA3E0FFEF4E6003023544E0
:10349000900A4FE0FFEF20E6030235447F747EC2BE
:1034A0007D037C00900A65121A17C3121994500309
:1034B000126467900A651219FBE41214237B927A56
:1034C000917933783D121204121461900CBC121AD7
:1034D000887F307E2A7D007C00900CBC121A17D3A6
:1034E000121994400A900CBC121A9400002A3090D1
:1034F0000CBC121A17C374309BFF742A9AFEE4990D
:10350000FDE498FC900CBC121A88900CBC1219FBBC
:10351000E41214237B007A0079D8784212130D90BC
:103520000CC0121A88900CC01219FB121461EF54CF
:103530007FFF900A8DE0FEEE5480FEEE4FFF900A72
:103540008DEFF022900A57E0FEA3E0FFEF64014EFA
:103550006003023608900A4FE0FFEF20E6030236D0
:10356000087FC57E407D017C00900A61121A17C356
:103570001219945003126467900A611219FBE41245
:1035800014237B927A917933783D121204121461DC
:10359000900CBC121A887F107E0E7D007C00900C6F
:1035A000BC121A17D3121994400A900CBC121A9428
:1035B00000000E10900CBC121A17C374109BFF74FD
:1035C0000E9AFEE499FDE498FC900CBC121A8890C7
:1035D0000CBC1219FBE41214237B007A00791078DA
:1035E0004212130D900CC0121A88900CC01219FBD5
:1035F000121461EF547FFF900A8DE0FEEE5480FEBE
:10360000EE4FFF900A8DEFF022900CA37403F07F31
:1036100000126DB9900CA4121A88900CA41219FB18
:10362000EF5400FFEE5400FEED5400FDEC54F0FCAE
:103630007B007A0079007890C31219945003023706
:1036400046900CA41219FBEF5400FFEE5400FEED5F
:103650005400FDEC540FFC7B007A0079007809C31C
:103660001219945003023746900CA41219FBEF5420
:1036700000FFEE5400FEED54F0FDEC5400FC7B0026
:103680007A0079907800C31219945003023746905B
:103690000CA41219FBEF5400FFEE5400FEED540F82
:1036A000FDEC5400FC7B007A0079097800C3121904
:1036B000945003023746900CA41219FBEF5400FFFC
:1036C000EE54F0FEED5400FDEC5400FC7B007A90CB
:1036D00079007800C3121994406C900CA41219FB65
:1036E000EF5400FFEE540FFEED5400FDEC5400FCCF
:1036F0007B007A0979007800C31219944048900C35
:10370000A41219FBEF54F0FFEE5400FEED5400FD3F
:10371000EC5400FC7B907A0079007800C312199475
:103720004024900CA41219FBEF540FFFEE5400FE3E
:10373000ED5400FDEC5400FC7B097A007900780020
:10374000C3121994500A900CA4121A94000000009D
:103750007F01126DB9900CA8121A881277FA1277AD
:10376000D9900AC0E0FF900AACE0FEEE6F70329094
:103770000AC1E0FF900AADE0FEEEB50724900AC250
:10378000E0FF900AAEE0FEEEB50716900AC3E0FF38
:10379000900AAFE0FEEEB50708900CA37401F0802C
:1037A00006900CA37403F0900CA3E0FF7E00EF647E
:1037B000014E701A900CA41219FB900CA8121A1743
:1037C000D31219944008900CA37402F08052900A0E
:1037D000C0E0FF900A9CE0FEEE6F7031900AC1E0FD
:1037E000FF900A9DE0FEEEB50723900AC2E0FF902D
:1037F0000A9EE0FEEEB50715900AC3E0FF900A9F0F
:10380000E0FEEEB50707900CA3E4F08013900CA344
:10381000E0FF7E00EF64014E7006900CA37402F08E
:10382000900CA3E0FF7E00EF4E70037F0122900C0E
:10383000A3E0FF7E00EF64024E7012125CAEEF60F8
:10384000037F0122125CAEEF60037F01227F002222
:10385000900D24121AF1900004E0FFEF121BF238D1
:10386000720038DA013942023A88033A3304000020
:103870003A887BFF7A7A7978C003C002C0017BFF67
:103880007A7B7938900B77121AF17BFF7A7B794734
:10389000900B7A121AF1900B7D121A9400000064BA
:1038A0007BFF7A7679DC900B81121AF1D001D0027D
:1038B000D003125979900021EFF0900021E0FF7EB3
:1038C00000EF64024E6003023A88900D03121A94CE
:1038D000000013887F0112758C227BFF7A7B79515F
:1038E000C003C002C0017BFF7A7B7916900B771270
:1038F0001AF17BFF7A7B7919900B7A121AF1900BEF
:103900007D121A94000000647BFF7A7679DC900BBC
:1039100081121AF1D001D002D003125979900021FE
:10392000EFF0900021E0FF7E00EF64024E600302A2
:103930003A88900D03121A94000013887F021275C2
:103940008C22900005121A9400000000900D2412A1
:103950001AD11215D8FF7E00EF64034E7024900D2B
:1039600024121AD1758203758300121765FFAEF019
:10397000EF4E700E127A72900D24121AD174011249
:103980001673900D24121AD11215D8FF7E00EF6421
:103990000F4E7011900D24121AD1740112167390EB
:1039A000001C7403F0900D24121AD1121CBC90005C
:1039B0001CEFF090001CE0FF7E00EF64014E7040B1
:1039C0009000A7E0FF7E00EF4E7012123609900DB6
:1039D00024121AD17404121673127A7222900D24D2
:1039E000121AD1740F1216739003AFE4F0900D0306
:1039F000121A9400002EE07F0412758C127A722243
:103A000090001CE0FF7E00EF64034E70159003AF42
:103A1000E4F0900D03121A9400002EE07F0412755A
:103A20008C22900D03121A94000013887F021275E5
:103A30008C2222900D27E4F0900D27E0FF7E00C33A
:103A4000EF940AEE6480948050347BFF7A7B796136
:103A50001276DC900005121A94000000007FC87EE8
:103A6000007D007C00900005121A17C312199450B3
:103A70000543CF1080E7900D27E004F080BA900056
:103A800004E4F07F001276B5224404B0EDB8832040
:103A9000410021004100A70041000300420BEF005C
:103AA00000410BF100410BF200410BF800420BF911
:103AB0000000420BF30000410BF505420BF600003D
:103AC000602808BF0000076C00C80078000009608B
:103AD00000C8007800000B5400C8007800000D48B2
:103AE00000C804B000FFFFFFFFFFFFFF602808E7EA
:103AF00000000D4800C8007800000B5400C8007892
:103B00000000096000C800780000076C00C804B01D
:103B100000FFFFFFFFFFFFFF6038090F00000F9F4E
:103B20000078037000000F9F0078037000000F9F63
:103B30000078037000000F9F0078037000000F9F53
:103B40000078037000000F9F0078037000FFFFFFF4
:103B5000FFFFFFFF6038094700000E74017C00780A
:103B600000000E74017C007800000E74017C007867
:103B700000000E74017C007800000E74017C007857
:103B800000000E74017C007800FFFFFFFFFFFFFFC5
:103B900050097F00000CE400C8037000FFFFFFFF26
:103BA000FFFFFF50098F00000C4E00C8012C00FFE2
:103BB000FFFFFFFFFFFF6020099F00000D48026C20
:103BC000026C00000D48026C026C00000D48026C93
:103BD000026C00FFFFFFFFFFFFFF5009BF0000085E
:103BE000FC07D003E800FFFFFFFFFFFFFF5809CFEE
:103BF000000006A400780064000008FC007800645F
:103C000000FFFFFFFFFFFFFF4208B400004208B6BD
:103C10000000410B3A00410B3B00410B3C00410BC3
:103C20003D00410CF300410CF400410CF500410C47
:103C3000F000410CF100410CF200480B8C6033990C
:103C4000909090D5FA580ACBE100E20FE326E437D2
:103C5000E502E600E7F9E8F9E9F9EA05EB01EC032A
:103C6000580AE3E100E20FE326E437E502E600E765
:103C7000F9E8F9E9F9EA05EB01EC03410CA0004190
:103C80000B2000410A9B00C10A440AC0AA5555AA4C
:103C9000440AC700000000440ABC00000000009075
:103CA0000A48E0FF7E00C3EF940AEE6480948040EF
:103CB00003023EA4900B3AE004F0900B3BE0FFEFD0
:103CC000121BF23CD3003D47013DBB023E2F0300D7
:103CD000003EA4900B3AE0FF7E00EF64014E7004BA
:103CE00012100E22900B3AE0FF7E00EF64034E703C
:103CF0000B7D017F011263D743AD4022900B3AE068
:103D0000FF7E00EF64054E701A127907900A48E0B2
:103D1000FDED25E024FCF582E43409F583EEF0A303
:103D2000EFF022900B3AE0FF7E00C3EF940FEE64B9
:103D30008094805003023EA4900B3BE004F0900B73
:103D40003AE4F012101622900B3AE0FF7E00EF6486
:103D5000014E700412101E22900B3AE0FF7E00EF1D
:103D600064034E700B7D017F031263D743AD402285
:103D7000900B3AE0FF7E00EF64054E701A1279074F
:103D8000900A48E0FDED25E02424F582E4340AF5AC
:103D900083EEF0A3EFF022900B3AE0FF7E00C3EF3A
:103DA000940FEE648094805003023EA4900B3BE09D
:103DB00004F0900B3AE4F012101E22900B3AE0FF50
:103DC0007E00EF64014E700412102622900B3AE040
:103DD000FF7E00EF64034E700B7D017F061263D7F8
:103DE00043AD4022900B3AE0FF7E00EF64054E7039
:103DF0001A127907900A48E0FDED25E02410F582BB
:103E0000E4340AF583EEF0A3EFF022900B3AE0FFE2
:103E10007E00C3EF940FEE648094805003023EA4B2
:103E2000900B3BE004F0900B3AE4F0121026229045
:103E30000B3AE0FF7E00EF64014E70041210062280
:103E4000900B3AE0FF7E00EF64034E700B7D017F24
:103E5000071263D743AD4022900B3AE0FF7E00EF9C
:103E600064054E701A127907900A48E0FDED25E0CE
:103E700024E8F582E43409F583EEF0A3EFF0229014
:103E80000B3AE0FF7E00C3EF940FEE648094804015
:103E900013900B3BE4F0900B3AE4F0121006900AFA
:103EA00048E004F022900D11121AF1900D14E4F084
:103EB000A3E4F0900D11121AD175820175830012DE
:103EC0001765FFAEF0EF4E7029900CC8121A9400DF
:103ED00000FC007F007E867D007C001271A3900AAA
:103EE000BC121A9400000000900AC7121A94000035
:103EF0000000900D11121AD17582037583001217FC
:103F000065FFAEF0900D14EEF0A3EFF0900D1112DE
:103F10001AD1758203758300121765FDACF0900D00
:103F200011121AD1758201758300121765FFAEF068
:103F30001216A7C3EE941050030240A0900D111268
:103F40001AD1758203758300121765FDACF0900DD0
:103F500011121AD1758201758300121765FFAEF038
:103F60001216A7E4FCFD7B007A8679007800D31254
:103F7000197E50030240A0900D11121AD1758203D0
:103F8000758300121765FDACF0900D11121AD175F2
:103F90008201758300121765FFAEF01216A7E4FCCC
:103FA000FDC004C005C006C007900D11121AD175DE
:103FB0008203758300121765FFAEF0AB07AA06E413
:103FC000F9F8C3E49BFB74869AFAE499F9E498F84B
:103FD000D007D006D005D004C312197E700B900D07
:103FE0001474FF75F0F012170E900D11121AD1759E
:103FF0008203758300121765FDACF0900D11121A43
:10400000D1758201758300121765FFAEF01216A7F5
:10401000EF2400FFEE34F0FE900D11121AD17582DC
:1040200005758300121B69900D14E0FCA3E0FD9060
:104030000CE0ECF0A3EDF0126921EF605B900AC791
:104040001219FBC004C005C006C007900D11121A5A
:10405000D1758205758300121B69900D14E0FEA3D3
:10406000E0FFE4FCFD900BBB121A88D007D006D00D
:1040700005D0041267A0900AC7121A88900ABC12D1
:104080001A17900D14E0FEA3E0FFE4FCFD12186E79
:10409000900ABC121A888008900D14E4F0A3E4F092
:1040A000900D14E0FEA3E0FF22900D6CEFF0900D58
:1040B0006DEDF0900D6EEBF0900D6CE0FFEF121BCC
:1040C000F240D700412301416F0241BB0342070484
:1040D0004253050000429C900D6EE0FFEF121BF270
:1040E00040ED004104014118020000429C900D6D1A
:1040F000E0FFEFF4FFEF529A900D6DE0FFEFF4FF59
:10410000EF529B22900D6DE0FFEFF4FFEF529A907B
:104110000D6DE0FFEF429B22900D6DE0FFEF429AA4
:10412000222222900D6EE0FFEF121BF24139004176
:1041300050014164020000429C900D6DE0FFEFF4DD
:10414000FFEF5291900D6DE0FFEFF4FFEF529222DE
:10415000900D6DE0FFEFF4FFEF5291900D6DE0FFD9
:10416000EF429222900D6DE0FFEF429122222290C9
:104170000D6EE0FFEF121BF2418500419C0141B042
:10418000020000429C900D6DE0FFEFF4FFEF52A1A2
:10419000900D6DE0FFEFF4FFEF52A222900D6DE065
:1041A000FFEFF4FFEF52A1900D6DE0FFEF42A2226E
:1041B000900D6DE0FFEF42A1222222900D6EE0FFF4
:1041C000EF121BF241D10041E80141FC0200004224
:1041D0009C900D6DE0FFEFF4FFEF52B1900D6DE09C
:1041E000FFEFF4FFEF52B222900D6DE0FFEFF4FF0E
:1041F000EF52B1900D6DE0FFEF42B222900D6DE0F5
:10420000FFEF42B1222222900D6EE0FFEF121BF26F
:10421000421D004234014248020000429C900D6D54
:10422000E0FFEFF4FFEF52C1900D6DE0FFEFF4FF00
:10423000EF52C222900D6DE0FFEFF4FFEF52C190FC
:104240000D6DE0FFEF42C222900D6DE0FFEF42C125
:10425000222222900D6EE0FFEF121BF24269004213
:1042600080014294020000429C900D6DE0FFEFF44B
:10427000FFEF52D9900D6DE0FFEFF4FFEF52DA221D
:10428000900D6DE0FFEFF4FFEF52D9900D6DE0FF60
:10429000EF42DA22900D6DE0FFEF42D92212105664
:1042A000121046126A197BFF7A71791BC003C00293
:1042B000C0017B017A0079A8900CD7121AF1D001C5
:1042C000D002D003126F5A7F0012781B1270D212E4
:1042D000537412660E127A5743CF10122D637B016E
:1042E0007A0A7993123850900A96E0FEA3E0FFEF25
:1042F0004E60391279577B017A0A7993123EA59064
:104300000D75EEF0A3EFF0900D75E0FEA3E0FFEF6A
:104310004E6008900A937403F08006900A93740F1D
:10432000F0900A96E4F0A3E4F01279CC900A93E0BE
:10433000FF7E00EF64044E701A12795712525BEF41
:10434000700B1279CC900A93740FF080061279CC1E
:1043500012104E900A93E0FF7E00EF640F4E70261D
:104360007BFF7A71791BC003C002C0017B017A0018
:1043700079A8900CD7121AF1D001D002D003126F95
:104380005A7F0012781B900B16E0FFEF20E7030224
:104390004443900B16E0FFEF547FFF900B16EFF0B5
:1043A000124C6E900BE9121A887F007E007D007C13
:1043B00000900BE9121A17D31219944075900A4B0A
:1043C000E0FFEF54FBFF900A4BEFF0900BE912195E
:1043D000FBEF5402FFEE5400FEED5400FDEC5400E0
:1043E000FCEC4D4E4F600E900A4BE0FFEF4401FF96
:1043F000900A4BEFF0900BE91219FB78081219A5FF
:10440000900BE9121A88900BE91219FBEF5440FF48
:10441000EE5400FEED5400FDEC5400FCEC4D4E4F0C
:10442000601E900A4BE0FFEF4402FF900A4BEFF052
:10443000800E900A4BE0FFEF4404FF900A4BEFF030
:1044400012100012703EE5B720E510900BEDE0FF72
:104450007E00EF645A4E60030242D8900BEDE0FFFD
:10446000EF54A5FF900BEDEFF0126168900A4DE05C
:10447000FFEF4402FF900A4DEFF00242D822900B6A
:10448000EFE475F00112170E900A53E0FFEF20E100
:104490000302462E900A53E0FFEF1313543FFFEF41
:1044A0005401FF900A53E0FEEEC313FEEE5401FEEA
:1044B000EE6FFFEF6044900BF1E4F0900A53E0FFE1
:1044C000EF5402FFEF25E0FF900A53E0FEEE54FBAD
:1044D000FEEE4FFF900A53EFF0900A4EE4F0900A80
:1044E00050E0FFEF54EFFF900A50EFF0900A4FE0DA
:1044F000FFEF54EFFF900A4FEFF0900BEFE0FEA3B9
:10450000E0FFEF30E00302462E900BF1E0FFEF12E8
:104510001BF2453100454801455F02457603458D54
:104520000445A40545DB0645E2074612080000469F
:104530002ED2C0900A4EE0FFEF4410FF900A4EEFDB
:10454000F0900BF1E004F022D2C2900A4EE0FFEFAF
:104550004420FF900A4EEFF0900BF1E004F022D2DD
:10456000C1900A4EE0FFEF4480FF900A4EEFF090BA
:104570000BF1E004F022D2DB900A4EE0FFEF444062
:10458000FF900A4EEFF0900BF1E004F022D2C390BE
:104590000A4EE0FFEF4408FF900A4EEFF0900BF157
:1045A000E004F022900A4FE0FFEF4420FF900A4F12
:1045B000EFF0900A4FE0FFEF4410FF900A4FEFF04A
:1045C000900A4E74FFF0900A50E0FFEF4410FF9005
:1045D0000A50EFF0900BF1E004F022900BF1E004B0
:1045E000F022900A4EE4F0900A4FE0FFEF54DFFF14
:1045F000900A4FEFF0900A4FE0FFEF54EFFF900A60
:104600004FEFF0C2C2C2C1C2DBC2C3900BF1E004E3
:10461000F022900A53E0FFEF4408FF900A53EFF0B6
:10462000900A53E0FFEF54FDFF900A53EFF0229001
:104630000CF0E0FF7E00C3EF94FFEE6480948050A6
:1046400006900CF0E004F0900A4BE0FFEF20E2034C
:10465000024704900CF5E0FF7E00D3EF9400EE6477
:1046600080948050030246F1900CF5E0FF7E00C379
:10467000EF940AEE648094805077900CF0E0FF7E17
:1046800000C3EF94C8EE648094805050900A53E0C9
:10469000FFEF20E147900CF1E004F0900A50E0FFBA
:1046A000EF4404FF900A50EFF0900CF1E0FF7E0021
:1046B000D3EF9404EE648094804021900A53E0FF8D
:1046C000EF4402FF900A53EFF0900CF5E4F0900AEB
:1046D0004BE0FFEF54FEFF900A4BEFF0900CF5E437
:1046E000F0900A4BE0FFEF54FEFF900A4BEFF08092
:1046F00013900CF5E4F0900A4BE0FFEF54FEFF90AE
:104700000A4BEFF0900A4BE0FFEF30E008900CF519
:10471000E004F0801F900CF5E0FF7E00D3EF94C81A
:10472000EE6480948040030247DB900A4BE0FFEF89
:1047300020E00122900CF5E0FF7E00EF643C4E701B
:104740000F900A50E0FFEF4402FF900A50EFF02272
:10475000900CF5E0FF7E00EF64644E707E900A508E
:10476000E0FFEF54FBFF900A50EFF0900A4EE0FF9D
:10477000EF4401FF900A4EEFF0900A4EE0FFEF4445
:1047800002FF900A4EEFF0900A4EE0FFEF4404FF64
:10479000900A4EEFF0900A4EE0FFEF4408FF900AB7
:1047A0004EEFF0900A4EE0FFEF54EFFF900A4EEF0D
:1047B000F0900A4EE0FFEF54DFFF900A4EEFF090CA
:1047C0000A4EE0FFEF54BFFF900A4EEFF0900A4E02
:1047D000E0FFEF547FFF900A4EEFF022E0900B1ABB
:1047E000FF75F002121AC5E0FCA3E0FDEF900B0488
:1047F00075F002021AC5F582E4340BF583E4F07417
:104800001E2FF582E4340BF583E4F0900B0CEF756A
:10481000F002021AC5900BA5E075F002900B0C1285
:104820001AC5E0FCA3E0C39FEE6480F8EC648098B6
:10483000229EFEC3900BA7E09FEE6480F8900BA62B
:10484000E06480982274082FF582E4340BF583220B
:10485000900BA5E0FF75F002900AFC021AC5F583E3
:10486000E4F0FFFEFDFCAB25AA24A923A822C30285
:104870001994900BA6E0FD900B1A75F002021AC570
:10488000900BA9E0FFC3952A22F583E004F07400A1
:104890002FF582E4340B22900BA5E0240AF582E484
:1048A000340BF58322900BA5E0241EF582E4340B33
:1048B000F58322900BA8E0C3940374809480227D3A
:1048C0000A1216B9AD037C001216A7900BAEE0FDDC
:1048D000900AFC22900BA5E0FF2410F582E4340B33
:1048E00022E0FCA3E0FD75F002EF900B1A121AC54E
:1048F000ECF0A3EDF022E5255529FFE5245528FE2F
:10490000E5235527FDE522552622900BA9E004F06A
:10491000227E00900C9CE0FCA3E0FD1216A78EE71F
:104920008FE622E0FEA3E0C39DFFEE9C22900B19D0
:10493000E0FF3395E0FE22A4FFE0C39FE5F0648032
:10494000F874809822900BA87401F022900BA5E0D7
:10495000FF2400F582E4340B22900B19E0FB339521
:10496000E0FAFEEB22E0FF900BAAE0FEEFC39E22EE
:104970009FEE6480F8EA64809822900BA4E0FF9098
:104980000C9AE022900A53E0FFEF30E103024B1E45
:10499000900A4DE0FFEF30E603024B1E900A4BE019
:1049A000FFEF30E41E900A4DE0FFEF20E215900B80
:1049B000F5E4F0900A4DE0FFEF4404FF900A4DEF5C
:1049C000F0C2DB900BF5E0FFEF121BF249E5004A65
:1049D0000A014A39024A5A034A79044AB6054AE0AA
:1049E0000600004B1ED2C2900BF57401F0900A4EE7
:1049F000E0FFEF4480FF900A4EEFF0900A4FE0FF97
:104A0000EF4440FF900A4FEFF022900BF6E475F070
:104A10000112170E900BF6E0FEA3E0FFD3EF94090E
:104A2000EE94005003024B1E900BF6E4F0A3E4F06A
:104A3000D2C0900BF5E004F022900A4BE0FFEF307B
:104A4000E403024B1E900BF5E004F0900A4EE0FFE9
:104A5000EF547FFF900A4EEFF022C2C2900BF6E4B3
:104A6000F0A3E4F0900BF5E004F0900A4DE0FFEFC6
:104A700054FBFF900A4DEFF022900BF6E475F00125
:104A800012170E900BF6E0FEA3E0FFD3EF9409EEB1
:104A900094005003024B1E900BF6E4F0A3E4F0C226
:104AA000C0900A4FE0FFEF54BFFF900A4FEFF09025
:104AB0000BF5E004F022900BF6E475F00112170EEE
:104AC000900BF6E0FEA3E0FFD3EF9470EE94174056
:104AD0004D900BF6E4F0A3E4F0900BF5E004F02227
:104AE000900BF6E475F00112170E900BF6E0FEA3A2
:104AF000E0FFD3EF94B0EE94044014900BF6E4F092
:104B0000A3E4F0900BF5E004F0C2DBC2C08004D255
:104B1000DBD2C0900A4BE0FFEF30E402C2DB22C0E0
:104B2000E0C0F0C083C082C0D075D000C000C0011A
:104B3000C002C003C004C005C006C0077F007E835A
:104B4000127795127560900A7DE475F00112170EC8
:104B5000900A7FE004F0900A80E004F0900A81E07F
:104B600004F0900A82E004F0900A83E004F0900AD6
:104B700083E0FFEF75F00384AFF07E00EF4E70131B
:104B8000900A54E0FFEF4420FF900A54EFF0900A9F
:104B900083E4F0900A82E0FFEF75F00584AFF07EC9
:104BA00000EF4E7013900A54E0FFEF4410FF900A9C
:104BB00054EFF0900A82E4F0900A81E0FFEF75F084
:104BC0001484AFF07E00EF4E7013900A54E0FFEFB4
:104BD0004402FF900A54EFF0900A81E4F0900A80BA
:104BE000E0FFEF75F03284AFF07E00EF4E7013906F
:104BF0000A54E0FFEF4404FF900A54EFF0900A805B
:104C0000E4F0900A7DE0FEA3E0FF7C037DE812164D
:104C1000B9ED4C7016900A54E0FFEF4408FF900A7B
:104C200054EFF0900A7DE4F0A3E4F0900A7FE0FFF7
:104C3000EF75F06484AFF07E00EF4E7013900A546D
:104C4000E0FFEF4401FF900A54EFF0900A7FE4F098
:104C5000123C9FD007D006D005D004D003D002D09C
:104C600001D000D0D0D082D083D0F0D0E032751007
:104C70000075180075170075160075150012105E86
:104C80005003024D9E1275318F148E138D128C11AC
:104C9000750F00E50FC3952A5051AF14AE13AD1236
:104CA000AC1178011219A58F148E138D128C11304E
:104CB000D7357F017E007D007C00AB0F74022BF5A1
:104CC00082E4340BF583E0F9A8011219B8E5184F16
:104CD000FFE5174EFEE5164DFDE5154CFC8F188ED1
:104CE000178D168C150510050F80A8AF107E00C318
:104CF000EF9402EE64809480401ED208AF107E00D4
:104D0000C3EF9403EE64809480400512106680081F
:104D1000127A4CEF6002C20820082C7F007E007DD2
:104D2000007C00AB18AA17A916A815C31219946025
:104D30000C900B17E475F00112170E8020900B17E2
:104D4000E4F0A3E4F08016900B14E475F001121760
:104D50000E751800751700751600751500127A2B60
:104D6000900B17E0FCA3E0FDD3ED9FEC9E400B12EF
:104D70001066900B17E4F0A3E4F0900B14E0FEA390
:104D8000E0FFD3EF942CEE94014020121066900BBC
:104D9000207401F0900B14E4F0A3E4F0800D907BFC
:104DA00080E493FE740193FF124DB4AF18AE17ADBB
:104DB00016AC1522900BA4EFF0900CA01248B64050
:104DC0003EE4F0900B20E0702B900BA5F0900BA52B
:104DD000E0C3952A501EE0FF124877E0FCA3E0FDF7
:104DE00075F002EF124858ECF0A3EDF0900BA5E03F
:104DF00004F080D91273E5C209E4900B20F02290F0
:104E00000C9AE004F012497AB507081279F5E4909B
:104E10000C9BF012497AD39F5003024EE5E4900BAD
:104E2000A5F0900BA5E0C3952A507A1247DC1249F1
:104E300023AD07FC900B20E0702E1249597802C375
:104E400033CE33CED8F9FFD3ED1248274046E49B4A
:104E5000FFE49AFEEF7802C333CE33CED8F9FFC316
:104E6000ED124827502E803D1249597803C333CEA6
:104E700033CED8F9FFD3ED1248274018E49BFFE466
:104E80009AFEEF7803C333CE33CED8F9FFC3ED12C9
:104E900048274011900BA5E0FF125889900BA5E020
:104EA00004F0024E22900BA5E0B52A06900C9BE080
:104EB00004F0900BA4E0FD75F008900C9A124937AD
:104EC0004023E4F0C208900CA0E004F0ED75F0047B
:104ED000900C9B124937400DE4900CA0F012783AE8
:104EE0001273E5C20922900C07121AF1900C0AE421
:104EF000F0A3E4F0900C0C74FFF0A374FFF0900C9E
:104F00000EE4F0A3E4F0900C10E4F0A3E4F0900CB5
:104F100012E4F0900C12E0FF7E00C3EF940AEE64FE
:104F20008094804003024FB3900C07121AD1900C6A
:104F300012E0FF75F002EFA4F58285F08312176589
:104F4000FFAEF0900C10EEF0A3EFF0900C0AE0FE34
:104F5000A3E0FF900C10E0FCA3E0FDD3ED9FEC9EDE
:104F60004010900C10E0FEA3E0FF900C0AEEF0A3BE
:104F7000EFF0900C0CE0FEA3E0FF900C10E0FCA31F
:104F8000E0FDC3ED9FEC9E5010900C10E0FEA3E0FE
:104F9000FF900C0CEEF0A3EFF0900C10E0FEA3E0FD
:104FA000FF900C0EEE8FF012170E900C12E004F032
:104FB000024F13900C0EE0FEA3E0FF900C0CE0FCFF
:104FC000A3E0FDC3EF9DFFEE9CFE900C0EEEF0A360
:104FD000EFF0900C0EE0FEA3E0FF900C0AE0FCA3C3
:104FE000E0FDC3EF9DFFEE9CFE900C0EEEF0A3EFF4
:104FF000F0900C0EE0FEA3E0FFEF7803CEC313CEDB
:1050000013D8F9FF900C0EEEF0A3EFF0900C0EE029
:10501000FEA3E0FF22900C91121A94000000009071
:105020000C96121A94000000007F007E017D007C27
:1050300000900C96121A17C3121994400302513DA6
:10504000900C91121A9400000000900C957401F0DD
:10505000900C95E0FF7E00EF4E7003025101900C22
:10506000911219FBEF5401FFEE5400FEED5400FDC8
:10507000EC5400FC7B007A0079007800C31219948C
:105080006028900C911219FB78011219A5900C91CF
:10509000121A88900C911219FB9004B0121A171270
:1050A0001956900C91121A888011900C911219FBCC
:1050B00078011219A5900C91121A88900C95E0FFB6
:1050C000E4FCFDFE900C96121A171219497B007A27
:1050D0000079007800C31219946015900C91121990
:1050E000FB9004B0121A17121956900C91121A88DC
:1050F000900C95E0FFEF25E0FF900C95EFF002504B
:1051000050900C911219FB900C96121A179004B43F
:1051100075F004EB121AC5EA25E025E02583F58336
:10512000121A88900C961219FB7B017A007900788C
:105130000012186E900C96121A8802502922900ABA
:105140004BE0FFEF20E203025233900CF4E0FF7ECD
:1051500000D3EF9400EE64809480500302522090BC
:105160000CF4E0FF7E00C3EF940AEE64809480406C
:1051700003025220900A4FE0FFEF30E427900A4FDD
:10518000E0FFEF30E51E900A4FE0FFEF54DFFF90A5
:105190000A4FEFF0900A4FE0FFEF54EFFF900A4FF5
:1051A000EFF0807C900A4FE0FFEF30E527900A4F48
:1051B000E0FFEF20E41E900A4FE0FFEF54DFFF9086
:1051C0000A4FEFF0900A4FE0FFEF4410FF900A4FB4
:1051D000EFF0804C900A4FE0FFEF30E427900A4F49
:1051E000E0FFEF20E51E900A4FE0FFEF4420FF9024
:1051F0000A4FEFF0900A4FE0FFEF4410FF900A4F84
:10520000EFF0801C900A4FE0FFEF4420FF900A4F20
:10521000EFF0900A4FE0FFEF54EFFF900A4FEFF0EE
:10522000900CF4E4F0900A4BE0FFEF54FDFF900A7D
:105230004BEFF0900A4BE0FFEF30E107900CF4E009
:1052400004F022900CF4E0FF7E00D3EF94C8EE64EB
:105250008094805005900A4BE0FF22900B31121A87
:105260009400000000900B35121A9400000000908A
:105270000ABC1219FB900B35121A17C3121994505D
:105280006943CF10900B351219FBEF2400FFEE3469
:1052900086FEED3400FDEC3400FC127859900B3999
:1052A000EFF0900B311219FBC004C005C006C00717
:1052B0007B017A0B7939900BBB121A940000000124
:1052C000D007D006D005D0041267A0900B31121A77
:1052D00088900B351219FB7B017A00790078001257
:1052E000186E900B35121A888085900AC71219FB28
:1052F000900B31121A17C31219947075900ABC12D0
:1053000019FB900B25121A88900AC71219FB900BF3
:1053100029121A88900AC0E0FF900B21EFF0900A42
:10532000C1E0FF900B22EFF0900AC2E0FF900B2348
:10533000EFF0900AC3E0FF900B24EFF0900B2D12DA
:105340001A94A55A0FF07B017A0B7921C003C00291
:10535000C0017B017A0B7994A801AC02AD03D001A6
:10536000D002D0037E007F101215B21277727F0137
:10537000227F0022900A8E121AD1900C1A7404F027
:10538000900C1B7402F07F007E007D007C00126296
:10539000A97E00EF4E701D900A8E121AD1900C1A41
:1053A0007404F0900C1B7402F07F007E007D007C82
:1053B000001262A9900A8E121AD1758202758300BA
:1053C000121765FFAEF0C3EF94FFEE94FF501690F6
:1053D0000A8BE0FFEF54FDFF900A8BEFF07F007E19
:1053E00000126CA622900A8E121AD1900C1A740424
:1053F000F0900C1B7402F07F007E027D007C001296
:1054000062A97E00EF4E701D900A8E121AD1900C88
:105410001A7404F0900C1B7402F07F007E027D0071
:105420007C001262A9900A8E121AD17582027583CD
:1054300000121765FFAEF0C3EF94FFEE94FF501615
:10544000900A8BE0FFEF4402FF900A8BEFF07F00A1
:105450007E02126CA622900A8BE0FFEF54FDFF90B3
:105460000A8BEFF07F007E02126CA67E007F047D27
:1054700000900A8E121AD1121C1E900A4DE0FFEF06
:105480004440FF900A4DEFF022900BA4121A88902E
:105490000BA9E5F4F0A2AFE433A3F0AFDFA3E4F08F
:1054A000A3EFF0C2AFE4FFFE7D01FC900BA4E0F897
:1054B000A3E0F9A3E0FAA3E0FBC312199440787FBC
:1054C000007E807D017C00900BA4E0F8A3A3A3E004
:1054D000121994501DE5DF54CF4420F5DF900BA442
:1054E000E0FCA3E0FDA3E0FEA3E02400FFEE348097
:1054F0008034E4FFFE7D02FC900BA4E0F8A3E0F909
:10550000A3E0FAA3E0FBC31219945033E5DF54CFB4
:105510004430F5DF900BA4E0FCA3E0FDA3E0FEA384
:10552000E02400FFE43EFEED34FFFDEC34FFFC9090
:105530000BA4121A888008E5DF54CF4410F5DFE48D
:10554000F5F4900BA8E0F5F5900BA4E0FCA3E0FDCA
:10555000A3E0FEA3E0FF78081219A58FF3900BA437
:10556000A3A3A3E0F5F275F1F075F61043F602007F
:1055700000000080050000000000900BA9E0F5F499
:10558000900BABA3E0F5DF900BAAE024FF92AF22D3
:10559000900C40121A88E598542FFF900C48E0FEBA
:1055A000EF4EFF900C4AE0FEEF4EF598900C48E06D
:1055B000FF7E00EF4E70337F007E007D007C009008
:1055C0000C44121A17C312199470045398DF227FE7
:1055D000017E007D007C00900C44121A17C3121942
:1055E00094600302569243982022E5C854CFFF905E
:1055F0000C49E0FEEF4EF5C8900C49E0FF7E00EF4D
:105600004E7040900C44121A17900C401219FB1265
:1056100018B77B007A01790078001218B78F8D9047
:105620000C44121A17900C401219FB1218B7EF54C1
:10563000FFFFEE5400FEED5400FDEC5400FC8F8B98
:10564000C28E22900C49E0FF7E00EF64304E704223
:1056500075CE02900C44121A17900C401219FB12CE
:1056600018B77B007A01790078001218B78FCB90B9
:105670000C44121A17900C401219FB1218B7EF5471
:10568000FFFFEE5400FEED5400FDEC5400FC8FCA09
:10569000D2CA22900BA4121A88900BA8E5F4F0A2AB
:1056A000AFE433A3F0AFDFA3E4F0A3EFF0C2AFE4C5
:1056B000FFFE7D01FC900BA4E0F8A3E0F9A3E0FA63
:1056C000A3E0FBC312199440787F007E807D017CAB
:1056D00000900BA4E0F8A3A3A3E0121994501DE5D9
:1056E000DF54CF4420F5DF900BA4E0FCA3E0FDA342
:1056F000E0FEA3E02400FFEE34808034E4FFFE7D72
:1057000002FC900BA4E0F8A3E0F9A3E0FAA3E0FB0D
:10571000C31219945033E5DF54CF4430F5DF900BBA
:10572000A4E0FCA3E0FDA3E0FEA3E02400FFE43E30
:10573000FEED34FFFDEC34FFFC900BA4121A8880C0
:1057400008E5DF54CF4410F5DFE4F5F4900BA4E056
:10575000FCA3E0FDA3E0FEA3E0FF78081219A58FEB
:10576000F3900BA4A3A3A3E0F5F275F1F075F62076
:1057700043F6020000000080050000000000900BCE
:10578000A8E0F5F4900BAAA3E0F5DF900BA9E024C4
:10579000FF92AF22C0E0C0F0C083C082C0D075D0FD
:1057A00000C000C001C002C003C004C005C006C0E4
:1057B0000753B7BFE5B720E50302586EC2AF7B00C1
:1057C0007D047F001240A97B007D107F001240A95C
:1057D0007B007D087F041240A97B007D047F0412BA
:1057E00040A97B007D027F041240A97B007D807F61
:1057F000031240A97B007D207F031240A97B007D1E
:10580000107F031240A97B007D087F031240A97B13
:10581000007D047F031240A97B007D027F031240BC
:10582000A97B007D017F011240A97B007D047F01DF
:105830001240A97B007D107F011240A97B007D20D2
:105840007F021240A97B007D407F021240A97B00AD
:105850007D807F021240A97B007D017F001240A95C
:105860007B007D027F001240A9126168D2AFD00791
:10587000D006D005D004D003D002D001D000D0D0C3
:10588000D082D083D0F0D0E032900BA6EFF0F912A6
:1058900047DC124923900BA7F0A3EFF0AF0112727F
:1058A000EAAD07AC06900BA7E0FEA3E0FFD39DECAA
:1058B0006480F8EE6480985014C3E49DFBE49CFA85
:1058C000C3EF9BEA6480F8EE648098500E900BA6BC
:1058D000E0FF1247ED1248E102596DECA2E713FE1A
:1058E000ED13FF900BA7E0FAA3E0FBD31249705031
:1058F00016ECA2E713FEED13FFC3E49FFFE49EFE48
:10590000C3EB1249705023124872E0FAA3E0FBEA9D
:10591000C313FEEB13FFC3EB9FFBEA9EFAED1247A6
:10592000EDE0C313FEA3E0138032124872E0FAA345
:10593000E0FBAE027803CEC313CE13D8F9FFC3EB5E
:105940009FFBEA9EFA75F002ED900B04121AC5E077
:10595000FEA3E07803CEC313CE13D8F92BFFEA3EA3
:10596000FE900BA6E0124877EEF0A3EFF0900BA6A6
:105970001247DCECF0A3EDF022900B74121AF190B8
:1059800001A8E0FF7E00EF4E60399001A8E0FF7EA5
:1059900000EF64034E602C900B74121AD1C003C048
:1059A00002C001900B81121AD189828A83D001D062
:1059B00002D003121C1C9001A8E4F09001A9E4F0AD
:1059C000A3E4F09001A8E0FF7E00EF64034E705F57
:1059D0009001ADE4F0A3E4F09001A87401F07B0124
:1059E0007A0179AFC003C002C001900B77121AD1BF
:1059F000900CAF121AF1D001D002D003126F0AEF4F
:105A000060037F02227B017A0179AFC003C002C02C
:105A100001900B7A121AD1900CAF121AF1D001D06A
:105A200002D003126F0AEF60037F03227F002290EF
:105A300001A9E0FEA3E0FFE4FCFD900B7D121A1724
:105A4000C3121994500E9001A9E4F0A3E4F0900160
:105A5000A87401F07F00227B027D047F001240A920
:105A60007B027D107F001240A97B017D207F001208
:105A700040A97B027D087F051240A97B027D087F3B
:105A8000041240A97B027D047F041240A97B027DA1
:105A9000027F041240A97B027D807F031240A97B14
:105AA000027D207F031240A97B027D107F031240FC
:105AB000A97B027D087F031240A97B027D047F033E
:105AC0001240A97B027D027F031240A97B027D0167
:105AD0007F011240A97B027D047F011240A97B0255
:105AE0007D107F011240A97B027D207F021240A918
:105AF0007B027D407F021240A97B027D807F0212E3
:105B000040A97B027D017F001240A97B027D027FBC
:105B1000001240A97B027D407F011240A97B027DDB
:105B2000407F031240A922900A4BE0FFEF30E613BA
:105B3000900A4BE0FFEF54BFFF900A4BEFF07F025B
:105B4000125E25900A54E0FFEF30E513900A54E00E
:105B5000FFEF54DFFF900A54EFF07F13125E2590A1
:105B60000A54E0FFEF30E413900A54E0FFEF54EFE3
:105B7000FF900A54EFF07F14125E25900A54E0FF64
:105B8000EF30E113900A54E0FFEF54FDFF900A5408
:105B9000EFF07F15125E25900A54E0FFEF30E2131C
:105BA000900A54E0FFEF54FBFF900A54EFF07F1689
:105BB000125E25900A54E0FFEF30E013900A54E0A3
:105BC000FFEF54FEFF900A54EFF07F17125E25900E
:105BD0000A54E0FFEF30E313900A54E0FFEF54F76C
:105BE000FF900A54EFF07F18125E2522900A48E0D9
:105BF000FF7E00C3EF940AEE648094805003025C41
:105C0000AD900B3CE0FF7E00C3EF9405EE64809402
:105C1000805008900B3CE004F08005900B3CE4F0D1
:105C2000900A48E4F07B017A0979E8124EE6AC0666
:105C3000AD07E41214287B687AE8799F783A12124B
:105C400004900A38121A887B017A0979FC124EE610
:105C5000AC06AD07E41214287B687AE8799F783A9D
:105C6000121204900A3C121A887B017A0A791012E7
:105C70004EE6AC06AD07E41214287B687AE8799FFB
:105C8000783A121204900A40121A887B017A0A7933
:105C900024124EE6AC06AD07E41214287B687AE8BD
:105CA000799F783A121204900A44121A8822900DB1
:105CB00045E4F0A3E4F0900D47E4F01277FA900C7D
:105CC000C8121A94000086007F007E107D007C00C0
:105CD0001271A3900D45E4F0A3E4F0900D45E0FEB1
:105CE000A3E0FFE4FCFD900AB0121A17D312199436
:105CF000405843CF10900D45E0FEA3E0FFE4FCFDCB
:105D0000EF2400FFEE3486FEED3400FDEC3400FCA1
:105D1000127859900D47EFF0900D45E0FEA3E0FF9B
:105D2000EF2400FFEE3410FEE4FCFD900D47E0FB95
:105D3000900D10EBF0127728EF70037F0022900D8A
:105D400045E475F00112170E8091900C39E4F0A330
:105D50007410F07B017A0A79AC900C3B121AF17F37
:105D6000F07E857D007C001266977F0122900C4BAF
:105D7000EEF0A3EFF0900C4D121AF1900C5074FF5E
:105D8000121A55EC4D4E4F7003025E1C900C4BE006
:105D9000FCA3E0FD900C4DE475F001121ADA121527
:105DA000D8FF7E00EF7F00FEEC6EFEED6FFF900CE3
:105DB0004BEEF0A3EFF0900C54E4F0900C54E0FFA5
:105DC0007E00C3EF9408EE6480948050AE900C4B3C
:105DD000E0FEA3E0FFEE30E721900C4BE0FEA3E0F5
:105DE000FFEF25E0FFEE33FEEE6410FEEF6421FFCF
:105DF000900C4BEEF0A3EFF08017900C4BE0FEA35D
:105E0000E0FFEF25E0FFEE33FE900C4BEEF0A3EF4A
:105E1000F0900C54E004F080A2025D7B900C4BE00B
:105E2000FEA3E0FF22900D77EFF0900A49E0FF7E9D
:105E300000C3EF9414EE648094804005900A49E416
:105E4000F0900D78E4F0900A49E0FF900D78E0FEC4
:105E5000EED39F5063900D78E0FF74692FF582E4D4
:105E6000340AF583E0FF900D77E0FEEE6F7041900D
:105E70000D77E0FF7E00EF64154E6034900D77E003
:105E8000FF7E00EF64164E6027900D77E0FF7E00E6
:105E9000EF64174E601A900D77E0FF7E00EF6418F4
:105EA0004E600D900D77E0FF7E00EF64144E70247D
:105EB000900D78E004F0808E900D77E0FF900A4915
:105EC000E0FE74692EF582E4340AF583EFF0900A5F
:105ED00049E004F022900C1FEEF0A3EFF0900C21AB
:105EE000121AF1900C21121AD1900C27121AF1906B
:105EF0000C25E4F0900C24E0FF900C25E0FEEEC3AE
:105F00009F5078900C25E0FF7E00900C1FE0FCA3D2
:105F1000E0FDEF2DFFEE3CFE900C27121AD1900C05
:105F200025E0FD8D827583001215F1FD126C439002
:105F30000C25E0FF7E00900C1FE0FCA3E0FDEF2DA0
:105F4000FFEE3CFEE4FCFD900CD07402F0126E0FEC
:105F5000900C26EFF0900C27121AD1900C25E0FF40
:105F60008F827583001215F1FF900C26E0FEEEB5CE
:105F70000791900C25E004F0025EF47F0122900D61
:105F80005AEFF0900D5BEDF0900D5CEBF0900D5A38
:105F9000E0FFEF121BF25FA6005FB4025FD6035F63
:105FA000FC0400006021900D5BE0FF900D5CE0FDC3
:105FB00012750122900D5BE0FF7E00EF4E7004C26F
:105FC000AD8002D2AD900D5CE0FF7E00EF4E70031D
:105FD000C2BD22D2BD22900D5BE0FF7E00EF4E706D
:105FE0000553A9BF800343A940900D5CE0FF7E00EC
:105FF000EF4E700453B9BF2243B94022900D5BE0CD
:10600000FF7E00EF4E700553A97F800343A9809067
:106010000D5CE0FF7E00EF4E700453B97F2243B960
:106020008022900D4BEFF0900D4CEDF0900D4BE079
:10603000FFEF54F0FF7E00EF4E7042900D4CE0FFFA
:106040007E00EF64014E7019900D4BE0FFEF540F8E
:10605000FFA8077401088002C333D8FCFFEF42D3C6
:1060600022900D4BE0FFEF540FFFA807740108804A
:1060700002C333D8FCFFEFF4FFEF52D322900D4B55
:10608000E0FFEF54F0FFEFC4540FF5CE900D4BE05E
:10609000FFEF30E008900D4D7420F08006900D4D1C
:1060A0007410F0900D4CE0FF7E00EF64014E70091B
:1060B000900D4DE0FFEF42C922900D4DE0FFEFF44F
:1060C000FFEF52C922900C87121A88900C8FE5F4CA
:1060D000F0A2AFE433FF900C90EFF0900C90E0FF53
:1060E0007E00EF4E6002C2AF900C8DE4F0900C8CFD
:1060F000E0FF7E00EF4E7015900C871219FB900C9C
:106100008BE0FB900BA8EBF0125489801B900C8C59
:10611000E0FF7E00EF64024E700E900C871219FBB8
:10612000900C8BE0FD126C43900C871219FB900CC5
:106130008CE0FB900CD0EBF0126E0F900C8EEFF019
:10614000900C8FE0FF8FF4900C90E0FF7E00EF4EFC
:106150006002D2AF900C8BE0FF900C8EE0FEEE6FF1
:1061600060037F00227F0122900A8BE0FFEF20E195
:1061700072900A8E121AD1758202758300E475F04E
:10618000011217D5900A8E121AD1900C247404F0C3
:106190007F007E00125ED57E00EF4E706C900A8EFE
:1061A000121AD1900C247404F07F007E00125ED588
:1061B0007E00EF4E7053900A8E121AD1900C247408
:1061C00004F07F007E00125ED57E00EF4E703A90A4
:1061D0000A8E121AD1900C247404F07F007E0212F1
:1061E0005ED522900A8E121AD1758202758300E460
:1061F00075F000121841900A8E121AD1900C247476
:1062000004F07F007E02125ED522900A4EE0FF7EEF
:1062100000EF4E7005C2B3C2B522D2B7D2B4D2B22B
:10622000D2B1900A4FE0FFEF30E33F900A4FE0FF1A
:10623000EF54F7FF900A4FEFF0D2B3C2B5900A4E79
:10624000E0FFEF30E402C2B7900A4EE0FFEF30E526
:1062500002C2B4900A4EE0FFEF30E602C2B2900AEA
:106260004EE0FFEF30E741C2B122900A4FE0FFEF6E
:106270004408FF900A4FEFF0C2B3D2B5900A4EE047
:10628000FFEF30E002C2B7900A4EE0FFEF30E102CC
:10629000C2B4900A4EE0FFEF30E202C2B2900A4E62
:1062A000E0FFEF30E302C2B122900C13121A889083
:1062B0000C17121AF1900C1EE5F4F0A2AFE433FFB4
:1062C000900C1DEFF0900C1DE0FF7E00EF4E600281
:1062D000C2AF900C1BE0FF8FF4900C1CE4F0900C0C
:1062E000131219FB8F828E83E493FF900C17121AFE
:1062F000D1900C1CE0FE8E82758300EF1216859003
:106300000C131219FB7B017A007900780012186EC9
:10631000900C13121A88900C1AE0FF900C1CE004E9
:10632000FEF0EEC39F40B7900C1EE0FF8FF4900C80
:106330001DE0FF7E00EF4E6002D2AF900C1CE0FF2C
:1063400022900B64121A88900B68121AF1900B6459
:106350001219FB900B6F121A88125015900B6B7468
:10636000FF121A55EC4D4E4F6066900B6F1219FBE1
:10637000EF54FFFFEE5400FEED5400FDEC5400FC22
:10638000900B73EFF0900B6F1219FB78081219A5A0
:10639000900B6F121A88900B6F1219FB900B6812FA
:1063A0001AD11215D8FB900B73E0FAEA6BFB75F06B
:1063B00004EB9004B4121AC5121A17121956900B56
:1063C0006F121A88900B69E475F00112170E808C19
:1063D000900B6F1219FB22900D38EFF0900D39EDF4
:1063E000F0900D38E0FF7E00C3EF941FEE648094C0
:1063F000805065900D38E0FF7E007401A80708808A
:1064000005C333CE33CED8F9FF900D3AEEF0A3EFAB
:10641000F0900D39E0FF7E00EF4E7022900D3AE0D3
:10642000FEA3E0FFEFF4FFEF52AB900D3AE0FEA3C6
:10643000E0FFEEFF7E00EFF4FFEF52AC801A900D0C
:106440003AE0FEA3E0FFEF42AB900D3AE0FEA3E09E
:10645000FFEEFF7E00EF42ACE5AD54E0FF900D385B
:10646000E0FEEF4EF5AD22900DA8EFF0900A53E05C
:10647000FFEF30E345900DA8E0FF7E00EF4E701D6A
:10648000900A651219FBEF2458FFEE3402FEED343A
:1064900000FDEC3400FC900A65121A8822900A6113
:1064A0001219FBEF2458FFEE3402FEED3400FDEC30
:1064B0003400FC900A61121A8822900DA8E0FF7E39
:1064C00000EF4E7018900A651219FB7B017A007973
:1064D00000780012186E900A65121A8822900A61DC
:1064E0001219FB7B017A007900780012186E900A6D
:1064F00061121A8822900DA9EFF0900A53E0FFEF85
:1065000030E345900DA9E0FF7E00EF4E701D900A2C
:106510005D1219FBEF2480FFEE3451FEED3401FDD6
:10652000EC3400FC900A5D121A8822900A59121964
:10653000FBEF2480FFEE3451FEED3401FDEC34001E
:10654000FC900A59121A8822900DA9E0FF7E00EFF4
:106550004E7018900A5D1219FB7B017A0079007861
:106560000012186E900A5D121A8822900A591219A8
:10657000FB7B017A007900780012186E900A59129C
:106580001A8822C2AF75FEC1AFFFD2AFEF5430FD03
:106590007C0070047920801CED64104C700479102C
:1065A0008012ED64204C700479088008ED64304C52
:1065B00070027904E924F8601824F8602024F0605F
:1065C00028241C7030900BA67401F0A374F4F080A2
:1065D00026900BA67403F0A374E8F0801A900BA623
:1065E0007407F0A374D0F0800E900BA6740FF0A384
:1065F00074A0F08002E4F9900BA6E07002A3E060C2
:106600000C900BA674FFF5F012170E80EA2275FEAF
:106610008543FF2053DB7FD2AFC209E4900CA1F089
:10662000900B16F0126D60E4FF127088EF2401FDEC
:10663000E433FC7E0F7FA01216B9900C9CEEF0A301
:10664000EFF0E4FF1278B41249117F02127088EF64
:10665000C454F0FEC006E4FF127088D0E02FF5E1CC
:106660007F03127088E5E254804FF5E27F041270D8
:1066700088EF6008E5E254804480F5E27F01127003
:10668000888FE31273E543A910900B02E04480F574
:10669000E8126A9202783A900C35121A88900C3EF1
:1066A000E4F0A3E4F0900C39E0FEA3E0FF900C3E90
:1066B000E0FCA3E0FDC3ED9FEE6480F8EC648098FD
:1066C0005057900C3EE0FEA3E0FFEE3395E0FDFC5A
:1066D000900C35121A1712186EC004C005C006C0FF
:1066E00007900C3B121AD1900C3EE0FEA3E0FF8F06
:1066F000828E831215F1FF900D10EFF0D007D006B7
:10670000D005D004127728EF70037F0022900C3E52
:10671000E475F00112170E808C7F0122900A4AE086
:10672000FF7E00C3EF9414EE64809480401D900AB5
:106730004AE4F0900A4AE0FF74692FF582E4340AD3
:10674000F583E0FF900DA7EFF0804F900A49E0FF3E
:10675000900A4AE0FEEEC39F4012900A4AE4F0908D
:106760000A49E4F0900DA774FFF0802E900A4AE0E9
:10677000FF74692FF582E4340AF583E0FF900DA7DA
:10678000EFF0900A4AE0FF74692FF582E4340AF5CD
:106790008374FFF0900A4AE004F0900DA7E0FF2216
:1067A000900BB4121A88900BB8121AF1900BBF120A
:1067B0001A9400000000900BBB1219FB900BBF1243
:1067C0001A17C31219945052900BB41219FBC0043B
:1067D000C005C006C007900BBF1219FB900BB81282
:1067E0001AD18F828E831215F1FFAB07E4FAF9F804
:1067F000D007D006D005D00412186E900BB4121A30
:1068000088900BBF1219FB7B017A00790078001287
:10681000186E900BBF121A88809C900BB41219FB53
:1068200022900BAEEFF0127988900BAFEFF0126868
:1068300096900C9DE025E0FF900C9CE033FE7C00E0
:106840001248BF1247F0E0FAA3E0C39FEA9E500946
:10685000900BAFE0603F14802D126896900C9CE086
:10686000FEA3E0FF7C007D071216A71248BF124866
:106870000FE0FAA3E0D39FEA9E401A900BAFE0FF2F
:10688000647E6011EF04FF74122DF582E4340BF581
:1068900083EFF0D20922900BAEE0FF1278B4EFFB49
:1068A00022900D48EFF0900D49ECF0A3EDF0900D23
:1068B00048E0FFEF540FFF7E00EF4E7039900D4916
:1068C00074FF75F0FF12170E900D48E0FFEF54F0C3
:1068D000FFE5D254CFFEEE4FF5D2900D49E0FEA376
:1068E000E0FFEEFF7E008FD5900D49E0FEA3E0FFB4
:1068F000EF54FFF5D422900D48E0FFEF540FF5CE92
:10690000900D48E4F0900D49E0FEA3E0FFEEFF7E1D
:10691000008FCB900D49E0FEA3E0FFEF54FFF5CAD6
:1069200022900CDBEEF0A3EFF0900CDD121AF19048
:106930000CE0E0FEA3E0FF900CDBE0FCA3E0FDED4B
:106940002FFFEC3EFEE4FCFD7BF07A7579007800C9
:10695000C312197E50037F0022900CDBE0FEA3E0FF
:10696000FFE4FCFDEF2400FFEE3486FEED3400FD75
:10697000EC3400FC900CE0E0FAA3E0FB900C39EA68
:10698000F0A3EBF0900CDD121AD1900C3B121AF12F
:106990001266977E00EF4E70037F00227F012290E7
:1069A0000DA2EFF0900DA2E0FF900019121AD19005
:1069B0000015E0FCA3E0FD8D828C83EF121685901C
:1069C0000015E475F00112170E900017E475F00140
:1069D00012170E900019121AD11215D8FF7E00EF6F
:1069E00064184E6012900019121AD11215D8FF7E49
:1069F00000EF64044E7008900015E4F0A3E4F090FA
:106A00000015E0FEA3E0FFC3EF9485EE940040087C
:106A1000900015E4F0A3E4F022D292D290D2B3D247
:106A2000B5C2B7C2B4C2B2C2B17DD07C077F021278
