:10000000021100300003021003210330000302102C
:100010000B210B30000302101321133000030210D8
:100020001B211B3000030210232123300003021088
:100030002B212B3000030210332133300003021038
:100040003B213B30000302104321433000030210E8
:100050004B214B3000030210532153300003021098
:100060005B215B3000030210632163300003021048
:100070006B216B30000302107321733000030210F8
:100080007B217B30000302108321833000030210A8
:100090008B218B3000030210932193300003021058
:1000A0009B219B3000030210A321A3300003021008
:0300B000AB21ABD6
:10100000D2EE22021046C284D282220246C2D2848A
:10101000C2822202104EC294D2A522021052D29451
:10102000C2A5220259BEC2A6D2A72202105AD2A637
:10103000C2A722021056C280D28122021062D28040
:10104000C2812202106A5388FD3222021071538835
:10105000F7323202107253ADDF323202646112672E
:10106000C222320247C77520FF2232021079A2093C
:1010700022323202107AD2092232320210817F01EA
:10108000223232026156AFC722323202108222224D
:03109300021089BF
:10109B0002108A900DEAEFF0900DEBECF0A3EDF05F
:1010AB00900DEAE0FFEF54F0FF7E00EF4E702253FD
:1010BB00D2FD900DEBE0FEA3E0FF900DEAE0FDED1D
:1010CB0025E02440F582E43420F583EEF0A3EFF025
:1010DB0022900DEBE0FEA3E0FF900DEAE0FDED5456
:1010EB000FFDED25E02434F582E43420F583EEF09A
:0410FB00A3EFF0224D
:1011000078FFE4F6D8FD9000007F007E01E4F0A3B4
:10111000DFFCDEFA75812A021155023E8CE493A3AE
:10112000F8E493A34003F68001F208DFF48029E499
:1011300093A3F85407240CC8C333C4540F4420C8E5
:10114000834004F456800146F6DFE4800B0102047C
:10115000081020408090385EE47E019360BCA3FFBD
:10116000543F30E509541FFEE493A360010ECF54B1
:10117000C025E060A840B8E493A3FAE493A3F8E4A0
:1011800093A3C8C582C8CAC583CAF0A3C8C582C80C
:10119000CAC583CADFE9DEE780BE900D90EFF0900C
:1011A0000D91ECF0A3EDF0900D93EAF0A3EBF0902D
:1011B0000D90E0FFEF121D0411C80011D40111E0E1
:1011C0000211EC03000011FF900D91E0FEA3E0FF7F
:1011D00012661B22900D91E0FEA3E0FF12664622EC
:1011E000900D91E0FEA3E0FF12681322900D91E0B4
:1011F000FEA3E0FF900D93E0FCA3E0FD1267A622A2
:10120000202304140215C5E86480F8E933E833604C
:10121000110460F0ED33EC337009E8FCE9FDEAFEFF
:10122000EBFF220460DED3EB9FEA9EE99DE8C2E774
:101230008CF0C2F795F0400CE8CCF8E9CDF9EACE95
:10124000FAEBCFFB12159085D0F05804700320D52F
:10125000B3E80470075002B2D50215CF92D5EC0462
:1012600060F7E4CCC0E0C398F8603B941860084095
:101270000DD0E0FB0215A7E4FBFAC9FC8028E8309A
:10128000E406E4C9FBE4CAFCE830E305E4C9CACBE0
:10129000FCE854076010F8C3E913F9EA13FAEB13FA
:1012A000FBEC13FCD8F130F52FC3E49CFCEF9BFF63
:1012B000EE9AFEED99FDD0E0FBEF4E4D4C70122200
:1012C000DB030215CCEC2CFCEF33FFEE33FEED33E9
:1012D000FDED30E7EB0215A7EF2BFFEE3AFEED39FF
:1012E000FDD0E0FB50130BBB00030215CFED13FD47
:1012F000EE13FEEF13FFEC13FC0215A7EC4D60118B
:10130000E8497017ED33EC3304600DE4FCFFFEFD9B
:1013100022E933E8330470F80215C5121590580419
:101320006009E4CC248150062850090215CF2840DA
:10133000030215CCC0E0EB4A7044B98006D0E0FB54
:101340000215BBEF4E701CBD8008EBFFEAFEE9FD05
:1013500080EBE98DF0A4FEE5F00213E5E9CDF9EAB2
:10136000FEEBFFEF89F0A4FCE5F0CE89F0A42EFFA0
:10137000E435F0CD89F0A42DFEE435F08067EF4E22
:101380007005BD80D780C3EF8BF0A4ACF0EE8BF07E
:10139000A42CFCE435F0F8EF8AF0A42CE5F038FC3E
:1013A000E433CB8DF0A42CFCE5F03BF8EE8AF0A4FE
:1013B0002CFCE5F038F8E433CF89F0A42CFCE5F000
:1013C00038CF3400CE89F0A42FFFE5F03EFEE433A1
:1013D000C98DF0A42EFEE5F039CD8AF0A42FFFE5EB
:1013E000F03EFEE43DFD33D0E0FB50070BBB000FA9
:1013F0000215CFEC2CFCEF33FFEE33FEED33FD0294
:1014000015A70215CFEC5D046005E85904700302CE
:1014100015C5121590580460F6EC4860F2EC7004A3
:10142000FDFEFF22C860DB2481C85009C39860021A
:1014300050060215CC9850CAF582E9294B4A70052E
:10144000AB820215BB75F0007C1A7880C3EF9BEE6F
:101450009AED99400DC3EF9BFFEE9AFEED99FDE8E2
:1014600042F0DC23ACF0D0E0FFD0E0FED0E0FDABFA
:101470008220E7101BEB60BAEC2CFCEF33FFEE335D
:10148000FEED33FD0215A7E803F830E705C0F0755F
:10149000F000EF2FFFEE33FEED33FD40B830E7C232
:1014A00080AA74F8CC6480CCC86480C8F5820460DB
:1014B0004FC3EB9FF5F0EA9E42F0E99D42F0E89CB5
:1014C00045F0603C501DE5825FFFE582D313CB5BA6
:1014D000CBF42B5582FB50280ABA002409B900200E
:1014E00008801DE5825BFBE582D313CF5FCFF4C399
:1014F000132F5582FF50090EBE00050DBD00010CD3
:10150000C3EB9FF5F0EA9E42F0E99D42F0E89C456E
:10151000F06007CC4820E701B3EC2275F020800E84
:1015200075F010800575F0087D007E007F00339215
:10153000D530D503121A68EC334010EF33FFEE3389
:10154000FEED33FDEC33FCD5F0ED22E5F0247EA278
:10155000D513CC92E7CDCEFF22EDD2E7CD33EC33DD
:1015600092D524814006E4FFFEFDFC22FCE4CFCEB0
:10157000CDCC24E0501174FF80EDC3CC13CCCD133F
:10158000CDCE13CECF13CF0470F030D5DE021A6863
:10159000E9D2E7C933E833F892D5EDD2E7CD33ECA1
:1015A00033FC5002B2D522EC30E7100FBF000C0E16
:1015B000BE00080DBD00040BEB6014A2D5EB13FCBC
:1015C000ED92E7FD2274FFFCFDFEFF22E480F8A20D
:1015D000D574FF13FC7D80E480EFE709F608DFFA9D
:1015E0008046E709F208DFFA803E88828C83E709AB
:1015F000F0A3DFFA8032E309F608DFFA8078E30926
:10160000F208DFFA807088828C83E309F0A3DFFAA6
:10161000806489828A83E0A3F608DFFA8058898291
:101620008A83E0A3F208DFFA804C80D280FA80C679
:1016300080D4806980F28033801080A680EA809A0E
:1016400080A880DA80E280CA803389828A83ECFABB
:10165000E493A3C8C582C8CCC583CCF0A3C8C58217
:10166000C8CCC583CCDFE9DEE7800D89828A83E4BC
:1016700093A3F608DFF9ECFAA9F0EDFB2289828A40
:1016800083ECFAE0A3C8C582C8CCC583CCF0A3C85C
:10169000C582C8CCC583CCDFEADEE880DB89828ADC
:1016A00083E493A3F208DFF980CC88F0EF60010EA9
:1016B0004E60C388F0ED2402B4040050B9F582EB0B
:1016C0002402B4040050AF232345822390162A73CA
:1016D000BB010689828A83E0225002E722BBFE0218
:1016E000E32289828A83E49322BB010CE58229F5F7
:1016F00082E5833AF583E0225006E92582F8E62266
:10170000BBFE06E92582F8E222E58229F582E5831F
:101710003AF583E49322BB010989828A83F8E028A1
:10172000F022500327F722BBFE05F8E328F3228AB4
:10173000838982F8E4932822BB010FF8E58229F51A
:1017400082E5833AF583E028F0225009C58229F822
:10175000E58226F622BBFE09C58229F8E22582F23F
:1017600022F8EA2583F583E9932822BB01068982C2
:101770008A83F0225002F722BBFE01F322F8BB015C
:101780000DE58229F582E5833AF583E8F0225006DB
:10179000E92582C8F622BBFE05E92582C8F222EFC0
:1017A0008DF0A4A8F0CF8CF0A428CE8DF0A42EFE4E
:1017B00022BC000BBE0029EF8DF084FFADF022E4C7
:1017C000CCF875F008EF2FFFEE33FEEC33FCEE9D06
:1017D000EC984005FCEE9DFE0FD5F0E9E4CEFD222D
:1017E000EDF8F5F0EE8420D21CFEADF075F008EFB8
:1017F0002FFFED33FD4007985006D5F0F222C39835
:10180000FD0FD5F0EA22C5F0F8A3E028F0C5F0F806
:10181000E582158270021583E038F022A3F8E0C556
:10182000F025F0F0E582158270021583E0C838F0EB
:10183000E822BB010A89828A83E0F5F0A3E0225006
:101840000687F009E71922BBFE07E3F5F009E31963
:101850002289828A83E493F5F074019322BB0110FC
:10186000E58229F582E5833AF583E0F5F0A3E022ED
:101870005009E92582F886F008E622BBFE0AE92530
:1018800082F8E2F5F008E222E5832AF583E993F590
:10189000F0A3E99322BB010789828A8302180650CC
:1018A0000B09C5F027F7C5F01937F722BBFE0D0964
:1018B000F8E325F0F3C5F019E338F322F889828ABA
:1018C0008374019325F0C5F0F8E4933822BB010D31
:1018D000C58229C582C5833AC5830218065011C541
:1018E0008229F808E5F026F618F5F0E58236F622AA
:1018F000BBFE11C58229F808E225F0F5F0F218E2E6
:101900003582F222F8E58229F582E5832AF583748F
:10191000019325F0F5F0E4933822BB010A89828A0D
:1019200083F0E5F0A3F0225006F709A7F01922BBD7
:10193000FE06F3E5F009F31922F8BB0111E582294F
:10194000F582E5833AF583E8F0E5F0A3F02250094B
:10195000E92582C8F608A6F022BBFE09E92582C85F
:10196000F2E5F008F222EF2BFFEE3AFEED39FDEC46
:1019700038FC2275F008758200EF2FFFEE33FECDA4
:1019800033CDCC33CCC58233C5829BED9AEC99E53F
:101990008298400CF582EE9BFEED9AFDEC99FC0FCF
:1019A000D5F0D6E4CEFBE4CDFAE4CCF9A88222B897
:1019B00000C1B90059BA002DEC8BF084CFCECDFC1C
:1019C000E5F0CBF97818EF2FFFEE33FEED33FDECA9
:1019D00033FCEB33FB10D703994004EB99FB0FD892
:1019E000E5E4F9FA227818EF2FFFEE33FEED33FD30
:1019F000EC33FCC933C910D7059BE99A4007EC9B2F
:101A0000FCE99AF90FD8E0E4C9FAE4CCFB2275F0BE
:101A100010EF2FFFEE33FEED33FDCC33CCC833C8CF
:101A200010D7079BEC9AE899400AED9BFDEC9AFCD5
:101A3000E899F80FD5F0DAE4CDFBE4CCFAE4C8F984
:101A400022EF5BFFEE5AFEED59FDEC58FC22EF6BE6
:101A5000FFEE6AFEED69FDEC68FC22CFF4CFCEF418
:101A6000CECDF4CDCCF4CC22C3E49FFFE49EFEE4C3
:101A70009DFDE49CFC22EB9FF5F0EA9E42F0E99D7F
:101A800042F0EC6480C864809845F022EB9FF5F04A
:101A9000EA9E42F0E99D42F0E89C45F022E8600FA2
:101AA000ECC313FCED13FDEE13FEEF13FFD8F12290
:101AB000E8600FEFC333FFEE33FEED33FDEC33FC94
:101AC000D8F122BB010DE58229F582E5833AF58341
:101AD000021B0D5007E92582F8021D5CBBFE07E9D9
:101AE0002582F8021D68E58229F582E5833AF583AF
:101AF000021B19BB010789828A83021B9A5005E9E0
:101B0000F8021D9EBBFE05E9F8021DAA22E0FCA317
:101B1000E0FDA3E0FEA3E0FF22E493FC740193FD4B
:101B2000740293FE740393FF22E0F8A3E0F9A3E0AC
:101B3000FAA3E0FB22BB010DE58229F582E5833A99
:101B4000F583021B295007E92582F8021D74BBFEAC
:101B500007E92582F8021D81E58229F582E5833AAD
:101B6000F583021D8E7401FF3395E0FEFDFCA3A3F7
:101B7000A3E0CF2FF0E582158270021583E0CE3E00
:101B8000F0E582158270021583E0CD3DF0E5821507
:101B90008270021583E0CC3CF022ECF0A3EDF0A3C0
:101BA000EEF0A3EFF022A8828583F0D083D08212DA
:101BB0001BBD121BBD121BBD121BBDE473E493A31E
:101BC000C583C5F0C583C8C582C8F0A3C583C5F069
:101BD000C583C8C582C822A42582F582E5F0358375
:101BE000F58322E0FBA3E0FAA3E0F922F8E0FBA3EF
:101BF000A3E0F925F0F0E582158270021583E0FA82
:101C000038F022EBF0A3EAF0A3E9F022BB01078948
:101C1000828A83021BE35005E9F8021DB6BBFE056C
:101C2000E9F8021DC889828A83021DDABB011A897C
:101C3000828A83D0F0D0E0F8D0E0F9D0E0FAD0E0AA
:101C4000FBE8C0E0C0F0021C035016E9F8D083D0D6
:101C500082D0E0F9D0E0FAD0E0FBC082C083021D60
:101C6000BFBBFE16E9F8D083D082D0E0F9D0E0FA0D
:101C7000D0E0FBC082C083021DD122BB010DE582F2
:101C800029F582E5833AF583021BE35007E92582B3
:101C9000F8021DB6BBFE07E92582F8021DC8E582E1
:101CA00029F582E5833AF583021DDABB0120E5823E
:101CB00029F582E5833AF583D0F0D0E0F8D0E0F959
:101CC000D0E0FAD0E0FBE8C0E0C0F0021C035018FE
:101CD000E92582F8D083D082D0E0F9D0E0FAD0E0D4
:101CE000FBC082C083021DBFBBFE18E92582F8D06D
:101CF00083D082D0E0F9D0E0FAD0E0FBC082C0838C
:101D0000021DD122D083D082F8E493701274019323
:101D1000700DA3A393F8740193F5828883E4737420
:101D200002936860EFA3A3A380DF8A838982E473B0
:101D3000EF4E6012EF60010EEDBB010B89828A83CA
:101D4000F0A3DFFCDEFA2289F05007F709DFFCA9D7
:101D5000F022BBFEFCF309DFFCA9F022E6FC08E65A
:101D6000FD08E6FE08E6FF22E2FC08E2FD08E2FECE
:101D700008E2FF22E6FB08E6F908E6FA08E6CBF8F7
:101D800022E2FB08E2F908E2FA08E2CBF822E49347
:101D9000F8740193F9740293FA740393FB22ECF63E
:101DA00008EDF608EEF608EFF622ECF208EDF20880
:101DB000EEF208EFF222E6FB08E6FA08E6F922EB7B
:101DC000F608EAF608E9F622E2FB08E2FA08E2F988
:101DD00022EBF208EAF208E9F222E493FB740193A1
:101DE000FA740293F92290091AE0FFEF20E11590AE
:101DF000091DE0FF7E00D3EF9400EE6480948050D4
:101E000003021EAF900963E0FFEF4401FF900963F6
:101E1000EFF090091AE0FFEF30E1089009647403D5
:101E2000F0806490091DE0FFEF30E00890096474D1
:101E30001FF0805390091DE0FFEF30E10890096426
:101E40007420F0804290091DE0FFEF30E208900915
:101E5000647421F0803190091DE0FFEF30E30890B9
:101E600009647422F0802090091DE0FFEF30E4083F
:101E70009009647423F0800F90091DE0FFEF30E5B6
:101E8000069009647424F090091AE0FFEF54FDFFF6
:101E900090091AEFF090091DE4F0900969E4F090C0
:101EA0000965E4F0A3E4F0900967E4F0A3E4F0909E
:101EB0000963E0FFEF20E003022215900964E0FFD0
:101EC0007E00EF64014E70537BFF7A697923C00373
:101ED000C002C0017B017A097965900BE7121C03EF
:101EE0007B017A097967900BEA121C037B017A095E
:101EF0007969900BED121C03D001D002D003122996
:101F0000D57E00EF64014E600302221C900963E05D
:101F1000FFEF54FEFF900963EFF022900964E0FFA9
:101F20007E00EF64024E70537BFF7A69794BC003E9
:101F3000C002C0017B017A097965900BE7121C038E
:101F40007B017A097967900BEA121C037B017A09FD
:101F50007969900BED121C03D001D002D003122935
:101F6000D57E00EF64014E600302221C900963E0FD
:101F7000FFEF54FEFF900963EFF022900964E0FF49
:101F80007E00EF64034E70537BFF7A697973C00360
:101F9000C002C0017B017A097965900BE7121C032E
:101FA0007B017A097967900BEA121C037B017A099D
:101FB0007969900BED121C03D001D002D0031229D5
:101FC000D57E00EF64014E600302221C900963E09D
:101FD000FFEF54FEFF900963EFF022900964E0FFE9
:101FE0007E00EF641F4E70537B017A09796AC0034B
:101FF000C002C0017B017A097965900BE7121C03CE
:102000007B017A097967900BEA121C037B017A093C
:102010007969900BED121C03D001D002D003122974
:10202000D57E00EF64014E600302221C900963E03C
:10203000FFEF54FEFF900963EFF022900964E0FF88
:102040007E00EF64204E70537B017A0979A2C003B1
:10205000C002C0017B017A097965900BE7121C036D
:102060007B017A097967900BEA121C037B017A09DC
:102070007969900BED121C03D001D002D003122914
:10208000D57E00EF64014E600302221C900963E0DC
:10209000FFEF54FEFF900963EFF022900964E0FF28
:1020A0007E00EF64214E70537B017A0979B2C00340
:1020B000C002C0017B017A097965900BE7121C030D
:1020C0007B017A097967900BEA121C037B017A097C
:1020D0007969900BED121C03D001D002D0031229B4
:1020E000D57E00EF64014E600302221C900963E07C
:1020F000FFEF54FEFF900963EFF022900964E0FFC8
:102100007E00EF64224E70537B017A0979C2C003CE
:10211000C002C0017B017A097965900BE7121C03AC
:102120007B017A097967900BEA121C037B017A091B
:102130007969900BED121C03D001D002D003122953
:10214000D57E00EF64014E600302221C900963E01B
:10215000FFEF54FEFF900963EFF022900964E0FF67
:102160007E00EF64234E70507B017A0979E2C00350
:10217000C002C0017B017A097965900BE7121C034C
:102180007B017A097967900BEA121C037B017A09BB
:102190007969900BED121C03D001D002D0031229F3
:1021A000D57E00EF64014E7073900963E0FFEF5439
:1021B000FEFF900963EFF022900964E0FF7E00EFDC
:1021C00064244E70577B017A0979F2C003C002C0C3
:1021D000017B017A097965900BE7121C037B017A78
:1021E000097967900BEA121C037B017A09796990DF
:1021F0000BED121C03D001D002D0031229D57E00B2
:10220000EF64014E7016900963E0FFEF54FEFF90FB
:102210000963EFF0227D007F0012626822900B4478
:10222000EFF0E4900B4CF0900B44E0900A751236FE
:10223000BA1237FD900B45F0A3EFF0E47F01FEFDED
:10224000FC900B44E0F9F8121AB08F298E288D27E4
:102250008C26AF0112632B900B4AEEF0A3EFF01225
:10226000370D400512381F8005E4900B47F0900BA6
:1022700047E0640160030223CF900B44E0FF248118
:10228000123722E0C394FA74809480500612371FEC
:10229000E004F01237D0FCE4FBFAF9F8C3121A8C10
:1022A00060030223BC900A74E0900B49F012107E88
:1022B000EF6030E4900B47F0A3F012375A50181239
:1022C000371FE0C39401748094804006900B47E070
:1022D00004F01237E480E312378D4007900B49E099
:1022E000240FF0900B44E0248112372212383F5023
:1022F000030223BCE4900B47F01268FDEF705E9080
:102300000B48F012375A5022900B44E06F601612BF
:1023100068C5900B48E02481123722E0C39F400536
:1023200012381F80051237E480D912107EEF3395E2
:10233000E04F7063900B47E0705DA3F012375A5086
:1023400056900B44E06F60101268C5900B4812372E
:1023500074E0C39F4002803C1237E480DF12107E9D
:10236000EF3395E04F7030900B49F0900B48F0122E
:10237000375A501812371FE0C3940274809480407B
:1023800006900B49E004F01237E480E3900B491209
:102390003790400312381F900B47E064017002D25F
:1023A00008E5254529FFE5244528FEE5234527FDC9
:1023B000E52245268F258E248D23F522900B44E0BF
:1023C000FF24891236D0E4F0A31237670225E29089
:1023D0000B44E0FF12636B900B45E0FCA3E0FDD3E0
:1023E0001237014008123771E004F0800B900CD5D1
:1023F000E004F0123771E4F0123807C3E49FFBE405
:102400009EFAC3ED9BEA1237034066D312370E5093
:10241000601237AEF583E412376712373860030273
:102420002536900B45E0FEA3E0FF900B44E0900AB8
:1024300085123754EE8FF01218061268E71236EF45
:10244000400912372AE475F00180191268E7C3E4E5
:102450009FFFE49EFE1236EF400302253612372A14
:1024600074FFF5F01218061236E5E4F0A3F0022529
:1024700036123807C3E49FFFE412370B507312374C
:10248000AE123763F583E4F074892FF582E4340AE1
:10249000F583E0FF75F00A84E5F07044C3EF9464BF
:1024A00074809480900B44E040101237B3F583E4BD
:1024B000F0D209900A9904F0802612372FC083C009
:1024C00082E0FEA3E0FF900A92E0A2E713FD3395BD
:1024D000E0FCC3EF9DFFEE9CD082D083F0A3EFF031
:1024E000900B44E0FF900CCEE06F704A74FFF080D8
:1024F00045123807D312370E403C900B44E0123798
:10250000B31237387030123826123763F583E0641F
:10251000207023123826F583E4F0900A92E0A2E7B7
:1025200013A2E713FD3395E0FC75F002EF1237328A
:10253000EC8DF01218061237D04D4E4F7003022565
:10254000EE900B4AE0FCA3E0FDAE047802CEA2E7D9
:1025500013CE13D8F8FFC3ED9FFFEC12370B4003E7
:102560000225E712377FE004F0126912900B49EF61
:10257000F0E4900B48F012375A501812371FE0C39E
:102580009401748094804006900B47E004F0123769
:10259000E480E312378D4008900A74E0900B49F014
:1025A000900B44E0FB12378312383F500302263869
:1025B00074972B123785E4F0AF29AE28AD27AC26EF
:1025C000121A5BE5255FFFE5245EFEE5235DFDE570
:1025D000225C8F258E248D23F52274812BF582E4D5
:1025E000340AF583E4F02212377FE014F022900BD6
:1025F00044E0248112372212373A7008900B44E0ED
:10260000FF1257C6E52A14FF900B44E06F70299023
:102610000CD5E0C3952A4020E4900B48F012375ABD
:10262000500E12371FE0600312381F1237E480ED9E
:10263000900B47E07002C2082290095AE0FFEF5465
:102640007FFF900E52EFF0900920E0FFEF30E103A2
:102650000229D4900918E0FFEF20E70122900E52E2
:10266000E0FF90095AE0FEEE547FFEEEC39F500E4D
:1026700090095AE0FFEF547FFF900E52EFF090095F
:1026800024E0FEA3E0FFEF4E600302282E90091B1A
:10269000E0FFEF54FEFF90091BEFF090091BE0FFF5
:1026A000EF54EFFF90091BEFF0900E52E0FF7E0019
:1026B000D3EF9401EE648094805062900ACEE0FFE4
:1026C000EF20E13C900918E0FFEF30E33390091967
:1026D000E0FFEF30E72A900ACEE0FFEF54FEFF90D4
:1026E0000ACEEFF0900ACEE0FFEF4402FF900ACE50
:1026F000EFF090091DE0FFEF4401FF90091DEFF09E
:1027000090091BE0FFEF4402FF90091BEFF09009D6
:102710001BE0FFEF54DFFF90091BEFF022900E52F9
:10272000E0FF7E00D3EF9403EE64809480400302C8
:10273000281F900ACEE0FFEF20E03C900918E0FF50
:10274000EF30E333900919E0FFEF30E72A900ACE2B
:10275000E0FFEF4401FF900ACEEFF0900ACEE0FFD9
:10276000EF54FDFF900ACEEFF090091DE0FFEF441B
:1027700008FF90091DEFF0900ACEE0FFEF1313540D
:102780003FFFEF543FFF7E00D3EF9405EE6480944B
:1027900080501E90091BE0FFEF4402FF90091BEFE1
:1027A000F090091BE0FFEF54DFFF90091BEFF08072
:1027B0001C90091BE0FFEF54FDFF90091BEFF09008
:1027C000091BE0FFEF54DFFF90091BEFF0900ACEEA
:1027D000E0FFEF1313543FFEEF5403FFEE04FEEE51
:1027E000543FFEEE25E025E0FEEE4FFF900ACEEFCF
:1027F000F0900ACEE0FFEF1313543FFFEF543FFF7A
:102800007E00C3EF940AEE6480948050030229D4C2
:10281000900ACEE0FFEF5403FF900ACEEFF0229033
:102820000DA0E4F07B007D017F02125B262290095F
:102830001BE0FFEF54FDFF90091BEFF090091BE038
:10284000FFEF54DFFF90091BEFF0900E52E0FF7E88
:1028500000D3EF9403EE64809480506B90091BE0EA
:10286000FFEF4401FF90091BEFF090091BE0FFEF21
:1028700054EFFF90091BEFF0900ACEE0FFEF30E13C
:10288000030229D4900918E0FFEF20E3030229D4C2
:10289000900919E0FFEF20E7030229D4900ACEE067
:1028A000FFEF54FEFF900ACEEFF0900ACEE0FFEF6C
:1028B0004402FF900ACEEFF090091DE0FFEF4401C3
:1028C000FF90091DEFF022900E52E0FF7E00D3EF43
:1028D000940AEE6480948040030229C6900ACEE0F8
:1028E000FFEF20E03C900918E0FFEF30E333900960
:1028F00019E0FFEF30E72A900ACEE0FFEF4401FF36
:10290000900ACEEFF0900ACEE0FFEF54FDFF900A60
:10291000CEEFF090091DE0FFEF4408FF90091DEF96
:10292000F0900ACEE0FFEF1313543FFFEF543FFF48
:102930007E00C3EF9405EE64809480501E90091BC6
:10294000E0FFEF4401FF90091BEFF090091BE0FF4F
:10295000EF54EFFF90091BEFF0801C90091BE0FF84
:10296000EF54FEFF90091BEFF090091BE0FFEF54BE
:10297000EFFF90091BEFF0900ACEE0FFEF13135426
:102980003FFEEF5403FFEE04FEEE543FFEEE25E063
:1029900025E0FEEE4FFF900ACEEFF0900ACEE0FF6A
:1029A000EF1313543FFFEF543FFF7E00C3EF940A31
:1029B000EE64809480401D900ACEE0FFEF5403FF48
:1029C000900ACEEFF022900DA0E4F07B007D017F15
:1029D00001125B2622900BE4121C03900BED121BDC
:1029E000E31216D0FF7E00EF64FF4E70037F0122DA
:1029F000900BED121BE31216D0FF7E08EF8EF0A4B1
:102A0000FFAEF0900BE4121BE3E92FF9EA3EFA75F2
:102A1000820475830012185DFDACF0E41215207B72
:102A2000CD7ACC794C783E1212FCC004C005C006A9
:102A3000C007900BE7121BE3121832FDACF0E41252
:102A40001520A804A905AA06AB07D007D006D00513
:102A5000D0041214A24003022B6B900BE4121BE370
:102A6000C003C002C001900BED121BE31216D0FF91
:102A700075F008EFA4F58285F083D001D002D00371
:102A8000121B3590095FE0FEA3E0FFE4FCFDC312DA
:102A90001A8C7003022B34900BE4121BE3C003C0AA
:102AA00002C001900BED121BE31216D0FF75F00867
:102AB000EFA4F58285F083D001D002D003121AC3AF
:102AC00090095FEEF0A3EFF0900BE4121BE3C0035C
:102AD000C002C001900BED121BE31216D0FF75F07F
:102AE00008EFA4F58285F083D001D002D003121A3A
:102AF000C3AD07AC067F10125846900BE4121BE3DF
:102B0000C003C002C001900BED121BE31216D0FFF0
:102B100075F008EFA4F58285F083D001D002D003D0
:102B2000121AC3900961EEF0A3EFF07D017F00124D
:102B300062688027900961E0FCA3E0FDE4121520A3
:102B40007B007A007900783F1212FC121559AD070C
:102B5000AC06AC06AD077F0212109E900BE7121B6D
:102B6000E3E475F001121895022C95900BED121B01
:102B7000E31216D0FF7E08EF8EF0A4FFAEF0900BAC
:102B8000E4121BE3E92FF9EA3EFA75820675830029
:102B900012185DFDACF0E41215207BCD7ACC794C97
:102BA000783E1212FCC004C005C006C007900BEAB4
:102BB000121BE3121832FDACF0E4121520A804A990
:102BC00005AA06AB07D007D006D005D0041214A280
:102BD00050197D007C007F0212109E900BEA121BA0
:102BE000E3E475F001121895022C95900BED121B81
:102BF000E37401121716900BE7121BE3E475F00063
:102C000012191A900BEA121BE3E475F00012191A5C
:102C1000900BE4121BE3C003C002C001900BED1245
:102C20001BE31216D0FF75F008EFA4F58285F08340
:102C3000D001D002D003121AC3900961EEF0A3EFC5
:102C4000F0900BE4121BE3C003C002C001900BED37
:102C5000121BE31216D0FF75F008EFA4F58285F081
:102C600083D001D002D003121AC37BFF7AFF79FF11
:102C70007800C3121A8C701D900BED121BE374FFC9
:102C800012176B90095FE4F0A3E4F07D007F00125F
:102C900062687F01227F0022900924E0FEA3E0FF0A
:102CA000EF4E6003022D447F007ED47D8F7C059023
:102CB000092A121B29C3121A8C50031253FF7B607E
:102CC0007A037900780090092A121B0D1219AF902F
:102CD0000CEF121B9A7FE07EA57D017C00900CEF2B
:102CE000121B29C3121A8C4003022DC6900CEF123E
:102CF0001B29C374E09BFF74A59AFE740199FDE43F
:102D000098FC900CEF121B9A900CEF121B0DE41222
:102D1000151B7B007A0079877844121405900CF318
:102D2000121B9A900CF3121B0D121559EF547FFFD2
:102D300090095AE0FEEE5480FEEE4FFF90095AEFE4
:102D4000F0022DC67F007E9C7DDA7C019009261260
:102D50001B29C3121A8C50031253FF7B607A03792C
:102D6000007800900926121B0D1219AF900CEF127B
:102D70001B9A900CEF121B29C374A09BFF748C9AB2
:102D8000FEE499FDE498FC900CEF121B9A900CEF76
:102D9000121B0DE412151B7B007A0079B4784312E4
:102DA0001405900CF3121B9A900CF3121B0D1215C4
:102DB00059EF547FFF90095AE0FEEE5480FEEE4F2B
:102DC000FF90095AEFF0900924E0FEA3E0FFEF4ED8
:102DD0006003022E8990091CE0FFEF20E603022E1B
:102DE000897F747EC27D037C00900932121B29C347
:102DF000121A8C5003125371900932121B0DE412F7
:102E0000151B7B927A917933783D1212FC12155979
:102E1000900CEF121B9A7F307E2A7D007C00900C74
:102E2000EF121B29D3121A8C400A900CEF121BA62A
:102E300000002A30900CEF121B29C374309BFF74E2
:102E40002A9AFEE499FDE498FC900CEF121B9A90EC
:102E50000CEF121B0DE412151B7B007A0079D87859
:102E600042121405900CF3121B9A900CF3121B0DD6
:102E7000121559EF547FFF90095BE0FEEE5480FE7F
:102E8000EE4FFF90095BEFF022900924E0FEA3E0F3
:102E9000FFEF64014E6003022F4D90091CE0FFEF2D
:102EA00020E603022F4D7FC57E407D017C00900906
:102EB0002E121B29C3121A8C500312537190092E23
:102EC000121B0DE412151B7B927A917933783D1217
:102ED00012FC121559900CEF121B9A7F107E0E7D7A
:102EE000007C00900CEF121B29D3121A8C400A9020
:102EF0000CEF121BA600000E10900CEF121B29C342
:102F000074109BFF740E9AFEE499FDE498FC900CFB
:102F1000EF121B9A900CEF121B0DE412151B7B0095
:102F20007A0079107842121405900CF3121B9A90D3
:102F30000CF3121B0D121559EF547FFF90095BE043
:102F4000FEEE5480FEEE4FFF90095BEFF0229009F9
:102F500015E0FF7E00C3EF940AEE64809480400386
:102F6000023159900AB3E004F0900AB4E0FFEF1286
:102F70001D042F82002FF90130700230E40300009D
:102F80003159900AB3E0FF7E00EF64014E700412E5
:102F9000101622900AB3E0FF7E00EF64034E700B20
:102FA0007D017F0112525243AD4022900AB3E0FFEF
:102FB0007E00EF64054E701A1267DD900915E0FD82
:102FC000ED25E024C9F582E43408F583EEF0A3EFA3
:102FD000F022900AB3E0FF7E00C3EF940AEE648013
:102FE00094805003023159900AB4E004F0900AB37F
:102FF000E4F012101E12100622900AB3E0FF7E00C9
:10300000EF64014E700412102622900AB3E0FF7E96
:1030100000EF64034E700B7D017F0312525243ADEB
:103020004022900AB3E0FF7E00EF64054E701A1252
:1030300067DD900915E0FDED25E024F1F582E4342B
:1030400008F583EEF0A3EFF022900AB3E0FF7E00D4
:10305000C3EF940AEE648094805003023159900AC1
:10306000B4E004F0900AB3E4F012102E12100E2215
:10307000900AB3E0FF7E00EF64014E700412103638
:1030800022900AB3E0FF7E00EF64034E700B7D01D7
:103090007F0612525243AD4022900AB3E0FF7E00F9
:1030A000EF64054E701A1267DD900915E0FDED25FD
:1030B000E024DDF582E43408F583EEF0A3EFF0229E
:1030C000900AB3E0FF7E00C3EF940AEE6480948020
:1030D0005003023159900AB4E004F0900AB3E4F0CE
:1030E00012103E22900AB3E0FF7E00EF64014E70A2
:1030F0000412100622900AB3E0FF7E00EF64034E34
:10310000700B7D017F0712525243AD4022900AB3EB
:10311000E0FF7E00EF64054E701A1267DD9009151E
:10312000E0FDED25E024B5F582E43408F583EEF00A
:10313000A3EFF022900AB3E0FF7E00C3EF940AEE03
:10314000648094804013900AB4E4F0900AB3E4F0F1
:1031500012100E900915E004F022900E05EFF09089
:103160000E06EDF0900E07EBF0900E05E0FFEF126B
:103170001D0431880031D401322002326C0332B890
:10318000043304050000334D900E07E0FFEF121DDD
:1031900004319E0031B50131C9020000334D900E5B
:1031A00006E0FFEFF4FFEF529A900E06E0FFEFF417
:1031B000FFEF529B22900E06E0FFEFF4FFEF529AD2
:1031C000900E06E0FFEF429B22900E06E0FFEF42DA
:1031D0009A222222900E07E0FFEF121D0431EA002E
:1031E0003201013215020000334D900E06E0FFEF70
:1031F000F4FFEF5291900E06E0FFEFF4FFEF5292D2
:1032000022900E06E0FFEFF4FFEF5291900E06E0E1
:10321000FFEF429222900E06E0FFEF42912222221F
:10322000900E07E0FFEF121D04323600324D0132DE
:1032300061020000334D900E06E0FFEFF4FFEF5205
:10324000A1900E06E0FFEFF4FFEF52A222900E06CF
:10325000E0FFEFF4FFEF52A1900E06E0FFEF42A275
:1032600022900E06E0FFEF42A1222222900E07E0FC
:10327000FFEF121D0432820032990132AD020000CC
:10328000334D900E06E0FFEFF4FFEF52B1900E06C3
:10329000E0FFEFF4FFEF52B222900E06E0FFEFF4F2
:1032A000FFEF52B1900E06E0FFEF42B222900E0601
:1032B000E0FFEF42B1222222900E07E0FFEF121D45
:1032C0000432CE0032E50132F9020000334D900E97
:1032D00006E0FFEFF4FFEF52C1900E06E0FFEFF4BF
:1032E000FFEF52C222900E06E0FFEFF4FFEF52C153
:1032F000900E06E0FFEF42C222900E06E0FFEF4282
:10330000C1222222900E07E0FFEF121D04331A00A3
:103310003331013345020000334D900E06E0FFEFDC
:10332000F4FFEF52D9900E06E0FFEFF4FFEF52DA10
:1033300022900E06E0FFEFF4FFEF52D9900E06E068
:10334000FFEF42DA22900E06E0FFEF42D922900909
:1033500020E0FFEF30E10302350490091AE0FFEFAF
:1033600030E603023504900918E0FFEF30E41E90C8
:10337000091AE0FFEF20E215900AD1E4F090091A53
:10338000E0FFEF4404FF90091AEFF0C2DB900AD18E
:10339000E0FFEF121D0433AF0033D40134110234C7
:1033A0003203345104349C0534C60600003504D27F
:1033B000C2900AD17401F090091BE0FFEF4480FF36
:1033C00090091BEFF090091CE0FFEF4440FF9009CB
:1033D0001CEFF022900AD2E475F001121806900A50
:1033E000D2E0FEA3E0FFD3EF9409EE940050030275
:1033F0003504900AD2E4F0A3E4F0D2C0900AD1E000
:1034000004F0900919E0FFEF4440FF900919EFF034
:1034100022900918E0FFEF30E403023504900AD14E
:10342000E004F090091BE0FFEF547FFF90091BEFD1
:10343000F022C2C2900AD2E4F0A3E4F0900AD1E0F4
:1034400004F090091AE0FFEF54FBFF90091AEFF027
:1034500022900AD2E475F001121806900AD2E0FE1A
:10346000A3E0FFD3EF9409EE9400500302350490DB
:103470000AD2E4F0A3E4F0C2C090091CE0FFEF54CC
:10348000BFFF90091CEFF0900AD1E004F0900919F9
:10349000E0FFEF54BFFF900919EFF022900AD2E449
:1034A00075F001121806900AD2E0FEA3E0FFD3EFF8
:1034B0009470EE9417404D900AD2E4F0A3E4F0909B
:1034C0000AD1E004F022900AD2E475F00112180645
:1034D000900AD2E0FEA3E0FFD3EF94B0EE94044054
:1034E00014900AD2E4F0A3E4F0900AD1E004F0C210
:1034F000DBC2C08004D2DBD2C0900918E0FFEF30FD
:10350000E402C2DB22900ACBE475F00112180690A7
:103510000920E0FFEF20E1030236B5900920E0FF2B
:10352000EF1313543FFFEF5401FF900920E0FEEE2C
:10353000C313FEEE5401FEEE6FFFEF6044900ACD20
:10354000E4F0900920E0FFEF5402FFEF25E0FF9048
:103550000920E0FEEE54FBFEEE4FFF900920EFF055
:1035600090091BE4F090091DE0FFEF54EFFF900974
:103570001DEFF090091CE0FFEF54EFFF90091CEFE6
:10358000F0900ACBE0FEA3E0FFEF30E0030236B597
:10359000900ACDE0FFEF121D0435B80035CF01359C
:1035A000E60235FD03361404362B0536620636690D
:1035B00007369908000036B5D2C090091BE0FFEF2E
:1035C0004410FF90091BEFF0900ACDE004F022D2E6
:1035D000C290091BE0FFEF4420FF90091BEFF09021
:1035E0000ACDE004F022D2C190091BE0FFEF448035
:1035F000FF90091BEFF0900ACDE004F022D2DB909F
:10360000091BE0FFEF4440FF90091BEFF0900ACD4B
:10361000E004F022D2C390091BE0FFEF4408FF90C2
:10362000091BEFF0900ACDE004F02290091CE0FFA6
:10363000EF4420FF90091CEFF090091CE0FFEF44DD
:1036400010FF90091CEFF090091B74FFF090091D0A
:10365000E0FFEF4410FF90091DEFF0900ACDE00469
:10366000F022900ACDE004F02290091BE4F09009CA
:103670001CE0FFEF54DFFF90091CEFF090091CE005
:10368000FFEF54EFFF90091CEFF0C2C2C2C1C2DBD2
:10369000C2C3900ACDE004F022900920E0FFEF447D
:1036A00008FF900920EFF0900920E0FFEF54FDFFA4
:1036B000900920EFF022E0900A93FF75F002121BB0
:1036C000D7E0FCA3E0FDEF900A7D75F002021BD766
:1036D000F582E4340AF583E4F074972FF582E4343C
:1036E0000AF583E4F0900A85EF75F002021BD7908B
:1036F0000B44E075F002900A85121BD7E0FCA3E0B2
:10370000C39FEE6480F8EC648098229EFEC3900B09
:1037100046E09FEE6480F8900B45E0648098227448
:10372000812FF582E4340AF58322900B44E0FF7583
:10373000F002900A75021BD7F583E4F0FFFEFDFC52
:10374000AB25AA24A923A822C3021A8C900B45E01A
:10375000FD900A9375F002021BD7900B48E0FFC35F
:10376000952A22F583E004F074792FF582E4340A77
:1037700022900B44E02483F582E4340AF5832290FE
:103780000B44E02497F582E4340AF58322900B473A
:10379000E0C3940374809480227D0A1217B1AD03B4
:1037A0007C0012179F900B4DE0FD900A7522900B44
:1037B00044E0FF2489F582E4340A22E0FCA3E0FD22
:1037C00075F002EF900A93121BD7ECF0A3EDF022F4
:1037D000E5255529FFE5245528FEE5235527FDE578
:1037E00022552622900B48E004F0227E00900CCF58
:1037F000E0FCA3E0FD12179F8EE78FE622E0FEA318
:10380000E0C39DFFEE9C22900A92E0FF3395E0FE1C
:1038100022A4FFE0C39FE5F06480F87480982290B2
:103820000B477401F022900B44E0FF2479F582E409
:10383000340A22900A92E0FB3395E0FAFEEB22E094
:10384000FF900B49E0FEEFC39E229FEE6480F8EAF2
:1038500064809822900B43E0FF900CCDE022410E53
:1038600048014404B0EDB88320410021004100A785
:103870000041000300480951000000000000000062
:10388000420ACB0000410ACD00410ACE00410AD4D1
:1038900000420ADD0000420ACF0000410AD1054281
:1038A0000AD20000420AD5006E420AD70032420A0C
:1038B000D9058C420ADB0460410AB300410AB40016
:1038C000410AB500410AB6006038096A00000E746A
:1038D000017C007800000E74017C007800000E74FA
:1038E000017C007800000E74017C007800000E74EA
:1038F000017C007800000E74017C007800FFFFFF5F
:10390000FFFFFFFF5009A200000CE400C803700095
:10391000FFFFFFFFFFFFFF5009B200000C4E00C881
:10392000012C00FFFFFFFFFFFFFF602009C2000026
:103930000D48026C026C00000D48026C026C000025
:103940000D48026C026C00FFFFFFFFFFFFFF5009F4
:10395000E2000008FC07D003E800FFFFFFFFFFFFC5
:10396000FF5809F2000006A400780064000008FC7B
:103970000078006400FFFFFFFFFFFFFF42095F00C8
:10398000004209610000410D1C00410D1D00410D68
:103990001700410D1800410D1900410D1A00410D8D
:1039A0001B00580A44E100E20FE326E437E502E693
:1039B00000E7F9E8F9E9F9EA05EB01EC03580A5CDC
:1039C000E100E20FE326E437E502E600E7F9E8F973
:1039D000E9F9EA05EB01EC03410CD300410A990037
:1039E000410A1400C10A440A39AA5555AA440A409A
:1039F00000000000440A350000000000900B23EE98
:103A0000F0A3EFF0900B25ECF0A3EDF0900B27EA7C
:103A1000F0A3EBF0900B27E0FEA3E0FF900B23E078
:103A2000FCA3E0FDD3ED9FEC9E5003023AE2900B25
:103A300027E0FEA3E0FF900B23E0FCA3E0FDC3ED35
:103A40009FFDEC9EFCE4121520900B2B121B9A900C
:103A50000B29E0FEA3E0FF900B25E0FCA3E0FDC3F3
:103A6000ED9FFDEC9EFCE4121520C004C005C006CD
:103A7000C0077F007EF07D7F7C45900B2B121B29B9
:103A80001212FCD003D002D001D000121405900B0A
:103A90002B121B9A900B29E0FCA3E0FDE4121520E9
:103AA0007B007AF0797F7845121405900B2F121B5A
:103AB0009A900B2F121B0D900B2B121B291212FC2C
:103AC000900B2F121B9A900B27E0FCA3E0FDE41251
:103AD0001520900B2F121B29121207900B2F121B6F
:103AE0009A22900B23E0FEA3E0FF900B27E0FCA3BB
:103AF000E0FDC3ED9FFDEC9EFCE4121520900B2B26
:103B0000121B9A900B25E0FEA3E0FF900B29E0FC2E
:103B1000A3E0FDC3ED9FFDEC9EFCE4121520C00464
:103B2000C005C006C0077F007EF07D7F7C45900BFE
:103B30002B121B291212FCD003D002D001D000128C
:103B40001405900B2B121B9A900B29E0FCA3E0FDAF
:103B5000E41215207B007AF0797F784512140590E5
:103B60000B2F121B9A900B2F121B0D900B2B121B5D
:103B7000291212FC900B2F121B9A900B27E0FCA32A
:103B8000E0FDE4121520900B2F121B291212079052
:103B90000B2F121B9A22900DA1E0FFEF5407FFA8F4
:103BA000077401088002C333D8FCFF900E10EFF0B9
:103BB000900DA4E0FF7E00EF64024E6003023C68BB
:103BC000900DA1E0FFEF131313541FFFEF541FFFDD
:103BD0007E00D3EF9400EE648094804028900DA185
:103BE000E0FFEF131313541FFEEF5407FFEE14FE14
:103BF000EE541FFEEE33333354F8FEEE4FFF900DBC
:103C0000A1EFF08006900DA47401F0900DA1E0FFEB
:103C1000EF131313541FFFEF541FFFEF75F00584CC
:103C2000AFF07E00EF4E6003023CF990091BE0FF0D
:103C3000EF6020900E10E0FFEF601890091BE0FF8E
:103C4000900E10E0FEEEF4FEEF5EFF90091BEFF029
:103C5000023CF990091BE0FF900E10E0FEEF4EFFD2
:103C600090091BEFF0023CF9900DA4E0FF7E00EFFD
:103C70004E6003023CF9900DA1E0FFEF5407FF7E78
:103C800000C3EF9404EE648094805028900E11E0FD
:103C9000FF900DA1E0FEEE5407FEEE2404FEA80600
:103CA0007401088002C333D8FCFEEF4EFF900E1162
:103CB000EFF0801E900DA1E0FFEF5407FFEF24FC12
:103CC000FFA8077401088002C333D8FCFF900E11CF
:103CD000EFF090091BE0FF900E10E0FEEF4EFF901A
:103CE000091BEFF090091BE0FF900E11E0FEEEF4CF
:103CF000FEEF5EFF90091BEFF090091CE0FFEF3034
:103D0000E504D2928002C29290091CE0FFEF30E4F9
:103D100003D29022C29022900D17E0FF7E00C3EFE5
:103D200094FFEE648094805006900D17E004F090AC
:103D30000918E0FFEF20E203023DE1900D18E0FFDB
:103D40007E00D3EF9400EE648094805003023DDC4B
:103D5000900D18E0FF7E00C3EF9414EE6480948011
:103D6000507A900D17E0FF7E00C3EF94C8EE648098
:103D700094805050900920E0FFEF20E147900D190A
:103D8000E004F090091DE0FFEF4404FF90091DEFEF
:103D9000F0900D19E0FF7E00D3EF9404EE64809460
:103DA000804021900920E0FFEF4402FF900920EFBE
:103DB000F0900D18E4F0900918E0FFEF54FEFF902A
:103DC0000918EFF0900D18E4F0900918E0FFEF5497
:103DD000FEFF900918EFF012108F8005900D18E487
:103DE000F0900918E0FFEF30E016900918E0FFEFBF
:103DF00054FEFF900918EFF0900D18E004F0801CBD
:103E0000900D18E0FF7E00D3EF94C8EE648094809C
:103E10005079900918E0FFEF20E00122900D18E0A2
:103E2000FF7E00EF643C4E702B90091DE0FFEF44D5
:103E300002FF90091DEFF0900918E0FFEF54DFFF3B
:103E4000900918EFF0900918E0FFEF4440FF900947
:103E500018EFF022900D18E0FF7E00EF64644E70C2
:103E60002A90091DE0FFEF54FBFF90091DEFF09031
:103E70000918E0FFEF4420FF900918EFF0900918AF
:103E8000E0FFEF54BFFF900918EFF0221210661206
:103E9000105E125A377BFF7A61799BC003C002C063
:103EA000017B017A0079A8900D21121C03D001D06A
:103EB00002D003125F987F0012674C1260C6124452
:103EC000A31256B912690843CF10900A8FE0FFEF92
:103ED00020E703023F98900A8FE0FFEF547FFF90A6
:103EE0000A8FEFF0123FD3900BC4121B9A7F007E13
:103EF000007D007C00900BC4121B29D3121A8C5039
:103F000003023F87900BC4121B0DEF5402FFEE54C7
:103F100000FEED5400FDEC5400FCEC4D4E4F601CD7
:103F2000900918E0FFEF4401FF900918EFF09009A5
:103F300018E0FFEF54FBFF900918EFF0900BC4124C
:103F40001B0D7808121A9D900BC4121B9A900BC47B
:103F5000121B0DEF5440FFEE5400FEED5400FDEC3B
:103F60005400FCEC4D4E4F602C900918E0FFEF44DC
:103F700002FF900918EFF0900918E0FFEF54FBFFE3
:103F8000900918EFF0800E900918E0FFEF4404FF4D
:103F9000900918EFF0121000125630E5B720E51026
:103FA000900BC8E0FF7E00EF645A4E6003023EC7EC
:103FB000900BC8E0FFEF54A5FF900BC8EFF0125034
:103FC0007990091AE0FFEF4402FF90091AEFF0021E
:103FD0003EC722751000751800751700751600751C
:103FE000150012106E500302410312653C8F148EAF
:103FF000138D128C11750F00E50FC3952A5051AF28
:1040000014AE13AD12AC117801121A9D8F148E13D9
:104010008D128C1130D7357F017E007D007C00AB86
:104020000F747B2BF582E4340AF583E0F9A80112C2
:104030001AB0E5184FFFE5174EFEE5164DFDE515E4
:104040004CFC8F188E178D168C150510050F80A847
:10405000AF107E00C3EF9402EE64809480401ED2C5
:1040600008AF107E00C3EF9403EE64809480400597
:1040700012107680081268FDEF6002C20820082C3A
:104080007F007E007D007C00AB18AA17A916A8153A
:10409000C3121A8C600C900A90E475F00112180695
:1040A0008020900A90E4F0A3E4F08016900A8DE45A
:1040B00075F0011218067518007517007516007551
:1040C00015001268DC900A90E0FCA3E0FDD3ED9FA0
:1040D000EC9E400B121076900A90E4F0A3E4F0906E
:1040E0000A8DE0FEA3E0FFD3EF942CEE9401402074
:1040F000121076900A997401F0900A8DE4F0A3E40E
:10410000F0800D90698BE493FE740193FF124119C6
:10411000AF18AE17AD16AC1522900B43EFF0900C14
:10412000D3123790403EE4F0900A99E0702B900B48
:1041300044F0900B44E0C3952A501EE0FF12375123
:10414000E0FCA3E0FD75F002EF123732ECF0A3EDD6
:10415000F0900B44E004F080D9126426C209E49088
:104160000A99F022900CCDE004F0123854B50708FB
:104170001268B3E4900CCEF0123854D39F5003026F
:10418000424AE4900B44F0900B44E0C3952A507AE5
:104190001236B61237FDAD07FC900A99E0702E1268
:1041A00038337802C333CE33CED8F9FFD3ED12378C
:1041B000014046E49BFFE49AFEEF7802C333CE331E
:1041C000CED8F9FFC3ED123701502E803D1238339F
:1041D0007803C333CE33CED8F9FFD3ED1237014085
:1041E00018E49BFFE49AFEEF7803C333CE33CED8B6
:1041F000F9FFC3ED1237014011900B44E0FF124864
:10420000BC900B44E004F0024187900B44E0B52AD7
:1042100006900CCEE004F0900B43E0FD75F00890A2
:104220000CCD1238114023E4F0C208900CD3E00406
:10423000F0ED75F004900CCE123811400DE4900CA6
:10424000D3F012676B126426C20922900BD8121C9D
:1042500003900BDBE4F0A3E4F0900BDD74FFF0A31C
:1042600074FFF0900BDFE4F0A3E4F0900BE1E4F0D6
:10427000A3E4F0900BE3E4F0900BE3E0FF7E00C3D7
:10428000EF940AEE648094804003024318900BD8A8
:10429000121BE3900BE3E0FF75F002EFA4F58285BB
:1042A000F08312185DFFAEF0900BE1EEF0A3EFF09B
:1042B000900BDBE0FEA3E0FF900BE1E0FCA3E0FD50
:1042C000D3ED9FEC9E4010900BE1E0FEA3E0FF9049
:1042D0000BDBEEF0A3EFF0900BDDE0FEA3E0FF9030
:1042E0000BE1E0FCA3E0FDC3ED9FEC9E5010900BB2
:1042F000E1E0FEA3E0FF900BDDEEF0A3EFF0900B0A
:10430000E1E0FEA3E0FF900BDFEE8FF012180690C5
:104310000BE3E004F0024278900BDFE0FEA3E0FF45
:10432000900BDDE0FCA3E0FDC3EF9DFFEE9CFE9053
:104330000BDFEEF0A3EFF0900BDFE0FEA3E0FF90C9
:104340000BDBE0FCA3E0FDC3EF9DFFEE9CFE900BBA
:10435000DFEEF0A3EFF0900BDFE0FEA3E0FFEF78DD
:1043600003CEC313CE13D8F9FF900BDFEEF0A3EF0B
:10437000F0900BDFE0FEA3E0FF22900DBDEEF0A376
:10438000EFF0900DBFEDF0900DBFE0FFEF121D04B8
:10439000439A00441001000044A2900DBDE0FEA32A
:1043A000E0FFEEFF7E00EF540FFF900953EFF09017
:1043B0000953E0FFEF9069AD93FF900953EFF09040
:1043C0000DBDE0FEA3E0FFEEC4F854F0C868FEEFB8
:1043D000C4540F48FFEF540FFF900954EFF09009B9
:1043E00054E0FFEF9069AD93FF900954EFF0900D0A
:1043F000BDE0FEA3E0FFEF540FFF900955EFF090F2
:104400000955E0FFEF9069AD93FF900955EFF02259
:10441000900DBDE0FEA3E0FFD3EF94E7EE940340E0
:104420000A900DBD7403F0A374E7F0900DBDE0FE9B
:10443000A3E0FF7C007D641217B1900953EFF09068
:104440000953E0FFEF9069AD93FF900953EFF090AF
:104450000DBDE0FEA3E0FF7C007D0A1217B17C00D9
:104460007D0A1217B1AF05900954EFF0900954E09E
:10447000FFEF9069AD93FF900954EFF0900DBDE010
:10448000FEA3E0FF7C007D0A1217B1AF059009552D
:10449000EFF0900955E0FFEF9069AD93FF9009555B
:1044A000EFF02290095C121BE3900C0F7404F09063
:1044B0000C107402F07F007E007D007C001251BA67
:1044C0007E00EF4E701D90095C121BE3900C0F7480
:1044D00004F0900C107402F07F007E007D007C00E0
:1044E0001251BA90095C121BE375820275830012A7
:1044F000185DFFAEF0C3EF94FFEE94FF50169009E5
:1045000059E0FFEF54FDFF900959EFF07F007E0066
:10451000125D372290095C121BE3900C0F7404F0BB
:10452000900C107402F07F007E027D007C0012511E
:10453000BA7E00EF4E701D90095C121BE3900C0FC9
:104540007404F0900C107402F07F007E027D007CF9
:10455000001251BA90095C121BE375820275830048
:1045600012185DFFAEF0C3EF94FFEE94FF5016906B
:104570000959E0FFEF4402FF900959EFF07F007EF8
:1045800002125D3722900959E0FFEF54FDFF9009B8
:1045900059EFF07F007E02125D377E007F047D00C0
:1045A00090095C121BE3121D3090091AE0FFEF44E2
:1045B00040FF90091AEFF022900C4B121B9AE598DD
:1045C000542FFF900C53E0FEEF4EFF900C55E0FE91
:1045D000EF4EF598900C53E0FF7E00EF4E70377F62
:1045E000007E007D007C00900C4F121B29C3121A24
:1045F0008C70065398DF0246BF7F017E007D007CF1
:1046000000900C4F121B29C3121A8C60030246BF84
:104610004398200246BFE5C854CFFF900C54E0FEFB
:10462000EF4EF5C8900C54E0FF7E00EF4E704190C5
:104630000C4F121B29900C4B121B0D1219AF7B0053
:104640007A01790078001219AF8F8D900C4F121BF0
:1046500029900C4B121B0D1219AFEF54FFFFEE54B3
:1046600000FEED5400FDEC5400FC8F8BC28E804F99
:10467000900C54E0FF7E00EF64304E704275CE0225
:10468000900C4F121B29900C4B121B0D1219AF7B73
:10469000007A01790078001219AF8FCB900C4F127D
:1046A0001B29900C4B121B0D1219AFEF54FFFFEE9C
:1046B0005400FEED5400FDEC5400FC8FCAD2CAD267
:1046C000AC22C0E0C0F0C083C082C0D075D000C0B2
:1046D00000C001C002C003C004C005C006C0077FFF
:1046E000007E8312670812656B900945E475F0013E
:1046F000121806900947E004F0900948E004F09091
:104700000949E004F0900949E0FFEF75F00584AF36
:10471000F07E00EF4E7013900921E0FFEF4410FF90
:10472000900921EFF0900949E4F0900948E0FFEF8B
:1047300075F03284AFF07E00EF4E7013900921E0E7
:10474000FFEF4404FF900921EFF0900948E4F09056
:104750000945E0FEA3E0FF7C037DE81217B1ED4CB4
:104760007016900921E0FFEF4408FF900921EFF057
:10477000900945E4F0A3E4F0900947E0FFEF75F0FD
:104780006484AFF07E00EF4E7013900921E0FFEFDC
:104790004401FF900921EFF0900947E4F0122F4EF9
:1047A000900921E0FFEF30E40312511BD007D0063F
:1047B000D005D004D003D002D001D000D0D0D08218
:1047C000D083D0F0D0E032C0E0C0F0C083C082C05F
:1047D000D075D000C000C001C002C003C004C00535
:1047E000C006C00753B7BFE5B720E5030248A1C222
:1047F000AF7B007D047F0012315A7B007D107F006B
:1048000012315A7B007D087F0412315A7B007D04EF
:104810007F0412315A7B007D027F0412315A7B00E3
:104820007D807F0312315A7B007D207F0312315A35
:104830007B007D107F0312315A7B007D087F0312BD
:10484000315A7B007D047F0312315A7B007D027F49
:104850000312315A7B007D017F0112315A7B007DAA
:10486000047F0112315A7B007D107F0112315A7B87
:10487000007D207F0212315A7B007D407F02123181
:104880005A7B007D807F0212315A7B007D017F00C0
:1048900012315A7B007D027F0012315A125079D2B8
:1048A000AFD007D006D005D004D003D002D001D0BD
:1048B00000D0D0D082D083D0F0D0E032900B45EF42
:1048C000F0F91236B61237FD900B46F0A3EFF0AFB9
:1048D0000112632BAD07AC06900B46E0FEA3E0FF90
:1048E000D39DEC6480F8EE6480985014C3E49DFB83
:1048F000E49CFAC3EF9BEA6480F8EE648098500E63
:10490000900B45E0FF1236C71237BB0249A0ECA25C
:10491000E713FEED13FF900B46E0FAA3E0FBD31282
:10492000384A5016ECA2E713FEED13FFC3E49FFFD5
:10493000E49EFEC3EB12384A502312374CE0FAA330
:10494000E0FBEAC313FEEB13FFC3EB9FFBEA9EFA07
:10495000ED1236C7E0C313FEA3E013803212374CCA
:10496000E0FAA3E0FBAE027803CEC313CE13D8F96E
:10497000FFC3EB9FFBEA9EFA75F002ED900A7D12F1
:104980001BD7E0FEA3E07803CEC313CE13D8F92BD8
:10499000FFEA3EFE900B45E0123751EEF0A3EFF038
:1049A000900B451236B6ECF0A3EDF0227B027D04AD
:1049B0007F0012315A7B027D107F0012315A7B0139
:1049C0007D207F0012315A7B027D087F0512315A0B
:1049D0007B027D047F0412315A7B027D027F041228
:1049E000315A7B027D807F0312315A7B027D207F0A
:1049F0000312315A7B027D107F0312315A7B027DF4
:104A0000087F0312315A7B027D047F0312315A7BE7
:104A1000027D027F0312315A7B027D017F01123138
:104A20005A7B027D047F0112315A7B027D107F0187
:104A300012315A7B007D207F0112315A7B007D04A8
:104A40007F0212315A7B007D087F0212315A7B00AF
:104A50007D807F0112315A7B027D207F0212315A04
:104A60007B027D407F0212315A7B027D807F0212E1
:104A7000315A7B027D017F0012315A7B027D027F19
:104A80000012315A7B027D407F0112315A7B027D38
:104A9000407F0312315A22900E1EEFF0900E1FE459
:104AA000F053DCF843DC02E58E54C0FF7E00EF6477
:104AB000404E7045900E1EE0FF7E00EF64804E6019
:104AC0001D900E1EE0FF7E00EF64404E6010900EC1
:104AD0001EE0FF7E00EF64084E6003024B6F900EF5
:104AE0001EE0FFEF55C5FFEF6008900E1F7401F048
:104AF000807D900E1FE4F08076E58E54C0FF7E002E
:104B0000EF64804E7043900E1EE0FF7E00EF6480E5
:104B10004E701B900E1EE0FFEF55C5FFEF60089032
:104B20000E1F7401F08048900E1FE4F08041900E3B
:104B30001EE0FFEF55C4FFEF6008900E1F7401F0F8
:104B4000802D900E1FE4F08026E58E54C0FF7E007D
:104B5000EF64C04E7019900E1EE0FFEF55C4FFEFDA
:104B60006008900E1F7401F08005900E1FE4F09015
:104B70000E1FE0FF22900E56E599F0900C74E0FFB6
:104B80007E00EF4E7034900E56E0FF7E00EF64A57D
:104B90004E701C900E56E0FF900C76EFF0900E5683
:104BA000E0FF900C75E02FF0900C74E004F0229080
:104BB0000C74E4F0900C75E4F022900C74E0FF7E2D
:104BC00000EF64074E7062900C75E0FF900E56E0A7
:104BD000FEEE6F7049900C78E0FF7E00D3EF9400FA
:104BE000EE648094804010900919E0FFEF4480FF4C
:104BF000900919EFF0800E900919E0FFEF547FFF44
:104C0000900919EFF0900920E0FFEF54FEFF9009A2
:104C100020EFF0900C74E4F0900C75E4F022900C0E
:104C200074E4F0900C75E4F022900E56E0FF900CC6
:104C300074E0FE74762EF582E4340CF583EFF09088
:104C40000C74E004F0900E56E0FF900C75E02FF02D
:104C500022900918E0FFEF30E115900918E0FFEF0E
:104C600054FDFF900918EFF0900D1AE004F0229027
:104C70000918E0FFEF20E203024D25900D1AE0FF36
:104C80007E00D3EF9400EE648094805003024D12B6
:104C9000900D1AE0FF7E00C3EF940AEE64809480CA
:104CA0005070900918E0FFEF30E513900918E0FF0D
:104CB000EF54DFFF900918EFF012108E8054900926
:104CC00018E0FFEF30E64B900924E0FEA3E0FFEF91
:104CD0004E701A900924E4F0A37401F0900DA074B2
:104CE00014F07B027D017F05125B2680179009245A
:104CF000E4F0A3E4F0900DA07414F07B027D017F3A
:104D000006125B2690091DE0FFEF4402FF90091D8B
:104D1000EFF0900D1AE4F0900918E0FFEF54FDFF5A
:104D2000900918EFF022900E69EFF053DCF843DCA5
:104D300002E58E54C0FF7E00EF64404E7033900E4B
:104D400069E0FF7E00EF64804E601A900E69E0FF1C
:104D50007E00EF64404E600D900E69E0FF7E00EF34
:104D600064084E7073900E69E0FFEFF4FFEF52C5D8
:104D700022E58E54C0FF7E00EF64804E7025900EB9
:104D800069E0FF7E00EF64804E700C900E69E0FFDA
:104D9000EFF4FFEF52C522900E69E0FFEFF4FFEF52
:104DA00052C422E58E54C0FF7E00EF64C04E7028CE
:104DB000900E69E0FF7E00EF64024E600D900E6978
:104DC000E0FF7E00EF64014E700EE5C454FCFF90DE
:104DD0000E69E0FEEF4EF5C422900E0EEFF0900942
:104DE00016E0FF7E00C3EF940FEE648094804005D0
:104DF000900916E4F0900E0FE4F0900916E0FF9091
:104E00000E0FE0FEEED39F5063900E0FE0FF74365E
:104E10002FF582E43409F583E0FF900E0EE0FEEEFC
:104E20006F7041900E0EE0FF7E00EF64154E60340F
:104E3000900E0EE0FF7E00EF64164E6027900E0E7F
:104E4000E0FF7E00EF64174E601A900E0EE0FF7ECA
:104E500000EF64184E600D900E0EE0FF7E00EF64D0
:104E6000144E7024900E0FE004F0808E900E0EE031
:104E7000FF900916E0FE74362EF582E43409F583BE
:104E8000EFF0900916E004F022900C14EEF0A3EF7E
:104E9000F0900C16121C03900C16121BE3900C1CC5
:104EA000121C03900C1AE4F0900C19E0FF900C1AFD
:104EB000E0FEEEC39F5078900C1AE0FF7E00900C4D
:104EC00014E0FCA3E0FDEF2DFFEE3CFE900C1C1265
:104ED0001BE3900C1AE0FD8D827583001216E9FD2C
:104EE000125CD4900C1AE0FF7E00900C14E0FCA33E
:104EF000E0FDEF2DFFEE3CFEE4FCFD900D1374028F
:104F0000F0125E4A900C1BEFF0900C1C121BE39009
:104F10000C1AE0FF8F827583001216E9FF900C1BBC
:104F2000E0FEEEB50791900C1AE004F0024EA87F67
:104F30000122900DF3EFF0900DF4EDF0900DF5EBF4
:104F4000F0900DF3E0FFEF121D044F5A004F68027E
:104F50004F8A034FB00400004FD5900DF4E0FF904E
:104F60000DF5E0FD12650C22900DF4E0FF7E00EFE0
:104F70004E7004C2AD8002D2AD900DF5E0FF7E0010
:104F8000EF4E7003C2BD22D2BD22900DF4E0FF7E31
:104F900000EF4E700553A9BF800343A940900DF563
:104FA000E0FF7E00EF4E700453B9BF2243B94022A8
:104FB000900DF4E0FF7E00EF4E700553A97F800353
:104FC00043A980900DF5E0FF7E00EF4E700453B9C9
:104FD0007F2243B98022900DE4EFF0900DE5EDF0D3
:104FE000900DE4E0FFEF54F0FF7E00EF4E70429032
:104FF0000DE5E0FF7E00EF64014E7019900DE4E0D6
:10500000FFEF540FFFA8077401088002C333D8FCD8
:10501000FFEF42D322900DE4E0FFEF540FFFA8070B
:105020007401088002C333D8FCFFEFF4FFEF52D3C2
:1050300022900DE4E0FFEF54F0FFEFC4540FF5CEE3
:10504000900DE4E0FFEF30E008900DE67420F08072
:1050500006900DE67410F0900DE5E0FF7E00EF6421
:10506000014E7009900DE6E0FFEF42C922900DE677
:10507000E0FFEFF4FFEF52C922900959E0FFEF2063
:10508000E17290095C121BE3758202758300E4757E
:10509000F0011218CD90095C121BE3900C197404F6
:1050A000F07F007E00124E897E00EF4E706C9009FA
:1050B0005C121BE3900C197404F07F007E00124E0A
:1050C000897E00EF4E705390095C121BE3900C191F
:1050D0007404F07F007E00124E897E00EF4E703A1D
:1050E00090095C121BE3900C197404F07F007E029F
:1050F000124E892290095C121BE3758202758300AF
:10510000E475F00012193990095C121BE3900C1938
:105110007404F07F007E02124E892290091BE0FF8A
:105120007E00EF4E7005C2B3C2B522D2B7D2B4D260
:10513000B2D2B190091CE0FFEF30E33F90091CE0D0
:10514000FFEF54F7FF90091CEFF0D2B3C2B59009FE
:105150001BE0FFEF30E402C2B790091BE0FFEF3025
:10516000E502C2B490091BE0FFEF30E602C2B29044
:10517000091BE0FFEF30E741C2B12290091CE0FFBC
:10518000EF4408FF90091CEFF0C2B3D2B590091BA1
:10519000E0FFEF30E002C2B790091BE0FFEF30E123
:1051A00002C2B490091BE0FFEF30E202C2B29009E4
:1051B0001BE0FFEF30E302C2B122900C08121B9AF1
:1051C000900C0C121C03900C13E5F4F0A2AFE43326
:1051D000FF900C12EFF0900C12E0FF7E00EF4E609B
:1051E00002C2AF900C10E0FF8FF4900C11E4F0902D
:1051F0000C08121B0D8F828E83E493FF900C0C120F
:105200001BE3900C11E0FE8E82758300EF12177D78
:10521000900C08121B0D7B017A007900780012199E
:1052200066900C08121B9A900C0FE0FF900C11E096
:1052300004FEF0EEC39F40B7900C13E0FF8FF49094
:105240000C12E0FF7E00EF4E6002D2AF900C11E036
:10525000FF22900DB9EFF0900DBAEDF0900DB9E08E
:10526000FF7E00C3EF941FEE648094805065900D24
:10527000B9E0FF7E007401A807088005C333CE3370
:10528000CED8F9FF900DBBEEF0A3EFF0900DBAE091
:10529000FF7E00EF4E7022900DBBE0FEA3E0FFEF1B
:1052A000F4FFEF52AB900DBBE0FEA3E0FFEEFF7EFC
:1052B00000EFF4FFEF52AC801A900DBBE0FEA3E0CC
:1052C000FFEF42AB900DBBE0FEA3E0FFEEFF7E00E0
:1052D000EF42ACE5AD54E0FF900DB9E0FEEF4EF5C6
:1052E000AD22900915E0FF7E00C3EF940AEE6480C2
:1052F0009480407C900AB5E0FF7E00C3EF9405EEF9
:1053000064809480501B900AB5E004F0900AB5E0E8
:10531000FF7E00C3EE648094805055900915E4F040
:1053200022900AB5740FF0900915E4F07B017A0819
:1053300079B512424B900905EEF0A3EFF07B017AAC
:105340000879C912424B900907EEF0A3EFF07B01F8
:105350007A0879DD12424B900909EEF0A3EFF07B59
:10536000017A0879F112424B90090BEEF0A3EFF0AD
:1053700022900E50EFF0900920E0FFEF30E34590CF
:105380000E50E0FF7E00EF4E701D900932121B0D93
:10539000EF2458FFEE3402FEED3400FDEC3400FC47
:1053A000900932121B9A2290092E121B0DEF2458DD
:1053B000FFEE3402FEED3400FDEC3400FC90092ECB
:1053C000121B9A22900E50E0FF7E00EF4E70189054
:1053D0000932121B0D7B017A0079007800121966E0
:1053E000900932121B9A2290092E121B0D7B017A12
:1053F000007900780012196690092E121B9A2290EB
:105400000E51EFF0900920E0FFEF30E345900E5190
:10541000E0FF7E00EF4E701D90092A121B0DEF2455
:1054200080FFEE3451FEED3401FDEC3400FC9009B8
:105430002A121B9A22900926121B0DEF2480FFEEE0
:105440003451FEED3401FDEC3400FC900926121BB2
:105450009A22900E51E0FF7E00EF4E701890092ABC
:10546000121B0D7B017A00790078001219669009F1
:105470002A121B9A22900926121B0D7B017A0079B1
:10548000007800121966900926121B9A22900921B1
:10549000E0FFEF30E413900921E0FFEF54EFFF90BD
:1054A0000921EFF07F14124DD9900921E0FFEF3070
:1054B000E113900921E0FFEF54FDFF900921EFF087
:1054C0007F15124DD9900921E0FFEF30E2139009CA
:1054D00021E0FFEF54FBFF900921EFF07F16124D02
:1054E000D9900921E0FFEF30E013900921E0FFEFB0
:1054F00054FEFF900921EFF07F17124DD99009213A
:10550000E0FFEF30E313900921E0FFEF54F7FF9045
:105510000921EFF07F18124DD922900907E0FEA370
:10552000E0FF7B017A09790D12610F900905E0FE19
:10553000A3E0FF7B017A09791112610F900AB6E0AE
:10554000FF7E00C3EF9464EE648094805006900A5E
:10555000B6E004F0900AB6E0FF7E00C3EF9464EE7C
:1055600064809480503E900905E0FEA3E0FFC3EF05
:105570009464EE94004003D2C322900905E0FEA398
:10558000E0FFC3EF942CEE94014003D2C3229009B4
:1055900005E0FEA3E0FFC3EF94F4EE94014003D2D4
:1055A000C322D2C322C2AF75FEC1AFFFD2AFEF5448
:1055B00030FD7C0070047920801CED64104C700478
:1055C00079108012ED64204C700479088008ED6435
:1055D000304C70027904E924F8601824F860202423
:1055E000F06028241C7030900B457401F0A374F413
:1055F000F08026900B457403F0A374E8F0801A90B5
:105600000B457407F0A374D0F0800E900B45740F17
:10561000F0A374A0F08002E4F9900B45E07002A3BF
:10562000E0600C900B4574FFF5F012180680EA223A
:1056300012548D125742EF121D04564A14564E163C
:10564000565E17566B18000056B8121DE622124C13
:1056500051123D171261E0125B9512334E22122651
:10566000391252E2125EF4123B9622900AD5E0FE05
:10567000A3E0FFC006C007900AD9E0FCA3E0FD90BC
:105680000AD7E0FAA3E0FB900ADBE0FEA3E0FF907C
:105690000B29EEF0A3EFF0D007D0061239FC122C44
:1056A00098126225123505900918E0FFEF4480FF3B
:1056B000900918EFF012551A2275FE8543FF20530A
:1056C000DB7FD2AFC209E4900CD4F0900A8FF012C5
:1056D0005DF1E4FF12607CEF2401FDE433FC7E0FFA
:1056E0007FA01217B1900CCFEEF0A3EFF0E4FF1201
:1056F000678A1237EB7F0212607CEFC454F0FEC061
:1057000006E4FF12607CD0E02FF5E17F0312607C9D
:10571000E5E254804FF5E27F0412607CEF6008E51B
:10572000E254804480F5E27F0112607C8FE31264D2
:105730002643A910900A7BE04480F5E8125AB00293
:10574000676B900917E0FF7E00C3EF940FEE648053
:105750009480401D900917E4F0900917E0FF74361B
:105760002FF582E43409F583E0FF900E4FEFF080CF
:105770004F900916E0FF900917E0FEEEC39F40121C
:10578000900917E4F0900916E4F0900E4F74FFF0C2
:10579000802E900917E0FF74362FF582E43409F566
:1057A00083E0FF900E4FEFF0900917E0FF74362F63
:1057B000F582E43409F58374FFF0900917E004F0F2
:1057C000900E4FE0FF22900B4DEFF0126845900BCA
:1057D0004EEFF012583B900CD0E025E0FF900CCF3C
:1057E000E033FE7C001237991236CAE0FAA3E0C318
:1057F0009FEA9E5009900B4EE0603F14802D125896
:105800003B900CCFE0FEA3E0FF7C007D0712179FCA
:105810001237991236E9E0FAA3E0D39FEA9E401AC4
:10582000900B4EE0FF647E6011EF04FF748B2DF54A
:1058300082E4340AF583EFF0D20922900B4DE0FFA9
:1058400012678AEFFB22900DE1EFF0900DE2ECF091
:10585000A3EDF0900DE1E0FFEF540FFF7E00EF4E5F
:105860007039900DE274FF75F0FF121806900DE18B
:10587000E0FFEF54F0FFE5D254CFFEEE4FF5D290AB
:105880000DE2E0FEA3E0FFEEFF7E008FD5900DE27B
:10589000E0FEA3E0FFEF54FFF5D422900DE1E0FF1E
:1058A000EF540FF5CE900DE1E4F0900DE2E0FEA391
:1058B000E0FFEEFF7E008FCB900DE2E0FEA3E0FF65
:1058C000EF54FFF5CA22900BCAEEF0A3EFF0900B55
:1058D000CCECF0A3EDF0900BCEEAF0A3EBF0900B44
:1058E000CAE0FCA3E0FDE41215207B007AF0797F8A
:1058F0007845121405900BD0121B9A900BCCE0FC4B
:10590000A3E0FDEC121520900BD0121B291212FC03
:10591000C004C005C006C007900BCEE0FCA3E0FDAC
:10592000EC121520A804A905AA06AB07D007D006DB
:10593000D005D00412120B900BD4121B9A900BD4EA
:10594000121B0D22900E4AEFF0900E4AE0FF9000DD
:1059500019121BE3900015E0FCA3E0FD8D828C83FF
:10596000EF12177D900015E475F0011218069000F3
:1059700017E475F001121806900019121BE31216B5
:10598000D0FF7E00EF64184E6012900019121BE3E6
:105990001216D0FF7E00EF64044E7008900015E4EC
:1059A000F0A3E4F0900015E0FEA3E0FFC3EF9485C0
:1059B000EE94004008900015E4F0A3E4F022C0E06B
:1059C000C0F0C083C082C0D075D000C000C001C08C
:1059D00002C003C004C005C006C007309935539803
:1059E000FD900E48E0FF7E00C3EF9407EE648094C4
:1059F00080501B900E48E004F0900E48E0FF745178
:105A00002FF582E43409F583E0FF8F998005900E2D
:105A100048E4F03098065398FE124B75D007D00634
:105A2000D005D004D003D002D001D000D0D0D08295
:105A3000D083D0F0D0E032D292D290D2B3D2B5C2DD
:105A4000B7C2B4C2B2C2B17DD07C077F0212109E31
:105A5000900921E0FFEF30E0F743CF10900AD4E047
:105A600004F0900921E0FFEF54FEFF900921EFF0D0
:105A7000900AD4E0FF7E00C3EF941EEE6480948011
:105A8000501D900AD4E0FF7E00C3EF9402EE6480C4
:105A9000948040BC7D007C007F0212109E80B1C2C9
:105AA000B3C2B5C2B7C2B4C2B2C2B1C292C290222E
:105AB000900B437420F01266BEE4900B44F0900B00
:105AC00044E0FFC3952A5021E0FE1236C7E0FCA354
:105AD000E0FD75F002EE123732ECF0A3EDF0125754
:105AE000C6900B44E004F080D5900B43E0FF14F027
:105AF000EF70C31268B31268F2900B43EFF01266B6
:105B0000BEE4900B44F0900B44E0FFC3952A500B89
:105B10001248BC900B44E004F080EB900B43E0FF94
:105B200014F0EF70D922900D9DEFF0900D9EEDF0E6
:105B3000900D9FEBF0900DA4E0FF7E00EF64024E0D
:105B40006052900D9DE0FFEF14FFEF5407FF900DA2
:105B5000A1E0FEEE54F8FEEE4FFF900DA1EFF090A5
:105B60000DA0E0FFEF541FFFEF33333354F8FF90E5
:105B70000DA1E0FEEE5407FEEE4FFF900DA1EFF0F9
:105B8000900D9EE0FF900DA3EFF0900D9FE0FF9031
:105B90000DA4EFF022208518900918E0FFEF20E314
:105BA0000F900918E0FFEF4408FF900918EFF0226A
:105BB000208534900918E0FFEF30E32B000000004F
:105BC00000000000000020850F900918E0FFEF445E
:105BD00010FF900918EFF022900918E0FFEF54F73A
:105BE000FF900918EFF022900918E0FFEF54EFFF43
:105BF000900918EFF0900918E0FFEF54F7FF9009B3
:105C000018EFF022900924E0FEA3E0FFEF4E702E83
:105C1000900E54E0FFEF54FCFF900E54EFF0900E06
:105C200054E0FFEF54CFFFEF4410FF900E54EFF01D
:105C300090090D121B0D121559126873802C900ECD
:105C400054E0FFEF54FCFFEF4401FF900E54EFF0DF
:105C5000900E54E0FFEF54CFFF900E54EFF09009F8
:105C600011121B0D121559126873900E54E0FF2289
:105C7000750800750900750D02750C40750B0075EF
:105C80000A00750800AF087E00C3EF941FEE648021
:105C90009480503CAF0DAE0CAD0BAC0A7801121ADB
:105CA0009D8F0D8E0C8D0B8C0A30D720AF09747B25
:105CB0002FF582E4340AF583E508F00509AF097E83
:105CC00000C3EF9402EE648094805004050880B510
:105CD00085092A22AB07AA06900B4FE5F4F0A2AF84
:105CE000E433A3F0AFDFA3E4F0A3EFF0C2AF75F4A9
:105CF00002AF058FF5EAF5F3AF038FF2AFF3EFFED6
:105D0000ADF27C00E42DEC3EC39418501475F1F014
:105D100075F61043F6020000000080050000000048
:105D200000900B4FE0F5F4900B51A3E0F5DF900BE2
:105D300050E024FF92AF22AD07AC06900B43E5F490
:105D4000F0A2AFE433A3F0AFDFA3E4F0A3EFF0C21F
:105D5000AF75F402ECF5F3AF058FF2AFF3EFFEADE4
:105D6000F27C00E42DEC3EC39418501475F1F075EC
:105D7000F62043F60200000000800500000000004D
:105D8000900B43E0F5F4900B45A3E0F5DF900B4456
:105D9000E024FF92AF22C20C900CD4E01236C7E58B
:105DA000E5F0A3E5E4F0900CD4E004F0E0C3952A1C
:105DB000400BE4F0900A8FE04480F08002D20C9017
:105DC0000CD4E0FF12678A1237EB900CD4E0FF127C
:105DD0006845E5E254804FF5E2900CD4E0247BF571
:105DE00082E4340AF583E04480F5E8300C02D2EE18
:105DF00022906981E493FE740193FF900A74EFF09E
:105E000090699BE493FE740193FF900A92EFF01265
:105E10005C70750E00E50EC3952A5025AF0EEF7528
:105E2000F008A424A1F582E43469F583E493FFAE7D
:105E30000E748B2EF582E4340AF583EFF0050E80A4
:105E4000D4900A90E4F0A3E4F022900D0F121B9A74
:105E5000900D16E5F4F0A2AFE433FF900D15EFF0CE
:105E6000900D15E0FF7E00EF4E6002C2AF900D1363
:105E7000E0FF8FF4900D0F121B0D8F828E83E49341
:105E8000FF900D14EFF0900D16E0FF8FF4900D15BC
:105E9000E0FF7E00EF4E6002D2AF900D14E0FF22D3
:105EA000900DF9EEF0A3EFF0900DFBEDF0900DFBEF
:105EB000E0FF7E00EF4E7021900DF9E0FEA3E0FFC1
:105EC000EFF4FFEF52AB900DF9E0FEA3E0FFEEFF21
:105ED0007E00EFF4FFEF52AC22900DF9E0FEA3E05C
:105EE000FFEF42AB900DF9E0FEA3E0FFEEFF7E0076
:105EF000EF42AC2290095174A5F09009527408F059
:105F0000125C04900956EFF0900958E4F0900E5599
:105F1000E4F0900E55E0FF7E00C3EF9407EE64803E
:105F20009480501F900E55E0FF74512FF582E43499
:105F300009F583E0FF900958E02FF0900E55E0043A
:105F4000F080CF7599A522900E49EFF0900E49E0B0
:105F5000FF9001ADE0FCA3E0FD74AF2DF58274016C
:105F60003CF583EFF09001ADE475F0011218069056
:105F700001ADE0FEA3E0FFD3EF9400EE94024008F1
:105F80009001ADE4F0A3E4F0900E49E0FFEFB40D12
:105F9000069001A87403F022900D1E121C03908538
:105FA000F0E493FF900D24EFF0901200121B199073
:105FB0000D24E02FF0900A0C7401F0900A0DE4F02B
:105FC000A3E4F0900A0FE4F0A3E4F0900D21121B7B
:105FD000E3900A11121C03900D1E121BE3900A3D60
:105FE000121C0322900DADEFF0900DAEECF0A3ED7E
:105FF000F0900DB0EBF0900DADE0FF900DAEE0FC39
:10600000A3E0FD12109E900DADE0FF900DB0E0FDFD
:10601000124FD6900DB0E0FF7E00EF64014E700F7E
:10602000900DADE0FFEFC4540FFF7D0112626822B6
:10603000900E2EEFF0900E2FEDF0900E2EE0FF7EE2
:1060400000EF4E7005538EFE8010900E2EE0FF7E06
:1060500000EF64014E7003438E01900E2FE0FF7E2F
:1060600000EF64014E70045389FB22900E2FE0FF75
:106070007E00EF64024E700343890422900E5AEFB3
:10608000F0900E5AE0FFEF121D04609D0060A40125
:1060900060AB0260B20360B804000060C390699D09
:1060A000E493FF2290699EE493FF2290699FE4931A
:1060B000FF227F001268452290698FE493FE7401ED
:1060C00093FF227F00227E007F0A7D007B017A09F8
:1060D0007918121D307E007F147D007B017A0979CA
:1060E00022121D307E007F067D007B017A097959DE
:1060F000121D307E007F0C7D007B017A09794512EC
:106100001D307B017A09792290095C121C032290D0
:106110000C6AEEF0A3EFF0900C6C121C03900C6A6A
:10612000E0FEA3E0FF900C6FEEF0A3EFF0900C6C9C
:10613000121BE3900C71121C03900C6FE0FEA3E0A5
:10614000FF7B007A007DCD7C001258C6900C711246
:106150001BE3121AF322C0E0C0F0C083C082C0D09B
:1061600075D000C000C001C002C003C004C005C09B
:1061700006C0071264D57F01124D267F02124D26FC
:10618000D007D006D005D004D003D002D001D00073
:10619000D0D0D082D083D0F0D0E032900E4BEFF050
:1061A000900004E0FFEF121D0461BC0061BC0161BE
:1061B000C50261CE0361BC04000061D7900E4BE0C4
:1061C000FF125F4722900E4BE0FF12594422900EBF
:1061D0004BE0FF125F4722900E4BE0FF125F472219
:1061E000900918E0FFEF30E208900D1BE004F0800A
:1061F00005900D1BE4F0900D1BE0FF7E00D3EF94A3
:10620000C8EE64809480401C900918E0FFEF54BFF2
:10621000FF900918EFF0900918E0FFEF54DFFF90AE
:106220000918EFF02290091AE0FFEF30E639900AE2
:10623000CFE475F001121806D2C2D2C0D2C1D2C3C7
:10624000900ACFE0FEA3E0FFD3EF9484EE940340E6
:1062500016C2C2C2C0C2C1C2C390091AE0FFEF4455
:1062600040FF90091AEFF022900E26EFF0900E27D3
:10627000EDF0900E26E0FF7E00EF4E7013900E279B
:10628000E0FF7E00EF4E600443D2802253D27F2293
:10629000900E26E0FF8FCE900E27E0FF7E00EF4E9F
:1062A000600443C8042253C8FB22900D95EFF09080
:1062B0000D96121C03900D95E0FF90000DEFF090ED
:1062C00000117403F0A374E8F0900D96121BE39094
:1062D0000019121C03900015E4F0A3E4F0900017DD
:1062E000E4F0A3E4F090000FE4F0227B017D017F55
:1062F0000212315A7B017D027F0212315A900C4FFB
:10630000121BA600002580900C537440F0900C5492
:10631000E4F0900C557410F07F007E487DE87C011D
:106320001245B87D007F011265EF22900E57EFF005
:10633000900E57E0FFEF75F008A424A3F582E43433
:1063400069F583E493FF7E00EF7F00FE900E57E037
:10635000FDED75F008A424A4F582E43469F583E426
:1063600093FD7C00EF2DFFEE3CFE22900DC0EFF080
:10637000900DC0E0FF12632B900DC1EEF0A3EFF083
:10638000900DC1E0FEA3E0FFEF7803C333CE33CE20
:10639000D8F9FF7C007D0A1217B1900DC1EEF0A371
:1063A000EFF0900DC1E0FEA3E0FF227D9F7C0F7F08
:1063B000101258467B017D007C007F02125FE47F53
:1063C000001266E37D007F0012666F900DB8E4F066
:1063D0007B007D207F0012649C7B007D007F00128B
:1063E0004F327D017F00126268227D007F101268AB
:1063F0005C7D017F027E00125EA07D017F087E0031
:10640000125EA07D017F407E00125EA07D017F8034
:106410007E00125EA07D017F01125252C2AEC2BE4A
:106420007F0112682D22E4FFEFC3952A501A12371C
:106430001FE4F074892F1236D0E4F0A3F074832F98
:10644000123777E4F00F80E0E4F525F524F523F525
:1064500022900CCE74FFF0E4900CD1F0A3F0C209AE
:1064600022C0E0C0F0C083C082C0D075D000C000A0
:10647000C001C002C003C004C005C006C007125D51
:1064800096D007D006D005D004D003D002D001D0DA
:1064900000D0D0D082D083D0F0D0E032900DB5EFD4
:1064A000F0900DB6EDF0900DB7EBF0900DB5E0FF6C
:1064B0007E00EF4E701EE5D754C0FF900DB6E0FE93
:1064C000EF4EFF900DB7E0FEEF4EFF900DB8E0FEEF
:1064D000EF4EF5D7227F02124A97EF60077F021234
:1064E0004D26D20A7F01124A97EF601F7F01124D9D
:1064F00026121086900E5CEFF0900E5CE0FF900A82
:106500003D121BE389828A83121D2E22900E28EFF2
:10651000F0900E29EDF0900E28E0FF7E00EF4E6027
:106520000543A902800353A9FD900E29E0FF7E00D8
:10653000EF4E700453B9FD2243B90222E4900CD50A
:10654000F0900B43F0900B43E0FFC3952A501312D9
:1065500048BC900B43E0FF12221D900B43E004F077
:1065600080E3AF25AE24AD23AC2222900005121BA0
:106570000D7B017A007900780012196690000512EF
:106580001B9A900013E475F0011218069001A9E41B
:1065900075F00112180622900D77EFF0900D77E05C
:1065A000FF900004EFF0900005121BA60000000011
:1065B000900D78121B0D900009121B9A9001A8747F
:1065C00001F022900E3AEFF0900E3BEDF0900E3A73
:1065D000E0FF7E00EF4E7004C2A98002D2A9900EA7
:1065E0003BE0FF7E00EF4E7003C2B922D2B9229089
:1065F0000E3EEFF0900E3FEDF0900E3EE0FF7E007D
:10660000EF4E7004C2AC8002D2AC900E3FE0FF7E31
:1066100000EF4E7003C2BC22D2BC22900E30EEF0CE
:10662000A3EFF05389FC900E30E0FEA3E0FF8F8AC9
:10663000900E30E0FEA3E0FFEF7805CEC313CE133B
:10664000D8F9FF8F8C22900E32EEF0A3EFF0538931
:10665000FC438901900E32E0FEA3E0FF7E008F8AAA
:10666000900E32E0FEA3E0FFEEFF7E008F8C2290C2
:106670000E2AEFF0900E2BEDF0900E2AE0FF7E0038
:10668000EF4E7012900E2BE0FF7E00EF4E60044341
:10669000D7802253D77F22900E4EEFF07B017A00F5
:1066A00079227F011262AA900E4EE0FFC007900D82
:1066B00078121BA600000FA0D00712659722E4FEF7
:1066C000900A8FE0547FF0D2EE900A8FE0548070F1
:1066D000111255A543CF100EEEC3946474809480BC
:1066E00040E722900E6DEFF0900E6DE0FF7E00EF20
:1066F0004E700453D2FE22900E6DE0FF7E00EF64D8
:10670000014E700343D20122900E38EEF0A3EFF059
:10671000900E38E0FEA3E0FF7E008F8A900E38E0F6
:10672000FEA3E0FFEEFF7E008F8C227D017F011231
:1067300060307B007A007D007C837F0112119A7D9E
:10674000017F011265C37F0112688922900E4CEF10
:10675000F0900E4CE0FFEF3395E0FEEF4E70067FB9
:1067600005126697227F0012669722E4FFEFC39519
:106770002A50161236C6E0FCA3E0FD900A751236C8
:10678000E8ECF0A3EDF00F80E422900E58EFF090CB
:106790000E58E0FFEF75F008A424A0F582E43469F8
:1067A000F583E493FF22900E34EFF0900E35EDF078
:1067B000438903900E34E0FF8F8A900E35E0FF8FFF
:1067C0008C221249AC12691C1262EB12672B126305
:1067D000AB1263EA1268D112104AD2AF22AFAF7E79
:1067E00000EF75F010A4FFAEF0E5AEC4540FFD7CD1
:1067F00000EF2DFFEE3CFE22900E7DEFF075FEC106
:10680000900E7DE0FF7E00EF4E700453FF7F224329
:10681000FF8022900E77EFF05389FC438902900E9F
:1068200077E0FF8F8A900E77E0FF8F8C22900E74B6
:10683000EFF0900E74E0FF7E00EF4E700453AD7FDA
:106840002243AD8022900E59EFF0900E59E0FF7474
:106850008B2FF582E4340AF583E0FF22900E2CEFB3
:10686000F0900E2DEDF0900E2CE0FF8FB5900E2DD8
:10687000E4F022900E14EEF0A3EFF0900E14E0FE80
:10688000A3E0FF7D0112437A22900E78EFF0900E84
:1068900078E0FF7E00EF4E7003C28C22D28C2290F3
:1068A0000E6AEFF0E5CF54F8FF900E6AE0FEEF4E6F
:1068B000F5CF22E4FFEFC3952A50091236C61237EE
:1068C000BB0F80F122900A74E0FFEF75F00384FFA4
:1068D000227F0012689F7F011267F822906985E489
:1068E00093FE740193FF22906989E493FE740193EF
:1068F000FF22906983E493FE740193FF2290697DE7
:10690000E493FE740193FF2275B78675B61843A908
:106910002022900A74E0FFEFC313FF2243C1C0435B
:10692000D930220000076C00C80078000009600020
:10693000C8007800000B5400C8007800000D480023
:10694000C804B000FFFFFFFFFFFFFF00000D48007D
:10695000C8007800000B5400C800780000096000EF
:10696000C800780000076C00C804B000FFFFFFFFFC
:10697000FFFFFF00FFFFFFFFFFFFFF000000010020
:10698000000003000A0BB800C80064000200000009
:1069900000000500000001FFFFFFFF00180348058D
:1069A000081F050144034805081A0501913F065BCD
:0D69B0004F666D7D077F6F777C395E7971D2
:0485F000AA5555AA89
:00000001FF
