:10000000021100300003021003210330000302102C
:100010000B210B30000302101321133000030210D8
:100020001B211B3000030210232123300003021088
:100030002B212B3000030210332133300003021038
:100040003B213B30000302104321433000030210E8
:100050004B214B3000030210532153300003021098
:100060005B215B3000030210632163300003021048
:100070006B216B30000302107321733000030210F8
:100080007B217B30000302108321833000030210A8
:100090008B218B3000030210932193300003021058
:1000A0009B219B3000030210A321A3300003021008
:0300B000AB21ABD6
:10100000D2EE22021046C284D28222024F6FD284D4
:10101000C2822202104EC294D2A522021052D29451
:10102000C2A522025FDCC2A6D2A72202105AD2A613
:10103000C2A722021056C280D28122021062D28040
:10104000C2812202106A5388FD3222021071538835
:10105000F7323202107253ADDF3232026B65126E1C
:10106000F42232026C6F7520FF2232021079A2093D
:1010700022323202107AD2092232320210817F01EA
:0F10800022323202685AAFC72232320210822265
:03109300021089BF
:10109B0002108A900921E0FFEF20E509900C5CE437
:1010AB00F0A3E4F022900C5CE475F00112180690AA
:1010BB000920E0FFEF30E73C900C5CE0FEA3E0FF83
:1010CB00C3EF9470EE9417502B900C5BE004F090F0
:1010DB000C5BE0FF7E00D3EF9464EE648094804061
:1010EB0013900920E0FFEF547FFF900920EFF07F72
:1010FB0000125D452278FFE4F6D8FD9000007F00DA
:10110B007E01E4F0A3DFFCDEFA75812A02115502A1
:10111B00418AE493A3F8E493A34003F68001F20819
:10112B00DFF48029E493A3F85407240CC8C333C419
:10113B00540F4420C8834004F456800146F6DFE484
:10114B00800B0102040810204080903EB9E47E0120
:10115B009360BCA3FF543F30E509541FFEE493A3F7
:10116B0060010ECF54C025E060A840B8E493A3FA09
:10117B00E493A3F8E493A3C8C582C8CAC583CAF095
:10118B00A3C8C582C8CAC583CADFE9DEE780BE90A3
:10119B000D76EFF0900D77ECF0A3EDF0900D79EA72
:1011AB00F0A3EBF0900D76E0FFEF121D0411C800D9
:1011BB0011D40111E00211EC03000011FF900D7727
:1011CB00E0FEA3E0FF126D4D22900D77E0FEA3E051
:1011DB00FF126D7822900D77E0FEA3E0FF126F45B2
:1011EB0022900D77E0FEA3E0FF900D79E0FCA3E0E9
:1011FB00FD126ED822202304140215C5E86480F872
:10120B00E933E83360110460F0ED33EC337009E837
:10121B00FCE9FDEAFEEBFF220460DED3EB9FEA9EC6
:10122B00E99DE8C2E78CF0C2F795F0400CE8CCF8EA
:10123B00E9CDF9EACEFAEBCFFB12159085D0F05839
:10124B0004700320D5B3E80470075002B2D5021521
:10125B00CF92D5EC0460F7E4CCC0E0C398F8603BC8
:10126B0094186008400DD0E0FB0215A7E4FBFAC907
:10127B00FC8028E830E406E4C9FBE4CAFCE830E370
:10128B0005E4C9CACBFCE854076010F8C3E913F9AD
:10129B00EA13FAEB13FBEC13FCD8F130F52FC3E494
:1012AB009CFCEF9BFFEE9AFEED99FDD0E0FBEF4E21
:1012BB004D4C701222DB030215CCEC2CFCEF33FFF0
:1012CB00EE33FEED33FDED30E7EB0215A7EF2BFF11
:1012DB00EE3AFEED39FDD0E0FB50130BBB000302E1
:1012EB0015CFED13FDEE13FEEF13FFEC13FC021500
:1012FB00A7EC4D6011E8497017ED33EC3304600D2A
:10130B00E4FCFFFEFD22E933E8330470F80215C557
:10131B0012159058046009E4CC248150062850091A
:10132B000215CF2840030215CCC0E0EB4A7044B93C
:10133B008006D0E0FB0215BBEF4E701CBD8008EBA6
:10134B00FFEAFEE9FD80EBE98DF0A4FEE5F0021368
:10135B00E5E9CDF9EAFEEBFFEF89F0A4FCE5F0CE71
:10136B0089F0A42EFFE435F0CD89F0A42DFEE435F1
:10137B00F08067EF4E7005BD80D780C3EF8BF0A474
:10138B00ACF0EE8BF0A42CFCE435F0F8EF8AF0A473
:10139B002CE5F038FCE433CB8DF0A42CFCE5F03BD2
:1013AB00F8EE8AF0A42CFCE5F038F8E433CF89F0A2
:1013BB00A42CFCE5F038CF3400CE89F0A42FFFE548
:1013CB00F03EFEE433C98DF0A42EFEE5F039CD8A54
:1013DB00F0A42FFFE5F03EFEE43DFD33D0E0FB50E3
:1013EB00070BBB000F0215CFEC2CFCEF33FFEE33DA
:1013FB00FEED33FD0215A70215CFEC5D046005E889
:10140B00590470030215C5121590580460F6EC4888
:10141B0060F2EC7004FDFEFF22C860DB2481C85033
:10142B0009C398600250060215CC9850CAF582E9A0
:10143B00294B4A7005AB820215BB75F0007C1A78FC
:10144B0080C3EF9BEE9AED99400DC3EF9BFFEE9A95
:10145B00FEED99FDE842F0DC23ACF0D0E0FFD0E0EC
:10146B00FED0E0FDAB8220E7101BEB60BAEC2CFC4E
:10147B00EF33FFEE33FEED33FD0215A7E803F83033
:10148B00E705C0F075F000EF2FFFEE33FEED33FDF7
:10149B0040B830E7C280AA74F8CC6480CCC86480B2
:1014AB00C8F58204604FC3EB9FF5F0EA9E42F0E96A
:1014BB009D42F0E89C45F0603C501DE5825FFFE5E6
:1014CB0082D313CB5BCBF42B5582FB50280ABA008B
:1014DB002409B9002008801DE5825BFBE582D3134C
:1014EB00CF5FCFF4C3132F5582FF50090EBE0005FB
:1014FB000DBD00010CC3EB9FF5F0EA9E42F0E99D98
:10150B0042F0E89C45F06007CC4820E701B3EC22A1
:10151B0075F020800E75F010800575F0087D007E4B
:10152B00007F003392D530D503121A68EC3340108C
:10153B00EF33FFEE33FEED33FDEC33FCD5F0ED2254
:10154B00E5F0247EA2D513CC92E7CDCEFF22EDD2CF
:10155B00E7CD33EC3392D524814006E4FFFEFDFC4E
:10156B0022FCE4CFCECDCC24E0501174FF80EDC330
:10157B00CC13CCCD13CDCE13CECF13CF0470F03014
:10158B00D5DE021A68E9D2E7C933E833F892D5ED14
:10159B00D2E7CD33EC33FC5002B2D522EC30E7105E
:1015AB000FBF000C0EBE00080DBD00040BEB60144A
:1015BB00A2D5EB13FCED92E7FD2274FFFCFDFEFFC1
:1015CB0022E480F8A2D574FF13FC7D80E480EFE762
:1015DB0009F608DFFA8046E709F208DFFA803E8851
:1015EB00828C83E709F0A3DFFA8032E309F608DF88
:1015FB00FA8078E309F208DFFA807088828C83E343
:10160B0009F0A3DFFA806489828A83E0A3F608DFFE
:10161B00FA805889828A83E0A3F208DFFA804C8033
:10162B00D280FA80C680D4806980F28033801080AB
:10163B00A680EA809A80A880DA80E280CA8033890B
:10164B00828A83ECFAE493A3C8C582C8CCC583CC49
:10165B00F0A3C8C582C8CCC583CCDFE9DEE7800D1B
:10166B0089828A83E493A3F608DFF9ECFAA9F0EDFB
:10167B00FB2289828A83ECFAE0A3C8C582C8CCC559
:10168B0083CCF0A3C8C582C8CCC583CCDFEADEE827
:10169B0080DB89828A83E493A3F208DFF980CC880C
:1016AB00F0EF60010E4E60C388F0ED2402B404002D
:1016BB0050B9F582EB2402B4040050AF23234582CA
:1016CB002390162A73BB010689828A83E02250027B
:1016DB00E722BBFE02E32289828A83E49322BB01C9
:1016EB000CE58229F582E5833AF583E0225006E981
:1016FB002582F8E622BBFE06E92582F8E222E58286
:10170B0029F582E5833AF583E49322BB01098982AB
:10171B008A83F8E028F022500327F722BBFE05F856
:10172B00E328F3228A838982F8E4932822BB010FF2
:10173B00F8E58229F582E5833AF583E028F022501B
:10174B0009C58229F8E58226F622BBFE09C5822946
:10175B00F8E22582F222F8EA2583F583E993282221
:10176B00BB010689828A83F0225002F722BBFE015D
:10177B00F322F8BB010DE58229F582E5833AF58367
:10178B00E8F0225006E92582C8F622BBFE05E925C2
:10179B0082C8F222EF8DF0A4A8F0CF8CF0A428CE53
:1017AB008DF0A42EFE22BC000BBE0029EF8DF08421
:1017BB00FFADF022E4CCF875F008EF2FFFEE33FE0F
:1017CB00EC33FCEE9DEC984005FCEE9DFE0FD5F046
:1017DB00E9E4CEFD22EDF8F5F0EE8420D21CFEAD4F
:1017EB00F075F008EF2FFFED33FD4007985006D54D
:1017FB00F0F222C398FD0FD5F0EA22C5F0F8A3E072
:10180B0028F0C5F0F8E582158270021583E038F0F8
:10181B0022A3F8E0C5F025F0F0E5821582700215E1
:10182B0083E0C838F0E822BB010A89828A83E0F59D
:10183B00F0A3E022500687F009E71922BBFE07E36D
:10184B00F5F009E3192289828A83E493F5F0740198
:10185B009322BB0110E58229F582E5833AF583E0FB
:10186B00F5F0A3E0225009E92582F886F008E6227C
:10187B00BBFE0AE92582F8E2F5F008E222E5832AAD
:10188B00F583E993F5F0A3E99322BB010789828ADB
:10189B0083021806500B09C5F027F7C5F01937F767
:1018AB0022BBFE0D09F8E325F0F3C5F019E338F37D
:1018BB0022F889828A8374019325F0C5F0F8E493AA
:1018CB003822BB010DC58229C582C5833AC5830267
:1018DB0018065011C58229F808E5F026F618F5F020
:1018EB00E58236F622BBFE11C58229F808E225F007
:1018FB00F5F0F218E23582F222F8E58229F582E55D
:10190B00832AF58374019325F0F5F0E4933822BB19
:10191B00010A89828A83F0E5F0A3F0225006F709C9
:10192B00A7F01922BBFE06F3E5F009F31922F8BB69
:10193B000111E58229F582E5833AF583E8F0E5F0BC
:10194B00A3F0225009E92582C8F608A6F022BBFEB7
:10195B0009E92582C8F2E5F008F222EF2BFFEE3AF7
:10196B00FEED39FDEC38FC2275F008758200EF2F87
:10197B00FFEE33FECD33CDCC33CCC58233C5829B4A
:10198B00ED9AEC99E58298400CF582EE9BFEED9A70
:10199B00FDEC99FC0FD5F0D6E4CEFBE4CDFAE4CC0C
:1019AB00F9A88222B800C1B90059BA002DEC8BF00E
:1019BB0084CFCECDFCE5F0CBF97818EF2FFFEE33CB
:1019CB00FEED33FDEC33FCEB33FB10D703994004F6
:1019DB00EB99FB0FD8E5E4F9FA227818EF2FFFEE1D
:1019EB0033FEED33FDEC33FCC933C910D7059BE94E
:1019FB009A4007EC9BFCE99AF90FD8E0E4C9FAE4AA
:101A0B00CCFB2275F010EF2FFFEE33FEED33FDCC48
:101A1B0033CCC833C810D7079BEC9AE899400AED32
:101A2B009BFDEC9AFCE899F80FD5F0DAE4CDFBE4DA
:101A3B00CCFAE4C8F922EF5BFFEE5AFEED59FDEC50
:101A4B0058FC22EF6BFFEE6AFEED69FDEC68FC22A1
:101A5B00CFF4CFCEF4CECDF4CDCCF4CC22C3E49FD7
:101A6B00FFE49EFEE49DFDE49CFC22EB9FF5F0EA77
:101A7B009E42F0E99D42F0EC6480C864809845F08A
:101A8B0022EB9FF5F0EA9E42F0E99D42F0E89C457F
:101A9B00F022E8600FECC313FCED13FDEE13FEEF29
:101AAB0013FFD8F122E8600FEFC333FFEE33FEEDE7
:101ABB0033FDEC33FCD8F122BB010DE58229F58215
:101ACB00E5833AF583021B0D5007E92582F8021DC9
:101ADB005CBBFE07E92582F8021D68E58229F582C9
:101AEB00E5833AF583021B19BB010789828A8302BE
:101AFB001B9A5005E9F8021D9EBBFE05E9F8021D75
:101B0B00AA22E0FCA3E0FDA3E0FEA3E0FF22E49306
:101B1B00FC740193FD740293FE740393FF22E0F8AF
:101B2B00A3E0F9A3E0FAA3E0FB22BB010DE58229B8
:101B3B00F582E5833AF583021B295007E92582F8E4
:101B4B00021D74BBFE07E92582F8021D81E582297F
:101B5B00F582E5833AF583021D8E7401FF3395E020
:101B6B00FEFDFCA3A3A3E0CF2FF0E582158270024C
:101B7B001583E0CE3EF0E582158270021583E0CD31
:101B8B003DF0E582158270021583E0CC3CF022EC2F
:101B9B00F0A3EDF0A3EEF0A3EFF022A8828583F083
:101BAB00D083D082121BBD121BBD121BBD121BBDDD
:101BBB00E473E493A3C583C5F0C583C8C582C8F09D
:101BCB00A3C583C5F0C583C8C582C822A42582F5E9
:101BDB0082E5F03583F58322E0FBA3E0FAA3E0F97D
:101BEB0022F8E0FBA3A3E0F925F0F0E58215827063
:101BFB00021583E0FA38F022EBF0A3EAF0A3E9F048
:101C0B0022BB010789828A83021BE35005E9F80294
:101C1B001DB6BBFE05E9F8021DC889828A83021D29
:101C2B00DABB011A89828A83D0F0D0E0F8D0E0F9D0
:101C3B00D0E0FAD0E0FBE8C0E0C0F0021C03501685
:101C4B00E9F8D083D082D0E0F9D0E0FAD0E0FBC045
:101C5B0082C083021DBFBBFE16E9F8D083D082D0B1
:101C6B00E0F9D0E0FAD0E0FBC082C083021DD122A4
:101C7B00BB010DE58229F582E5833AF583021BE36F
:101C8B005007E92582F8021DB6BBFE07E92582F84D
:101C9B00021DC8E58229F582E5833AF583021DDA38
:101CAB00BB0120E58229F582E5833AF583D0F0D09C
:101CBB00E0F8D0E0F9D0E0FAD0E0FBE8C0E0C0F00B
:101CCB00021C035018E92582F8D083D082D0E0F9AA
:101CDB00D0E0FAD0E0FBC082C083021DBFBBFE1870
:101CEB00E92582F8D083D082D0E0F9D0E0FAD0E0B9
:101CFB00FBC082C083021DD122D083D082F8E49333
:101D0B007012740193700DA3A393F8740193F58271
:101D1B008883E4737402936860EFA3A3A380DF8AC4
:101D2B00838982E473EF4E6012EF60010EEDBB010D
:101D3B000B89828A83F0A3DFFCDEFA2289F050073D
:101D4B00F709DFFCA9F022BBFEFCF309DFFCA9F0CD
:101D5B0022E6FC08E6FD08E6FE08E6FF22E2FC08A8
:101D6B00E2FD08E2FE08E2FF22E6FB08E6F908E6E0
:101D7B00FA08E6CBF822E2FB08E2F908E2FA08E2FD
:101D8B00CBF822E493F8740193F9740293FA740379
:101D9B0093FB22ECF608EDF608EEF608EFF622ECD4
:101DAB00F208EDF208EEF208EFF222E6FB08E6FA93
:101DBB0008E6F922EBF608EAF608E9F622E2FB0858
:101DCB00E2FA08E2F922EBF208EAF208E9F222E47D
:101DDB0093FB740193FA740293F922900922E0FFAA
:101DEB00EF20E115900925E0FF7E00D3EF9400EE84
:101DFB00648094805003021EAF90096FE0FFEF44A4
:101E0B0001FF90096FEFF0900922E0FFEF30E1083E
:101E1B009009707403F08064900925E0FFEF30E0C7
:101E2B0008900970741FF08053900925E0FFEF3084
:101E3B00E1089009707420F08042900925E0FFEFD3
:101E4B0030E2089009707421F08031900925E0FF91
:101E5B00EF30E3089009707422F08020900925E0A0
:101E6B00FFEF30E4089009707423F0800F90092580
:101E7B00E0FFEF30E5069009707424F0900922E042
:101E8B00FFEF54FDFF900922EFF0900925E4F0904D
:101E9B000975E4F0900971E4F0A3E4F0900973E4A0
:101EAB00F0A3E4F090096FE0FFEF20E003022215AE
:101EBB00900970E0FF7E00EF64014E70537BFF7A58
:101ECB00707969C003C002C0017B017A09797190F6
:101EDB000BB8121C037B017A097973900BBB121C94
:101EEB00037B017A097975900BBE121C03D001D0CC
:101EFB0002D003122C947E00EF64014E6003022289
:101F0B001C90096FE0FFEF54FEFF90096FEFF0227A
:101F1B00900970E0FF7E00EF64024E70537BFF7AF6
:101F2B00707991C003C002C0017B017A097971906D
:101F3B000BB8121C037B017A097973900BBB121C33
:101F4B00037B017A097975900BBE121C03D001D06B
:101F5B0002D003122C947E00EF64014E6003022228
:101F6B001C90096FE0FFEF54FEFF90096FEFF0221A
:101F7B00900970E0FF7E00EF64034E70537BFF7A95
:101F8B007079B9C003C002C0017B017A09797190E5
:101F9B000BB8121C037B017A097973900BBB121CD3
:101FAB00037B017A097975900BBE121C03D001D00B
:101FBB0002D003122C947E00EF64014E60030222C8
:101FCB001C90096FE0FFEF54FEFF90096FEFF022BA
:101FDB00900970E0FF7E00EF641F4E70537BFF7A19
:101FEB007079C1C003C002C0017B017A097971907D
:101FFB000BB8121C037B017A097973900BBB121C73
:10200B00037B017A097975900BBE121C03D001D0AA
:10201B0002D003122C947E00EF64014E6003022267
:10202B001C90096FE0FFEF54FEFF90096FEFF02259
:10203B00900970E0FF7E00EF64204E70537B017AB5
:10204B00097976C003C002C0017B017A09797190CE
:10205B000BB8121C037B017A097973900BBB121C12
:10206B00037B017A097975900BBE121C03D001D04A
:10207B0002D003122C947E00EF64014E6003022207
:10208B001C90096FE0FFEF54FEFF90096FEFF022F9
:10209B00900970E0FF7E00EF64214E70537B017A54
:1020AB00097986C003C002C0017B017A097971905E
:1020BB000BB8121C037B017A097973900BBB121CB2
:1020CB00037B017A097975900BBE121C03D001D0EA
:1020DB0002D003122C947E00EF64014E60030222A7
:1020EB001C90096FE0FFEF54FEFF90096FEFF02299
:1020FB00900970E0FF7E00EF64224E70537B017AF3
:10210B00097996C003C002C0017B017A09797190ED
:10211B000BB8121C037B017A097973900BBB121C51
:10212B00037B017A097975900BBE121C03D001D089
:10213B0002D003122C947E00EF64014E6003022246
:10214B001C90096FE0FFEF54FEFF90096FEFF02238
:10215B00900970E0FF7E00EF64234E70507B017A94
:10216B000979B6C003C002C0017B017A097971906D
:10217B000BB8121C037B017A097973900BBB121CF1
:10218B00037B017A097975900BBE121C03D001D029
:10219B0002D003122C947E00EF64014E70739009F1
:1021AB006FE0FFEF54FEFF90096FEFF02290097084
:1021BB00E0FF7E00EF64244E70577B017A0979C6ED
:1021CB00C003C002C0017B017A097971900BB81270
:1021DB001C037B017A097973900BBB121C037B01E7
:1021EB007A097975900BBE121C03D001D002D00373
:1021FB00122C947E00EF64014E701690096FE0FF75
:10220B00EF54FEFF90096FEFF0227D007F00126903
:10221B006C22900BE6EFF0E4900BEEF0900BE6E007
:10222B00900A491239DF123B22900BE7F0A3EFF033
:10223B00E47F01FEFDFC900BE6E0F9F8121AB08F7B
:10224B00298E288D278C26AF01126A2F900BECEE6E
:10225B00F0A3EFF0123A324005123B448005E490B4
:10226B000BE9F0900BE9E0640160030223CF900BC4
:10227B00E6E0FF2455123A47E0C394FA7480948049
:10228B005006123A44E004F0123AF5FCE4FBFAF97A
:10229B00F8C3121A8C60030223BC900A48E0900B1F
:1022AB00EBF012107EEF6030E4900BE9F0A3F0122C
:1022BB003A7F5018123A44E0C394017480948040E2
:1022CB0006900BE9E004F0123B0980E3123AB240AE
:1022DB0007900BEBE0240FF0900BE6E02455123A3D
:1022EB0047123B6450030223BCE4900BE9F01270DD
:1022FB003AEF705E900BEAF0123A7F5022900BE6A9
:10230B00E06F6016126FF7900BEAE02455123A4714
:10231B00E0C39F4005123B448005123B0980D91254
:10232B00107EEF3395E04F7063900BE9E0705DA387
:10233B00F0123A7F5056900BE6E06F6010126FF779
:10234B00900BEA123A99E0C39F4002803C123B0982
:10235B0080DF12107EEF3395E04F7030900BEBF077
:10236B00900BEAF0123A7F5018123A44E0C39402F1
:10237B00748094804006900BEBE004F0123B0980D4
:10238B00E3900BEB123AB54003123B44900BE9E0A0
:10239B0064017002D208E5254529FFE5244528FE96
:1023AB00E5234527FDE52245268F258E248D23F534
:1023BB0022900BE6E0FF245D1239F5E4F0A3123A0C
:1023CB008C0225E2900BE6E0FF126A6F900BE7E0C0
:1023DB00FCA3E0FDD3123A264008123A96E004F033
:1023EB00800B900CBCE004F0123A96E4F0123B2CFC
:1023FB00C3E49FFBE49EFAC3ED9BEA123A284066C6
:10240B00D3123A335060123AD3F583E4123A8C125A
:10241B003A5D6003022536900BE7E0FEA3E0FF90E8
:10242B000BE6E0900A59123A79EE8FF01218061269
:10243B007024123A144009123A4FE475F0018019D6
:10244B00127024C3E49FFFE49EFE123A1440030271
:10245B002536123A4F74FFF5F0121806123A0AE4B9
:10246B00F0A3F0022536123B2CC3E49FFFE4123A93
:10247B00305073123AD3123A88F583E4F0745D2F1F
:10248B00F582E4340AF583E0FF75F00A84E5F07019
:10249B0044C3EF946474809480900BE6E040101278
:1024AB003AD8F583E4F0D209900A6D04F080261235
:1024BB003A54C083C082E0FEA3E0FF900A66E0A21C
:1024CB00E713FD3395E0FCC3EF9DFFEE9CD082D06C
:1024DB0083F0A3EFF0900BE6E0FF900CB5E06F708C
:1024EB004A74FFF08045123B2CD3123A33403C9098
:1024FB000BE6E0123AD8123A5D7030123B4B123AAF
:10250B0088F583E064207023123B4BF583E4F09055
:10251B000A66E0A2E713A2E713FD3395E0FC75F022
:10252B0002EF123A57EC8DF0121806123AF54D4E97
:10253B004F70030225EE900BECE0FCA3E0FDAE0424
:10254B007802CEA2E713CE13D8F8FFC3ED9FFFECB2
:10255B00123A3040030225E7123AA4E004F012705D
:10256B004F900BEBEFF0E4900BEAF0123A7F501820
:10257B00123A44E0C39401748094804006900BE9B6
:10258B00E004F0123B0980E3123AB24008900A488B
:10259B00E0900BEBF0900BE6E0FB123AA8123B64D9
:1025AB005003022638746B2B123AAAE4F0AF29AE13
:1025BB0028AD27AC26121A5BE5255FFFE5245EFEEE
:1025CB00E5235DFDE5225C8F258E248D23F522749A
:1025DB00552BF582E4340AF583E4F022123AA4E099
:1025EB0014F022900BE6E02455123A47123A5F7032
:1025FB0008900BE6E0FF125EDCE52A14FF900BE679
:10260B00E06F7029900CBCE0C3952A4020E4900B3E
:10261B00EAF0123A7F500E123A44E06003123B4448
:10262B00123B0980ED900BE9E07002C20822900C7E
:10263B0047EEF0A3EFF0900C49121C03900C47E00F
:10264B00FEA3E0FF900C4CEEF0A3EFF0900C4912C0
:10265B001BE3900C4E121C03900C4E121BE3C00399
:10266B00C002C0017B017A09790DD082D083D0E002
:10267B006B7008E965827003EA658360030227BC0F
:10268B00900C4CE0FEA3E0FFD3EF9479EE94015055
:10269B001D900C4CE0FEA3E0FF7B007A007D467C96
:1026AB000012605B900C4E121BE3121AF322900C7B
:1026BB004CE0FEA3E0FFD3EF94B6EE9403501D90D5
:1026CB000C4CE0FEA3E0FF7B007A007DD87C00126F
:1026DB00605B900C4E121BE3121AF322900C4CE031
:1026EB00FEA3E0FFD3EF94FCEE9403504B900C4C05
:1026FB00E0FEA3E0FFC006C007900C4CE0FEA3E099
:10270B00FFEF244AFDEE34FCFCE41215207B9A7A91
:10271B00997999783E1212FC121559AB07AA06AAA1
:10272B0006AB07D007D0067DD87C0012605B900CFF
:10273B004E121BE3121AF322900C4CE0FEA3E0FFA7
:10274B00D3EF94A7EE9404501D900C4CE0FEA3E045
:10275B00FF7B007A007DA87C0112605B900C4E120F
:10276B001BE3121AF322900C4CE0FEA3E0FFC00611
:10277B00C007900C4CE0FEA3E0FFEF2459FDEE34B4
:10278B00FBFCE41215207B007A007900783F1212D3
:10279B00FC121559AB07AA06AA06AB07D007D00641
:1027AB007DF47C0112605B900C4E121BE3121AF34A
:1027BB0022900C4E121BE3C003C002C0017B017AB6
:1027CB00097911D082D083D0E06B7008E9658270F3
:1027DB0003EA6583600302288B900C4CE0FEA3E0B8
:1027EB00FFC3EF94B1EE9408501D900C4CE0FEA388
:1027FB00E0FF7B007A007DCD7C0012605B900C4E7D
:10280B00121BE3121AF322900C4CE0FEA3E0FFC361
:10281B00EF9412EE940C501D900C4CE0FEA3E0FFD5
:10282B007B7F7AFE7D8B7C0312605B900C4E121BC0
:10283B00E3121AF322900C4CE0FEA3E0FFC3EF94DB
:10284B00D9EE940D501D900C4CE0FEA3E0FF7BA342
:10285B007AFB7D587C0712605B900C4E121BE312C7
:10286B001AF322900C4CE0FEA3E0FF7BBD7AEA7DCD
:10287B00E07C1A12605B900C4E121BE3121AF322CF
:10288B00900C4CE0FEA3E0FFD3EF9470EE9403505A
:10289B001D900C4CE0FEA3E0FF7BFB7AFF7D8C7C54
:1028AB000012605B900C4E121BE3121AF322900C79
:1028BB004CE0FEA3E0FFD3EF9484EE9404501D9004
:1028CB000C4CE0FEA3E0FF7BCA7AFF7D747C011207
:1028DB00605B900C4E121BE3121AF322900C4CE02F
:1028EB00FEA3E0FFD3EF944CEE9405501D900C4CDF
:1028FB00E0FEA3E0FF7BF47AFE7D717C0412605B4B
:10290B00900C4E121BE3121AF322900C4CE0FEA318
:10291B00E0FFD3EF944AEE9406501D900C4CE0FE72
:10292B00A3E0FF7B7A7AFE7DC77C0512605B900C7F
:10293B004E121BE3121AF322900C4CE0FEA3E0FFA5
:10294B00D3EF941CEE9407501D900C4CE0FEA3E0CB
:10295B00FF7B527AFF7D337C0312605B900C4E122F
:10296B001BE3121AF322900C4CE0FEA3E0FFD3EF13
:10297B00941CEE9407501C900C4CE0FEA3E0FF7BE4
:10298B001F7AFF7D817C0312605B900C4E121BE360
:10299B00121AF322900962E0FFEF547FFF900E3181
:1029AB00EFF0900928E0FFEF30E103022C93900940
:1029BB0021E0FFEF20E40122900E31E0FF9009624D
:1029CB00E0FEEE547FFEEEC39F500E900962E0FFD7
:1029DB00EF547FFF900E31EFF090092CE0FEA3E057
:1029EB00FFEF4E6003022B49900E31E0FF7E00D3C8
:1029FB00EF9401EE648094805059900AA1E0FFEFB0
:102A0B0020E133900920E0FFEF30E32A900AA1E0A8
:102A1B00FFEF54FEFF900AA1EFF0900AA1E0FFEF49
:102A2B004402FF900AA1EFF0900925E0FFEF44016B
:102A3B00FF900925EFF0900D4EE4F07B017D017FB7
:102A4B00021248E0900D4EE4F07B007D007F0212F5
:102A5B0048E022900E31E0FF7E00D3EF9403EE644A
:102A6B008094804003022B1E900AA1E0FFEF20E030
:102A7B0050900920E0FFEF30E347900AA1E0FFEF11
:102A8B004401FF900AA1EFF0900AA1E0FFEF54FD83
:102A9B00FF900AA1EFF0900925E0FFEF4408FF90AB
:102AAB000925EFF0900D4EE4F07B017D017F0212C2
:102ABB0048E0900D4E7428F07B027D007F02124897
:102ACB00E0900AA1E0FFEF1313543FFEEF5403FF16
:102ADB00EE04FEEE543FFEEE25E025E0FEEE4FFF4A
:102AEB00900AA1EFF0900AA1E0FFEF1313543FFF00
:102AFB00EF543FFF7E00C3EF940AEE648094805046
:102B0B0003022C93900AA1E0FFEF5403FF900AA15C
:102B1B00EFF022900D4EE4F07B017D007F02124816
:102B2B00E0900D4EE4F07B017D017F011248E090B7
:102B3B000D4EE4F07B007D017F021248E022900EE7
:102B4B0031E0FF7E00D3EF9403EE6480948050510C
:102B5B00900D4EE4F07B007D007F011248E0900A5F
:102B6B00A1E0FFEF30E103022C93900920E0FFEF8F
:102B7B0020E303022C93900AA1E0FFEF54FEFF9099
:102B8B000AA1EFF0900AA1E0FFEF4402FF900AA127
:102B9B00EFF0900925E0FFEF4401FF900925EFF0DE
:102BAB0022900E31E0FF7E00D3EF940AEE64809406
:102BBB00804003022C69900AA1E0FFEF20E05090C7
:102BCB000920E0FFEF30E347900AA1E0FFEF44015B
:102BDB00FF900AA1EFF0900AA1E0FFEF54FDFF90E8
:102BEB000AA1EFF0900925E0FFEF4408FF900925BB
:102BFB00EFF0900D4EE4F07B017D017F011248E078
:102C0B00900D4E7428F07B027D007F011248E090FE
:102C1B000AA1E0FFEF1313543FFEEF5403FFEE0442
:102C2B00FEEE543FFEEE25E025E0FEEE4FFF900A50
:102C3B00A1EFF0900AA1E0FFEF1313543FFFEF5405
:102C4B003FFF7E00C3EF940AEE648094804039907E
:102C5B000AA1E0FFEF5403FF900AA1EFF022900DC1
:102C6B004EE4F07B017D017F021248E0900D4EE4B3
:102C7B00F07B017D007F011248E0900D4EE4F07B6C
:102C8B00007D017F011248E022900BB5121C0390CE
:102C9B000BBE121BE31216D0FF7E00EF64FF4E70CB
:102CAB00037F0122900BBE121BE31216D0FF7E088E
:102CBB00EF8EF0A4FFAEF0900BB5121BE3E92FF9EA
:102CCB00EA3EFA75820475830012185DFDACF0E4E0
:102CDB001215207BCD7ACC794C783E1212FCC004B5
:102CEB00C005C006C007900BB8121BE3121832FDCB
:102CFB00ACF0E4121520A804A905AA06AB07D0076F
:102D0B00D006D005D0041214A24003022E2A900B39
:102D1B00B5121BE3C003C002C001900BBE121BE334
:102D2B001216D0FF75F008EFA4F58285F083D00161
:102D3B00D002D003121B3590096BE0FEA3E0FFE439
:102D4B00FCFDC3121A8C7003022DF3900BB5121BF2
:102D5B00E3C003C002C001900BBE121BE31216D0DE
:102D6B00FF75F008EFA4F58285F083D001D002D077
:102D7B0003121AC390096BEEF0A3EFF0900BB51290
:102D8B001BE3C003C002C001900BBE121BE3121663
:102D9B00D0FF75F008EFA4F58285F083D001D00247
:102DAB00D003121AC3AD07AC067F10125F5C900BF9
:102DBB00B5121BE3C003C002C001900BBE121BE394
:102DCB001216D0FF75F008EFA4F58285F083D001C1
:102DDB00D002D003121AC390096DEEF0A3EFF07D71
:102DEB00017F0012696C802790096DE0FCA3E0FD68
:102DFB00E41215207B007A007900783F1212FC1246
:102E0B001559AD07AC06AC06AD077F021264BD9039
:102E1B000BB8121BE3E475F001121895022F5490B6
:102E2B000BBE121BE31216D0FF7E08EF8EF0A4FF31
:102E3B00AEF0900BB5121BE3E92FF9EA3EFA75825F
:102E4B000675830012185DFDACF0E41215207BCDE6
:102E5B007ACC794C783E1212FCC004C005C006C077
:102E6B0007900BBB121BE3121832FDACF0E41215EA
:102E7B0020A804A905AA06AB07D007D006D005D019
:102E8B00041214A250197D007C007F021264BD90C5
:102E9B000BBB121BE3E475F001121895022F549033
:102EAB000BBE121BE37401121716900BB8121BE327
:102EBB00E475F00012191A900BBB121BE3E475F0CA
:102ECB000012191A900BB5121BE3C003C002C0010C
:102EDB00900BBE121BE31216D0FF75F008EFA4F592
:102EEB008285F083D001D002D003121AC390096DF2
:102EFB00EEF0A3EFF0900BB5121BE3C003C002C0C2
:102F0B0001900BBE121BE31216D0FF75F008EFA455
:102F1B00F58285F083D001D002D003121AC37BFF58
:102F2B007AFF79FF7800C3121A8C701D900BBE12BA
:102F3B001BE374FF12176B90096BE4F0A3E4F07DB5
:102F4B00007F0012696C7F01227F002290092CE028
:102F5B00FEA3E0FFEF4E60030230037F007ED47DC3
:102F6B008F7C05900932121B29C3121A8C50031245
:102F7B005C2F7B607A0379007800900932121B0D6D
:102F8B001219AF900CD6121B9A7FE07EA57D017CA7
:102F9B0000900CD6121B29C3121A8C4003023085E9
:102FAB00900CD6121B29C374E09BFF74A59AFE7478
:102FBB000199FDE498FC900CD6121B9A900CD6123A
:102FCB001B0DE412151B7B007A00798778441214D1
:102FDB0005900CDA121B9A900CDA121B0D12155974
:102FEB00EF547FFF900962E0FEEE5480FEEE4FFF40
:102FFB00900962EFF00230857F007E9C7DDA7C01C8
:10300B0090092E121B29C3121A8C5003125C2F7BB2
:10301B00607A037900780090092E121B0D1219AFFC
:10302B00900CD6121B9A900CD6121B29C374A09B22
:10303B00FF748C9AFEE499FDE498FC900CD6121B5D
:10304B009A900CD6121B0DE412151B7B007A00799B
:10305B00B47843121405900CDA121B9A900CDA1206
:10306B001B0D121559EF547FFF900962E0FEEE54D1
:10307B0080FEEE4FFF900962EFF090092CE0FEA36B
:10308B00E0FFEF4E6003023148900924E0FFEF2090
:10309B00E6030231487F747EC27D037C0090093ABF
:1030AB00121B29C3121A8C5003125BA490093A12FB
:1030BB001B0DE412151B7B927A917933783D12121A
:1030CB00FC121559900CD6121B9A7F307E2A7D006C
:1030DB007C00900CD6121B29D3121A8C400A900C30
:1030EB00D6121BA600002A30900CD6121B29C374D3
:1030FB00309BFF742A9AFEE499FDE498FC900CD661
:10310B00121B9A900CD6121B0DE412151B7B007A26
:10311B000079D87842121405900CDA121B9A900C95
:10312B00DA121B0D121559EF547FFF900963E0FE65
:10313B00EE5480FEEE4FFF900963EFF02290092CC6
:10314B00E0FEA3E0FFEF64014E600302320C900936
:10315B0024E0FFEF20E60302320C7FC57E407D01A9
:10316B007C00900936121B29C3121A8C5003125B78
:10317B00A4900936121B0DE412151B7B927A9179E0
:10318B0033783D1212FC121559900CD6121B9A7FF4
:10319B00107E0E7D007C00900CD6121B29D3121AC8
:1031AB008C400A900CD6121BA600000E10900CD669
:1031BB00121B29C374109BFF740E9AFEE499FDE455
:1031CB0098FC900CD6121B9A900CD6121B0DE41285
:1031DB00151B7B007A0079107842121405900CDADB
:1031EB00121B9A900CDA121B0D121559EF547FFF1C
:1031FB00900963E0FEEE5480FEEE4FFF900963EF03
:10320B00F022900921E0FFEF30E00302342E900909
:10321B0028E0FFEF30E10302342E900921E0FFEFAD
:10322B0020E40122900922E0FFEF30E60302342E66
:10323B00900920E0FFEF30E41E900922E0FFEF2021
:10324B00E215900AA5E4F0900922E0FFEF4404FF99
:10325B00900922EFF0C2DB900AA5E0FFEF121D04EC
:10326B0032840032A90132E602335C03337B043330
:10327B00C60533F0060000342ED2C2900AA57401A5
:10328B00F0900923E0FFEF4480FF900923EFF090CB
:10329B000924E0FFEF4440FF900924EFF022900A4D
:1032AB00A6E475F001121806900AA6E0FEA3E0FF53
:1032BB00D3EF9409EE9400500302342E900AA6E447
:1032CB00F0A3E4F0D2C0900AA5E004F0900921E04D
:1032DB00FFEF4440FF900921EFF022900920E0FF1F
:1032EB00EF20E425900921E0FFEF20E0089009642E
:1032FB00E4F0A3E4F0900AA5E004F0900923E0FFCA
:10330B00EF547FFF900923EFF0900964E475F0010F
:10331B0012181CAFF0FEC374C09F745D9E40030275
:10332B00342E900921E0FFEF54BFFF900921EFF0FD
:10333B00900921E0FFEF4401FF900921EFF012709B
:10334B000E900D4E7428F07B027D007F031248E037
:10335B0022C2C2900AA6E4F0A3E4F0900AA5E0040E
:10336B00F0900922E0FFEF54FBFF900922EFF022CF
:10337B00900AA6E475F001121806900AA6E0FEA3C7
:10338B00E0FFD3EF9409EE9400500302342E900A21
:10339B00A6E4F0A3E4F0C2C0900924E0FFEF54BF11
:1033AB00FF900924EFF0900AA5E004F0900921E0CA
:1033BB00FFEF54BFFF900921EFF022900AA6E475AE
:1033CB00F001121806900AA6E0FEA3E0FFD3EF94DB
:1033DB0070EE9417404D900AA6E4F0A3E4F0900A27
:1033EB00A5E004F022900AA6E475F00112180690ED
:1033FB000AA6E0FEA3E0FFD3EF94B0EE94044014D2
:10340B00900AA6E4F0A3E4F0900AA5E004F0C2DB76
:10341B00C2C08004D2DBD2C0900920E0FFEF30E4C1
:10342B0002C2DB2290091DE0FF7E00C3EF940AEE7F
:10343B0064809480400302363A900A87E004F0904F
:10344B000A88E0FFEF121D0434630034DA013551B2
:10345B000235C5030000363A900A87E0FF7E00EF85
:10346B0064014E700412101622900A87E0FF7E0052
:10347B00EF64034E700B7D017F01125A8543AD4003
:10348B0022900A87E0FF7E00EF64054E701A126FE0
:10349B000F90091DE0FDED25E024C9F582E4340809
:1034AB00F583EEF0A3EFF022900A87E0FF7E00C3D6
:1034BB00EF940AEE64809480500302363A900A88A7
:1034CB00E004F0900A87E4F012101E12100622900E
:1034DB000A87E0FF7E00EF64014E70041210262273
:1034EB00900A87E0FF7E00EF64034E700B7D017F37
:1034FB0003125A8543AD4022900A87E0FF7E00EF0E
:10350B0064054E701A126F0F90091DE0FDED25E05A
:10351B0024F1F582E43408F583EEF0A3EFF022906A
:10352B000A87E0FF7E00C3EF940AEE64809480501C
:10353B000302363A900A88E004F0900A87E4F0120E
:10354B00102E12100E22900A87E0FF7E00EF64010E
:10355B004E700412103622900A87E0FF7E00EF6453
:10356B00034E700B7D017F06125A8543AD402290AE
:10357B000A87E0FF7E00EF64054E701A126F0F9002
:10358B00091DE0FDED25E024DDF582E43408F5832B
:10359B00EEF0A3EFF022900A87E0FF7E00C3EF94DA
:1035AB000AEE64809480500302363A900A88E00455
:1035BB00F0900A87E4F012103E22900A87E0FF7E1B
:1035CB0000EF64014E700412100622900A87E0FF90
:1035DB007E00EF64034E700B7D017F07125A85430B
:1035EB00AD4022900A87E0FF7E00EF64054E701A13
:1035FB00126F0F90091DE0FDED25E024B5F582E477
:10360B003408F583EEF0A3EFF022900A87E0FF7EFB
:10361B0000C3EF940AEE648094804013900A88E410
:10362B00F0900A87E4F012100E90091DE004F022CE
:10363B00900DEAEFF0900DEBEDF0900DECEBF090C0
:10364B000DEAE0FFEF121D0436690036B5013701B4
:10365B0002374D0337990437E5050000382E900DDE
:10366B00ECE0FFEF121D04367F0036960136AA02FE
:10367B000000382E900DEBE0FFEFF4FFEF529A9025
:10368B000DEBE0FFEFF4FFEF529B22900DEBE0FF11
:10369B00EFF4FFEF529A900DEBE0FFEF429B22907D
:1036AB000DEBE0FFEF429A222222900DECE0FFEFB0
:1036BB00121D0436CB0036E20136F6020000382E1E
:1036CB00900DEBE0FFEFF4FFEF5291900DEBE0FF6D
:1036DB00EFF4FFEF529222900DEBE0FFEFF4FFEFD0
:1036EB005291900DEBE0FFEF429222900DEBE0FF39
:1036FB00EF4291222222900DECE0FFEF121D0437D6
:10370B001700372E013742020000382E900DEBE0E8
:10371B00FFEFF4FFEF52A1900DEBE0FFEFF4FFEFA3
:10372B0052A222900DEBE0FFEFF4FFEF52A1900DB0
:10373B00EBE0FFEF42A222900DEBE0FFEF42A12264
:10374B002222900DECE0FFEF121D04376300377A55
:10375B0001378E020000382E900DEBE0FFEFF4FFE7
:10376B00EF52B1900DEBE0FFEFF4FFEF52B222906E
:10377B000DEBE0FFEFF4FFEF52B1900DEBE0FFEF3D
:10378B0042B222900DEBE0FFEF42B1222222900DCC
:10379B00ECE0FFEF121D0437AF0037C60137DA023A
:1037AB000000382E900DEBE0FFEFF4FFEF52C190CD
:1037BB000DEBE0FFEFF4FFEF52C222900DEBE0FFB9
:1037CB00EFF4FFEF52C1900DEBE0FFEF42C22290FE
:1037DB000DEBE0FFEF42C1222222900DECE0FFEF58
:1037EB00121D0437FB003812013826020000382E58
:1037FB00900DEBE0FFEFF4FFEF52D9900DEBE0FFF4
:10380B00EFF4FFEF52DA22900DEBE0FFEFF4FFEF56
:10381B0052D9900DEBE0FFEF42DA22900DEBE0FF77
:10382B00EF42D922900A9EE475F001121806900916
:10383B0028E0FFEF20E1030239DA900928E0FFEFDF
:10384B001313543FFFEF5401FF900928E0FEEEC322
:10385B0013FEEE5401FEEE6FFFEF6044900AA0E4FE
:10386B00F0900928E0FFEF5402FFEF25E0FF9009ED
:10387B0028E0FEEE54FBFEEE4FFF900928EFF09090
:10388B000923E4F0900925E0FFEF54EFFF900925A1
:10389B00EFF0900924E0FFEF54EFFF900924EFF0D5
:1038AB00900A9EE0FEA3E0FFEF30E0030239DA90CE
:1038BB000AA0E0FFEF121D0438E20038F9013910BD
:1038CB0002392703393E04395505398C06399307DC
:1038DB0039BE08000039DAD2C0900923E0FFEF446B
:1038EB0010FF900923EFF0900AA0E004F022D2C25F
:1038FB00900923E0FFEF4420FF900923EFF0900A9B
:10390B00A0E004F022D2C1900923E0FFEF4480FF36
:10391B00900923EFF0900AA0E004F022D2DB90098B
:10392B0023E0FFEF4440FF900923EFF0900AA0E063
:10393B0004F022D2C3900923E0FFEF4408FF900963
:10394B0023EFF0900AA0E004F022900924E0FFEFAF
:10395B004420FF900924EFF0900924E0FFEF44107E
:10396B00FF900924EFF090092374FFF0900925E0F4
:10397B00FFEF4410FF900925EFF0900AA0E004F050
:10398B0022900AA0E004F022900923E4F09009248D
:10399B00E0FFEF54DFFF900924EFF0900924E0FFE4
:1039AB00EF54EFFF900924EFF012700E900AA0E095
:1039BB0004F022900928E0FFEF4408FF900928EF5C
:1039CB00F0900928E0FFEF54FDFF900928EFF0225B
:1039DB00E0900A67FF75F002121BD7E0FCA3E0FD35
:1039EB00EF900A5175F002021BD7F582E4340AF509
:1039FB0083E4F0746B2FF582E4340AF583E4F090E2
:103A0B000A59EF75F002021BD7900BE6E075F00236
:103A1B00900A59121BD7E0FCA3E0C39FEE6480F819
:103A2B00EC648098229EFEC3900BE8E09FEE6480CE
:103A3B00F8900BE7E06480982274552FF582E434FC
:103A4B000AF58322900BE6E0FF75F002900A49021B
:103A5B001BD7F583E4F0FFFEFDFCAB25AA24A923BD
:103A6B00A822C3021A8C900BE7E0FD900A6775F051
:103A7B0002021BD7900BEAE0FFC3952A22F583E0E5
:103A8B0004F0744D2FF582E4340A22900BE6E02407
:103A9B0057F582E4340AF58322900BE6E0246BF5AC
:103AAB0082E4340AF58322900BE9E0C3940374801B
:103ABB009480227D0A1217B1AD037C0012179F90E0
:103ACB000BEFE0FD900A4922900BE6E0FF245DF539
:103ADB0082E4340A22E0FCA3E0FD75F002EF900AC9
:103AEB0067121BD7ECF0A3EDF022E5255529FFE576
:103AFB00245528FEE5235527FDE522552622900B5C
:103B0B00EAE004F0227E00900CB6E0FCA3E0FD128C
:103B1B00179F8EE78FE622E0FEA3E0C39DFFEE9C8E
:103B2B0022900A66E0FF3395E0FE22A4FFE0C39FDC
:103B3B00E5F06480F874809822900BE97401F02210
:103B4B00900BE6E0FF244DF582E4340A22900A66DE
:103B5B00E0FB3395E0FAFEEB22E0FF900BEBE0FE8F
:103B6B00EFC39E229FEE6480F8EA64809822900B4C
:103B7B00E5E0FF900CB4E022900AF7EEF0A3EFF033
:103B8B00900AF9ECF0A3EDF0900AFBEAF0A3EBF04E
:103B9B00900AFBE0FEA3E0FF900AF7E0FCA3E0FD38
:103BAB00D3ED9FEC9E5003023C69900AFBE0FEA311
:103BBB00E0FF900AF7E0FCA3E0FDC3ED9FFDEC9E58
:103BCB00FCE4121520900AFF121B9A900AFDE0FEEE
:103BDB00A3E0FF900AF9E0FCA3E0FDC3ED9FFDEC31
:103BEB009EFCE4121520C004C005C006C0077F0070
:103BFB007EF07D7F7C45900AFF121B291212FCD0B0
:103C0B0003D002D001D000121405900AFF121B9AA8
:103C1B00900AFDE0FCA3E0FDE41215207B007AF096
:103C2B00797F7845121405900B03121B9A900B03A6
:103C3B00121B0D900AFF121B291212FC900B031280
:103C4B001B9A900AFBE0FCA3E0FDE4121520900BFD
:103C5B0003121B29121207900B03121B9A22900AB4
:103C6B00F7E0FEA3E0FF900AFBE0FCA3E0FDC3ED51
:103C7B009FFDEC9EFCE4121520900AFF121B9A90FC
:103C8B000AF9E0FEA3E0FF900AFDE0FCA3E0FDC310
:103C9B00ED9FFDEC9EFCE4121520C004C005C00690
:103CAB00C0077F007EF07D7F7C45900AFF121B29A9
:103CBB001212FCD003D002D001D000121405900ACE
:103CCB00FF121B9A900AFDE0FCA3E0FDE412152005
:103CDB007B007AF0797F7845121405900B03121B49
:103CEB009A900B03121B0D900AFF121B291212FC48
:103CFB00900B03121B9A900AFBE0FCA3E0FDE4126D
:103D0B001520900B03121B29121207900B03121B89
:103D1B009A900B03121BA60000000022900920E0D2
:103D2B00FFEF30E714900920E0FFEF54FDFF9009FF
:103D3B0020EFF0900C60E4F022900C5FE0FF7E002F
:103D4B00C3EF94FFEE648094805006900C5FE00408
:103D5B00F0900920E0FFEF20E203023E0E900C6092
:103D6B00E0FF7E00D3EF9400EE648094805003025A
:103D7B003E09900C60E0FF7E00C3EF9414EE64806C
:103D8B009480507A900C5FE0FF7E00C3EF94C8EEF6
:103D9B00648094805050900928E0FFEF20E1479019
:103DAB000C61E004F0900925E0FFEF4404FF90095B
:103DBB0025EFF0900C61E0FF7E00D3EF9404EE64EE
:103DCB008094804021900928E0FFEF4402FF900986
:103DDB0028EFF0900C60E4F0900920E0FFEF54FE28
:103DEB00FF900920EFF0900C60E4F0900920E0FFC9
:103DFB00EF54FEFF900920EFF012108E8005900C0F
:103E0B0060E4F0900920E0FFEF30E016900920E02D
:103E1B00FFEF54FEFF900920EFF0900C60E004F0F0
:103E2B00801C900C60E0FF7E00D3EF94C8EE6480A2
:103E3B0094805079900920E0FFEF20E00122900C54
:103E4B0060E0FF7E00EF643C4E702B900925E0FF95
:103E5B00EF4402FF900925EFF0900920E0FFEF54AB
:103E6B00DFFF900920EFF0900920E0FFEF4440FFC7
:103E7B00900920EFF022900C60E0FF7E00EF64646D
:103E8B004E702A900925E0FFEF4410FF900925EFB3
:103E9B00F0900920E0FFEF4420FF900920EFF09015
:103EAB000920E0FFEF54BFFF900920EFF022440BF5
:103EBB008800000000410E29014404B0EDB88320B6
:103ECB00410021004100A7004100030048095900AF
:103EDB0000000000000000420A9E0000410AA00002
:103EEB00410AA100410AA800420AB10000420AA2FD
:103EFB000000410AA400410AA505420AA60000429F
:103F0B000AA9006E420AAB0032420AAD058C420A86
:103F1B00AF0460410A8700410A8800410A890050BA
:103F2B00097600000CE400C8037000FFFFFFFFFFE1
:103F3B00FFFF50098600000C4E00C8012C00FFFF4C
:103F4B00FFFFFFFFFF6020099600000D48026C0287
:103F5B006C00000D48026C026C00000D48026C02F4
:103F6B006C00FFFFFFFFFFFFFF5009B6000008FCCE
:103F7B0007D003E800FFFFFFFFFFFFFF5809C60054
:103F8B000006A400780064000008FC0078006400C0
:103F9B00FFFFFFFFFFFFFF42096B000042096D00AF
:103FAB0000410C6300410C6400410C5B00420C5C53
:103FBB000000410C5E00410C5F00410C6000410CA5
:103FCB006100410C6200580A18E100E20FE326E49D
:103FDB0037E502E600E7F9E8F9E9F9EA05EB01EC68
:103FEB0003580A30E100E20FE326E437E502E6006E
:103FFB00E7F9E8F9E9F9EA05EB01EC03410BF1000C
:10400B00410CBA00410A6D004109E800C10A440A9B
:10401B000DAA5555AA440A1400000000440A0900D1
:10402B0000000000900907E0FEA3E0FF7B017A0986
:10403B00790D122639900905E0FEA3E0FF7B017A8A
:10404B0009791112263990090BE0FEA3E0FF7B01E1
:10405B007A097915122639900909E0FEA3E0FF7B56
:10406B00017A097919122639900921E0FFEF4402F0
:10407B00FF900921EFF0900AA4E0FF7E00C3EF94BC
:10408B003CEE648094805078900921E0FFEF44046B
:10409B00FF900921EFF07F007E007DC87C429009E4
:1040AB0011121B291214A26002500C9009667402A3
:1040BB00F0A3741CF080497F007E007D967C4390BA
:1040CB000911121B291214A26002500C900966747C
:1040DB0001F0A374E0F080287F007E007DFA7C4322
:1040EB00900911121B291214A26002500B90096641
:1040FB00E4F0A374F0F08008900966E4F0A3E4F018
:10410B007F007E007D7A7C44900915121B291214C6
:10411B00A2600B4009900966E4F0A37401F0900AC9
:10412B00A4E0FF7E00C3EF943CEE648094805007C4
:10413B00900AA4E004F022900966E0FEA3E0FFD30E
:10414B00EF9400EE9400401F900966E0FEA3E0FFA1
:10415B00EF64FF7003EE64FF600D90096674FF75EA
:10416B00F0FF121806800CD2C390096674FFF0A3FF
:10417B0074FFF0900920E0FFEF20E402C2C322128B
:10418B00106612105E1262B17BFF7A68799FC003D2
:10419B00C002C0017B017A0079A8900D01121C03AB
:1041AB00D001D002D00312672C7F00126E7E124D0D
:1041BB0050125DCF12704512639143CF10900A637A
:1041CB00E0FFEF20E70302429D900A63E0FFEF540C
:1041DB007FFF900A63EFF01242DA900B88121B9A62
:1041EB007F007E007D007C00900B88121B29D31270
:1041FB001A8C500302428C7F027E407D007C009023
:10420B000B88121B29C3121A8C701E900920E0FF19
:10421B00EF4480FF900920EFF0900920E0FFEF546E
:10422B00FBFF900920EFF08066900B88121B0DEFBF
:10423B005402FFEE5400FEED5400FDEC5400FCEC78
:10424B004D4E4F601E900920E0FFEF4401FF900997
:10425B0020EFF0900920E0FFEF54FBFF900920EFD7
:10426B00F0802C900920E0FFEF4402FF900920EF33
:10427B00F0900920E0FFEF54FBFF900920EFF08056
:10428B000E900920E0FFEF4404FF900920EFF0129D
:10429B0010001259F2E5B720E510900B8CE0FF7E71
:1042AB0000EF645A4E60030241C5900B8CE0FFEFA8
:1042BB0054A5FF900B8CEFF07F0112442090092244
:1042CB00E0FFEF4402FF900922EFF00241C5227597
:1042DB001000751800751700751600751500121073
:1042EB006E500302440A126C408F148E138D128C85
:1042FB0011750F00E50FC3952A5051AF14AE13ADD6
:10430B0012AC117801121A9D8F148E138D128C1111
:10431B0030D7357F017E007D007C00AB0F744F2BB7
:10432B00F582E4340AF583E0F9A801121AB0E51816
:10433B004FFFE5174EFEE5164DFDE5154CFC8F18AE
:10434B008E178D168C150510050F80A8AF107E00EB
:10435B00C3EF9402EE64809480401ED208AF107EAF
:10436B0000C3EF9403EE64809480400512107680B6
:10437B000812703AEF6002C20820082C7F007E0002
:10438B007D007C00AB18AA17A916A815C3121A8CAE
:10439B00600C900A64E475F0011218068020900AF4
:1043AB0064E4F0A3E4F08016900A61E475F0011266
:1043BB001806751800751700751600751500127024
:1043CB0019900A64E0FCA3E0FDD3ED9FEC9E400B3B
:1043DB00121076900A64E4F0A3E4F0900A61E0FE18
:1043EB00A3E0FFD3EF942CEE9401402012107690B3
:1043FB000A6D7401F0900A61E4F0A3E4F0800D9073
:10440B007109E493FE740193FF124556AF18AE1772
:10441B00AD16AC1522900E33EFF0900E33E0FF7E0D
:10442B0000EF4E7074900961E0FFEF30E10302453D
:10443B0055900968121BE3900BA17414F07F007E5A
:10444B00001253F77E00EF4E60030245559009684A
:10445B00121BE3900BA17414F07F007E001253F734
:10446B007E00EF4E6003024555900968121BE390E6
:10447B000BA17414F07F007E001253F77E00EF4EF9
:10448B006003024555900968121BE3900BA174144D
:10449B00F07F007E001253F722900E33E0FF7E0078
:1044AB00EF64014E707E900961E0FFEF30E1030293
:1044BB004555900968121BE3758202758300E475FC
:1044CB00F0011218CD900968121BE3900BA1741424
:1044DB00F07F007E021253F77E00EF4E706C900956
:1044EB0068121BE3900BA17414F07F007E02125331
:1044FB00F77E00EF4E7053900968121BE3900BA1EF
:10450B007414F07F007E021253F77E00EF4E703A68
:10451B00900968121BE3900BA17414F07F007E02CC
:10452B001253F722900968121BE375820275830000
:10453B00E475F000121939900968121BE3900BA176
:10454B007414F07F007E021253F722900BE5EFF00C
:10455B00900CBA123AB5403EE4F0900A6DE0702B25
:10456B00900BE6F0900BE6E0C3952A501EE0FF128D
:10457B003A76E0FCA3E0FD75F002EF123A57ECF04F
:10458B00A3EDF0900BE6E004F080D9126B2AC20980
:10459B00E4900A6DF022900CB4E004F0123B79B574
:1045AB000708126FE5E4900CB5F0123B79D39F50DE
:1045BB0003024687E4900BE6F0900BE6E0C3952AE6
:1045CB00507A1239DB123B22AD07FC900A6DE0707A
:1045DB002E123B587802C333CE33CED8F9FFD3ED2E
:1045EB00123A264046E49BFFE49AFEEF7802C3336F
:1045FB00CE33CED8F9FFC3ED123A26502E803D12A2
:10460B003B587803C333CE33CED8F9FFD3ED123AF0
:10461B00264018E49BFFE49AFEEF7803C333CE33B6
:10462B00CED8F9FFC3ED123A264011900BE6E0FF0E
:10463B00125074900BE6E004F00245C4900BE6E0D8
:10464B00B52A06900CB5E004F0900BE5E0FD75F093
:10465B0008900CB4123B364023E4F0C208900CBA1D
:10466B00E004F0ED75F004900CB5123B36400DE410
:10467B00900CBAF0126E9D126B2AC20922900BA9F4
:10468B00121C03900BACE4F0A3E4F0900BAE74FFA0
:10469B00F0A374FFF0900BB0E4F0A3E4F0900BB236
:1046AB00E4F0A3E4F0900BB4E4F0900BB4E0FF7EE5
:1046BB0000C3EF940AEE6480948040030247559048
:1046CB000BA9121BE3900BB4E0FF75F002EFA4F5FE
:1046DB008285F08312185DFFAEF0900BB2EEF0A363
:1046EB00EFF0900BACE0FEA3E0FF900BB2E0FCA36D
:1046FB00E0FDD3ED9FEC9E4010900BB2E0FEA3E0EB
:10470B00FF900BACEEF0A3EFF0900BAEE0FEA3E04E
:10471B00FF900BB2E0FCA3E0FDC3ED9FEC9E5010AD
:10472B00900BB2E0FEA3E0FF900BAEEEF0A3EFF028
:10473B00900BB2E0FEA3E0FF900BB0EE8FF01218DF
:10474B0006900BB4E004F00246B5900BB0E0FEA36C
:10475B00E0FF900BAEE0FCA3E0FDC3EF9DFFEE9CF2
:10476B00FE900BB0EEF0A3EFF0900BB0E0FEA3E0E9
:10477B00FF900BACE0FCA3E0FDC3EF9DFFEE9CFEB6
:10478B00900BB0EEF0A3EFF0900BB0E0FEA3E0FFC8
:10479B00EF7803CEC313CE13D8F9FF900BB0EEF026
:1047AB00A3EFF0900BB0E0FEA3E0FF22900DA2EE82
:1047BB00F0A3EFF0900DA4EDF0900DA4E0FFEF123D
:1047CB001D0447D700484D01000048DF900DA2E0C3
:1047DB00FEA3E0FFEEFF7E00EF540FFF90095BEFAF
:1047EB00F090095BE0FFEF90712B93FF90095BEF6B
:1047FB00F0900DA2E0FEA3E0FFEEC4F854F0C86801
:10480B00FEEFC4540F48FFEF540FFF90095CEFF01D
:10481B0090095CE0FFEF90712B93FF90095CEFF038
:10482B00900DA2E0FEA3E0FFEF540FFF90095DEFA8
:10483B00F090095DE0FFEF90712B93FF90095DEF16
:10484B00F022900DA2E0FEA3E0FFD3EF94E7EE94ED
:10485B0003400A900DA27403F0A374E7F0900DA22D
:10486B00E0FEA3E0FF7C007D641217B190095BEFC3
:10487B00F090095BE0FFEF90712B93FF90095BEFDA
:10488B00F0900DA2E0FEA3E0FF7C007D0A1217B1B1
:10489B007C007D0A1217B1AF0590095CEFF090090F
:1048AB005CE0FFEF90712B93FF90095CEFF0900DA4
:1048BB00A2E0FEA3E0FF7C007D0A1217B1AF0590CA
:1048CB00095DEFF090095DE0FFEF90712B93FF9086
:1048DB00095DEFF022900D4BEFF0900D4CEDF09049
:1048EB000D4DEBF0900D86E0FF7E00EF64024E70F5
:1048FB0003024A02900D4BE0FFEF14FFEF5403FF4E
:10490B00900D83E0FEEE54FCFEEE4FFF900D83EF17
:10491B00F0900D4EE0FFEF543FFFEF25E025E0FF59
:10492B00900D83E0FEEE5403FEEE4FFF900D83EFF0
:10493B00F0900D4CE0FF900D85EFF0900D4DE0FFEA
:10494B00900D86EFF0900D85E0FF7E00EF64014E39
:10495B00703A900D83E0FFEF5403FFEF2404FFA8A0
:10496B00077401088002C333D8FCFF900D50EFF0A1
:10497B00900D83E0FFEF5403FFA80774010880023A
:10498B00C333D8FCFF900D4FEFF08038900D83E0D0
:10499B00FFEF5403FFA8077401088002C333D8FC50
:1049AB00FF900D50EFF0900D83E0FFEF5403FFEFFE
:1049BB002404FFA8077401088002C333D8FCFF90BE
:1049CB000D4FEFF0900D86E0FF7E00EF4E701390D1
:1049DB000923E0FF900D50E0FEEF4EFF900923EF0F
:1049EB00F022900923E0FF900D50E0FEEEF4FEEF75
:1049FB005EFF900923EFF022900E32E4F0900D86CB
:104A0B00E0FF7E00EF64024E6003024B01900D83CA
:104A1B00E0FFEF1313543FFFEF543FFF7E00D3EF44
:104A2B009400EE648094805003024AFC900D83E066
:104A3B00FFEF1313543FFEEF5403FFEE14FEEE543F
:104A4B003FFEEE25E025E0FEEE4FFF900D83EFF0ED
:104A5B00900D83E0FFEF1313543FFFEF543FFFEF35
:104A6B0075F00584AFF07E00EF4E6003024B0190B2
:104A7B000D85E0FF7E00EF64014E7020900D83E00A
:104A8B00FFEF5403FFEF2404FFA807740108800213
:104A9B00C333D8FCFF900E32EFF0801A900D83E0F9
:104AAB00FFEF5403FFA8077401088002C333D8FC3F
:104ABB00FF900E32EFF0900E32E0FF900923E0FEF4
:104ACB00EE5FFFEF6017900923E0FF900E32E0FEE0
:104ADB00EEF4FEEF5EFF900923EFF08019900923AF
:104AEB00E0FF900E32E0FEEF4EFF900923EFF080D7
:104AFB0005900D86E4F0900924E0FFEF30E504D239
:104B0B00928002C292900924E0FFEF30E403D2902E
:104B1B0022C29022900E34E4F0900928E0FFEF209F
:104B2B00E109900928E0FFEF30E363900BF1E0FF20
:104B3B0004F07E00D3EF94C8EE648094804005901F
:104B4B000BF1E4F0900BF1E0FF7E00C3EF9464EE09
:104B5B0064809480501C90090D121B0D1215591274
:104B6B006FA5900E34E0FFEF4440FF900E34EFF052
:104B7B008028900911121B0D121559126FA5900E5A
:104B8B0034E0FFEF54BFFF900E34EFF0800C900930
:104B9B000D121B0D121559126FA5900923E0FFEF93
:104BAB0030E514900E34E0FFEF54CFFFEF4410FFCD
:104BBB00900E34EFF0802B900923E0FFEF30E114DF
:104BCB00900E34E0FFEF54CFFFEF4420FF900E34F4
:104BDB00EFF0800E900E34E0FFEF54CFFF900E34C9
:104BEB00EFF0900923E0FFEF30E414900E34E0FF78
:104BFB00EF54FCFFEF4401FF900E34EFF0802B904D
:104C0B000923E0FFEF30E014900E34E0FFEF54FC8B
:104C1B00FFEF4402FF900E34EFF0800E900E34E065
:104C2B00FFEF54FCFF900E34EFF0900E34E0FF22B8
:104C3B00900920E0FFEF30E714900920E0FFEF54DC
:104C4B00FDFF900920EFF0900C5EE4F0229009201C
:104C5B00E0FFEF30E123900920E0FFEF54FDFF90E0
:104C6B000920EFF0900920E0FFEF54FEFF900920A0
:104C7B00EFF0900C5EE004F022900920E0FFEF20B3
:104C8B00E203024D4F900C5EE0FF7E00D3EF9400E9
:104C9B00EE648094805003024D4A900C5EE0FF7EE0
:104CAB0000C3EF940AEE648094804003024D4A9057
:104CBB000920E0FFEF30E521900920E0FFEF54DF02
:104CCB00FF900920EFF01261C9900921E0FFEF443A
:104CDB0020FF900921EFF08052900920E0FFEF3088
:104CEB00E64990092CE0FEA3E0FFEF4E7019900906
:104CFB002CE4F0A37401F0900D4EE4F07B007D01E9
:104D0B007F011248E0801690092CE4F0A3E4F090A8
:104D1B000D4EE4F07B007D017F021248E0900925E7
:104D2B00E0FFEF4402FF900925EFF0900C5EE4F0FA
:104D3B00900920E0FFEF54FDFF900920EFF0229047
:104D4B000C5EE4F022900968121BE3900BE07414E4
:104D5B00F0900BE17402F07F007E007D007C00126E
:104D6B00595A7E00EF4E701D900968121BE3900B91
:104D7B00E07414F0900BE17402F07F007E007D0074
:104D8B007C0012595A900968121BE37582027583D5
:104D9B000012185DFFAEF0C3EF94FFEE94FF5016B8
:104DAB00900961E0FFEF54FDFF900961EFF07F0088
:104DBB007E0012651E22900968121BE3900BE074B3
:104DCB0014F0900BE17402F07F007E027D007C00FA
:104DDB0012595A7E00EF4E701D900968121BE3901A
:104DEB000BE07414F0900BE17402F07F007E027DF7
:104DFB00007C0012595A900968121BE375820275E8
:104E0B00830012185DFFAEF0C3EF94FFEE94FF50DA
:104E1B0016900961E0FFEF4402FF900961EFF07F0C
:104E2B00007E0212651E22900961E0FFEF54FDFF28
:104E3B00900961EFF07F007E0212651E7E007F04F9
:104E4B007D00900968121BE3121D30900922E0FFD0
:104E5B00EF4440FF900922EFF022900C28121B9A8E
:104E6B00E598542FFF900C30E0FEEF4EFF900C3284
:104E7B00E0FEEF4EF598900C30E0FF7E00EF4E70A9
:104E8B00377F007E007D007C00900C2C121B29C309
:104E9B00121A8C70065398DF024F6C7F017E007DD7
:104EAB00007C00900C2C121B29C3121A8C6003027D
:104EBB004F6C439820024F6CE5C854CFFF900C31D8
:104ECB00E0FEEF4EF5C8900C31E0FF7E00EF4E7028
:104EDB0041900C2C121B29900C28121B0D1219AF90
:104EEB007B007A01790078001219AF8F8D900C2C12
:104EFB00121B29900C28121B0D1219AFEF54FFFF38
:104F0B00EE5400FEED5400FDEC5400FC8F8BC28E72
:104F1B00804F900C31E0FF7E00EF64304E70427595
:104F2B00CE02900C2C121B29900C28121B0D12195F
:104F3B00AF7B007A01790078001219AF8FCB900C00
:104F4B002C121B29900C28121B0D1219AFEF54FFBA
:104F5B00FFEE5400FEED5400FDEC5400FC8FCAD262
:104F6B00CAD2AC22C0E0C0F0C083C082C0D075D022
:104F7B0000C000C001C002C003C004C005C006C011
:104F8B00077F007E83126E3A126C9D90094DE4757B
:104F9B00F00112180690094FE004F0900950E0045C
:104FAB00F0900951E004F0900951E0FFEF75F00526
:104FBB0084AFF07E00EF4E7013900929E0FFEF44B1
:104FCB0010FF900929EFF0900951E4F0900950E09F
:104FDB00FFEF75F03284AFF07E00EF4E7013900947
:104FEB0029E0FFEF4404FF900929EFF0900950E40A
:104FFB00F090094DE0FEA3E0FF7C037DE81217B1B2
:10500B00ED4C7016900929E0FFEF4408FF90092939
:10501B00EFF090094DE4F0A3E4F090094FE0FFEFBF
:10502B0075F06484AFF07E00EF4E7013900929E0A9
:10503B00FFEF4401FF900929EFF090094FE4F012C4
:10504B00342F900929E0FFEF30E4031258C0D0074A
:10505B00D006D005D004D003D002D001D000D0D0E0
:10506B00D082D083D0F0D0E032900BE7EFF0F91282
:10507B0039DB123B22900BE8F0A3EFF0AF01126A81
:10508B002FAD07AC06900BE8E0FEA3E0FFD39DEC41
:10509B006480F8EE6480985014C3E49DFBE49CFAA2
:1050AB00C3EF9BEA6480F8EE648098500E900BE798
:1050BB00E0FF1239EC123AE0025158ECA2E713FE72
:1050CB00ED13FF900BE8E0FAA3E0FBD3123B6F501C
:1050DB0016ECA2E713FEED13FFC3E49FFFE49EFE65
:1050EB00C3EB123B6F5023123A71E0FAA3E0FBEAD9
:1050FB00C313FEEB13FFC3EB9FFBEA9EFAED1239D2
:10510B00ECE0C313FEA3E0138032123A71E0FAA372
:10511B00E0FBAE027803CEC313CE13D8F9FFC3EB7B
:10512B009FFBEA9EFA75F002ED900A51121BD7E035
:10513B00FEA3E07803CEC313CE13D8F92BFFEA3EC0
:10514B00FE900BE7E0123A76EEF0A3EFF0900BE750
:10515B001239DBECF0A3EDF022900DFFEFF0900E87
:10516B0000E4F053DCF843DC02E58E54C0FF7E0014
:10517B00EF64404E7045900DFFE0FF7E00EF6480C2
:10518B004E601D900DFFE0FF7E00EF64404E6010FF
:10519B00900DFFE0FF7E00EF64084E600302523C6F
:1051AB00900DFFE0FFEF55C5FFEF6008900E007408
:1051BB0001F0807D900E00E4F08076E58E54C0FF08
:1051CB007E00EF64804E7043900DFFE0FF7E00EF9A
:1051DB0064804E701B900DFFE0FFEF55C5FFEF6035
:1051EB0008900E007401F08048900E00E4F08041AE
:1051FB00900DFFE0FFEF55C4FFEF6008900E0074B9
:10520B0001F0802D900E00E4F08026E58E54C0FF57
:10521B007E00EF64C04E7019900DFFE0FFEF55C498
:10522B00FFEF6008900E007401F08005900E00E413
:10523B00F0900E00E0FF22900E36E599F0900BF205
:10524B00E0FF7E00EF4E7034900E36E0FF7E00EFF5
:10525B0064A54E701C900E36E0FF900BF4EFF090AF
:10526B000E36E0FF900BF3E02FF0900BF2E004F022
:10527B0022900BF2E4F0900BF3E4F022900BF2E0AF
:10528B00FF7E00EF64074E7062900BF3E0FF900E11
:10529B0036E0FEEE6F7049900BF6E0FF7E00D3EF29
:1052AB009400EE648094804010900921E0FFEF445D
:1052BB0080FF900921EFF0800E900921E0FFEF5461
:1052CB007FFF900921EFF0900928E0FFEF54FEFFDC
:1052DB00900928EFF0900BF2E4F0900BF3E4F0223E
:1052EB00900BF2E4F0900BF3E4F022900E36E0FF1B
:1052FB00900BF2E0FE74F42EF582E4340BF583EFA1
:10530B00F0900BF2E004F0900E36E0FF900BF3E020
:10531B002FF0227B027D047F0012363B7B027D1037
:10532B007F0012363B7B017D207F0012363B7B02D8
:10533B007D087F0512363B7B027D087F0412363BCE
:10534B007B027D047F0412363B7B027D027F0412BD
:10535B00363B7B027D017F0412363B7B027D807FD7
:10536B000312363B7B027D207F0312363B7B027D93
:10537B00107F0312363B7B027D087F0312363B7B8B
:10538B00027D047F0312363B7B027D027F031236C4
:10539B003B7B027D017F0112363B7B027D047F014B
:1053AB0012363B7B027D107F0112363B7B027D2048
:1053BB007F0212363B7B027D407F0212363B7B0223
:1053CB007D807F0212363B7B027D017F0012363BD4
:1053DB007B027D027F0012363B7B027D407F0112F8
:1053EB00363B7B027D407F0312363B22900B9CEEBB
:1053FB00F0A3EFF0900B9E121C03900B9E121BE37D
:10540B00900BA4121C03900B9CE0FEA3E0FF900BEF
:10541B00A7EEF0A3EFF0900BA2E4F0900BA1E0FF4E
:10542B00900BA2E0FEEEC39F507B900BA2E0FF7EA1
:10543B0000900BA7E0FCA3E0FDEF2DFFEE3CFE90F0
:10544B000BA4121BE3900BA2E0FD8D82758300125F
:10545B0016E9FD12645A900BA2E0FF7E00900BA799
:10546B00E0FCA3E0FDEF2DFFEE3CFEE4FCFD900C19
:10547B00FA7402F0126631900BA3EFF0900BA412AA
:10548B001BE3900BA2E0FF8F827583001216E9FFDE
:10549B00900BA3E0FEEE6F60037F0022900BA2E067
:1054AB0004F00254267F0122C2AF7B007D047F00F3
:1054BB0012363B7B007D107F0012363B7B007D0854
:1054CB007F0412363B7B007D047F0412363B7B004E
:1054DB007D027F0412363B7B007D807F0312363BBF
:1054EB007B007D207F0312363B7B007D107F0312F8
:1054FB00363B7B007D087F0312363B7B007D047FB0
:10550B000312363B7B007D027F0312363B7B007D13
:10551B00017F0112363B7B007D047F0112363B7B02
:10552B00007D107F0112363B7B007D207F021236FF
:10553B003B7B007D407F0212363B7B007D807F02F0
:10554B0012363B7B007D017F0012363B7B007D02D8
:10555B007F0012363B7F01124420D2AF22900E49BE
:10556B00EFF053DCF843DC02E58E54C0FF7E00EF16
:10557B0064404E7033900E49E0FF7E00EF64804E26
:10558B00601A900E49E0FF7E00EF64404E600D9074
:10559B000E49E0FF7E00EF64084E7073900E49E0F9
:1055AB00FFEFF4FFEF52C522E58E54C0FF7E00EFF4
:1055BB0064804E7025900E49E0FF7E00EF64804EB4
:1055CB00700C900E49E0FFEFF4FFEF52C522900EE6
:1055DB0049E0FFEFF4FFEF52C422E58E54C0FF7E8B
:1055EB0000EF64C04E7028900E49E0FF7E00EF6420
:1055FB00024E600D900E49E0FF7E00EF64014E708D
:10560B000EE5C454FCFF900E49E0FEEF4EF5C422AC
:10561B00900DF3EFF090091EE0FF7E00C3EF940FA7
:10562B00EE64809480400590091EE4F0900DF4E444
:10563B00F090091EE0FF900DF4E0FEEED39F506357
:10564B00900DF4E0FF743E2FF582E43409F583E00E
:10565B00FF900DF3E0FEEE6F7041900DF3E0FF7ED7
:10566B0000EF64154E6034900DF3E0FF7E00EF64A5
:10567B00164E6027900DF3E0FF7E00EF64174E602F
:10568B001A900DF3E0FF7E00EF64184E600D900D45
:10569B00F3E0FF7E00EF64144E7024900DF4E004F1
:1056AB00F0808E900DF3E0FF90091EE0FE743E2E0D
:1056BB00F582E43409F583EFF090091EE004F02243
:1056CB00900929E0FFEF30E614900929E0FFEF5431
:1056DB00BFFF900929EFF07F1912561B2290092961
:1056EB00E0FFEF30E414900929E0FFEF54EFFF9057
:1056FB000929EFF07F1412561B22900929E0FFEFC6
:10570B0030E114900929E0FFEF54FDFF900929EFD8
:10571B00F07F1512561B22900929E0FFEF30E2149F
:10572B00900929E0FFEF54FBFF900929EFF07F165A
:10573B0012561B22900929E0FFEF30E01490092943
:10574B00E0FFEF54FEFF900929EFF07F1712561B75
:10575B0022900929E0FFEF30E313900929E0FFEFD6
:10576B0054F7FF900929EFF07F1812561B22900D6A
:10577B00D8EFF0900DD9EDF0900DDAEBF0900DD84D
:10578B00E0FFEF121D0457A10057AF0257D103578B
:10579B00F7040000581C900DD9E0FF900DDAE0FDE6
:1057AB00126C1022900DD9E0FF7E00EF4E7004C2F8
:1057BB00AD8002D2AD900DDAE0FF7E00EF4E7003AC
:1057CB00C2BD22D2BD22900DD9E0FF7E00EF4E70FC
:1057DB000553A9BF800343A940900DDAE0FF7E007B
:1057EB00EF4E700453B9BF2243B94022900DD9E05C
:1057FB00FF7E00EF4E700553A97F800343A9809075
:10580B000DDAE0FF7E00EF4E700453B97F2243B9EF
:10581B008022900DC9EFF0900DCAEDF0900DC9E00C
:10582B00FFEF54F0FF7E00EF4E7042900DCAE0FF89
:10583B007E00EF64014E7019900DC9E0FFEF540F1D
:10584B00FFA8077401088002C333D8FCFFEF42D3D3
:10585B0022900DC9E0FFEF540FFFA80774010880D9
:10586B0002C333D8FCFFEFF4FFEF52D322900DC9E4
:10587B00E0FFEF54F0FFEFC4540FF5CE900DC9E0ED
:10588B00FFEF30E008900DCB7420F08006900DCB2D
:10589B007410F0900DCAE0FF7E00EF64014E7009AA
:1058AB00900DCBE0FFEF42C922900DCBE0FFEFF460
:1058BB00FFEF52C922900923E0FF7E00EF4E7005E7
:1058CB00C2B3C2B522127059900924E0FFEF30E346
:1058DB003F900924E0FFEF54F7FF900924EFF0D23B
:1058EB00B3C2B5900923E0FFEF30E402C2B79009D1
:1058FB0023E0FFEF30E502C2B4900923E0FFEF3065
:10590B00E602C2B2900923E0FFEF30E741C2B122B9
:10591B00900924E0FFEF4408FF900924EFF0C2B395
:10592B00D2B5900923E0FFEF30E002C2B790092314
:10593B00E0FFEF30E102C2B4900923E0FFEF30E269
:10594B0002C2B2900923E0FFEF30E302C2B1229012
:10595B000BD9121B9A900BDD121C03900BE4E5F490
:10596B00F0A2AFE433FF900BE3EFF0900BE3E0FF1B
:10597B007E00EF4E6002C2AF900BE1E0FF8FF49020
:10598B000BE2E4F0900BD9121B0D8F828E83E49304
:10599B00FF900BDD121BE3900BE2E0FE8E82758312
:1059AB0000EF12177D900BD9121B0D7B017A00793A
:1059BB00007800121966900BD9121B9A900BE0E03D
:1059CB00FF900BE2E004FEF0EEC39F40B7900BE4B8
:1059DB00E0FF8FF4900BE3E0FF7E00EF4E6002D20E
:1059EB00AF900BE2E0FF221256CB125E58EF121D66
:1059FB00045A13145A17165A2A175A37185A0F19CA
:105A0B0000005A841254B322121DE622124C3B1290
:105A1B003D2712109E1268E412632212320D2212DD
:105A2B00299F125B1512623E124A0322900AA9E0CB
:105A3B00FEA3E0FFC006C007900AADE0FCA3E0FDAB
:105A4B00900AABE0FAA3E0FB900AAFE0FEA3E0FF05
:105A5B00900AFDEEF0A3EFF0D007D006123B8312B5
:105A6B002F5712692912382F900921E0FFEF4410AC
:105A7B00FF900921EFF012402F22900D9BEFF09039
:105A8B000D9CEDF0900D9BE0FF7E00C3EF941FEE9D
:105A9B00648094805065900D9BE0FF7E007401A89C
:105AAB0007088005C333CE33CED8F9FF900D9DEE9A
:105ABB00F0A3EFF0900D9CE0FF7E00EF4E70229074
:105ACB000D9DE0FEA3E0FFEFF4FFEF52AB900D9DB9
:105ADB00E0FEA3E0FFEEFF7E00EFF4FFEF52AC80A1
:105AEB001A900D9DE0FEA3E0FFEF42AB900D9DE001
:105AFB00FEA3E0FFEEFF7E00EF42ACE5AD54E0FF0E
:105B0B00900D9BE0FEEF4EF5AD2290091DE0FF7E60
:105B1B0000C3EF940AEE64809480407C900A89E085
:105B2B00FF7E00C3EF9405EE64809480501B900AB7
:105B3B0089E004F0900A89E0FF7E00C3EE64809454
:105B4B0080505590091DE4F022900A89740FF09053
:105B5B00091DE4F07B017A0879B512468890090596
:105B6B00EEF0A3EFF07B017A0879C9124688900911
:105B7B0007EEF0A3EFF07B017A0879DD12468890EF
:105B8B000909EEF0A3EFF07B017A0879F112468850
:105B9B0090090BEEF0A3EFF022900928E0FFEF3015
:105BAB00E34690092CE0FEA3E0FFEF4E701D900939
:105BBB003A121B0DEF2458FFEE3402FEED3400FDBC
:105BCB00EC3400FC90093A121B9A22900936121BF6
:105BDB000DEF2458FFEE3402FEED3400FDEC3400E3
:105BEB00FC900936121B9A2290092CE0FEA3E0FFD1
:105BFB00EF4E701890093A121B0D7B017A00790059
:105C0B00780012196690093A121B9A2290093612E3
:105C1B001B0D7B017A00790078001219669009360A
:105C2B00121B9A22900928E0FFEF30E34690092CD3
:105C3B00E0FEA3E0FFEF4E701D900932121B0DEF3B
:105C4B0024A7FFEE3451FEED3401FDEC3400FC9043
:105C5B000932121B9A2290092E121B0DEF24A7FF5B
:105C6B00EE3451FEED3401FDEC3400FC90092E12A4
:105C7B001B9A2290092CE0FEA3E0FFEF4E701890C8
:105C8B000932121B0D7B017A00790078001219661C
:105C9B00900932121B9A2290092E121B0D7B017A4E
:105CAB00007900780012196690092E121B9A22C2F5
:105CBB00AF75FEC1AFFFD2AFEF5430FD7C00700467
:105CCB007920801CED64104C700479108012ED6407
:105CDB00204C700479088008ED64304C7002790414
:105CEB00E924F8601824F8602024F06028241C7044
:105CFB0030900BE77401F0A374F4F08026900BE75F
:105D0B007403F0A374E8F0801A900BE77407F0A308
:105D1B0074D0F0800E900BE7740FF0A374A0F0809A
:105D2B0002E4F9900BE7E07002A3E0600C900BE744
:105D3B0074FFF5F012180680EA22900D9FEFF09099
:105D4B000DA1E4F0900D9FE0FF7E00EF4E702490CC
:105D5B000968121BE3900BE07414F0900BE17402D2
:105D6B00F07F007E007D007C0012595A900DA0EF51
:105D7B00F0802F900D9FE0FF7E00EF64014E7022AC
:105D8B00900968121BE3900BE07414F0900BE17414
:105D9B0002F07F007E027D007C0012595A900DA00C
:105DAB00EFF0900DA0E0FF7E00EF64144E601490B6
:105DBB000DA1E0FF04F07E00D3EF9403EE6480941A
:105DCB008050812275FE8543FF2053DB7FD2AFC20B
:105DDB0009E4900CBBF0900A63F01265D8E4FF1253
:105DEB006810EF2401FDE433FC7E0F7FA01217B186
:105DFB00900CB6EEF0A3EFF0E4FF126EBC123B106A
:105E0B007F02126810EFC454F0FEC006E4FF126864
:105E1B0010D0E02FF5E17F03126810E5E254804FBC
:105E2B00F5E27F04126810EF6008E5E254804480CD
:105E3B00F5E27F011268108FE3126B2A43A91090D1
:105E4B000A4FE04480F5E8126153026E9D90091FE2
:105E5B00E0FF7E00C3EF940FEE64809480401D90B2
:105E6B00091FE4F090091FE0FF743E2FF582E43424
:105E7B0009F583E0FF900E30EFF0804F90091EE0A4
:105E8B00FF90091FE0FEEEC39F401290091FE4F044
:105E9B0090091EE4F0900E3074FFF0802E90091FD5
:105EAB00E0FF743E2FF582E43409F583E0FF900E9A
:105EBB0030EFF090091FE0FF743E2FF582E43409B8
:105ECB00F58374FFF090091FE004F0900E30E0FFB3
:105EDB0022900BEFEFF0126F77900BF0EFF0125F59
:105EEB0051900CB7E025E0FF900CB6E033FE7C0040
:105EFB00123ABE1239EFE0FAA3E0C39FEA9E5009B3
:105F0B00900BF0E0603F14802D125F51900CB6E0C7
:105F1B00FEA3E0FF7C007D0712179F123ABE123AD8
:105F2B000EE0FAA3E0D39FEA9E401A900BF0E0FF3D
:105F3B00647E6011EF04FF745F2DF582E4340AF583
:105F4B0083EFF0D20922900BEFE0FF126EBCEFFB58
:105F5B0022900DC6EFF0900DC7ECF0A3EDF0900D75
:105F6B00C6E0FFEF540FFF7E00EF4E7039900DC768
:105F7B0074FF75F0FF121806900DC6E0FFEF54F09A
:105F8B00FFE5D254CFFEEE4FF5D2900DC7E0FEA346
:105F9B00E0FFEEFF7E008FD5900DC7E0FEA3E0FF84
:105FAB00EF54FFF5D422900DC6E0FFEF540FF5CE62
:105FBB00900DC6E4F0900DC7E0FEA3E0FFEEFF7E70
:105FCB00008FCB900DC7E0FEA3E0FFEF54FFF5CAA7
:105FDB0022C0E0C0F0C083C082C0D075D000C0002A
:105FEB00C001C002C003C004C005C006C007309981
:105FFB00355398FD900E29E0FF7E00C3EF9407EE1A
:10600B0064809480501B900E29E004F0900E29E0E0
:10601B00FF74592FF582E43409F583E0FF8F9980E3
:10602B0005900E29E4F03098065398FE1252425315
:10603B0098FD5398FED007D006D005D004D003D0DE
:10604B0002D001D000D0D0D082D083D0F0D0E032BB
:10605B00900B8EEEF0A3EFF0900B90ECF0A3EDF025
:10606B00900B92EAF0A3EBF0900B8EE0FCA3E0FD1B
:10607B00E41215207B007AF0797F78451214059095
:10608B000B94121B9A900B90E0FCA3E0FDEC121505
:10609B0020900B94121B291212FCC004C005C006E1
:1060AB00C007900B92E0FCA3E0FDEC121520A804B6
:1060BB00A905AA06AB07D007D006D005D00412124B
:1060CB000B900B98121B9A900B98121B0D22900E93
:1060DB002BEFF0900E2BE0FF900019121BE39000BA
:1060EB0015E0FCA3E0FD8D828C83EF12177D9000F1
:1060FB0015E475F001121806900017E475F0011203
:10610B001806900019121BE31216D0FF7E00EF64E5
:10611B00184E6012900019121BE31216D0FF7E006E
:10612B00EF64044E7008900015E4F0A3E4F09000C7
:10613B0015E0FEA3E0FFC3EF9485EE9400400890BA
:10614B000015E4F0A3E4F022900BE57420F0126D3F
:10615B00F0E4900BE6F0900BE6E0FFC3952A50219C
:10616B00E0FE1239ECE0FCA3E0FD75F002EE123A12
:10617B0057ECF0A3EDF0125EDC900BE6E004F08040
:10618B00D5900BE5E0FF14F0EF70C3126FE51270C2
:10619B002F900BE5EFF0126DF0E4900BE6F0900B07
:1061AB00E6E0FFC3952A500B125074900BE6E00407
:1061BB00F080EB900BE5E0FF14F0EF70D9227F003D
:1061CB0012442090092CE0FEA3E0FFEF4E703290BA
:1061DB000932121BA60000000090093A121BA60000
:1061EB00000000900D4EE4F07B017D017F02124810
:1061FB00E0900D4E7428F07B027D017F021248E087
:10620B002290092E121BA600000000900936121BCB
:10621B00A600000000900D4EE4F07B017D017F0194
:10622B001248E0900D4E7428F07B027D017F011225
:10623B0048E02290095974A5F090095A7408F0129D
:10624B004B1F90095EEFF090095EE0FFEF5440FFAB
:10625B00EFC4135407FF90095FE0FEEE54FDFEEE12
:10626B004FFF90095FEFF0900960E4F0900E35E47A
:10627B00F0900E35E0FF7E00C3EF9407EE64809440
:10628B0080501F900E35E0FF74592FF582E43409CE
:10629B00F583E0FF900960E02FF0900E35E004F0FD
:1062AB0080CF7599A522D292D290D2B3D2B5C2B774
:1062BB00C2B4C2B2C2B17DD07C077F021264BD9062
:1062CB000929E0FFEF30E0F743CF10900AA8E00474
:1062DB00F0900929E0FFEF54FEFF900929EFF090B1
:1062EB000AA8E0FF7E00C3EF941EEE6480948050FA
:1062FB001D900AA8E0FF7E00C3EF9402EE64809429
:10630B008040BC7D007C007F021264BD80B1C2B3B3
:10631B00C2B5C292C29022208518900920E0FFEFEF
:10632B0020E30F900920E0FFEF4408FF900920EFD6
:10633B00F022208534900920E0FFEF30E32B0000A2
:10634B00000000000000000020850F900920E0FFF6
:10635B00EF4410FF900920EFF022900920E0FFEFAF
:10636B0054F7FF900920EFF022900920E0FFEF5443
:10637B00EFFF900920EFF0900920E0FFEF54F7FFBB
:10638B00900920EFF0227E007F0A7D007B017A09C5
:10639B007920121D307E007F147D007B017A0979F4
:1063AB002A121D307E007F0A7D007B017A097961FC
:1063BB00121D307E007F0C7D007B017A09794D1216
:1063CB001D307B017A09792A900968121C03900908
:1063DB0028E0FFEF54F7FF900928EFF0900920E039
:1063EB00FFEF547FFF900920EFF02275080075092D
:1063FB0000750D02750C40750B00750A00750800D1
:10640B00AF087E00C3EF941FEE64809480503CAFC6
:10641B000DAE0CAD0BAC0A7801121A9D8F0D8E0CC4
:10642B008D0B8C0A30D720AF09744F2FF582E434D3
:10643B000AF583E508F00509AF097E00C3EF940266
:10644B00EE648094805004050880B585092A22AB40
:10645B0007AA06900BE5E5F4F0A2AFE433A3F0AF87
:10646B00DFA3E4F0A3EFF0C2AF75F402AF058FF535
:10647B00EAF5F3AF038FF2AFF3EFFEADF27C00E47E
:10648B002DEC3EC39418501475F1F075F61043F6CD
:10649B00020000000080050000000000900BE5E00A
:1064AB00F5F4900BE7A3E0F5DF900BE6E024FF9209
:1064BB00AF22900DCFEFF0900DD0ECF0A3EDF0905C
:1064CB000DCFE0FFEF54F0FF7E00EF4E702253D262
:1064DB00FD900DD0E0FEA3E0FF900DCFE0FDED258C
:1064EB00E02440F582E43420F583EEF0A3EFF022B4
:1064FB00900DD0E0FEA3E0FF900DCFE0FDED540F2B
:10650B00FDED25E02434F582E43420F583EEF0A391
:10651B00EFF022AD07AC06900BE5E5F4F0A2AFE48B
:10652B0033A3F0AFDFA3E4F0A3EFF0C2AF75F40237
:10653B00ECF5F3AF058FF2AFF3EFFEADF27C00E4B9
:10654B002DEC3EC39418501475F1F075F62043F6FC
:10655B00020000000080050000000000900BE5E049
:10656B00F5F4900BE7A3E0F5DF900BE6E024FF9248
:10657B00AF22C20C900CBBE01239ECE5E5F0A3E5C1
:10658B00E4F0900CBBE004F0E0C3952A400BE4F080
:10659B00900A63E04480F08002D20C900CBBE0FFC9
:1065AB00126EBC123B10900CBBE0FF126F77E5E252
:1065BB0054804FF5E2900CBBE0244FF582E4340A93
:1065CB00F583E04480F5E8300C02D2EE229070FFA8
:1065DB00E493FE740193FF900A48EFF0907119E475
:1065EB0093FE740193FF900A66EFF01263F6750E3B
:1065FB0000E50EC3952A5025AF0EEF75F008A424C5
:10660B001FF582E43471F583E493FFAE0E745F2EB5
:10661B00F582E4340AF583EFF0050E80D4900A641A
:10662B00E4F0A3E4F022900CF6121B9A900CFDE51B
:10663B00F4F0A2AFE433FF900CFCEFF0900CFCE015
:10664B00FF7E00EF4E6002C2AF900CFAE0FF8FF4BA
:10665B00900CF6121B0D8F828E83E493FF900CFB34
:10666B00EFF0900CFDE0FF8FF4900CFCE0FF7E0050
:10667B00EF4E6002D2AF900CFBE0FF22900DDEEEEE
:10668B00F0A3EFF0900DE0EDF0900DE0E0FF7E0059
:10669B00EF4E7021900DDEE0FEA3E0FFEFF4FFEF75
:1066AB0052AB900DDEE0FEA3E0FFEEFF7E00EFF4B9
:1066BB00FFEF52AC22900DDEE0FEA3E0FFEF42AB0A
:1066CB00900DDEE0FEA3E0FFEEFF7E00EF42AC227A
:1066DB00900E2AEFF0900E2AE0FF9001ADE0FCA3A4
:1066EB00E0FD74AF2DF58274013CF583EFF0900162
:1066FB00ADE475F0011218069001ADE0FEA3E0FFCA
:10670B00D3EF9400EE940240089001ADE4F0A3E4C3
:10671B00F0900E2AE0FFEFB40D069001A87403F081
:10672B0022900CFE121C039085F0E493FF900D0455
:10673B00EFF0901200121B19900D04E02FF090094E
:10674B00E07401F09009E1E4F0A3E4F09009E3E4D4
:10675B00F0A3E4F0900D01121BE39009E5121C036A
:10676B00900CFE121BE3900A11121C0322900D8F4A
:10677B00EFF0900D90ECF0A3EDF0900D92EBF0900C
:10678B000D8FE0FF900D90E0FCA3E0FD1264BD9037
:10679B000D8FE0FF900D92E0FD12581D900D92E0D1
:1067AB00FF7E00EF64014E700F900D8FE0FFEFC482
:1067BB00540FFF7D0112696C22900E0FEFF0900EBB
:1067CB0010EDF0900E0FE0FF7E00EF4E7005538E34
:1067DB00FE8010900E0FE0FF7E00EF64014E700301
:1067EB00438E01900E10E0FF7E00EF64014E7004AB
:1067FB005389FB22900E10E0FF7E00EF64024E7077
:10680B000343890422900E3AEFF0900E3AE0FFEF2B
:10681B00121D04683100683801683F02684603683E
:10682B004C040000685790711BE493FF2290711C7D
:10683B00E493FF2290711DE493FF227F00126F7788
:10684B002290710DE493FE740193FF227F0022C00E
:10685B00E0C0F0C083C082C0D075D000C000C001C2
:10686B00C002C003C004C005C006C007126BD97FAD
:10687B00011255687F02125568D007D006D005D09B
:10688B0004D003D002D001D000D0D0D082D083D09E
:10689B00F0D0E032900E2CEFF0900004E0FFEF12FE
:1068AB001D0468C00068C00168C90268D20368C0D3
:1068BB0004000068DB900E2CE0FF1266DB22900ECA
:1068CB002CE0FF1260D922900E2CE0FF1266DB2227
:1068DB00900E2CE0FF1266DB22900920E0FFEF30D8
:1068EB00E208900C62E004F08005900C62E4F090FA
:1068FB000C62E0FF7E00D3EF94C8EE64809480407E
:10690B001C900920E0FFEF54BFFF900920EFF0909F
:10691B000920E0FFEF54DFFF900920EFF0229009F0
:10692B0022E0FFEF30E639900AA2E475F00112186D
:10693B0006D2C2D2C0D2C1D2C3900AA2E0FEA3E05B
:10694B00FFD3EF9484EE94034016C2C2C2C0C2C1FF
:10695B00C2C3900922E0FFEF4440FF900922EFF001
:10696B0022900E07EFF0900E08EDF0900E07E0FF6F
:10697B007E00EF4E7013900E08E0FF7E00EF4E602E
:10698B000443D2802253D27F22900E07E0FF8FCE9A
:10699B00900E08E0FF7E00EF4E600443C8042253C4
:1069AB00C8FB22900D7BEFF0900D7C121C03900D19
:1069BB007BE0FF90000DEFF09000117403F0A374D7
:1069CB00E8F0900D7C121BE3900019121C03900051
:1069DB0015E4F0A3E4F0900017E4F0A3E4F09000CA
:1069EB000FE4F0227B017D017F0212363B7B017DA0
:1069FB00027F0212363B900C2C121BA60000258046
:106A0B00900C307440F0900C31E4F0900C32741018
:106A1B00F07F007E487DE87C01124E657D007F0192
