:1000000002290030000302280321033000030228E4
:100010000B210B30000302281321133000030228A8
:100020001B211B3000030228232123300003022858
:100030002B212B3000030228332133300003022808
:100040003B213B30000302284321433000030228B8
:100050004B214B3000030228532153300003022868
:100060005B215B3000030228632163300003022818
:100070006B216B30000302287321733000030228C8
:100080007B217B3000030228832183300003022878
:100090008B218B3000030228932193300003022828
:1000A0009B219B3000030228A321A33000030228D8
:0300B000AB21ABD6
:102800000273990228167F06027186025704B29459
:10281000B2A52202281E5388FD32220228225388A4
:10282000F73232026C9D53ADDF323202282A752016
:10283000FF2232022826D2EE223232022832A209A8
:10284000223232022839D20922323202283A7F015A
:102850002232320228410200003232026EC98FB5A4
:012860002255
:062863000257FF8F9922CD
:06286B00022842AF992291
:03287300022849EF
:03287B0002284AE6
:03288300022851D7
:03288B00022852CE
:03289300022859BF
:10289B0002285AD292D290D2B3D2B5C2B7C2B4C226
:1028AB00B2C2B17DD07C078031900A61E030E0F993
:1028BB0043CF10900B67E004F0900A61E054FEF0F8
:1028CB00900B67E0C3941E748094805014E0C39403
:1028DB00027480948040D2E4FDFC7F02126D5F8015
:1028EB00C8C2B3C2B5C2B7C2B4C2B2C2B1C292C23D
:0228FB00902229
:1029000078FFE4F6D8FD9000007F007E01E4F0A39C
:10291000DFFCDEFA758121022955024F17E493A3EB
:10292000F8E493A34003F68001F208DFF48029E481
:1029300093A3F85407240CC8C333C4540F4420C8CD
:10294000834004F456800146F6DFE4800B01020464
:102950000810204080904673E47E019360BCA3FF82
:10296000543F30E509541FFEE493A360010ECF5499
:10297000C025E060A840B8E493A3FAE493A3F8E488
:1029800093A3C8C582C8CAC583CAF0A3C8C582C8F4
:10299000CAC583CADFE9DEE780BEAB07AA06900A94
:1029A00040E5F4F0A2AFE433A3F0AFDFA3E4F0A37B
:1029B000EFF0C2AF75F402AF058FF5EAF5F3AF03A0
:1029C0008FF2AFF3EFFEADF27C00E42DEC3EC3944A
:1029D00018501475F1F075F61043F602000000006F
:1029E00080050000000000900A40E0F5F4900A42E3
:0D29F000A3E0F5DF900A41E024FF92AF2242
:102A000020230414EC4D6011E8497017ED33EC33CA
:102A100004600DE4FCFFFEFD22E933E8330470F8A6
:102A2000022CCD122C9858046009E4CC2481500665
:102A3000285009022CD7284003022CD4C0E0EB4ACE
:102A40007044B98006D0E0FB022CC3EF4E701CBD71
:102A50008008EBFFEAFEE9FD80EBE98DF0A4FEE5DE
:102A6000F0022AEDE9CDF9EAFEEBFFEF89F0A4FCD4
:102A7000E5F0CE89F0A42EFFE435F0CD89F0A42D49
:102A8000FEE435F08067EF4E7005BD80D780C3EF60
:102A90008BF0A4ACF0EE8BF0A42CFCE435F0F8EF56
:102AA0008AF0A42CE5F038FCE433CB8DF0A42CFCA8
:102AB000E5F03BF8EE8AF0A42CFCE5F038F8E433BE
:102AC000CF89F0A42CFCE5F038CF3400CE89F0A4F7
:102AD0002FFFE5F03EFEE433C98DF0A42EFEE5F0B5
:102AE00039CD8AF0A42FFFE5F03EFEE43DFD33D062
:102AF000E0FB50070BBB000F022CD7EC2CFCEF3394
:102B0000FFEE33FEED33FD022CAF022CD7EC5D045B
:102B10006005E859047003022CCD122C985804600B
:102B2000F6EC4860F2EC7004FDFEFF22C860DB2486
:102B300081C85009C39860025006022CD49850CA2C
:102B4000F582E9294B4A7005AB82022CC375F0006F
:102B50007C1A7880C3EF9BEE9AED99400DC3EF9BF2
:102B6000FFEE9AFEED99FDE842F0DC23ACF0D0E0F8
:102B7000FFD0E0FED0E0FDAB8220E7101BEB60BA97
:102B8000EC2CFCEF33FFEE33FEED33FD022CAFE80F
:102B900003F830E705C0F075F000EF2FFFEE33FECD
:102BA000ED33FD40B830E7C280AA74F8CC6480CC25
:102BB000C86480C8F58204604FC3EB9FF5F0EA9EBD
:102BC00042F0E99D42F0E89C45F0603C501DE582F2
:102BD0005FFFE582D313CB5BCBF42B5582FB5028F0
:102BE0000ABA002409B9002008801DE5825BFBE5D4
:102BF00082D313CF5FCFF4C3132F5582FF50090E3A
:102C0000BE00050DBD00010CC3EB9FF5F0EA9E422E
:102C1000F0E99D42F0E89C45F06007CC4820E701D0
:102C2000B3EC2275F020800E75F010800575F00869
:102C30007D007E007F003392D530D503123170ECD9
:102C4000334010EF33FFEE33FEED33FDEC33FCD5B4
:102C5000F0ED22E5F0247EA2D513CC92E7CDCEFF95
:102C600022EDD2E7CD33EC3392D524814006E4FF48
:102C7000FEFDFC22FCE4CFCECDCC24E0501174FF4D
:102C800080EDC3CC13CCCD13CDCE13CECF13CF0458
:102C900070F030D5DE023170E9D2E7C933E833F89D
:102CA00092D5EDD2E7CD33EC33FC5002B2D522EC15
:102CB00030E7100FBF000C0EBE00080DBD00040B66
:102CC000EB6014A2D5EB13FCED92E7FD2274FFFC40
:102CD000FDFEFF22E480F8A2D574FF13FC7D80E4A2
:102CE00080EFE709F608DFFA8046E709F208DFFA25
:102CF000803E88828C83E709F0A3DFFA8032E30903
:102D0000F608DFFA8078E309F208DFFA807088823B
:102D10008C83E309F0A3DFFA806489828A83E0A3CD
:102D2000F608DFFA805889828A83E0A3F208DFFA86
:102D3000804C80D280FA80C680D4806980F2803353
:102D4000801080A680EA809A80A880DA80E280CA1B
:102D5000803389828A83ECFAE493A3C8C582C8CC05
:102D6000C583CCF0A3C8C582C8CCC583CCDFE9DE5F
:102D7000E7800D89828A83E493A3F608DFF9ECFAF1
:102D8000A9F0EDFB2289828A83ECFAE0A3C8C58210
:102D9000C8CCC583CCF0A3C8C582C8CCC583CCDF62
:102DA000EADEE880DB89828A83E493A3F208DFF914
:102DB00080CC88F0EF60010E4E60C388F0ED2402F5
:102DC000B4040050B9F582EB2402B4040050AF23E0
:102DD00023458223902D3273BB010689828A83E0CA
:102DE000225002E722BBFE02E32289828A83E49317
:102DF00022BB010CE58229F582E5833AF583E022C6
:102E00005006E92582F8E622BBFE06E92582F8E2B3
:102E100022E58229F582E5833AF583E49322BB011A
:102E20000989828A83F8E028F022500327F722BB21
:102E3000FE05F8E328F3228A838982F8E4932822A6
:102E4000BB010FF8E58229F582E5833AF583E02896
:102E5000F0225009C58229F8E58226F622BBFE0938
:102E6000C58229F8E22582F222F8EA2583F583E972
:102E7000932822BB010689828A83F0225002F7221E
:102E8000BBFE01F322F8BB010DE58229F582E58343
:102E90003AF583E8F0225006E92582C8F622BBFE07
:102EA00005E92582C8F222EF8DF0A4A8F0CF8CF0BE
:102EB000A428CE8DF0A42EFE22BC000BBE0029EF6C
:102EC0008DF084FFADF022E4CCF875F008EF2FFF11
:102ED000EE33FEEC33FCEE9DEC984005FCEE9DFEDF
:102EE0000FD5F0E9E4CEFD22EDF8F5F0EE8420D226
:102EF0001CFEADF075F008EF2FFFED33FD40079895
:102F00005006D5F0F222C398FD0FD5F0EA22C5F0A5
:102F1000F8A3E028F0C5F0F8E58215827002158369
:102F2000E038F022A3F8E0C5F025F0F0E582158244
:102F300070021583E0C838F0E822BB010A89828A52
:102F400083E0F5F0A3E022500687F009E71922BBE1
:102F5000FE07E3F5F009E3192289828A83E493F5F9
:102F6000F074019322BB0110E58229F582E5833AD2
:102F7000F583E0F5F0A3E0225009E92582F886F018
:102F800008E622BBFE0AE92582F8E2F5F008E22213
:102F9000E5832AF583E993F5F0A3E99322BB0107C2
:102FA00089828A83022F0E500B09C5F027F7C5F0DE
:102FB0001937F722BBFE0D09F8E325F0F3C5F01928
:102FC000E338F322F889828A8374019325F0C5F0EF
:102FD000F8E4933822BB010DC58229C582C5833A26
:102FE000C583022F0E5011C58229F808E5F026F698
:102FF00018F5F0E58236F622BBFE11C58229F808E5
:10300000E225F0F5F0F218E23582F222F8E58229A5
:10301000F582E5832AF58374019325F0F5F0E493B6
:103020003822BB010A89828A83F0E5F0A3F022509E
:1030300006F709A7F01922BBFE06F3E5F009F3191C
:1030400022F8BB0111E58229F582E5833AF583E890
:10305000F0E5F0A3F0225009E92582C8F608A6F0B1
:1030600022BBFE09E92582C8F2E5F008F222EF2B27
:10307000FFEE3AFEED39FDEC38FC2275F008758262
:1030800000EF2FFFEE33FECD33CDCC33CCC58233F2
:10309000C5829BED9AEC99E58298400CF582EE9BF7
:1030A000FEED9AFDEC99FC0FD5F0D6E4CEFBE4CD15
:1030B000FAE4CCF9A88222B800C1B90059BA002DAF
:1030C000EC8BF084CFCECDFCE5F0CBF97818EF2F68
:1030D000FFEE33FEED33FDEC33FCEB33FB10D70397
:1030E000994004EB99FB0FD8E5E4F9FA227818EF40
:1030F0002FFFEE33FEED33FDEC33FCC933C910D79F
:10310000059BE99A4007EC9BFCE99AF90FD8E0E4AB
:10311000C9FAE4CCFB2275F010EF2FFFEE33FEED81
:1031200033FDCC33CCC833C810D7079BEC9AE89951
:10313000400AED9BFDEC9AFCE899F80FD5F0DAE433
:10314000CDFBE4CCFAE4C8F922EF5BFFEE5AFEEDCA
:1031500059FDEC58FC22EF6BFFEE6AFEED69FDECC9
:1031600068FC22CFF4CFCEF4CECDF4CDCCF4CC227B
:10317000C3E49FFFE49EFEE49DFDE49CFC22EB9FE4
:10318000F5F0EA9E42F0E99D42F0EC6480C864806C
:103190009845F022EB9FF5F0EA9E42F0E99D42F05F
:1031A000E89C45F022E8600FECC313FCED13FDEE44
:1031B00013FEEF13FFD8F122E8600FEFC333FFEEE9
:1031C00033FEED33FDEC33FCD8F122BB010DE5827B
:1031D00029F582E5833AF5830231FB5007E9258220
:1031E000F802344ABBFE07E92582F8023456E5822C
:1031F00029F582E5833AF583023207E0FCA3E0FD7E
:10320000A3E0FEA3E0FF22E493FC740193FD7402AB
:1032100093FE740393FF22E0F8A3E0F9A3E0FAA37E
:10322000E0FB22BB010DE58229F582E5833AF583B7
:103230000232175007E92582F8023462BBFE07E923
:103240002582F802346FE58229F582E5833AF58319
:1032500002347C7401FF3395E0FEFDFCA3A3A3E0E0
:10326000CF2FF0E582158270021583E0CE3EF0E5A7
:1032700082158270021583E0CD3DF0E582158270E3
:10328000021583E0CC3CF022ECF0A3EDF0A3EEF0CD
:10329000A3EFF022A8828583F0D083D0821232ABD4
:1032A0001232AB1232AB1232ABE473E493A3C58398
:1032B000C5F0C583C8C582C8F0A3C583C5F0C58362
:1032C000C8C582C822A42582F582E5F03583F5833E
:1032D00022E0FBA3E0FAA3E0F922F8E0FBA3A3E0DD
:1032E000F925F0F0E582158270021583E0FA38F0D6
:1032F00022EBF0A3EAF0A3E9F022BB010789828A5E
:10330000830232D15005E9F802348CBBFE05E9F89E
:1033100002349E89828A830234B0BB011A89828A70
:1033200083D0F0D0E0F8D0E0F9D0E0FAD0E0FBE8CC
:10333000C0E0C0F00232F15016E9F8D083D082D05C
:10334000E0F9D0E0FAD0E0FBC082C083023495BB44
:10335000FE16E9F8D083D082D0E0F9D0E0FAD0E0D0
:10336000FBC082C0830234A722BB010DE58229F590
:1033700082E5833AF5830232D15007E92582F802CB
:10338000348CBBFE07E92582F802349EE58229F5DC
:1033900082E5833AF5830234B0BB0120E58229F54A
:1033A00082E5833AF583D0F0D0E0F8D0E0F9D0E0C0
:1033B000FAD0E0FBE8C0E0C0F00232F15018E92595
:1033C00082F8D083D082D0E0F9D0E0FAD0E0FBC020
:1033D00082C083023495BBFE18E92582F8D083D0E1
:1033E00082D0E0F9D0E0FAD0E0FBC082C0830234A2
:1033F000A722D083D082F8E4937012740193700DE9
:10340000A3A393F8740193F5828883E47374029301
:103410006860EFA3A3A380DF8A838982E473EF4E01
:103420006012EF60010EEDBB010B89828A83F0A36D
:10343000DFFCDEFA2289F05007F709DFFCA9F02251
:10344000BBFEFCF309DFFCA9F022E6FC08E6FD0860
:10345000E6FE08E6FF22E2FC08E2FD08E2FE08E2E2
:10346000FF22E6FB08E6F908E6FA08E6CBF822E2D6
:10347000FB08E2F908E2FA08E2CBF822E493F874D8
:103480000193F9740293FA740393FB22E6FB08E6B6
:10349000FA08E6F922EBF608EAF608E9F622E2FB7A
:1034A00008E2FA08E2F922EBF208EAF208E9F2226D
:1034B000E493FB740193FA740293F9229009ECEF00
:1034C000F0E49009F4F09009ECE0900B09124BEB5A
:1034D000124D2E9009EDF0A3EFF0E47F01FEFDFC0C
:1034E0009009ECE0F9F81231B88F198E188D178C0D
:1034F00016AF011270DC9009F2EEF0A3EFF0124C5F
:103500003E4005124D508005E49009EFF09009EF20
:10351000E06401600302366E9009ECE0FF241512AE
:103520004C53E0C394FA748094805006124C50E0DF
:1035300004F0124D01FCE4FBFAF9F8C31231946077
:103540000302365B900B08E09009F1F012284EEF71
:103550006030E49009EFF0A3F0124C8B5018124C3D
:1035600050E0C394017480948040069009EFE00419
:10357000F0124D1580E3124CBE40079009F1E02493
:103580000FF09009ECE02415124C53124D705003CB
:1035900002365BE49009EFF01275A0EF705E9009BF
:1035A000F0F0124C8B50229009ECE06F601612750F
:1035B0007B9009F0E02415124C53E0C39F400512A4
:1035C0004D508005124D1580D912284EEF3395E0ED
:1035D0004F70639009EFE0705DA3F0124C8B505672
:1035E0009009ECE06F601012757B9009F0124CA509
:1035F000E0C39F4002803C124D1580DF12284EEF41
:103600003395E04F70309009F1F09009F0F0124CD2
:103610008B5018124C50E0C3940274809480400682
:103620009009F1E004F0124D1580E39009F1124C7D
:10363000C14003124D509009EFE064017002D208BE
:10364000E5154519FFE5144518FEE5134517FDE599
:103650001245168F158E148D13F5129009ECE0FFAC
:10366000241D124C01E4F0A3124C980238819009F9
:10367000ECE0FF1274139009EDE0FCA3E0FDD3121F
:103680004C324008124CA2E004F0800B900B72E028
:1036900004F0124CA2E4F0124D38C3E49FFBE49E08
:1036A000FAC3ED9BEA124C344066D3124C3F506093
:1036B000124CDFF583E4124C98124C696003023718
:1036C000D59009EDE0FEA3E0FF9009ECE0900B1926
:1036D000124C85EE8FF0122F0E127546124C2040C0
:1036E00009124C5BE475F0018019127546C3E49F22
:1036F000FFE49EFE124C2040030237D5124C5B744F
:10370000FFF5F0122F0E124C16E4F0A3F00237D59D
:10371000124D38C3E49FFFE4124C3C5073124CDF4F
:10372000124C94F583E4F0741D2FF582E4340BF50C
:1037300083E0FF75F00A84E5F07044C3EF9464748D
:103740008094809009ECE04010124CE4F583E4F0A2
:10375000D209900B2D04F08026124C60C083C082E9
:10376000E0FEA3E0FF900B26E0A2E713FD3395E017
:10377000FCC3EF9DFFEE9CD082D083F0A3EFF090CE
:1037800009ECE0FF900B6BE06F704A74FFF080452E
:10379000124D38D3124C3F403C9009ECE0124CE4FF
:1037A000124C697030124D57124C94F583E064202E
:1037B0007023124D57F583E4F0900B26E0A2E71337
:1037C000A2E713FD3395E0FC75F002EF124C63ECB9
:1037D0008DF0122F0E124D014D4E4F700302388D99
:1037E0009009F2E0FCA3E0FDAE047802CEA2E7135C
:1037F000CE13D8F8FFC3ED9FFFEC124C3C40030200
:103800003886124CB0E004F01275A89009F1EFF080
:10381000E49009F0F0124C8B5018124C50E0C39415
:10382000017480948040069009EFE004F0124D1579
:1038300080E3124CBE4008900B08E09009F1F09034
:1038400009ECE0FB124CB4124D7050030238D774EF
:103850002B2B124CB6E4F0AF19AE18AD17AC161204
:103860003163E5155FFFE5145EFEE5135DFDE512CE
:103870005C8F158E148D13F51274152BF582E434BC
:103880000BF583E4F022124CB0E014F0229009EC26
:10389000E02415124C53124C6B70089009ECE0FFB9
:1038A000126505E51A14FF9009ECE06F7029900B82
:1038B00072E0C3951A4020E49009F0F0124C8B504E
:1038C0000E124C50E06003124D50124D1580ED90D9
:1038D00009EFE07002C208229009EF1232F1E49081
:1038E00009F2F0A3F090000FE0703B7F4312718665
:1038F00090000F7401F090000EF0E4900013F0A31C
:10390000F0900002F0900AC912329400000000907A
:103910000000E4F0A304F0E49000A7F090001D1272
:10392000329400000000900011E0FEA3E0FFD3906D
:103930000014E09F900013E09E4012900002E0040B
:10394000F07F15127186E4900013F0A3F090000F41
:10395000E064016003023C75C3900018E09401909C
:103960000017E094005003023C759000191232D108
:10397000122DD864046003023A769009F5F090099C
:10398000F5E0FF7E00C394FF74809480503BC374C5
:10399000FF9FFFE49EFE74B02FF58274033EF58313
:1039A000E0F4701D9009F5E0FFC374FF9FFFE494FD
:1039B00000FE74AF2FF58274033EF583E0641A6055
:1039C000089009F5E004F080B59009F5E02406F0D0
:1039D0007B017A0379B0E0FFC3E49FFF7401940098
:1039E000FEE4FCFD9009FE12328890001D1231FBAE
:1039F0001265FB90001D123288E49009F6F09009E0
:103A0000F6E0FFC3940474809480504D9009F5E073
:103A1000FDC3E49DFD74019400FC7E00ED2FFFEEDC
:103A20003CFE74B02FF58274033EF583E0FB9000FA
:103A30001D1231FBEF6B60089000A77401F0801934
:103A400090001D1231FB78081231A590001D123232
:103A5000889009F6E004F080A5E4900013F0A3F04C
:103A6000900017F0A3F090000E7402F0A3F07F0610
:103A70001271867F01229000191232D1122DD86462
:103A800018701E900013F0A3F0900017F0A3F090B0
:103A9000000E7405F0A37402F07F061271867F0396
:103AA00022D3900018E09485900017E0940040190C
:103AB000E4900013F0A3F0900002E004F0E4900022
:103AC00017F0A3F07F151271869000191232D112EF
:103AD0002DD864016003023C75900017E07004A3C8
:103AE000E064856003023C75900013F0A3F0900041
:103AF00017F0A3F0A31232D1900001122DF1FF9024
:103B00000000E0FCA3E0FD6F7001E46003023C698B
:103B1000A3F0C3ED9403EC9400401F7B017A03797A
:103B2000B09009FE1232940000008090001D123106
:103B3000FB1265FB90001D123288E49009F5F090AD
:103B400009F5E0FFC39480748094805042E0FE2425
:103B500030F582E43404F583E0FD74B02EF582E4A0
:103B60003403F583EDF0EF2403FDE433FC900019FA
:103B70001232D18D828C83122DF1FE74302FF5829A
:103B8000E43404F583EEF09009F5E004F080B090A1
:103B900000191232D1E92403F9E43AFA9009FC122F
:103BA0003294000000809009F2E0FEA3E0FF12636F
:103BB0007A9009F2EEF0FCA3EFF0FD9000191232BA
:103BC000D1900083122DF1FEC3ED9400FFEC9EFE18
:103BD000900084122DF1FDC3EF9DFFEE94004F6025
:103BE00003023C69900001E024FFFF900000E034F4
:103BF000FFFE9009EF1232D1900001EE8FF01230EB
:103C000041900003E475F080123041E49009F4F033
:103C10009009EF1232D1900003122F65FF9009F442
:103C2000E07C00C39FEC95F05033E0FF2403FDECF3
:103C300033FC9000191232D18D828C83122DF1FE4B
:103C40009009EF1232D19000051233698F8275838B
:103C500000EE122E859009F4E004F080B39000008D
:103C6000E475F001122F0E800C900002E02402F0A7
:103C70007F15127186900002E0C3941974809480BD
:103C800040237F181271867F181271867F18127177
:103C900086E4900017F0A3F090000E7405F0A37472
:103CA00002F07F03227F0022900A5AE020E1109068
:103CB0000A5DE0D39400748094805003023D6590C7
:103CC00008BAE04401F0900A5DE030E6089008BBD5
:103CD0007401F08076900A5DE030E7089008BB74CC
:103CE00002F08067900A5AE030E1089008BB740344
:103CF000F08058900A5DE030E0089008BB741FF037
:103D00008049900A5DE030E1089008BB7420F080A3
:103D10003A900A5DE030E2089008BB7421F0802BF5
:103D2000900A5DE030E3089008BB7422F0801C909C
:103D30000A5DE030E4089008BB7423F0800D900A1F
:103D40005DE030E5069008BB7424F0900A5AE05418
:103D5000FDF0E4900A5DF09008C0F09008BCF0A37C
:103D6000F0A3F0A3F09008BAE020E003023F70A3B4
:103D7000E0640170317B017A0879BC9009EE12325F
:103D8000F17A0879BE9009F11232F17A0879C0907F
:103D900009F41232F17A08091241D7EF6401600385
:103DA000023F76023F689008BBE0640270327B01FC
:103DB0007A0879BC9009EE1232F17A0879BE90093E
:103DC000F11232F17A0879C09009F41232F17A08CE
:103DD00079E91241D7EF64016003023F76023F6840
:103DE0009008BBE0640370327B017A0879BC9009CB
:103DF000EE1232F17A0879BE9009F11232F17A08A6
:103E000079C09009F41232F17A0979111241D7EF91
:103E100064016003023F76023F689008BBE0641FC4
:103E200070327B017A0879BC9009EE1232F17A087F
:103E300079BE9009F11232F17A0879C09009F41232
:103E400032F17A0979491241D7EF64016003023FE8
:103E500076023F689008BBE0642070327B017A08EC
:103E600079BC9009EE1232F17A0879BE9009F1120C
:103E700032F17A0879C09009F41232F17A09798125
:103E80001241D7EF64016003023F76023F68900859
:103E9000BBE0642170327B017A0879BC9009EE1294
:103EA00032F17A0879BE9009F11232F17A0879C0BC
:103EB0009009F41232F17A0979911241D7EF640135
:103EC0006003023F76023F689008BBE06422702ED8
:103ED0007B017A0879BC9009EE1232F17A0879BE3A
:103EE0009009F11232F17A0879C09009F41232F196
:103EF0007A0979A91241D7EF6401707A806A900833
:103F0000BBE06423702E7B017A0879BC9009EE1225
:103F100032F17A0879BE9009F11232F17A0879C04B
:103F20009009F41232F17A0979B91241D7EF64019C
:103F3000704480349008BBE06424703A7B017A08B6
:103F400079BC9009EE1232F17A0879BE9009F1122B
:103F500032F17A0879C09009F41232F17A0979D1F4
:103F60001241D7EF6401700E9008BAE054FEF022BF
:103F7000E4FDFF12724C22E49009EBF0900004E0A3
:103F8000C394057480948050030241D1E0640860BA
:103F900010900003E0D3942074809480500302407A
:103FA000A7E47F2C7E01FDFC900005123217C3129E
:103FB0003194401D900005123294000000007BFFF8
:103FC0007A7579CF12721E900003E004F0E0547FFE
:103FD000F09001A8E0640360030241D104F0E49092
:103FE00001ADF0A3F0900004E064086003024074A7
:103FF0007BFF7A7579D9900A021232F17B017A013E
:1040000079AF126D1FEF60097BFF7A7579E4127248
:104010001E7BFF7A7579EC900A021232F17B017AED
:104020000179AF126D1FEF60097BFF7A7579E41299
:10403000721E7BFF7A767902900A021232F17B01BE
:104040007A0179AF126D1FEF60097BFF7A76791DD7
:1040500012721E7BFF7A76792F900A021232F17B60
:10406000017A0179AF126D1FEF60097BFF7A7579D4
:10407000E412721E7BFF7A767943900A021232F1C3
:104080007B017A0179AF126D1FEF70030241D1906D
:1040900009F012329400000FA0E4FF127288900918
:1040A000EB7401F00241D1E47F2C7E01FDFC900015
:1040B00005123217C3123194401490000512329445
:1040C00000000000900003E004F0E0547FF0900056
:1040D00004E024FA6058147003024179240260035A
:1040E0000241CB7BFF7A76796D9009F21232F17A38
:1040F0007679709009F51232F19009F81232940035
:104100000000647A72791E9009FC1232F17A767995
:1041100053125F7F900021EFF0640260030241D1EF
:104120009009F012329400000FA07F0680467BFFBA
:104130007A76796D9009F21232F17A767970900977
:10414000F51232F19009F8123294000000647A728C
:10415000791E9009FC1232F17A767976125F7F909F
:104160000021EFF0640270699009F01232940000AF
:104170000FA07F0712728880587BFF7A76796D9046
:1041800009F21232F17A7679709009F51232F190D3
:1041900009F8123294000000647A72791E9009FCCA
:1041A0001232F17A76791D125F7F900021EFF06470
:1041B00002701E9009F012329400000FA07F0812C6
:1041C0007288E49001A9F0A3F080069000047405C1
:1041D000F09009EBE0FF229009EB1232F19009F424
:1041E0001232D1122DD8FEF470037F0122EE75F049
:1041F00008A4FF9009EB1232D1E92FF9EA35F0FA61
:10420000900004122F65FDACF0E4122C287BCD7ACF
:10421000CC794C783E122A04C004C005C006C00701
:104220009009EE1232D1122F3AFDACF0E4122C2894
:10423000A804A905AA06AB07D007D006D005D0046C
:10424000122BAA40030243169009EB1232D1C0038D
:10425000C002C0019009F41232D1122DD875F008B5
:10426000A4F58285F083D001D002D00312322390CE
:1042700008B4E0FEA3E0FFE4FCFDC31231946070DB
:104280009009EB1232D1C003C002C0019009F412B0
:1042900032D1122DD875F008A4F58285F083D001B3
:1042A000D002D0031231CBAD07AC069008B4ECF0CD
:1042B000A3EDF07F101271329009EB1232D1C003DE
:1042C000C002C0019009F41232D1122DD875F00845
:1042D000A4F58285F083D001D002D0031231CB90B7
:1042E00008B8EEF0A3EFF07D01E4FF12724C8021DC
:1042F0009008B8E0FCA3E0FDE4122C28E4FBFAF9F6
:10430000783F122A04122C61AD07AC067F02126DB1
:104310005F9009EE806B9009F41232D1122DD8759E
:10432000F008A4FF9009EB1232D1E92FF9EA35F039
:10433000FA900006122F65FDACF0E4122C287BCD1C
:104340007ACC794C783E122A04C004C005C006C05D
:10435000079009F11232D1122F3AFDACF0E4122C81
:1043600028A804A905AA06AB07D007D006D005D017
:1043700004122BAA5018E4FDFC7F02126D5F900915
:10438000F11232D1E475F001122F9D02442E9009F2
:10439000F41232D17401122E1E9009EE1232D1E4C1
:1043A000F5F01230229009F11232D1E4F5F012301A
:1043B000229009EB1232D1C003C002C0019009F46F
:1043C0001232D1122DD875F008A4F58285F083D071
:1043D00001D002D0031231CB9008B8EEF0A3EFF079
:1043E0009009EB1232D1C003C002C0019009F4124F
:1043F00032D1122DD875F008A4F58285F083D00152
:10440000D002D0031231CB74FFFBFAF97800C3124B
:104410003194701A9009F41232D174FF122E73E4A1
:104420009008B4F0A3F0FDFF12724C7F01227F00D0
:1044300022900A64E07002A3E07071FF7ED47D8F49
:104440007C05900A6A123217C31231945019900AEF
:104450006A1231FBEF2401FFE43EFEE43DFDE43C43
:10446000FC900A6A123288E47B607A03F9F8900AB9
:104470006A1231FB1230B79009EB1232889009EBC7
:10448000123217C374E09BFF74A59AFE740199FD64
:10449000E498FC9009EB1232889009EB1231FBE4AE
:1044A000122C23E4FBFA79877844806F7F007E9C8E
:1044B0007DDA7C01900A66123217C31231945019CA
:1044C000900A661231FBEF2401FFE43EFEE43DFD5D
:1044D000E43CFC900A66123288E47B607A03F9F8C7
:1044E000900A6A1231FB1230B79009EB12328890B1
:1044F00009EB123217C374A09BFF748C9AFEE499E7
:10450000FDE498FC9009EB1232889009EB1231FB24
:10451000E4122C23E4FBFA79B47843122B0D122C0D
:1045200061EF547FFF900A99E054804FF0900A6445
:10453000E07002A3E060030245C7900A5CE020E659
:10454000030245C77F747EC27D037C00900A72120D
:104550003217C31231945019900A721231FBEF24B2
:1045600001FFE43EFEE43DFDE43CFC900A721232A1
:1045700088900A721231FBE4122C237B927A917993
:1045800033783D122A04122C619009EB123288E430
:104590007F307E2AFDFC9009EB123217D312319442
:1045A000400A9009EB12329400002A309009EB1275
:1045B0003217C374309BFF742A9AFEE499FDE49885
:1045C000FCE47B6C024660900A64E07004A3E06443
:1045D000016003024672900A5CE020E60302467224
:1045E0007FC57E407D017C00900A6E123217C31297
:1045F00031945019900A6E1231FBEF2401FFE43E12
:10460000FEE43DFDE43CFC900A6E123288E47F102B
:104610007E0EFDFC9009EB123217D3123194400A42
:104620009009EB12329400000E10900A6E1231FBCA
:10463000E4122C237B927A917933783D122A04126A
:104640002C619009EB1232889009EB123217C37477
:10465000109BFF740E9AFEE499FDE498FCE47B2421
:10466000FAF9F81230B7EF547FFF900A99E05480BE
:104670004FF0224404B0EDB88320410021004100F6
:10468000A70041000300410B6100410B6700420B92
:10469000680000420B620000410B6405420B65009C
:1046A00000602808C10000076C00C80078000009FD
:1046B0006000C8007800000B5400C8007800000DAE
:1046C0004800C804B000FFFFFFFFFFFFFF6028089D
:1046D000E900000D4800C8007800000B5400C80035
:1046E000780000096000C800780000076C00C8046A
:1046F000B000FFFFFFFFFFFFFF6038091100000F50
:104700009F017C026C00000F9F017C026C00000F77
:104710009F017C026C00000F9F017C026C00000F67
:104720009F017C026C00000F9F017C026C00FFFF68
:10473000FFFFFFFFFF6038094900000D48017C02C0
:104740006C00000D48017C026C00000D48017C02E9
:104750006C00000D48017C026C00000D48017C02D9
:104760006C00000D48017C026C00FFFFFFFFFFFFA3
:10477000FF50098100000CE400C8026C00FFFFFF3D
:10478000FFFFFFFF58099100000C1C05DC00000032
:10479000000C4E01F4000000FFFFFFFFFFFFFF5081
:1047A00009A900000CE4017C026C00FFFFFFFFFF81
:1047B000FFFF5809B9000008FC017C026C000006EC
:1047C000A4017C026C00FFFFFFFFFFFFFF5809D12F
:1047D000000006A4017C0064000008FC017C006469
:1047E00000FFFFFFFFFFFFFF4208B400004208B6D2
:1047F00000004208B80000410B2E00410B7400413C
:104800000B7500410B7600410B7300480B4B603376
:1048100099909090D5FA580AD8E100E20FE326E487
:1048200037E502E600E7F9E8F9E9F9EA05EB01EC1A
:1048300003580AF0E100E20FE326E437E502E60060
:10484000E7F9E8F9E9F9EA05EB01EC03410B70003F
:10485000410B2D00410AA800C10A440ACDAA5555B2
:10486000AA440AD400000000440AC9000000000065
:104870009009EB1232F1900004E0146060147003B0
:1048800002492924FE70030249E224046003024A1B
:104890002F7BFF7A76798F9009F21232F17A76794E
:1048A0009E9009F51232F19009F81232940000003E
:1048B000647A72791E9009FC1232F17A7579CF12FE
:1048C0005F7F900021EFF064026003024A2F90099D
:1048D000F0123294000013887F010249DF7BFF7AD7
:1048E00076796D9009F21232F17A7679709009F545
:1048F0001232F19009F8123294000000647A727951
:104900001E9009FC1232F17A7679A8125F7F90002E
:1049100021EFF064026003024A2F9009F0123294F2
:10492000000013887F020249DF90000512329400D4
:104930000000009009EB1232D1122DD864037018D8
:10494000900003122F6545F0700E1228069009EBB7
:104950001232D17401122E739009EB1232D1122D42
:10496000D8640F700A04122E7390001C7403F09028
:1049700009EB1232D11238D890001CEFF0640170AC
:10498000389000A7E07010124A309009EB1232D133
:104990007404122E73801F9009EB1232D1740F121F
:1049A0002E73E49003AFF09009F012329400002EC1
:1049B000E07F0412728802280690001CE0640370F5
:1049C000129003AFF09009F012329400002EE07FB5
:1049D00004800C9009F0123294000013887F0202C8
:1049E0007288E49009EEF09009EEE0C3940A7480B6
:1049F000948050327BFF7A7679B812721E9000054F
:104A000012329400000000E47FC8FEFDFC90000517
:104A1000123217C3123194500543CF1080E9900928
:104A2000EEE004F080C1E4900004F0FF1272A822CE
:104A30009009EF7403F0E4FF126D9F9009F01232B9
:104A4000889009F01231FBE4FFFEFDEC54F0FCE429
:104A5000FBFAF97890C31231945003024B08900985
:104A6000F01231FBE4FFFEFDEC540FFCE47809C3C7
:104A70001231945003024B089009F01231FBE4FF0D
:104A8000FEED54F0FDE4FC7990F8C31231944078C7
:104A90009009F01231FBE4FFFEED540FFDE4FC79C8
:104AA00009F8C312319440609009F01231FBE4FF21
:104AB000EE54F0FEE4FDFC7A90F9F8C31231944014
:104AC000479009F01231FBE4FFEE540FFEE4FDFCC9
:104AD0007A09F8C3123194402F9009F01231FBEF9C
:104AE00054F0FFE4FEFDFC7B90FAF8C312319440D1
:104AF000179009F01231FBEF540FFFE4FEFDFC7B31
:104B000009F8C3123194500A9009F012329400004F
:104B100000007F01126D9F9009F4123288127342D7
:104B2000127324900ACDE0FF900AB9E06F702C90C8
:104B30000ACEE0FF900ABAE0B50720900ACFE0FF66
:104B4000900ABBE0B50714900AD0E0FF900ABCE0E1
:104B5000B507089009EF7401F080069009EF74031F
:104B6000F09009EFE064017015A31231FB9009F495
:104B7000123217D312319440059009EF803F900A0A
:104B8000CDE0FF900AA9E06F702B900ACEE0FF9075
:104B90000AAAE0B5071F900ACFE0FF900AABE0B584
:104BA0000713900AD0E0FF900AACE0B50707E49045
:104BB00009EFF0800B9009EFE0640170037402F0DC
:104BC0009009EFE0FD7C0070037F0122ED64024C50
:104BD0007012125EDAEF60037F0122125EDAEF607C
:104BE000037F01227F0022E0900B27FF75F0021265
:104BF00032C5E0FCA3E0FDEF900B1175F00202322C
:104C0000C5F582E4340BF583E4F0742B2FF582E4D0
:104C1000340BF583E4F0900B19EF75F0020232C506
:104C20009009ECE075F002900B191232C5E0FCA37C
:104C3000E0C39FEE6480F8EC648098229EFEC390EF
:104C400009EEE09FEE6480F89009EDE06480982220
:104C500074152FF582E4340BF583229009ECE0FF04
:104C600075F002900B090232C5F583E4F0FFFEFDFA
:104C7000FCAB15AA14A913A812C30231949009ED34
:104C8000E0FD900B2775F0020232C59009F0E0FFBD
:104C9000C3951A22F583E004F0740D2FF582E434F5
:104CA0000B229009ECE02417F582E4340BF5832203
:104CB0009009ECE0242BF582E4340BF58322900973
:104CC000EFE0C3940374809480227D0A122EB9AD64
:104CD000037C00122EA79009F5E0FD900B092290AD
:104CE00009ECE0FF241DF582E4340B22E0FCA3E094
:104CF000FD75F002EF900B271232C5ECF0A3EDF03A
:104D000022E5155519FFE5145518FEE5135517FD55
:104D1000E5125516229009F0E004F0227E00900B77
:104D20006CE0FCA3E0FD122EA78EE78FE622E0FEEA
:104D3000A3E0C39DFFEE9C22900B26E0FF3395E09D
:104D4000FE22A4FFE0C39FE5F06480F874809822FF
:104D50009009EF7401F0229009ECE0FF240DF58238
:104D6000E4340B22900B26E0FB3395E0FAFEEB22B5
:104D7000E0FF9009F1E0FEEFC39E229FEE6480F811
:104D8000EA648098229009EBE0FF900B6AE02290A1
:104D900009EB1232F1E49009EEF0A3F09009EB1266
:104DA00032D1900001122F6545F070239009FF1257
:104DB00032940000FC007E92126C5B900AC91232A1
:104DC0009400000000900AD4123294000000009079
:104DD00009EB1232D1900003122F65FF9009EEE526
:104DE000F0F0A3EFF0900003122F65FDACF09000FF
:104DF00001122F65FFAEF0122EA7C3EE94285003C8
:104E0000024F0E9009EB1232D1900003122F65FD74
:104E1000ACF0900001122F65FFAEF0122EA7E4FC5B
:104E2000FDFB7A92F9F8D312317E5003024F0E90B7
:104E300009EB1232D1900003122F65FDACF0900007
:104E400001122F65FFAEF0122EA7E4FCFDC006C0D4
:104E5000079009EB1232D1900003122F65AEF0FBE0
:104E6000E4C39BFB74929EFAE49400F9E49400F886
:104E7000D007D006C312317E700B9009EE74FF7517
:104E8000F0F0122F0E9009EB1232D1900003122F86
:104E900065FDACF0900001122F65FFAEF0122EA759
:104EA000E42FFFEE34D8FE9000051233699009EE2E
:104EB000E0FDA3E09009F5CDF0A3EDF0126755EF0A
:104EC00060459009EB1232D19000051233699009C8
:104ED000EEE0FEA3E0FFE4FCFD900A0B12328890A6
:104EE0000AD4126482900AD4123288900AC912320B
:104EF000179009EEE0FEA3E0FFE4FCFD12306E9097
:104F00000AC91232888007E49009EEF0A3F09009F4
:104F1000EEE0FEA3E0FF2212282E12280012289EA7
:104F20007B017A0079A89009EE1232F17BFF7A7347
:104F3000797D126C19E4FF1274F3127108125C7A15
:104F40001262F112757143CF10123F777B017A0A1A
:104F500079A0124870900AA3E07002A3E0602C12BE
:104F600073CE7B017A0A79A0124D8F9009E9EEF099
:104F7000A3EFF04E900AA060057403F08003740F55
:104F8000F0E4900AA3F0A3F012743C900AA0E0644D
:104F900004701A1273CE1259E0EF700B12743C9029
:104FA0000AA0740FF0800612743C122856900AA0D2
:104FB000E0640F701A7B017A0079A89009EE123232
:104FC000F17BFF7A73797D126C19E4FF1274F39010
:104FD0000B23E030E771547FF01252D1900B5B123B
:104FE0003288E4FFFEFDFC900B5B123217D31231C6
:104FF00094404A900A58E054FBF0900B5B1231FB4E
:10500000EF5402FFE4FEFDFCEF6007900A58E04415
:1050100001F0900B5B1231FB78081231A5900B5B0D
:10502000123288900B5B1231FBEF5440FFE4FEFD1F
:10503000FCEF6010900A58E04402F08007900A5894
:10504000E04404F0122836126FAEE5B720E50B906D
:105050000B5FE0645A6003024F46900B5FE054A57B
:10506000F0126AEE900A5AE04402F0024F469009AC
:10507000EBEFF0900B70124CC1403EE4F0900B2D22
:10508000E0702B9009ECF09009ECE0C3951A501EEB
:10509000E0FF124C82E0FCA3E0FD75F002EF124C41
:1050A00063ECF0A3EDF09009ECE004F080D9126E0F
:1050B0008EC209E4900B2DF022900B6AE004F012EE
:1050C0004D85B50708127475E4900B6BF0124D8591
:1050D000D39F500302519FE49009ECF09009ECE05B
:1050E000C3951A507A124BE7124D2EAD07FC900B68
:1050F0002DE0702E124D647802C333CE33CED8F932
:10510000FFD3ED124C324046E49BFFE49AFEEF7869
:1051100002C333CE33CED8F9FFC3ED124C32502E3A
:10512000803D124D647803C333CE33CED8F9FFD31C
:10513000ED124C324018E49BFFE49AFEEF7803C373
:1051400033CE33CED8F9FFC3ED124C324011900963
:10515000ECE0FF1258F09009ECE004F00250DC9013
:1051600009ECE0B51A06900B6BE004F09009EBE057
:10517000FD75F008900B6A124D424023E4F0C2081E
:10518000900B70E004F0ED75F004900B6B124D4243
:10519000400DE4900B70F01272C8126E8EC209229C
:1051A000900A5AE030E6030252D0900A58E030E408
:1051B00015900A5AE020E20EE4900B64F0900A5A2F
:1051C000E04404F0C2DB900B64E01233F251E600DD
:1051D00051FB01521F02523703524E0452760552C0
:1051E0009A06000052D0D2C2900B647401F0900A6B
:1051F0005BE04480F0A3E04440F022900B65E4754E
:10520000F001122F0ED3900B66E09409900B65E02D
:10521000940050030252D0E4F0A3F0D2C080749006
:105220000A58E030E4030252D0900B64E004F0909E
:105230000A5BE0547FF022C2C2E4900B65F0A3F059
:10524000900B64E004F0900A5AE054FBF022900BBB
:1052500065E475F001122F0ED3900B66E09409906F
:105260000B65E094004069E4F0A3F0C2C0900A5CD2
:10527000E054BFF0801D900B65E475F001122F0E15
:10528000D3900B66E09470900B65E094174041E476
:10529000F0A3F0900B64E004F022900B65E475F04D
:1052A00001122F0ED3900B66E094B0900B65E09442
:1052B000044010E4F0A3F0900B64E004F0C2DBC201
:1052C000C08004D2DBD2C0900A58E030E402C2DBD6
:1052D00022E4F509F511F510F50FF50E12283E50F0
:1052E000030253E41270808F0D8E0C8D0B8C0AE438
:1052F000F508E508C3951A504CAF0DAE0CAD0BACDC
:105300000A78011231A58F0D8E0C8D0B8C0A30D7C7
:1053100030E47F01FEFDFC740F2508F582E4340BB8
:10532000F583E0F9F81231B8E5114FFFE5104EFEB4
:10533000E50F4DFDE50E4C8F118E108D0FF50E050E
:1053400009050880ADAF097E00C3EF940274809414
:10535000804018D208EF940374809480400512288E
:105360004680081275A0EF6002C208200828E4FFFA
:10537000FEFDFCAB11AA10A90FA80EC31231946058
:105380000C900B24E475F001122F0E801CE4900B9E
:1053900024F0A3F08013900B21E475F001122F0E7E
:1053A000E4F511F510F50FF50E12753BD3900B25B2
:1053B000E09F900B24E09E400A122846E4900B24C4
:1053C000F0A3F0D3900B22E0942C900B21E09401F9
:1053D000401D122846900B2D7401F0E4900B21F033
:1053E000A3F0800B9076D7E4740193FF12506EAF58
:1053F00011AE10AD0FAC0E22900A2D123288900A19
:1054000032E5F4F0A2AFE433A3F0AFDFA3E4F0A3FE
:10541000EFF0C2AFE4FFFE7D01FC900A2DE0F8A39F
:10542000E0F9A3E0FAA3E0FBC312319440787F00D7
:105430007E807D017C00900A2DE0F8A3A3A3E012FA
:105440003194501DE5DF54CF4420F5DF900A2DE064
:10545000FCA3E0FDA3E0FEA3E02400FFEE34808087
:1054600034E4FFFE7D02FC900A2DE0F8A3E0F9A3EE
:10547000E0FAA3E0FBC31231945033E5DF54CF448C
:1054800030F5DF900A2DE0FCA3E0FDA3E0FEA3E0F1
:105490002400FFE43EFEED34FFFDEC34FFFC900AF7
:1054A0002D1232888008E5DF54CF4410F5DFE4F593
:1054B000F4900A31E0F5F5900A2DE0FCA3E0FDA39D
:1054C000E0FEA3E0FF78081231A58FF3900A2DA328
:1054D000A3A3E0F5F275F1F075F61043F6020000B3
:1054E000000080050000000000900A32E0F5F49012
:1054F0000A34A3E0F5DF900A33E024FF92AF229054
:105500000A0712329400000000900A0C1232940034
:10551000000000E4FF7E01FDFC900A0C123217C36C
:105520001231944003025602900A0712329400008E
:105530000000900A0B7401F0900A0BE07003025512
:10554000C4900A071231FBEF5401FFE4FEFDFCFB9F
:10555000FAF9F8C3123194900A07601F1231FB78F0
:10556000011231A5900A07123288900A071231FB06
:105570009004B012321712315680081231FB7801B4
:105580001231A5900A07123288900A0BE0FFE4FC62
:10559000FDFEA3123217123149E4FBFAF9F8C312E7
:1055A00031946015900A071231FB9004B012321743
:1055B000123156900A07123288900A0BE0FF25E05C
:1055C000F0025538900A071231FB900A0C1232177C
:1055D0009004B475F004EB1232C5EA25E025E0250D
:1055E00083F583123288900A0C1231FBEF2401FFFD
:1055F000E43EFEE43DFDE43CFC900A0C12328802DD
:10560000551322900A0D123288900A11E5F4F0A287
:10561000AFE433A3F0AFDFA3E4F0A3EFF0C2AFE455
:10562000FFFE7D01FC900A0DE0F8A3E0F9A3E0FA8B
:10563000A3E0FBC312319440787F007E807D017C23
:1056400000900A0DE0F8A3A3A3E0123194501DE5E9
:10565000DF54CF4420F5DF900A0DE0FCA3E0FDA36A
:10566000E0FEA3E02400FFEE34808034E4FFFE7D02
:1056700002FC900A0DE0F8A3E0F9A3E0FAA3E0FB36
:10568000C31231945033E5DF54CF4430F5DF900A34
:105690000DE0FCA3E0FDA3E0FEA3E02400FFE43E58
:1056A000FEED34FFFDEC34FFFC900A0D12328880D1
:1056B00008E5DF54CF4410F5DFE4F5F4900A0DE07F
:1056C000FCA3E0FDA3E0FEA3E0FF78081231A58F64
:1056D000F3900A0DA3A3A3E0F5F275F1F075F6209F
:1056E00043F6020000000080050000000000900A60
:1056F00011E0F5F4900A13A3E0F5DF900A12E0241C
:10570000FF92AF22C0E0C0F0C083C082C0D075D08D
:1057100000C000C001C002C003C004C005C006C074
:10572000077F007E831275C01270AF900A8AE475FD
:10573000F001122F0E900A8CE004F0A3E004F0A315
:10574000E004F0A3E004F0A3E004F0E075F00384CB
:10575000E5F0700C900A61E04420F0900A90E4F0CB
:10576000900A8FE075F00584E5F0700C900A61E016
:105770004410F0900A8FE4F0900A8EE075F01484E3
:10578000E5F0700C900A61E04402F0900A8EE4F0BB
:10579000900A8DE075F03284E5F0700C900A61E0BB
:1057A0004404F0900A8DE4F0900A8AE0FEA3E0FF42
:1057B0007C037DE8122EB9ED4C700E900A61E04436
:1057C00008F0900A8AE4F0A3F0900A8CE075F06487
:1057D00084E5F0700C900A61E04401F0900A8CE4DA
:1057E000F0126BD2D007D006D005D004D003D0027F
:1057F000D001D000D0D0D082D083D0F0D0E032C061
:10580000E0C0F0C083C082C0D075D000C000C0012D
:10581000C002C003C004C005C006C00753B7BFE53F
:10582000B720E5030258D5C2AFE4FB7D04FF125B4D
:10583000A3E4FB7D10FF125BA3E4FB7D087F041251
:105840005BA3E4FB7D047F04125BA3E4FB7D027F8A
:1058500004125BA3E4FB7D807F03125BA3E4FB7D6A
:10586000207F03125BA3E4FB7D107F03125BA3E4A4
:10587000FB7D087F03125BA3E4FB7D047F03125BC7
:10588000A3E4FB7D027F03125BA3E4FB7D017F01A8
:10589000125BA3E4FB7D047F01125BA3E4FB7D109C
:1058A0007F01125BA3E4FB7D207F02125BA3E4FB7C
:1058B0007D407F02125BA3E4FB7D807F02125BA32D
:1058C000E4FB7D01FF125BA3E4FB7D02FF125BA3FF
:1058D000126AEED2AFD007D006D005D004D003D0E4
:1058E00002D001D000D0D0D082D083D0F0D0E0322E
:1058F0009009EDEFF0F9124BE7124D2E9009EEF002
:10590000A3EFF0AF011270DCAD07AC069009EEE03A
:10591000FEA3E0FFD39DEC6480F8EE648098501401
:10592000C3E49DFBE49CFAC3EF9BEA6480F8EE6459
:105930008098500E9009EDE0FF124BF8124CEC02EB
:1059400059D4ECA2E713FEED13FF9009EEE0FAA3A1
:10595000E0FBD3124D7B5016ECA2E713FEED13FFD4
:10596000C3E49FFFE49EFEC3EB124D7B5023124C19
:105970007DE0FAA3E0FBEAC313FEEB13FFC3EB9F4A
:10598000FBEA9EFAED124BF8E0C313FEA3E013808E
:1059900032124C7DE0FAA3E0FBAE027803CEC313D3
:1059A000CE13D8F9FFC3EB9FFBEA9EFA75F002ED28
:1059B000900B111232C5E0FEA3E07803CEC313CEE4
:1059C00013D8F92BFFEA3EFE9009EDE0124C82EE6F
:1059D000F0A3EFF09009ED124BE7ECF0A3EDF0220D
:1059E0009009FB123294000000009009FF123294DB
:1059F00000000000900AC91231FB9009FF12321713
:105A0000C3123194505543CF109009FF1231FBE47B
:105A10002FFFEE3492FEE43DFDE43CFC1275B090A5
:105A20000A03EFF07B017A0A7903900A0B12329491
:105A3000000000019009FB1264829009FB12328879
:105A40009009FF1231FBEF2401FFE43EFEE43DFD2F
:105A5000E43CFC9009FF1232888099900AD41231FC
:105A6000FB9009FB123217C3123194705B900AC984
:105A70001231FB9009EF123288900AD41231FB9058
:105A800009F3123288900ACDE09009EBF0900ACE2B
:105A9000E09009ECF0900ACFE09009EDF0900AD088
:105AA000E09009EEF09009F7123294A55A0FF078C1
:105AB000047C0A7D017B017A0979EB7E007F10125C
:105AC0002DB21272677F01227F0022900A99E0FFB7
:105AD000547FFDC39D5004EF547FFD900A64E07035
:105AE00002A3E0705FEDFB7A00C3940174809480A0
:105AF000500C900A5BE04402F0E054DFF022C3EB6C
:105B00009403EA64809480502F900B61E0C3940565
:105B100074809480900A5BE050044402800254FD3B
:105B2000F0E054DFF0900B61E004F0E0C3940A74FD
:105B3000809480406DE4F022900A5BE054FDF0E038
:105B40004420F022EDFB7A00C394037480948050CB
:105B50000C900A5BE04401F0E054EFF022C3EB94B8
:105B60000AEA64809480502F900B61E0C39405741E
:105B7000809480900A5BE050044401800254FEF05F
:105B8000E054EFF0900B61E004F0E0C3940A7480FD
:105B90009480400EE4F022900A5BE054FEF0E04472
:105BA00010F022EF14603A146058146073147003FC
:105BB000025C3E147003025C5C24056003025C79A5
:105BC000EB14601114601624026003025C79EDF49A
:105BD000529A529B22EDF4529AED429B22ED429A48
:105BE00022EB14601114601624026003025C79ED4C
:105BF000F45291529222EDF45291ED429222ED42F2
:105C00009122EB14600E1460132402706CEDF452B8
:105C1000A152A222EDF452A1ED42A222ED42A12214
:105C2000EB14600E1460132402704EEDF452B15266
:105C3000B222EDF452B1ED42B222ED42B122EB14A8
:105C4000600E14601324027030EDF452C152C2226F
:105C5000EDF452C1ED42C222ED42C122EB14600EBE
:105C600014601324027012EDF452D952DA22EDF4CA
:105C700052D9ED42DA22ED42D922900A9B1232D15A
:105C80009009F37414F0A37402F07F007E007D008D
:105C90007C001263FEEF701B900A9B1232D19009B8
:105CA000F37414F0A37402F07F007E007D007C008A
:105CB0001263FE900A9B1232D1900002122F65C32C
:105CC00094FFE5F094FF500C900A98E054FDF0E446
:105CD000FFFE8057900A9B1232D19009F37414F0A2
:105CE000A37402F07F00FE7D007C001263FEEF7063
:105CF0001A900A9B1232D19009F37414F0A3740223
:105D0000F07F00FE7D007C001263FE900A9B123241
:105D1000D1900002122F65C394FFE5F094FF900A22
:105D200098E0500A4402F07F007E0202682854FD89
:105D3000F07F007E021268287E007F147D00900AAA
:105D40009B1232D112341E900A5AE04440F0227B5A
:105D5000027D04E4FF125BA37B027D10E4FF125B73
:105D6000A37B017D20E4FF125BA37B027D087F05FE
:105D7000125BA37B027D087F04125BA37B027D0480
:105D80007F04125BA37B027D027F04125BA37B0274
:105D90007D807F03125BA37B027D207F03125BA3C8
:105DA0007B027D107F03125BA37B027D087F0312C1
:105DB0005BA37B027D047F03125BA37B027D027FDA
:105DC00003125BA37B027D017F01125BA37B027D3B
:105DD000047F01125BA37B027D107F01125BA37B1A
:105DE000027D207F02125BA37B027D407F02125B5B
:105DF000A37B027D807F02125BA37B027D01E4FF17
:105E0000125BA37B027D02E4FF125BA3D280C281FE
:105E1000D294C2A5D2A6C2A7D284C282229009EB94
:105E2000123288E598542FFF9009F3E0FE4FFF905F
:105E300009F5E04FF598EE702AFFFEFDFC9009EFA2
:105E4000123217C312319470045398DF22E47F0199
:105E5000FEFDFC9009EF123217C3123194707A43A1
:105E6000982022E5C854CFFF9009F4E0FE4FF5C812
:105E7000EE702E9009EF1232179009EB1231FB12DF
:105E800030B7E4FB7A01F9F81230B78F8D9009EF43
:105E90001232179009EB1231FB1230B78F8BC28E82
:105EA000229009F4E06430703075CE029009EF1250
:105EB00032179009EB1231FB1230B7E4FB7A01F98B
:105EC000F81230B78FCB9009EF1232179009EB120E
:105ED00031FB1230B78FCAD2CA22E49009F8F0A37E
:105EE000F0A3F01273429009FF1232940000920066
:105EF0007E28126C5BE49009F8F0A3F09009F8E0BA
:105F0000FEA3E0FFE4FCFD900ABD123217D312316C
:105F100094404B43CF109009F8E0FEA3E0FFE42F3C
:105F2000FFEE3492FEE433FDE433FC1275B09009C9
:105F3000FAEFF0FB9009F9E02400FF9009F8E03453
:105F400028FEE4FCFD900A23EBF0127499EF700236
:105F5000FF229009F8E475F001122F0E809E900A3E
:105F600018E4F0A37410F07B017A0A79B9A3123215
:105F7000F17FF07E917D007C001267C17F0122904D
:105F800001A8E06027E064036022C003C002C001F2
:105F90009009FC1232D189828A83D001D002D003C9
:105FA00012341CE49001A8F0A3F0A3F09001A8E043
:105FB000640370439001ADF0A3F09001A804F09049
:105FC00009F21232D1900A021232F17B017A017980
:105FD000AF126D1FEF60037F02229009F51232D1DC
:105FE000900A021232F17B017A0179AF126D1FEF34
:105FF0007F0060287F03229001A9E0FEA3E0FFE478
:10600000FCFD9009F8123217C3123194500CE49041
:1060100001A9F0A3F09001A804F07F0022900A5893
:10602000E030E20CE4900B76F0900A58E054FEF079
:10603000900A58E030E008900B76E004F08014906D
:106040000B76E0D394C874809480506D900A58E029
:1060500030E066900B76E0FD7C00643C702B900A8B
:106060005DE04402F0900A5BE054FEF0E054FDF085
:10607000E054FBF0E054F7F0E04410F0E04420F08E
:10608000E04440F0E04480F022ED64644C702A90DB
:106090000A5DE04404F0900A5BE04401F0E0440251
:1060A000F0E04404F0E04408F0E054EFF0E054DFA6
:1060B000F0E054BFF0E0547FF022900A9B1232D1FE
:1060C000900A3B7414F0E4FFFE900A36EEF0A3EF62
:1060D000F0900A3D1232F1E4900A3CF0900A3CE064
:1060E000C39414748094805063900A3CE0FF900A3B
:1060F00037E02FFF900A36E03400FE900A3D12325E
:10610000D1900A3CE0F582758300122DF1FD122931
:106110009A900A3CE0FF900A37E02FFF900A36E0A1
:106120003400FEE4FCFD900A447402F012705090BA
:106130000A3D1232D1900A3CE0F582758300122D9F
:10614000F1B507A5900A3CE004F080907F01229011
:106150000A5BE07005C2B3C2B522D2B7D2B4D2B2E4
:10616000D2B1900A5BE020E40CE020E508E020E6F4
:1061700004E030E728D2B3900A5BE030E402C2B713
:10618000900A5BE030E502C2B4900A5BE030E602C0
:10619000C2B2900A5BE030E706C2B18002C2B3909F
:1061A0000A5BE020E00CE020E108E020E204E030BF
:1061B000E327D2B5900A5BE030E002C2B7900A5BF9
:1061C000E030E102C2B4900A5BE030E202C2B29079
:1061D0000A5BE030E305C2B122C2B522C2AF75FE50
:1061E000C1AFFFD2AFEF5430FD7C00700479208046
:1061F0001CED64104C700479108012ED64204C701A
:106200000479088008ED64304C70027904E924F8C0
:10621000601824F8602024F06028241C7030900955
:10622000ED7401F0A374F4F080269009ED7403F08E
:10623000A374E8F0801A9009ED7407F0A374D0F00D
:10624000800E9009ED740FF0A374A0F08002E4F9C1
:106250009009EDE07002A3E0600C9009ED74FFF589
:10626000F0122F0E80EA22900A58E030E263900B81
:1062700075E0FFD39400748094804049EF940A74D1
:106280008094805040900A5CE030E409E030E505FD
:10629000E054DF802B900A5CE030E509E020E40563
:1062A000E054DF800E900A5CE030E40EE020E50A66
:1062B000E04420F0E04410F0800B900A5CE04420C1
:1062C000F0E054EFF0E4900B75F0900A58E054FDC4
:1062D000F0900A58E030E107900B75E004F022904E
:1062E0000B75E0D394C8748094805004900A58E0F1
:1062F0002275FE8543FF2053DB7FD2AFC209E490B5
:106300000B71F0900B23F0126B3CE4FF12701EEF48
:106310002401FDE433FC7E0F7FA0122EB9900B6C9C
:10632000EEF0A3EFF0E4FF127487124D1C7F02120F
:10633000701EEFC454F0FEC006E4FF12701ED0E0E1
:106340002FF5E17F0312701EE5E254804FF5E27FE6
:106350000412701EEF6008E5E254804480F5E27F8D
:106360000112701E8FE3126E8E43A910900B0FE086
:106370004480F5E81265850272C89009F7EEF0A333
:10638000EFF0A31232F19009FC74FF123255EC4D7C
:106390004E4F60619009F9E475F0011232DA122D66
:1063A000D8FE9009F7E06EF0A3E0F0E4900A00F068
:1063B000900A00E0C394087480948050C99009F753
:1063C000E0FEA3E0FFEE30E717EF25E0FFEE3364D9
:1063D00010FEEF6421FF9009F7EEF0A3EFF0800DBF
:1063E0009009F8E025E0F09009F7E033F0900A001A
:1063F000E004F080BB9009F7E0FEA3E0FF229009E3
:10640000EC1232889009F01232F19009F7E5F4F0BD
:10641000A2AFE4339009F6F0E06002C2AF9009F455
:10642000E0F5F4E4A3F09009EC1231FB8F828E8347
:10643000E493FF9009F01232D19009F5E0F58275EE
:106440008300EF122E859009EC1231FBEF2401FF3F
:10645000E43EFEE43DFDE43CFC9009EC1232889001
:1064600009F3E0FF9009F5E004F0C39F40B89009FC
:10647000F7E0F5F49009F6E06002D2AF9009F5E09C
:10648000FF221231FB900A04123288900A0812325D
:10649000F1900A0F12329400000000900A0B1231A2
:1064A000FB900A0F123217C31231945052900A0413
:1064B000123217C000C001C002C003900A0F12318F
:1064C000FB900A081232D18F828E83122DF1FFE4E5
:1064D000FCFDFED003D002D001D00012306E900A35
:1064E00004123288900A0F1231FBEF2401FFE43EC0
:1064F000FEE43DFDE43CFC900A0F123288809C9043
:106500000A040231FB9009F5EFF012752E9009F69E
:10651000EFF012657A900B6DE025E0FF900B6CE0D8
:1065200033FE7C00124CCA124BFBE0FAA3E0C39F7F
:10653000EA9E50099009F6E0603F14802D12657ABA
:10654000900B6CE0FEA3E0FF7C007D07122EA712EB
:106550004CCA124C1AE0FAA3E0D39FEA9E401A906C
:1065600009F6E0FF647E6011EF04FF741F2DF582D1
:10657000E4340BF583EFF0D209229009F5E0FF1225
:106580007487EFFB229009EB7420F01271F9E4900C
:1065900009ECF09009ECE0FFC3951A5021E0FE12DF
:1065A0004BF8E0FCA3E0FD75F002EE124C63ECF05A
:1065B000A3EDF01265059009ECE004F080D5900998
:1065C000EBE0FF14F0EF70C3127475127598900928
:1065D000EBEFF01271F9E49009ECF09009ECE0FFB8
:1065E000C3951A500B1258F09009ECE004F080EBC0
:1065F0009009EBE0FF14F0EF70D9229009FB123202
:10660000F1900A021232881254FF9009FE74FF12B0
:106610003255EC4D4E4F6052900A021231FB900AF7
:1066200006EFF0900A021231FB78081231A5900AA9
:1066300002123288900A021231FB9009FB1232D109
:10664000122DD8FB900A06E06B75F0049004B4128A
:1066500032C5123217123156900A0212328890094E
:10666000FCE475F001122F0E80A0900A020231FBAB
:10667000900A24123288900A2BE5F4F0A2AFE4339A
:10668000A3F0E06002C2AFE4900A2AF0900A29E089
:106690007013900A241231FB900A28E0900A31F01E
:1066A0001253F88016900A29E06402700E900A24B2
:1066B0001231FB900A28E0FD12299A900A24123127
:1066C000FB900A29E0900A44F0127050900A2BE0E7
:1066D000F5F4A3E06002D2AF900A28E06F7F01607A
:1066E000027F0022900A58E030E609E054BFF07FB4
:1066F0000212693F900A61E030E509E054DFF07F63
:106700001312693F900A61E030E409E054EFF07F32
:106710001412693F900A61E030E109E054FDF07F16
:106720001512693F900A61E030E209E054FBF07F06
:106730001612693F900A61E030E009E054FEF07FF4
:106740001712693F900A61E030E309E054F7F07FE7
:106750001812693F229009F0EEF0A3EFF0A3123275
:10676000F19009F5E0FEA3E0FF9009F1E02FFF9022
:1067700009F0E03EFEE4FCFD7BF07A69F9F8C31213
:10678000317E50037F00229009F0E0FEA3E0FFE499
:106790002FFFEE3492FEE433FDE433FC9009F5E084
:1067A000FBA3E0900A18CBF0A3EBF09009F21232B1
:1067B000D1900A1A1232F11267C1EF7F017001FF06
:1067C00022900A14123288E4900A1DF0A3F0900A75
:1067D00018E0FCA3E0FD900A1DE0FEA3E0FFC39DCE
:1067E000EC6480F8EE648098503BEE3395E0FDFC5D
:1067F000900A1412321712306E900A1A1232D19087
:106800000A1DE0F8A3E0F5828883122DF1900A2397
:10681000F0127499EF7002FF22900A1DE475F001E6
:10682000122F0E80A97F0122AD07AC06900A0DE55C
:10683000F4F0A2AFE433A3F0AFDFA3E4F0A3EFF0F2
:10684000C2AF75F402ECF5F3AF058FF2AFF3EFFED4
:10685000ADF27C00E42DEC3EC39418501475F1F0B9
:1068600075F62043F60200000000800500000000DD
:1068700000900A0DE0F5F4900A0FA3E0F5DF900A0E
:106880000EE024FF92AF229009FC123288E4900AB5
:1068900005F0A3F0900A00E0FCA3E0FD900A05E0FB
:1068A000FEA3E0FFC39DEC6480F8EE648098503353
:1068B000EE3395E0FDFC9009FC12321712306E1297
:1068C00075B0900A021232D1900A05E0FCA3E0F5FF
:1068D000828C83EF122E85900A05E475F001122F49
:1068E0000E80B122C20B900B71E0124BF8E5E5F07F
:1068F000A3E5E4F0900B71E004F0E0C3951A400BBF
:10690000E4F0900B23E04480F08002D20B900B71F6
:10691000E0FF127487124D1C900B71E0FF12752E70
:10692000E5E254804FF5E2900B71E0240FF582E42C
:10693000340BF583E04480F5E8300B02D2EE229070
:106940000A56E0C39414748094804002E4F0E4FE9C
:10695000900A56E0FDEED39D502A74762EF582E41F
:10696000340AF583E0B50719FB64156014EB64166F
:10697000600FEB6417600AEB64186005EB64147039
:10698000150E80CC74762DF582E4340AF583EFF091
:10699000900A56E004F0229000191232D1900015AE
:1069A000E0FCA3E0F5828C83EF122E85900015E4C5
:1069B00075F001122F0E900017E475F001122F0EE2
:1069C0009000191232D1122DD8FF64186005EF64BF
:1069D000047007E4900015F0A3F0C3900016E09453
:1069E00085900015E094004004E4F0A3F022E4F563
:1069F00009F50A750E02750D40F50CF50BF509C386
:106A0000E509941F748094805037AF0EAE0DAD0C25
:106A1000AC0B78011231A58F0E8E0D8D0C8C0B30C6
:106A2000D71B740F250AF582E4340BF583E509F0D2
:106A3000050AC3E50A940274809480500405098015
:106A4000BE850A1A22900A57E0FEC39414748094FB
:106A500080400FE4F0E02476F582E4340AF583E028
:106A6000FF22900A56E0FDEEC39D400AE4A3F09099
:106A70000A56F07FFF22900A57E0FE2476F582E462
:106A8000340AF583E0FF74762EF582E4340AF58348
:106A900074FFF0900A57E004F022EF24FE60111416
:106AA000602014603324047044AF05AD030273E723
:106AB000ED7004C2AD8002D2ADEB7003C2BD22D234
:106AC000BD22ED700553A9BF800343A940EB7004BC
:106AD00053B9BF2243B94022ED700553A97F80030B
:106AE00043A980EB700453B97F2243B98022900AF6
:106AF00098E020E12A900A9B1232D1900002E475BE
:106B0000F001122FD51260C0EF70301260BAEF7032
:106B10002A1260BAEF7024900A9B1232D1800F9033
:106B20000A9B1232D1900002E4F5F0123041900A33
:106B30003B7414F07F007E021260C9229076CD74FF
:106B40000193900B08F09076E7740193900B26F078
:106B50001269EEE4F508E508C3951A5023E50875B7
:106B6000F008A424EDF582E43476F583E493FF7411
:106B70001F2508F582E4340BF583EFF0050880D675
:106B8000E4900B24F0A3F022EF54F0FC7028ED64A5
:106B9000017011EF540FFFF87401088002C333D85D
:106BA000FC42D322EF540FFFF87401088002C33374
:106BB000D8FCF452D322ECC4540FF5CEEF7E103043
:106BC000E0027E20ED64017004EE42C922EEF45230
:106BD000C922900B2EE004F0E024FE600D14601535
:106BE00024FB600424077021801C7D017F01126F4B
:106BF000E643AD40221273FDAC06AD07E4122C282B
:106C0000900A4A02328802280E900B2EE0C3940AA2
:106C1000748094804002E4F0229009EB1232F190EB
:106C200091F0E4939009F1F0902A00123207900954
:106C3000F1E02FF0900AA07401F0E4A3F0A3F0A318
:106C4000F0A3F09009EE1232D1900AA51232F19021
:106C500009EB1232D1900AD10232F17F007D007C23
:106C60000080319009FF1231FB9009FB123217C3EB
:106C7000123194502743CF109009FB1231FB12734D
:106C8000609009FB1231FBE42FFFEE3402FEE43D7D
:106C9000FDE43CFC9009FB12328880C722C0E0C0B2
:106CA000F0C083C082C0D075D000C000C001C00257
:106CB000C003C004C005C006C0071272E75398FDA8
:106CC0005398FED007D006D005D004D003D002D010
:106CD00001D000D0D0D082D083D0F0D0E032900963
:106CE000EBECF0A3EDF0EF14601514601D146023BD
:106CF0002403702A9009EBE0FEA3E0FF0274BD902C
:106D000009EBE0FEA3E0FF0275129009EBA3E0FFA0
:106D100002755C9009EBA3E0FFAD0312758522902C
:106D200009FF1232F1E4FFFE900A021232D1122D55
:106D3000D860299009FF1232D10FEFAC0670010E16
:106D400014F5828C83122DF1FD900A02E475F00196
:106D50001232DA122DD86D60CF7F00227F0122908F
:106D600009F7ECF0A3EDF0EF54F0701753D2FD905B
:106D700009F7E0FCA3E0FDEF25E02440F582E434D0
:106D80002080149009F7E0FCA3E0FDEF540F25E00C
:106D90002434F582E43420F583ECF0A3EDF022EF07
:106DA000900A006016E4F0A37404F07B017A09797C
:106DB000F8A31232F17F007E948014E4F0A37404EF
:106DC000F07B017A0979F8A31232F17F007E2A7DE7
:106DD000007C001268879009F80231FB20850C9036
:106DE0000A58E020E305E04408F02220851E900ABE
:106DF00058E030E317000000000000000000002011
:106E00008505E04410F022900A588007900A58E067
:106E100054EFF0E054F7F0227B017D017F02125B1A
:106E2000A37B017D027F02125BA39009EF123294D3
:106E30000001C2009009F37440F0E4A3F0A37410C1
:106E4000F07F007E487DE87C01125E1DE4FD7F013D
:106E50000274E1E4FD7F1012285E7D017F027E0056
:106E60001274627D017F087E001274627D017F4092
:106E70007E001274627D017F807E001274627D014B
:106E80007F01126FE6D2AEC2BE7F01027551E4FFF0
:106E9000EFC3951A501A124C50E4F0741D2F124C87
:106EA00001E4F0A3F074172F124CA8E4F00F80E077
:106EB000E4F515F514F513F512900B6B74FFF0E47F
:106EC000900B6EF0A3F0C20922C0E0C0F0C083C0F6
:106ED00082C0D075D000C000C001C002C003C00491
:106EE000C005C006C0071268E4D007D006D005D0A0
:106EF00004D003D002D001D000D0D0D082D083D033
:106F0000F0D0E0329001ADE0FCA3E024AFF5827454
:106F1000013CF583EFF09001ADE475F001122F0E06
:106F2000D39001AEE094009001ADE094024004E4FF
:106F3000F0A3F0EFB40D069001A87403F0227D9F3A
:106F40007C0F7F101271327B01E4FDFC7F02127412
:106F50004FE4FF127428E4FDFF127504E49009EE7B
:106F6000F0FB7D20FF1274ABE4FBFDFF126A9A7DFB
:106F700001E4FF02724C900A5AE030E630900B6256
:106F8000E475F001122F0ED2C2D2C0D2C1D2C3D347
:106F9000900B63E09484900B62E09403400FC2C2B4
:106FA000C2C0C2C1C2C3900A5AE04440F022126675
:106FB000E4126A45EF24EC601124FE60101460199D
:106FC00014601C2405701E02614F023CA812626707
:106FD00012601D126DDC0251A01273B4025ACB1262
:106FE0004431126F7622AC07ECC3941F74809480F6
:106FF00050247E007401A804088005C333CE33CE2C
:10700000D8F9FFED700AEFF452ABEEF452AC800603
:10701000EF42ABEE42ACE5AD54E04CF5AD22EF14DF
:10702000601214601414601814601A2404701E9006
:1070300076E980089076EA80039076EBE493FF226D
:10704000E4FF02752E9076DB740193FF227F00220D
:10705000900A40123288ABF4A2AFE433FA6002C265
:10706000AF900A44E0F5F4900A401231FB8F828E13
:1070700083E493FFAE038EF4AE02EA6002D2AF2245
:10708000E4900B72F09009EBF09009EBE0FFC395F0
:107090001A50131258F09009EBE0FF1234BC90091B
:1070A000EBE004F080E3AF15AE14AD13AC12229008
:1070B00000051231FBEF2401FFE43EFEE43DFDE458
:1070C0003CFC900005123288900013E475F0011228
:1070D0002F0E9001A9E475F001022F0EAD07ED759A
:1070E000F008A424EFF582E43476F583E493FEED12
:1070F00075F008A424F0F582E43476F583E4937CFB
:10710000002400FFEC3EFE227E007F057D007B0117
:107110007A0A795812341E7E007F147D007B017A32
:107120000A796212341E7B017A0A7962900A9B0204
:1071300032F1AB07EB540FFA7019ED1D70011CEB27
:1071400054F0FFE5D254CF4FF5D2ECF5D5AF05EFB3
:10715000F5D4228ACEECF5CBEDF5CA22EFFB7A000E
:107160007005538EFE8009EB64014A7003438E0163
:10717000EDFF7E00640170045389FB22EF64024E30
:10718000700343890422E49009F7F0A3F0C20A12C5
:107190002866200A189009F7E475F001122F24FEE2
:1071A000C374D095F074079E50E843CF1022900A24
:1071B00007EFF0E4900A0CF0EF7009900A08123122
:1071C000FB025603900A07E064027007A31231FB2A
:1071D0001268282290000DEFF09000117403F0A3C4
:1071E00074E8F09000191232F1E4900015F0A3F069
:1071F000A3F0A3F090000FF022E4FE900B23E054E4
:107200007FF0D2EE900B23E0548070111261DC43CA
:10721000CF100EEEC394647480948040E7229009EE
:10722000EF1232F19009EF1232D1122DD860139083
:1072300009EFE475F0011232DA122DD8FF127186CF
:1072400080E222AF02EFC4540FFF7D01EF700BED1F
:10725000600443D2802253D27F228FCEED6004435C
:10726000C8042253C8FB22900A18E4F0A37410F05B
:107270007B017A0A7904A31232F17FF07EFB7D0054
:107280007C001267C17F0122900004EFF0A312324C
:1072900094000000009009F01231FB9000091232B6
:1072A000889001A87401F022AE077B017A00792250
:1072B0007F011271D4AF06C0079009F0123294001A
:1072C000000FA0D007027288E4FFEFC3951A501692
:1072D000124BF7E0FCA3E0FD900B09124C19ECF007
:1072E000A3EDF00F80E4223099055398FDD20A30C7
:1072F00098135398FE12286E900AD11232D18982C7
:107300008A8312341C227D017F0112715CE4FBFA36
:10731000FD7C837F01126CDEE4FD7F011274CF7F60
:107320000102758F900A00E4F0A37410F07B017ADB
:107330000A79A9A31232F17FF07E917D007C0002D0
:107340006887900A00E4F0A37410F07B017A0A7950
:10735000B9A31232F17FF07EFB7D007C00026887CA
:10736000900A03123288900A031231FB900A081225
:107370003288900A0C74F0F0E4FF0271AE900004C1
:10738000E024FE600D146008240324FB50028000FA
:107390008003026997126F0422125D4F1275C812A2
:1073A0006E18127306126F3E126E53127567122812
:1073B0001AD2AF22900A5CE030E504D2928002C279
:1073C00092900A5CE030E403D29022C2902275FED3
:1073D000C2900A9FE5FFF043FF0C75FEC1900A9E24
:1073E000E5FFF075FB8522EF600543A9028003539A
:1073F000A9FDED700453B9FD2243B90222AFAFEFEE
:1074000075F010A4FFE5AEC4540F7C002FFFEC35DF
:10741000F0FE221270DCEF7803C333CE33CED8F9FE
:10742000FF7C007D0A022EB9EFFD7C00700453D270
:10743000FE22ED64014C700343D2012275FEC2901E
:107440000A9FE0F5FF75FEC1900A9EE0F5FF22AAB3
:1074500007126D5FAD03126B88EB6401700312724B
:107460004322ED7009EFF452ABEEF452AC22EF423E
:10747000ABEE42AC22E4FFEFC3951A5009124BF772
:10748000124CEC0F80F122EF75F008A424ECF58289
:10749000E43476F583E493FF22900A23E0900A28EF
:1074A000F0E4A3F0A374F0F0026670EF700EE5D77D
:1074B00054C04D4BFF9009EEE04FF5D7225389FCA5
:1074C0008F8AEF7805CEC313CE13D8F9F58C22EF4F
:1074D0007004C2A98002D2A9ED7003C2B922D2B948
:1074E00022EF7004C2AC8002D2ACED7003C2BC22A9
:1074F000D2BC22EF3395E04F70047F058002E4FF99
:107500001272A822EF700AED600443D7802253D78D
:107510007F225389FC438901AD078D8AEEF58C22C9
:1075200075FEC1EF700453FF7F2243FF8022741F5A
:107530002FF582E4340BF583E0FF229076D1E493BB
:10754000FE740193FF229076D5E493FE740193FFBD
:1075500022EF700453AD7F2243AD80225389FC4358
:1075600089028F8A8F8C22E4FF1275B87F01027521
:107570002075B78675B61843A92022900B08E075D0
:10758000F00384FF224389038F8AAF058F8C22EF9B
:107590007003C28C22D28C229076CF740193FF228A
:1075A0009076C9740193FF22900B08E0C313FF2269
:1075B000E4900A44F0027050E5CF54F84FF5CF2222
:1075C000AD078D8AEEF58C2243C1C043D9302267C6
:1075D00065745F646F776E0D00646F776E206E6FF9
:1075E0006E650D00726573756C740D00646F776E57
:1075F00020756E6B6E6F776E5F636F6D6D616E641D
:107600000D00646F776E204D49494F5F6D63755F64
:1076100076657273696F6E5F7265710D006D63756B
:107620005F76657273696F6E20303030310D0064A3
:107630006F776E206765745F70726F7065727469C2
:10764000657300646F776E207570646174655F6642
:10765000770D006D6F64656C207361736573692EBF
:1076600073727365722E73617330310D006F6B002E
:107670006572726F7200626C655F636F6E666967D8
:10768000207365742031353620303030310D006480
:107690006F776E207570646174655F667700646FE4
:1076A000776E206E6F6E6500726573756C74202244
:1076B0007265616479220D006D63755F626F6F742E
:1076C000206661696C0D00000000010000000300ED
:1076D0000A0BB800C80064000200000000000500AA
:1076E000000001FFFFFFFF0018034805081F050108
:0976F00044034805081A05019144
:0491F000AA5555AA7D
:00000001FF
