:1000000002290030000302280321033000030228E4
:100010000B210B30000302281321133000030228A8
:100020001B211B3000030228232123300003022858
:100030002B212B3000030228332133300003022808
:100040003B213B30000302284321433000030228B8
:100050004B214B3000030228532153300003022868
:100060005B215B3000030228632163300003022818
:100070006B216B30000302287321733000030228C8
:100080007B217B3000030228832183300003022878
:100090008B218B3000030228932193300003022828
:1000A0009B219B3000030228A321A33000030228D8
:0300B000AB21ABD6
:102800000272AF0228167F0602709C02561AB2941A
:10281000B2A52202281E5388FD32220228225388A4
:10282000F73232026BB353ADDF323202282A752001
:10283000FF2232022826D2EE223232022832A209A8
:10284000223232022839D20922323202283A7F015A
:102850002232320228410200003232026DDF8FB58F
:012860002255
:062863000257158F9922B7
:06286B00022842AF992291
:03287300022849EF
:03287B0002284AE6
:03288300022851D7
:03288B00022852CE
:03289300022859BF
:10289B0002285AD292D290D2B3D2B5C2B7C2B4C226
:1028AB00B2C2B17DD07C078031900A61E030E0F993
:1028BB0043CF10900B67E004F0900A61E054FEF0F8
:1028CB00900B67E0C3941E748094805014E0C39403
:1028DB00027480948040D2E4FDFC7F02126C758000
:1028EB00C8C2B3C2B5C2B7C2B4C2B2C2B1C292C23D
:0228FB00902229
:1029000078FFE4F6D8FD9000007F007E01E4F0A39C
:10291000DFFCDEFA758121022955024E37E493A3CC
:10292000F8E493A34003F68001F208DFF48029E481
:1029300093A3F85407240CC8C333C4540F4420C8CD
:10294000834004F456800146F6DFE4800B01020464
:102950000810204080904593E47E019360BCA3FF63
:10296000543F30E509541FFEE493A360010ECF5499
:10297000C025E060A840B8E493A3FAE493A3F8E488
:1029800093A3C8C582C8CAC583CAF0A3C8C582C8F4
:10299000CAC583CADFE9DEE780BEAB07AA06900A94
:1029A00040E5F4F0A2AFE433A3F0AFDFA3E4F0A37B
:1029B000EFF0C2AF75F402AF058FF5EAF5F3AF03A0
:1029C0008FF2AFF3EFFEADF27C00E42DEC3EC3944A
:1029D00018501475F1F075F61043F602000000006F
:1029E00080050000000000900A40E0F5F4900A42E3
:0D29F000A3E0F5DF900A41E024FF92AF2242
:102A000020230414EC4D6011E8497017ED33EC33CA
:102A100004600DE4FCFFFEFD22E933E8330470F8A6
:102A2000022C2D122BF858046009E4CC24815006A6
:102A3000285009022C37284003022C34C0E0EB4A0E
:102A40007044B98006D0E0FB022C23EF4E701CBD11
:102A50008008EBFFEAFEE9FD80EBE98DF0A4FEE5DE
:102A6000F0022AEDE9CDF9EAFEEBFFEF89F0A4FCD4
:102A7000E5F0CE89F0A42EFFE435F0CD89F0A42D49
:102A8000FEE435F08067EF4E7005BD80D780C3EF60
:102A90008BF0A4ACF0EE8BF0A42CFCE435F0F8EF56
:102AA0008AF0A42CE5F038FCE433CB8DF0A42CFCA8
:102AB000E5F03BF8EE8AF0A42CFCE5F038F8E433BE
:102AC000CF89F0A42CFCE5F038CF3400CE89F0A4F7
:102AD0002FFFE5F03EFEE433C98DF0A42EFEE5F0B5
:102AE00039CD8AF0A42FFFE5F03EFEE43DFD33D062
:102AF000E0FB50070BBB000F022C37EC2CFCEF3334
:102B0000FFEE33FEED33FD022C0F74F8CC6480CC65
:102B1000C86480C8F58204604FC3EB9FF5F0EA9E5D
:102B200042F0E99D42F0E89C45F0603C501DE58292
:102B30005FFFE582D313CB5BCBF42B5582FB502890
:102B40000ABA002409B9002008801DE5825BFBE574
:102B500082D313CF5FCFF4C3132F5582FF50090EDA
:102B6000BE00050DBD00010CC3EB9FF5F0EA9E42CF
:102B7000F0E99D42F0E89C45F06007CC4820E70171
:102B8000B3EC2275F020800E75F010800575F0080A
:102B90007D007E007F003392D530D5031230D0EC1B
:102BA000334010EF33FFEE33FEED33FDEC33FCD555
:102BB000F0ED22E5F0247EA2D513CC92E7CDCEFF36
:102BC00022EDD2E7CD33EC3392D524814006E4FFE9
:102BD000FEFDFC22FCE4CFCECDCC24E0501174FFEE
:102BE00080EDC3CC13CCCD13CDCE13CECF13CF04F9
:102BF00070F030D5DE0230D0E9D2E7C933E833F8DF
:102C000092D5EDD2E7CD33EC33FC5002B2D522ECB5
:102C100030E7100FBF000C0EBE00080DBD00040B06
:102C2000EB6014A2D5EB13FCED92E7FD2274FFFCE0
:102C3000FDFEFF22E480F8A2D574FF13FC7D80E442
:102C400080EFE709F608DFFA8046E709F208DFFAC5
:102C5000803E88828C83E709F0A3DFFA8032E309A3
:102C6000F608DFFA8078E309F208DFFA80708882DC
:102C70008C83E309F0A3DFFA806489828A83E0A36E
:102C8000F608DFFA805889828A83E0A3F208DFFA27
:102C9000804C80D280FA80C680D4806980F28033F4
:102CA000801080A680EA809A80A880DA80E280CABC
:102CB000803389828A83ECFAE493A3C8C582C8CCA6
:102CC000C583CCF0A3C8C582C8CCC583CCDFE9DE00
:102CD000E7800D89828A83E493A3F608DFF9ECFA92
:102CE000A9F0EDFB2289828A83ECFAE0A3C8C582B1
:102CF000C8CCC583CCF0A3C8C582C8CCC583CCDF03
:102D0000EADEE880DB89828A83E493A3F208DFF9B4
:102D100080CC88F0EF60010E4E60C388F0ED240295
:102D2000B4040050B9F582EB2402B4040050AF2380
:102D300023458223902C9273BB010689828A83E00B
:102D4000225002E722BBFE02E32289828A83E493B7
:102D500022BB010CE58229F582E5833AF583E02266
:102D60005006E92582F8E622BBFE06E92582F8E254
:102D700022E58229F582E5833AF583E49322BB01BB
:102D80000989828A83F8E028F022500327F722BBC2
:102D9000FE05F8E328F3228A838982F8E493282247
:102DA000BB010FF8E58229F582E5833AF583E02837
:102DB000F0225009C58229F8E58226F622BBFE09D9
:102DC000C58229F8E22582F222F8EA2583F583E913
:102DD000932822BB010689828A83F0225002F722BF
:102DE000BBFE01F322F8BB010DE58229F582E583E4
:102DF0003AF583E8F0225006E92582C8F622BBFEA8
:102E000005E92582C8F222EF8DF0A4A8F0CF8CF05E
:102E1000A428CE8DF0A42EFE22BC000BBE0029EF0C
:102E20008DF084FFADF022E4CCF875F008EF2FFFB1
:102E3000EE33FEEC33FCEE9DEC984005FCEE9DFE7F
:102E40000FD5F0E9E4CEFD22EDF8F5F0EE8420D2C6
:102E50001CFEADF075F008EF2FFFED33FD40079835
:102E60005006D5F0F222C398FD0FD5F0EA22C5F046
:102E7000F8A3E028F0C5F0F8E5821582700215830A
:102E8000E038F022A3F8E0C5F025F0F0E5821582E5
:102E900070021583E0C838F0E822BB010A89828AF3
:102EA00083E0F5F0A3E022500687F009E71922BB82
:102EB000FE07E3F5F009E3192289828A83E493F59A
:102EC000F074019322BB0110E58229F582E5833A73
:102ED000F583E0F5F0A3E0225009E92582F886F0B9
:102EE00008E622BBFE0AE92582F8E2F5F008E222B4
:102EF000E5832AF583E993F5F0A3E99322BB010763
:102F000089828A83022E6E500B09C5F027F7C5F01F
:102F10001937F722BBFE0D09F8E325F0F3C5F019C8
:102F2000E338F322F889828A8374019325F0C5F08F
:102F3000F8E4933822BB010DC58229C582C5833AC6
:102F4000C583022E6E5011C58229F808E5F026F6D9
:102F500018F5F0E58236F622BBFE11C58229F80885
:102F6000E225F0F5F0F218E23582F222F8E5822946
:102F7000F582E5832AF58374019325F0F5F0E49357
:102F80003822BB010A89828A83F0E5F0A3F022503F
:102F900006F709A7F01922BBFE06F3E5F009F319BD
:102FA00022F8BB0111E58229F582E5833AF583E831
:102FB000F0E5F0A3F0225009E92582C8F608A6F052
:102FC00022BBFE09E92582C8F2E5F008F222EF2BC8
:102FD000FFEE3AFEED39FDEC38FC2275F008758203
:102FE00000EF2FFFEE33FECD33CDCC33CCC5823393
:102FF000C5829BED9AEC99E58298400CF582EE9B98
:10300000FEED9AFDEC99FC0FD5F0D6E4CEFBE4CDB5
:10301000FAE4CCF9A88222B800C1B90059BA002D4F
:10302000EC8BF084CFCECDFCE5F0CBF97818EF2F08
:10303000FFEE33FEED33FDEC33FCEB33FB10D70337
:10304000994004EB99FB0FD8E5E4F9FA227818EFE0
:103050002FFFEE33FEED33FDEC33FCC933C910D73F
:10306000059BE99A4007EC9BFCE99AF90FD8E0E44C
:10307000C9FAE4CCFB2275F010EF2FFFEE33FEED22
:1030800033FDCC33CCC833C810D7079BEC9AE899F2
:10309000400AED9BFDEC9AFCE899F80FD5F0DAE4D4
:1030A000CDFBE4CCFAE4C8F922EF5BFFEE5AFEED6B
:1030B00059FDEC58FC22EF6BFFEE6AFEED69FDEC6A
:1030C00068FC22CFF4CFCEF4CECDF4CDCCF4CC221C
:1030D000C3E49FFFE49EFEE49DFDE49CFC22EB9F85
:1030E000F5F0EA9E42F0E99D42F0EC6480C864800D
:1030F0009845F022EB9FF5F0EA9E42F0E99D42F000
:10310000E89C45F022E8600FECC313FCED13FDEEE4
:1031100013FEEF13FFD8F122E8600FEFC333FFEE89
:1031200033FEED33FDEC33FCD8F122BB010DE5821B
:1031300029F582E5833AF58302315B5007E9258260
:10314000F80233AABBFE07E92582F80233B6E5820E
:1031500029F582E5833AF583023167E0FCA3E0FDBF
:10316000A3E0FEA3E0FF22E493FC740193FD74024C
:1031700093FE740393FF22E0F8A3E0F9A3E0FAA31F
:10318000E0FB22BB010DE58229F582E5833AF58358
:103190000231775007E92582F80233C2BBFE07E906
:1031A0002582F80233CFE58229F582E5833AF5835B
:1031B0000233DC7401FF3395E0FEFDFCA3A3A3E022
:1031C000CF2FF0E582158270021583E0CE3EF0E548
:1031D00082158270021583E0CD3DF0E58215827084
:1031E000021583E0CC3CF022ECF0A3EDF0A3EEF06E
:1031F000A3EFF022A8828583F0D083D08212320B15
:1032000012320B12320B12320BE473E493A3C58318
:10321000C5F0C583C8C582C8F0A3C583C5F0C58302
:10322000C8C582C822A42582F582E5F03583F583DE
:1032300022E0FBA3E0FAA3E0F922F8E0FBA3A3E07D
:10324000F925F0F0E582158270021583E0FA38F076
:1032500022EBF0A3EAF0A3E9F022BB010789828AFE
:10326000830232315005E9F80233ECBBFE05E9F880
:103270000233FE89828A83023410BB011A89828A52
:1032800083D0F0D0E0F8D0E0F9D0E0FAD0E0FBE86D
:10329000C0E0C0F00232515016E9F8D083D082D09D
:1032A000E0F9D0E0FAD0E0FBC082C0830233F5BB86
:1032B000FE16E9F8D083D082D0E0F9D0E0FAD0E071
:1032C000FBC082C08302340722BB010DE58229F5D1
:1032D00082E5833AF5830232315007E92582F8020C
:1032E00033ECBBFE07E92582F80233FEE58229F5BF
:1032F00082E5833AF583023410BB0120E58229F58B
:1033000082E5833AF583D0F0D0E0F8D0E0F9D0E060
:10331000FAD0E0FBE8C0E0C0F00232515018E925D5
:1033200082F8D083D082D0E0F9D0E0FAD0E0FBC0C0
:1033300082C0830233F5BBFE18E92582F8D083D022
:1033400082D0E0F9D0E0FAD0E0FBC082C083023442
:103350000722D083D082F8E4937012740193700D29
:10336000A3A393F8740193F5828883E473740293A2
:103370006860EFA3A3A380DF8A838982E473EF4EA2
:103380006012EF60010EEDBB010B89828A83F0A30E
:10339000DFFCDEFA2289F05007F709DFFCA9F022F2
:1033A000BBFEFCF309DFFCA9F022E6FC08E6FD0801
:1033B000E6FE08E6FF22E2FC08E2FD08E2FE08E283
:1033C000FF22E6FB08E6F908E6FA08E6CBF822E277
:1033D000FB08E2F908E2FA08E2CBF822E493F87479
:1033E0000193F9740293FA740393FB22E6FB08E657
:1033F000FA08E6F922EBF608EAF608E9F622E2FB1B
:1034000008E2FA08E2F922EBF208EAF208E9F2220D
:10341000E493FB740193FA740293F9229009ECEFA0
:10342000F0E49009F4F09009ECE0900B09124B0BDA
:10343000124C4E9009EDF0A3EFF0E47F01FEFDFC8D
:103440009009ECE0F9F81231188F198E188D178C4D
:1034500016AF01126FF29009F2EEF0A3EFF0124BEB
:103460005E4005124C708005E49009EFF09009EF82
:10347000E0640160030235CE9009ECE0FF241512F0
:103480004B73E0C394FA748094805006124B70E042
:1034900004F0124C21FCE4FBFAF9F8C31230F4609A
:1034A000030235BB900B08E09009F1F012284EEFB3
:1034B0006030E49009EFF0A3F0124BAB5018124BC0
:1034C00070E0C394017480948040069009EFE0049A
:1034D000F0124C3580E3124BDE40079009F1E024F6
:1034E0000FF09009ECE02415124B73124C9050032E
:1034F0000235BBE49009EFF01274B6EF705E9009EC
:10350000F0F0124BAB50229009ECE06F6016127491
:10351000919009F0E02415124B73E0C39F4005120F
:103520004C708005124C3580D912284EEF3395E04F
:103530004F70639009EFE0705DA3F0124BAB5056F3
:103540009009ECE06F60101274919009F0124BC575
:10355000E0C39F4002803C124C3580DF12284EEFC2
:103560003395E04F70309009F1F09009F0F0124B74
:10357000AB5018124B70E0C39402748094804006E4
:103580009009F1E004F0124C3580E39009F1124B00
:10359000E14003124C709009EFE064017002D20820
:1035A000E5154519FFE5144518FEE5134517FDE53A
:1035B0001245168F158E148D13F5129009ECE0FF4D
:1035C000241D124B21E4F0A3124BB80237E19009FD
:1035D000ECE0FF1273299009EDE0FCA3E0FDD312AB
:1035E0004B524008124BC2E004F0800B900B72E08B
:1035F00004F0124BC2E4F0124C58C3E49FFBE49E6B
:10360000FAC3ED9BEA124B544066D3124B5F5060F5
:10361000124BFFF583E4124BB8124B89600302375B
:10362000359009EDE0FEA3E0FF9009ECE0900B1966
:10363000124BA5EE8FF0122E6E12745C124B4040AE
:1036400009124B7BE475F001801912745CC3E49F8E
:10365000FFE49EFE124B404003023735124B7B7451
:10366000FFF5F0122E6E124B36E4F0A3F002373560
:10367000124C58C3E49FFFE4124B5C5073124BFF93
:10368000124BB4F583E4F0741D2FF582E4340BF58E
:1036900083E0FF75F00A84E5F07044C3EF9464742E
:1036A0008094809009ECE04010124C04F583E4F023
:1036B000D209900B2D04F08026124B80C083C0826B
:1036C000E0FEA3E0FF900B26E0A2E713FD3395E0B8
:1036D000FCC3EF9DFFEE9CD082D083F0A3EFF0906F
:1036E00009ECE0FF900B6BE06F704A74FFF08045CF
:1036F000124C58D3124B5F403C9009ECE0124C0442
:10370000124B897030124C77124BB4F583E0642071
:103710007023124C77F583E4F0900B26E0A2E713B8
:10372000A2E713FD3395E0FC75F002EF124B83EC3A
:103730008DF0122E6E124C214D4E4F70030237ED5C
:103740009009F2E0FCA3E0FDAE047802CEA2E713FC
:10375000CE13D8F8FFC3ED9FFFEC124B5C40030281
:1037600037E6124BD0E004F01274BE9009F1EFF08E
:10377000E49009F0F0124BAB5018124B70E0C39478
:10378000017480948040069009EFE004F0124C35FB
:1037900080E3124BDE4008900B08E09009F1F090B6
:1037A00009ECE0FB124BD4124C90500302383774F2
:1037B0002B2B124BD6E4F0AF19AE18AD17AC161286
:1037C00030C3E5155FFFE5145EFEE5135DFDE51210
:1037D0005C8F158E148D13F51274152BF582E4345D
:1037E0000BF583E4F022124BD0E014F0229009ECA8
:1037F000E02415124B73124B8B70089009ECE0FF1C
:1038000012641BE51A14FF9009ECE06F7029900B0D
:1038100072E0C3951A4020E49009F0F0124BAB50CF
:103820000E124B70E06003124C70124C3580ED901C
:1038300009EFE07002C208229009EF123251E490C1
:1038400009F2F0A3F090000FE0703B7F4312709CF0
:1038500090000F7401F090000EF0E4900013F0A3BC
:10386000F0900002F0900AC91231F40000000090BC
:103870000000E4F0A304F0E49000A7F090001D1213
:1038800031F400000000900011E0FEA3E0FFD390AF
:103890000014E09F900013E09E4012900002E004AC
:1038A000F07F1512709CE4900013F0A3F090000FCD
:1038B000E064016003023BD5C3900018E0940190DE
:1038C0000017E094005003023BD5900019123231EA
:1038D000122D38640460030239D69009F5F090097E
:1038E000F5E0FF7E00C394FF74809480503BC37466
:1038F000FF9FFFE49EFE74B02FF58274033EF583B4
:10390000E0F4701D9009F5E0FFC374FF9FFFE4949D
:1039100000FE74AF2FF58274033EF583E0641A60F5
:10392000089009F5E004F080B59009F5E02406F070
:103930007B017A0379B0E0FFC3E49FFF7401940038
:10394000FEE4FCFD9009FE1231E890001D12315B8F
:1039500012651190001D1231E8E49009F6F090090B
:10396000F6E0FFC3940474809480504D9009F5E014
:10397000FDC3E49DFD74019400FC7E00ED2FFFEE7D
:103980003CFE74B02FF58274033EF583E0FB90009B
:103990001D12315BEF6B60089000A77401F0801975
:1039A00090001D12315B780812310590001D123114
:1039B000E89009F6E004F080A5E4900013F0A3F08D
:1039C000900017F0A3F090000E7402F0A3F07F06B1
:1039D00012709C7F0122900019123231122D38642E
:1039E00018701E900013F0A3F0900017F0A3F09051
:1039F000000E7405F0A37402F07F0612709C7F0322
:103A000022D3900018E09485900017E094004019AC
:103A1000E4900013F0A3F0900002E004F0E49000C2
:103A200017F0A3F07F1512709C900019123231121A
:103A30002D3864016003023BD5900017E07004A3A9
:103A4000E064856003023BD5900013F0A3F0900082
:103A500017F0A3F0A3123231900001122D51FF9004
:103A60000000E0FCA3E0FD6F7001E46003023BC9CD
:103A7000A3F0C3ED9403EC9400401F7B017A03791B
:103A8000B09009FE1231F40000008090001D123148
:103A90005B12651190001D1231E8E49009F5F09079
:103AA00009F5E0FFC39480748094805042E0FE24C6
:103AB00030F582E43404F583E0FD74B02EF582E441
:103AC0003403F583EDF0EF2403FDE433FC9000199B
:103AD0001232318D828C83122D51FE74302FF5827B
:103AE000E43404F583EEF09009F5E004F080B09042
:103AF0000019123231E92403F9E43AFA9009FC1270
:103B000031F4000000809009F2E0FEA3E0FF1262B1
:103B1000909009F2EEF0FCA3EFF0FD900019123244
:103B200031900083122D51FEC3ED9400FFEC9EFEF8
:103B3000900084122D51FDC3EF9DFFEE94004F6065
:103B400003023BC9900001E024FFFF900000E03435
:103B5000FFFE9009EF123231900001EE8FF0122F2C
:103B6000A1900003E475F080122FA1E49009F4F015
:103B70009009EF123231900003122EC5FF9009F424
:103B8000E07C00C39FEC95F05033E0FF2403FDEC94
:103B900033FC9000191232318D828C83122D51FE2C
:103BA0009009EF1232319000051232C98F8275836D
:103BB00000EE122DE59009F4E004F080B3900000CF
:103BC000E475F001122E6E800C900002E02402F0E9
:103BD0007F1512709C900002E0C394197480948049
:103BE00040237F1812709C7F1812709C7F181270EF
:103BF0009CE4900017F0A3F090000E7405F0A374FD
:103C000002F07F03227F0022900A5AE020E1109008
:103C10000A5DE0D39400748094805003023CC59008
:103C200008BAE04401F0900A5DE030E6089008BB75
:103C30007401F08076900A5DE030E7089008BB746C
:103C400002F08067900A5AE030E1089008BB7403E4
:103C5000F08058900A5DE030E0089008BB741FF0D7
:103C60008049900A5DE030E1089008BB7420F08044
:103C70003A900A5DE030E2089008BB7421F0802B96
:103C8000900A5DE030E3089008BB7422F0801C903D
:103C90000A5DE030E4089008BB7423F0800D900AC0
:103CA0005DE030E5069008BB7424F0900A5AE054B9
:103CB000FDF0E4900A5DF09008C0F09008BCF0A31D
:103CC000F0A3F0A3F09008BAE020E003023ED0A3F6
:103CD000E0640170317B017A0879BC9009EE123200
:103CE000517A0879BE9009F11232517A0879C09060
:103CF00009F41232517A0809124137EF6401600366
:103D0000023ED6023EC89008BBE0640270327B01DE
:103D10007A0879BC9009EE1232517A0879BE90097E
:103D2000F11232517A0879C09009F41232517A08AE
:103D300079E9124137EF64016003023ED6023EC8C2
:103D40009008BBE0640370327B017A0879BC90096B
:103D5000EE1232517A0879BE9009F11232517A0886
:103D600079C09009F41232517A097911124137EF72
:103D700064016003023ED6023EC89008BBE0641FA7
:103D800070327B017A0879BC9009EE1232517A08C0
:103D900079BE9009F11232517A0879C09009F41273
:103DA00032517A097949124137EF64016003023ECA
:103DB000D6023EC89008BBE0642070327B017A08CE
:103DC00079BC9009EE1232517A0879BE9009F1124D
:103DD00032517A0879C09009F41232517A09798106
:103DE000124137EF64016003023ED6023EC89008DC
:103DF000BBE0642170327B017A0879BC9009EE1235
:103E000032517A0879BE9009F11232517A0879C09C
:103E10009009F41232517A097991124137EF640115
:103E20006003023ED6023EC89008BBE06422702EBA
:103E30007B017A0879BC9009EE1232517A0879BE7A
:103E40009009F11232517A0879C09009F412325176
:103E50007A0979A9124137EF6401707A806A900873
:103E6000BBE06423702E7B017A0879BC9009EE12C6
:103E700032517A0879BE9009F11232517A0879C02C
:103E80009009F41232517A0979B9124137EF64017D
:103E9000704480349008BBE06424703A7B017A0857
:103EA00079BC9009EE1232517A0879BE9009F1126C
:103EB00032517A0879C09009F41232517A0979D1D5
:103EC000124137EF6401700E9008BAE054FEF02200
:103ED000E4FDFF12716222E49009EBF0900004E02F
:103EE000C39405748094805003024131E0640860FB
:103EF00010900003E0D3942074809480500302401B
:103F000007E47F2C7E01FDFC900005123177C3127F
:103F100030F4401D9000051231F4000000007BFFDA
:103F20007A7479E5127134900003E004F0E0547F74
:103F3000F09001A8E06403600302413104F0E490D2
:103F400001ADF0A3F0900004E064086003023FD4E8
:103F50007BFF7A7479EF900A021232517B017A0169
:103F600079AF126C35EF60097BFF7A7479FA1271C0
:103F7000347BFF7A757902900A021232517B017A02
:103F80000179AF126C35EF60097BFF7A7479FA1210
:103F900071347BFF7A757918900A021232517B01D5
:103FA0007A0179AF126C35EF60097BFF7A7579334E
:103FB0001271347BFF7A757945900A021232517B77
:103FC000017A0179AF126C35EF60097BFF7A747961
:103FD000FA1271347BFF7A757959900A02123251C4
:103FE0007B017A0179AF126C35EF70030241319099
:103FF00009F01231F400000FA0E4FF12719E900945
:10400000EB7401F0024131E47F2C7E01FDFC900055
:1040100005123177C31230F440149000051231F4C8
:1040200000000000900003E004F0E0547FF09000F6
:1040300004E024FA60581470030240D9240260039B
:1040400002412B7BFF7A7579839009F21232517A03
:104050007579869009F51232519009F81231F40001
:104060000000647A7179349009FC1232517A7579C2
:1040700069125E95900021EFF06402600302413105
:104080009009F01231F400000FA07F0680467BFFFC
:104090007A7579839009F21232517A75798690098E
:1040A000F51232519009F81231F4000000647A716F
:1040B00079349009FC1232517A75798C125E9590A0
:1040C0000021EFF0640270699009F01231F40000F1
:1040D0000FA07F0712719E80587BFF7A75798390BD
:1040E00009F21232517A7579869009F5123251909F
:1040F00009F81231F4000000647A7179349009FCF7
:104100001232517A757933125E95900021EFF06486
:1041100002701E9009F01231F400000FA07F081207
:10412000719EE49001A9F0A3F0800690000474054C
:10413000F09009EBE0FF229009EB1232519009F464
:10414000123231122D38FEF470037F0122EE75F029
:1041500008A4FF9009EB123231E92FF9EA35F0FAA1
:10416000900004122EC5FDACF0E4122B887BCD7AB2
:10417000CC794C783E122A04C004C005C006C007A2
:104180009009EE123231122E9AFDACF0E4122B8817
:10419000A804A905AA06AB07D007D006D005D0040D
:1041A000122B0A40030242769009EB123231C0030F
:1041B000C002C0019009F4123231122D3875F00896
:1041C000A4F58285F083D001D002D0031231839010
:1041D00008B4E0FEA3E0FFE4FCFDC31230F460701D
:1041E0009009EB123231C003C002C0019009F412F1
:1041F0003231122D3875F008A4F58285F083D00194
:10420000D002D00312312BAD07AC069008B4ECF00D
:10421000A3EDF07F101270489009EB123231C00309
:10422000C002C0019009F4123231122D3875F00825
:10423000A4F58285F083D001D002D00312312B90F7
:1042400008B8EEF0A3EFF07D01E4FF127162802167
:104250009008B8E0FCA3E0FDE4122B88E4FBFAF937
:10426000783F122A04122BC1AD07AC067F02126CF4
:10427000759009EE806B9009F4123231122D387569
:10428000F008A4FF9009EB123231E92FF9EA35F07A
:10429000FA900006122EC5FDACF0E4122B887BCDFF
:1042A0007ACC794C783E122A04C004C005C006C0FE
:1042B000079009F1123231122E9AFDACF0E4122B64
:1042C00088A804A905AA06AB07D007D006D005D058
:1042D00004122B0A5018E4FDFC7F02126C75900941
:1042E000F1123231E475F001122EFD02438E900975
:1042F000F41232317401122D7E9009EE123231E443
:10430000F5F0122F829009F1123231E4F5F0122FFC
:10431000829009EB123231C003C002C0019009F44F
:10432000123231122D3875F008A4F58285F083D051
:1043300001D002D00312312B9008B8EEF0A3EFF0B9
:104340009009EB123231C003C002C0019009F4128F
:104350003231122D3875F008A4F58285F083D00132
:10436000D002D00312312B74FFFBFAF97800C3128C
:1043700030F4701A9009F412323174FF122DD3E424
:104380009008B4F0A3F0FDFF1271627F01227F005C
:1043900022900A64E07002A3E070557F807E337D36
:1043A000E17C01900A6A123177C31230F4501990FF
:1043B0000A6A12315BEF2401FFE43EFEE43DFDE4B6
:1043C0003CFC900A6A1231E87B807A5179017800CE
:1043D000900A6A12315B1230179009EBEEF0A3EFEE
:1043E000F0C374389FFF74049EFE7C047D388053B4
:1043F0007F807E337DE17C01900A66123177C312A3
:1044000030F45019900A6612315BEF2401FFE43E4C
:10441000FEE43DFDE43CFC900A661231E87B807AC4
:104420005179017800900A6612315B1230179009B9
:10443000EBEEF0A3EFF0C3746D9FFF74019EFE7C62
:10444000017D6D122E19EF75F064A4547FFF900A60
:1044500099E054804FF0900A64E07002A3E060039A
:104460000244EB900A5CE020E6030244EB7F747E9A
:10447000C27D037C00900A72123177C31230F4506F
:1044800019900A7212315BEF2401FFE43EFEE43D15
:10449000FDE43CFC900A721231E8900A7212315B22
:1044A000E4122B837B927A917933783D122A04129D
:1044B0002BC19009EBEEF0A3EFF0E4FCFD7B307A2A
:1044C0002AF9F8C31230F4500A9009EB742AF0A3C9
:1044D0007430F09009EBE0FEA3E0FFC374309FFF5F
:1044E000742A9EFE7C2A7D3002457F900A64E0702B
:1044F00004A3E064016003024592900A5CE020E6B8
:10450000030245927FC57E407D017C00900A6E12B9
:104510003177C31230F45019900A6E12315BEF24D8
:1045200001FFE43EFEE43DFDE43CFC900A6E1231E6
:10453000E89009EBE0FEA3E0FFE4FCFD7B107A0EBF
:10454000F9F8C31230F4500A9009EB740EF0A3741A
:1045500010F0900A6E12315BE4122B837B927A91F9
:104560007933783D122A04122BC19009EBEEF0A3A7
:10457000EFF0C374109FFF740E9EFE7C0E7D101230
:104580002E19EF75F064A4547FFF900A99E05480CF
:104590004FF0224404B0EDB88320410021004100D7
:1045A000A70041000300410B6100410B6700420B73
:1045B000680000420B620000410B6405420B65007D
:1045C00000602808C10000076C00C80078000009DE
:1045D0006000C8007800000B5400C8007800000D8F
:1045E0004800C804B000FFFFFFFFFFFFFF6028087E
:1045F000E900000D4800C8007800000B5400C80016
:10460000780000096000C800780000076C00C8044A
:10461000B000FFFFFFFFFFFFFF6038091100000F30
:104620009F017C026C00000F9F017C026C00000F58
:104630009F017C026C00000F9F017C026C00000F48
:104640009F017C026C00000F9F017C026C00FFFF49
:10465000FFFFFFFFFF6038094900000D48017C02A1
:104660006C00000D48017C026C00000D48017C02CA
:104670006C00000D48017C026C00000D48017C02BA
:104680006C00000D48017C026C00FFFFFFFFFFFF84
:10469000FF50098100000CE400C8026C00FFFFFF1E
:1046A000FFFFFFFF58099100000C1C05DC00000013
:1046B000000C4E01F4000000FFFFFFFFFFFFFF5062
:1046C00009A900000CE4017C026C00FFFFFFFFFF62
:1046D000FFFF5809B9000008FC017C026C000006CD
:1046E000A4017C026C00FFFFFFFFFFFFFF5809D110
:1046F000000006A4017C0064000008FC017C00644A
:1047000000FFFFFFFFFFFFFF4208B400004208B6B2
:1047100000004208B80000410B2E00410B7400411C
:104720000B7500410B7600410B7300480B4B603357
:1047300099909090D5FA580AD8E100E20FE326E468
:1047400037E502E600E7F9E8F9E9F9EA05EB01ECFB
:1047500003580AF0E100E20FE326E437E502E60041
:10476000E7F9E8F9E9F9EA05EB01EC03410B700020
:10477000410B2D00410AA800C10A440ACDAA555593
:10478000AA440AD400000000440AC9000000000046
:104790009009EB123251900004E014606014700331
:1047A00002484924FE7003024902240460030249BE
:1047B0004F7BFF7A7579A59009F21232517A75799B
:1047C000B49009F51232519009F81231F40000004A
:1047D000647A7179349009FC1232517A7479E51255
:1047E0005E95900021EFF06402600302494F90094A
:1047F000F01231F4000013887F010248FF7BFF7A3A
:104800007579839009F21232517A7579869009F59B
:104810001232519009F81231F4000000647A717973
:10482000349009FC1232517A7579BE125E9590006F
:1048300021EFF06402600302494F9009F01231F455
:10484000000013887F020248FF9000051231F40037
:104850000000009009EB123231122D3864037018F9
:10486000900003122EC545F0700E1228069009EB39
:104870001232317401122DD39009EB123231122D04
:1048800038640F700A04122DD390001C7403F0904A
:1048900009EB12323112383890001CEFF0640170CD
:1048A000389000A7E070101249509009EB12323195
:1048B0007404122DD3801F9009EB123231740F1241
:1048C0002DD3E49003AFF09009F01231F400002EE4
:1048D000E07F0412719E02280690001CE0640370C1
:1048E000129003AFF09009F01231F400002EE07F37
:1048F00004800C9009F01231F4000013887F02024A
:10490000719EE49009EEF09009EEE0C3940A748081
:10491000948050327BFF7A7579CE12713490000505
:104920001231F400000000E47FC8FEFDFC90000599
:10493000123177C31230F4500543CF1080E990094B
:10494000EEE004F080C1E4900004F0FF1271BE229A
:104950009009EF7403F0E4FF126CB59009F0123186
:10496000E89009F012315BE4FFFEFDEC54F0FCE44A
:10497000FBFAF97890C31230F45003024A289009E8
:10498000F012315BE4FFFEFDEC540FFCE47809C348
:104990001230F45003024A289009F012315BE4FF10
:1049A000FEED54F0FDE4FC7990F8C31230F4407849
:1049B0009009F012315BE4FFFEED540FFDE4FC7949
:1049C00009F8C31230F440609009F012315BE4FF43
:1049D000EE54F0FEE4FDFC7A90F9F8C31230F44096
:1049E000479009F012315BE4FFEE540FFEE4FDFC4A
:1049F0007A09F8C31230F4402F9009F012315BEFBE
:104A000054F0FFE4FEFDFC7B90FAF8C31230F44052
:104A1000179009F012315BEF540FFFE4FEFDFC7BB1
:104A200009F8C31230F4500A9009F01231F4000072
:104A300000007F01126CB59009F41231E81272582F
:104A400012723A900ACDE0FF900AB9E06F702C9094
:104A50000ACEE0FF900ABAE0B50720900ACFE0FF47
:104A6000900ABBE0B50714900AD0E0FF900ABCE0C2
:104A7000B507089009EF7401F080069009EF740300
:104A8000F09009EFE064017015A312315B9009F416
:104A9000123177D31230F440059009EF803F900A2D
:104AA000CDE0FF900AA9E06F702B900ACEE0FF9056
:104AB0000AAAE0B5071F900ACFE0FF900AABE0B565
:104AC0000713900AD0E0FF900AACE0B50707E49026
:104AD00009EFF0800B9009EFE0640170037402F0BD
:104AE0009009EFE0FD7C0070037F0122ED64024C31
:104AF0007012125DF0EF60037F0122125DF0EF6033
:104B0000037F01227F0022E0900B27FF75F0021245
:104B10003225E0FCA3E0FDEF900B1175F0020232AC
:104B200025F582E4340BF583E4F0742B2FF582E451
:104B3000340BF583E4F0900B19EF75F00202322587
:104B40009009ECE075F002900B19123225E0FCA3FD
:104B5000E0C39FEE6480F8EC648098229EFEC390D0
:104B600009EEE09FEE6480F89009EDE06480982201
:104B700074152FF582E4340BF583229009ECE0FFE5
:104B800075F002900B09023225F583E4F0FFFEFD7B
:104B9000FCAB15AA14A913A812C30230F49009EDB6
:104BA000E0FD900B2775F0020232259009F0E0FF3E
:104BB000C3951A22F583E004F0740D2FF582E434D6
:104BC0000B229009ECE02417F582E4340BF58322E4
:104BD0009009ECE0242BF582E4340BF58322900954
:104BE000EFE0C3940374809480227D0A122E19ADE5
:104BF000037C00122E079009F5E0FD900B0922902E
:104C000009ECE0FF241DF582E4340B22E0FCA3E074
:104C1000FD75F002EF900B27123225ECF0A3EDF0BA
:104C200022E5155519FFE5145518FEE5135517FD36
:104C3000E5125516229009F0E004F0227E00900B58
:104C40006CE0FCA3E0FD122E078EE78FE622E0FE6B
:104C5000A3E0C39DFFEE9C22900B26E0FF3395E07E
:104C6000FE22A4FFE0C39FE5F06480F874809822E0
:104C70009009EF7401F0229009ECE0FF240DF58219
:104C8000E4340B22900B26E0FB3395E0FAFEEB2296
:104C9000E0FF9009F1E0FEEFC39E229FEE6480F8F2
:104CA000EA648098229009EBE0FF900B6AE0229082
:104CB00009EB123251E49009EEF0A3F09009EB12E7
:104CC0003231900001122EC545F070239009FF1279
:104CD00031F40000FC007E92126B71900AC912310F
:104CE000F400000000900AD41231F400000000909B
:104CF00009EB123231900003122EC5FF9009EEE548
:104D0000F0F0A3EFF0900003122EC5FDACF0900080
:104D100001122EC5FFAEF0122E07C3EE94285003E9
:104D2000024E2E9009EB123231900003122EC5FD77
:104D3000ACF0900001122EC5FFAEF0122E07E4FC7D
:104D4000FDFB7A92F9F8D31230DE5003024E2E901A
:104D500009EB123231900003122EC5FDACF0900029
:104D600001122EC5FFAEF0122E07E4FCFDC006C0F6
:104D7000079009EB123231900003122EC5AEF0FB02
:104D8000E4C39BFB74929EFAE49400F9E49400F867
:104D9000D007D006C31230DE700B9009EE74FF7599
:104DA000F0F0122E6E9009EB123231900003122EA9
:104DB000C5FDACF0900001122EC5FFAEF0122E071B
:104DC000E42FFFEE34D8FE9000051232C99009EEB0
:104DD000E0FDA3E09009F5CDF0A3EDF012666BEFD6
:104DE00060459009EB1232319000051232C99009EA
:104DF000EEE0FEA3E0FFE4FCFD900A0B1231E89028
:104E00000AD4126398900AD41231E8900AC9123178
:104E1000779009EEE0FEA3E0FFE4FCFD122FCE90B8
:104E20000AC91231E88007E49009EEF0A3F0900976
:104E3000EEE0FEA3E0FF2212282E12280012289E88
:104E40007B017A0079A89009EE1232517BFF7A72C9
:104E50007993126B2FE4FF12740912701E125B908B
:104E600012620712748743CF10123ED77B017A0A71
:104E700079A0124790900AA3E07002A3E0602C1280
:104E800072E47B017A0A79A0124CAF9009E9EEF046
:104E9000A3EFF04E900AA060057403F08003740F36
:104EA000F0E4900AA3F0A3F0127352900AA0E06419
:104EB00004701A1272E41258F6EF700B12735290CB
:104EC0000AA0740FF08006127352122856900AA09E
:104ED000E0640F701A7B017A0079A89009EE123213
:104EE000517BFF7A727993126B2FE4FF1274099051
:104EF0000B23E030E771547FF01251E7900B5B1207
:104F000031E8E4FFFEFDFC900B5B123177D31230E9
:104F1000F4404A900A58E054FBF0900B5B12315B6E
:104F2000EF5402FFE4FEFDFCEF6007900A58E044F6
:104F300001F0900B5B12315B7808123105900B5B2E
:104F40001231E8900B5B12315BEF5440FFE4FEFD41
:104F5000FCEF6010900A58E04402F08007900A5875
:104F6000E04404F0122836126EC4E5B720E50B9039
:104F70000B5FE0645A6003024E66900B5FE054A53D
:104F8000F0126A04900A5AE04402F0024E66900958
:104F9000EBEFF0900B70124BE1403EE4F0900B2DE4
:104FA000E0702B9009ECF09009ECE0C3951A501ECC
:104FB000E0FF124BA2E0FCA3E0FD75F002EF124B04
:104FC00083ECF0A3EDF09009ECE004F080D9126DD1
:104FD000A4C209E4900B2DF022900B6AE004F012B9
:104FE0004CA5B5070812738BE4900B6BF0124CA51F
:104FF000D39F50030250BFE49009ECF09009ECE01D
:10500000C3951A507A124B07124C4EAD07FC900B09
:105010002DE0702E124C847802C333CE33CED8F9F3
:10502000FFD3ED124B524046E49BFFE49AFEEF782B
:1050300002C333CE33CED8F9FFC3ED124B52502EFC
:10504000803D124C847803C333CE33CED8F9FFD3DE
:10505000ED124B524018E49BFFE49AFEEF7803C335
:1050600033CE33CED8F9FFC3ED124B524011900925
:10507000ECE0FF1258069009ECE004F0024FFC90BF
:1050800009ECE0B51A06900B6BE004F09009EBE038
:10509000FD75F008900B6A124C624023E4F0C208E0
:1050A000900B70E004F0ED75F004900B6B124C6205
:1050B000400DE4900B70F01271DE126DA4C2092253
:1050C000900A5AE030E6030251E6900A58E030E4D4
:1050D00015900A5AE020E20EE4900B64F0900A5A10
:1050E000E04404F0C2DB900B64E01233525106003E
:1050F000511B01513F02515703516E045196055106
:10510000BA06000051E6D2C2900B647401F0900A16
:105110005BE04480F0A3E04440F022900B65E4752E
:10512000F001122E6ED3900B66E09409900B65E0AF
:10513000940050030251E6E4F0A3F0D2C0807490D2
:105140000A58E030E4030251E6900B64E004F0906A
:105150000A5BE0547FF022C2C2E4900B65F0A3F03A
:10516000900B64E004F0900A5AE054FBF022900B9C
:1051700065E475F001122E6ED3900B66E0940990F1
:105180000B65E09400405FE4F0A3F0C2C0900A5CBD
:10519000E054BFF0801D900B65E475F001122E6E97
:1051A000D3900B66E09470900B65E094174037E461
:1051B000F0A3F0900B64E004F022D3900B66E0942F
:1051C000B0900B65E094044010E4F0A3F0900B6401
:1051D0007405F0C2DBC2C08004D2DBD2C0900A5892
:1051E000E030E402C2DB22E4F509F511F510F50F19
:1051F000F50E12283E50030252FA126F968F0D8E52
:105200000C8D0B8C0AE4F508E508C3951A504CAFD9
:105210000DAE0CAD0BAC0A78011231058F0D8E0C62
:105220008D0B8C0A30D730E47F01FEFDFC740F2516
:1052300008F582E4340BF583E0F9F8123118E51132
:105240004FFFE5104EFEE50F4DFDE50E4C8F118E24
:10525000108D0FF50E0509050880ADAF097E00C35E
:10526000EF9402748094804018D208EF9403748005
:105270009480400512284680081274B6EF6002C27E
:1052800008200828E4FFFEFDFCAB11AA10A90FA816
:105290000EC31230F4600C900B24E475F001122E52
:1052A0006E801CE4900B24F0A3F08013900B21E49B
:1052B00075F001122E6EE4F511F510F50FF50E12D2
:1052C0007451D3900B25E09F900B24E09E400A126E
:1052D0002846E4900B24F0A3F0D3900B22E0942C0A
:1052E000900B21E09401401D122846900B2D740173
:1052F000F0E4900B21F0A3F0800B9075EDE47401C5
:1053000093FF124F8EAF11AE10AD0FAC0E22900A6C
:105310002D1231E8900A32E5F4F0A2AFE433A3F0A5
:10532000AFDFA3E4F0A3EFF0C2AFE4FFFE7D01FC2A
:10533000900A2DE0F8A3E0F9A3E0FAA3E0FBC31282
:1053400030F440787F007E807D017C00900A2DE063
:10535000F8A3A3A3E01230F4501DE5DF54CF44209E
:10536000F5DF900A2DE0FCA3E0FDA3E0FEA3E0241E
:1053700000FFEE34808034E4FFFE7D02FC900A2DB5
:10538000E0F8A3E0F9A3E0FAA3E0FBC31230F45085
:1053900033E5DF54CF4430F5DF900A2DE0FCA3E085
:1053A000FDA3E0FEA3E02400FFE43EFEED34FFFD9C
:1053B000EC34FFFC900A2D1231E88008E5DF54CF71
:1053C0004410F5DFE4F5F4900A31E0F5F5900A2D8C
:1053D000E0FCA3E0FDA3E0FEA3E0FF7808123105A6
:1053E0008FF3900A2DA3A3A3E0F5F275F1F075F603
:1053F0001043F6020000000080050000000000904D
:105400000A32E0F5F4900A34A3E0F5DF900A33E0C5
:1054100024FF92AF22900A071231F400000000909E
:105420000A0C1231F400000000E4FF7E01FDFC9044
:105430000A0C123177C31230F44003025518900A57
:10544000071231F400000000900A0B7401F0900A7A
:105450000BE070030254DA900A0712315BEF54013B
:10546000FFE4FEFDFCFBFAF9F8C31230F4900A07E2
:10547000601F12315B7801123105900A071231E882
:10548000900A0712315B9004B01231771230B68067
:105490000812315B7801123105900A071231E89049
:1054A0000A0BE0FFE4FCFDFEA31231771230A9E401
:1054B000FBFAF9F8C31230F46015900A0712315B59
:1054C0009004B01231771230B6900A071231E8908A
:1054D0000A0BE0FF25E0F002544E900A0712315B00
:1054E000900A0C1231779004B475F004EB12322557
:1054F000EA25E025E02583F5831231E8900A0C12B5
:10550000315BEF2401FFE43EFEE43DFDE43CFC9012
:105510000A0C1231E802542922900A0D1231E89047
:105520000A11E5F4F0A2AFE433A3F0AFDFA3E4F097
:10553000A3EFF0C2AFE4FFFE7D01FC900A0DE0F89E
:10554000A3E0F9A3E0FAA3E0FBC31230F440787FB4
:10555000007E807D017C00900A0DE0F8A3A3A3E00B
:105560001230F4501DE5DF54CF4420F5DF900A0DD2
:10557000E0FCA3E0FDA3E0FEA3E02400FFEE348006
:105580008034E4FFFE7D02FC900A0DE0F8A3E0F910
:10559000A3E0FAA3E0FBC31230F45033E5DF54CFAD
:1055A0004430F5DF900A0DE0FCA3E0FDA3E0FEA38C
:1055B000E02400FFE43EFEED34FFFDEC34FFFC9000
:1055C0000A0D1231E88008E5DF54CF4410F5DFE41E
:1055D000F5F4900A0DE0FCA3E0FDA3E0FEA3E0FFDC
:1055E00078081231058FF3900A0DA3A3A3E0F5F21A
:1055F00075F1F075F62043F602000000008005000A
:1056000000000000900A11E0F5F4900A13A3E0F501
:10561000DF900A12E024FF92AF22C0E0C0F0C08306
:10562000C082C0D075D000C000C001C002C003C09D
:1056300004C005C006C0077F007E831274D6126FB7
:10564000C5900A8AE475F001122E6E900A8CE0046F
:10565000F0A3E004F0A3E004F0A3E004F0A3E0046E
:10566000F0E075F00384E5F0700C900A61E04420EE
:10567000F0900A90E4F0900A8FE075F00584E5F070
:10568000700C900A61E04410F0900A8FE4F0900AE8
:105690008EE075F01484E5F0700C900A61E044022D
:1056A000F0900A8EE4F0900A8DE075F03284E5F017
:1056B000700C900A61E04404F0900A8DE4F0900AC6
:1056C0008AE0FEA3E0FF7C037DE8122E19ED4C700A
:1056D0000E900A61E04408F0900A8AE4F0A3F0908A
:1056E0000A8CE075F06484E5F0700C900A61E04487
:1056F00001F0900A8CE4F0126AE8D007D006D005D9
:10570000D004D003D002D001D000D0D0D082D0833A
:10571000D0F0D0E032C0E0C0F0C083C082C0D0750D
:10572000D000C000C001C002C003C004C005C00654
:10573000C00753B7BFE5B720E5030257EBC2AFE49C
:10574000FB7D04FF125AB9E4FB7D10FF125AB9E445
:10575000FB7D087F04125AB9E4FB7D047F04125AD2
:10576000B9E4FB7D027F04125AB9E4FB7D807F031C
:10577000125AB9E4FB7D207F03125AB9E4FB7D1075
:105780007F03125AB9E4FB7D087F03125AB9E4FB88
:105790007D047F03125AB9E4FB7D027F03125AB9DC
:1057A000E4FB7D017F01125AB9E4FB7D047F011205
:1057B0005AB9E4FB7D107F01125AB9E4FB7D207FCA
:1057C00002125AB9E4FB7D407F02125AB9E4FB7D14
:1057D000807F02125AB9E4FB7D01FF125AB9E4FB43
:1057E0007D02FF125AB9126A04D2AFD007D006D098
:1057F00005D004D003D002D001D000D0D0D082D0C8
:1058000083D0F0D0E0329009EDEFF0F9124B07129F
:105810004C4E9009EEF0A3EFF0AF01126FF2AD071E
:10582000AC069009EEE0FEA3E0FFD39DEC6480F8A7
:10583000EE6480985014C3E49DFBE49CFAC3EF9B94
:10584000EA6480F8EE648098500E9009EDE0FF1253
:105850004B18124C0C0258EAECA2E713FEED13FFB2
:105860009009EEE0FAA3E0FBD3124C9B5016ECA299
:10587000E713FEED13FFC3E49FFFE49EFEC3EB12AC
:105880004C9B5023124B9DE0FAA3E0FBEAC313FEAE
:10589000EB13FFC3EB9FFBEA9EFAED124B18E0C33C
:1058A00013FEA3E0138032124B9DE0FAA3E0FBAE9F
:1058B000027803CEC313CE13D8F9FFC3EB9FFBEAE4
:1058C0009EFA75F002ED900B11123225E0FEA3E076
:1058D0007803CEC313CE13D8F92BFFEA3EFE90090E
:1058E000EDE0124BA2EEF0A3EFF09009ED124B07A2
:1058F000ECF0A3EDF0229009FB1231F4000000005F
:105900009009FF1231F400000000900AC912315BC7
:105910009009FF123177C31230F4505543CF1090E5
:1059200009FF12315BE42FFFEE3492FEE43DFDE40B
:105930003CFC1274C6900A03EFF07B017A0A7903EB
:10594000900A0B1231F4000000019009FB126398D9
:105950009009FB1231E89009FF12315BEF2401FF3F
:10596000E43EFEE43DFDE43CFC9009FF1231E8809A
:1059700099900AD412315B9009FB123177C312302F
:10598000F4705B900AC912315B9009EF1231E89014
:105990000AD412315B9009F31231E8900ACDE090FD
:1059A00009EBF0900ACEE09009ECF0900ACFE0907D
:1059B00009EDF0900AD0E09009EEF09009F712316D
:1059C000F4A55A0FF078047C0A7D017B017A0979ED
:1059D000EB7E007F10122D1212717D7F01227F005D
:1059E00022900A99E0FF547FFDC39D5004EF547F3D
:1059F000FD900A64E07002A3E0705FEDFB7A00C3E3
:105A0000940174809480500C900A5BE04402F0E0B2
:105A100054DFF022C3EB9403EA64809480502F900B
:105A20000B61E0C3940574809480900A5BE050049D
:105A30004402800254FDF0E054DFF0900B61E0047A
:105A4000F0E0C3940A74809480406DE4F022900AE0
:105A50005BE054FDF0E04420F022EDFB7A00C394BB
:105A60000374809480500C900A5BE04401F0E05491
:105A7000EFF022C3EB940AEA64809480502F900BDD
:105A800061E0C3940574809480900A5BE050044404
:105A900001800254FEF0E054EFF0900B61E004F05E
:105AA000E0C3940A74809480400EE4F022900A5B74
:105AB000E054FEF0E04410F022EF14603A14605815
:105AC000146073147003025B54147003025B72243D
:105AD000056003025B8FEB146011146016240260F2
:105AE00003025B8FEDF4529A529B22EDF4529AED31
:105AF000429B22ED429A22EB14601114601624029C
:105B00006003025B8FEDF45291529222EDF45291B8
:105B1000ED429222ED429122EB14600E14601324A8
:105B200002706CEDF452A152A222EDF452A1ED42AA
:105B3000A222ED42A122EB14600E14601324027025
:105B40004EEDF452B152B222EDF452B1ED42B22216
:105B5000ED42B122EB14600E14601324027030ED9C
:105B6000F452C152C222EDF452C1ED42C222ED42C2
:105B7000C122EB14600E14601324027012EDF45273
:105B8000D952DA22EDF452D9ED42DA22ED42D9228D
:105B9000900A9B1232319009F37414F0A37402F04E
:105BA0007F007E007D007C00126314EF701B900A62
:105BB0009B1232319009F37414F0A37402F07F0049
:105BC0007E007D007C00126314900A9B123231909B
:105BD0000002122EC5C394FFE5F094FF500C900A0A
:105BE00098E054FDF0E4FFFE8057900A9B1232319A
:105BF0009009F37414F0A37402F07F00FE7D007C22
:105C000000126314EF701A900A9B1232319009F35C
:105C10007414F0A37402F07F00FE7D007C00126318
:105C200014900A9B123231900002122EC5C394FFC9
:105C3000E5F094FF900A98E0500A4402F07F007E5D
:105C40000202673E54FDF07F007E0212673E7E0036
:105C50007F147D00900A9B12323112337E900A5AD3
:105C6000E04440F0227B027D04E4FF125AB97B023B
:105C70007D10E4FF125AB97B017D20E4FF125AB96E
:105C80007B027D087F05125AB97B027D087F0412D2
:105C90005AB97B027D047F04125AB97B027D027FD0
:105CA00004125AB97B027D807F03125AB97B027DB0
:105CB000207F03125AB97B027D107F03125AB97BF1
:105CC000027D087F03125AB97B027D047F03125ABA
:105CD000B97B027D027F03125AB97B027D017F01ED
:105CE000125AB97B027D047F01125AB97B027D10E2
:105CF0007F01125AB97B027D207F02125AB97B02C2
:105D00007D407F02125AB97B027D807F02125AB910
:105D10007B027D01E4FF125AB97B027D02E4FF128F
:105D20005AB9D280C281D294C2A5D2A6C2A7D284C7
:105D3000C282229009EB1231E8E598542FFF9009B6
:105D4000F3E0FE4FFF9009F5E04FF598EE702AFF63
:105D5000FEFDFC9009EF123177C31230F47004534A
:105D600098DF22E47F01FEFDFC9009EF123177C33A
:105D70001230F4707A43982022E5C854CFFF90097E
:105D8000F4E0FE4FF5C8EE702E9009EF12317790D7
:105D900009EB12315B123017E4FB7A01F9F812308B
:105DA000178F8D9009EF1231779009EB12315B124A
:105DB00030178F8BC28E229009F4E06430703075FA
:105DC000CE029009EF1231779009EB12315B12305D
:105DD00017E4FB7A01F9F81230178FCB9009EF1214
:105DE00031779009EB12315B1230178FCAD2CA2279
:105DF000E49009F8F0A3F0A3F01272589009FF1292
:105E000031F4000092007E28126B71E49009F8F0E2
:105E1000A3F09009F8E0FEA3E0FFE4FCFD900ABDCA
:105E2000123177D31230F4404B43CF109009F8E091
:105E3000FEA3E0FFE42FFFEE3492FEE433FDE433F3
:105E4000FC1274C69009FAEFF0FB9009F9E0240007
:105E5000FF9009F8E03428FEE4FCFD900A23EBF003
:105E60001273AFEF7002FF229009F8E475F001128F
:105E70002E6E809E900A18E4F0A37410F07B017AD5
:105E80000A79B9A31232517FF07E917D007C001215
:105E900066D77F01229001A8E06027E064036022BA
:105EA000C003C002C0019009FC12323189828A838A
:105EB000D001D002D00312337CE49001A8F0A3F00B
:105EC000A3F09001A8E0640370439001ADF0A3F04B
:105ED0009001A804F09009F2123231900A021232B5
:105EE000517B017A0179AF126C35EF60037F02229A
:105EF0009009F5123231900A021232517B017A0177
:105F000079AF126C35EF7F0060287F03229001A9E2
:105F1000E0FEA3E0FFE4FCFD9009F8123177C31224
:105F200030F4500CE49001A9F0A3F09001A804F023
:105F30007F0022900A58E030E20CE4900B76F0905B
:105F40000A58E054FEF0900A58E030E008900B76D2
:105F5000E004F08014900B76E0D394C874809480B1
:105F6000506D900A58E030E066900B76E0FD7C00C2
:105F7000643C702B900A5DE04402F0900A5BE054B0
:105F8000FEF0E054FDF0E054FBF0E054F7F0E044A4
:105F900010F0E04420F0E04440F0E04480F022EDD6
:105FA00064644C702A900A5DE04404F0900A5BE05F
:105FB0004401F0E04402F0E04404F0E04408F0E082
:105FC00054EFF0E054DFF0E054BFF0E0547FF022F3
:105FD000900A9B123231900A3B7414F0E4FFFE9059
:105FE0000A36EEF0A3EFF0900A3D123251E4900A27
:105FF0003CF0900A3CE0C394147480948050639009
:106000000A3CE0FF900A37E02FFF900A36E03400A8
:10601000FE900A3D123231900A3CE0F58275830011
:10602000122D51FD12299A900A3CE0FF900A37E0A8
:106030002FFF900A36E03400FEE4FCFD900A447421
:1060400002F0126F66900A3D123231900A3CE0F580
:1060500082758300122D51B507A5900A3CE004F02B
:1060600080907F0122900A5BE07005C2B3C2B52226
:10607000D2B7D2B4D2B2D2B1900A5BE020E40CE045
:1060800020E508E020E604E030E728D2B3900A5B80
:10609000E030E402C2B7900A5BE030E502C2B4909F
:1060A0000A5BE030E602C2B2900A5BE030E706C26B
:1060B000B18002C2B3900A5BE020E00CE020E1086E
:1060C000E020E204E030E327D2B5900A5BE030E064
:1060D00002C2B7900A5BE030E102C2B4900A5BE012
:1060E00030E202C2B2900A5BE030E305C2B122C2E4
:1060F000B522C2AF75FEC1AFFFD2AFEF5430FD7C09
:106100000070047920801CED64104C7004791080BC
:1061100012ED64204C700479088008ED64304C70F6
:10612000027904E924F8601824F8602024F060283B
:10613000241C70309009ED7401F0A374F4F08026F3
:106140009009ED7403F0A374E8F0801A9009ED74DF
:1061500007F0A374D0F0800E9009ED740FF0A374D3
:10616000A0F08002E4F99009EDE07002A3E0600C79
:106170009009ED74FFF5F0122E6E80EA22900A5815
:10618000E030E263900B75E0FFD39400748094805C
:106190004049EF940A748094805040900A5CE0304B
:1061A000E409E030E505E054DF802B900A5CE03044
:1061B000E509E020E405E054DF800E900A5CE03061
:1061C000E40EE020E50AE04420F0E04410F0800B0B
:1061D000900A5CE04420F0E054EFF0E4900B75F09E
:1061E000900A58E054FDF0900A58E030E107900B17
:1061F00075E004F022900B75E0D394C8748094800D
:106200005004900A58E02275FE8543FF2053DB7F3F
:10621000D2AFC209E4900B71F0900B23F0126A52D6
:10622000E4FF126F34EF2401FDE433FC7E0F7FA006
:10623000122E19900B6CEEF0A3EFF0E4FF12739D99
:10624000124C3C7F02126F34EFC454F0FEC006E4DF
:10625000FF126F34D0E02FF5E17F03126F34E5E2D7
:1062600054804FF5E27F04126F34EF6008E5E2548A
:10627000804480F5E27F01126F348FE3126DA443F6
:10628000A910900B0FE04480F5E812649B0271DEC8
:106290009009F7EEF0A3EFF0A31232519009FC74CD
:1062A000FF1231B5EC4D4E4F60619009F9E475F085
:1062B0000112323A122D38FE9009F7E06EF0A3E099
:1062C000F0E4900A00F0900A00E0C394087480940F
:1062D0008050C99009F7E0FEA3E0FFEE30E717EF2A
:1062E00025E0FFEE336410FEEF6421FF9009F7EE26
:1062F000F0A3EFF0800D9009F8E025E0F09009F7A9
:10630000E033F0900A00E004F080BB9009F7E0FE73
:10631000A3E0FF229009EC1231E89009F01232510B
:106320009009F7E5F4F0A2AFE4339009F6F0E060ED
:1063300002C2AF9009F4E0F5F4E4A3F09009EC1286
:10634000315B8F828E83E493FF9009F0123231909B
:1063500009F5E0F582758300EF122DE59009EC1246
:10636000315BEF2401FFE43EFEE43DFDE43CFC90A4
:1063700009EC1231E89009F3E0FF9009F5E004F030
:10638000C39F40B89009F7E0F5F49009F6E0600289
:10639000D2AF9009F5E0FF2212315B900A0412316E
:1063A000E8900A08123251900A0F1231F4000000EE
:1063B00000900A0B12315B900A0F123177C3123032
:1063C000F45052900A04123177C000C001C002C0DC
:1063D00003900A0F12315B900A081232318F828EBD
:1063E00083122D51FFE4FCFDFED003D002D001D07A
:1063F00000122FCE900A041231E8900A0F12315B7E
:10640000EF2401FFE43EFEE43DFDE43CFC900A0F76
:106410001231E8809C900A0402315B9009F5EFF09C
:106420001274449009F6EFF0126490900B6DE02521
:10643000E0FF900B6CE033FE7C00124BEA124B1B2A
:10644000E0FAA3E0C39FEA9E50099009F6E0603F9E
:1064500014802D126490900B6CE0FEA3E0FF7C0092
:106460007D07122E07124BEA124B3AE0FAA3E0D353
:106470009FEA9E401A9009F6E0FF647E6011EF04E7
:10648000FF741F2DF582E4340BF583EFF0D209225F
:106490009009F5E0FF12739DEFFB229009EB742049
:1064A000F012710FE49009ECF09009ECE0FFC39555
:1064B0001A5021E0FE124B18E0FCA3E0FD75F0023B
:1064C000EE124B83ECF0A3EDF012641B9009ECE0AC
:1064D00004F080D59009EBE0FF14F0EF70C3127365
:1064E0008B1274AE9009EBEFF012710FE49009EC8F
:1064F000F09009ECE0FFC3951A500B125806900972
:10650000ECE004F080EB9009EBE0FF14F0EF70D9C1
:10651000229009FB123251900A021231E8125415EE
:106520009009FE74FF1231B5EC4D4E4F6052900A47
:106530000212315B900A06EFF0900A0212315B788A
:1065400008123105900A021231E8900A0212315BFA
:106550009009FB123231122D38FB900A06E06B7560
:10656000F0049004B41232251231771230B6900A3A
:10657000021231E89009FCE475F001122E6E80A041
:10658000900A0202315B900A241231E8900A2BE54E
:10659000F4F0A2AFE433A3F0E06002C2AFE4900AEB
:1065A0002AF0900A29E07013900A2412315B900AB5
:1065B00028E0900A31F012530E8016900A29E06408
:1065C00002700E900A2412315B900A28E0FD122915
:1065D0009A900A2412315B900A29E0900A44F01242
:1065E0006F66900A2BE0F5F4A3E06002D2AF900A48
:1065F00028E06F7F0160027F0022900A58E030E6B9
:1066000009E054BFF07F02126855900A61E030E55E
:1066100009E054DFF07F13126855900A61E030E41E
:1066200009E054EFF07F14126855900A61E030E100
:1066300009E054FDF07F15126855900A61E030E2E0
:1066400009E054FBF07F16126855900A61E030E0D3
:1066500009E054FEF07F17126855900A61E030E3BC
:1066600009E054F7F07F18126855229009F0EEF017
:10667000A3EFF0A31232519009F5E0FEA3E0FF90E2
:1066800009F1E02FFF9009F0E03EFEE4FCFD7BF015
:106690007A69F9F8C31230DE50037F00229009F0C6
:1066A000E0FEA3E0FFE42FFFEE3492FEE433FDE4CE
:1066B00033FC9009F5E0FBA3E0900A18CBF0A3EBC4
:1066C000F09009F2123231900A1A1232511266D742
:1066D000EF7F017001FF22900A141231E8E4900A62
:1066E0001DF0A3F0900A18E0FCA3E0FD900A1DE065
:1066F000FEA3E0FFC39DEC6480F8EE648098503BFD
:10670000EE3395E0FDFC900A14123177122FCE90F3
:106710000A1A123231900A1DE0F8A3E0F58288834C
:10672000122D51900A23F01273AFEF7002FF2290E6
:106730000A1DE475F001122E6E80A97F0122AD07BB
:10674000AC06900A0DE5F4F0A2AFE433A3F0AFDF9E
:10675000A3E4F0A3EFF0C2AF75F402ECF5F3AF05DC
:106760008FF2AFF3EFFEADF27C00E42DEC3EC3946C
:1067700018501475F1F075F62043F6020000000081
:1067800080050000000000900A0DE0F5F4900A0F6B
:10679000A3E0F5DF900A0EE024FF92AF229009FCFF
:1067A0001231E8E4900A05F0A3F0900A00E0FCA39F
:1067B000E0FD900A05E0FEA3E0FFC39DEC6480F8D5
:1067C000EE6480985033EE3395E0FDFC9009FC12A6
:1067D0003177122FCE1274C6900A02123231900A0B
:1067E00005E0FCA3E0F5828C83EF122DE5900A050D
:1067F000E475F001122E6E80B122C20B900B71E095
:10680000124B18E5E5F0A3E5E4F0900B71E004F01D
:10681000E0C3951A400BE4F0900B23E04480F08035
:1068200002D20B900B71E0FF12739D124C3C900B47
:1068300071E0FF127444E5E254804FF5E2900B7171
:10684000E0240FF582E4340BF583E04480F5E83072
:106850000B02D2EE22900A56E0C394147480948006
:106860004002E4F0E4FE900A56E0FDEED39D502A8B
:1068700074762EF582E4340AF583E0B50719FB64DB
:10688000156014EB6416600FEB6417600AEB641874
:106890006005EB641470150E80CC74762DF582E4DF
:1068A000340AF583EFF0900A56E004F022900019C4
:1068B000123231900015E0FCA3E0F5828C83EF12D8
:1068C0002DE5900015E475F001122E6E900017E48E
:1068D00075F001122E6E900019123231122D38FF10
:1068E00064186005EF64047007E4900015F0A3F0ED
:1068F000C3900016E09485900015E094004004E4F5
:10690000F0A3F022E4F509F50A750E02750D40F5C5
:106910000CF50BF509C3E509941F7480948050377A
:10692000AF0EAE0DAD0CAC0B78011231058F0E8E93
:106930000D8D0C8C0B30D71B740F250AF582E434B7
:106940000BF583E509F0050AC3E50A940274809407
:10695000805004050980BE850A1A22900A57E0FE7D
:10696000C3941474809480400FE4F0E02476F582A0
:10697000E4340AF583E0FF22900A56E0FDEEC39D61
:10698000400AE4A3F0900A56F07FFF22900A57E0F5
:10699000FE2476F582E4340AF583E0FF74762EF562
:1069A00082E4340AF58374FFF0900A57E004F02281
:1069B000EF24FE601114602014603324047044AF8F
:1069C00005AD030272FDED7004C2AD8002D2ADEBE5
:1069D0007003C2BD22D2BD22ED700553A9BF800352
:1069E00043A940EB700453B9BF2243B94022ED7074
:1069F0000553A97F800343A980EB700453B97F221C
:106A000043B98022900A98E020E12A900A9B123232
:106A100031900002E475F001122F35125FD6EF704D
:106A200030125FD0EF702A125FD0EF7024900A9B73
:106A3000123231800F900A9B123231900002E4F53D
:106A4000F0122FA1900A3B7414F07F007E02125FB7
:106A5000DF229075E3740193900B08F09075FD743C
:106A60000193900B26F0126904E4F508E508C3953C
:106A70001A5023E50875F008A42403F582E434765F
:106A8000F583E493FF741F2508F582E4340BF58346
:106A9000EFF0050880D6E4900B24F0A3F022EF5429
:106AA000F0FC7028ED64017011EF540FFFF87401D1
:106AB000088002C333D8FC42D322EF540FFFF8748E
:106AC00001088002C333D8FCF452D322ECC4540F23
:106AD000F5CEEF7E1030E0027E20ED64017004EE12
:106AE00042C922EEF452C922900B2EE004F0E024B9
:106AF000FE600D14601524FB600424077021801CC7
:106B00007D017F01126EFC43AD4022127313AC066F
:106B1000AD07E4122B88900A4A0231E802280E9051
:106B20000B2EE0C3940A748094804002E4F022901B
:106B300009EB1232519091F0E4939009F1F0902A10
:106B4000001231679009F1E02FF0900AA07401F073
:106B5000E4A3F0A3F0A3F0A3F09009EE1232319079
:106B60000AA51232519009EB123231900AD1023249
:106B7000517F007D007C0080319009FF12315B90D5
:106B800009FB123177C31230F4502743CF1090091C
:106B9000FB12315B1272769009FB12315BE42FFF1E
:106BA000EE3402FEE43DFDE43CFC9009FB1231E8CA
:106BB00080C722C0E0C0F0C083C082C0D075D000C2
:106BC000C000C001C002C003C004C005C006C007A9
:106BD0001271FD5398FD5398FED007D006D005D012
:106BE00004D003D002D001D000D0D0D082D083D046
:106BF000F0D0E0329009EBECF0A3EDF0EF1460156B
:106C000014601D1460232403702A9009EBE0FEA396
:106C1000E0FF0273D39009EBE0FEA3E0FF027428CB
:106C20009009EBA3E0FF0274729009EBA3E0FFADC3
:106C30000312749B229009FF123251E4FFFE900A66
:106C400002123231122D3860299009FF1232310FB1
:106C5000EFAC0670010E14F5828C83122D51FD905D
:106C60000A02E475F00112323A122D386D60CF7FBE
:106C700000227F01229009F7ECF0A3EDF0EF54F031
:106C8000701753D2FD9009F7E0FCA3E0FDEF25E07B
:106C90002440F582E4342080149009F7E0FCA3E05E
:106CA000FDEF540F25E02434F582E43420F583EC25
:106CB000F0A3EDF022EF900A006016E4F0A3740454
:106CC000F07B017A0979F8A31232517F007E94801B
:106CD00014E4F0A37404F07B017A0979F8A312326A
:106CE000517F007E2A7D007C0012679D9009F8028A
:106CF000315B20850C900A58E020E305E04408F061
:106D00002220851E900A58E030E3170000000000A2
:106D10000000000000208505E04410F022900A5891
:106D20008007900A58E054EFF0E054F7F0227B011E
:106D30007D017F02125AB97B017D027F02125AB98E
:106D40009009EF1231F40001C2009009F37440F091
:106D5000E4A3F0A37410F07F007E487DE87C01126C
:106D60005D33E4FD7F010273F7E4FD7F1012285EBE
:106D70007D017F027E001273787D017F087E001204
:106D800073787D017F407E001273787D017F807E65
:106D9000001273787D017F01126EFCD2AEC2BE7FFD
:106DA00001027467E4FFEFC3951A501A124B70E4A6
:106DB000F0741D2F124B21E4F0A3F074172F124B27
:106DC000C8E4F00F80E0E4F515F514F513F5129022
:106DD0000B6B74FFF0E4900B6EF0A3F0C20922C0BD
:106DE000E0C0F0C083C082C0D075D000C000C00138
:106DF000C002C003C004C005C006C0071267FAD0B5
:106E000007D006D005D004D003D002D001D000D0E6
:106E1000D0D082D083D0F0D0E0329001ADE0FCA39E
:106E2000E024AFF58274013CF583EFF09001ADE40E
:106E300075F001122E6ED39001AEE094009001AD7A
:106E4000E094024004E4F0A3F0EFB40D069001A832
:106E50007403F0227D9F7C0F7F101270487B01E449
:106E6000FDFC7F02127365E4FF12733EE4FDFF1226
:106E7000741AE49009EEF0FB7D20FF1273C1E4FB6D
:106E8000FDFF1269B07D01E4FF027162900A5AE0D1
:106E900030E630900B62E475F001122E6ED2C2D251
:106EA000C0D2C1D2C3D3900B63E09484900B62E054
:106EB0009403400FC2C2C2C0C2C1C2C3900A5AE00A
:106EC0004440F0221265FA12695BEF24EC60112451
:106ED000FE601014601914601C2405701E026065A9
:106EE000023C0812617D125F33126CF20250C01234
:106EF00072CA0259E1124391126E8C22AC07ECC3A4
:106F0000941F7480948050247E007401A80408802B
:106F100005C333CE33CED8F9FFED700AEFF452AB90
:106F2000EEF452AC8006EF42ABEE42ACE5AD54E07D
:106F30004CF5AD22EF146012146014146018146044
:106F40001A2404701E9075FF8008907600800390CC
:106F50007601E493FF22E4FF0274449075F174011A
:106F600093FF227F0022900A401231E8ABF4A2AFD7
:106F7000E433FA6002C2AF900A44E0F5F4900A40AC
:106F800012315B8F828E83E493FFAE038EF4AE02E8
:106F9000EA6002D2AF22E4900B72F09009EBF0901D
:106FA00009EBE0FFC3951A50131258069009EBE065
:106FB000FF12341C9009EBE004F080E3AF15AE142F
:106FC000AD13AC122290000512315BEF2401FFE4F7
:106FD0003EFEE43DFDE43CFC9000051231E89000EB
:106FE00013E475F001122E6E9001A9E475F0010210
:106FF0002E6EAD07ED75F008A42405F582E4347615
:10700000F583E493FEED75F008A42406F582E434DC
:1070100076F583E4937C002400FFEC3EFE227E00A4
:107020007F057D007B017A0A795812337E7E007FCE
:10703000147D007B017A0A796212337E7B017A0A21
:107040007962900A9B023251AB07EB540FFA701928
:10705000ED1D70011CEB54F0FFE5D254CF4FF5D27B
:10706000ECF5D5AF05EFF5D4228ACEECF5CBEDF5F6
:10707000CA22EFFB7A007005538EFE8009EB640193
:107080004A7003438E01EDFF7E0064017004538952
:10709000FB22EF64024E700343890422E49009F757
:1070A000F0A3F0C20A122866200A189009F7E475C6
:1070B000F001122E84FEC374D095F074079E50E840
:1070C00043CF1022900A07EFF0E4900A0CF0EF7023
:1070D00009900A0812315B025519900A07E0640210
:1070E0007007A312315B12673E2290000DEFF09003
:1070F00000117403F0A374E8F0900019123251E407
:10710000900015F0A3F0A3F0A3F090000FF022E49C
:10711000FE900B23E0547FF0D2EE900B23E05480DE
:1071200070111260F243CF100EEEC3946474809419
:107130008040E7229009EF1232519009EF1232316C
:10714000122D3860139009EFE475F00112323A12F3
:107150002D38FF12709C80E222AF02EFC4540FFF63
:107160007D01EF700BED600443D2802253D27F2269
:107170008FCEED600443C8042253C8FB22900A1846
:10718000E4F0A37410F07B017A0A7904A31232515F
:107190007FF07EFB7D007C001266D77F012290008D
:1071A00004EFF0A31231F4000000009009F0123156
:1071B0005B9000091231E89001A87401F022AE073B
:1071C0007B017A0079227F011270EAAF06C0079036
:1071D00009F01231F400000FA0D00702719EE4FF05
:1071E000EFC3951A5016124B17E0FCA3E0FD900B6D
:1071F00009124B39ECF0A3EDF00F80E42230990531
:107200005398FDD20A3098135398FE12286E900AB4
:10721000D112323189828A8312337C227D017F012F
:10722000127072E4FBFAFD7C837F01126BF4E4FDC3
:107230007F011273E57F010274A5900A00E4F0A3B8
:107240007410F07B017A0A79A9A31232517FF07E83
:10725000917D007C0002679D900A00E4F0A3741009
:10726000F07B017A0A79B9A31232517FF07EFB7D5F
:10727000007C0002679D900A031231E8900A031215
:10728000315B900A081231E8900A0C74F0F0E4FFC8
:107290000270C4900004E024FE600D146008240312
:1072A00024FB5002800080030268AD126E1A221285
:1072B0005C651274DE126D2E12721C126E54126D09
:1072C0006912747D12281AD2AF22900A5CE030E570
:1072D00004D2928002C292900A5CE030E403D29021
:1072E00022C2902275FEC2900A9FE5FFF043FF0C78
:1072F00075FEC1900A9EE5FFF075FB8522EF6005E3
:1073000043A902800353A9FDED700453B9FD224344
:10731000B90222AFAFEF75F010A4FFE5AEC4540F71
:107320007C002FFFEC35F0FE22126FF2EF7803C3E2
:1073300033CE33CED8F9FF7C007D0A022E19EFFD43
:107340007C00700453D2FE22ED64014C700343D2E2
:10735000012275FEC2900A9FE0F5FF75FEC1900AFA
:107360009EE0F5FF22AA07126C75AD03126A9EEB30
:107370006401700312715922ED7009EFF452ABEE03
:10738000F452AC22EF42ABEE42AC22E4FFEFC395E5
:107390001A5009124B17124C0C0F80F122EF75F0A6
:1073A00008A42402F582E43476F583E493FF229066
:1073B0000A23E0900A28F0E4A3F0A374F0F0026539
:1073C00086EF700EE5D754C04D4BFF9009EEE04FAD
:1073D000F5D7225389FC8F8AEF7805CEC313CE13DD
:1073E000D8F9F58C22EF7004C2A98002D2A9ED7001
:1073F00003C2B922D2B922EF7004C2AC8002D2AC6F
:10740000ED7003C2BC22D2BC22EF3395E04F700472
:107410007F058002E4FF1271BE22EF700AED600466
:1074200043D7802253D77F225389FC438901AD077C
:107430008D8AEEF58C2275FEC1EF700453FF7F221A
:1074400043FF8022741F2FF582E4340BF583E0FFA5
:10745000229075E7E493FE740193FF229075EBE4AC
:1074600093FE740193FF22EF700453AD7F2243AD6E
:1074700080225389FC4389028F8A8F8C22E4FF1279
:1074800074CE7F0102743675B78675B61843A9208D
:1074900022900B08E075F00384FF224389038F8A52
:1074A000AF058F8C22EF7003C28C22D28C22907594
:1074B000E5740193FF229075DF740193FF22900B16
:1074C00008E0C313FF22E4900A44F0026F66E5CFA0
:1074D00054F84FF5CF22AD078D8AEEF58C2243C1CB
:1074E000C043D930226765745F646F776E0D0064A6
:1074F0006F776E206E6F6E650D00726573756C74BC
:107500000D00646F776E20756E6B6E6F776E5F63C4
:107510006F6D6D616E640D00646F776E204D49492B
:107520004F5F6D63755F76657273696F6E5F7265CD
:10753000710D006D63755F76657273696F6E2030D3
:107540003030310D00646F776E206765745F707244
:107550006F7065727469657300646F776E20757003
:10756000646174655F66770D006D6F64656C207390
:1075700061736573692E73727365722E73617330F4
:10758000310D006F6B006572726F7200626C655F27
:10759000636F6E66696720736574203135362030FD
:1075A0003030310D00646F776E20757064617465E2
:1075B0005F667700646F776E206E6F6E6500726530
:1075C00073756C7420227265616479220D006D639D
:1075D000755F626F6F74206661696C0D000000005A
:1075E0000100000003000A0BB800C800640002009C
:1075F000000000000500000001FFFFFFFF0018036E
:0F7600004805081F050144034805081A050191B4
:0491F000AA5555AA7D
:00000001FF
