:1000000002290030000302280321033000030228E4
:100010000B210B30000302281321133000030228A8
:100020001B211B3000030228232123300003022858
:100030002B212B3000030228332133300003022808
:100040003B213B30000302284321433000030228B8
:100050004B214B3000030228532153300003022868
:100060005B215B3000030228632163300003022818
:100070006B216B30000302287321733000030228C8
:100080007B217B3000030228832183300003022878
:100090008B218B3000030228932193300003022828
:1000A0009B219B3000030228A321A33000030228D8
:0300B000AB21ABD6
:10280000D2EE2202280EB294B2A522025DCC5388E9
:10281000FD32220228165388F7323202281A53ADAD
:10282000DF32320281D61288D422320228221200EC
:1028300000223202281E7520FF223202282AA20915
:10284000223232022832D20922323202283A7F0161
:0E285000223232022841AF992232320283CE68
:03286300026912F5
:03286B00022842FE
:03287300022849EF
:03287B0002284AE6
:03288300022851D7
:03288B00022852CE
:03289300022859BF
:10289B0002285A900CF4EFF0900CF5ECF0A3EDF04D
:1028AB00900CF4E0FFEF54F0FF7E00EF4E702253DC
:1028BB00D2FD900CF5E0FEA3E0FF900CF4E0FDEDF3
:1028CB0025E02440F582E43420F583EEF0A3EFF00D
:1028DB0022900CF5E0FEA3E0FF900CF4E0FDED542C
:1028EB000FFDED25E02434F582E43420F583EEF082
:0428FB00A3EFF02235
:1029000078FFE4F6D8FD9000007F007E01E4F0A39C
:10291000DFFCDEFA75812A02295502557FE493A374
:10292000F8E493A34003F68001F208DFF48029E481
:1029300093A3F85407240CC8C333C4540F4420C8CD
:10294000834004F456800146F6DFE4800B01020464
:10295000081020408090518EE47E019360BCA3FF5C
:10296000543F30E509541FFEE493A360010ECF5499
:10297000C025E060A840B8E493A3FAE493A3F8E488
:1029800093A3C8C582C8CAC583CAF0A3C8C582C8F4
:10299000CAC583CADFE9DEE780BE900CBAEFF090CB
:1029A0000CBBECF0A3EDF0900CBDEAF0A3EBF090C3
:1029B0000CBAE0FFEF1233F229C80029D40129E054
:1029C0000229EC03000029FF900CBBE0FEA3E0FF0E
:1029D0001285F822900CBBE0FEA3E0FF12864C2289
:1029E000900CBBE0FEA3E0FF12892522900CBBE017
:1029F000FEA3E0FF900CBDE0FCA3E0FD1288B8222E
:102A000020230414EC4D6011E8497017ED33EC33CA
:102A100004600DE4FCFFFEFD22E933E8330470F8A6
:102A2000022CCD122C9858046009E4CC2481500665
:102A3000285009022CD7284003022CD4C0E0EB4ACE
:102A40007044B98006D0E0FB022CC3EF4E701CBD71
:102A50008008EBFFEAFEE9FD80EBE98DF0A4FEE5DE
:102A6000F0022AEDE9CDF9EAFEEBFFEF89F0A4FCD4
:102A7000E5F0CE89F0A42EFFE435F0CD89F0A42D49
:102A8000FEE435F08067EF4E7005BD80D780C3EF60
:102A90008BF0A4ACF0EE8BF0A42CFCE435F0F8EF56
:102AA0008AF0A42CE5F038FCE433CB8DF0A42CFCA8
:102AB000E5F03BF8EE8AF0A42CFCE5F038F8E433BE
:102AC000CF89F0A42CFCE5F038CF3400CE89F0A4F7
:102AD0002FFFE5F03EFEE433C98DF0A42EFEE5F0B5
:102AE00039CD8AF0A42FFFE5F03EFEE43DFD33D062
:102AF000E0FB50070BBB000F022CD7EC2CFCEF3394
:102B0000FFEE33FEED33FD022CAF022CD7EC5D045B
:102B10006005E859047003022CCD122C985804600B
:102B2000F6EC4860F2EC7004FDFEFF22C860DB2486
:102B300081C85009C39860025006022CD49850CA2C
:102B4000F582E9294B4A7005AB82022CC375F0006F
:102B50007C1A7880C3EF9BEE9AED99400DC3EF9BF2
:102B6000FFEE9AFEED99FDE842F0DC23ACF0D0E0F8
:102B7000FFD0E0FED0E0FDAB8220E7101BEB60BA97
:102B8000EC2CFCEF33FFEE33FEED33FD022CAFE80F
:102B900003F830E705C0F075F000EF2FFFEE33FECD
:102BA000ED33FD40B830E7C280AA74F8CC6480CC25
:102BB000C86480C8F58204604FC3EB9FF5F0EA9EBD
:102BC00042F0E99D42F0E89C45F0603C501DE582F2
:102BD0005FFFE582D313CB5BCBF42B5582FB5028F0
:102BE0000ABA002409B9002008801DE5825BFBE5D4
:102BF00082D313CF5FCFF4C3132F5582FF50090E3A
:102C0000BE00050DBD00010CC3EB9FF5F0EA9E422E
:102C1000F0E99D42F0E89C45F06007CC4820E701D0
:102C2000B3EC2275F020800E75F010800575F00869
:102C30007D007E007F003392D530D503123170ECD9
:102C4000334010EF33FFEE33FEED33FDEC33FCD5B4
:102C5000F0ED22E5F0247EA2D513CC92E7CDCEFF95
:102C600022EDD2E7CD33EC3392D524814006E4FF48
:102C7000FEFDFC22FCE4CFCECDCC24E0501174FF4D
:102C800080EDC3CC13CCCD13CDCE13CECF13CF0458
:102C900070F030D5DE023170E9D2E7C933E833F89D
:102CA00092D5EDD2E7CD33EC33FC5002B2D522EC15
:102CB00030E7100FBF000C0EBE00080DBD00040B66
:102CC000EB6014A2D5EB13FCED92E7FD2274FFFC40
:102CD000FDFEFF22E480F8A2D574FF13FC7D80E4A2
:102CE00080EFE709F608DFFA8046E709F208DFFA25
:102CF000803E88828C83E709F0A3DFFA8032E30903
:102D0000F608DFFA8078E309F208DFFA807088823B
:102D10008C83E309F0A3DFFA806489828A83E0A3CD
:102D2000F608DFFA805889828A83E0A3F208DFFA86
:102D3000804C80D280FA80C680D4806980F2803353
:102D4000801080A680EA809A80A880DA80E280CA1B
:102D5000803389828A83ECFAE493A3C8C582C8CC05
:102D6000C583CCF0A3C8C582C8CCC583CCDFE9DE5F
:102D7000E7800D89828A83E493A3F608DFF9ECFAF1
:102D8000A9F0EDFB2289828A83ECFAE0A3C8C58210
:102D9000C8CCC583CCF0A3C8C582C8CCC583CCDF62
:102DA000EADEE880DB89828A83E493A3F208DFF914
:102DB00080CC88F0EF60010E4E60C388F0ED2402F5
:102DC000B4040050B9F582EB2402B4040050AF23E0
:102DD00023458223902D3273BB010689828A83E0CA
:102DE000225002E722BBFE02E32289828A83E49317
:102DF00022BB010CE58229F582E5833AF583E022C6
:102E00005006E92582F8E622BBFE06E92582F8E2B3
:102E100022E58229F582E5833AF583E49322BB011A
:102E20000989828A83F8E028F022500327F722BB21
:102E3000FE05F8E328F3228A838982F8E4932822A6
:102E4000BB010FF8E58229F582E5833AF583E02896
:102E5000F0225009C58229F8E58226F622BBFE0938
:102E6000C58229F8E22582F222F8EA2583F583E972
:102E7000932822BB010689828A83F0225002F7221E
:102E8000BBFE01F322F8BB010DE58229F582E58343
:102E90003AF583E8F0225006E92582C8F622BBFE07
:102EA00005E92582C8F222EF8DF0A4A8F0CF8CF0BE
:102EB000A428CE8DF0A42EFE22BC000BBE0029EF6C
:102EC0008DF084FFADF022E4CCF875F008EF2FFF11
:102ED000EE33FEEC33FCEE9DEC984005FCEE9DFEDF
:102EE0000FD5F0E9E4CEFD22EDF8F5F0EE8420D226
:102EF0001CFEADF075F008EF2FFFED33FD40079895
:102F00005006D5F0F222C398FD0FD5F0EA22C5F0A5
:102F1000F8A3E028F0C5F0F8E58215827002158369
:102F2000E038F022A3F8E0C5F025F0F0E582158244
:102F300070021583E0C838F0E822BB010A89828A52
:102F400083E0F5F0A3E022500687F009E71922BBE1
:102F5000FE07E3F5F009E3192289828A83E493F5F9
:102F6000F074019322BB0110E58229F582E5833AD2
:102F7000F583E0F5F0A3E0225009E92582F886F018
:102F800008E622BBFE0AE92582F8E2F5F008E22213
:102F9000E5832AF583E993F5F0A3E99322BB0107C2
:102FA00089828A83022F0E500B09C5F027F7C5F0DE
:102FB0001937F722BBFE0D09F8E325F0F3C5F01928
:102FC000E338F322F889828A8374019325F0C5F0EF
:102FD000F8E4933822BB010DC58229C582C5833A26
:102FE000C583022F0E5011C58229F808E5F026F698
:102FF00018F5F0E58236F622BBFE11C58229F808E5
:10300000E225F0F5F0F218E23582F222F8E58229A5
:10301000F582E5832AF58374019325F0F5F0E493B6
:103020003822BB010A89828A83F0E5F0A3F022509E
:1030300006F709A7F01922BBFE06F3E5F009F3191C
:1030400022F8BB0111E58229F582E5833AF583E890
:10305000F0E5F0A3F0225009E92582C8F608A6F0B1
:1030600022BBFE09E92582C8F2E5F008F222EF2B27
:10307000FFEE3AFEED39FDEC38FC2275F008758262
:1030800000EF2FFFEE33FECD33CDCC33CCC58233F2
:10309000C5829BED9AEC99E58298400CF582EE9BF7
:1030A000FEED9AFDEC99FC0FD5F0D6E4CEFBE4CD15
:1030B000FAE4CCF9A88222B800C1B90059BA002DAF
:1030C000EC8BF084CFCECDFCE5F0CBF97818EF2F68
:1030D000FFEE33FEED33FDEC33FCEB33FB10D70397
:1030E000994004EB99FB0FD8E5E4F9FA227818EF40
:1030F0002FFFEE33FEED33FDEC33FCC933C910D79F
:10310000059BE99A4007EC9BFCE99AF90FD8E0E4AB
:10311000C9FAE4CCFB2275F010EF2FFFEE33FEED81
:1031200033FDCC33CCC833C810D7079BEC9AE89951
:10313000400AED9BFDEC9AFCE899F80FD5F0DAE433
:10314000CDFBE4CCFAE4C8F922EF5BFFEE5AFEEDCA
:1031500059FDEC58FC22EF6BFFEE6AFEED69FDECC9
:1031600068FC22CFF4CFCEF4CECDF4CDCCF4CC227B
:10317000C3E49FFFE49EFEE49DFDE49CFC22EB9FE4
:10318000F5F0EA9E42F0E99D42F0EC6480C864806C
:103190009845F022EB9FF5F0EA9E42F0E99D42F05F
:1031A000E89C45F022E8600FECC313FCED13FDEE44
:1031B00013FEEF13FFD8F122E8600FEFC333FFEEE9
:1031C00033FEED33FDEC33FCD8F122BB010DE5827B
:1031D00029F582E5833AF5830231FB5007E9258220
:1031E000F802344ABBFE07E92582F8023456E5822C
:1031F00029F582E5833AF583023207E0FCA3E0FD7E
:10320000A3E0FEA3E0FF22E493FC740193FD7402AB
:1032100093FE740393FF22E0F8A3E0F9A3E0FAA37E
:10322000E0FB22BB010DE58229F582E5833AF583B7
:103230000232175007E92582F8023462BBFE07E923
:103240002582F802346FE58229F582E5833AF58319
:1032500002347C7401FF3395E0FEFDFCA3A3A3E0E0
:10326000CF2FF0E582158270021583E0CE3EF0E5A7
:1032700082158270021583E0CD3DF0E582158270E3
:10328000021583E0CC3CF022ECF0A3EDF0A3EEF0CD
:10329000A3EFF022A8828583F0D083D0821232ABD4
:1032A0001232AB1232AB1232ABE473E493A3C58398
:1032B000C5F0C583C8C582C8F0A3C583C5F0C58362
:1032C000C8C582C822A42582F582E5F03583F5833E
:1032D00022E0FBA3E0FAA3E0F922F8E0FBA3A3E0DD
:1032E000F925F0F0E582158270021583E0FA38F0D6
:1032F00022EBF0A3EAF0A3E9F022BB010789828A5E
:10330000830232D15005E9F802348CBBFE05E9F89E
:1033100002349E89828A830234B0BB011A89828A70
:1033200083D0F0D0E0F8D0E0F9D0E0FAD0E0FBE8CC
:10333000C0E0C0F00232F15016E9F8D083D082D05C
:10334000E0F9D0E0FAD0E0FBC082C083023495BB44
:10335000FE16E9F8D083D082D0E0F9D0E0FAD0E0D0
:10336000FBC082C0830234A722BB010DE58229F590
:1033700082E5833AF5830232D15007E92582F802CB
:10338000348CBBFE07E92582F802349EE58229F5DC
:1033900082E5833AF5830234B0BB0120E58229F54A
:1033A00082E5833AF583D0F0D0E0F8D0E0F9D0E0C0
:1033B000FAD0E0FBE8C0E0C0F00232F15018E92595
:1033C00082F8D083D082D0E0F9D0E0FAD0E0FBC020
:1033D00082C083023495BBFE18E92582F8D083D0E1
:1033E00082D0E0F9D0E0FAD0E0FBC082C0830234A2
:1033F000A722D083D082F8E4937012740193700DE9
:10340000A3A393F8740193F5828883E47374029301
:103410006860EFA3A3A380DF8A838982E473EF4E01
:103420006012EF60010EEDBB010B89828A83F0A36D
:10343000DFFCDEFA2289F05007F709DFFCA9F02251
:10344000BBFEFCF309DFFCA9F022E6FC08E6FD0860
:10345000E6FE08E6FF22E2FC08E2FD08E2FE08E2E2
:10346000FF22E6FB08E6F908E6FA08E6CBF822E2D6
:10347000FB08E2F908E2FA08E2CBF822E493F874D8
:103480000193F9740293FA740393FB22E6FB08E6B6
:10349000FA08E6F922EBF608EAF608E9F622E2FB7A
:1034A00008E2FA08E2F922EBF208EAF208E9F2226D
:1034B000E493FB740193FA740293F922900C531273
:1034C00032F1900C56E4F0A3E4F090000FE0FF7EA0
:1034D00000EF4E70407F4312847C90000F7401F027
:1034E00090000E7401F0900013E4F0A3E4F090005B
:1034F00002E4F0900A6D1232940000000090000087
:10350000E4F0A37401F09000A7E4F090001D1232E3
:103510009400000000900011E0FEA3E0FF90001373
:10352000E0FCA3E0FDD3ED9FEC9E4013900002E091
:1035300004F07F1512847C900013E4F0A3E4F09073
:10354000000FE0FF7E00EF64014E600302396390DC
:103550000017E0FEA3E0FFC3EF9401EE94005003D8
:103560000239639000191232D1122DD8FF7E00EF7C
:1035700064044E60030236B6900C59E4F0900C5986
:10358000E0FF7E00C3EF94FFEE64809480504E9085
:103590000C59E0FF7E00C374FF9FFFE49EFE74B0F1
:1035A0002FF58274033EF583E0FF7E00EF64FF4E4B
:1035B0007023900C59E0FF7E00C374FF9FFFE49ED0
:1035C000FE74AF2FF58274033EF583E0FF7E00EFBB
:1035D000641A4E6008900C59E004F080A0900C59D9
:1035E000E0FFEF2406FF900C59EFF090001D123120
:1035F000FBC004C005C006C0077B017A0379B09008
:103600000C59E0FF7E00C3E49FFF74019EFEE4FCC2
:10361000FD900B19123288D007D006D005D00412C5
:1036200073FE90001D123288900C5AE4F0900C5AF0
:10363000E0FF7E00C3EF9404EE64809480505390CA
:103640000C59E0FF7E00C3E49FFF74019EFE900CC6
:103650005AE0FD7C00EF2DFFEE3CFE74B02FF582AA
:1036600074033EF583E0FB90001D1231FBEF6B60AD
:10367000089000A77401F0801990001D1231FB78AA
:10368000081231A590001D123288900C5AE004F007
:10369000809B900013E4F0A3E4F0900017E4F0A303
:1036A000E4F090000E7402F090000F7402F07F06B8
:1036B00012847C7F01229000191232D1122DD8FF82
:1036C0007E00EF64184E7024900013E4F0A3E4F041
:1036D000900017E4F0A3E4F090000E7405F0900061
:1036E0000F7402F07F0612847C7F0322900017E0A3
:1036F000FEA3E0FFD3EF9485EE9400401B900013EF
:10370000E4F0A3E4F0900002E004F0900017E4F08D
:10371000A3E4F07F1512847C9000191232D1122D8F
:10372000D8FF7E00EF64014E6003023963900017FA
:10373000E0FEA3E0FFEF64854E6003023963900072
:1037400013E4F0A3E4F0900017E4F0A3E4F0900099
:10375000191232D1758201758300122DF1FF7E009E
:10376000900000E0FCA3E0FD7C00ED6F7002EC6EC9
:103770006003023957900002E4F0900000E0FEA3DD
:10378000E0FFC3EF9403EE9400402F90001D123130
:10379000FBC004C005C006C0077B017A0379B09066
:1037A0000B1912329400000080D007D006D005D04B
:1037B000041273FE90001D123288900C59E4F090B0
:1037C0000C59E0FF7E00C3EF9480EE64809480503B
:1037D00058900C59E0FF74302FF582E43404F583DF
:1037E000E0FF900C59E0FE74B02EF582E43403F54E
:1037F00083EFF0900C59E0FF7E00EF2403FFEE34DE
:1038000000FE9000191232D18F828E83122DF1FFAB
:10381000900C59E0FE74302EF582E43404F583EF09
:10382000F0900C59E004F08096900C56E0FEA3E076
:10383000FFC006C0079000191232D1E92403F9EA4B
:103840003400FA900BE612329400000080D007D0CA
:1038500006126E27900C56EEF0A3EFF090001912AE
:1038600032D1758283758300122DF1FF7E00EF7FC8
:1038700000FE900C56E0FCA3E0FDC3ED9FFFEC9E24
:10388000FE9000191232D1758284758300122DF1D9
:10389000FD7C00C3EF9DFFEE9CFEEF4E60030239FE
:1038A00049900000E0FEA3E0FFEF24FFFFEE34FFAD
:1038B000FE900C531232D1758201758300EE8FF0A9
:1038C000123041900C531232D1758203758300E49B
:1038D00075F080123041900C58E4F0900C53123285
:1038E000D1758203758300122F65FFAEF0900C58DE
:1038F000E0FD7C00C3ED9FEC9E5042900C58E0FF31
:103900007E00EF2403FFEE3400FE9000191232D146
:103910008F828E83122DF1FF900C531232D175825B
:1039200005758300123369900C58E0FE8E82758312
:1039300000EF122E85900C58E004F0809E9000005D
:10394000E475F001122F0E801A900002E02402F0BC
:103950007F1512847C800C900002E02402F07F1519
:1039600012847C900002E0FF7E00C3EF9419EE64A5
:1039700080948040267F1812847C7F1812847C7F7C
:103980001812847C900017E4F0A3E4F090000E7409
:1039900005F090000F7402F07F03227F002290094F
:1039A000FEE0FFEF20E115900A01E0FF7E00D3EF7B
:1039B0009400EE648094805003023A8A9008BAE042
:1039C000FFEF4401FF9008BAEFF0900A01E0FFEF2B
:1039D00030E6099008BB7401F0023A62900A01E0F7
:1039E000FFEF30E7089008BB7402F080759009FE85
:1039F000E0FFEF30E1089008BB7403F08064900AA8
:103A000001E0FFEF30E0089008BB741FF080539096
:103A10000A01E0FFEF30E1089008BB7420F080421B
:103A2000900A01E0FFEF30E2089008BB7421F080BB
:103A300031900A01E0FFEF30E3089008BB7422F0F8
:103A40008020900A01E0FFEF30E4089008BB742367
:103A5000F0800F900A01E0FFEF30E5069008BB749C
:103A600024F09009FEE0FFEF54FDFF9009FEEFF017
:103A7000900A01E4F09008C0E4F09008BCE4F0A3E0
:103A8000E4F09008BEE4F0A3E4F09008BAE0FFEFA1
:103A900020E003023DF09008BBE0FF7E00EF6401F0
:103AA0004E70537B017A0879C1C003C002C0017B0C
:103AB000017A0879BC900BA01232F17B017A087967
:103AC000BE900BA31232F17B017A0879C0900BA64D
:103AD0001232F1D001D002D0031248477E00EF64C9
:103AE000014E6003023DF79008BAE0FFEF54FEFF7D
:103AF0009008BAEFF0229008BBE0FF7E00EF64026E
:103B00004E70537B017A0879E9C003C002C0017B83
:103B1000017A0879BC900BA01232F17B017A087906
:103B2000BE900BA31232F17B017A0879C0900BA6EC
:103B30001232F1D001D002D0031248477E00EF6468
:103B4000014E6003023DF79008BAE0FFEF54FEFF1C
:103B50009008BAEFF0229008BBE0FF7E00EF64030C
:103B60004E70537B017A097911C003C002C0017BFA
:103B7000017A0879BC900BA01232F17B017A0879A6
:103B8000BE900BA31232F17B017A0879C0900BA68C
:103B90001232F1D001D002D0031248477E00EF6408
:103BA000014E6003023DF79008BAE0FFEF54FEFFBC
:103BB0009008BAEFF0229008BBE0FF7E00EF641F90
:103BC0004E70537B017A097949C003C002C0017B62
:103BD000017A0879BC900BA01232F17B017A087946
:103BE000BE900BA31232F17B017A0879C0900BA62C
:103BF0001232F1D001D002D0031248477E00EF64A8
:103C0000014E6003023DF79008BAE0FFEF54FEFF5B
:103C10009008BAEFF0229008BBE0FF7E00EF64202E
:103C20004E70537B017A097981C003C002C0017BC9
:103C3000017A0879BC900BA01232F17B017A0879E5
:103C4000BE900BA31232F17B017A0879C0900BA6CB
:103C50001232F1D001D002D0031248477E00EF6447
:103C6000014E6003023DF79008BAE0FFEF54FEFFFB
:103C70009008BAEFF0229008BBE0FF7E00EF6421CD
:103C80004E70537B017A097991C003C002C0017B59
:103C9000017A0879BC900BA01232F17B017A087985
:103CA000BE900BA31232F17B017A0879C0900BA66B
:103CB0001232F1D001D002D0031248477E00EF64E7
:103CC000014E6003023DF79008BAE0FFEF54FEFF9B
:103CD0009008BAEFF0229008BBE0FF7E00EF64226C
:103CE0004E70537B017A0979A9C003C002C0017BE1
:103CF000017A0879BC900BA01232F17B017A087925
:103D0000BE900BA31232F17B017A0879C0900BA60A
:103D10001232F1D001D002D0031248477E00EF6486
:103D2000014E6003023DF79008BAE0FFEF54FEFF3A
:103D30009008BAEFF0229008BBE0FF7E00EF64230A
:103D40004E70507B017A0979B9C003C002C0017B73
:103D5000017A0879BC900BA01232F17B017A0879C4
:103D6000BE900BA31232F17B017A0879C0900BA6AA
:103D70001232F1D001D002D0031248477E00EF6426
:103D8000014E70739008BAE0FFEF54FEFF9008BA3E
:103D9000EFF0229008BBE0FF7E00EF64244E7057E6
:103DA0007B017A0979D1C003C002C0017B017A0886
:103DB00079BC900BA01232F17B017A0879BE900B8E
:103DC000A31232F17B017A0879C0900BA61232F16E
:103DD000D001D002D0031248477E00EF64014E703C
:103DE000169008BAE0FFEF54FEFF9008BAEFF022F9
:103DF0007D007F0012819422900B53EFF0E4900B32
:103E00005BF0900B53E0900AAD125935125A78903E
:103E10000B54F0A3EFF0E47F01FEFDFC900B53E0A8
:103E2000F9F81231B88F298E288D278C26AF011210
:103E30008298900B59EEF0A3EFF0125988400512CA
:103E40005A9A8005E4900B56F0900B56E06401609E
:103E500003023FAA900B53E0FF24B912599DE0C31F
:103E600094FA74809480500612599AE004F0125A21
:103E70004BFCE4FBFAF9F8C31231946003023F975C
:103E8000900AACE0900B58F012284EEF6030E490AE
:103E90000B56F0A3F01259D5501812599AE0C3945A
:103EA00001748094804006900B56E004F0125A5F33
:103EB00080E3125A084007900B58E0240FF0900B53
:103EC00053E024B912599D125ABA5003023F97E4A5
:103ED000900B56F0128A34EF705E900B57F0125927
:103EE000D55022900B53E06F60161289FC900B574F
:103EF000E024B912599DE0C39F4005125A9A8005EB
:103F0000125A5F80D912284EEF3395E04F706390BC
:103F10000B56E0705DA3F01259D55056900B53E04C
:103F20006F60101289FC900B571259EFE0C39F404D
:103F300002803C125A5F80DF12284EEF3395E04F2B
:103F40007030900B58F0900B57F01259D550181252
:103F5000599AE0C39402748094804006900B58E014
:103F600004F0125A5F80E3900B58125A0B40031270
:103F70005A9A900B56E064017002D208E525452953
:103F8000FFE5244528FEE5234527FDE52245268F4C
:103F9000258E248D23F522900B53E0FF24C1125966
:103FA0004BE4F0A31259E20241BD900B53E0FF1223
:103FB00082D8900B54E0FCA3E0FDD312597C40085A
:103FC0001259ECE004F0800B900C41E004F012591F
:103FD000ECE4F0125A82C3E49FFBE49EFAC3ED9B2B
:103FE000EA12597E4066D31259895060125A29F557
:103FF00083E41259E21259B36003024111900B5449
:10400000E0FEA3E0FF900B53E0900ABD1259CFEE03
:104010008FF0122F0E128A1E12596A40091259A5EA
:10402000E475F0018019128A1EC3E49FFFE49EFE2E
:1040300012596A40030241111259A574FFF5F0129A
:104040002F0E125960E4F0A3F0024111125A82C3FC
:10405000E49FFFE41259865073125A291259DEF573
:1040600083E4F074C12FF582E4340AF583E0FF7530
:10407000F00A84E5F07044C3EF94647480948090F7
:104080000B53E04010125A2EF583E4F0D209900A47
:10409000D104F080261259AAC083C082E0FEA3E0BA
:1040A000FF900ACAE0A2E713FD3395E0FCC3EF9D41
:1040B000FFEE9CD082D083F0A3EFF0900B53E0FF93
:1040C000900C3AE06F704A74FFF08045125A82D328
:1040D000125989403C900B53E0125A2E1259B3707A
:1040E00030125AA11259DEF583E064207023125A6F
:1040F000A1F583E4F0900ACAE0A2E713A2E713FD5A
:104100003395E0FC75F002EF1259ADEC8DF0122FF3
:104110000E125A4B4D4E4F70030241C9900B59E09D
:10412000FCA3E0FDAE047802CEA2E713CE13D8F8CC
:10413000FFC3ED9FFFEC12598640030241C21259A2
:10414000FAE004F0128A49900B58EFF0E4900B5714
:10415000F01259D5501812599AE0C3940174809402
:10416000804006900B56E004F0125A5F80E3125A2A
:10417000084008900AACE0900B58F0900B53E0FB1D
:104180001259FE125ABA500302421374CF2B125A1C
:1041900000E4F0AF29AE28AD27AC26123163E52547
:1041A0005FFFE5245EFEE5235DFDE5225C8F258E45
:1041B000248D23F52274B92BF582E4340AF583E4C7
:1041C000F0221259FAE014F022900B53E024B912B5
:1041D000599D1259B57008900B53E0FF1277C2E554
:1041E0002A14FF900B53E06F7029900C41E0C395A7
:1041F0002A4020E4900B57F01259D5500E12599ACC
:10420000E06003125A9A125A5F80ED900B56E070EC
:1042100002C20822900D48E4F0900004E0FF7E0006
:10422000C3EF9405EE64809480500302453B9000F8
:1042300004E0FF7E00EF64084E6015900003E0FF8D
:104240007E00D3EF9420EE6480948050030243AC50
:104250007F2C7E017D007C00900005123217C31276
:1042600031944027900005123294000000007BFF3B
:104270007A8A79601286C4900003E004F09000030B
:10428000E0FFEF547FFF900003EFF09001A8E0FF04
:104290007E00EF64034E600302453B9001A8740169
:1042A000F09001ADE4F0A3E4F0900004E0FF7E00A4
:1042B000EF64084E600302436D7B017A0179AFC061
:1042C00003C002C0017BFF7A8A796A900C4E1232D9
:1042D000F1D001D002D003127F07EF60097BFF7A93
:1042E0008A79751286C47B017A0179AFC003C00256
:1042F000C0017BFF7A8A797D900C4E1232F1D00199
:10430000D002D003127F07EF60097BFF7A8A7975AC
:104310001286C47B017A0179AFC003C002C0017B61
:10432000FF7A8A7993900C4E1232F1D001D002D0EC
:1043300003127F07EF60097BFF7A8A79AE1286C489
:104340007B017A0179AFC003C002C0017BFF7A8A8A
:1043500079C0900C4E1232F1D001D002D003127FFE
:1043600007EF60097BFF7A8A79751286C47B017A30
:104370000179AFC003C002C0017BFF7A8A79D49073
:104380000C4E1232F1D001D002D003127F07EF7031
:104390000302453B900CA212329400000FA07F0054
:1043A000128574900D487401F002453B7F2C7E010C
:1043B0007D007C00900005123217C3123194401E1C
:1043C00090000512329400000000900003E004F019
:1043D000900003E0FFEF547FFF900003EFF09000A8
:1043E00004E0FFEF1233F243F405445E0644C707CE
:1043F000000045357BFF7A8A79E4C003C002C00122
:104400007BFF7A8A79FE900B251232F17BFF7A8B43
:104410007901900B281232F1900B2B12329400008C
:1044200000647BFF7A8679C4900B2F1232F1D001A1
:10443000D002D003126AF7900021EFF0900021E043
:10444000FF7E00EF64024E600302453B900CA21217
:10445000329400000FA07F0612857402453B7BFF5B
:104460007A8B7907C003C002C0017BFF7A8A79FE8C
:10447000900B251232F17BFF7A8B7901900B281279
:1044800032F1900B2B123294000000647BFF7A868D
:1044900079C4900B2F1232F1D001D002D003126AEE
:1044A000F7900021EFF0900021E0FF7E00EF640222
:1044B0004E600302453B900CA212329400000FA004
:1044C0007F0712857480747BFF7A8A79AEC003C03F
:1044D00002C0017BFF7A8A79FE900B251232F17BB4
:1044E000FF7A8B7901900B281232F1900B2B12324C
:1044F00094000000647BFF7A8679C4900B2F1232FF
:10450000F1D001D002D003126AF7900021EFF090B1
:104510000021E0FF7E00EF64024E701F900CA2129B
:10452000329400000FA07F081285749001A9E4F076
:10453000A3E4F080069000047405F0900D48E0FFBD
:1045400022900A08E0FEA3E0FFEF4E60030246015E
:104550007F007ED47D8F7C05900A0E123217C31225
:1045600031945017900A0E1231FB7B017A007900CA
:10457000780012306E900A0E1232887B607A0379CE
:10458000007800900A0E1231FB1230B7900C5B12CB
:1045900032887FE07EA57D017C00900C5B12321793
:1045A000C31231944003024697900C5B123217C33A
:1045B00074E09BFF74A59AFE740199FDE498FC9049
:1045C0000C5B123288900C5B1231FBE4122C237BC3
:1045D000007A0079877844122B0D900C5F12328894
:1045E000900C5F1231FB122C61EF547FFF900A3D5B
:1045F000E0FEEE5480FEEE4FFF900A3DEFF00246E3
:10460000977F007E9C7DDA7C01900A0A123217C3E4
:104610001231945017900A0A1231FB7B017A00790B
:1046200000780012306E900A0A1232887B607A039A
:1046300079007800900A0A1231FB1230B7900C5BB7
:10464000123288900C5B123217C374A09BFF748CDB
:104650009AFEE499FDE498FC900C5B123288900C71
:104660005B1231FBE4122C237B007A0079B478438F
:10467000122B0D900C5F123288900C5F1231FB12DE
:104680002C61EF547FFF900A3DE0FEEE5480FEEE79
:104690004FFF900A3DEFF0900A08E0FEA3E0FFEF25
:1046A0004E600302476E900A00E0FFEF20E603022F
:1046B000476E7F747EC27D037C00900A161232170B
:1046C000C31231945017900A161231FB7B017A0005
:1046D0007900780012306E900A16123288900A160D
:1046E0001231FBE4122C237B927A917933783D12BC
:1046F0002A04122C61900C5B1232887F307E2A7D56
:10470000007C00900C5B123217D3123194400A9057
:104710000C5B12329400002A30900C5B123217C3EB
:1047200074309BFF742A9AFEE499FDE498FC900C87
:104730005B123288900C5B1231FBE4122C237B005D
:104740007A0079D87842122B0D900C5F1232889043
:104750000C5F1231FB122C61EF547FFF900A3EE098
:10476000FEEE5480FEEE4FFF900A3EEFF022900ADC
:1047700008E0FEA3E0FFEF64014E600302484690AC
:104780000A00E0FFEF20E6030248467FC57E407D39
:10479000017C00900A12123217C312319450179004
:1047A0000A121231FB7B017A007900780012306E18
:1047B000900A12123288900A121231FBE4122C2352
:1047C0007B927A917933783D122A04122C61900CF5
:1047D0005B1232887F107E0E7D007C00900C5B1295
:1047E0003217D3123194400A900C5B1232940000BD
:1047F0000E10900C5B123217C374109BFF740E9A4C
:10480000FEE499FDE498FC900C5B123288900C5BFE
:104810001231FBE4122C237B007A007910784212CB
:104820002B0D900C5F123288900C5F1231FB122C12
:1048300061EF547FFF900A3EE0FEEE5480FEEE4FA3
:10484000FF900A3EEFF022900B9D1232F1900BA6E2
:104850001232D1122DD8FF7E00EF64FF4E70037F1D
:104860000122900BA61232D1122DD8FF7E08EF8EB6
:10487000F0A4FFAEF0900B9D1232D1E92FF9EA3E81
:10488000FA758204758300122F65FDACF0E4122CDA
:10489000287BCD7ACC794C783E122A04C004C0051E
:1048A000C006C007900BA01232D1122F3AFDACF017
:1048B000E4122C28A804A905AA06AB07D007D00645
:1048C000D005D004122BAA40030249DD900B9D12A3
:1048D00032D1C003C002C001900BA61232D1122DFA
:1048E000D8FF75F008EFA4F58285F083D001D002DF
:1048F000D0031232239008B4E0FEA3E0FFE4FCFDF5
:10490000C312319470030249A6900B9D1232D1C09C
:1049100003C002C001900BA61232D1122DD8FF7530
:10492000F008EFA4F58285F083D001D002D0031205
:1049300031CB9008B4EEF0A3EFF0900B9D1232D182
:10494000C003C002C001900BA61232D1122DD8FFB5
:1049500075F008EFA4F58285F083D001D002D00372
:104960001231CBAD07AC067F10127842900B9D122E
:1049700032D1C003C002C001900BA61232D1122D59
:10498000D8FF75F008EFA4F58285F083D001D0023E
:10499000D0031231CB9008B8EEF0A3EFF07D017F89
:1049A0000012819480279008B8E0FCA3E0FDE41297
:1049B0002C287B007A007900783F122A04122C619F
:1049C000AD07AC06AC06AD077F0212289E900BA087
:1049D0001232D1E475F001122F9D024B07900BA605
:1049E0001232D1122DD8FF7E08EF8EF0A4FFAEF068
:1049F000900B9D1232D1E92FF9EA3EFA75820675C5
:104A00008300122F65FDACF0E4122C287BCD7ACC0C
:104A1000794C783E122A04C004C005C006C0079035
:104A20000BA31232D1122F3AFDACF0E4122C28A8BD
:104A300004A905AA06AB07D007D006D005D00412FA
:104A40002BAA50197D007C007F0212289E900BA398
:104A50001232D1E475F001122F9D024B07900BA684
:104A60001232D17401122E1E900BA01232D1E475B5
:104A7000F000123022900BA31232D1E475F0001234
:104A80003022900B9D1232D1C003C002C001900BA6
:104A9000A61232D1122DD8FF75F008EFA4F5828549
:104AA000F083D001D002D0031231CB9008B8EEF0E1
:104AB000A3EFF0900B9D1232D1C003C002C0019051
:104AC0000BA61232D1122DD8FF75F008EFA4F58293
:104AD00085F083D001D002D0031231CB7BFF7AFF67
:104AE00079FF7800C3123194701D900BA61232D159
:104AF00074FF122E739008B4E4F0A3E4F07D007FFD
:104B0000001281947F01227F0022900C427403F0F6
:104B10007F00127DB6900C43123288900C43123104
:104B2000FBEF5400FFEE5400FEED5400FDEC54F09A
:104B3000FC7B007A0079007890C312319450030214
:104B40004C47900C431231FBEF5400FFEE5400FE33
:104B5000ED5400FDEC540FFC7B007A0079007809DD
:104B6000C31231945003024C47900C431231FBEFB7
:104B70005400FFEE5400FEED54F0FDEC5400FC7BBD
:104B8000007A0079907800C31231945003024C47A8
:104B9000900C431231FBEF5400FFEE5400FEED5435
:104BA0000FFDEC5400FC7B007A0079097800C312F9
:104BB00031945003024C47900C431231FBEF5400E8
:104BC000FFEE54F0FEED5400FDEC5400FC7B007A47
:104BD0009079007800C3123194406C900C431231EC
:104BE000FBEF5400FFEE540FFEED5400FDEC5400BB
:104BF000FC7B007A0979007800C312319440489018
:104C00000C431231FBEF54F0FFEE5400FEED540064
:104C1000FDEC5400FC7B907A0079007800C31231DF
:104C2000944024900C431231FBEF540FFFEE5400DC
:104C3000FEED5400FDEC5400FC7B097A007900780D
:104C400000C3123194500A900C43123294000000B9
:104C5000007F01127DB6900C471232881287E21253
:104C600087C1900A71E0FF900A5DE0FEEE6F70323E
:104C7000900A72E0FF900A5EE0FEEEB50724900A0B
:104C800073E0FF900A5FE0FEEEB50716900A74E04D
:104C9000FF900A60E0FEEEB50708900C427401F048
:104CA0008006900C427403F0900C42E0FF7E00EF0F
:104CB00064014E701A900C431231FB900C47123273
:104CC00017D31231944008900C427402F080529035
:104CD0000A71E0FF900A4DE0FEEE6F7031900A72AB
:104CE000E0FF900A4EE0FEEEB50723900A73E0FF66
:104CF000900A4FE0FEEEB50715900A74E0FF900AA7
:104D000050E0FEEEB50707900C42E4F08013900CE3
:104D100042E0FF7E00EF64014E7006900C42740288
:104D2000F0900C42E0FF7E00EF4E70037F01229076
:104D30000C42E0FF7E00EF64024E7012126D68EFCD
:104D400060037F0122126D68EF60037F01227F0004
:104D500022900CC31232F1900004E0FFEF1233F204
:104D60004D73004DDB014E43024F89034F34040065
:104D7000004F897BFF7A8A7960C003C002C0017B43
:104D8000FF7A8B7920900B251232F17BFF7A8B7999
:104D90002F900B281232F1900B2B1232940000004E
:104DA000647BFF7A8679C4900B2F1232F1D001D048
:104DB00002D003126AF7900021EFF0900021E0FF8B
:104DC0007E00EF64024E6003024F89900CA2123203
:104DD00094000013887F01128574227BFF7A8B79FF
:104DE00039C003C002C0017BFF7A8A79FE900B258F
:104DF0001232F17BFF7A8B7901900B281232F190FD
:104E00000B2B123294000000647BFF7A8679C490E9
:104E10000B2F1232F1D001D002D003126AF79000AA
:104E200021EFF0900021E0FF7E00EF64024E60036E
:104E3000024F89900CA2123294000013887F021254
:104E400085742290000512329400000000900CC37B
:104E50001232D1122DD8FF7E00EF64034E702490E1
:104E60000CC31232D1758203758300122F65FFAE19
:104E7000F0EF4E700E128A5A900CC31232D17401A8
:104E8000122E73900CC31232D1122DD8FF7E00EF78
:104E9000640F4E7011900CC31232D17401122E7334
:104EA00090001C7403F0900CC31232D11234BC90E9
:104EB000001CEFF090001CE0FF7E00EF64014E70DC
:104EC000409000A7E0FF7E00EF4E7012124B0A9058
:104ED0000CC31232D17404122E73128A5A22900C0F
:104EE000C31232D1740F122E739003AFE4F0900C02
:104EF000A212329400002EE07F04128574128A5AA6
:104F00002290001CE0FF7E00EF64034E70159003BA
:104F1000AFE4F0900CA212329400002EE07F041255
:104F2000857422900CA2123294000013887F021222
:104F300085742222900CC6E4F0900CC6E0FF7E003F
:104F4000C3EF940AEE6480948050347BFF7A8B79AF
:104F5000491286C4900005123294000000007FC8F8
:104F60007E007D007C00900005123217C312319440
:104F7000500543CF1080E7900CC6E004F080BA9053
:104F80000004E4F07F0012869D22900CB01232F1F2
:104F9000900CB3E4F0A3E4F0900CB01232D175821F
:104FA00001758300122F65FFAEF0EF4E7029900C53
:104FB000671232940000FC007F007E927D007C002E
:104FC000128151900A6D12329400000000900A780C
:104FD00012329400000000900CB01232D17582039E
:104FE000758300122F65FFAEF0900CB3EEF0A3EFC7
:104FF000F0900CB01232D1758203758300122F65C8
:10500000FDACF0900CB01232D175820175830012A4
:105010002F65FFAEF0122EA7C3EE94285003025165
:1050200085900CB01232D1758203758300122F6502
:10503000FDACF0900CB01232D17582017583001274
:105040002F65FFAEF0122EA7E4FCFD7B007A92796B
:10505000007800D312317E5003025185900CB012BB
:1050600032D1758203758300122F65FDACF0900C70
:10507000B01232D1758201758300122F65FFAEF038
:10508000122EA7E4FCFDC004C005C006C007900CAA
:10509000B01232D1758203758300122F65FFAEF016
:1050A000AB07AA06E4F9F8C3E49BFB74929AFAE40E
:1050B00099F9E498F8D007D006D005D004C312318E
:1050C0007E700B900CB374FF75F0F0122F0E900CE5
:1050D000B01232D1758203758300122F65FDACF0DA
:1050E000900CB01232D1758201758300122F65FFCA
:1050F000AEF0122EA7EF2400FFEE34D8FE900CB0D5
:105100001232D1758205758300123369900CB3E0B9
:10511000FCA3E0FD900C7FECF0A3EDF01278C2EF61
:10512000605B900A781231FBC004C005C006C0075E
:10513000900CB01232D175820575830012336990DC
:105140000CB3E0FEA3E0FFE4FCFD900B6912328893
:10515000D007D006D005D004127741900A781232D9
:1051600088900A6D123217900CB3E0FEA3E0FFE4C2
:10517000FCFD12306E900A6D1232888008900CB3DC
:10518000E4F0A3E4F0900CB3E0FEA3E0FF224404BB
:10519000B0EDB88320410021004100A70041000389
:1051A00000410C3000410C3600420C370000420C2C
:1051B000310000410C3305420C340000602808C166
:1051C0000000076C00C800780000096000C8007883
:1051D00000000B5400C8007800000D4800C804B05F
:1051E00000FFFFFFFFFFFFFF602808E900000D48F8
:1051F00000C8007800000B5400C800780000096067
:1052000000C800780000076C00C804B000FFFFFF72
:10521000FFFFFFFF6038091100000F9F017C026C47
:1052200000000F9F017C026C00000F9F017C026C4C
:1052300000000F9F017C026C00000F9F017C026C3C
:1052400000000F9F017C026C00FFFFFFFFFFFFFFCC
:105250006038094900000D48017C026C00000D48CF
:10526000017C026C00000D48017C026C00000D48BE
:10527000017C026C00000D48017C026C00000D48AE
:10528000017C026C00FFFFFFFFFFFFFF5009810060
:10529000000CE400C8026C00FFFFFFFFFFFFFF5897
:1052A000099100000C1C05DC000000000C4E01F40C
:1052B000000000FFFFFFFFFFFFFF5009A900000CE7
:1052C000E4017C026C00FFFFFFFFFFFFFF5809B9FC
:1052D000000008FC017C026C000006A4017C026C4A
:1052E00000FFFFFFFFFFFFFF5809D1000006A401E8
:1052F0007C0064000008FC017C006400FFFFFFFFED
:10530000FFFFFF4208B400004208B600004208B8A0
:105310000000410AEB00410CC800410CC900410CDF
:10532000CA00410CC700480B3A603399909090D561
:10533000FA580A7CE100E20FE326E437E502E600D2
:10534000E7F9E8F9E9F9EA05EB01EC03580A94E119
:1053500000E20FE326E437E502E600E7F9E8F9E9C1
:10536000F9EA05EB01EC03410C3F00410AD1004191
:105370000A4C00C10A440A71AA5555AA440A780089
:10538000000000440A6D0000000000900D0FEFF0D7
:10539000900D10EDF0900D11EBF0900D0FE0FFEF80
:1053A0001233F253B900540501545102549D035471
:1053B000E9045535050000557E900D11E0FFEF1210
:1053C00033F253CF0053E60153FA020000557E90AA
:1053D0000D10E0FFEFF4FFEF529A900D10E0FFEF99
:1053E000F4FFEF529B22900D10E0FFEFF4FFEF521D
:1053F0009A900D10E0FFEF429B22900D10E0FFEF1E
:10540000429A222222900D11E0FFEF1233F2541B38
:10541000005432015446020000557E900D10E0FF0A
:10542000EFF4FFEF5291900D10E0FFEFF4FFEF5219
:105430009222900D10E0FFEFF4FFEF5291900D10CB
:10544000E0FFEF429222900D10E0FFEF4291222206
:1054500022900D11E0FFEF1233F2546700547E01E9
:105460005492020000557E900D10E0FFEFF4FFEF24
:1054700052A1900D10E0FFEFF4FFEF52A222900D29
:1054800010E0FFEFF4FFEF52A1900D10E0FFEF42AC
:10549000A222900D10E0FFEF42A1222222900D11D6
:1054A000E0FFEF1233F254B30054CA0154DE02009D
:1054B00000557E900D10E0FFEFF4FFEF52B1900D1C
:1054C00010E0FFEFF4FFEF52B222900D10E0FFEF7B
:1054D000F4FFEF52B1900D10E0FFEF42B222900DB9
:1054E00010E0FFEF42B1222222900D11E0FFEF12F7
:1054F00033F254FF00551601552A020000557E90E4
:105500000D10E0FFEFF4FFEF52C1900D10E0FFEF40
:10551000F4FFEF52C222900D10E0FFEFF4FFEF52C4
:10552000C1900D10E0FFEF42C222900D10E0FFEF9E
:1055300042C1222222900D11E0FFEF1233F2554BAF
:10554000005562015576020000557E900D10E0FF77
:10555000EFF4FFEF52D9900D10E0FFEFF4FFEF52A0
:10556000DA22900D10E0FFEFF4FFEF52D9900D100A
:10557000E0FFEF42DA22900D10E0FFEF42D9221255
:1055800028361228261279BA7BFF7A807985C003E3
:10559000C002C0017B017A0079A8900C761232F12A
:1055A000D001D002D003127F577F001288031284EB
:1055B000091264F21275AF128A3F43CF10124214DF
:1055C0007B017A0A7944124D51900A47E0FEA3E02C
:1055D000FFEF4E603912893F7B017A0A7944124FFE
:1055E0008A900D18EEF0A3EFF0900D18E0FEA3E006
:1055F000FFEF4E6008900A447403F08006900A445E
:10560000740FF0900A47E4F0A3E4F01289B4900A12
:1056100044E0FF7E00EF64044E701A12893F12636B
:10562000D9EF700B1289B4900A44740FF0800612FF
:1056300089B412282E900A44E0FF7E00EF640F4EDA
:1056400070267BFF7A807985C003C002C0017B0190
:105650007A0079A8900C761232F1D001D002D003F2
:10566000127F577F00128803900AC7E0FFEF20E700
:1056700003025725900AC7E0FFEF547FFF900AC747
:10568000EFF0125F1B900B971232887F007E007D37
:10569000007C00900B97123217D312319440759012
:1056A00009FCE0FFEF54FBFF9009FCEFF0900B9733
:1056B0001231FBEF5402FFEE5400FEED5400FDECFE
:1056C0005400FCEC4D4E4F600E9009FCE0FFEF449F
:1056D00001FF9009FCEFF0900B971231FB78081254
:1056E00031A5900B97123288900B971231FBEF5433
:1056F00040FFEE5400FEED5400FDEC5400FCEC4D78
:105700004E4F601E9009FCE0FFEF4402FF9009FC41
:10571000EFF0800E9009FCE0FFEF4404FF9009FCDD
:10572000EFF01228001280CAE5B720E510900B9B1D
:10573000E0FF7E00EF645A4E60030255BA900B9B67
:10574000E0FFEF54A5FF900B9BEFF012722590093C
:10575000FEE0FFEF4402FF9009FEEFF00255BA228F
:10576000900A3DE0FFEF547FFF900D4CEFF0900D5D
:105770004CE0FF900A3DE0FEEE547FFEEEC39F50EA
:105780000E900A3DE0FFEF547FFF900D4CEFF0903C
:105790000A08E0FEA3E0FFEF4E6003025869900D97
:1057A0004CE0FF7E00C3EF9401EE64809480501DB6
:1057B0009009FFE0FFEF4402FF9009FFEFF090092E
:1057C000FFE0FFEF54DFFF9009FFEFF022900D4C58
:1057D000E0FF7E00D3EF9403EE64809480506D90E0
:1057E0000C30E0FF7E00D3EF9405EE64809480508F
:1057F0001E9009FFE0FFEF4402FF9009FFEFF090D9
:1058000009FFE0FFEF54DFFF9009FFEFF0801C90ED
:1058100009FFE0FFEF54FDFF9009FFEFF09009FF53
:10582000E0FFEF54DFFF9009FFEFF0900C30E00451
:10583000F0900C30E0FF7E00C3EF940AEE64809499
:10584000805003025930900C30E4F0229009FFE0C0
:10585000FFEF54FDFF9009FFEFF09009FFE0FFEF2D
:105860004420FF9009FFEFF022900D4CE0FF7E00F6
:10587000D3EF9403EE64809480501D9009FFE0FF05
:10588000EF4401FF9009FFEFF09009FFE0FFEF54B4
:10589000EFFF9009FFEFF022900D4CE0FF7E00D368
:1058A000EF940AEE64809480506A900C30E0FF7EA2
:1058B00000C3EF9405EE64809480501E9009FFE0D1
:1058C000FFEF4401FF9009FFEFF09009FFE0FFEFC9
:1058D00054EFFF9009FFEFF0801C9009FFE0FFEF0D
:1058E00054FEFF9009FFEFF09009FFE0FFEF54EF47
:1058F000FF9009FFEFF0900C30E004F0900C30E0E6
:10590000FF7E00C3EF940AEE648094804022900CE6
:1059100030E4F0229009FFE0FFEF54FEFF9009FF12
:10592000EFF09009FFE0FFEF4410FF9009FFEFF068
:1059300022E0900ACBFF75F0021232C5E0FCA3E032
:10594000FDEF900AB575F0020232C5F582E4340A23
:10595000F583E4F074CF2FF582E4340AF583E4F0A4
:10596000900ABDEF75F0020232C5900B53E075F05E
:1059700002900ABD1232C5E0FCA3E0C39FEE648032
:10598000F8EC648098229EFEC3900B55E09FEE6475
:1059900080F8900B54E06480982274B92FF582E46B
:1059A000340AF58322900B53E0FF75F002900AADA4
:1059B0000232C5F583E4F0FFFEFDFCAB25AA24A965
:1059C00023A822C3023194900B54E0FD900ACB75BA
:1059D000F0020232C5900B57E0FFC3952A22F583EF
:1059E000E004F074B12FF582E4340A22900B53E006
:1059F00024BBF582E4340AF58322900B53E024CFD4
:105A0000F582E4340AF58322900B56E0C3940374C4
:105A1000809480227D0A122EB9AD037C00122EA73D
:105A2000900B5CE0FD900AAD22900B53E0FF24C187
:105A3000F582E4340A22E0FCA3E0FD75F002EF9069
:105A40000ACB1232C5ECF0A3EDF022E5255529FF73
:105A5000E5245528FEE5235527FDE522552622900D
:105A60000B57E004F0227E00900C3BE0FCA3E0FD2D
:105A7000122EA78EE78FE622E0FEA3E0C39DFFEE85
:105A80009C22900ACAE0FF3395E0FE22A4FFE0C307
:105A90009FE5F06480F874809822900B567401F0B2
:105AA00022900B53E0FF24B1F582E4340A22900ADD
:105AB000CAE0FB3395E0FAFEEB22E0FF900B58E0E2
:105AC000FEEFC39E229FEE6480F8EA6480982290E5
:105AD0000B52E0FF900C39E0229009FEE0FFEF301E
:105AE000E603025C679009FCE0FFEF30E41E9009DA
:105AF000FEE0FFEF20E215900C33E4F09009FEE0A9
:105B0000FFEF4404FF9009FEEFF0C2DB900C33E09E
:105B1000FFEF1233F25B2E005B53015B82025BA34B
:105B2000035BC2045BFF055C290600005C67D2C210
:105B3000900C337401F09009FFE0FFEF4480FF9078
:105B400009FFEFF0900A00E0FFEF4440FF900A00E9
:105B5000EFF022900C34E475F001122F0E900C340B
:105B6000E0FEA3E0FFD3EF9409EE94005003025C43
:105B700067900C34E4F0A3E4F0D2C0900C33E0045E
:105B8000F0229009FCE0FFEF30E403025C67900C28
:105B900033E004F09009FFE0FFEF547FFF9009FF2E
:105BA000EFF022C2C2900C34E4F0A3E4F0900C3386
:105BB000E004F09009FEE0FFEF54FBFF9009FEEFD8
:105BC000F022900C34E475F001122F0E900C34E0AA
:105BD000FEA3E0FFD3EF9409EE94005003025C674C
:105BE000900C34E4F0A3E4F0C2C0900A00E0FFEFB0
:105BF00054BFFF900A00EFF0900C33E004F02290C5
:105C00000C34E475F001122F0E900C34E0FEA3E08A
:105C1000FFD3EF9470EE9417404D900C34E4F0A352
:105C2000E4F0900C33E004F022900C34E475F001C1
:105C3000122F0E900C34E0FEA3E0FFD3EF94B0EEF1
:105C400094044014900C34E4F0A3E4F0900C33E09E
:105C500004F0C2DBC2C08004D2DBD2C09009FCE0F9
:105C6000FFEF30E402C2DB229009FCE0FFEF30E2FC
:105C700013900CCAE4F09009FCE0FFEF54FEFF9093
:105C800009FCEFF09009FCE0FFEF30E008900CCA4F
:105C9000E004F0801F900CCAE0FF7E00D3EF94C8B0
:105CA000EE648094804003025DCB9009FCE0FFEF3E
:105CB00020E00122900CCAE0FF7E00EF643C4E70B1
:105CC0007F900A01E0FFEF4402FF900A01EFF0909D
:105CD00009FFE0FFEF54FEFF9009FFEFF09009FF8E
:105CE000E0FFEF54FDFF9009FFEFF09009FFE0FFA8
:105CF000EF54FBFF9009FFEFF09009FFE0FFEF5436
:105D0000F7FF9009FFEFF09009FFE0FFEF4410FF6D
:105D10009009FFEFF09009FFE0FFEF4420FF9009AA
:105D2000FFEFF09009FFE0FFEF4440FF9009FFEF25
:105D3000F09009FFE0FFEF4480FF9009FFEFF022B1
:105D4000900CCAE0FF7E00EF64644E707E900A0102
:105D5000E0FFEF4404FF900A01EFF09009FFE0FF3D
:105D6000EF4401FF9009FFEFF09009FFE0FFEF44DF
:105D700002FF9009FFEFF09009FFE0FFEF4404FFFE
:105D80009009FFEFF09009FFE0FFEF4408FF900952
:105D9000FFEFF09009FFE0FFEF54EFFF9009FFEFF6
:105DA000F09009FFE0FFEF54DFFF9009FFEFF09064
:105DB00009FFE0FFEF54BFFF9009FFEFF09009FFEC
:105DC000E0FFEF547FFF9009FFEFF022C0E0C0F04A
:105DD000C083C082C0D075D000C000C001C002C066
:105DE00003C004C005C006C0077F007E8312877D04
:105DF000128548900A2EE475F001122F0E900A3099
:105E0000E004F0900A31E004F0900A32E004F090EF
:105E10000A33E004F0900A34E004F0900A34E0FF22
:105E2000EF75F00384AFF07E00EF4E7013900A051B
:105E3000E0FFEF4420FF900A05EFF0900A34E4F011
:105E4000900A33E0FFEF75F00584AFF07E00EF4E6F
:105E50007013900A05E0FFEF4410FF900A05EFF081
:105E6000900A33E4F0900A32E0FFEF75F01484AF4B
:105E7000F07E00EF4E7013900A05E0FFEF4402FF42
:105E8000900A05EFF0900A32E4F0900A31E0FFEF5B
:105E900075F03284AFF07E00EF4E7013900A05E08B
:105EA000FFEF4404FF900A05EFF0900A31E4F09010
:105EB0000A2EE0FEA3E0FF7C037DE8122EB9ED4C34
:105EC0007016900A05E0FFEF4408FF900A05EFF016
:105ED000900A2EE4F0A3E4F0900A30E0FFEF75F0B2
:105EE0006484AFF07E00EF4E7013900A05E0FFEF80
:105EF0004401FF900A05EFF0900A30E4F0127CA60E
:105F0000D007D006D005D004D003D002D001D000F5
:105F1000D0D0D082D083D0F0D0E032751000751888
:105F20000075170075160075150012283E50030203
:105F3000604B1285198F148E138D128C11750F0002
:105F4000E50FC3952A5051AF14AE13AD12AC1178C2
:105F5000011231A58F148E138D128C1130D7357F1D
:105F6000017E007D007C00AB0F74B32BF582E4341E
:105F70000AF583E0F9A8011231B8E5184FFFE517DB
:105F80004EFEE5164DFDE5154CFC8F188E178D164F
:105F90008C150510050F80A8AF107E00C3EF94028A
:105FA000EE64809480401ED208AF107E00C3EF9450
:105FB00003EE6480948040051228468008128A34DB
:105FC000EF6002C20820082C7F007E007D007C006C
:105FD000AB18AA17A916A815C3123194600C900A21
:105FE000C8E475F001122F0E8020900AC8E4F0A3D7
:105FF000E4F08016900AC5E475F001122F0E7518B2
:1060000000751700751600751500128A13900AC8DE
:10601000E0FCA3E0FDD3ED9FEC9E400B12284690E0
:106020000AC8E4F0A3E4F0900AC5E0FEA3E0FFD3C1
:10603000EF942CEE94014020122846900AD174016E
:10604000F0900AC5E4F0A3E4F0800D908B68E4932F
:10605000FE740193FF126061AF18AE17AD16AC1558
:1060600022900B52EFF0900C3F125A0B403EE4F09E
:10607000900AD1E0702B900B53F0900B53E0C39536
:106080002A501EE0FF1259CCE0FCA3E0FD75F0029F
:10609000EF1259ADECF0A3EDF0900B53E004F0805B
:1060A000D9128393C209E4900AD1F022900C39E00E
:1060B00004F0125ACFB507081289DDE4900C3AF0CB
:1060C000125ACFD39F5003026192E4900B53F09089
:1060D0000B53E0C3952A507A125931125A78AD0702
:1060E000FC900AD1E0702E125AAE7802C333CE3340
:1060F000CED8F9FFD3ED12597C4046E49BFFE49AD9
:10610000FEEF7802C333CE33CED8F9FFC3ED125978
:106110007C502E803D125AAE7803C333CE33CED896
:10612000F9FFD3ED12597C4018E49BFFE49AFEEF8F
:106130007803C333CE33CED8F9FFC3ED12597C4078
:1061400011900B53E0FF126A07900B53E004F0022A
:1061500060CF900B53E0B52A06900C3AE004F09023
:106160000B52E0FD75F008900C39125A8C4023E474
:10617000F0C208900C3FE004F0ED75F004900C3A8A
:10618000125A8C400DE4900C3FF012882212839337
:10619000C20922900C2712329400000000900C2CAF
:1061A000123294000000007F007E017D007C009090
:1061B0000C2C123217C312319440030262BB900CB4
:1061C0002712329400000000900C2B7401F0900C08
:1061D0002BE0FF7E00EF4E700302627F900C2712CF
:1061E00031FBEF5401FFEE5400FEED5400FDEC5482
:1061F00000FC7B007A0079007800C312319460289B
:10620000900C271231FB78011231A5900C27123225
:1062100088900C271231FB9004B0123217123156BD
:10622000900C271232888011900C271231FB7801D4
:106230001231A5900C27123288900C2BE0FFE4FC61
:10624000FDFE900C2C1232171231497B007A007936
:10625000007800C31231946015900C271231FB9026
:1062600004B0123217123156900C27123288900C5B
:106270002BE0FFEF25E0FF900C2BEFF00261CE90BA
:106280000C271231FB900C2C1232179004B475F0CD
:1062900004EB1232C5EA25E025E02583F5831232AE
:1062A00088900C2C1231FB7B017A00790078001267
:1062B000306E900C2C1232880261A7229009FCE00B
:1062C000FFEF20E2030263B1900CC9E0FF7E00D330
:1062D000EF9400EE64809480500302639E900CC99A
:1062E000E0FF7E00C3EF940AEE64809480400302D6
:1062F000639E900A00E0FFEF30E427900A00E0FF81
:10630000EF30E51E900A00E0FFEF54DFFF900A0037
:10631000EFF0900A00E0FFEF54EFFF900A00EFF07B
:10632000807C900A00E0FFEF30E527900A00E0FF54
:10633000EF20E41E900A00E0FFEF54DFFF900A0018
:10634000EFF0900A00E0FFEF4410FF900A00EFF03A
:10635000804C900A00E0FFEF30E427900A00E0FF55
:10636000EF20E51E900A00E0FFEF4420FF900A00B6
:10637000EFF0900A00E0FFEF4410FF900A00EFF00A
:10638000801C900A00E0FFEF4420FF900A00EFF02D
:10639000900A00E0FFEF54EFFF900A00EFF0900C3E
:1063A000C9E4F09009FCE0FFEF54FDFF9009FCEF19
:1063B000F09009FCE0FFEF30E107900CC9E004F039
:1063C00022900CC9E0FF7E00D3EF94C8EE64809465
:1063D0008050059009FCE0FF22900AE212329400FE
:1063E000000000900AE612329400000000900A6D4E
:1063F0001231FB900AE6123217C3123194506943EE
:10640000CF10900AE61231FBEF2400FFEE3492FE2B
:10641000ED3400FDEC3400FC128841900AEAEFF004
:10642000900AE21231FBC004C005C006C0077B0120
:106430007A0A79EA900B6912329400000001D007C1
:10644000D006D005D004127741900AE2123288902B
:106450000AE61231FB7B017A007900780012306E77
:10646000900AE61232888085900A781231FB900AF1
:10647000E2123217C31231947075900A6D1231FB1B
:10648000900AD6123288900A781231FB900ADA12FA
:106490003288900A71E0FF900AD2EFF0900A72E021
:1064A000FF900AD3EFF0900A73E0FF900AD4EFF068
:1064B000900A74E0FF900AD5EFF0900ADE12329451
:1064C000A55A0FF07B017A0A79D2C003C002C0013D
:1064D0007B017A0B7942A801AC02AD03D001D00256
:1064E000D0037E007F10122DB212875A7F01227FC7
:1064F0000022900A3F1232D1900BB07414F0900B2E
:10650000B17402F07F007E007D007C001273667E15
:1065100000EF4E701D900A3F1232D1900BB07414F0
:10652000F0900BB17402F07F007E007D007C0012C1
:106530007366900A3F1232D1758202758300122F62
:1065400065FFAEF0C3EF94FFEE94FF5016900A3C47
:10655000E0FFEF54FDFF900A3CEFF07F007E001259
:106560007C4722900A3F1232D1900BB07414F09005
:106570000BB17402F07F007E027D007C0012736616
:106580007E00EF4E701D900A3F1232D1900BB07416
:1065900014F0900BB17402F07F007E027D007C004D
:1065A000127366900A3F1232D1758202758300120F
:1065B0002F65FFAEF0C3EF94FFEE94FF5016900AE4
:1065C0003CE0FFEF4402FF900A3CEFF07F007E02C8
:1065D000127C4722900A3CE0FFEF54FDFF900A3CFA
:1065E000EFF07F007E02127C477E007F147D0090DA
:1065F0000A3F1232D112341E9009FEE0FFEF4440F0
:10660000FF9009FEEFF022900B52123288900B5748
:10661000E5F4F0A2AFE433A3F0AFDFA3E4F0A3EF1F
:10662000F0C2AFE4FFFE7D01FC900B52E0F8A3E066
:10663000F9A3E0FAA3E0FBC312319440787F007E17
:10664000807D017C00900B52E0F8A3A3A3E01231FF
:1066500094501DE5DF54CF4420F5DF900B52E0FC51
:10666000A3E0FDA3E0FEA3E02400FFEE348080342D
:10667000E4FFFE7D02FC900B52E0F8A3E0F9A3E0FA
:10668000FAA3E0FBC31231945033E5DF54CF44301A
:10669000F5DF900B52E0FCA3E0FDA3E0FEA3E024B5
:1066A00000FFE43EFEED34FFFDEC34FFFC900B52A6
:1066B0001232888008E5DF54CF4410F5DFE4F5F4AA
:1066C000900B56E0F5F5900B52E0FCA3E0FDA3E043
:1066D000FEA3E0FF78081231A58FF3900B52A3A31D
:1066E000A3E0F5F275F1F075F61043F60200000034
:1066F0000080050000000000900B57E0F5F4900BBF
:1067000059A3E0F5DF900B58E024FF92AF22900BE5
:10671000D6123288E598542FFF900BDEE0FEEF4E44
:10672000FF900BE0E0FEEF4EF598900BDEE0FF7E71
:1067300000EF4E70337F007E007D007C00900BDA0E
:10674000123217C312319470045398DF227F017EF6
:10675000007D007C00900BDA123217C31231946076
:106760000302681043982022E5C854CFFF900BDF46
:10677000E0FEEF4EF5C8900BDFE0FF7E00EF4E70BD
:1067800040900BDA123217900BD61231FB1230B751
:106790007B007A01790078001230B78F8D900BDA88
:1067A000123217900BD61231FB1230B7EF54FFFFA5
:1067B000EE5400FEED5400FDEC5400FC8F8BC28EB5
:1067C00022900BDFE0FF7E00EF64304E704275CE0A
:1067D00002900BDA123217900BD61231FB1230B73F
:1067E0007B007A01790078001230B78FCB900BDAFA
:1067F000123217900BD61231FB1230B7EF54FFFF55
:10680000EE5400FEED5400FDEC5400FC8FCAD2CAD9
:1068100022900B52123288900B56E5F4F0A2AFE4AE
:1068200033A3F0AFDFA3E4F0A3EFF0C2AFE4FFFEC9
:106830007D01FC900B52E0F8A3E0F9A3E0FAA3E09D
:10684000FBC312319440787F007E807D017C0090F4
:106850000B52E0F8A3A3A3E0123194501DE5DF54DE
:10686000CF4420F5DF900B52E0FCA3E0FDA3E0FE57
:10687000A3E02400FFEE34808034E4FFFE7D02FCC0
:10688000900B52E0F8A3E0F9A3E0FAA3E0FBC312F7
:1068900031945033E5DF54CF4430F5DF900B52E0B4
:1068A000FCA3E0FDA3E0FEA3E02400FFE43EFEED38
:1068B00034FFFDEC34FFFC900B521232888008E567
:1068C000DF54CF4410F5DFE4F5F4900B52E0FCA365
:1068D000E0FDA3E0FEA3E0FF78081231A58FF3905E
:1068E0000B52A3A3A3E0F5F275F1F075F62043F681
:1068F000020000000080050000000000900B56E040
:10690000F5F4900B58A3E0F5DF900B57E024FF92CD
:10691000AF22C0E0C0F0C083C082C0D075D000C03C
:1069200000C001C002C003C004C005C006C00753B8
:10693000B7BFE5B720E5030269ECC2AF7B007D0479
:106940007F0012538B7B007D107F0012538B7B00E6
:106950007D087F0412538B7B007D047F0412538BD0
:106960007B007D027F0412538B7B007D807F0312AE
:10697000538B7B007D207F0312538B7B007D107F28
:106980000312538B7B007D087F0312538B7B007DAA
:10699000047F0312538B7B007D027F0312538B7B9A
:1069A000007D017F0112538B7B007D047F01125318
:1069B0008B7B007D107F0112538B7B007D207F023B
:1069C00012538B7B007D407F0212538B7B007D80B6
:1069D0007F0212538B7B007D017F0012538B7B0063
:1069E0007D027F0012538B127225D2AFD007D006E2
:1069F000D005D004D003D002D001D000D0D0D082B6
:106A0000D083D0F0D0E032900B54EFF0F91259312E
:106A1000125A78900B55F0A3EFF0AF01128298ADA7
:106A200007AC06900B55E0FEA3E0FFD39DEC64801D
:106A3000F8EE6480985014C3E49DFBE49CFAC3EF25
:106A40009BEA6480F8EE648098500E900B54E0FF4F
:106A5000125942125A36026AEBECA2E713FEED130A
:106A6000FF900B55E0FAA3E0FBD3125AC55016EC89
:106A7000A2E713FEED13FFC3E49FFFE49EFEC3EB0A
:106A8000125AC550231259C7E0FAA3E0FBEAC31318
:106A9000FEEB13FFC3EB9FFBEA9EFAED125942E0B7
:106AA000C313FEA3E01380321259C7E0FAA3E0FB40
:106AB000AE027803CEC313CE13D8F9FFC3EB9FFB0E
:106AC000EA9EFA75F002ED900AB51232C5E0FEA317
:106AD000E07803CEC313CE13D8F92BFFEA3EFE9025
:106AE0000B54E01259CCEEF0A3EFF0900B54125976
:106AF00031ECF0A3EDF022900B221232F19001A8BC
:106B0000E0FF7E00EF4E60399001A8E0FF7E00EFCD
:106B100064034E602C900B221232D1C003C002C01D
:106B200001900B2F1232D189828A83D001D002D0FA
:106B30000312341C9001A8E4F09001A9E4F0A3E44E
:106B4000F09001A8E0FF7E00EF64034E705F9001BB
:106B5000ADE4F0A3E4F09001A87401F07B017A01A8
:106B600079AFC003C002C001900B251232D1900C46
:106B70004E1232F1D001D002D003127F07EF600332
:106B80007F02227B017A0179AFC003C002C001906D
:106B90000B281232D1900C4E1232F1D001D002D01B
:106BA00003127F07EF60037F03227F00229001A979
:106BB000E0FEA3E0FFE4FCFD900B2B123217C312A2
:106BC0003194500E9001A9E4F0A3E4F09001A87470
:106BD00001F07F00227B027D047F0012538B7B0239
:106BE0007D107F0012538B7B017D207F0012538B21
:106BF0007B027D087F0512538B7B027D087F041288
:106C0000538B7B027D047F0412538B7B027D027FBA
:106C10000412538B7B027D807F0312538B7B027D9A
:106C2000207F0312538B7B027D107F0312538B7BDB
:106C3000027D087F0312538B7B027D047F03125376
:106C40008B7B027D027F0312538B7B027D017F01D0
:106C500012538B7B027D047F0112538B7B027D10CC
:106C60007F0112538B7B027D207F0212538B7B02AC
:106C70007D407F0212538B7B027D807F0212538BFB
:106C80007B027D017F0012538B7B027D027F00120D
:106C9000538BD280C281D294C2A5D2A6C2A7D2847D
:106CA000C282229009FCE0FFEF30E6139009FCE07D
:106CB000FFEF54BFFF9009FCEFF07F02126EDF90F0
:106CC0000A05E0FFEF30E513900A05E0FFEF54DF1F
:106CD000FF900A05EFF07F13126EDF900A05E0FFC8
:106CE000EF30E413900A05E0FFEF54EFFF900A0540
:106CF000EFF07F14126EDF900A05E0FFEF30E11332
:106D0000900A05E0FFEF54FDFF900A05EFF07F15B4
:106D1000126EDF900A05E0FFEF30E213900A05E003
:106D2000FFEF54FBFF900A05EFF07F16126EDF9025
:106D30000A05E0FFEF30E013900A05E0FFEF54FE94
:106D4000FF900A05EFF07F17126EDF900A05E0FF53
:106D5000EF30E313900A05E0FFEF54F7FF900A05C8
:106D6000EFF07F18126EDF22900CE8E4F0A3E4F05D
:106D7000900CEAE4F01287E2900C67123294000063
:106D800092007F007E287D007C00128151900CE8EB
:106D9000E4F0A3E4F0900CE8E0FEA3E0FFE4FCFDE7
:106DA000900A61123217D3123194405843CF109099
:106DB0000CE8E0FEA3E0FFE4FCFDEF2400FFEE346E
:106DC00092FEED3400FDEC3400FC128841900CEA98
:106DD000EFF0900CE8E0FEA3E0FFEF2400FFEE34BC
:106DE00028FEE4FCFD900CEAE0FB900CAFEBF01207
:106DF0008710EF70037F0022900CE8E475F0011219
:106E00002F0E8091900BCFE4F0A37410F07B017AE9
:106E10000A795D900BD11232F17FF07E917D007C7A
:106E2000001276387F0122900BE1EEF0A3EFF09094
:106E30000BE31232F1900BE674FF123255EC4D4E1B
:106E40004F7003026ED6900BE1E0FCA3E0FD900BC7
:106E5000E3E475F0011232DA122DD8FF7E00EF7FE5
:106E600000FEEC6EFEED6FFF900BE1EEF0A3EFF095
:106E7000900BEAE4F0900BEAE0FF7E00C3EF940889
:106E8000EE6480948050AE900BE1E0FEA3E0FFEE54
:106E900030E721900BE1E0FEA3E0FFEF25E0FFEEFD
:106EA00033FEEE6410FEEF6421FF900BE1EEF0A3E1
:106EB000EFF08017900BE1E0FEA3E0FFEF25E0FF8D
:106EC000EE33FE900BE1EEF0A3EFF0900BEAE0045E
:106ED000F080A2026E35900BE1E0FEA3E0FF22906D
:106EE0000D1AEFF09009FAE0FF7E00C3EF9414EE64
:106EF0006480948040059009FAE4F0900D1BE4F062
:106F00009009FAE0FF900D1BE0FEEED39F506390D6
:106F10000D1BE0FF741A2FF582E4340AF583E0FFBD
:106F2000900D1AE0FEEE6F7041900D1AE0FF7E00AA
:106F3000EF64154E6034900D1AE0FF7E00EF64168A
:106F40004E6027900D1AE0FF7E00EF64174E601A26
:106F5000900D1AE0FF7E00EF64184E600D900D1A40
:106F6000E0FF7E00EF64144E7024900D1BE004F0EF
:106F7000808E900D1AE0FF9009FAE0FE741A2EF54B
:106F800082E4340AF583EFF09009FAE004F02290ED
:106F90000BB5EEF0A3EFF0900BB71232F1900BB7F8
:106FA0001232D1900BBD1232F1900BBBE4F0900B7A
:106FB000BBE0FF7E00C3EF9414EE648094805078B1
:106FC000900BBBE0FF7E00900BB5E0FCA3E0FDEF73
:106FD0002DFFEE3CFE900BBD1232D1900BBBE0FDBD
:106FE0008D82758300122DF1FD127BE4900BBBE0C6
:106FF000FF7E00900BB5E0FCA3E0FDEF2DFFEE3C23
:10700000FEE4FCFD900C6F7402F0127E0C900BBC41
:10701000EFF0900BBD1232D1900BBBE0FF8F827569
:107020008300122DF1FF900BBCE0FEEEB5079190AE
:107030000BBBE004F0026FAE7F0122900CFDEFF07D
:10704000900CFEEDF0900CFFEBF0900CFDE0FFEFEC
:107050001233F270630070710270930370B9040010
:107060000070DE900CFEE0FF900CFFE0FD1284E962
:1070700022900CFEE0FF7E00EF4E7004C2AD800255
:10708000D2AD900CFFE0FF7E00EF4E7003C2BD2238
:10709000D2BD22900CFEE0FF7E00EF4E700553A99A
:1070A000BF800343A940900CFFE0FF7E00EF4E70CD
:1070B0000453B9BF2243B94022900CFEE0FF7E008A
:1070C000EF4E700553A97F800343A980900CFFE029
:1070D000FF7E00EF4E700453B97F2243B9802290A7
:1070E0000CEEEFF0900CEFEDF0900CEEE0FFEF54B3
:1070F000F0FF7E00EF4E7042900CEFE0FF7E00EF5D
:1071000064014E7019900CEEE0FFEF540FFFA807DA
:107110007401088002C333D8FCFFEF42D322900CE5
:10712000EEE0FFEF540FFFA8077401088002C3339D
:10713000D8FCFFEFF4FFEF52D322900CEEE0FFEF0C
:1071400054F0FFEFC4540FF5CE900CEEE0FFEF309B
:10715000E008900CF07420F08006900CF07410F0B1
:10716000900CEFE0FF7E00EF64014E7009900CF090
:10717000E0FFEF42C922900CF0E0FFEFF4FFEF5286
:10718000C922900C1D123288900C25E5F4F0A2AFB4
:10719000E433FF900C26EFF0900C26E0FF7E00EF2A
:1071A0004E6002C2AF900C23E4F0900C22E0FF7E10
:1071B00000EF4E7015900C1D1231FB900C21E0FB7E
:1071C000900B56EBF0126607801B900C22E0FF7EBE
:1071D00000EF64024E700E900C1D1231FB900C21DA
:1071E000E0FD127BE4900C1D1231FB900C22E0FBC1
:1071F000900C6FEBF0127E0C900C24EFF0900C25AD
:10720000E0FF8FF4900C26E0FF7E00EF4E6002D28C
:10721000AF900C21E0FF900C24E0FEEE6F60037F46
:1072200000227F0122900A3CE0FFEF20E172900AE9
:107230003F1232D1758202758300E475F001122F7E
:10724000D5900A3F1232D1900BBA7414F07F007EB1
:1072500000126F8F7E00EF4E706C900A3F1232D199
:10726000900BBA7414F07F007E00126F8F7E00EFD7
:107270004E7053900A3F1232D1900BBA7414F07FC3
:10728000007E00126F8F7E00EF4E703A900A3F1220
:1072900032D1900BBA7414F07F007E02126F8F22ED
:1072A000900A3F1232D1758202758300E475F000B6
:1072B000123041900A3F1232D1900BBA7414F07F11
:1072C000007E02126F8F229009FFE0FF7E00EF4EDA
:1072D0007005C2B3C2B522D2B7D2B4D2B2D2B19085
:1072E0000A00E0FFEF30E33F900A00E0FFEF54F7C1
:1072F000FF900A00EFF0D2B3C2B59009FFE0FFEFB4
:1073000030E402C2B79009FFE0FFEF30E502C2B4FB
:107310009009FFE0FFEF30E602C2B29009FFE0FF04
:10732000EF30E741C2B122900A00E0FFEF4408FFCE
:10733000900A00EFF0C2B3D2B59009FFE0FFEF3042
:10734000E002C2B79009FFE0FFEF30E102C2B49063
:1073500009FFE0FFEF30E202C2B29009FFE0FFEF69
:1073600030E302C2B122900BA9123288900BAD1209
:1073700032F1900BB4E5F4F0A2AFE433FF900BB31D
:10738000EFF0900BB3E0FF7E00EF4E6002C2AF90D3
:107390000BB1E0FF8FF4900BB2E4F0900BA9123127
:1073A000FB8F828E83E493FF900BAD1232D1900B52
:1073B000B2E0FE8E82758300EF122E85900BA9122B
:1073C00031FB7B017A007900780012306E900BA9B6
:1073D000123288900BB0E0FF900BB2E004FEF0EEAA
:1073E000C39F40B7900BB4E0FF8FF4900BB3E0FF66
:1073F0007E00EF4E6002D2AF900BB2E0FF22900B06
:1074000012123288900B161232F1900B121231FBCD
:10741000900B1D123288126193900B1974FF123277
:1074200055EC4D4E4F6066900B1D1231FBEF54FF33
:10743000FFEE5400FEED5400FDEC5400FC900B21D7
:10744000EFF0900B1D1231FB78081231A5900B1D47
:10745000123288900B1D1231FB900B161232D11292
:107460002DD8FB900B21E0FAEA6BFB75F004EB9052
:1074700004B41232C5123217123156900B1D12325B
:1074800088900B17E475F001122F0E808C900B1D65
:107490001231FB22900CDBEFF0900CDCEDF0900C45
:1074A000DBE0FF7E00C3EF941FEE648094805065A4
:1074B000900CDBE0FF7E007401A807088005C33351
:1074C000CE33CED8F9FF900CDDEEF0A3EFF0900CA8
:1074D000DCE0FF7E00EF4E7022900CDDE0FEA3E0CA
:1074E000FFEFF4FFEF52AB900CDDE0FEA3E0FFEE08
:1074F000FF7E00EFF4FFEF52AC801A900CDDE0FE4F
:10750000A3E0FFEF42AB900CDDE0FEA3E0FFEEFF57
:107510007E00EF42ACE5AD54E0FF900CDBE0FEEF07
:107520004EF5AD22C2AF75FEC1AFFFD2AFEF543002
:10753000FD7C0070047920801CED64104C7004798F
:10754000108012ED64204C700479088008ED6430DE
:107550004C70027904E924F8601824F8602024F0C3
:107560006028241C7030900B547401F0A374F4F064
:107570008026900B547403F0A374E8F0801A900BEB
:10758000547407F0A374D0F0800E900B54740FF075
:10759000A374A0F08002E4F9900B54E07002A3E021
:1075A000600C900B5474FFF5F0122F0E80EA2275D8
:1075B000FE8543FF2053DB7FD2AFC209E4900C402D
:1075C000F0900AC7F0127D5DE4FF12803BEF2401CA
:1075D000FDE433FC7E0F7FA0122EB9900C3BEEF041
:1075E000A3EFF0E4FF12889C125A667F0212803BE0
:1075F000EFC454F0FEC006E4FF12803BD0E02FF54C
:10760000E17F0312803BE5E254804FF5E27F0412F4
:10761000803BEF6008E5E254804480F5E27F011290
:10762000803B8FE312839343A910900AB3E0448018
:10763000F5E8127A33028822900BCB123288900B35
:10764000D4E4F0A3E4F0900BCFE0FEA3E0FF900BB6
:10765000D4E0FCA3E0FDC3ED9FEE6480F8EC648011
:10766000985057900BD4E0FEA3E0FFEE3395E0FD79
:10767000FC900BCB12321712306EC004C005C0064E
:10768000C007900BD11232D1900BD4E0FEA3E0FFE3
:107690008F828E83122DF1FF900CAFEFF0D007D0C8
:1076A00006D005D004128710EF70037F0022900BE4
:1076B000D4E475F001122F0E808C7F01229009FB1B
:1076C000E0FF7E00C3EF9414EE64809480401D9030
:1076D00009FBE4F09009FBE0FF741A2FF582E43413
:1076E0000AF583E0FF900D4AEFF0804F9009FAE031
:1076F000FF9009FBE0FEEEC39F40129009FBE4F00F
:107700009009FAE4F0900D4A74FFF0802E9009FB86
:10771000E0FF741A2FF582E4340AF583E0FF900D40
:107720004AEFF09009FBE0FF741A2FF582E4340A67
:10773000F58374FFF09009FBE004F0900D4AE0FF40
:1077400022900B62123288900B661232F1900B6D10
:1077500012329400000000900B691231FB900B6D07
:10776000123217C31231945052900B621231FBC087
:1077700004C005C006C007900B6D1231FB900B666C
:107780001232D18F828E83122DF1FFAB07E4FAF90A
:10779000F8D007D006D005D00412306E900B6212DC
:1077A0003288900B6D1231FB7B017A0079007800F2
:1077B00012306E900B6D123288809C900B621231E9
:1077C000FB22900B5CEFF0128970900B5DEFF012D2
:1077D0007837900C3CE025E0FF900C3BE033FE7CDA
:1077E00000125A14125945E0FAA3E0C39FEA9E50D2
:1077F00009900B5DE0603F14802D127837900C3BB0
:10780000E0FEA3E0FF7C007D07122EA7125A14129F
:107810005964E0FAA3E0D39FEA9E401A900B5DE022
:10782000FF647E6011EF04FF74C32DF582E4340A17
:10783000F583EFF0D20922900B5CE0FF12889CEFF9
:10784000FB22900CEBEFF0900CECECF0A3EDF09041
:107850000CEBE0FFEF540FFF7E00EF4E7039900C01
:10786000EC74FF75F0FF122F0E900CEBE0FFEF545D
:10787000F0FFE5D254CFFEEE4FF5D2900CECE0FED7
:10788000A3E0FFEEFF7E008FD5900CECE0FEA3E0BE
:10789000FFEF54FFF5D422900CEBE0FFEF540FF50F
:1078A000CE900CEBE4F0900CECE0FEA3E0FFEEFFDA
:1078B0007E008FCB900CECE0FEA3E0FFEF54FFF5D1
:1078C000CA22900C7AEEF0A3EFF0900C7C1232F109
:1078D000900C7FE0FEA3E0FF900C7AE0FCA3E0FDBB
:1078E000ED2FFFEC3EFEE4FCFD7BF07A6979007839
:1078F00000C312317E50037F0022900C7AE0FEA379
:10790000E0FFE4FCFDEF2400FFEE3492FEED3400D6
:10791000FDEC3400FC900C7FE0FAA3E0FB900BCF71
:10792000EAF0A3EBF0900C7C1232D1900BD1123222
:10793000F11276387E00EF4E70037F00227F012225
:10794000900D45EFF0900D45E0FF9000191232D1F7
:10795000900015E0FCA3E0FD8D828C83EF122E8554
:10796000900015E475F001122F0E900017E475F0E9
:1079700001122F0E9000191232D1122DD8FF7E0065
:10798000EF64184E60129000191232D1122DD8FFF8
:107990007E00EF64044E7008900015E4F0A3E4F05C
:1079A000900015E0FEA3E0FFC3EF9485EE94004045
:1079B00008900015E4F0A3E4F022D292D290D2B362
:1079C000D2B5C2B7C2B4C2B2C2B17DD07C077F0209
:1079D00012289E900A05E0FFEF30E0F743CF1090A9
:1079E0000C36E004F0900A05E0FFEF54FEFF900A29
:1079F00005EFF0900C36E0FF7E00C3EF941EEE64BE
:107A0000809480501D900C36E0FF7E00C3EF9402FE
:107A1000EE6480948040BC7D007C007F0212289E32
:107A200080B1C2B3C2B5C2B7C2B4C2B2C2B1C2920F
:107A3000C29022900B527420F01286EBE4900B530C
:107A4000F0900B53E0FFC3952A5021E0FE125942FB
:107A5000E0FCA3E0FD75F002EE1259ADECF0A3EDF1
:107A6000F01277C2900B53E004F080D5900B52E0F7
:107A7000FF14F0EF70C31289DD128A29900B52EFC8
:107A8000F01286EBE4900B53F0900B53E0FFC3959C
:107A90002A500B126A07900B53E004F080EB900B16
:107AA00052E0FF14F0EF70D9222085189009FCE015
:107AB000FFEF20E30F9009FCE0FFEF4408FF90097F
:107AC000FCEFF0222085349009FCE0FFEF30E32B3F
:107AD0000000000000000000000020850F9009FC5D
:107AE000E0FFEF4410FF9009FCEFF0229009FCE06A
:107AF000FFEF54F7FF9009FCEFF0229009FCE0FF44
:107B0000EF54EFFF9009FCEFF09009FCE0FFEF5419
:107B1000F7FF9009FCEFF022900BC0123288900B17
:107B2000C9E4F0A3E4F0900BC4E0FEA3E0FF900BE7
:107B3000C9E0FCA3E0FDC3ED9FEE6480F8EC648037
:107B400098503C900BC9E0FEA3E0FFEE3395E0FDBA
:107B5000FC900BC012321712306E128841900BC687
:107B60001232D1900BC9E0FCA3E0FD8D828C83EF33
:107B7000122E85900BC9E475F001122F0E80A722FA
:107B8000750800750900750D02750C40750B0075C0
:107B90000A00750800AF087E00C3EF941FEE6480F2
:107BA0009480503CAF0DAE0CAD0BAC0A7801123195
:107BB000A58F0D8E0C8D0B8C0A30D720AF0974B3B6
:107BC0002FF582E4340AF583E508F00509AF097E54
:107BD00000C3EF9402EE648094805004050880B5E1
:107BE00085092A22AB07AA06900B5EE5F4F0A2AF46
:107BF000E433A3F0AFDFA3E4F0A3EFF0C2AF75F47A
:107C000002AF058FF5EAF5F3AF038FF2AFF3EFFEA6
:107C1000ADF27C00E42DEC3EC39418501475F1F0E5
:107C200075F61043F6020000000080050000000019
:107C300000900B5EE0F5F4900B60A3E0F5DF900B95
:107C40005FE024FF92AF22AD07AC06900B52E5F443
:107C5000F0A2AFE433A3F0AFDFA3E4F0A3EFF0C2F0
:107C6000AF75F402ECF5F3AF058FF2AFF3EFFEADB5
:107C7000F27C00E42DEC3EC39418501475F1F075BD
:107C8000F62043F60200000000800500000000001E
:107C9000900B52E0F5F4900B54A3E0F5DF900B53FA
:107CA000E024FF92AF22900AEBE004F0900AEBE0B0
:107CB000FFEF1233F27CC5017CC9027CD4037CE661
:107CC0000800007CEA122806227D017F01127494CC
:107CD00043AD40221288EFAC06AD07E4122C289089
:107CE00009EE1232882212280622900AEBE0FF7E6B
:107CF00000C3EF940AEE648094804005900AEBE4A0
:107D0000F022C20C900C40E0125942E5E5F0A3E5E8
:107D1000E4F0900C40E004F0E0C3952A400BE4F05E
:107D2000900AC7E04480F08002D20C900C40E0FF43
:107D300012889C125A66900C40E0FF128970E5E2AE
:107D400054804FF5E2900C40E024B3F582E4340A0D
:107D5000F583E04480F5E8300C02D2EE22908B5E91
:107D6000E493FE740193FF900AACEFF0908B78E4FB
:107D700093FE740193FF900ACAEFF0127B80750E98
:107D800000E50EC3952A5025AF0EEF75F008A42428
:107D90007EF582E4348BF583E493FFAE0E74C32E3C
:107DA000F582E4340AF583EFF0050E80D4900AC81A
:107DB000E4F0A3E4F022900CB5EFF0900CB5E0FFF6
:107DC000EF6022900BC4E4F0A37404F07B017A0C02
:107DD00079B6900BC61232F17F007E947D007C0054
:107DE000127B188020900BC4E4F0A37404F07B0194
:107DF0007A0C79B6900BC61232F17F007E2A7D0094
:107E00007C00127B18900CB61231FB22900C6B1286
:107E10003288900C72E5F4F0A2AFE433FF900C715D
:107E2000EFF0900C71E0FF7E00EF4E6002C2AF9069
:107E30000C6FE0FF8FF4900C6B1231FB8F828E83FE
:107E4000E493FF900C70EFF0900C72E0FF8FF490D1
:107E50000C71E0FF7E00EF4E6002D2AF900C70E03C
:107E6000FF22900D03EEF0A3EFF0900D05EDF090E2
:107E70000D05E0FF7E00EF4E7021900D03E0FEA3A4
:107E8000E0FFEFF4FFEF52AB900D03E0FEA3E0FF45
:107E9000EEFF7E00EFF4FFEF52AC22900D03E0FE08
:107EA000A3E0FFEF42AB900D03E0FEA3E0FFEEFF87
:107EB0007E00EF42AC22900D44EFF0900D44E0FFC5
:107EC0009001ADE0FCA3E0FD74AF2DF58274013CA0
:107ED000F583EFF09001ADE475F001122F0E9001E3
:107EE000ADE0FEA3E0FFD3EF9400EE9402400890D3
:107EF00001ADE4F0A3E4F0900D44E0FFEFB40D0613
:107F00009001A87403F022900C4B1232F1900C51A6
:107F1000E4F0A3E4F0900C4E1232D1122DD8FFEF12
:107F20006032900C4B1232D1900C51E475F001127A
:107F30002F24AFF0FE8F828E83122DF1FF900C4E16
:107F4000E475F0011232DA122DD8FEEF6E60C67FB2
:107F5000002280C17F0122900C731232F19091F0C7
:107F6000E493FF900C79EFF0902A00123207900C06
:107F700079E02FF0900A447401F0900A45E4F0A3F0
:107F8000E4F0900A47E4F0A3E4F0900C761232D1CA
:107F9000900A491232F1900C731232D1900A751284
:107FA00032F122900CCFEFF0900CD0ECF0A3EDF07A
:107FB000900CD2EBF0900CCFE0FF900CD0E0FCA343
:107FC000E0FD12289E900CCFE0FF900CD2E0FD1255
:107FD00070DF900CD2E0FF7E00EF64014E700F90D6
:107FE0000CCFE0FFEFC4540FFF7D0112819422906B
:107FF0000D2AEFF0900D2BEDF0900D2AE0FF7E00A2
:10800000EF4E7005538EFE8010900D2AE0FF7E002B
:10801000EF64014E7003438E01900D2BE0FF7E0054
:10802000EF64014E70045389FB22900D2BE0FF7E1C
:1080300000EF64024E700343890422900D51EFF06B
:10804000900D51E0FFEF1233F2805C0080630180FD
:108050006A0280710380770400008082908B7AE44A
:1080600093FF22908B7BE493FF22908B7CE493FF21
:10807000227F0012897022908B6CE493FE7401932E
:10808000FF227F0022900D46EFF0900004E0FFEF0A
:108090001233F280A60080A60180AF0280B8038070
:1080A000A604000080C1900D46E0FF127EB622902B
:1080B0000D46E0FF12794022900D46E0FF127EB699
:1080C00022900D46E0FF127EB622126CA31276BDFE
:1080D000EF1233F280EA1380EE14810D1580F3164F
:1080E0008100178107180000810D1272C722123912
:1080F0009E22221262BC125C68127AA9125AD922FC
:108100001288601257602212454112810E22900996
:10811000FEE0FFEF30E639900C31E475F001122FEC
:108120000ED2C2D2C0D2C1D2C3900C31E0FEA3E0C5
:10813000FFD3EF9484EE94034016C2C2C2C0C2C102
:10814000C2C39009FEE0FFEF4440FF9009FEEFF04C
:1081500022900C63123288900C671231FB900C63F2
:10816000123217C3123194502A43CF10900C63126D
:1081700031FB12887E900C631231FBEF2400FFEE7E
:108180003402FEED3400FDEC3400FC900C6312323E
:108190008880C422900D22EFF0900D23EDF0900D19
:1081A00022E0FF7E00EF4E7013900D23E0FF7E0073
:1081B000EF4E600443D2802253D27F22900D22E002
:1081C000FF8FCE900D23E0FF7E00EF4E600443C88A
:1081D000042253C8FB22C0E0C0F0C083C082C0D0DC
:1081E00075D000C000C001C002C003C004C005C0FB
:1081F00006C0071286235398FD5398FED007D00679
:10820000D005D004D003D002D001D000D0D0D0828D
:10821000D083D0F0D0E032900CBFEFF0900CC012C1
:1082200032F1900CBFE0FF90000DEFF09000117460
