:10000000021100300003021003210330000302102C
:100010000B210B30000302101321133000030210D8
:100020001B211B3000030210232123300003021088
:100030002B212B3000030210332133300003021038
:100040003B213B30000302104321433000030210E8
:100050004B214B3000030210532153300003021098
:100060005B215B3000030210632163300003021048
:100070006B216B30000302107321733000030210F8
:100080007B217B30000302108321833000030210A8
:100090008B218B3000030210932193300003021058
:1000A0009B219B3000030210A321A3300003021008
:0300B000AB21ABD6
:10100000D2EE2202102EC284D28222024B38C29427
:10101000D2A522021036D294C2A52202103AC2A64C
:10102000D2A722026C72C280D2812202104253885F
:10103000FD322202103E5388F7323202104A53AD7D
:10104000DF3232021052127CB0223202105A1200E9
:101050000022320210617520FF22320277D6A209E7
:101060002232320258ACD2092232320210627F019F
:0A107000223232021069AFC72232AB
:03107B0002106AF6
:031083000274CD27
:03108B00021071DF
:03109300021072D6
:10109B00021079900E45EFF0900E46ECF0A3EDF0B8
:1010AB00900E45E0FFEF54F0FF7E00EF4E702253A1
:1010BB00D2FD900E46E0FEA3E0FF900E45E0FDED65
:1010CB0025E02440F582E43420F583EEF0A3EFF025
:1010DB0022900E46E0FEA3E0FF900E45E0FDED549E
:1010EB000FFDED25E02434F582E43420F583EEF09A
:0410FB00A3EFF0224D
:1011000078FFE4F6D8FD9000007F007E01E4F0A3B4
:10111000DFFCDEFA75812A0211550242B6E493A380
:10112000F8E493A34003F68001F208DFF48029E499
:1011300093A3F85407240CC8C333C4540F4420C8E5
:10114000834004F456800146F6DFE4800B0102047C
:101150000810204080903A93E47E019360BCA3FF86
:10116000543F30E509541FFEE493A360010ECF54B1
:10117000C025E060A840B8E493A3FAE493A3F8E4A0
:1011800093A3C8C582C8CAC583CAF0A3C8C582C80C
:10119000CAC583CADFE9DEE780BE900DF6EFF090A6
:1011A0000DF7ECF0A3EDF0900DF9EAF0A3EBF09061
:1011B0000DF6E0FFEF121BF211C80011D40111E08F
:1011C0000211EC03000011FF900DF7E0FEA3E0FF19
:1011D0001279FD22900DF7E0FEA3E0FF127A28229B
:1011E000900DF7E0FEA3E0FF127D0122900DF7E0E5
:1011F000FEA3E0FF900DF9E0FCA3E0FD127C942239
:1012000020230414EC4D6011E8497017ED33EC33E2
:1012100004600DE4FCFFFEFD22E933E8330470F8BE
:101220000214CD12149858046009E4CC24815006AD
:101230002850090214D72840030214D4C0E0EB4A16
:101240007044B98006D0E0FB0214C3EF4E701CBDA1
:101250008008EBFFEAFEE9FD80EBE98DF0A4FEE5F6
:10126000F00212EDE9CDF9EAFEEBFFEF89F0A4FC04
:10127000E5F0CE89F0A42EFFE435F0CD89F0A42D61
:10128000FEE435F08067EF4E7005BD80D780C3EF78
:101290008BF0A4ACF0EE8BF0A42CFCE435F0F8EF6E
:1012A0008AF0A42CE5F038FCE433CB8DF0A42CFCC0
:1012B000E5F03BF8EE8AF0A42CFCE5F038F8E433D6
:1012C000CF89F0A42CFCE5F038CF3400CE89F0A40F
:1012D0002FFFE5F03EFEE433C98DF0A42EFEE5F0CD
:1012E00039CD8AF0A42FFFE5F03EFEE43DFD33D07A
:1012F000E0FB50070BBB000F0214D7EC2CFCEF33C4
:10130000FFEE33FEED33FD0214AF0214D7EC5D04A3
:101310006005E8590470030214CD12149858046053
:10132000F6EC4860F2EC7004FDFEFF22C860DB249E
:1013300081C85009C398600250060214D49850CA5C
:10134000F582E9294B4A7005AB820214C375F0009F
:101350007C1A7880C3EF9BEE9AED99400DC3EF9B0A
:10136000FFEE9AFEED99FDE842F0DC23ACF0D0E010
:10137000FFD0E0FED0E0FDAB8220E7101BEB60BAAF
:10138000EC2CFCEF33FFEE33FEED33FD0214AFE83F
:1013900003F830E705C0F075F000EF2FFFEE33FEE5
:1013A000ED33FD40B830E7C280AA74F8CC6480CC3D
:1013B000C86480C8F58204604FC3EB9FF5F0EA9ED5
:1013C00042F0E99D42F0E89C45F0603C501DE5820A
:1013D0005FFFE582D313CB5BCBF42B5582FB502808
:1013E0000ABA002409B9002008801DE5825BFBE5EC
:1013F00082D313CF5FCFF4C3132F5582FF50090E52
:10140000BE00050DBD00010CC3EB9FF5F0EA9E4246
:10141000F0E99D42F0E89C45F06007CC4820E701E8
:10142000B3EC2275F020800E75F010800575F00881
:101430007D007E007F003392D530D503121970EC09
:10144000334010EF33FFEE33FEED33FDEC33FCD5CC
:10145000F0ED22E5F0247EA2D513CC92E7CDCEFFAD
:1014600022EDD2E7CD33EC3392D524814006E4FF60
:10147000FEFDFC22FCE4CFCECDCC24E0501174FF65
:1014800080EDC3CC13CCCD13CDCE13CECF13CF0470
:1014900070F030D5DE021970E9D2E7C933E833F8CD
:1014A00092D5EDD2E7CD33EC33FC5002B2D522EC2D
:1014B00030E7100FBF000C0EBE00080DBD00040B7E
:1014C000EB6014A2D5EB13FCED92E7FD2274FFFC58
:1014D000FDFEFF22E480F8A2D574FF13FC7D80E4BA
:1014E00080EFE709F608DFFA8046E709F208DFFA3D
:1014F000803E88828C83E709F0A3DFFA8032E3091B
:10150000F608DFFA8078E309F208DFFA8070888253
:101510008C83E309F0A3DFFA806489828A83E0A3E5
:10152000F608DFFA805889828A83E0A3F208DFFA9E
:10153000804C80D280FA80C680D4806980F280336B
:10154000801080A680EA809A80A880DA80E280CA33
:10155000803389828A83ECFAE493A3C8C582C8CC1D
:10156000C583CCF0A3C8C582C8CCC583CCDFE9DE77
:10157000E7800D89828A83E493A3F608DFF9ECFA09
:10158000A9F0EDFB2289828A83ECFAE0A3C8C58228
:10159000C8CCC583CCF0A3C8C582C8CCC583CCDF7A
:1015A000EADEE880DB89828A83E493A3F208DFF92C
:1015B00080CC88F0EF60010E4E60C388F0ED24020D
:1015C000B4040050B9F582EB2402B4040050AF23F8
:1015D0002345822390153273BB010689828A83E0FA
:1015E000225002E722BBFE02E32289828A83E4932F
:1015F00022BB010CE58229F582E5833AF583E022DE
:101600005006E92582F8E622BBFE06E92582F8E2CB
:1016100022E58229F582E5833AF583E49322BB0132
:101620000989828A83F8E028F022500327F722BB39
:10163000FE05F8E328F3228A838982F8E4932822BE
:10164000BB010FF8E58229F582E5833AF583E028AE
:10165000F0225009C58229F8E58226F622BBFE0950
:10166000C58229F8E22582F222F8EA2583F583E98A
:10167000932822BB010689828A83F0225002F72236
:10168000BBFE01F322F8BB010DE58229F582E5835B
:101690003AF583E8F0225006E92582C8F622BBFE1F
:1016A00005E92582C8F222EF8DF0A4A8F0CF8CF0D6
:1016B000A428CE8DF0A42EFE22BC000BBE0029EF84
:1016C0008DF084FFADF022E4CCF875F008EF2FFF29
:1016D000EE33FEEC33FCEE9DEC984005FCEE9DFEF7
:1016E0000FD5F0E9E4CEFD22EDF8F5F0EE8420D23E
:1016F0001CFEADF075F008EF2FFFED33FD400798AD
:101700005006D5F0F222C398FD0FD5F0EA22C5F0BD
:10171000F8A3E028F0C5F0F8E58215827002158381
:10172000E038F022A3F8E0C5F025F0F0E58215825C
:1017300070021583E0C838F0E822BB010A89828A6A
:1017400083E0F5F0A3E022500687F009E71922BBF9
:10175000FE07E3F5F009E3192289828A83E493F511
:10176000F074019322BB0110E58229F582E5833AEA
:10177000F583E0F5F0A3E0225009E92582F886F030
:1017800008E622BBFE0AE92582F8E2F5F008E2222B
:10179000E5832AF583E993F5F0A3E99322BB0107DA
:1017A00089828A8302170E500B09C5F027F7C5F00E
:1017B0001937F722BBFE0D09F8E325F0F3C5F01940
:1017C000E338F322F889828A8374019325F0C5F007
:1017D000F8E4933822BB010DC58229C582C5833A3E
:1017E000C58302170E5011C58229F808E5F026F6C8
:1017F00018F5F0E58236F622BBFE11C58229F808FD
:10180000E225F0F5F0F218E23582F222F8E58229BD
:10181000F582E5832AF58374019325F0F5F0E493CE
:101820003822BB010A89828A83F0E5F0A3F02250B6
:1018300006F709A7F01922BBFE06F3E5F009F31934
:1018400022F8BB0111E58229F582E5833AF583E8A8
:10185000F0E5F0A3F0225009E92582C8F608A6F0C9
:1018600022BBFE09E92582C8F2E5F008F222EF2B3F
:10187000FFEE3AFEED39FDEC38FC2275F00875827A
:1018800000EF2FFFEE33FECD33CDCC33CCC582330A
:10189000C5829BED9AEC99E58298400CF582EE9B0F
:1018A000FEED9AFDEC99FC0FD5F0D6E4CEFBE4CD2D
:1018B000FAE4CCF9A88222B800C1B90059BA002DC7
:1018C000EC8BF084CFCECDFCE5F0CBF97818EF2F80
:1018D000FFEE33FEED33FDEC33FCEB33FB10D703AF
:1018E000994004EB99FB0FD8E5E4F9FA227818EF58
:1018F0002FFFEE33FEED33FDEC33FCC933C910D7B7
:10190000059BE99A4007EC9BFCE99AF90FD8E0E4C3
:10191000C9FAE4CCFB2275F010EF2FFFEE33FEED99
:1019200033FDCC33CCC833C810D7079BEC9AE89969
:10193000400AED9BFDEC9AFCE899F80FD5F0DAE44B
:10194000CDFBE4CCFAE4C8F922EF5BFFEE5AFEEDE2
:1019500059FDEC58FC22EF6BFFEE6AFEED69FDECE1
:1019600068FC22CFF4CFCEF4CECDF4CDCCF4CC2293
:10197000C3E49FFFE49EFEE49DFDE49CFC22EB9FFC
:10198000F5F0EA9E42F0E99D42F0EC6480C8648084
:101990009845F022EB9FF5F0EA9E42F0E99D42F077
:1019A000E89C45F022E8600FECC313FCED13FDEE5C
:1019B00013FEEF13FFD8F122E8600FEFC333FFEE01
:1019C00033FEED33FDEC33FCD8F122BB010DE58293
:1019D00029F582E5833AF5830219FB5007E9258250
:1019E000F8021C4ABBFE07E92582F8021C56E58274
:1019F00029F582E5833AF583021A07E0FCA3E0FDAE
:101A0000A3E0FEA3E0FF22E493FC740193FD7402C3
:101A100093FE740393FF22E0F8A3E0F9A3E0FAA396
:101A2000E0FB22BB010DE58229F582E5833AF583CF
:101A3000021A175007E92582F8021C62BBFE07E96B
:101A40002582F8021C6FE58229F582E5833AF58349
:101A5000021C7C7401FF3395E0FEFDFCA3A3A3E010
:101A6000CF2FF0E582158270021583E0CE3EF0E5BF
:101A700082158270021583E0CD3DF0E582158270FB
:101A8000021583E0CC3CF022ECF0A3EDF0A3EEF0E5
:101A9000A3EFF022A8828583F0D083D082121AAB04
:101AA000121AAB121AAB121AABE473E493A3C583F8
:101AB000C5F0C583C8C582C8F0A3C583C5F0C5837A
:101AC000C8C582C822A42582F582E5F03583F58356
:101AD00022E0FBA3E0FAA3E0F922F8E0FBA3A3E0F5
:101AE000F925F0F0E582158270021583E0FA38F0EE
:101AF00022EBF0A3EAF0A3E9F022BB010789828A76
:101B000083021AD15005E9F8021C8CBBFE05E9F8E6
:101B1000021C9E89828A83021CB0BB011A89828AB8
:101B200083D0F0D0E0F8D0E0F9D0E0FAD0E0FBE8E4
:101B3000C0E0C0F0021AF15016E9F8D083D082D08C
:101B4000E0F9D0E0FAD0E0FBC082C083021C95BB74
:101B5000FE16E9F8D083D082D0E0F9D0E0FAD0E0E8
:101B6000FBC082C083021CA722BB010DE58229F5C0
:101B700082E5833AF583021AD15007E92582F802FB
:101B80001C8CBBFE07E92582F8021C9EE58229F524
:101B900082E5833AF583021CB0BB0120E58229F57A
:101BA00082E5833AF583D0F0D0E0F8D0E0F9D0E0D8
:101BB000FAD0E0FBE8C0E0C0F0021AF15018E925C5
:101BC00082F8D083D082D0E0F9D0E0FAD0E0FBC038
:101BD00082C083021C95BBFE18E92582F8D083D011
:101BE00082D0E0F9D0E0FAD0E0FBC082C083021CD2
:101BF000A722D083D082F8E4937012740193700D01
:101C0000A3A393F8740193F5828883E47374029319
:101C10006860EFA3A3A380DF8A838982E473EF4E19
:101C20006012EF60010EEDBB010B89828A83F0A385
:101C3000DFFCDEFA2289F05007F709DFFCA9F02269
:101C4000BBFEFCF309DFFCA9F022E6FC08E6FD0878
:101C5000E6FE08E6FF22E2FC08E2FD08E2FE08E2FA
:101C6000FF22E6FB08E6F908E6FA08E6CBF822E2EE
:101C7000FB08E2F908E2FA08E2CBF822E493F874F0
:101C80000193F9740293FA740393FB22E6FB08E6CE
:101C9000FA08E6F922EBF608EAF608E9F622E2FB92
:101CA00008E2FA08E2F922EBF208EAF208E9F22285
:101CB000E493FB740193FA740293F922900D4E128F
:101CC0001AF1900D51E4F0A3E4F090000FE0FF7ED4
:101CD00000EF4E70407F4312784A90000F7401F07D
:101CE00090000E7401F0900013E4F0A3E4F0900073
:101CF00002E4F0900ABC121A940000000090000068
:101D0000E4F0A37401F09000A7E4F090001D121A13
:101D10009400000000900011E0FEA3E0FF9000138B
:101D2000E0FCA3E0FDD3ED9FEC9E4013900002E0A9
:101D300004F07F1512784A900013E4F0A3E4F090C9
:101D4000000FE0FF7E00EF64014E6003022163900C
:101D50000017E0FEA3E0FFC3EF9401EE94005003F0
:101D6000022163900019121AD11215D8FF7E00EFDC
:101D700064044E6003021EB6900D54E4F0900D54BE
:101D8000E0FF7E00C3EF94FFEE64809480504E909D
:101D90000D54E0FF7E00C374FF9FFFE49EFE74B00D
:101DA0002FF58274033EF583E0FF7E00EF64FF4E63
:101DB0007023900D54E0FF7E00C374FF9FFFE49EEC
:101DC000FE74AF2FF58274033EF583E0FF7E00EFD3
:101DD000641A4E6008900D54E004F080A0900D54F9
:101DE000E0FFEF2406FF900D54EFF090001D121954
:101DF000FBC004C005C006C0077B017A0379B09020
:101E00000D54E0FF7E00C3E49FFF74019EFEE4FCDE
:101E1000FD900B7D121A88D007D006D005D0041291
:101E2000651F90001D121A88900D55E4F0900D5515
:101E3000E0FF7E00C3EF9404EE64809480505390E2
:101E40000D54E0FF7E00C3E49FFF74019EFE900DE1
:101E500055E0FD7C00EF2DFFEE3CFE74B02FF582C7
:101E600074033EF583E0FB90001D1219FBEF6B60DD
:101E7000089000A77401F0801990001D1219FB78DA
:101E8000081219A590001D121A88900D55E004F053
:101E9000809B900013E4F0A3E4F0900017E4F0A31B
:101EA000E4F090000E7402F090000F7402F07F06D0
:101EB00012784A7F0122900019121AD11215D8FF08
:101EC0007E00EF64184E7024900013E4F0A3E4F059
:101ED000900017E4F0A3E4F090000E7405F0900079
:101EE0000F7402F07F0612784A7F0322900017E0F9
:101EF000FEA3E0FFD3EF9485EE9400401B90001307
:101F0000E4F0A3E4F0900002E004F0900017E4F0A5
:101F1000A3E4F07F1512784A900019121AD1121515
:101F2000D8FF7E00EF64014E60030221639000172A
:101F3000E0FEA3E0FFEF64854E60030221639000A2
:101F400013E4F0A3E4F0900017E4F0A3E4F09000B1
:101F500019121AD17582017583001215F1FF7E00E6
:101F6000900000E0FCA3E0FD7C00ED6F7002EC6EE1
:101F70006003022157900002E4F0900000E0FEA30D
:101F8000E0FFC3EF9403EE9400402F90001D121960
:101F9000FBC004C005C006C0077B017A0379B0907E
:101FA0000B7D121A9400000080D007D006D005D017
:101FB0000412651F90001D121A88900D54E4F090D1
:101FC0000D54E0FF7E00C3EF9480EE648094805057
:101FD00058900D54E0FF74302FF582E43404F583FB
:101FE000E0FF900D54E0FE74B02EF582E43403F56A
:101FF00083EFF0900D54E0FF7E00EF2403FFEE34FA
:1020000000FE900019121AD18F828E831215F1FFF3
:10201000900D54E0FE74302EF582E43404F583EF25
:10202000F0900D54E004F08096900D51E0FEA3E096
:10203000FFC006C007900019121AD1E92403F9EA7B
:102040003400FA900CCC121A9400000080D007D013
:1020500006125E98900D51EEF0A3EFF09000191269
:102060001AD17582837583001215F1FF7E00EF7F10
:1020700000FE900D51E0FCA3E0FDC3ED9FFFEC9E40
:10208000FE900019121AD17582847583001215F121
:10209000FD7C00C3EF9DFFEE9CFEEF4E600302212E
:1020A00049900000E0FEA3E0FFEF24FFFFEE34FFC5
:1020B000FE900D4E121AD1758201758300EE8FF0DD
:1020C000121841900D4E121AD1758203758300E4E7
:1020D00075F080121841900D53E4F0900D4E121AD5
:1020E000D1758203758300121765FFAEF0900D5312
:1020F000E0FD7C00C3ED9FEC9E5042900D53E0FF4D
:102100007E00EF2403FFEE3400FE900019121AD176
:102110008F828E831215F1FF900D4E121AD17582A7
:1021200005758300121B69900D53E0FE8E82758346
:1021300000EF121685900D53E004F0809E90000091
:10214000E475F00112170E801A900002E02402F0EC
:102150007F1512784A800C900002E02402F07F156F
:1021600012784A900002E0FF7E00C3EF9419EE64FB
:1021700080948040267F1812784A7F1812784A7F10
:102180001812784A900017E4F0A3E4F090000E745F
:1021900005F090000F7402F07F03227F0022900A66
:1021A00045E0FFEF20E115900A48E0FF7E00D3EF05
:1021B0009400EE64809480500302228A9008B8E074
:1021C000FFEF4401FF9008B8EFF0900A48E0FFEFFE
:1021D00030E6099008B97401F0022262900A48E0E2
:1021E000FFEF30E7089008B97402F08075900A4557
:1021F000E0FFEF30E1089008B97403F08064900AC2
:1022000048E0FFEF30E0089008B9741FF080539069
:102210000A48E0FFEF30E1089008B97420F08042EE
:10222000900A48E0FFEF30E2089008B97421F0808E
:1022300031900A48E0FFEF30E3089008B97422F0CB
:102240008020900A48E0FFEF30E4089008B974233A
:10225000F0800F900A48E0FFEF30E5069008B9746F
:1022600024F0900A45E0FFEF54FDFF900A45EFF09F
:10227000900A48E4F09008BEE4F09008BAE4F0A3B5
:10228000E4F09008BCE4F0A3E4F09008B8E0FFEFBD
:1022900020E0030225F09008B9E0FF7E00EF640122
:1022A0004E70537B017A0879BFC003C002C0017B26
:1022B000017A0879BA900C4C121AF17B017A0879EC
:1022C000BC900C4F121AF17B017A0879BE900C5227
:1022D000121AF1D001D002D00312309A7E00EF64BE
:1022E000014E60030225F79008B8E0FFEF54FEFFAF
:1022F0009008B8EFF0229008B9E0FF7E00EF64028A
:102300004E70537B017A0879E7C003C002C0017B9D
:10231000017A0879BA900C4C121AF17B017A08798B
:10232000BC900C4F121AF17B017A0879BE900C52C6
:10233000121AF1D001D002D00312309A7E00EF645D
:10234000014E60030225F79008B8E0FFEF54FEFF4E
:102350009008B8EFF0229008B9E0FF7E00EF640328
:102360004E70537B017A09790FC003C002C0017B14
:10237000017A0879BA900C4C121AF17B017A08792B
:10238000BC900C4F121AF17B017A0879BE900C5266
:10239000121AF1D001D002D00312309A7E00EF64FD
:1023A000014E60030225F79008B8E0FFEF54FEFFEE
:1023B0009008B8EFF0229008B9E0FF7E00EF641FAC
:1023C0004E70537B017A097947C003C002C0017B7C
:1023D000017A0879BA900C4C121AF17B017A0879CB
:1023E000BC900C4F121AF17B017A0879BE900C5206
:1023F000121AF1D001D002D00312309A7E00EF649D
:10240000014E60030225F79008B8E0FFEF54FEFF8D
:102410009008B8EFF0229008B9E0FF7E00EF64204A
:102420004E70537B017A09797FC003C002C0017BE3
:10243000017A0879BA900C4C121AF17B017A08796A
:10244000BC900C4F121AF17B017A0879BE900C52A5
:10245000121AF1D001D002D00312309A7E00EF643C
:10246000014E60030225F79008B8E0FFEF54FEFF2D
:102470009008B8EFF0229008B9E0FF7E00EF6421E9
:102480004E70537B017A09798FC003C002C0017B73
:10249000017A0879BA900C4C121AF17B017A08790A
:1024A000BC900C4F121AF17B017A0879BE900C5245
:1024B000121AF1D001D002D00312309A7E00EF64DC
:1024C000014E60030225F79008B8E0FFEF54FEFFCD
:1024D0009008B8EFF0229008B9E0FF7E00EF642288
:1024E0004E70537B017A09799FC003C002C0017B03
:1024F000017A0879BA900C4C121AF17B017A0879AA
:10250000BC900C4F121AF17B017A0879BE900C52E4
:10251000121AF1D001D002D00312309A7E00EF647B
:10252000014E60030225F79008B8E0FFEF54FEFF6C
:102530009008B8EFF0229008B9E0FF7E00EF642326
:102540004E70507B017A0979BFC003C002C0017B85
:10255000017A0879BA900C4C121AF17B017A087949
:10256000BC900C4F121AF17B017A0879BE900C5284
:10257000121AF1D001D002D00312309A7E00EF641B
:10258000014E70739008B8E0FFEF54FEFF9008B85A
:10259000EFF0229008B9E0FF7E00EF64244E705700
:1025A0007B017A0979CFC003C002C0017B017A08A0
:1025B00079BA900C4C121AF17B017A0879BC900C14
:1025C0004F121AF17B017A0879BE900C52121AF15F
:1025D000D001D002D00312309A7E00EF64014E7019
:1025E000169008B8E0FFEF54FEFF9008B8EFF02215
:1025F0007D007F001275DD22900BB7EFF0E4900BA9
:10260000BFF0900BB7E0900AFC1247F912493C90DA
:102610000BB8F0A3EFF0E47F01FEFDFC900BB7E0F8
:10262000F9F81219B88F298E288D278C26AF011240
:1026300076A0900BBDEEF0A3EFF012484C400512CF
:10264000495E8005E4900BBAF0900BBAE06401603B
:10265000030227AA900BB7E0FF2408124861E0C3E9
:1026600094FA74809480500612485EE004F0124997
:102670000FFCE4FBFAF9F8C31219946003022797E0
:10268000900AFBE0900BBCF012106EEF6030E4900B
:102690000BBAF0A3F0124899501812485EE0C394A8
:1026A00001748094804006900BBAE004F012492334
:1026B00080E31248CC4007900BBCE0240FF0900B55
:1026C000B7E0240812486112497E5003022797E4BC
:1026D000900BBAF0127E10EF705E900BBBF01248B8
:1026E000995022900BB7E06F6016127DD8900BBB0B
:1026F000E02408124861E0C39F400512495E80054E
:1027000012492380D912106EEF3395E04F70639019
:102710000BBAE0705DA3F01248995056900BB7E0E9
:102720006F6010127DD8900BBB1248B3E0C39F407E
:1027300002803C12492380DF12106EEF3395E04F88
:102740007030900BBCF0900BBBF0124899501812EF
:10275000485EE0C39402748094804006900BBCE015
:1027600004F012492380E3900BBC1248CF400312BF
:10277000495E900BBAE064017002D208E525452954
:10278000FFE5244528FEE5234527FDE52245268F64
:10279000258E248D23F522900BB7E0FF24101248DC
:1027A0000FE4F0A31248A60229BD900BB7E0FF1278
:1027B00076E0900BB8E0FCA3E0FDD312484040085F
:1027C0001248B0E004F0800B900D3CE004F0124899
:1027D000B0E4F0124946C3E49FFBE49EFAC3ED9BCC
:1027E000EA1248424066D312484D50601248EDF557
:1027F00083E41248A61248776003022911900BB8AF
:10280000E0FEA3E0FF900BB7E0900B0C124893EEB4
:102810008FF012170E127DFA12482E4009124869E5
:10282000E475F0018019127DFAC3E49FFFE49EFE77
:1028300012482E400302291112486974FFF5F01264
:10284000170E124824E4F0A3F0022911124946C3DE
:10285000E49FFFE412484A50731248ED1248A2F573
:1028600083E4F074102FF582E4340BF583E0FF75F8
:10287000F00A84E5F07044C3EF946474809480900F
:102880000BB7E040101248F2F583E4F0D209900B48
:102890002004F0802612486EC083C082E0FEA3E0D0
:1028A000FF900B19E0A2E713FD3395E0FCC3EF9D09
:1028B000FFEE9CD082D083F0A3EFF0900BB7E0FF47
:1028C000900D35E06F704A74FFF08045124946D391
:1028D00012484D403C900BB7E01248F21248777016
:1028E000301249651248A2F583E064207023124932
:1028F00065F583E4F0900B19E0A2E713A2E713FD5E
:102900003395E0FC75F002EF124871EC8DF0121770
:102910000E12490F4D4E4F70030229C9900BBDE0B6
:10292000FCA3E0FDAE047802CEA2E713CE13D8F8E4
:10293000FFC3ED9FFFEC12484A40030229C2124830
:10294000BEE004F0127E25900BBCEFF0E4900BBBD0
:10295000F0124899501812485EE0C39401748094B4
:10296000804006900BBAE004F012492380E312483D
:10297000CC4008900AFBE0900BBCF0900BB7E0FB5A
:102980001248C212497E5003022A13741E2B1248A9
:10299000C4E4F0AF29AE28AD27AC26121963E525B3
:1029A0005FFFE5245EFEE5235DFDE5225C8F258E5D
:1029B000248D23F52274082BF582E4340BF583E48F
:1029C000F0221248BEE014F022900BB7E024081267
:1029D00048611248797008900BB7E0FF1269FFE573
:1029E0002A14FF900BB7E06F7029900D3CE0C3955F
:1029F0002A4020E4900BBBF0124899500E12485E1A
:102A0000E0600312495E12492380ED900BBAE0703A
:102A100002C20822900A8CE0FFEF547FFF900EABB9
:102A2000EFF0900A4BE0FFEF30E103022D6C900ACB
:102A300043E0FFEF20E70122900EABE0FF900A8C0D
:102A4000E0FEEE547FFEEEC39F500E900A8CE0FF36
:102A5000EF547FFF900EABEFF0900A4FE0FEA3E043
:102A6000FFEF4E6003022BE9900EABE0FF7E00D338
:102A7000EF9401EE648094805059900C40E0FFEF99
:102A800020E133900A43E0FFEF30E32A900C40E06E
:102A9000FFEF54FEFF900C40EFF0900C40E0FFEF92
:102AA0004402FF900C40EFF0900A48E0FFEF440131
:102AB000FF900A48EFF0900A46E0FFEF4402FF90D3
:102AC0000A46EFF0900A46E0FFEF54DFFF900A4617
:102AD000EFF022900EABE0FF7E00D3EF9403EE64A4
:102AE0008094804003022BCC900C40E0FFEF20E06C
:102AF00033900A43E0FFEF30E32A900C40E0FFEF11
:102B00004401FF900C40EFF0900C40E0FFEF54FDCB
:102B1000FF900C40EFF0900A48E0FFEF4408FF9070
:102B20000A48EFF0900C40E0FFEF1313543FFFEF23
:102B3000543FFF7E00D3EF9405EE64809480501ED6
:102B4000900A46E0FFEF4402FF900A46EFF0900A39
:102B500046E0FFEF54DFFF900A46EFF0801C900A3A
:102B600046E0FFEF54FDFF900A46EFF0900A46E082
:102B7000FFEF54DFFF900A46EFF0900C40E0FFEFCC
:102B80001313543FFEEF5403FFEE04FEEE543FFEDA
:102B9000EE25E025E0FEEE4FFF900C40EFF0900CAC
:102BA00040E0FFEF1313543FFFEF543FFF7E00C39D
:102BB000EF940AEE648094805003022D6C900C40D8
:102BC000E0FFEF5403FF900C40EFF022900A46E044
:102BD000FFEF54FDFF900A46EFF0900A46E0FFEF4A
:102BE0004420FF900A46EFF022900EABE0FF7E00FB
:102BF000D3EF9403EE64809480505F900A46E0FF28
:102C0000EF4401FF900A46EFF0900A46E0FFEF54D0
:102C1000EFFF900A46EFF0900C40E0FFEF30E10349
:102C2000022D6C900A43E0FFEF20E303022D6C902D
:102C30000C40E0FFEF54FEFF900C40EFF0900C4092
:102C4000E0FFEF4402FF900C40EFF0900A48E0FFF5
:102C5000EF4401FF900A48EFF022900EABE0FF7EB8
:102C600000D3EF940AEE648094804003022D5090CC
:102C70000C40E0FFEF20E033900A43E0FFEF30E349
:102C80002A900C40E0FFEF4401FF900C40EFF090E1
:102C90000C40E0FFEF54FDFF900C40EFF0900A482D
:102CA000E0FFEF4408FF900A48EFF0900C40E0FF8F
:102CB000EF1313543FFFEF543FFF7E00C3EF940523
:102CC000EE64809480501E900A46E0FFEF4401FFBE
:102CD000900A46EFF0900A46E0FFEF54EFFF900AAB
:102CE00046EFF0801C900A46E0FFEF54FEFF900A8A
:102CF00046EFF0900A46E0FFEF54EFFF900A46EFF0
:102D0000F0900C40E0FFEF1313543FFEEF5403FF2D
:102D1000EE04FEEE543FFEEE25E025E0FEEE4FFF12
:102D2000900C40EFF0900C40E0FFEF1313543FFF86
:102D3000EF543FFF7E00C3EF940AEE64809480401E
:102D40002B900C40E0FFEF5403FF900C40EFF0227B
:102D5000900A46E0FFEF54FEFF900A46EFF0900A1B
:102D600046E0FFEF4410FF900A46EFF022900EA6D7
:102D7000E4F0900004E0FF7E00C3EF9405EE648071
:102D800094805003023094900004E0FF7E00EF64D2
:102D9000084E6015900003E0FF7E00D3EF9420EE14
:102DA000648094805003022F057F2C7E017D007C7F
:102DB00000900005121A17C31219944027900005BD
:102DC000121A94000000007BFF7A7E793C127AA0F0
:102DD000900003E004F0900003E0FFEF547FFF90C9
:102DE0000003EFF09001A8E0FF7E00EF64034E6067
:102DF000030230949001A87401F09001ADE4F0A3B7
:102E0000E4F0900004E0FF7E00EF64084E600302EF
:102E10002EC67B017A0179AFC003C002C0017BFFDF
:102E20007A7E7946900D49121AF1D001D002D00372
:102E3000127306EF60097BFF7A7E7951127AA07BCC
:102E4000017A0179AFC003C002C0017BFF7A7E79AD
:102E500059900D49121AF1D001D002D00312730615
:102E6000EF60097BFF7A7E7951127AA07B017A01AB
:102E700079AFC003C002C0017BFF7A7E796F900DED
:102E800049121AF1D001D002D003127306EF600983
:102E90007BFF7A7E798A127AA07B017A0179AFC0B2
:102EA00003C002C0017BFF7A7E799C900D49121A03
:102EB000F1D001D002D003127306EF60097BFF7AD4
:102EC0007E7951127AA07B017A0179AFC003C002EA
:102ED000C0017BFF7A7E79B0900D49121AF1D001C2
:102EE000D002D003127306EF7003023094900DDE0F
:102EF000121A9400000FA07F00127979900EA67428
:102F000001F00230947F2C7E017D007C0090000552
:102F1000121A17C3121994401E900005121A940039
:102F2000000000900003E004F0900003E0FFEF5485
:102F30007FFF900003EFF0900004E0FFEF121BF220
:102F40002F4D052FB7063020070000308E7BFF7A0B
:102F50007E79C0C003C002C0017BFF7A7E79DA901F
:102F60000B89121AF17BFF7A7E79DD900B8C121A95
:102F7000F1900B8F121A94000000647BFF7A7A792B
:102F8000A0900B93121AF1D001D002D003125A91E3
:102F9000900021EFF0900021E0FF7E00EF64024EF0
:102FA0006003023094900DDE121A9400000FA07F8F
:102FB000061279790230947BFF7A7E79E3C003C0F0
:102FC00002C0017BFF7A7E79DA900B89121AF17BBD
:102FD000FF7A7E79DD900B8C121AF1900B8F121A0A
:102FE00094000000647BFF7A7A79A0900B93121A08
:102FF000F1D001D002D003125A91900021EFF0904D
:103000000021E0FF7E00EF64024E600302309490E6
:103010000DDE121A9400000FA07F071279798074D8
:103020007BFF7A7E798AC003C002C0017BFF7A7E73
:1030300079DA900B89121AF17BFF7A7E79DD900B99
:103040008C121AF1900B8F121A94000000647BFF0F
:103050007A7A79A0900B93121AF1D001D002D003A2
:10306000125A91900021EFF0900021E0FF7E00EFD6
:1030700064024E701F900DDE121A9400000FA07FA4
:10308000081279799001A9E4F0A3E4F08006900099
:10309000047405F0900EA6E0FF22900C49121AF17C
:1030A000900C52121AD11215D8FF7E00EF64FF4E19
:1030B00070037F0122900C52121AD11215D8FF7E94
:1030C00008EF8EF0A4FFAEF0900C49121AD1E92F50
:1030D000F9EA3EFA758204758300121765FDACF0BB
:1030E000E41214287BCD7ACC794C783E121204C0BD
:1030F00004C005C006C007900C4C121AD112173A32
:10310000FDACF0E4121428A804A905AA06AB07D068
:1031100007D006D005D0041213AA40030232309023
:103120000C49121AD1C003C002C001900C52121AED
:10313000D11215D8FF75F008EFA4F58285F083D081
:1031400001D002D003121A239008B4E0FEA3E0FFDE
:10315000E4FCFDC312199470030231F9900C49127A
:103160001AD1C003C002C001900C52121AD112151C
:10317000D8FF75F008EFA4F58285F083D001D00266
:10318000D0031219CB9008B4EEF0A3EFF0900C49E5
:10319000121AD1C003C002C001900C52121AD112EF
:1031A00015D8FF75F008EFA4F58285F083D001D023
:1031B00002D0031219CBAD07AC067F10126A7F90C4
:1031C0000C49121AD1C003C002C001900C52121A4D
:1031D000D11215D8FF75F008EFA4F58285F083D0E1
:1031E00001D002D0031219CB9008B6EEF0A3EFF095
:1031F0007D017F001275DD80279008B6E0FCA3E01A
:10320000FDE41214287B007A007900783F12120442
:10321000121461AD07AC06AC06AD077F0212109E1A
:10322000900C4C121AD1E475F00112179D02335A1A
:10323000900C52121AD11215D8FF7E08EF8EF0A40E
:10324000FFAEF0900C49121AD1E92FF9EA3EFA7557
:103250008206758300121765FDACF0E41214287B1A
:10326000CD7ACC794C783E121204C004C005C00659
:10327000C007900C4F121AD112173AFDACF0E412AD
:103280001428A804A905AA06AB07D007D006D005C4
:10329000D0041213AA50197D007C007F0212109EE8
:1032A000900C4F121AD1E475F00112179D02335A97
:1032B000900C52121AD1740112161E900C4C121A54
:1032C000D1E475F000121822900C4F121AD1E47557
:1032D000F000121822900C49121AD1C003C002C08B
:1032E00001900C52121AD11215D8FF75F008EFA4F4
:1032F000F58285F083D001D002D0031219CB90085B
:10330000B6EEF0A3EFF0900C49121AD1C003C00240
:10331000C001900C52121AD11215D8FF75F008EFA7
:10332000A4F58285F083D001D002D0031219CB7BA3
:10333000FF7AFF79FF7800C3121994701D900C5228
:10334000121AD174FF1216739008B4E4F0A3E4F0DB
:103350007D007F001275DD7F01227F0022900A4FE1
:10336000E0FEA3E0FFEF4E60030234097F007ED44D
:103370007D8F7C05900A55121A17C31219945003B9
:103380001266D37B607A0379007800900A5512198F
:10339000FB1218B7900D56121A887FE07EA57D01AA
:1033A0007C00900D56121A17C31219944003023470
:1033B0008B900D56121A17C374E09BFF74A59AFEEA
:1033C000740199FDE498FC900D56121A88900D56E0
:1033D0001219FBE41214237B007A007987784412D7
:1033E000130D900D5A121A88900D5A1219FB1214CF
:1033F00061EF547FFF900A8CE0FEEE5480FEEE4FAA
:10340000FF900A8CEFF002348B7F007E9C7DDA7C8B
:1034100001900A51121A17C312199450031266D35D
:103420007B607A0379007800900A511219FB121818
:10343000B7900D56121A88900D56121A17C374A021
:103440009BFF748C9AFEE499FDE498FC900D561253
:103450001A88900D561219FBE41214237B007A008F
:1034600079B4784312130D900D5A121A88900D5AA0
:103470001219FB121461EF547FFF900A8CE0FEEEEC
:103480005480FEEE4FFF900A8CEFF0900A4FE0FE62
:10349000A3E0FFEF4E600302354E900A47E0FFEFD6
:1034A00020E60302354E7F747EC27D037C00900AC5
:1034B0005D121A17C31219945003126645900A5DE3
:1034C0001219FBE41214237B927A917933783D121E
:1034D0001204121461900D56121A887F307E2A7DD4
:1034E000007C00900D56121A17D3121994400A90BE
:1034F0000D56121A9400002A30900D56121A17C356
:1035000074309BFF742A9AFEE499FDE498FC900DB8
:1035100056121A88900D561219FBE41214237B00E0
:103520007A0079D8784212130D900D5A121A8890A9
:103530000D5A1219FB121461EF547FFF900A8DE0AF
:10354000FEEE5480FEEE4FFF900A8DEFF022900ABF
:103550004FE0FEA3E0FFEF64014E600302361290DD
:103560000A47E0FFEF20E6030236127FC57E407D6A
:10357000017C00900A59121A17C3121994500312B1
:103580006645900A591219FBE41214237B927A9132
:103590007933783D121204121461900D56121A8874
:1035A0007F107E0E7D007C00900D56121A17D312EC
:1035B0001994400A900D56121A9400000E10900DA6
:1035C00056121A17C374109BFF740E9AFEE499FDED
:1035D000E498FC900D56121A88900D561219FBE4CF
:1035E0001214237B007A007910784212130D900D8B
:1035F0005A121A88900D5A1219FB121461EF547F57
:10360000FF900A8DE0FEEE5480FEEE4FFF900A8D93
:10361000EFF022900D3D7403F07F001271B5900D14
:103620003E121A88900D3E1219FBEF5400FFEE5423
:1036300000FEED5400FDEC54F0FC7B007A007900B4
:103640007890C31219945003023750900D3E12190E
:10365000FBEF5400FFEE5400FEED5400FDEC540F60
:10366000FC7B007A0079007809C312199450030298
:103670003750900D3E1219FBEF5400FFEE5400FE40
:10368000ED54F0FDEC5400FC7B007A00799078005A
:10369000C31219945003023750900D3E1219FBEFDC
:1036A0005400FFEE5400FEED540FFDEC5400FC7B83
:1036B000007A0079097800C3121994500302375038
:1036C000900D3E1219FBEF5400FFEE54F0FEED5446
:1036D00000FDEC5400FC7B007A9079007800C31266
:1036E0001994406C900D3E1219FBEF5400FFEE54FC
:1036F0000FFEED5400FDEC5400FC7B007A097900CC
:103700007800C31219944048900D3E1219FBEF54F3
:10371000F0FFEE5400FEED5400FDEC5400FC7B90F5
:103720007A0079007800C31219944024900D3E125B
:1037300019FBEF540FFFEE5400FEED5400FDEC5466
:1037400000FC7B097A0079007800C3121994500AB2
:10375000900D3E121A94000000007F011271B59086
:103760000D42121A88127BBE127B9D900AC0E0FFA8
:10377000900AACE0FEEE6F7032900AC1E0FF900A52
:10378000ADE0FEEEB50724900AC2E0FF900AAEE07D
:10379000FEEEB50716900AC3E0FF900AAFE0FEEE1A
:1037A000B50708900D3D7401F08006900D3D74033F
:1037B000F0900D3DE0FF7E00EF64014E701A900D19
:1037C0003E1219FB900D42121A17D3121994400899
:1037D000900D3D7402F08052900AC0E0FF900A9C68
:1037E000E0FEEE6F7031900AC1E0FF900A9DE0FEAE
:1037F000EEB50723900AC2E0FF900A9EE0FEEEB508
:103800000715900AC3E0FF900A9FE0FEEEB5070798
:10381000900D3DE4F08013900D3DE0FF7E00EF64DD
:10382000014E7006900D3D7402F0900D3DE0FF7E5C
:1038300000EF4E70037F0122900D3DE0FF7E00EF10
:1038400064024E7012125DD9EF60037F0122125D97
:10385000D9EF60037F01227F0022900DFF121AF141
:10386000900004E0FFEF121BF2387C0038E40139CD
:103870004C023A92033A3D0400003A927BFF7A7E72
:10388000793CC003C002C0017BFF7A7E79FC900BBB
:1038900089121AF17BFF7A7F790B900B8C121AF147
:1038A000900B8F121A94000000647BFF7A7A79A043
:1038B000900B93121AF1D001D002D003125A9190BA
:1038C0000021EFF0900021E0FF7E00EF64024E60E7
:1038D00003023A92900DDE121A94000013887F01C1
:1038E000127979227BFF7A7F7915C003C002C0016B
:1038F0007BFF7A7E79DA900B89121AF17BFF7A7E50
:1039000079DD900B8C121AF1900B8F121A94000033
:1039100000647BFF7A7A79A0900B93121AF1D001A0
:10392000D002D003125A91900021EFF0900021E0D4
:10393000FF7E00EF64024E6003023A92900DDE12A9
:103940001A94000013887F021279792290000512E0
:103950001A9400000000900DFF121AD11215D8FF22
:103960007E00EF64034E7024900DFF121AD1758211
:1039700003758300121765FFAEF0EF4E700E127ED6
:1039800036900DFF121AD17401121673900DFF12AA
:103990001AD11215D8FF7E00EF640F4E7011900DF2
:1039A000FF121AD1740112167390001C7403F09068
:1039B0000DFF121AD1121CBC90001CEFF090001CDD
:1039C000E0FF7E00EF64014E70409000A7E0FF7EB4
:1039D00000EF4E7012123613900DFF121AD17404BC
:1039E000121673127E3622900DFF121AD1740F1226
:1039F00016739003AFE4F0900DDE121A9400002EBF
:103A0000E07F04127979127E362290001CE0FF7E5E
:103A100000EF64034E70159003AFE4F0900DDE12DA
:103A20001A9400002EE07F0412797922900DDE12A4
:103A30001A94000013887F021279792222900E02D4
:103A4000E4F0900E02E0FF7E00C3EF940AEE648083
:103A5000948050347BFF7A7F7925127AA0900005FC
:103A6000121A94000000007FC87E007D007C009048
:103A70000005121A17C3121994500543CF1080E79E
:103A8000900E02E004F080BA900004E4F07F00128F
:103A90007A7922410EA1014404B0EDB8832041009F
:103AA00021004100A70041000300480A83000000F4
:103AB0000000000000420C3D0000410C3F00410CA2
:103AC0004000410C4600420C470000420C410000FF
:103AD000410C4305420C440000602808BF00000769
:103AE0006C00C800780000096000C8007800000B76
:103AF0005400C8007800000D4800C804B000FFFF63
:103B0000FFFFFFFFFF602808E700000D4800C80026
:103B10007800000B5400C800780000096000C8005D
:103B2000780000076C00C804B000FFFFFFFFFFFF34
:103B3000FF6038090F00000F9F0078037000000F2E
:103B40009F0078037000000F9F0078037000000F43
:103B50009F0078037000000F9F0078037000000F33
:103B60009F0078037000FFFFFFFFFFFFFF60380931
:103B70004700000E74017C007800000E74017C0088
:103B80007800000E74017C007800000E74017C0047
:103B90007800000E74017C007800000E74017C0037
:103BA0007800FFFFFFFFFFFFFF50097F00000CE4DC
:103BB00000C8037000FFFFFFFFFFFFFF50098F00E9
:103BC000000C4E00C8012C00FFFFFFFFFFFFFF604D
:103BD00020099F00000D48026C026C00000D480295
:103BE0006C026C00000D48026C026C00FFFFFFFFCE
:103BF000FFFFFF5009BF000008FC07D003E800FFEB
:103C0000FFFFFFFFFFFF5809CF000006A400780068
:103C100064000008FC0078006400FFFFFFFFFFFF66
:103C2000FF4208B400004208B60000410B3A0041D0
:103C30000B3B00410B3C00410B3D00410DCE0041D0
:103C40000DCF00410DD000410DCB00410DCC004106
:103C50000DCD00480B9E603399909090D5FA580A8C
:103C6000CBE100E20FE326E437E502E600E7F9E8FE
:103C7000F9E9F9EA05EB01EC03580AE3E100E20F88
:103C8000E326E437E502E600E7F9E8F9E9F9EA05B1
:103C9000EB01EC03410D3A00410B2000410A9B006F
:103CA000C10A440AC0AA5555AA440AC70000000028
:103CB000440ABC0000000000900A40E0FF7E00C300
:103CC000EF940AEE648094804003023EBD900B3A6C
:103CD000E004F0900B3BE0FFEF121BF23CEC003DE8
:103CE00060013DD4023E480300003EBD900B3AE027
:103CF000FF7E00EF64014E700412100E22900B3A0A
:103D0000E0FF7E00EF64034E700B7D017F011265C2
:103D1000B543AD4022900B3AE0FF7E00EF64054EC4
:103D2000701A127CCB900A40E0FDED25E024FCF5F2
:103D300082E43409F583EEF0A3EFF022900B3AE031
:103D4000FF7E00C3EF940FEE648094805003023E28
:103D5000BD900B3BE004F0900B3AE4F012101622F9
:103D6000900B3AE0FF7E00EF64014E700412101ECB
:103D700022900B3AE0FF7E00EF64034E700B7D0152
:103D80007F031265B543AD4022900B3AE0FF7E0001
:103D9000EF64054E701A127CCB900A40E0FDED25D1
:103DA000E02424F582E4340AF583EEF0A3EFF02258
:103DB000900B3AE0FF7E00C3EF940FEE6480948096
:103DC0005003023EBD900B3BE004F0900B3AE4F050
:103DD00012101E22900B3AE0FF7E00EF64014E703D
:103DE0000412102622900B3AE0FF7E00EF64034E8F
:103DF000700B7D017F061265B543AD4022900B3AF2
:103E0000E0FF7E00EF64054E701A127CCB900A40F2
:103E1000E0FDED25E02410F582E4340AF583EEF0B0
:103E2000A3EFF022900B3AE0FF7E00C3EF940FEE79
:103E3000648094805003023EBD900B3BE004F09000
:103E40000B3AE4F012102622900B3AE0FF7E00EFCE
:103E500064014E700412100622900B3AE0FF7E00BF
:103E6000EF64034E700B7D017F071265B543AD40D3
:103E700022900B3AE0FF7E00EF64054E701A127C30
:103E8000CB900A40E0FDED25E024E8F582E434091A
:103E9000F583EEF0A3EFF022900B3AE0FF7E00C333
:103EA000EF940FEE648094804013900B3BE4F0900D
:103EB0000B3AE4F0121006900A40E004F022900D54
:103EC000EC121AF1900DEFE4F0A3E4F0900DEC1277
:103ED0001AD1758201758300121765FFAEF0EF4E9F
:103EE0007029900D62121A940000FC007F007E86FB
:103EF0007D007C0012759A900ABC121A9400000092
:103F000000900AC7121A9400000000900DEC121ADB
:103F1000D1758203758300121765FFAEF0900DEF27
:103F2000EEF0A3EFF0900DEC121AD17582037583B9
:103F300000121765FDACF0900DEC121AD1758201DC
:103F4000758300121765FFAEF01216A7C3EE94102A
:103F500050030240B9900DEC121AD175820375839B
:103F600000121765FDACF0900DEC121AD1758201AC
:103F7000758300121765FFAEF01216A7E4FCFD7BF7
:103F8000007A8679007800D312197E50030240B976
:103F9000900DEC121AD1758203758300121765FD1E
:103FA000ACF0900DEC121AD17582017583001217D6
:103FB00065FFAEF01216A7E4FCFDC004C005C00604
:103FC000C007900DEC121AD1758203758300121789
:103FD00065FFAEF0AB07AA06E4F9F8C3E49BFB74F7
:103FE000869AFAE499F9E498F8D007D006D005D07B
:103FF00004C312197E700B900DEF74FF75F0F01270
:10400000170E900DEC121AD17582037583001217EA
:1040100065FDACF0900DEC121AD17582017583002C
:10402000121765FFAEF01216A7EF2400FFEE34F072
:10403000FE900DEC121AD1758205758300121B6972
:10404000900DEFE0FCA3E0FD900D8AECF0A3EDF005
:10405000126AFFEF605B900AC71219FBC004C0052B
:10406000C006C007900DEC121AD175820575830049
:10407000121B69900DEFE0FEA3E0FFE4FCFD900B46
:10408000CD121A88D007D006D005D00412697E90D0
:104090000AC7121A88900ABC121A17900DEFE0FE98
:1040A000A3E0FFE4FCFD12186E900ABC121A88808F
:1040B00008900DEFE4F0A3E4F0900DEFE0FEA3E034
:1040C000FF22900E60EFF0900E61EDF0900E62EB2B
:1040D000F0900E60E0FFEF121BF240F000413C0157
:1040E00041880241D403422004426C05000042B5DD
:1040F000900E62E0FFEF121BF2410600411D0141EC
:104100003102000042B5900E61E0FFEFF4FFEF5284
:104110009A900E61E0FFEFF4FFEF529B22900E6148
:10412000E0FFEFF4FFEF529A900E61E0FFEF429B49
:1041300022900E61E0FFEF429A222222900E62E06E
:10414000FFEF121BF2415200416901417D02000064
:1041500042B5900E61E0FFEFF4FFEF5291900E61D7
:10416000E0FFEFF4FFEF529222900E61E0FFEFF4D8
:10417000FFEF5291900E61E0FFEF429222900E61AC
:10418000E0FFEF4291222222900E62E0FFEF121B2D
:10419000F2419E0041B50141C902000042B5900EB6
:1041A00061E0FFEFF4FFEF52A1900E61E0FFEFF44A
:1041B000FFEF52A222900E61E0FFEFF4FFEF52A159
:1041C000900E61E0FFEF42A222900E61E0FFEF420D
:1041D000A1222222900E62E0FFEF121BF241EA00C0
:1041E000420101421502000042B5900E61E0FFEF6E
:1041F000F4FFEF52B1900E61E0FFEFF4FFEF52B227
:1042000022900E61E0FFEFF4FFEF52B1900E61E0FB
:10421000FFEF42B222900E61E0FFEF42B122222274
:10422000900E62E0FFEF121BF2423600424D014257
:104230006102000042B5900E61E0FFEFF4FFEF5223
:10424000C1900E61E0FFEFF4FFEF52C222900E61C9
:10425000E0FFEFF4FFEF52C1900E61E0FFEF42C2CA
:1042600022900E61E0FFEF42C1222222900E62E016
:10427000FFEF121BF242820042990142AD020000A0
:1042800042B5900E61E0FFEFF4FFEF52D9900E615E
:10429000E0FFEFF4FFEF52DA22900E61E0FFEFF45F
:1042A000FFEF52D9900E61E0FFEF42DA22900E61EB
:1042B000E0FFEF42D922121056121046126CEB7B2F
:1042C000FF7A757912C003C002C0017B017A0079C0
:1042D000A8900D81121AF1D001D002D003127356AA
:1042E0007F00127BDF12748412538D1267EC127EF2
:1042F0001B43CF10122D6D7B017A0A799312385A25
:10430000900A96E0FEA3E0FFEF4E6039127D1B7B22
:10431000017A0A7993123EBE900E69EEF0A3EFF097
:10432000900E69E0FEA3E0FFEF4E6008900A9374E0
:1043300003F08006900A93740FF0900A96E4F0A3BD
:10434000E4F0127D90900A93E0FF7E00EF64044E4B
:10435000701A127D1B125274EF700B127D90900A2E
:1043600093740FF08006127D9012104E900A93E025
:10437000FF7E00EF640F4E70267BFF7A757912C0C6
:1043800003C002C0017B017A0079A8900D81121A46
:10439000F1D001D002D0031273567F00127BDF9060
:1043A0000B16E0FFEF20E70302445C900B16E0FFE2
:1043B000EF547FFF900B16EFF0124C87900C3712E2
:1043C0001A887F007E007D007C00900C37121A173F
:1043D000D31219944075900A43E0FFEF54FBFF900D
:1043E0000A43EFF0900C371219FBEF5402FFEE5422
:1043F00000FEED5400FDEC5400FCEC4D4E4F600E01
:10440000900A43E0FFEF4401FF900A43EFF0900C65
:10441000371219FB78081219A5900C37121A8890D8
:104420000C371219FBEF5440FFEE5400FEED540020
:10443000FDEC5400FCEC4D4E4F601E900A43E0FF33
:10444000EF4402FF900A43EFF0800E900A43E0FF32
:10445000EF4404FF900A43EFF012100012704DE594
:10446000B720E510900C3BE0FF7E00EF645A4E60F1
:10447000030242F1900C3BE0FFEF54A5FF900C3B90
:10448000EFF0126346900A45E0FFEF4402FF900A06
:1044900045EFF00242F122900C3DE475F001121755
:1044A0000E900A4BE0FFEF20E103024647900A4BD3
:1044B000E0FFEF1313543FFFEF5401FF900A4BE06E
:1044C000FEEEC313FEEE5401FEEE6FFFEF6044906C
:1044D0000C3FE4F0900A4BE0FFEF5402FFEF25E0C1
:1044E000FF900A4BE0FEEE54FBFEEE4FFF900A4BAE
:1044F000EFF0900A46E4F0900A48E0FFEF54EFFF37
:10450000900A48EFF0900A47E0FFEF54EFFF900A5F
:1045100047EFF0900C3DE0FEA3E0FFEF30E0030238
:104520004647900C3FE0FFEF121BF2454A00456101
:1045300001457802458F0345A60445BD0545F406AF
:1045400045FB07462B0800004647D2C0900A46E0CC
:10455000FFEF4410FF900A46EFF0900C3FE004F0AC
:1045600022D2C2900A46E0FFEF4420FF900A46EFB5
:10457000F0900C3FE004F022D2C1900A46E0FFEF39
:104580004480FF900A46EFF0900C3FE004F022D206
:10459000DB900A46E0FFEF4440FF900A46EFF090C0
:1045A0000C3FE004F022D2C3900A46E0FFEF44083B
:1045B000FF900A46EFF0900C3FE004F022900A478B
:1045C000E0FFEF4420FF900A47EFF0900A47E0FF3A
:1045D000EF4410FF900A47EFF0900A4674FFF09006
:1045E0000A48E0FFEF4410FF900A48EFF0900C3FBC
:1045F000E004F022900C3FE004F022900A46E4F040
:10460000900A47E0FFEF54DFFF900A47EFF0900A6F
:1046100047E0FFEF54EFFF900A47EFF0C2C2C2C17C
:10462000C2DBC2C3900C3FE004F022900A4BE0FFD3
:10463000EF4408FF900A4BEFF0900A4BE0FFEF5475
:10464000FDFF900A4BEFF022900DCBE0FF7E00C300
:10465000EF94FFEE648094805006900DCBE004F060
:10466000900A43E0FFEF20E20302471D900DD0E0E7
:10467000FF7E00D3EF9400EE6480948050030247E5
:104680000A900DD0E0FF7E00C3EF940AEE648094A0
:10469000805077900DCBE0FF7E00C3EF94C8EE64AE
:1046A0008094805050900A4BE0FFEF20E147900D3E
:1046B000CCE004F0900A48E0FFEF4404FF900A4881
:1046C000EFF0900DCCE0FF7E00D3EF9404EE648019
:1046D00094804021900A4BE0FFEF4402FF900A4B88
:1046E000EFF0900DD0E4F0900A43E0FFEF54FEFFAE
:1046F000900A43EFF0900DD0E4F0900A43E0FFEF12
:1047000054FEFF900A43EFF08013900DD0E4F09038
:104710000A43E0FFEF54FEFF900A43EFF0900A4394
:10472000E0FFEF30E008900DD0E004F0801F900D26
:10473000D0E0FF7E00D3EF94C8EE64809480400305
:104740000247F4900A43E0FFEF20E00122900DD0F1
:10475000E0FF7E00EF643C4E700F900A48E0FFEFF0
:104760004402FF900A48EFF022900DD0E0FF7E0057
:10477000EF64644E707E900A48E0FFEF54FBFF90B8
:104780000A48EFF0900A46E0FFEF4401FF900A4626
:10479000EFF0900A46E0FFEF4402FF900A46EFF088
:1047A000900A46E0FFEF4404FF900A46EFF0900ABB
:1047B00046E0FFEF4408FF900A46EFF0900A46E01B
:1047C000FFEF54EFFF900A46EFF0900A46E0FFEF4C
:1047D00054DFFF900A46EFF0900A46E0FFEF54BF27
:1047E000FF900A46EFF0900A46E0FFEF547FFF90FB
:1047F0000A46EFF022E0900B1AFF75F002121AC57C
:10480000E0FCA3E0FDEF900B0475F002021AC5F581
:1048100082E4340BF583E4F0741E2FF582E4340B4C
:10482000F583E4F0900B0CEF75F002021AC5900BC3
:10483000B7E075F002900B0C121AC5E0FCA3E0C3C0
:104840009FEE6480F8EC648098229EFEC3900BB9C2
:10485000E09FEE6480F8900BB8E0648098227408C2
:104860002FF582E4340BF58322900BB7E0FF75F04F
:1048700002900AFC021AC5F583E4F0FFFEFDFCABD2
:1048800025AA24A923A822C3021994900BB8E0FDFD
:10489000900B1A75F002021AC5900BBBE0FFC3958E
:1048A0002A22F583E004F074002FF582E4340B2211
:1048B000900BB7E0240AF582E4340BF58322900BC9
:1048C000B7E0241EF582E4340BF58322900BBAE0A6
:1048D000C3940374809480227D0A1216B9AD037CC0
:1048E000001216A7900BC0E0FD900AFC22900BB7B7
:1048F000E0FF2410F582E4340B22E0FCA3E0FD7518
:10490000F002EF900B1A121AC5ECF0A3EDF022E5BD
:10491000255529FFE5245528FEE5235527FDE522E9
:10492000552622900BBBE004F0227E00900D36E06D
:10493000FCA3E0FD1216A78EE78FE622E0FEA3E0BF
:10494000C39DFFEE9C22900B19E0FF3395E0FE2201
:10495000A4FFE0C39FE5F06480F874809822900B78
:10496000BA7401F022900BB7E0FF2400F582E43422
:104970000B22900B19E0FB3395E0FAFEEB22E0FFEF
:10498000900BBCE0FEEFC39E229FEE6480F8EA64C9
:10499000809822900BB6E0FF900D34E022900A4BF5
:1049A000E0FFEF30E103024B37900A45E0FFEF30C4
:1049B000E603024B37900A43E0FFEF30E41E900A13
:1049C00045E0FFEF20E215900C43E4F0900A45E04B
:1049D000FFEF4404FF900A45EFF0C2DB900C43E088
:1049E000FFEF121BF249FE004A23014A52024A73AA
:1049F000034A92044ACF054AF90600004B37D2C257
:104A0000900C437401F0900A46E0FFEF4480FF9061
:104A10000A46EFF0900A47E0FFEF4440FF900A4754
:104A2000EFF022900C44E475F00112170E900C4444
:104A3000E0FEA3E0FFD3EF9409EE94005003024B95
:104A400037900C44E4F0A3E4F0D2C0900C43E004AF
:104A5000F022900A43E0FFEF30E403024B37900C62
:104A600043E004F0900A46E0FFEF547FFF900A46CF
:104A7000EFF022C2C2900C44E4F0A3E4F0900C43A7
:104A8000E004F0900A45E0FFEF54FBFF900A45EF89
:104A9000F022900C44E475F00112170E900C44E0E3
:104AA000FEA3E0FFD3EF9409EE94005003024B37CE
:104AB000900C44E4F0A3E4F0C2C0900A47E0FFEF9A
:104AC00054BFFF900A47EFF0900C43E004F02290AF
:104AD0000C44E475F00112170E900C44E0FEA3E0C4
:104AE000FFD3EF9470EE9417404D900C44E4F0A384
:104AF000E4F0900C43E004F022900C44E475F001E3
:104B000012170E900C44E0FEA3E0FFD3EF94B0EE3A
:104B100094044014900C44E4F0A3E4F0900C43E0BF
:104B200004F0C2DBC2C08004D2DBD2C0900A43E0F2
:104B3000FFEF30E402C2DB22C0E0C0F0C083C082DD
:104B4000C0D075D000C000C001C002C003C004C006
:104B500005C006C0077F007E83127B5912794D90F5
:104B60000A75E475F00112170E900A77E004F090D0
:104B70000A78E004F0900A79E004F0900A7AE00400
:104B8000F0900A7BE004F0900A7BE0FFEF75F00301
:104B900084AFF07E00EF4E7013900A4CE0FFEF44BC
:104BA00020FF900A4CEFF0900A7BE4F0900A7AE044
:104BB000FFEF75F00584AFF07E00EF4E7013900AA2
:104BC0004CE0FFEF4410FF900A4CEFF0900A7AE4BB
:104BD000F0900A79E0FFEF75F01484AFF07E00EFFB
:104BE0004E7013900A4CE0FFEF4402FF900A4CEF26
:104BF000F0900A79E4F0900A78E0FFEF75F03284E3
:104C0000AFF07E00EF4E7013900A4CE0FFEF4404CB
:104C1000FF900A4CEFF0900A78E4F0900A75E0FEFD
:104C2000A3E0FF7C037DE81216B9ED4C7016900AE4
:104C30004CE0FFEF4408FF900A4CEFF0900A75E457
:104C4000F0A3E4F0900A77E0FFEF75F06484AFF032
:104C50007E00EF4E7013900A4CE0FFEF4401FF908E
:104C60000A4CEFF0900A77E4F0123CB8D007D00677
:104C7000D005D004D003D002D001D000D0D0D08253
:104C8000D083D0F0D0E03275100075180075170091
:104C900075160075150012105E5003024DB712799B
:104CA0001E8F148E138D128C11750F00E50FC39596
:104CB0002A5051AF14AE13AD12AC1178011219A5E0
:104CC0008F148E138D128C1130D7357F017E007DAD
:104CD000007C00AB0F74022BF582E4340BF583E00B
:104CE000F9A8011219B8E5184FFFE5174EFEE516B1
:104CF0004DFDE5154CFC8F188E178D168C15051083
:104D0000050F80A8AF107E00C3EF9402EE6480947C
:104D100080401ED208AF107E00C3EF9403EE648083
:104D2000948040051210668008127E10EF6002C267
:104D30000820082C7F007E007D007C00AB18AA179D
:104D4000A916A815C3121994600C900B17E475F0FE
:104D50000112170E8020900B17E4F0A3E4F08016E8
:104D6000900B14E475F00112170E751800751700FA
:104D7000751600751500127DEF900B17E0FCA3E08F
:104D8000FDD3ED9FEC9E400B121066900B17E4F0E4
:104D9000A3E4F0900B14E0FEA3E0FFD3EF942CEE1D
:104DA00094014020121066900B207401F0900B14B7
:104DB000E4F0A3E4F0800D907F44E493FE7401934B
:104DC000FF124DCDAF18AE17AD16AC1522900BB635
:104DD000EFF0900D3A1248CF403EE4F0900B20E007
:104DE000702B900BB7F0900BB7E0C3952A501EE0E4
:104DF000FF124890E0FCA3E0FD75F002EF1248714D
:104E0000ECF0A3EDF0900BB7E004F080D912779BA3
:104E1000C209E4900B20F022900D34E004F0124916
:104E200093B50708127DB9E4900D35F0124993D37C
:104E30009F5003024EFEE4900BB7F0900BB7E0C317
:104E4000952A507A1247F512493CAD07FC900B2089
:104E5000E0702E1249727802C333CE33CED8F9FFF8
:104E6000D3ED1248404046E49BFFE49AFEEF7802FF
:104E7000C333CE33CED8F9FFC3ED124840502E8055
:104E80003D1249727803C333CE33CED8F9FFD3ED48
:104E90001248404018E49BFFE49AFEEF7803C333C6
:104EA000CE33CED8F9FFC3ED1248404011900BB776
:104EB000E0FF1259A1900BB7E004F0024E3B900BBB
:104EC000B7E0B52A06900D35E004F0900BB6E0FD92
:104ED00075F008900D341249504023E4F0C2089058
:104EE0000D3AE004F0ED75F004900D351249504094
:104EF0000DE4900D3AF0127BFE12779BC2092290CE
:104F00000C55121AF1900C58E4F0A3E4F0900C5AEE
:104F100074FFF0A374FFF0900C5CE4F0A3E4F09055
:104F20000C5EE4F0A3E4F0900C60E4F0900C60E020
:104F3000FF7E00C3EF940AEE648094804003024F2A
:104F4000CC900C55121AD1900C60E0FF75F002EF76
:104F5000A4F58285F083121765FFAEF0900C5EEE2B
:104F6000F0A3EFF0900C58E0FEA3E0FF900C5EE0A1
:104F7000FCA3E0FDD3ED9FEC9E4010900C5EE0FEA4
:104F8000A3E0FF900C58EEF0A3EFF0900C5AE0FE77
:104F9000A3E0FF900C5EE0FCA3E0FDC3ED9FEC9E60
:104FA0005010900C5EE0FEA3E0FF900C5AEEF0A3D0
:104FB000EFF0900C5EE0FEA3E0FF900C5CEE8FF053
:104FC00012170E900C60E004F0024F2C900C5CE085
:104FD000FEA3E0FF900C5AE0FCA3E0FDC3EF9DFFB1
:104FE000EE9CFE900C5CEEF0A3EFF0900C5CE0FE0B
:104FF000A3E0FF900C58E0FCA3E0FDC3EF9DFFEEA3
:105000009CFE900C5CEEF0A3EFF0900C5CE0FEA335
:10501000E0FFEF7803CEC313CE13D8F9FF900C5CFA
:10502000EEF0A3EFF0900C5CE0FEA3E0FF22900D09
:105030002B121A9400000000900D30121A940000F8
:1050400000007F007E017D007C00900D30121A1759
:10505000C31219944003025156900D2B121A94005A
:10506000000000900D2F7401F0900D2FE0FF7E00E6
:10507000EF4E700302511A900D2B1219FBEF5401E1
:10508000FFEE5400FEED5400FDEC5400FC7B007A72
:105090000079007800C31219946028900D2B121922
:1050A000FB78011219A5900D2B121A88900D2B1266
:1050B00019FB9004B0121A17121956900D2B121AE0
:1050C000888011900D2B1219FB78011219A5900DF3
:1050D0002B121A88900D2FE0FFE4FCFDFE900D309E
:1050E000121A171219497B007A0079007800C3124E
:1050F00019946015900D2B1219FB9004B0121A1719
:10510000121956900D2B121A88900D2FE0FFEF25E3
:10511000E0FF900D2FEFF0025069900D2B1219FB5C
:10512000900D30121A179004B475F004EB121AC5E2
:10513000EA25E025E02583F583121A88900D3012C8
:1051400019FB7B017A007900780012186E900D30FF
:10515000121A8802504222900A43E0FFEF20E20335
:1051600002524C900DCFE0FF7E00D3EF9400EE642E
:105170008094805003025239900DCFE0FF7E00C32F
:10518000EF940AEE648094804003025239900A47FB
:10519000E0FFEF30E427900A47E0FFEF30E51E9094
:1051A0000A47E0FFEF54DFFF900A47EFF0900A470D
:1051B000E0FFEF54EFFF900A47EFF0807C900A4742
:1051C000E0FFEF30E527900A47E0FFEF20E41E9074
:1051D0000A47E0FFEF54DFFF900A47EFF0900A47DD
:1051E000E0FFEF4410FF900A47EFF0804C900A4731
:1051F000E0FFEF30E427900A47E0FFEF20E51E9044
:105200000A47E0FFEF4420FF900A47EFF0900A477B
:10521000E0FFEF4410FF900A47EFF0801C900A4730
:10522000E0FFEF4420FF900A47EFF0900A47E0FFCD
:10523000EF54EFFF900A47EFF0900DCFE4F0900AA3
:1052400043E0FFEF54FDFF900A43EFF0900A43E084
:10525000FFEF30E107900DCFE004F022900DCFE09A
:10526000FF7E00D3EF94C8EE648094805005900ACE
:1052700043E0FF22900B31121A9400000000900BC3
:1052800035121A9400000000900ABC1219FB900B12
:1052900035121A17C3121994506943CF10900B3569
:1052A0001219FBEF2400FFEE3486FEED3400FDEC16
:1052B0003400FC127C1D900B39EFF0900B31121969
:1052C000FBC004C005C006C0077B017A0B7939908A
:1052D0000BCD121A9400000001D007D006D005D0E3
:1052E0000412697E900B31121A88900B351219FB4B
:1052F0007B017A007900780012186E900B35121A33
:10530000888085900AC71219FB900B31121A17C3B7
:105310001219947075900ABC1219FB900B25121A81
:1053200088900AC71219FB900B29121A88900AC09C
:10533000E0FF900B21EFF0900AC1E0FF900B22EF0D
:10534000F0900AC2E0FF900B23EFF0900AC3E0FF59
:10535000900B24EFF0900B2D121A94A55A0FF07BAE
:10536000017A0B7921C003C002C0017B017A0B795D
:10537000A6A801AC02AD03D001D002D0037E007F0D
:10538000101215B2127B367F01227F0022900A8E06
:10539000121AD1900C807404F0900C817402F07F8A
:1053A000007E007D007C001264877E00EF4E701D41
:1053B000900A8E121AD1900C807404F0900C8174B3
:1053C00002F07F007E007D007C00126487900A8ED0
:1053D000121AD1758202758300121765FFAEF0C3F1
:1053E000EF94FFEE94FF5016900A8BE0FFEF54FD10
:1053F000FF900A8BEFF07F007E00126FEE22900A82
:105400008E121AD1900C807404F0900C817402F00A
:105410007F007E027D007C001264877E00EF4E706C
:105420001D900A8E121AD1900C807404F0900C8199
:105430007402F07F007E027D007C00126487900A77
:105440008E121AD1758202758300121765FFAEF0B5
:10545000C3EF94FFEE94FF5016900A8BE0FFEF44E9
:1054600002FF900A8BEFF07F007E02126FEE229017
:105470000A8BE0FFEF54FDFF900A8BEFF07F007E78
:1054800002126FEE7E007F047D00900A8E121AD108
:10549000121C1E900A45E0FFEF4440FF900A45EFC2
:1054A000F022900CBC121A88E598542FFF900CC47F
:1054B000E0FEEF4EFF900CC6E0FEEF4EF598900C2C
:1054C000C4E0FF7E00EF4E70377F007E007D007CE1
:1054D00000900CC0121A17C312199470065398DF6B
:1054E0000255A97F017E007D007C00900CC0121A3D
:1054F00017C312199460030255A94398200255A9B5
:10550000E5C854CFFF900CC5E0FEEF4EF5C8900CF7
:10551000C5E0FF7E00EF4E7041900CC0121A17904C
:105520000CBC1219FB1218B77B007A0179007800C5
:105530001218B78F8D900CC0121A17900CBC12194C
:10554000FB1218B7EF54FFFFEE5400FEED5400FDC0
:10555000EC5400FC8F8BC28E804F900CC5E0FF7E18
:1055600000EF64304E704275CE02900CC0121A17D4
:10557000900CBC1219FB1218B77B007A01790078E5
:10558000001218B78FCB900CC0121A17900CBC12D7
:1055900019FB1218B7EF54FFFFEE5400FEED540054
:1055A000FDEC5400FC8FCAD2CAD2AC22900BB612CA
:1055B0001A88900BBBE5F4F0A2AFE433A3F0AFDFA1
:1055C000A3E4F0A3EFF0C2AFE4FFFE7D01FC900B7B
:1055D000B6E0F8A3E0F9A3E0FAA3E0FBC312199444
:1055E00040787F007E807D017C00900BB6E0F8A3C0
:1055F000A3A3E0121994501DE5DF54CF4420F5DF3A
:10560000900BB6E0FCA3E0FDA3E0FEA3E02400FFC6
:10561000EE34808034E4FFFE7D02FC900BB6E0F8AF
:10562000A3E0F9A3E0FAA3E0FBC31219945033E519
:10563000DF54CF4430F5DF900BB6E0FCA3E0FDA3D0
:10564000E0FEA3E02400FFE43EFEED34FFFDEC3479
:10565000FFFC900BB6121A888008E5DF54CF441087
:10566000F5DFE4F5F4900BBAE0F5F5900BB6E0FC4D
:10567000A3E0FDA3E0FEA3E0FF78081219A58FF3D5
:10568000900BB6A3A3A3E0F5F275F1F075F6104305
:10569000F6020000000080050000000000900BBB37
:1056A000E0F5F4900BBDA3E0F5DF900BBCE024FF28
:1056B00092AF22900BB6121A88900BBAE5F4F0A2C2
:1056C000AFE433A3F0AFDFA3E4F0A3EFF0C2AFE4A5
:1056D000FFFE7D01FC900BB6E0F8A3E0F9A3E0FA31
:1056E000A3E0FBC312199440787F007E807D017C8B
:1056F00000900BB6E0F8A3A3A3E0121994501DE5A7
:10570000DF54CF4420F5DF900BB6E0FCA3E0FDA30F
:10571000E0FEA3E02400FFEE34808034E4FFFE7D51
:1057200002FC900BB6E0F8A3E0F9A3E0FAA3E0FBDB
:10573000C31219945033E5DF54CF4430F5DF900B9A
:10574000B6E0FCA3E0FDA3E0FEA3E02400FFE43EFE
:10575000FEED34FFFDEC34FFFC900BB6121A88808E
:1057600008E5DF54CF4410F5DFE4F5F4900BB6E024
:10577000FCA3E0FDA3E0FEA3E0FF78081219A58FCB
:10578000F3900BB6A3A3A3E0F5F275F1F075F62044
:1057900043F6020000000080050000000000900BAE
:1057A000BAE0F5F4900BBCA3E0F5DF900BBBE0246E
:1057B000FF92AF22900EADE599F0900CDBE0FF7EFA
:1057C00000EF4E7034900EADE0FF7E00EF64A54E0A
:1057D000701C900EADE0FF900CDDEFF0900EADE090
:1057E000FF900CDCE02FF0900CDBE004F022900C3A
:1057F000DBE4F0900CDCE4F022900CDBE0FF7E00B8
:10580000EF64074E707E900CDCE0FF900EADE0FE82
:10581000EE6F7065900CDFE0FF7E00D3EF9400EE3A
:1058200064809480401E900A44E0FFEF4480FF9023
:105830000A44EFF0900A44E0FFEF54BFFF900A449F
:10584000EFF0801C900A44E0FFEF547FFF900A4481
:10585000EFF0900A44E0FFEF4440FF900A44EFF07D
:10586000900A4BE0FFEF54FEFF900A4BEFF0900CD4
:10587000DBE4F0900CDCE4F022900CDBE4F0900C24
:10588000DCE4F022900EADE0FF900CDBE0FE74DD76
:105890002EF582E4340CF583EFF0900CDBE004F09D
:1058A000900EADE0FF900CDCE02FF022C0E0C0F0E5
:1058B000C083C082C0D075D000C000C001C002C08B
:1058C00003C004C005C006C00753B7BFE5B720E555
:1058D00003025986C2AF7B007D047F001240C27B69
:1058E000007D107F001240C27B007D087F041240C3
:1058F000C27B007D047F041240C27B007D027F04D6
:105900001240C27B007D807F031240C27B007D205D
:105910007F031240C27B007D107F031240C27B00D8
:105920007D087F031240C27B007D047F031240C2CA
:105930007B007D027F031240C27B007D017F01124C
:1059400040C27B007D047F011240C27B007D107F3E
:10595000011240C27B007D207F021240C27B007D8D
:10596000407F021240C27B007D807F021240C27BDA
:10597000007D017F001240C27B007D027F0012404B
:10598000C2126346D2AFD007D006D005D004D003F0
:10599000D002D001D000D0D0D082D083D0F0D0E0DF
:1059A00032900BB8EFF0F91247F512493C900BB961
:1059B000F0A3EFF0AF011276A0AD07AC06900BB9E3
:1059C000E0FEA3E0FFD39DEC6480F8EE6480985085
:1059D00014C3E49DFBE49CFAC3EF9BEA6480F8EEF9
:1059E000648098500E900BB8E0FF1248061248FAF7
:1059F000025A85ECA2E713FEED13FF900BB9E0FA13
:105A0000A3E0FBD31249895016ECA2E713FEED1375
:105A1000FFC3E49FFFE49EFEC3EB124989502312AB
:105A2000488BE0FAA3E0FBEAC313FEEB13FFC3EBE2
:105A30009FFBEA9EFAED124806E0C313FEA3E013B3
:105A4000803212488BE0FAA3E0FBAE027803CEC3AB
:105A500013CE13D8F9FFC3EB9FFBEA9EFA75F00251
:105A6000ED900B04121AC5E0FEA3E07803CEC31339
:105A7000CE13D8F92BFFEA3EFE900BB8E012489007
:105A8000EEF0A3EFF0900BB81247F5ECF0A3EDF0B9
:105A900022900B86121AF19001A8E0FF7E00EF4ED3
:105AA00060399001A8E0FF7E00EF64034E602C9007
:105AB0000B86121AD1C003C002C001900B93121AB8
:105AC000D189828A83D001D002D003121C1C90019C
:105AD000A8E4F09001A9E4F0A3E4F09001A8E0FFAD
:105AE0007E00EF64034E705F9001ADE4F0A3E4F03C
:105AF0009001A87401F07B017A0179AFC003C00264
:105B0000C001900B89121AD1900D49121AF1D001DF
:105B1000D002D003127306EF60037F02227B017A6A
:105B20000179AFC003C002C001900B8C121AD19052
:105B30000D49121AF1D001D002D003127306EF60A2
:105B4000037F03227F00229001A9E0FEA3E0FFE48F
:105B5000FCFD900B8F121A17C3121994500E90016E
:105B6000A9E4F0A3E4F09001A87401F07F00229072
:105B70000E77EFF0900E78E4F053DCF843DC02E5AA
:105B80008E54C0FF7E00EF64404E7045900E77E06B
:105B9000FF7E00EF64804E601D900E77E0FF7E0078
:105BA000EF64404E6010900E77E0FF7E00EF6408D7
:105BB0004E6003025C47900E77E0FFEF55C5FFEFA4
:105BC0006008900E787401F0807D900E78E4F0808B
:105BD00076E58E54C0FF7E00EF64804E7043900ED9
:105BE00077E0FF7E00EF64804E701B900E77E0FF41
:105BF000EF55C5FFEF6008900E787401F080489073
:105C00000E78E4F08041900E77E0FFEF55C4FFEF8F
:105C10006008900E787401F0802D900E78E4F0808A
:105C200026E58E54C0FF7E00EF64C04E7019900EC2
:105C300077E0FFEF55C4FFEF6008900E787401F035
:105C40008005900E78E4F0900E78E0FF227B027DD4
:105C5000047F001240C27B027D107F001240C27B95
:105C6000017D207F001240C27B027D087F0512402B
:105C7000C27B027D047F041240C27B027D027F044E
:105C80001240C27B027D807F031240C27B027D20D6
:105C90007F031240C27B027D107F031240C27B0251
:105CA0007D087F031240C27B027D047F031240C245
:105CB0007B027D027F031240C27B027D017F0112C5
:105CC00040C27B027D047F011240C27B027D107FB7
:105CD000011240C27B027D207F021240C27B027D06
:105CE000407F021240C27B027D807F021240C27B55
:105CF000027D017F001240C27B027D027F001240C4
:105D0000C27B027D407F011240C27B027D407F0347
:105D10001240C222900A43E0FFEF30E613900A439C
:105D2000E0FFEF54BFFF900A43EFF07F02126003E1
:105D3000900A4CE0FFEF30E513900A4CE0FFEF547F
:105D4000DFFF900A4CEFF07F13126003900A4CE0E3
:105D5000FFEF30E413900A4CE0FFEF54EFFF900A9E
:105D60004CEFF07F14126003900A4CE0FFEF30E13B
:105D700013900A4CE0FFEF54FDFF900A4CEFF07FC8
:105D800015126003900A4CE0FFEF30E213900A4CCA
:105D9000E0FFEF54FBFF900A4CEFF07F1612600318
:105DA000900A4CE0FFEF30E013900A4CE0FFEF5414
:105DB000FEFF900A4CEFF07F17126003900A4CE050
:105DC000FFEF30E313900A4CE0FFEF54F7FF900A27
:105DD0004CEFF07F1812600322900E24E4F0A3E44D
:105DE000F0900E26E4F0127BBE900D62121A940021
:105DF0000086007F007E107D007C0012759A900E58
:105E000024E4F0A3E4F0900E24E0FEA3E0FFE4FC21
:105E1000FD900AB0121A17D3121994405843CF10AC
:105E2000900E24E0FEA3E0FFE4FCFDEF2400FFEE73
:105E30003486FEED3400FDEC3400FC127C1D900E27
:105E400026EFF0900E24E0FEA3E0FFEF2400FFEE2B
:105E50003410FEE4FCFD900E26E0FB900DEBEBF021
:105E6000127AECEF70037F0022900E24E475F001AB
:105E700012170E8091900C9FE4F0A37410F07B0138
:105E80007A0A79AC900CA1121AF17FF07E857D0020
:105E90007C001268757F0122900CC7EEF0A3EFF032
:105EA000900CC9121AF1900CCC74FF121A55EC4DDB
:105EB0004E4F7003025F47900CC7E0FCA3E0FD90DB
:105EC0000CC9E475F001121ADA1215D8FF7E00EF42
:105ED0007F00FEEC6EFEED6FFF900CC7EEF0A3EFBF
:105EE000F0900CD0E4F0900CD0E0FF7E00C3EF9473
:105EF00008EE6480948050AE900CC7E0FEA3E0FFF3
:105F0000EE30E721900CC7E0FEA3E0FFEF25E0FFB5
:105F1000EE33FEEE6410FEEF6421FF900CC7EEF04E
:105F2000A3EFF08017900CC7E0FEA3E0FFEF25E0A1
:105F3000FFEE33FE900CC7EEF0A3EFF0900CD0E034
:105F400004F080A2025EA6900CC7E0FEA3E0FF2250
:105F5000900EC0EFF053DCF843DC02E58E54C0FF36
:105F60007E00EF64404E7033900EC0E0FF7E00EF85
:105F700064804E601A900EC0E0FF7E00EF64404ED9
:105F8000600D900EC0E0FF7E00EF64084E707390CD
:105F90000EC0E0FFEFF4FFEF52C522E58E54C0FFC4
:105FA0007E00EF64804E7025900EC0E0FF7E00EF13
:105FB00064804E700C900EC0E0FFEFF4FFEF52C50E
:105FC00022900EC0E0FFEFF4FFEF52C422E58E54A2
:105FD000C0FF7E00EF64C04E7028900EC0E0FF7ED0
:105FE00000EF64024E600D900EC0E0FF7E00EF6493
:105FF000014E700EE5C454FCFF900EC0E0FEEF4E63
:10600000F5C422900E6BEFF0900A41E0FF7E00C3D2
:10601000EF9414EE648094804005900A41E4F0907F
:106020000E6CE4F0900A41E0FF900E6CE0FEEED3BF
:106030009F5063900E6CE0FF74612FF582E4340A88
:10604000F583E0FF900E6BE0FEEE6F7041900E6BFB
:10605000E0FF7E00EF64154E6034900E6BE0FF7E33
:1060600000EF64164E6027900E6BE0FF7E00EF6439
:10607000174E601A900E6BE0FF7E00EF64184E60C2
:106080000D900E6BE0FF7E00EF64144E7024900EB6
:106090006CE004F0808E900E6BE0FF900A41E0FE11
:1060A00074612EF582E4340AF583EFF0900A41E042
:1060B00004F022900C85EEF0A3EFF0900C87121AFA
:1060C000F1900C87121AD1900C8D121AF1900C8B52
:1060D000E4F0900C8AE0FF900C8BE0FEEEC39F5042
:1060E00078900C8BE0FF7E00900C85E0FCA3E0FD37
:1060F000EF2DFFEE3CFE900C8D121AD1900C8BE030
:10610000FD8D827583001215F1FD126F8B900C8B43
:10611000E0FF7E00900C85E0FCA3E0FDEF2DFFEE9C
:106120003CFEE4FCFD900D7A7402F012720B900CB0
:106130008CEFF0900C8D121AD1900C8BE0FF8F82B7
:106140007583001215F1FF900C8CE0FEEEB50791FF
:10615000900C8BE004F00260D27F0122900E4EEF93
:10616000F0900E4FEDF0900E50EBF0900E4EE0FFE1
:10617000EF121BF261840061920261B40361DA04E0
:10618000000061FF900E4FE0FF900E50E0FD12788E
:10619000EE22900E4FE0FF7E00EF4E7004C2AD8005
:1061A00002D2AD900E50E0FF7E00EF4E7003C2BDF4
:1061B00022D2BD22900E4FE0FF7E00EF4E700553BD
:1061C000A9BF800343A940900E50E0FF7E00EF4E30
:1061D000700453B9BF2243B94022900E4FE0FF7EB6
:1061E00000EF4E700553A97F800343A980900E50A5
:1061F000E0FF7E00EF4E700453B97F2243B9802246
:10620000900E3FEFF0900E40EDF0900E3FE0FFEF6C
:1062100054F0FF7E00EF4E7042900E40E0FF7E0093
:10622000EF64014E7019900E3FE0FFEF540FFFA88E
:10623000077401088002C333D8FCFFEF42D32290D9
:106240000E3FE0FFEF540FFFA8077401088002C360
:1062500033D8FCFFEFF4FFEF52D322900E3FE0FF64
:10626000EF54F0FFEFC4540FF5CE900E3FE0FFEF78
:1062700030E008900E417420F08006900E417410BA
:10628000F0900E40E0FF7E00EF64014E7009900E2A
:1062900041E0FFEF42C922900E41E0FFEFF4FFEF33
:1062A00052C922900D21121A88900D29E5F4F0A20E
:1062B000AFE433FF900D2AEFF0900D2AE0FF7E004F
:1062C000EF4E6002C2AF900D27E4F0900D26E0FF84
:1062D0007E00EF4E7015900D211219FB900D25E0F8
:1062E000FB900BBAEBF01255AC801B900D26E0FF33
:1062F0007E00EF64024E700E900D211219FB900D7E
:1063000025E0FD126F8B900D211219FB900D26E0F8
:10631000FB900D7AEBF012720B900D28EFF0900DC0
:1063200029E0FF8FF4900D2AE0FF7E00EF4E60021F
:10633000D2AF900D25E0FF900D28E0FEEE6F6003D8
:106340007F00227F0122900A8BE0FFEF20E1729014
:106350000A8E121AD1758202758300E475F001125B
:1063600017D5900A8E121AD1900C8A7404F07F000F
:106370007E001260B37E00EF4E706C900A8E121A8F
:10638000D1900C8A7404F07F007E001260B37E000E
:10639000EF4E7053900A8E121AD1900C8A7404F04A
:1063A0007F007E001260B37E00EF4E703A900A8E3E
:1063B000121AD1900C8A7404F07F007E021260B32E
:1063C00022900A8E121AD1758202758300E475F04C
:1063D00000121841900A8E121AD1900C8A7404F09F
:1063E0007F007E021260B322900A46E0FF7E00EF3B
:1063F0004E7005C2B3C2B522D2B7D2B4D2B2D2B1B6
:10640000900A47E0FFEF30E33F900A47E0FFEF5488
:10641000F7FF900A47EFF0D2B3C2B5900A46E0FF0B
:10642000EF30E402C2B7900A46E0FFEF30E502C267
:10643000B4900A46E0FFEF30E602C2B2900A46E0AE
:10644000FFEF30E741C2B122900A47E0FFEF440876
:10645000FF900A47EFF0C2B3D2B5900A46E0FFEFD3
:1064600030E002C2B7900A46E0FFEF30E102C2B46A
:10647000900A46E0FFEF30E202C2B2900A46E0FF27
:10648000EF30E302C2B122900C79121A88900C7D91
:10649000121AF1900C84E5F4F0A2AFE433FF900CF3
:1064A00083EFF0900C83E0FF7E00EF4E6002C2AFFE
:1064B000900C81E0FF8FF4900C82E4F0900C791244
:1064C00019FB8F828E83E493FF900C7D121AD1907A
:1064D0000C82E0FE8E82758300EF121685900C7997
:1064E0001219FB7B017A007900780012186E900C6B
:1064F00079121A88900C80E0FF900C82E004FEF084
:10650000EEC39F40B7900C84E0FF8FF4900C83E0C3
:10651000FF7E00EF4E6002D2AF900C82E0FF22902F
:106520000B76121A88900B7A121AF1900B761219C8
:10653000FB900B81121A8812502E900B7D74FF1263
:106540001A55EC4D4E4F6066900B811219FBEF54BB
:10655000FFFFEE5400FEED5400FDEC5400FC900BE8
:1065600085EFF0900B811219FB78081219A5900B9A
:1065700081121A88900B811219FB900B7A121AD192
:106580001215D8FB900B85E0FAEA6BFB75F004EB73
:106590009004B4121AC5121A17121956900B8112D0
:1065A0001A88900B7BE475F00112170E808C900B0B
:1065B000811219FB22900E17EFF0900E18EDF0905B
:1065C0000E17E0FF7E00C3EF941FEE6480948050AE
:1065D00065900E17E0FF7E007401A807088005C3D0
:1065E00033CE33CED8F9FF900E19EEF0A3EFF09032
:1065F0000E18E0FF7E00EF4E7022900E19E0FEA311
:10660000E0FFEFF4FFEF52AB900E19E0FEA3E0FFC6
:10661000EEFF7E00EFF4FFEF52AC801A900E19E00F
:10662000FEA3E0FFEF42AB900E19E0FEA3E0FFEE09
:10663000FF7E00EF42ACE5AD54E0FF900E17E0FEA8
:10664000EF4EF5AD22900EA9EFF0900A4BE0FFEF70
:1066500030E345900EA9E0FF7E00EF4E701D900ADA
:106660005D1219FBEF2458FFEE3402FEED3400FDFD
:10667000EC3400FC900A5D121A8822900A59121913
:10668000FBEF2458FFEE3402FEED3400FDEC340045
:10669000FC900A59121A8822900EA9E0FF7E00EFA2
:1066A0004E7018900A5D1219FB7B017A0079007810
:1066B0000012186E900A5D121A8822900A59121957
:1066C000FB7B017A007900780012186E900A59124B
:1066D0001A8822900EAAEFF0900A4BE0FFEF30E309
:1066E00045900EAAE0FF7E00EF4E701D900A5512F5
:1066F00019FBEF2480FFEE3451FEED3401FDEC3444
:1067000000FC900A55121A8822900A511219FBEFC8
:106710002480FFEE3451FEED3401FDEC3400FC909A
:106720000A51121A8822900EAAE0FF7E00EF4E70E6
:1067300018900A551219FB7B017A00790078001233
:10674000186E900A55121A8822900A511219FB7B72
:10675000017A007900780012186E900A51121A8896
:1067600022C2AF75FEC1AFFFD2AFEF5430FD7C0047
:1067700070047920801CED64104C70047910801234
:10678000ED64204C700479088008ED64304C700290
:106790007904E924F8601824F8602024F0602824A3
:1067A0001C7030900BB87401F0A374F4F080269044
:1067B0000BB87403F0A374E8F0801A900BB8740758
:1067C000F0A374D0F0800E900BB8740FF0A374A0F7
:1067D000F08002E4F9900BB8E07002A3E0600C9046
:1067E0000BB874FFF5F012170E80EA2275FE854390
:1067F000FF2053DB7FD2AFC209E4900D3BF0900B3A
:1068000016F012715CE4FF12743AEF2401FDE433D8
:10681000FC7E0F7FA01216B9900D36EEF0A3EFF0BC
:10682000E4FF127C7812492A7F0212743AEFC454B2
:10683000F0FEC006E4FF12743AD0E02FF5E17F03CA
:1068400012743AE5E254804FF5E27F0412743AEF95
:106850006008E5E254804480F5E27F0112743A8FCB
:10686000E312779B43A910900B02E04480F5E812F5
:106870006DDA027BFE900C9B121A88900CA4E4F057
:10688000A3E4F0900C9FE0FEA3E0FF900CA4E0FCDA
:10689000A3E0FDC3ED9FEE6480F8EC648098505750
:1068A000900CA4E0FEA3E0FFEE3395E0FDFC900C1D
:1068B0009B121A1712186EC004C005C006C00790BC
:1068C0000CA1121AD1900CA4E0FEA3E0FF8F828EDF
:1068D000831215F1FF900DEBEFF0D007D006D00535
:1068E000D004127AECEF70037F0022900CA4E475C0
:1068F000F00112170E808C7F0122900A42E0FF7E89
:1069000000C3EF9414EE64809480401D900A42E42A
:10691000F0900A42E0FF74612FF582E4340AF583B7
:10692000E0FF900EA8EFF0804F900A41E0FF900A40
:1069300042E0FEEEC39F4012900A42E4F0900A410A
:10694000E4F0900EA874FFF0802E900A42E0FF74ED
:10695000612FF582E4340AF583E0FF900EA8EFF092
:10696000900A42E0FF74612FF582E4340AF58374E3
:10697000FFF0900A42E004F0900EA8E0FF22900B96
:10698000C6121A88900BCA121AF1900BD1121A94DF
:1069900000000000900BCD1219FB900BD1121A17BA
:1069A000C31219945052900BC61219FBC004C005B3
:1069B000C006C007900BD11219FB900BCA121AD156
:1069C0008F828E831215F1FFAB07E4FAF9F8D00736
:1069D000D006D005D00412186E900BC6121A8890FB
:1069E0000BD11219FB7B017A007900780012186E26
:1069F000900BD1121A88809C900BC61219FB229022
:106A00000BC0EFF0127D4C900BC1EFF0126A749046
:106A10000D37E025E0FF900D36E033FE7C00124894
:106A2000D8124809E0FAA3E0C39FEA9E5009900BF0
