:1000000002290030000302280321033000030228E4
:100010000B210B30000302281321133000030228A8
:100020001B211B3000030228232123300003022858
:100030002B212B3000030228332133300003022808
:100040003B213B30000302284321433000030228B8
:100050004B214B3000030228532153300003022868
:100060005B215B3000030228632163300003022818
:100070006B216B30000302287321733000030228C8
:100080007B217B3000030228832183300003022878
:100090008B218B3000030228932193300003022828
:1000A0009B219B3000030228A321A33000030228D8
:0300B000AB21ABD6
:10280000026F210228167F06026D0E0252C9B29491
:10281000B2A52202281E5388FD32220228225388A4
:10282000F732320267EE53ADDF323202282A7520CA
:10283000FF2232022826D2EE223232022832A209A8
:10284000223232022839D20922323202283A7F015A
:102850002232320228410200003232026A1A8FB557
:012860002255
:062863000253C48F99220C
:06286B00022842AF992291
:03287300022849EF
:03287B0002284AE6
:03288300022851D7
:03288B00022852CE
:03289300022859BF
:10289B0002285AAD07AC06900A0DE5F4F0A2AFE49E
:1028AB0033A3F0AFDFA3E4F0A3EFF0C2AF75F402F4
:1028BB00ECF5F3AF058FF2AFF3EFFEADF27C00E476
:1028CB002DEC3EC39418501475F1F075F62043F6B9
:1028DB00020000000080050000000000900A0DE0DF
:1028EB00F5F4900A0FA3E0F5DF900A0EE024FF92B7
:0228FB00AF220A
:1029000078FFE4F6D8FD9000007F007E01E4F0A39C
:10291000DFFCDEFA758121022955024C01E493A304
:10292000F8E493A34003F68001F208DFF48029E481
:1029300093A3F85407240CC8C333C4540F4420C8CD
:10294000834004F456800146F6DFE4800B01020464
:10295000081020408090436BE47E019360BCA3FF8D
:10296000543F30E509541FFEE493A360010ECF5499
:10297000C025E060A840B8E493A3FAE493A3F8E488
:1029800093A3C8C582C8CAC583CAF0A3C8C582C8F4
:10299000CAC583CADFE9DEE780BEAB07AA06900A94
:1029A00040E5F4F0A2AFE433A3F0AFDFA3E4F0A37B
:1029B000EFF0C2AF75F402AF058FF5EAF5F3AF03A0
:1029C0008FF2AFF3EFFEADF27C00E42DEC3EC3944A
:1029D00018501475F1F075F61043F602000000006F
:1029E00080050000000000900A40E0F5F4900A42E3
:0D29F000A3E0F5DF900A41E024FF92AF2242
:102A000020230414EC4D6011E8497017ED33EC33CA
:102A100004600DE4FCFFFEFD22E933E8330470F8A6
:102A2000022C2D122BF858046009E4CC24815006A6
:102A3000285009022C37284003022C34C0E0EB4A0E
:102A40007044B98006D0E0FB022C23EF4E701CBD11
:102A50008008EBFFEAFEE9FD80EBE98DF0A4FEE5DE
:102A6000F0022AEDE9CDF9EAFEEBFFEF89F0A4FCD4
:102A7000E5F0CE89F0A42EFFE435F0CD89F0A42D49
:102A8000FEE435F08067EF4E7005BD80D780C3EF60
:102A90008BF0A4ACF0EE8BF0A42CFCE435F0F8EF56
:102AA0008AF0A42CE5F038FCE433CB8DF0A42CFCA8
:102AB000E5F03BF8EE8AF0A42CFCE5F038F8E433BE
:102AC000CF89F0A42CFCE5F038CF3400CE89F0A4F7
:102AD0002FFFE5F03EFEE433C98DF0A42EFEE5F0B5
:102AE00039CD8AF0A42FFFE5F03EFEE43DFD33D062
:102AF000E0FB50070BBB000F022C37EC2CFCEF3334
:102B0000FFEE33FEED33FD022C0F74F8CC6480CC65
:102B1000C86480C8F58204604FC3EB9FF5F0EA9E5D
:102B200042F0E99D42F0E89C45F0603C501DE58292
:102B30005FFFE582D313CB5BCBF42B5582FB502890
:102B40000ABA002409B9002008801DE5825BFBE574
:102B500082D313CF5FCFF4C3132F5582FF50090EDA
:102B6000BE00050DBD00010CC3EB9FF5F0EA9E42CF
:102B7000F0E99D42F0E89C45F06007CC4820E70171
:102B8000B3EC2275F020800E75F010800575F0080A
:102B90007D007E007F003392D530D5031230D0EC1B
:102BA000334010EF33FFEE33FEED33FDEC33FCD555
:102BB000F0ED22E5F0247EA2D513CC92E7CDCEFF36
:102BC00022EDD2E7CD33EC3392D524814006E4FFE9
:102BD000FEFDFC22FCE4CFCECDCC24E0501174FFEE
:102BE00080EDC3CC13CCCD13CDCE13CECF13CF04F9
:102BF00070F030D5DE0230D0E9D2E7C933E833F8DF
:102C000092D5EDD2E7CD33EC33FC5002B2D522ECB5
:102C100030E7100FBF000C0EBE00080DBD00040B06
:102C2000EB6014A2D5EB13FCED92E7FD2274FFFCE0
:102C3000FDFEFF22E480F8A2D574FF13FC7D80E442
:102C400080EFE709F608DFFA8046E709F208DFFAC5
:102C5000803E88828C83E709F0A3DFFA8032E309A3
:102C6000F608DFFA8078E309F208DFFA80708882DC
:102C70008C83E309F0A3DFFA806489828A83E0A36E
:102C8000F608DFFA805889828A83E0A3F208DFFA27
:102C9000804C80D280FA80C680D4806980F28033F4
:102CA000801080A680EA809A80A880DA80E280CABC
:102CB000803389828A83ECFAE493A3C8C582C8CCA6
:102CC000C583CCF0A3C8C582C8CCC583CCDFE9DE00
:102CD000E7800D89828A83E493A3F608DFF9ECFA92
:102CE000A9F0EDFB2289828A83ECFAE0A3C8C582B1
:102CF000C8CCC583CCF0A3C8C582C8CCC583CCDF03
:102D0000EADEE880DB89828A83E493A3F208DFF9B4
:102D100080CC88F0EF60010E4E60C388F0ED240295
:102D2000B4040050B9F582EB2402B4040050AF2380
:102D300023458223902C9273BB010689828A83E00B
:102D4000225002E722BBFE02E32289828A83E493B7
:102D500022BB010CE58229F582E5833AF583E02266
:102D60005006E92582F8E622BBFE06E92582F8E254
:102D700022E58229F582E5833AF583E49322BB01BB
:102D80000989828A83F8E028F022500327F722BBC2
:102D9000FE05F8E328F3228A838982F8E493282247
:102DA000BB010FF8E58229F582E5833AF583E02837
:102DB000F0225009C58229F8E58226F622BBFE09D9
:102DC000C58229F8E22582F222F8EA2583F583E913
:102DD000932822BB010689828A83F0225002F722BF
:102DE000BBFE01F322F8BB010DE58229F582E583E4
:102DF0003AF583E8F0225006E92582C8F622BBFEA8
:102E000005E92582C8F222EF8DF0A4A8F0CF8CF05E
:102E1000A428CE8DF0A42EFE22BC000BBE0029EF0C
:102E20008DF084FFADF022E4CCF875F008EF2FFFB1
:102E3000EE33FEEC33FCEE9DEC984005FCEE9DFE7F
:102E40000FD5F0E9E4CEFD22EDF8F5F0EE8420D2C6
:102E50001CFEADF075F008EF2FFFED33FD40079835
:102E60005006D5F0F222C398FD0FD5F0EA22C5F046
:102E7000F8A3E028F0C5F0F8E5821582700215830A
:102E8000E038F022A3F8E0C5F025F0F0E5821582E5
:102E900070021583E0C838F0E822BB010A89828AF3
:102EA00083E0F5F0A3E022500687F009E71922BB82
:102EB000FE07E3F5F009E3192289828A83E493F59A
:102EC000F074019322BB0110E58229F582E5833A73
:102ED000F583E0F5F0A3E0225009E92582F886F0B9
:102EE00008E622BBFE0AE92582F8E2F5F008E222B4
:102EF000E5832AF583E993F5F0A3E99322BB010763
:102F000089828A83022E6E500B09C5F027F7C5F01F
:102F10001937F722BBFE0D09F8E325F0F3C5F019C8
:102F2000E338F322F889828A8374019325F0C5F08F
:102F3000F8E4933822BB010DC58229C582C5833AC6
:102F4000C583022E6E5011C58229F808E5F026F6D9
:102F500018F5F0E58236F622BBFE11C58229F80885
:102F6000E225F0F5F0F218E23582F222F8E5822946
:102F7000F582E5832AF58374019325F0F5F0E49357
:102F80003822BB010A89828A83F0E5F0A3F022503F
:102F900006F709A7F01922BBFE06F3E5F009F319BD
:102FA00022F8BB0111E58229F582E5833AF583E831
:102FB000F0E5F0A3F0225009E92582C8F608A6F052
:102FC00022BBFE09E92582C8F2E5F008F222EF2BC8
:102FD000FFEE3AFEED39FDEC38FC2275F008758203
:102FE00000EF2FFFEE33FECD33CDCC33CCC5823393
:102FF000C5829BED9AEC99E58298400CF582EE9B98
:10300000FEED9AFDEC99FC0FD5F0D6E4CEFBE4CDB5
:10301000FAE4CCF9A88222B800C1B90059BA002D4F
:10302000EC8BF084CFCECDFCE5F0CBF97818EF2F08
:10303000FFEE33FEED33FDEC33FCEB33FB10D70337
:10304000994004EB99FB0FD8E5E4F9FA227818EFE0
:103050002FFFEE33FEED33FDEC33FCC933C910D73F
:10306000059BE99A4007EC9BFCE99AF90FD8E0E44C
:10307000C9FAE4CCFB2275F010EF2FFFEE33FEED22
:1030800033FDCC33CCC833C810D7079BEC9AE899F2
:10309000400AED9BFDEC9AFCE899F80FD5F0DAE4D4
:1030A000CDFBE4CCFAE4C8F922EF5BFFEE5AFEED6B
:1030B00059FDEC58FC22EF6BFFEE6AFEED69FDEC6A
:1030C00068FC22CFF4CFCEF4CECDF4CDCCF4CC221C
:1030D000C3E49FFFE49EFEE49DFDE49CFC22EB9F85
:1030E000F5F0EA9E42F0E99D42F0EC6480C864800D
:1030F0009845F022EB9FF5F0EA9E42F0E99D42F000
:10310000E89C45F022E8600FECC313FCED13FDEEE4
:1031100013FEEF13FFD8F122E8600FEFC333FFEE89
:1031200033FEED33FDEC33FCD8F122BB010DE5821B
:1031300029F582E5833AF58302315B5007E9258260
:10314000F8023384BBFE07E92582F8023390E5825A
:1031500029F582E5833AF583023167E0FCA3E0FDBF
:10316000A3E0FEA3E0FF22E493FC740193FD74024C
:1031700093FE740393FF22E0F8A3E0F9A3E0FAA31F
:10318000E0FB22BB010DE58229F582E5833AF58358
:103190000231775007E92582F802339CBBFE07E92C
:1031A0002582F80233A9E58229F582E5833AF58381
:1031B0000233B67401FF3395E0FEFDFCA3A3A3E048
:1031C000CF2FF0E582158270021583E0CE3EF0E548
:1031D00082158270021583E0CD3DF0E58215827084
:1031E000021583E0CC3CF022ECF0A3EDF0A3EEF06E
:1031F000A3EFF022A8828583F0D083D08212320B15
:1032000012320B12320B12320BE473E493A3C58318
:10321000C5F0C583C8C582C8F0A3C583C5F0C58302
:10322000C8C582C822A42582F582E5F03583F583DE
:1032300022E0FBA3E0FAA3E0F922F8E0FBA3A3E07D
:10324000F925F0F0E582158270021583E0FA38F076
:1032500022EBF0A3EAF0A3E9F022BB010789828AFE
:10326000830232315005E9F80233C6BBFE05E9F8A6
:103270000233D889828A830233EABB011A89828A9F
:1032800083D0F0D0E0F8D0E0F9D0E0FAD0E0FBE86D
:10329000C0E0C0F00232515016E9F8D083D082D09D
:1032A000E0F9D0E0FAD0E0FBC082C0830233CFBBAC
:1032B000FE16E9F8D083D082D0E0F9D0E0FAD0E071
:1032C000FBC082C0830233E122BB010DE58229F5F8
:1032D00082E5833AF5830232315007E92582F8020C
:1032E00033C6BBFE07E92582F80233D8E58229F50B
:1032F00082E5833AF5830233EABB0120E58229F5B2
:1033000082E5833AF583D0F0D0E0F8D0E0F9D0E060
:10331000FAD0E0FBE8C0E0C0F00232515018E925D5
:1033200082F8D083D082D0E0F9D0E0FAD0E0FBC0C0
:1033300082C0830233CFBBFE18E92582F8D083D048
:1033400082D0E0F9D0E0FAD0E0FBC082C083023343
:10335000E1228A838982E473EF4E6012EF60010EEE
:10336000EDBB010B89828A83F0A3DFFCDEFA2289A0
:10337000F05007F709DFFCA9F022BBFEFCF309DFE0
:10338000FCA9F022E6FC08E6FD08E6FE08E6FF22BE
:10339000E2FC08E2FD08E2FE08E2FF22E6FB08E6A6
:1033A000F908E6FA08E6CBF822E2FB08E2F908E2BF
:1033B000FA08E2CBF822E493F8740193F9740293CB
:1033C000FA740393FB22E6FB08E6FA08E6F922EB1F
:1033D000F608EAF608E9F622E2FB08E2FA08E2F962
:1033E00022EBF208EAF208E9F222E493FB7401937B
:1033F000FA740293F9229009ECEFF0E49009F4F0EA
:103400009009ECE0900AFF1248D5124A189009ED95
:10341000F0A3EFF0E47F01FEFDFC9009ECE0F9F889
:103420001231188F198E188D178C16AF01126C641B
:103430009009F2EEF0A3EFF01249284005124A3A43
:103440008005E49009EFF09009EFE0640160030269
:1034500035A89009ECE0FF240B12493DE0C394FA33
:1034600074809480500612493AE004F01249EBFC53
:10347000E4FBFAF9F8C31230F46003023595900AC0
:10348000FEE09009F1F012284EEF6030E49009EF71
:10349000F0A3F0124975501812493AE0C394017430
:1034A00080948040069009EFE004F01249FF80E329
:1034B0001249A840079009F1E0240FF09009ECE0D0
:1034C000240B12493D124A5A5003023595E49009E3
:1034D000EFF0127128EF705E9009F0F0124975500C
:1034E000229009ECE06F60161271039009F0E0245D
:1034F0000B12493DE0C39F4005124A3A800512492C
:10350000FF80D912284EEF3395E04F70639009EF9A
:10351000E0705DA3F012497550569009ECE06F60C1
:10352000101271039009F012498FE0C39F4002808E
:103530003C1249FF80DF12284EEF3395E04F703088
:103540009009F1F09009F0F0124975501812493ABB
:10355000E0C394027480948040069009F1E004F086
:103560001249FF80E39009F11249AB4003124A3A35
:103570009009EFE064017002D208E5154519FFE5F6
:10358000144518FEE5134517FDE51245168F158EF7
:10359000148D13F5129009ECE0FF24131248EBE4AC
:1035A000F0A31249820237BB9009ECE0FF126F9B37
:1035B0009009EDE0FCA3E0FDD312491C400812493C
:1035C0008CE004F0800B900B5FE004F012498CE477
:1035D000F0124A22C3E49FFBE49EFAC3ED9BEA1279
:1035E000491E4066D312492950601249C9F583E447
:1035F000124982124953600302370F9009EDE0FE31
:10360000A3E0FF9009ECE0900B0F12496FEE8FF0F2
:10361000122E6E1270CE12490A4009124945E47505
:10362000F00180191270CEC3E49FFFE49EFE1249A0
:103630000A400302370F12494574FFF5F0122E6E4F
:10364000124900E4F0A3F002370F124A22C3E49FAC
:10365000FFE412492650731249C912497EF583E4EA
:10366000F074132FF582E4340BF583E0FF75F00A54
:1036700084E5F07044C3EF9464748094809009EC06
:10368000E040101249CEF583E4F0D209900B2304F8
:10369000F0802612494AC083C082E0FEA3E0FF907A
:1036A0000B1CE0A2E713FD3395E0FCC3EF9DFFEE9A
:1036B0009CD082D083F0A3EFF09009ECE0FF900B58
:1036C00058E06F704A74FFF08045124A22D31249C5
:1036D00029403C9009ECE01249CE12495370301257
:1036E0004A4112497EF583E064207023124A41F575
:1036F00083E4F0900B1CE0A2E713A2E713FD3395DF
:10370000E0FC75F002EF12494DEC8DF0122E6E12B6
:1037100049EB4D4E4F70030237C79009F2E0FCA30E
:10372000E0FDAE047802CEA2E713CE13D8F8FFC3B3
:10373000ED9FFFEC12492640030237C012499AE080
:1037400004F01271309009F1EFF0E49009F0F012FA
:103750004975501812493AE0C3940174809480402E
:10376000069009EFE004F01249FF80E31249A840F7
:1037700008900AFEE09009F1F09009ECE0FB124994
:103780009E124A5A500302381174212B1249A0E4A8
:10379000F0AF19AE18AD17AC161230C3E5155FFFC8
:1037A000E5145EFEE5135DFDE5125C8F158E148D4C
:1037B00013F512740B2BF582E4340BF583E4F0223D
:1037C00012499AE014F0229009ECE0240B12493DD2
:1037D00012495570089009ECE0FF1260B7E51A1421
:1037E000FF9009ECE06F7029900B5FE0C3951A40E1
:1037F00020E49009F0F0124975500E12493AE06049
:1038000003124A3A1249FF80ED9009EFE07002C2BC
:1038100008229009EF123251E49009F2F0A3F090DF
:10382000000FE0703B7F43126D0E90000F7401F0AB
:1038300090000EF0E4900013F0A3F0900002F090DE
:103840000ABF1231F400000000900000E4F0A3046D
:10385000F0E49000A7F090001D1231F40000000089
:10386000900011E0FEA3E0FFD3900014E09F9000D1
:1038700013E09E4012900002E004F07F15126D0EDE
:10388000E4900013F0A3F090000FE06401600302E5
:103890003BAFC3900018E09401900017E0940050F3
:1038A00003023BAF900019123231122D38640460CC
:1038B000030239B09009F5F09009F5E0FF7E00C3EE
:1038C00094FF74809480503BC374FF9FFFE49EFE7E
:1038D00074B02FF58274033EF583E0F4701D9009F7
:1038E000F5E0FFC374FF9FFFE49400FE74AF2FF573
:1038F0008274033EF583E0641A60089009F5E004E1
:10390000F080B59009F5E02406F07B017A0379B0E8
:10391000E0FFC3E49FFF74019400FEE4FCFD900906
:10392000FE1231E890001D12315B1261AD90001D56
:103930001231E8E49009F6F09009F6E0FFC3940430
:1039400074809480504D9009F5E0FDC3E49DFD74B2
:10395000019400FC7E00ED2FFFEE3CFE74B02FF5CD
:103960008274033EF583E0FB90001D12315BEF6B28
:1039700060089000A77401F0801990001D12315B5F
:10398000780812310590001D1231E89009F6E00424
:10399000F080A5E4900013F0A3F0900017F0A3F0DE
:1039A00090000E7402F0A3F07F06126D0E7F0122CC
:1039B000900019123231122D386418701E900013C5
:1039C000F0A3F0900017F0A3F090000E7405F0A3A0
:1039D0007402F07F06126D0E7F0322D3900018E070
:1039E0009485900017E094004019E4900013F0A330
:1039F000F0900002E004F0E4900017F0A3F07F15CF
:103A0000126D0E900019123231122D3864016003CC
:103A1000023BAF900017E07004A3E06485600302EE
:103A20003BAF900013F0A3F0900017F0A3F0A312A7
:103A30003231900001122D51FF900000E0FCA3E014
:103A4000FD6F7001E46003023BA3A3F0C3ED940398
:103A5000EC9400401F7B017A0379B09009FE12318B
:103A6000F40000008090001D12315B1261AD9000E7
:103A70001D1231E8E49009F5F09009F5E0FFC394D8
:103A800080748094805042E0FE2430F582E4340457
:103A9000F583E0FD74B02EF582E43403F583EDF098
:103AA000EF2403FDE433FC9000191232318D828C37
:103AB00083122D51FE74302FF582E43404F583EE29
:103AC000F09009F5E004F080B0900019123231E96D
:103AD0002403F9E43AFA9009FC1231F40000008062
:103AE0009009F2E0FEA3E0FF125F2C9009F2EEF0E5
:103AF000FCA3EFF0FD900019123231900083122DDB
:103B000051FEC3ED9400FFEC9EFE900084122D51F7
:103B1000FDC3EF9DFFEE94004F6003023BA39000B6
:103B200001E024FFFF900000E034FFFE9009EF1257
:103B30003231900001EE8FF0122FA1900003E47556
:103B4000F080122FA1E49009F4F09009EF123231C5
:103B5000900003122EC5FF9009F4E07C00C39FEC97
:103B600095F05033E0FF2403FDEC33FC9000191274
:103B700032318D828C83122D51FE9009EF12323139
:103B80009000051232C98F82758300EE122DE590E8
:103B900009F4E004F080B3900000E475F001122E07
:103BA0006E800C900002E02402F07F15126D0E90E2
:103BB0000002E0C394197480948040237F18126D32
:103BC0000E7F18126D0E7F18126D0EE4900017F024
:103BD000A3F090000E7405F0A37402F07F03227F1F
:103BE0000022900A5AE020E110900A5DE0D3940090
:103BF000748094805003023C9F9008BAE04401F026
:103C0000900A5DE030E6089008BB7401F080769081
:103C10000A5DE030E7089008BB7402F08067900A04
:103C20005AE030E1089008BB7403F08058900A5DB8
:103C3000E030E0089008BB741FF08049900A5DE016
:103C400030E1089008BB7420F0803A900A5DE030C3
:103C5000E2089008BB7421F0802B900A5DE030E30D
:103C6000089008BB7422F0801C900A5DE030E408E4
:103C70009008BB7423F0800D900A5DE030E506905B
:103C800008BB7424F0900A5AE054FDF0E4900A5DF9
:103C9000F09008C0F09008BCF0A3F0A3F0A3F0905F
:103CA00008BAE020E003023EAAA3E0640170317B81
:103CB000017A0879BC9009EE1232517A0879BE90E7
:103CC00009F11232517A0879C09009F41232517A0E
:103CD0000809124111EF64016003023EB0023EA2E6
:103CE0009008BBE0640270327B017A0879BC9009CD
:103CF000EE1232517A0879BE9009F11232517A08E7
:103D000079C09009F41232517A0879E9124111EF21
:103D100064016003023EB0023EA29008BBE064036F
:103D200070327B017A0879BC9009EE1232517A0820
:103D300079BE9009F11232517A0879C09009F412D3
:103D400032517A097911124111EF64016003023E88
:103D5000B0023EA29008BBE0641F70327B017A087B
:103D600079BC9009EE1232517A0879BE9009F112AD
:103D700032517A0879C09009F41232517A0979499E
:103D8000124111EF64016003023EB0023EA29008AE
:103D9000BBE0642070327B017A0879BC9009EE1296
:103DA00032517A0879BE9009F11232517A0879C0FD
:103DB0009009F41232517A097981124111EF6401AC
:103DC0006003023EB0023EA29008BBE06421703264
:103DD0007B017A0879BC9009EE1232517A0879BEDB
:103DE0009009F11232517A0879C09009F4123251D7
:103DF0007A097991124111EF64016003023EB00229
:103E00003EA29008BBE06422702E7B017A0879BC48
:103E10009009EE1232517A0879BE9009F1123251AE
:103E20007A0879C09009F41232517A0979A91241BD
:103E300011EF6401707A806A9008BBE06423702EF1
:103E40007B017A0879BC9009EE1232517A0879BE6A
:103E50009009F11232517A0879C09009F412325166
:103E60007A0979B9124111EF6401704480349008E5
:103E7000BBE06424703A7B017A0879BC9009EE12A9
:103E800032517A0879BE9009F11232517A0879C01C
:103E90009009F41232517A0979D1124111EF64017B
:103EA000700E9008BAE054FEF022E4FDFF126DD4CB
:103EB00022E49009EBF0900004E0C3940574809430
:103EC00080500302410BE064086010900003E0D3CF
:103ED0009420748094805003023FE1E47F2C7E01A3
:103EE000FDFC900005123177C31230F4401D9000A4
:103EF000051231F4000000007BFF7A717957126DD2
:103F0000A6900003E004F0E0547FF09001A8E06484
:103F100003600302410B04F0E49001ADF0A3F090C4
:103F20000004E064086003023FAE7BFF7A717961B0
:103F3000900A021232517B017A0179AF126870EF58
:103F400060097BFF7A71796C126DA67BFF7A7179BB
:103F500074900A021232517B017A0179AF126870B3
:103F6000EF60097BFF7A71796C126DA67BFF7A7125
:103F7000798A900A021232517B017A0179AF126874
:103F800070EF60097BFF7A7179A5126DA67BFF7ACD
:103F90007179B7900A021232517B017A0179AF121E
:103FA0006870EF60097BFF7A71796C126DA67BFFF8
:103FB0007A7179CB900A021232517B017A0179AF82
:103FC000126870EF700302410B9009F01231F40097
:103FD000000FA0E4FF126E109009EB7401F0024193
:103FE0000BE47F2C7E01FDFC900005123177C3129B
:103FF00030F440149000051231F4000000009000ED
:1040000003E004F0E0547FF0900004E024FA6058EC
:104010001470030240B3240260030241057BFF7A5F
:104020007179F59009F21232517A7179F89009F5A7
:104030001232519009F81231F4000000647A6D795F
:10404000A69009FC1232517A7179DB125B31900033
:1040500021EFF06402600302410B9009F01231F489
:1040600000000FA07F0680467BFF7A7179F59009EA
:10407000F21232517A7179F89009F51232519009A1
:10408000F81231F4000000647A6D79A69009FC12F0
:1040900032517A7179FE125B31900021EFF06402A7
:1040A00070699009F01231F400000FA07F07126EC2
:1040B0001080587BFF7A7179F59009F21232517AAB
:1040C0007179F89009F51232519009F81231F40023
:1040D0000000647A6D79A69009FC1232517A7179E8
:1040E000A5125B31900021EFF06402701E9009F080
:1040F0001231F400000FA07F08126E10E49001A9A5
:10410000F0A3F080069000047405F09009EBE0FF46
:10411000229009EB1232519009F4123231122D38EB
:10412000FEF470037F0122EE75F008A4FF9009EB06
:10413000123231E92FF9EA35F0FA900004122EC557
:10414000FDACF0E4122B887BCD7ACC794C783E1212
:104150002A04C004C005C006C0079009EE1232311F
:10416000122E9AFDACF0E4122B88A804A905AA0629
:10417000AB07D007D006D005D004122B0A400302AB
:1041800042509009EB123231C003C002C0019009C5
:10419000F4123231122D3875F008A4F58285F083BF
:1041A000D001D002D0031231839008B4E0FEA3E026
:1041B000FFE4FCFDC31230F460709009EB12323161
:1041C000C003C002C0019009F4123231122D3875BB
:1041D000F008A4F58285F083D001D002D00312311B
:1041E0002BAD07AC069008B4ECF0A3EDF07F1012F5
:1041F0006CBA9009EB123231C003C002C0019009C1
:10420000F4123231122D3875F008A4F58285F0834E
:10421000D001D002D00312312B9008B8EEF0A3EFFA
:10422000F07D01E4FF126DD480219008B8E0FCA37A
:10423000E0FDE4122B88E4FBFAF9783F122A04121D
:104240002BC1AD07AC067F021268B09009EE806BFF
:104250009009F4123231122D3875F008A4FF90093C
:10426000EB123231E92FF9EA35F0FA900006122EFE
:10427000C5FDACF0E4122B887BCD7ACC794C783E2E
:10428000122A04C004C005C006C0079009F112320A
:1042900031122E9AFDACF0E4122B88A804A905AACD
:1042A00006AB07D007D006D005D004122B0A501851
:1042B000E4FDFC7F021268B09009F1123231E4751E
:1042C000F001122EFD0243689009F412323174019C
:1042D000122D7E9009EE123231E4F5F0122F829009
:1042E00009F1123231E4F5F0122F829009EB12320B
:1042F00031C003C002C0019009F4123231122D38CE
:1043000075F008A4F58285F083D001D002D00312A5
:10431000312B9008B8EEF0A3EFF09009EB12323198
:10432000C003C002C0019009F4123231122D387559
:10433000F008A4F58285F083D001D002D0031231B9
:104340002B74FFFBFAF97800C31230F4701A90094D
:10435000F412323174FF122DD3E49008B4F0A3F0BC
:10436000FDFF126DD47F01227F00224404B0EDB81E
:104370008320410021004100A70041000300420BBF
:10438000600000410B6205410B6300602808C1001A
:1043900000076C00C800780000096000C8007800C1
:1043A000000B5400C8007800000D4800C804B0009D
:1043B000FFFFFFFFFFFFFF602808E900000D480036
:1043C000C8007800000B5400C800780000096000A5
:1043D000C800780000076C00C804B000FFFFFFFFB2
:1043E000FFFFFF6038091100000F9F017C026C0085
:1043F000000F9F017C026C00000F9F017C026C008B
:10440000000F9F017C026C00000F9F017C026C007A
:10441000000F9F017C026C00FFFFFFFFFFFFFF60AA
:1044200038094900000D48017C026C00000D48016C
:104430007C026C00000D48017C026C00000D4801FC
:104440007C026C00000D48017C026C00000D4801EC
:104450007C026C00FFFFFFFFFFFFFF50098100009F
:104460000CE400C8026C00FFFFFFFFFFFFFF5809CC
:104470009100000C1C05DC000000000C4E01F40053
:104480000000FFFFFFFFFFFFFF5009A900000CE441
:10449000017C026C00FFFFFFFFFFFFFF5809B9001E
:1044A0000008FC017C026C000006A4017C026C0088
:1044B000FFFFFFFFFFFFFF5809D1000006A4017CAA
:1044C0000064000008FC017C006400FFFFFFFFFFA8
:1044D000FFFF4208B400004208B600004208B800DE
:1044E00000410B2400410B6500410B6600410B6746
:1044F00000410B6400480B41603399909090D5FACD
:10450000580ACEE100E20FE326E437E502E600E7D1
:10451000F9E8F9E9F9EA05EB01EC03580AE6E100EC
:10452000E20FE326E437E502E600E7F9E8F9E9F906
:10453000EA05EB01EC03410B5D00410B2300410A4E
:104540009E00C10A440AC3AA5555AA440ACA0000DB
:104550000000440ABF00000000009009EB12325135
:10456000900004E014606014700302461324FE708F
:10457000030246CC240460030247197BFF7A727958
:10458000179009F21232517A7279269009F5123297
:10459000519009F81231F4000000647A6D79A69008
:1045A00009FC1232517A717957125B31900021EF78
:1045B000F0640260030247199009F01231F4000020
:1045C00013887F010246C97BFF7A7179F59009F261
:1045D0001232517A7179F89009F51232519009F836
:1045E0001231F4000000647A6D79A69009FC123251
:1045F000517A727930125B31900021EFF0640260E1
:10460000030247199009F01231F4000013887F0269
:104610000246C99000051231F4000000009009EB39
:10462000123231122D3864037018900003122EC517
:1046300045F0700E1228069009EB12323174011207
:104640002DD39009EB123231122D38640F700A0409
:10465000122DD390001C7403F09009EB123231122A
:10466000381290001CEFF0640170389000A7E070E1
:104670001012471A9009EB1232317404122DD380B4
:104680001F9009EB123231740F122DD3E49003AF57
:10469000F09009F01231F400002EE07F04126E1049
:1046A00002280690001CE0640370129003AFF090A3
:1046B00009F01231F400002EE07F04800C9009F024
:1046C0001231F4000013887F02026E10E49009EEAC
:1046D000F09009EEE0C3940A7480948050327BFF1E
:1046E0007A727940126DA69000051231F400000034
:1046F00000E47FC8FEFDFC900005123177C3123044
:10470000F4500543CF1080E99009EEE004F080C139
:10471000E4900004F0FF126E30229009EF7403F071
:10472000E4FF1268F09009F01231E89009F01231BC
:104730005BE4FFFEFDEC54F0FCE4FBFAF97890C377
:104740001230F450030247F29009F012315BE4FF9B
:10475000FEFDEC540FFCE47809C31230F450030260
:1047600047F29009F012315BE4FFFEED54F0FDE4F6
:10477000FC7990F8C31230F440789009F012315B64
:10478000E4FFFEED540FFDE4FC7909F8C31230F4A8
:1047900040609009F012315BE4FFEE54F0FEE4FD5E
:1047A000FC7A90F9F8C31230F440479009F01231C6
:1047B0005BE4FFEE540FFEE4FDFC7A09F8C312300F
:1047C000F4402F9009F012315BEF54F0FFE4FEFD4E
:1047D000FC7B90FAF8C31230F440179009F01231C4
:1047E0005BEF540FFFE4FEFDFC7B09F8C31230F4CD
:1047F000500A9009F01231F4000000007F011268A5
:10480000F09009F41231E8126ECA126EAC900AC32D
:10481000E0FF900AAFE06F702C900AC4E0FF900AAE
:10482000B0E0B50720900AC5E0FF900AB1E0B507F7
:1048300014900AC6E0FF900AB2E0B507089009EFAD
:104840007401F080069009EF7403F09009EFE064C2
:10485000017015A312315B9009F4123177D3123035
:10486000F440059009EF803F900AC3E0FF900A9F53
:10487000E06F702B900AC4E0FF900AA0E0B5071F1C
:10488000900AC5E0FF900AA1E0B50713900AC6E0C0
:10489000FF900AA2E0B50707E49009EFF0800B90C3
:1048A00009EFE0640170037402F09009EFE0FD7C11
:1048B0000070037F0122ED64024C7012125A8CEFDB
:1048C00060037F0122125A8CEF60037F01227F0078
:1048D00022E0900B1DFF75F002123225E0FCA3E0F0
:1048E000FDEF900B0775F002023225F582E4340BE0
:1048F000F583E4F074212FF582E4340BF583E4F0C2
:10490000900B0FEF75F0020232259009ECE075F084
:1049100002900B0F123225E0FCA3E0C39FEE6480EF
:10492000F8EC648098229EFEC39009EEE09FEE644E
:1049300080F89009EDE064809822740B2FF582E4F2
:10494000340BF583229009ECE0FF75F002900AFF2A
:10495000023225F583E4F0FFFEFDFCAB15AA14A995
:1049600013A812C30230F49009EDE0FD900B1D7501
:10497000F0020232259009F0E0FFC3951A22F58378
:10498000E004F074032FF582E4340B229009ECE08C
:10499000240DF582E4340BF583229009ECE0242108
:1049A000F582E4340BF583229009EFE0C39403749D
:1049B000809480227D0A122E19AD037C00122E07EE
:1049C0009009F5E0FD900AFF229009ECE0FF241326
:1049D000F582E4340B22E0FCA3E0FD75F002EF90D9
:1049E0000B1D123225ECF0A3EDF022E5155519FF51
:1049F000E5145518FEE5135517FDE51255162290DE
:104A000009F0E004F0227E00900B59E0FCA3E0FDE9
:104A1000122E078EE78FE622E0FEA3E0C39DFFEE95
:104A20009C22900B1CE0FF3395E0FE22A4FFE0C324
:104A30009FE5F06480F8748098229009EF7401F08B
:104A4000229009ECE0FF2403F582E4340B22900B62
:104A50001CE0FB3395E0FAFEEB22E0FF9009F1E069
:104A6000FEEFC39E229FEE6480F8EA648098229055
:104A700009EBE0FF900B57E0229009EB123251E472
:104A80009009EEF0A3F09009EB1232319000011280
:104A90002EC545F070239009FF1231F40000FC0090
:104AA0007E921267AC900ABF1231F40000000090B1
:104AB0000ACA1231F4000000009009EB1232319062
:104AC0000003122EC5FF9009EEE5F0F0A3EFF09081
:104AD0000003122EC5FDACF0900001122EC5FFAEF2
:104AE000F0122E07C3EE94285003024BF89009EB06
:104AF000123231900003122EC5FDACF0900001126D
:104B00002EC5FFAEF0122E07E4FCFDFB7A92F9F8F9
:104B1000D31230DE5003024BF89009EB1232319081
:104B20000003122EC5FDACF0900001122EC5FFAEA1
:104B3000F0122E07E4FCFDC006C0079009EB12320C
:104B400031900003122EC5AEF0FBE4C39BFB7492C0
:104B50009EFAE49400F9E49400F8D007D006C3125A
:104B600030DE700B9009EE74FF75F0F0122E6E902F
:104B700009EB123231900003122EC5FDACF090000B
:104B800001122EC5FFAEF0122E07E42FFFEE34D82F
:104B9000FE9000051232C99009EEE0FDA3E09009F5
:104BA000F5CDF0A3EDF0126307EF60459009EB122D
:104BB00032319000051232C99009EEE0FEA3E0FF09
:104BC000E4FCFD900A0B1231E8900ACA126034909E
:104BD0000ACA1231E8900ABF1231779009EEE0FE5E
:104BE000A3E0FFE4FCFD122FCE900ABF1231E88053
:104BF00007E49009EEF0A3F09009EEE0FEA3E0FFD9
:104C00002212282E1228007B017A0079A89009EE42
:104C10001232517BFF7A6F790512676AE4FF1270D6
:104C20007B125EA3126C90125767C3900A83E094C4
:104C3000C8900A82E0940040F11270F943CF10123C
:104C40003EB17B017A0A799612455A900A99E07032
:104C500002A3E0602C126F567B017A0A7996124A01
:104C6000799009E9EEF0A3EFF04E900A9660057492
:104C700003F08003740FF0E4900A99F0A3F0126F30
:104C8000C4900A96E06404701A126F561255A5EF8C
:104C9000700B126FC4900A96740FF08006126FC4E6
:104CA000122856900A96E0640F701A7B017A0079F8
:104CB000A89009EE1232517BFF7A6F790512676A6C
:104CC000E4FF12707B900B19E030E771547FF01213
:104CD0004E96900B511231E8E4FFFEFDFC900B5113
:104CE000123177D31230F4404A900A58E054FBF066
:104CF000900B5112315BEF5402FFE4FEFDFCEF60BC
:104D000007900A58E04401F0900B5112315B78088B
:104D1000123105900B511231E8900B5112315BEFBB
:104D20005440FFE4FEFDFCEF6010900A58E044029E
:104D3000F08007900A58E04404F0122836126B7194
:104D4000E5B720E50B900B55E0645A6003024C3C3C
:104D5000900B55E054A5F0126641900A5AE04402C7
:104D6000F0024C3C9009EBEFF0900B5D1249AB4028
:104D70003EE4F0900B23E0702B9009ECF09009ECEE
:104D8000E0C3951A501EE0FF12496CE0FCA3E0FD61
:104D900075F002EF12494DECF0A3EDF09009ECE054
:104DA00004F080D91269DFC209E4900B23F022904D
:104DB0000B57E004F0124A6FB50708126FFDE4903C
:104DC0000B58F0124A6FD39F5003024E95E490099E
:104DD000ECF09009ECE0C3951A507A1248D1124ACF
:104DE00018AD07FC900B23E0702E124A4E7802C3D8
:104DF00033CE33CED8F9FFD3ED12491C4046E49BA5
:104E0000FFE49AFEEF7802C333CE33CED8F9FFC366
:104E1000ED12491C502E803D124A4E7803C333CE0A
:104E200033CED8F9FFD3ED12491C4018E49BFFE4C0
:104E30009AFEEF7803C333CE33CED8F9FFC3ED1219
:104E4000491C40119009ECE0FF1254B59009ECE0C8
:104E500004F0024DD29009ECE0B51A06900B58E030
:104E600004F09009EBE0FD75F008900B57124A2C06
:104E70004023E4F0C208900B5DE004F0ED75F0040F
:104E8000900B58124A2C400DE4900B5DF0126E50BE
:104E90001269DFC20922E4F509F511F510F50FF5E5
:104EA0000E12283E5003024FA9126C088F0D8E0C73
:104EB0008D0B8C0AE4F508E508C3951A504CAF0D2C
:104EC000AE0CAD0BAC0A78011231058F0D8E0C8D36
:104ED0000B8C0A30D730E47F01FEFDFC74052508F9
:104EE000F582E4340BF583E0F9F8123118E5114F3F
:104EF000FFE5104EFEE50F4DFDE50E4C8F118E10B7
:104F00008D0FF50E0509050880ADAF097E00C3EFD2
:104F10009402748094804018D208EF9403748094B3
:104F20008040051228468008127128EF6002C208EE
:104F3000200828E4FFFEFDFCAB11AA10A90FA80E63
:104F4000C31230F4600C900B1AE475F001122E6E4F
:104F5000801CE4900B1AF0A3F08013900B17E475FB
:104F6000F001122E6EE4F511F510F50FF50E12702A
:104F7000C3D3900B1BE09F900B1AE09E400A1228AF
:104F800046E4900B1AF0A3F0D3900B18E0942C9009
:104F90000B17E09401401D122846900B237401F07A
:104FA000E4900B17F0A3F0800B90725FE474019310
:104FB000FF124D64AF11AE10AD0FAC0E22900A2D52
:104FC0001231E8900A32E5F4F0A2AFE433A3F0AF77
:104FD000DFA3E4F0A3EFF0C2AFE4FFFE7D01FC909D
:104FE0000A2DE0F8A3E0F9A3E0FAA3E0FBC3123036
:104FF000F440787F007E807D017C00900A2DE0F8EF
:10500000A3A3A3E01230F4501DE5DF54CF4420F5F4
:10501000DF900A2DE0FCA3E0FDA3E0FEA3E0240066
:10502000FFEE34808034E4FFFE7D02FC900A2DE028
:10503000F8A3E0F9A3E0FAA3E0FBC31230F4503385
:10504000E5DF54CF4430F5DF900A2DE0FCA3E0FD0E
:10505000A3E0FEA3E02400FFE43EFEED34FFFDEC00
:1050600034FFFC900A2D1231E88008E5DF54CF446C
:1050700010F5DFE4F5F4900A31E0F5F5900A2DE043
:10508000FCA3E0FDA3E0FEA3E0FF78081231058F4A
:10509000F3900A2DA3A3A3E0F5F275F1F075F610D5
:1050A00043F6020000000080050000000000900AA6
:1050B00032E0F5F4900A34A3E0F5DF900A33E024FF
:1050C000FF92AF22900A071231F400000000900A0C
:1050D0000C1231F400000000E4FF7E01FDFC900A98
:1050E0000C123177C31230F440030251C7900A0703
:1050F0001231F400000000900A0B7401F0900A0BCA
:10510000E07003025189900A0712315BEF5401FFEE
:10511000E4FEFDFCFBFAF9F8C31230F4900A0760D4
:105120001F12315B7801123105900A071231E890A5
:105130000A0712315B9004B01231771230B6800842
:1051400012315B7801123105900A071231E8900A9A
:105150000BE0FFE4FCFDFEA31231771230A9E4FB63
:10516000FAF9F8C31230F46015900A0712315B9017
:1051700004B01231771230B6900A071231E8900A63
:105180000BE0FF25E0F00250FD900A0712315B9022
:105190000A0C1231779004B475F004EB123225EA50
:1051A00025E025E02583F5831231E8900A0C1231C1
:1051B0005BEF2401FFE43EFEE43DFDE43CFC900A8D
:1051C0000C1231E80250D822900A0D1231E8900AF0
:1051D00011E5F4F0A2AFE433A3F0AFDFA3E4F0A352
:1051E000EFF0C2AFE4FFFE7D01FC900A0DE0F8A3F2
:1051F000E0F9A3E0FAA3E0FBC31230F440787F00AB
:105200007E807D017C00900A0DE0F8A3A3A3E0124C
:1052100030F4501DE5DF54CF4420F5DF900A0DE057
:10522000FCA3E0FDA3E0FEA3E02400FFEE348080B9
:1052300034E4FFFE7D02FC900A0DE0F8A3E0F9A340
:10524000E0FAA3E0FBC31230F45033E5DF54CF445F
:1052500030F5DF900A0DE0FCA3E0FDA3E0FEA3E043
:105260002400FFE43EFEED34FFFDEC34FFFC900A29
:105270000D1231E88008E5DF54CF4410F5DFE4F586
:10528000F4900A0DE0FCA3E0FDA3E0FEA3E0FF78AC
:10529000081231058FF3900A0DA3A3A3E0F5F27570
:1052A000F1F075F62043F6020000000080050000D2
:1052B000000000900A11E0F5F4900A13A3E0F5DF76
:1052C000900A12E024FF92AF22C0E0C0F0C083C079
:1052D00082C0D075D000C000C001C002C003C004AD
:1052E000C005C006C0077F007E83127148126C376C
:1052F000900A82E475F001122E6E900A84E004F0A8
:10530000A3E004F0A3E004F0A3E004F0A3E004F0C1
:10531000E075F00384E5F0700C900A61E04420F041
:10532000900A88E4F0900A87E075F00584E5F07053
:105330000C900A61E04410F0900A87E4F0900A862D
:10534000E075F01484E5F0700C900A61E04402F01E
:10535000900A86E4F0900A85E075F03284E5F070FA
:105360000C900A61E04404F0900A85E4F0900A820F
:10537000E0FEA3E0FF7C037DE8122E19ED4C700ED9
:10538000900A61E04408F0900A82E4F0A3F0900AE9
:1053900084E075F06484E5F0700C900A61E04401EB
:1053A000F0900A84E4F0126723D007D006D005D02D
:1053B00004D003D002D001D000D0D0D082D083D08E
:1053C000F0D0E032C0E0C0F0C083C082C0D075D061
:1053D00000C000C001C002C003C004C005C006C0B8
:1053E0000753B7BFE5B720E50302549AC2AFE4FB09
:1053F0007D04FF125690E4FB7D10FF125690E4FBF3
:105400007D087F04125690E4FB7D047F04125690C1
:10541000E4FB7D027F04125690E4FB7D807F031243
:105420005690E4FB7D207F03125690E4FB7D107FB5
:1054300003125690E4FB7D087F03125690E4FB7D37
:10544000047F03125690E4FB7D027F03125690E422
:10545000FB7D017F01125690E4FB7D047F01125613
:1054600090E4FB7D107F01125690E4FB7D207F02CB
:10547000125690E4FB7D407F02125690E4FB7D8043
:105480007F02125690E4FB7D01FF125690E4FB7DF3
:1054900002FF125690126641D2AFD007D006D00557
:1054A000D004D003D002D001D000D0D0D082D0839D
:1054B000D0F0D0E0329009EDEFF0F91248D1124A65
:1054C000189009EEF0A3EFF0AF01126C64AD07ACD9
:1054D000069009EEE0FEA3E0FFD39DEC6480F8EEB9
:1054E0006480985014C3E49DFBE49CFAC3EF9BEAEC
:1054F0006480F8EE648098500E9009EDE0FF124849
:10550000E21249D6025599ECA2E713FEED13FF9083
:1055100009EEE0FAA3E0FBD3124A655016ECA2E7CD
:1055200013FEED13FFC3E49FFFE49EFEC3EB124A9C
:10553000655023124967E0FAA3E0FBEAC313FEEBD0
:1055400013FFC3EB9FFBEA9EFAED1248E2E0C313A0
:10555000FEA3E0138032124967E0FAA3E0FBAE023B
:105560007803CEC313CE13D8F9FFC3EB9FFBEA9E9B
:10557000FA75F002ED900B07123225E0FEA3E078F9
:1055800003CEC313CE13D8F92BFFEA3EFE9009EDEC
:10559000E012496CEEF0A3EFF09009ED1248D1EC67
:1055A000F0A3EDF0229009FB1231F400000000900E
:1055B00009FF1231F400000000900ABF12315B9025
:1055C00009FF123177C31230F4505543CF109009C0
:1055D000FF12315BE42FFFEE3492FEE43DFDE43C2C
:1055E000FC127138900A03EFF07B017A0A7903907C
:1055F0000A0B1231F4000000019009FB1260349094
:1056000009FB1231E89009FF12315BEF2401FFE43E
:105610003EFEE43DFDE43CFC9009FF1231E8809938
:10562000900ACA12315B9009FB123177C31230F431
:10563000705B900ABF12315B9009EF1231E8900A5B
:10564000CA12315B9009F31231E8900AC3E0900965
:10565000EBF0900AC4E09009ECF0900AC5E09009E4
:10566000EDF0900AC6E09009EEF09009F71231F4DF
:10567000A55A0FF078047C0A7D017B017A0979EB49
:105680007E007F10122D12126DEF7F01227F00220B
:10569000EF14603A14605814607314700302572BAF
:1056A00014700302574924056003025766EB146027
:1056B0001114601624026003025766EDF4529A52E8
:1056C0009B22EDF4529AED429B22ED429A22EB147A
:1056D000601114601624026003025766EDF45291C3
:1056E000529222EDF45291ED429222ED429122EB40
:1056F00014600E1460132402706CEDF452A152A2D7
:1057000022EDF452A1ED42A222ED42A122EB14605F
:105710000E1460132402704EEDF452B152B222ED19
:10572000F452B1ED42B222ED42B122EB14600E14FC
:10573000601324027030EDF452C152C222EDF452D3
:10574000C1ED42C222ED42C122EB14600E1460137F
:1057500024027012EDF452D952DA22EDF452D9ED4E
:1057600042DA22ED42D922900A911232319009F3A5
:105770007414F0A37402F07F007E007D007C0012A0
:105780005FB0EF701B900A911232319009F37414DC
:10579000F0A37402F07F007E007D007C00125FB0F9
:1057A000900A91123231900002122EC5C394FFE587
:1057B000F094FF500C900A90E054FDF0E4FFFE805E
:1057C00057900A911232319009F37414F0A37402C5
:1057D000F07F00FE7D007C00125FB0EF701A900A2F
:1057E000911232319009F37414F0A37402F07F0027
:1057F000FE7D007C00125FB0900A91123231900061
:1058000002122EC5C394FFE5F094FF900A90E05079
:105810000A4402F07F007E0202289E54FDF07F00C1
:105820007E0212289E7E007F147D00900A91123223
:1058300031123358900A5AE04440F022900A58E05E
:1058400030E415900A5AE020E20EE4900B62F090EA
:105850000A5AE04404F08012900A58E020E40B90C9
:105860000B62E0640270037403F0900B62E014605A
:105870003714604A14604914606C147003025901B3
:1058800024056003025909D2C2900B627401F090A2
:105890000A5BE054EFF0E054DFF0E054BFF0E04486
:1058A00080F0A3E04440F022900B63E004F0E0D3EA
:1058B0009409748094804051E4F0D2C0803C00226E
:1058C000C2C2E4900B63F0900B62E004F0900A5ABD
:1058D000E054FBF0A3E054EFF0E054DFF0E054BFFD
:1058E000F0E0547FF022900B63E004F0E0D39409E1
:1058F000748094804013E4F0C2C0900B62E004F026
:1059000022900A5CE054BFF000227B027D04E4FF99
:105910001256907B027D10E4FF1256907B017D2091
:10592000E4FF1256907B027D087F041256907B02A2
:105930007D047F041256907B027D027F04125690F4
:105940007B027D807F031256907B027D207F0312B5
:1059500056907B027D107F031256907B027D087F5C
:10596000031256907B027D047F031256907B027DCA
:10597000027F031256907B027D017F011256907BBD
:10598000027D047F011256907B027D107F0112562A
:10599000907B027D207F021256907B027D407F0229
:1059A0001256907B027D807F021256907B027D0111
:1059B000E4FF1256907B027D02E4FF125690D280E3
:1059C000C281D294C2A5D2A6C2A7D284C28222909A
:1059D00009EB1231E8E598542FFF9009F3E0FE4FF0
:1059E000FF9009F5E04FF598EE702AFFFEFDFC9060
:1059F00009EF123177C31230F470045398DF22E4B8
:105A00007F01FEFDFC9009EF123177C31230F47074
:105A10007A43982022E5C854CFFF9009F4E0FE4F66
:105A2000F5C8EE702E9009EF1231779009EB123124
:105A30005B123017E4FB7A01F9F81230178F8D9062
:105A400009EF1231779009EB12315B1230178F8B0F
:105A5000C28E229009F4E06430703075CE02900955
:105A6000EF1231779009EB12315B123017E4FB7AB9
:105A700001F9F81230178FCB9009EF1231779009A6
:105A8000EB12315B1230178FCAD2CA22E49009F8A8
:105A9000F0A3F0A3F0126ECA9009FF1231F40000D7
:105AA00092007E281267ACE49009F8F0A3F0900908
:105AB000F8E0FEA3E0FFE4FCFD900AB3123177D3D7
:105AC0001230F4404B43CF109009F8E0FEA3E0FF02
:105AD000E42FFFEE3492FEE433FDE433FC12713820
:105AE0009009FAEFF0FB9009F9E02400FF9009F823
:105AF000E03428FEE4FCFD900A23EBF0127021EF65
:105B00007002FF229009F8E475F001122E6E809E5B
:105B1000900A18E4F0A37410F07B017A0A79AFA31D
:105B20001232517FF07E917D007C001263737F0101
:105B3000229001A8E06027E064036022C003C00255
:105B4000C0019009FC12323189828A83D001D002CF
:105B5000D003123356E49001A8F0A3F0A3F0900113
:105B6000A8E0640370439001ADF0A3F09001A80495
:105B7000F09009F2123231900A021232517B017A0E
:105B80000179AF126870EF60037F02229009F5126D
:105B90003231900A021232517B017A0179AF1268D8
:105BA00070EF7F0060287F03229001A9E0FEA3E050
:105BB000FFE4FCFD9009F8123177C31230F4500C69
:105BC000E49001A9F0A3F09001A804F07F002290D6
:105BD0000A58E030E20CE4900B67F0900A58E05469
:105BE000FEF0900A58E030E008900B67E004F08087
:105BF00014900B67E0D394C874809480506D900A21
:105C000058E030E066900B67E0FD7C00643C702B50
:105C1000900A5DE04402F0900A5BE054FEF0E0542C
:105C2000FDF0E054FBF0E054F7F0E04410F0E04405
:105C300020F0E04440F0E04480F022ED64644C70D9
:105C40002A900A5DE04404F0900A5BE04401F0E031
:105C50004402F0E04404F0E04408F0E054EFF0E0E7
:105C600054DFF0E054BFF0E0547FF022900A91122C
:105C70003231900A3B7414F0E4FFFE900A36EEF0E5
:105C8000A3EFF0900A3D123251E4900A3CF0900AE2
:105C90003CE0C39414748094805063900A3CE0FF0D
:105CA000900A37E02FFF900A36E03400FE900A3D5C
:105CB000123231900A3CE0F582758300122D51FDBD
:105CC00012299A900A3CE0FF900A37E02FFF900AD1
:105CD00036E03400FEE4FCFD900A447402F0126BDE
:105CE000D8900A3D123231900A3CE0F5827583006B
:105CF000122D51B507A5900A3CE004F080907F0179
:105D000022900A5BE07005C2B3C2B522D2B7D2B40A
:105D1000D2B2D2B1900A5BE020E40CE020E508E0CA
:105D200020E604E030E728D2B3900A5BE030E402DA
:105D3000C2B7900A5BE030E502C2B4900A5BE03083
:105D4000E602C2B2900A5BE030E706C2B18002C24E
:105D5000B3900A5BE020E00CE020E108E020E204E0
:105D6000E030E327D2B5900A5BE030E002C2B790A2
:105D70000A5BE030E102C2B4900A5BE030E202C2AA
:105D8000B2900A5BE030E305C2B122C2B522C2AFD5
:105D900075FEC1AFFFD2AFEF5430FD7C00700479C7
:105DA00020801CED64104C700479108012ED64208A
:105DB0004C700479088008ED64304C70027904E975
:105DC00024F8601824F8602024F06028241C703027
:105DD0009009ED7401F0A374F4F080269009ED743D
:105DE00003F0A374E8F0801A9009ED7407F0A3742F
:105DF000D0F0800E9009ED740FF0A374A0F0800233
:105E0000E4F99009EDE07002A3E0600C9009ED74F4
:105E1000FFF5F0122E6E80EA22900A58E030E2631D
:105E2000900B66E0FFD39400748094804049EF9417
:105E30000A748094805040900A5CE030E409E030BD
:105E4000E505E054DF802B900A5CE030E509E020B6
:105E5000E405E054DF800E900A5CE030E40EE020C0
:105E6000E50AE04420F0E04410F0800B900A5CE08A
:105E70004420F0E054EFF0E4900B66F0900A58E014
:105E800054FDF0900A58E030E107900B66E004F012
:105E900022900B66E0D394C8748094805004900ADA
:105EA00058E02275FE8543FF2053DB7FD2AFC20945
:105EB000E4900B5EF0900B19F012668DE4FF126B0C
:105EC000A6EF2401FDE433FC7E0F7FA0122E199073
:105ED0000B59EEF0A3EFF0E4FF12700F124A067FA9
:105EE00002126BA6EFC454F0FEC006E4FF126BA6CC
:105EF000D0E02FF5E17F03126BA6E5E254804FF569
:105F0000E27F04126BA6EF6008E5E254804480F55E
:105F1000E27F01126BA68FE31269DF43A910900B99
:105F200005E04480F5E8126137026E509009F7EE03
:105F3000F0A3EFF0A31232519009FC74FF1231B5B7
:105F4000EC4D4E4F60619009F9E475F00112323A60
:105F5000122D38FE9009F7E06EF0A3E0F0E4900A0D
:105F600000F0900A00E0C394087480948050C990B7
:105F700009F7E0FEA3E0FFEE30E717EF25E0FFEEC4
:105F8000336410FEEF6421FF9009F7EEF0A3EFF009
:105F9000800D9009F8E025E0F09009F7E033F090EB
:105FA0000A00E004F080BB9009F7E0FEA3E0FF22C6
:105FB0009009EC1231E89009F01232519009F7E59E
:105FC000F4F0A2AFE4339009F6F0E06002C2AF90C3
:105FD00009F4E0F5F4E4A3F09009EC12315B8F8250
:105FE0008E83E493FF9009F01232319009F5E0F5C9
:105FF00082758300EF122DE59009EC12315BEF24DE
:1060000001FFE43EFEE43DFDE43CFC9009EC12316E
:10601000E89009F3E0FF9009F5E004F0C39F40B871
:106020009009F7E0F5F49009F6E06002D2AF90092C
:10603000F5E0FF2212315B900A041231E8900A0861
:10604000123251900A0F1231F400000000900A0B36
:1060500012315B900A0F123177C31230F450529014
:106060000A04123177C000C001C002C003900A0FB9
:1060700012315B900A081232318F828E83122D51B9
:10608000FFE4FCFDFED003D002D001D000122FCEE1
:10609000900A041231E8900A0F12315BEF2401FFDD
:1060A000E43EFEE43DFDE43CFC900A0F1231E88042
:1060B0009C900A0402315B9009F5EFF01270B690E3
:1060C00009F6EFF012612C900B5AE025E0FF900BDF
:1060D00059E033FE7C001249B41248E5E0FAA3E02F
:1060E000C39FEA9E50099009F6E0603F14802D128C
:1060F000612C900B59E0FEA3E0FF7C007D07122E7F
:10610000071249B4124904E0FAA3E0D39FEA9E4083
:106110001A9009F6E0FF647E6011EF04FF74152DFC
:10612000F582E4340BF583EFF0D209229009F5E013
:10613000FF12700FEFFB229009EB7420F0126D81BB
:10614000E49009ECF09009ECE0FFC3951A5021E0CF
:10615000FE1248E2E0FCA3E0FD75F002EE12494DAC
:10616000ECF0A3EDF01260B79009ECE004F080D5FC
:106170009009EBE0FF14F0EF70C3126FFD12712075
:106180009009EBEFF0126D81E49009ECF09009ECCE
:10619000E0FFC3951A500B1254B59009ECE004F0DF
:1061A00080EB9009EBE0FF14F0EF70D9229009FB2F
:1061B000123251900A021231E81250C49009FE7452
:1061C000FF1231B5EC4D4E4F6052900A0212315B16
:1061D000900A06EFF0900A0212315B78081231053E
:1061E000900A021231E8900A0212315B9009FB1208
:1061F0003231122D38FB900A06E06B75F0049004E2
:10620000B41232251231771230B6900A021231E8F8
:106210009009FCE475F001122E6E80A0900A020233
:10622000315B900A241231E8900A2BE5F4F0A2AF1A
:10623000E433A3F0E06002C2AFE4900A2AF0900ACF
:1062400029E07013900A2412315B900A28E0900A2A
:1062500031F0124FBD8016900A29E06402700E9052
:106260000A2412315B900A28E0FD12299A900A2430
:1062700012315B900A29E0900A44F0126BD8900A20
:106280002BE0F5F4A3E06002D2AF900A28E06F7F24
:106290000160027F0022900A58E030E609E054BF16
:1062A000F07F02126492900A61E030E509E054DF69
:1062B000F07F13126492900A61E030E409E054EF39
:1062C000F07F14126492900A61E030E109E054FD1D
:1062D000F07F15126492900A61E030E209E054FB0D
:1062E000F07F16126492900A61E030E009E054FEFB
:1062F000F07F17126492900A61E030E309E054F7EE
:10630000F07F18126492229009F0EEF0A3EFF0A350
:106310001232519009F5E0FEA3E0FF9009F1E02F61
:10632000FF9009F0E03EFEE4FCFD7BF07A69F9F8AD
:10633000C31230DE50037F00229009F0E0FEA3E09C
:10634000FFE42FFFEE3492FEE433FDE433FC9009CA
:10635000F5E0FBA3E0900A18CBF0A3EBF09009F274
:10636000123231900A1A123251126373EF7F0170A8
:1063700001FF22900A141231E8E4900A1DF0A3F004
:10638000900A18E0FCA3E0FD900A1DE0FEA3E0FFE8
:10639000C39DEC6480F8EE648098503BEE3395E04A
:1063A000FDFC900A14123177122FCE900A1A123285
:1063B00031900A1DE0F8A3E0F5828883122D5190F8
:1063C0000A23F0127021EF7002FF22900A1DE4757B
:1063D000F001122E6E80A97F01229009FC1231E893
:1063E000E4900A05F0A3F0900A00E0FCA3E0FD9021
:1063F0000A05E0FEA3E0FFC39DEC6480F8EE648034
:10640000985033EE3395E0FDFC9009FC1231771281
:106410002FCE127138900A02123231900A05E0FC38
:10642000A3E0F5828C83EF122DE5900A05E475F068
:1064300001122E6E80B122C20B900B5EE01248E278
:10644000E5E5F0A3E5E4F0900B5EE004F0E0C39531
:106450001A400BE4F0900B19E04480F08002D20B5C
:10646000900B5EE0FF12700F124A06900B5EE0FF89
:106470001270B6E5E254804FF5E2900B5EE0240521
:10648000F582E4340BF583E04480F5E8300B02D26A
:10649000EE22900A56E0C39414748094804002E483
:1064A000F0E4FE900A56E0FDEED39D502A746E2E65
:1064B000F582E4340AF583E0B50719FB641560142E
:1064C000EB6416600FEB6417600AEB64186005EB71
:1064D000641470150E80CC746E2DF582E4340AF5C8
:1064E00083EFF0900A56E004F02290001912323146
:1064F000900015E0FCA3E0F5828C83EF122DE5906F
:106500000015E475F001122E6E900017E475F0018D
:10651000122E6E900019123231122D38FF6418605D
:1065200005EF64047007E4900015F0A3F0C3900039
:1065300016E09485900015E094004004E4F0A3F088
:1065400022E4F509F50A750E02750D40F50CF50B00
:10655000F509C3E509941F748094805037AF0EAEDF
:106560000DAD0CAC0B78011231058F0E8E0D8D0C1C
:106570008C0B30D71B7405250AF582E4340BF583A8
:10658000E509F0050AC3E50A94027480948050047A
:10659000050980BE850A1A22900A57E0FEC39414AA
:1065A00074809480400FE4F0E0246EF582E4340AB5
:1065B000F583E0FF22900A56E0FDEEC39D400AE419
:1065C000A3F0900A56F07FFF22900A57E0FE246E57
:1065D000F582E4340AF583E0FF746E2EF582E4342C
:1065E0000AF58374FFF0900A57E004F022EF24FECE
:1065F000601114602014603324047044AF05AD03AF
:10660000026F6FED7004C2AD8002D2ADEB7003C2B9
:10661000BD22D2BD22ED700553A9BF800343A9401E
:10662000EB700453B9BF2243B94022ED700553A962
:106630007F800343A980EB700453B97F2243B98064
:1066400022900A90E020E128A3123231900002E467
:1066500075F001122F35125C72EF7030125C6CEF26
:10666000702A125C6CEF7024900A91123231800F04
:10667000900A91123231900002E4F5F0122FA190AD
:106680000A3B7414F07F007E02125C7B22907255EC
:10669000740193900AFEF090726F740193900B1C3A
:1066A000F0126541E4F508E508C3951A5023E508A2
:1066B00075F008A42475F582E43472F583E493FF41
:1066C00074152508F582E4340BF583EFF005088096
:1066D000D6E4900B1AF0A3F022EF54F0FC7028EDF2
:1066E00064017011EF540FFFF87401088002C33386
:1066F000D8FC42D322EF540FFFF87401088002C384
:1067000033D8FCF452D322ECC4540FF5CEEF7E10F4
:1067100030E0027E20ED64017004EE42C922EEF406
:1067200052C922900B24E004F0E024FE600D1460B6
:106730001524FB600424077021801C7D017F011259
:106740006B3943AD4022126F85AC06AD07E4122BC6
:1067500088900A4A0231E802280E900B24E0C39484
:106760000A748094804002E4F0229009EB123251C6
:106770009091F0E4939009F1F0902A001231679023
:1067800009F1E02FF0900A967401F0E4A3F0A3F071
:10679000A3F0A3F09009EE123231900A9B1232510D
:1067A0009009EB123231900AC70232517F007D000E
:1067B0007C0080319009FF12315B9009FB12317728
:1067C000C31230F4502743CF109009FB12315B12F3
:1067D0006EE89009FB12315BE42FFFEE3402FEE419
:1067E0003DFDE43CFC9009FB1231E880C722C0E08B
:1067F000C0F0C083C082C0D075D000C000C001C04E
:1068000002C003C004C005C006C007126E6F5398D3
:10681000FD5398FED007D006D005D004D003D00297
:10682000D001D000D0D0D082D083D0F0D0E0329050
:1068300009EBECF0A3EDF0EF14601514601D14608B
:10684000232403702A9009EBE0FEA3E0FF027045C9
:106850009009EBE0FEA3E0FF02709A9009EBA3E041
:10686000FF0270E49009EBA3E0FFAD0312710D226B
:106870009009FF123251E4FFFE900A0212323112E7
:106880002D3860299009FF1232310FEFAC067001EC
:106890000E14F5828C83122D51FD900A02E475F0DE
:1068A0000112323A122D386D60CF7F00227F012213
:1068B0009009F7ECF0A3EDF0EF54F0701753D2FD10
:1068C0009009F7E0FCA3E0FDEF25E02440F582E429
:1068D000342080149009F7E0FCA3E0FDEF540F256D
:1068E000E02434F582E43420F583ECF0A3EDF022CB
:1068F000EF900A006016E4F0A37404F07B017A09BB
:1069000079F8A31232517F007E948014E4F0A374CE
:1069100004F07B017A0979F8A31232517F007E2AB4
:106920007D007C001263DA9009F802315B20850C4F
:10693000900A58E020E305E04408F02220851E90EC
:106940000A58E030E31700000000000000000000DB
:10695000208505E04410F022900A588007900A58DC
:10696000E054EFF0E054F7F0227B017D017F02124A
:1069700056907B017D027F021256909009EF1231F2
:10698000F40001C2009009F37440F0E4A3F0A37492
:1069900010F07F007E487DE87C011259CFE4FD7F36
:1069A00001027069E4FD7F1012285E7D017F027E86
:1069B00000126FEA7D017F087E00126FEA7D017F81
:1069C000407E00126FEA7D017F807E00126FEA7DBB
:1069D000017F01126B39D2AEC2BE7F010270D9E4D1
:1069E000FFEFC3951A501A12493AE4F074132F12AC
:1069F00048EBE4F0A3F0740D2F124992E4F00F80FD
:106A0000E0E4F515F514F513F512900B5874FFF04A
:106A1000E4900B5BF0A3F0C20922C0E0C0F0C08399
:106A2000C082C0D075D000C000C001C002C003C089
:106A300004C005C006C007126437D007D006D005D1
:106A4000D004D003D002D001D000D0D0D082D083E7
:106A5000D0F0D0E0329001ADE0FCA3E024AFF582AD
:106A600074013CF583EFF09001ADE475F001122E56
:106A70006ED39001AEE094009001ADE0940240042A
:106A8000E4F0A3F0EFB40D069001A87403F0229097
:106A90000A64E07002A3E07005900A688004900A1E
:106AA00066E475F001122E6E900A64E07002A3E0B5
:106AB000700C900A5CE030E605900A6C8003900A46
:106AC0006AE475F001122E6E227D9F7C0F7F1012FA
:106AD0006CBA7B01E4FDFC7F02126FD7E4FF126FFA
:106AE000B0E4FDFF12708CE49009EEF0FB7D20FF16
:106AF000127033E4FBFDFF1265ED7D01E4FF026DD2
:106B0000D4900A5AE030E630900B60E475F0011240
:106B10002E6ED2C2D2C0D2C1D2C3D3900B61E09448
:106B200084900B60E09403400FC2C2C2C0C2C1C2D5
:106B3000C3900A5AE04440F022AC07ECC3941F749F
:106B400080948050247E007401A804088005C3331B
:106B5000CE33CED8F9FFED700AEFF452ABEEF4521B
:106B6000AC8006EF42ABEE42ACE5AD54E04CF5AD87
:106B700022126296126598EF24EC601124FE6010D8
:106B80001460191460192405701B025D01023BE2B8
:106B9000125E19125BCF12692D02583C026F3C1233
:106BA0006A8F126B0122EF146012146014146018C3
:106BB00014601A2404701E907271800890727280A2
:106BC00003907273E493FF22E4FF0270B690726345
:106BD000740193FF227F0022900A401231E8ABF447
:106BE000A2AFE433FA6002C2AF900A44E0F5F49039
:106BF0000A4012315B8F828E83E493FFAE038EF4E2
:106C0000AE02EA6002D2AF22E4900B5FF09009EB93
:106C1000F09009EBE0FFC3951A50131254B5900998
:106C2000EBE0FF1233F69009EBE004F080E3AF15E0
:106C3000AE14AD13AC122290000512315BEF2401AB
:106C4000FFE43EFEE43DFDE43CFC9000051231E82B
:106C5000900013E475F001122E6E9001A9E475F016
:106C600001022E6EAD07ED75F008A42477F582E4DD
:106C70003472F583E493FEED75F008A42478F58270
:106C8000E43472F583E4937C002400FFEC3EFE22A2
:106C90007E007F057D007B017A0A79581233587E89
:106CA000007F0C7D007B017A0A79621233587B01E8
:106CB0007A0A7962900A91023251AB07EB540FFACB
:106CC0007019ED1D70011CEB54F0FFE5D254CF4F4D
:106CD000F5D2ECF5D5AF05EFF5D4228ACEECF5CBA5
:106CE000EDF5CA22EFFB7A007005538EFE8009EBAA
:106CF00064014A7003438E01EDFF7E00640170045D
:106D00005389FB22EF64024E700343890422E4900E
:106D100009F7F0A3F0C20A122866200A189009F7B2
:106D2000E475F001122E84FEC374D095F074079EB2
:106D300050E843CF1022900A07EFF0E4900A0CF0DD
:106D4000EF7009900A0812315B0251C8900A07E0FF
:106D500064027007A312315B12289E2290000DEF8F
:106D6000F09000117403F0A374E8F090001912324F
:106D700051E4900015F0A3F0A3F0A3F090000FF001
:106D800022E4FE900B19E0547FF0D2EE900B19E054
:106D900054807011125D8E43CF100EEEC394647454
:106DA00080948040E7229009EF1232519009EF124F
:106DB0003231122D3860139009EFE475F001123270
:106DC0003A122D38FF126D0E80E222AF02EFC4544A
:106DD0000FFF7D01EF700BED600443D2802253D290
:106DE0007F228FCEED600443C8042253C8FB22905B
:106DF0000A18E4F0A37410F07B017A0A7904A31254
:106E000032517FF07EFB7D007C001263737F012294
:106E1000900004EFF0A31231F4000000009009F09C
:106E200012315B9000091231E89001A87401F02240
:106E3000AE077B017A0079227F01126D5CAF06C03C
:106E4000079009F01231F400000FA0D007026E1075
:106E5000E4FFEFC3951A50161248E1E0FCA3E0FDF1
:106E6000900AFF124903ECF0A3EDF00F80E422300A
:106E700099055398FDD20A3098135398FE12286E44
:106E8000900AC712323189828A83123356227D01D9
:106E90007F01126CE4E4FBFAFD7C837F0112682F12
:106EA000E4FD7F011270577F01027117900A00E420
:106EB000F0A37410F07B017A0A799FA31232517FFC
:106EC000F07E917D007C000263DA900A00E4F0A37A
:106ED0007410F07B017A0A79AFA31232517FF07EF1
:106EE000FB7D007C000263DA900A031231E8900A0D
:106EF0000312315B900A081231E8900A0C74F0F02A
:106F0000E4FF026D36900004E024FE600D1460087A
:106F1000240324FB5002800080030264EA126A55B5
:106F20002212590A127150126969126E8E126AC9C0
:106F30001269A41270EF12281AD2AF22900A5CE0F4
:106F400030E504D2928002C292900A5CE030E40301
:106F5000D29022C2902275FEC2900A95E5FFF043BE
:106F6000FF0C75FEC1900A94E5FFF075FB8522EFDA
:106F7000600543A902800353A9FDED700453B9FDD8
:106F80002243B90222AFAFEF75F010A4FFE5AEC403
:106F9000540F7C002FFFEC35F0FE22126C64EF786A
:106FA00003C333CE33CED8F9FF7C007D0A022E19FD
:106FB000EFFD7C00700453D2FE22ED64014C70039F
:106FC00043D2012275FEC2900A95E0F5FF75FEC11D
:106FD000900A94E0F5FF22AA071268B0AD0312668A
:106FE000D9EB64017003126DCB22ED7009EFF452FE
:106FF000ABEEF452AC22EF42ABEE42AC22E4FFEF38
:10700000C3951A50091248E11249D60F80F122EFB8
:1070100075F008A42474F582E43472F583E493FFD8
:1070200022900A23E0900A28F0E4A3F0A374F0F081
:10703000026222EF700EE5D754C04D4BFF9009EE6F
:10704000E04FF5D7225389FC8F8AEF7805CEC31322
:10705000CE13D8F9F58C22EF7004C2A98002D2A910
:10706000ED7003C2B922D2B922EF7004C2AC800223
:10707000D2ACED7003C2BC22D2BC22EF3395E04FFC
:1070800070047F058002E4FF126E3022EF700AED7B
:10709000600443D7802253D77F225389FC43890160
:1070A000AD078D8AEEF58C2275FEC1EF700453FF9B
:1070B0007F2243FF802274152FF582E4340BF58381
:1070C000E0FF22907259E493FE740193FF229072C4
:1070D0005DE493FE740193FF22EF700453AD7F22B1
:1070E00043AD80225389FC4389028F8A8F8C22E42E
:1070F000FF1271407F010270A875B78675B61843FC
:10710000A92022900AFEE075F00384FF2243890340
:107110008F8AAF058F8C22EF7003C28C22D28C2213
:10712000907257740193FF22907251740193FF2261
:10713000900AFEE0C313FF22E4900A44F0026BD8E9
:10714000E5CF54F84FF5CF22AD078D8AEEF58C22AE
:1071500043C1C043D930226765745F646F776E0D99
:1071600000646F776E206E6F6E650D0072657375CB
:107170006C740D00646F776E20756E6B6E6F776E3A
:107180005F636F6D6D616E640D00646F776E204D8F
:1071900049494F5F6D63755F76657273696F6E5FA6
:1071A0007265710D006D63755F76657273696F6EE0
:1071B00020303030310D00646F776E206765745F6A
:1071C00070726F7065727469657300646F776E209A
:1071D0007570646174655F66770D006D6F64656CD2
:1071E000207361736573692E73727365722E736198
:1071F0007330310D006F6B006572726F7200626CDC
:10720000655F636F6E66696720736574203135361C
:1072100020303030310D00646F776E2075706461FE
:1072200074655F667700646F776E206E6F6E6500C1
:10723000726573756C7420227265616479220D0029
:107240006D63755F626F6F74206661696C0D00001D
:1072500000000100000003000A0BB800C800640031
:107260000200000000000500000001FFFFFFFF001A
:1072700018034805081F050144034805081A0501BD
:01728000917C
:0491F000AA5555AA7D
:00000001FF
