:10000000021100300003021003210330000302102C
:100010000B210B30000302101321133000030210D8
:100020001B211B3000030210232123300003021088
:100030002B212B3000030210332133300003021038
:100040003B213B30000302104321433000030210E8
:100050004B214B3000030210532153300003021098
:100060005B215B3000030210632163300003021048
:100070006B216B30000302107321733000030210F8
:100080007B217B30000302108321833000030210A8
:100090008B218B3000030210932193300003021058
:1000A0009B219B3000030210A321A3300003021008
:0300B000AB21ABD6
:10100000D2EE22021046C284D2822202453BD28412
:10101000C2822202104EC294D2A522021052D29451
:10102000C2A52202581CC2A6D2A72202105AD2A6DA
:10103000C2A722021056C280D28122021062D28040
:10104000C2812202106A5388FD3222021071538835
:10105000F7323202107253ADDF323202620B126588
:101060008A22320246407520FF2232021079A209FC
:1010700022323202107AD2092232320210817F01EA
:0E108000223232025F45AFC7223232021082A6
:03109300021089BF
:10109B0002108A900DE3EFF0900DE4ECF0A3EDF06D
:1010AB00900DE3E0FFEF54F0FF7E00EF4E70225304
:1010BB00D2FD900DE4E0FEA3E0FF900DE3E0FDED2B
:1010CB0025E02440F582E43420F583EEF0A3EFF025
:1010DB0022900DE4E0FEA3E0FF900DE3E0FDED5464
:1010EB000FFDED25E02434F582E43420F583EEF09A
:0410FB00A3EFF0224D
:1011000078FFE4F6D8FD9000007F007E01E4F0A3B4
:10111000DFFCDEFA75812A021155023E5CE493A3DE
:10112000F8E493A34003F68001F208DFF48029E499
:1011300093A3F85407240CC8C333C4540F4420C8E5
:10114000834004F456800146F6DFE4800B0102047C
:10115000081020408090387AE47E019360BCA3FFA1
:10116000543F30E509541FFEE493A360010ECF54B1
:10117000C025E060A840B8E493A3FAE493A3F8E4A0
:1011800093A3C8C582C8CAC583CAF0A3C8C582C80C
:10119000CAC583CADFE9DEE780BE900D91EFF0900B
:1011A0000D92ECF0A3EDF0900D94EAF0A3EBF0902B
:1011B0000D91E0FFEF121D0411C80011D40111E0E0
:1011C0000211EC03000011FF900D92E0FEA3E0FF7E
:1011D0001263C522900D92E0FEA3E0FF1263F0229D
:1011E000900D92E0FEA3E0FF1265DB22900D92E0ED
:1011F000FEA3E0FF900D94E0FCA3E0FD12656E22DB
:10120000202304140215C5E86480F8E933E833604C
:10121000110460F0ED33EC337009E8FCE9FDEAFEFF
:10122000EBFF220460DED3EB9FEA9EE99DE8C2E774
:101230008CF0C2F795F0400CE8CCF8E9CDF9EACE95
:10124000FAEBCFFB12159085D0F05804700320D52F
:10125000B3E80470075002B2D50215CF92D5EC0462
:1012600060F7E4CCC0E0C398F8603B941860084095
:101270000DD0E0FB0215A7E4FBFAC9FC8028E8309A
:10128000E406E4C9FBE4CAFCE830E305E4C9CACBE0
:10129000FCE854076010F8C3E913F9EA13FAEB13FA
:1012A000FBEC13FCD8F130F52FC3E49CFCEF9BFF63
:1012B000EE9AFEED99FDD0E0FBEF4E4D4C70122200
:1012C000DB030215CCEC2CFCEF33FFEE33FEED33E9
:1012D000FDED30E7EB0215A7EF2BFFEE3AFEED39FF
:1012E000FDD0E0FB50130BBB00030215CFED13FD47
:1012F000EE13FEEF13FFEC13FC0215A7EC4D60118B
:10130000E8497017ED33EC3304600DE4FCFFFEFD9B
:1013100022E933E8330470F80215C5121590580419
:101320006009E4CC248150062850090215CF2840DA
:10133000030215CCC0E0EB4A7044B98006D0E0FB54
:101340000215BBEF4E701CBD8008EBFFEAFEE9FD05
:1013500080EBE98DF0A4FEE5F00213E5E9CDF9EAB2
:10136000FEEBFFEF89F0A4FCE5F0CE89F0A42EFFA0
:10137000E435F0CD89F0A42DFEE435F08067EF4E22
:101380007005BD80D780C3EF8BF0A4ACF0EE8BF07E
:10139000A42CFCE435F0F8EF8AF0A42CE5F038FC3E
:1013A000E433CB8DF0A42CFCE5F03BF8EE8AF0A4FE
:1013B0002CFCE5F038F8E433CF89F0A42CFCE5F000
:1013C00038CF3400CE89F0A42FFFE5F03EFEE433A1
:1013D000C98DF0A42EFEE5F039CD8AF0A42FFFE5EB
:1013E000F03EFEE43DFD33D0E0FB50070BBB000FA9
:1013F0000215CFEC2CFCEF33FFEE33FEED33FD0294
:1014000015A70215CFEC5D046005E85904700302CE
:1014100015C5121590580460F6EC4860F2EC7004A3
:10142000FDFEFF22C860DB2481C85009C39860021A
:1014300050060215CC9850CAF582E9294B4A70052E
:10144000AB820215BB75F0007C1A7880C3EF9BEE6F
:101450009AED99400DC3EF9BFFEE9AFEED99FDE8E2
:1014600042F0DC23ACF0D0E0FFD0E0FED0E0FDABFA
:101470008220E7101BEB60BAEC2CFCEF33FFEE335D
:10148000FEED33FD0215A7E803F830E705C0F0755F
:10149000F000EF2FFFEE33FEED33FD40B830E7C232
:1014A00080AA74F8CC6480CCC86480C8F5820460DB
:1014B0004FC3EB9FF5F0EA9E42F0E99D42F0E89CB5
:1014C00045F0603C501DE5825FFFE582D313CB5BA6
:1014D000CBF42B5582FB50280ABA002409B900200E
:1014E00008801DE5825BFBE582D313CF5FCFF4C399
:1014F000132F5582FF50090EBE00050DBD00010CD3
:10150000C3EB9FF5F0EA9E42F0E99D42F0E89C456E
:10151000F06007CC4820E701B3EC2275F020800E84
:1015200075F010800575F0087D007E007F00339215
:10153000D530D503121A68EC334010EF33FFEE3389
:10154000FEED33FDEC33FCD5F0ED22E5F0247EA278
:10155000D513CC92E7CDCEFF22EDD2E7CD33EC33DD
:1015600092D524814006E4FFFEFDFC22FCE4CFCEB0
:10157000CDCC24E0501174FF80EDC3CC13CCCD133F
:10158000CDCE13CECF13CF0470F030D5DE021A6863
:10159000E9D2E7C933E833F892D5EDD2E7CD33ECA1
:1015A00033FC5002B2D522EC30E7100FBF000C0E16
:1015B000BE00080DBD00040BEB6014A2D5EB13FCBC
:1015C000ED92E7FD2274FFFCFDFEFF22E480F8A20D
:1015D000D574FF13FC7D80E480EFE709F608DFFA9D
:1015E0008046E709F208DFFA803E88828C83E709AB
:1015F000F0A3DFFA8032E309F608DFFA8078E30926
:10160000F208DFFA807088828C83E309F0A3DFFAA6
:10161000806489828A83E0A3F608DFFA8058898291
:101620008A83E0A3F208DFFA804C80D280FA80C679
:1016300080D4806980F28033801080A680EA809A0E
:1016400080A880DA80E280CA803389828A83ECFABB
:10165000E493A3C8C582C8CCC583CCF0A3C8C58217
:10166000C8CCC583CCDFE9DEE7800D89828A83E4BC
:1016700093A3F608DFF9ECFAA9F0EDFB2289828A40
:1016800083ECFAE0A3C8C582C8CCC583CCF0A3C85C
:10169000C582C8CCC583CCDFEADEE880DB89828ADC
:1016A00083E493A3F208DFF980CC88F0EF60010EA9
:1016B0004E60C388F0ED2402B4040050B9F582EB0B
:1016C0002402B4040050AF232345822390162A73CA
:1016D000BB010689828A83E0225002E722BBFE0218
:1016E000E32289828A83E49322BB010CE58229F5F7
:1016F00082E5833AF583E0225006E92582F8E62266
:10170000BBFE06E92582F8E222E58229F582E5831F
:101710003AF583E49322BB010989828A83F8E028A1
:10172000F022500327F722BBFE05F8E328F3228AB4
:10173000838982F8E4932822BB010FF8E58229F51A
:1017400082E5833AF583E028F0225009C58229F822
:10175000E58226F622BBFE09C58229F8E22582F23F
:1017600022F8EA2583F583E9932822BB01068982C2
:101770008A83F0225002F722BBFE01F322F8BB015C
:101780000DE58229F582E5833AF583E8F0225006DB
:10179000E92582C8F622BBFE05E92582C8F222EFC0
:1017A0008DF0A4A8F0CF8CF0A428CE8DF0A42EFE4E
:1017B00022BC000BBE0029EF8DF084FFADF022E4C7
:1017C000CCF875F008EF2FFFEE33FEEC33FCEE9D06
:1017D000EC984005FCEE9DFE0FD5F0E9E4CEFD222D
:1017E000EDF8F5F0EE8420D21CFEADF075F008EFB8
:1017F0002FFFED33FD4007985006D5F0F222C39835
:10180000FD0FD5F0EA22C5F0F8A3E028F0C5F0F806
:10181000E582158270021583E038F022A3F8E0C556
:10182000F025F0F0E582158270021583E0C838F0EB
:10183000E822BB010A89828A83E0F5F0A3E0225006
:101840000687F009E71922BBFE07E3F5F009E31963
:101850002289828A83E493F5F074019322BB0110FC
:10186000E58229F582E5833AF583E0F5F0A3E022ED
:101870005009E92582F886F008E622BBFE0AE92530
:1018800082F8E2F5F008E222E5832AF583E993F590
:10189000F0A3E99322BB010789828A8302180650CC
:1018A0000B09C5F027F7C5F01937F722BBFE0D0964
:1018B000F8E325F0F3C5F019E338F322F889828ABA
:1018C0008374019325F0C5F0F8E4933822BB010D31
:1018D000C58229C582C5833AC5830218065011C541
:1018E0008229F808E5F026F618F5F0E58236F622AA
:1018F000BBFE11C58229F808E225F0F5F0F218E2E6
:101900003582F222F8E58229F582E5832AF583748F
:10191000019325F0F5F0E4933822BB010A89828A0D
:1019200083F0E5F0A3F0225006F709A7F01922BBD7
:10193000FE06F3E5F009F31922F8BB0111E582294F
:10194000F582E5833AF583E8F0E5F0A3F02250094B
:10195000E92582C8F608A6F022BBFE09E92582C85F
:10196000F2E5F008F222EF2BFFEE3AFEED39FDEC46
:1019700038FC2275F008758200EF2FFFEE33FECDA4
:1019800033CDCC33CCC58233C5829BED9AEC99E53F
:101990008298400CF582EE9BFEED9AFDEC99FC0FCF
:1019A000D5F0D6E4CEFBE4CDFAE4CCF9A88222B897
:1019B00000C1B90059BA002DEC8BF084CFCECDFC1C
:1019C000E5F0CBF97818EF2FFFEE33FEED33FDECA9
:1019D00033FCEB33FB10D703994004EB99FB0FD892
:1019E000E5E4F9FA227818EF2FFFEE33FEED33FD30
:1019F000EC33FCC933C910D7059BE99A4007EC9B2F
:101A0000FCE99AF90FD8E0E4C9FAE4CCFB2275F0BE
:101A100010EF2FFFEE33FEED33FDCC33CCC833C8CF
:101A200010D7079BEC9AE899400AED9BFDEC9AFCD5
:101A3000E899F80FD5F0DAE4CDFBE4CCFAE4C8F984
:101A400022EF5BFFEE5AFEED59FDEC58FC22EF6BE6
:101A5000FFEE6AFEED69FDEC68FC22CFF4CFCEF418
:101A6000CECDF4CDCCF4CC22C3E49FFFE49EFEE4C3
:101A70009DFDE49CFC22EB9FF5F0EA9E42F0E99D7F
:101A800042F0EC6480C864809845F022EB9FF5F04A
:101A9000EA9E42F0E99D42F0E89C45F022E8600FA2
:101AA000ECC313FCED13FDEE13FEEF13FFD8F12290
:101AB000E8600FEFC333FFEE33FEED33FDEC33FC94
:101AC000D8F122BB010DE58229F582E5833AF58341
:101AD000021B0D5007E92582F8021D5CBBFE07E9D9
:101AE0002582F8021D68E58229F582E5833AF583AF
:101AF000021B19BB010789828A83021B9A5005E9E0
:101B0000F8021D9EBBFE05E9F8021DAA22E0FCA317
:101B1000E0FDA3E0FEA3E0FF22E493FC740193FD4B
:101B2000740293FE740393FF22E0F8A3E0F9A3E0AC
:101B3000FAA3E0FB22BB010DE58229F582E5833A99
:101B4000F583021B295007E92582F8021D74BBFEAC
:101B500007E92582F8021D81E58229F582E5833AAD
:101B6000F583021D8E7401FF3395E0FEFDFCA3A3F7
:101B7000A3E0CF2FF0E582158270021583E0CE3E00
:101B8000F0E582158270021583E0CD3DF0E5821507
:101B90008270021583E0CC3CF022ECF0A3EDF0A3C0
:101BA000EEF0A3EFF022A8828583F0D083D08212DA
:101BB0001BBD121BBD121BBD121BBDE473E493A31E
:101BC000C583C5F0C583C8C582C8F0A3C583C5F069
:101BD000C583C8C582C822A42582F582E5F0358375
:101BE000F58322E0FBA3E0FAA3E0F922F8E0FBA3EF
:101BF000A3E0F925F0F0E582158270021583E0FA82
:101C000038F022EBF0A3EAF0A3E9F022BB01078948
:101C1000828A83021BE35005E9F8021DB6BBFE056C
:101C2000E9F8021DC889828A83021DDABB011A897C
:101C3000828A83D0F0D0E0F8D0E0F9D0E0FAD0E0AA
:101C4000FBE8C0E0C0F0021C035016E9F8D083D0D6
:101C500082D0E0F9D0E0FAD0E0FBC082C083021D60
:101C6000BFBBFE16E9F8D083D082D0E0F9D0E0FA0D
:101C7000D0E0FBC082C083021DD122BB010DE582F2
:101C800029F582E5833AF583021BE35007E92582B3
:101C9000F8021DB6BBFE07E92582F8021DC8E582E1
:101CA00029F582E5833AF583021DDABB0120E5823E
:101CB00029F582E5833AF583D0F0D0E0F8D0E0F959
:101CC000D0E0FAD0E0FBE8C0E0C0F0021C035018FE
:101CD000E92582F8D083D082D0E0F9D0E0FAD0E0D4
:101CE000FBC082C083021DBFBBFE18E92582F8D06D
:101CF00083D082D0E0F9D0E0FAD0E0FBC082C0838C
:101D0000021DD122D083D082F8E493701274019323
:101D1000700DA3A393F8740193F5828883E4737420
:101D200002936860EFA3A3A380DF8A838982E473B0
:101D3000EF4E6012EF60010EEDBB010B89828A83CA
:101D4000F0A3DFFCDEFA2289F05007F709DFFCA9D7
:101D5000F022BBFEFCF309DFFCA9F022E6FC08E65A
:101D6000FD08E6FE08E6FF22E2FC08E2FD08E2FECE
:101D700008E2FF22E6FB08E6F908E6FA08E6CBF8F7
:101D800022E2FB08E2F908E2FA08E2CBF822E49347
:101D9000F8740193F9740293FA740393FB22ECF63E
:101DA00008EDF608EEF608EFF622ECF208EDF20880
:101DB000EEF208EFF222E6FB08E6FA08E6F922EB7B
:101DC000F608EAF608E9F622E2FB08E2FA08E2F988
:101DD00022EBF208EAF208E9F222E493FB740193A1
:101DE000FA740293F92290091AE0FFEF20E11590AE
:101DF000091DE0FF7E00D3EF9400EE6480948050D4
:101E000003021EAF900963E0FFEF4401FF900963F6
:101E1000EFF090091AE0FFEF30E1089009647403D5
:101E2000F0806490091DE0FFEF30E00890096474D1
:101E30001FF0805390091DE0FFEF30E10890096426
:101E40007420F0804290091DE0FFEF30E208900915
:101E5000647421F0803190091DE0FFEF30E30890B9
:101E600009647422F0802090091DE0FFEF30E4083F
:101E70009009647423F0800F90091DE0FFEF30E5B6
:101E8000069009647424F090091AE0FFEF54FDFFF6
:101E900090091AEFF090091DE4F0900969E4F090C0
:101EA0000965E4F0A3E4F0900967E4F0A3E4F0909E
:101EB0000963E0FFEF20E003022215900964E0FFD0
:101EC0007E00EF64014E70537BFF7A6679EBC003AE
:101ED000C002C0017B017A097965900BE7121C03EF
:101EE0007B017A097967900BEA121C037B017A095E
:101EF0007969900BED121C03D001D002D003122996
:101F0000F17E00EF64014E600302221C900963E041
:101F1000FFEF54FEFF900963EFF022900964E0FFA9
:101F20007E00EF64024E70537BFF7A677913C00323
:101F3000C002C0017B017A097965900BE7121C038E
:101F40007B017A097967900BEA121C037B017A09FD
:101F50007969900BED121C03D001D002D003122935
:101F6000F17E00EF64014E600302221C900963E0E1
:101F7000FFEF54FEFF900963EFF022900964E0FF49
:101F80007E00EF64034E70537BFF7A67793BC0039A
:101F9000C002C0017B017A097965900BE7121C032E
:101FA0007B017A097967900BEA121C037B017A099D
:101FB0007969900BED121C03D001D002D0031229D5
:101FC000F17E00EF64014E600302221C900963E081
:101FD000FFEF54FEFF900963EFF022900964E0FFE9
:101FE0007E00EF641F4E70537B017A09796AC0034B
:101FF000C002C0017B017A097965900BE7121C03CE
:102000007B017A097967900BEA121C037B017A093C
:102010007969900BED121C03D001D002D003122974
:10202000F17E00EF64014E600302221C900963E020
:10203000FFEF54FEFF900963EFF022900964E0FF88
:102040007E00EF64204E70537B017A0979A2C003B1
:10205000C002C0017B017A097965900BE7121C036D
:102060007B017A097967900BEA121C037B017A09DC
:102070007969900BED121C03D001D002D003122914
:10208000F17E00EF64014E600302221C900963E0C0
:10209000FFEF54FEFF900963EFF022900964E0FF28
:1020A0007E00EF64214E70537B017A0979B2C00340
:1020B000C002C0017B017A097965900BE7121C030D
:1020C0007B017A097967900BEA121C037B017A097C
:1020D0007969900BED121C03D001D002D0031229B4
:1020E000F17E00EF64014E600302221C900963E060
:1020F000FFEF54FEFF900963EFF022900964E0FFC8
:102100007E00EF64224E70537B017A0979C2C003CE
:10211000C002C0017B017A097965900BE7121C03AC
:102120007B017A097967900BEA121C037B017A091B
:102130007969900BED121C03D001D002D003122953
:10214000F17E00EF64014E600302221C900963E0FF
:10215000FFEF54FEFF900963EFF022900964E0FF67
:102160007E00EF64234E70507B017A0979E2C00350
:10217000C002C0017B017A097965900BE7121C034C
:102180007B017A097967900BEA121C037B017A09BB
:102190007969900BED121C03D001D002D0031229F3
:1021A000F17E00EF64014E7073900963E0FFEF541D
:1021B000FEFF900963EFF022900964E0FF7E00EFDC
:1021C00064244E70577B017A0979F2C003C002C0C3
:1021D000017B017A097965900BE7121C037B017A78
:1021E000097967900BEA121C037B017A09796990DF
:1021F0000BED121C03D001D002D0031229F17E0096
:10220000EF64014E7016900963E0FFEF54FEFF90FB
:102210000963EFF0227D007F0012601222900B44D0
:10222000EFF0E4900B4CF0900B44E0900A751236FE
:10223000D6123819900B45F0A3EFF0E47F01FEFDB4
:10224000FC900B44E0F9F8121AB08F298E288D27E4
:102250008C26AF011260D5900B4AEEF0A3EFF0127E
:102260003729400512383B8005E4900B47F0900B6E
:1022700047E0640160030223CF900B44E0FF248118
:1022800012373EE0C394FA74809480500612373BB4
:10229000E004F01237ECFCE4FBFAF9F8C3121A8CF4
:1022A00060030223BC900A74E0900B49F012107E88
:1022B000EF6030E4900B47F0A3F01237765018121D
:1022C000373BE0C39401748094804006900B47E054
:1022D00004F012380080E31237A94007900B49E060
:1022E000240FF0900B44E0248112373E12385B50EB
:1022F000030223BCE4900B47F01266C5EF705E90BA
:102300000B48F01237765022900B44E06F601612A3
:10231000668D900B48E0248112373EE0C39F400554
:1023200012383B800512380080D912107EEF3395A9
:10233000E04F7063900B47E0705DA3F0123776506A
:1023400056900B44E06F601012668D900B48123768
:1023500090E0C39F4002803C12380080DF12107E64
:10236000EF3395E04F7030900B49F0900B48F0122E
:102370003776501812373BE0C39402748094804043
:1023800006900B49E004F012380080E3900B4912EC
:1023900037AC400312383B900B47E064017002D227
:1023A00008E5254529FFE5244528FEE5234527FDC9
:1023B000E52245268F258E248D23F522900B44E0BF
:1023C000FF24891236ECE4F0A31237830225E29051
:1023D0000B44E0FF126115900B45E0FCA3E0FDD338
:1023E00012371D400812378DE004F0800B900CD599
:1023F000E004F012378DE4F0123823C3E49FFBE4CD
:102400009EFAC3ED9BEA12371F4066D312372A505B
:10241000601237CAF583E41237831237546003021F
:102420002536900B45E0FEA3E0FF900B44E0900AB8
:1024300085123770EE8FF01218061266AF12370B46
:102440004009123746E475F00180191266AFC3E403
:102450009FFFE49EFE12370B4003022536123746DB
:1024600074FFF5F0121806123701E4F0A3F002250C
:1024700036123823C3E49FFFE41237275073123714
:10248000CA12377FF583E4F074892FF582E4340AA9
:10249000F583E0FF75F00A84E5F07044C3EF9464BF
:1024A00074809480900B44E040101237CFF583E4A1
:1024B000F0D209900A9904F0802612374BC083C0ED
:1024C00082E0FEA3E0FF900A92E0A2E713FD3395BD
:1024D000E0FCC3EF9DFFEE9CD082D083F0A3EFF031
:1024E000900B44E0FF900CCEE06F704A74FFF080D8
:1024F00045123823D312372A403C900B44E0123760
:10250000CF123754703012384212377FF583E064AF
:10251000207023123842F583E4F0900A92E0A2E79B
:1025200013A2E713FD3395E0FC75F002EF12374E6E
:10253000EC8DF01218061237EC4D4E4F7003022549
:10254000EE900B4AE0FCA3E0FDAE047802CEA2E7D9
:1025500013CE13D8F8FFC3ED9FFFEC1237274003CB
:102560000225E712379BE004F01266DA900B49EF80
:10257000F0E4900B48F0123776501812373BE0C366
:102580009401748094804006900B47E004F0123868
:102590000080E31237A94008900A74E0900B49F0DC
:1025A000900B44E0FB12379F12385B500302263831
:1025B00074972B1237A1E4F0AF29AE28AD27AC26D3
:1025C000121A5BE5255FFFE5245EFEE5235DFDE570
:1025D000225C8F258E248D23F52274812BF582E4D5
:1025E000340AF583E4F02212379BE014F022900BBA
:1025F00044E0248112373E1237567008900B44E0B5
:10260000FF125624E52A14FF900B44E06F702990C6
:102610000CD5E0C3952A4020E4900B48F0123776A1
:10262000500E12373BE0600312383B12380080ED49
:10263000900B47E07002C2082290095AE0FFEF5465
:102640007FFF900E49EFF0900920E0FFEF30E103AB
:102650000229F0900918E0FFEF20E70122900E49CF
:10266000E0FF90095AE0FEEE547FFEEEC39F500E4D
:1026700090095AE0FFEF547FFF900E49EFF0900968
:1026800024E0FEA3E0FFEF4E600302283C90091B0C
:10269000E0FFEF54FEFF90091BEFF090091BE0FFF5
:1026A000EF54EFFF90091BEFF0900E49E0FF7E0022
:1026B000D3EF9401EE648094805062900ACEE0FFE4
:1026C000EF20E13C900918E0FFEF30E33390091967
:1026D000E0FFEF30E72A900ACEE0FFEF54FEFF90D4
:1026E0000ACEEFF0900ACEE0FFEF4402FF900ACE50
:1026F000EFF090091DE0FFEF4401FF90091DEFF09E
:1027000090091BE0FFEF4402FF90091BEFF09009D6
:102710001BE0FFEF54DFFF90091BEFF022900E4902
:10272000E0FF7E00D3EF9403EE64809480400302C8
:10273000281F900ACEE0FFEF20E03C900918E0FF50
:10274000EF30E333900919E0FFEF30E72A900ACE2B
:10275000E0FFEF4401FF900ACEEFF0900ACEE0FFD9
:10276000EF54FDFF900ACEEFF090091DE0FFEF441B
:1027700008FF90091DEFF0900ACEE0FFEF1313540D
:102780003FFFEF543FFF7E00D3EF9405EE6480944B
:1027900080501E90091BE0FFEF4402FF90091BEFE1
:1027A000F090091BE0FFEF54DFFF90091BEFF08072
:1027B0001C90091BE0FFEF54FDFF90091BEFF09008
:1027C000091BE0FFEF54DFFF90091BEFF0900ACEEA
:1027D000E0FFEF1313543FFEEF5403FFEE04FEEE51
:1027E000543FFEEE25E025E0FEEE4FFF900ACEEFCF
:1027F000F0900ACEE0FFEF1313543FFFEF543FFF7A
:102800007E00C3EF940AEE6480948050030229F0A6
:10281000900ACEE0FFEF5403FF900ACEEFF0229033
:10282000091BE0FFEF54FDFF90091BEFF090091B1F
:10283000E0FFEF4420FF90091BEFF02290091BE01E
:10284000FFEF54FDFF90091BEFF090091BE0FFEF35
:1028500054DFFF90091BEFF0900E49E0FF7E00D39C
:10286000EF9403EE64809480506B90091BE0FFEFBF
:102870004401FF90091BEFF090091BE0FFEF54EFBC
:10288000FF90091BEFF0900ACEE0FFEF30E103026A
:1028900029F0900918E0FFEF20E3030229F09009E6
:1028A00019E0FFEF20E7030229F0900ACEE0FFEFE6
:1028B00054FEFF900ACEEFF0900ACEE0FFEF440204
:1028C000FF900ACEEFF090091DE0FFEF4401FF906A
:1028D000091DEFF022900E49E0FF7E00D3EF940A2D
:1028E000EE6480948040030229D4900ACEE0FFEF8A
:1028F00020E03C900918E0FFEF30E333900919E045
:10290000FFEF30E72A900ACEE0FFEF4401FF900A84
:10291000CEEFF0900ACEE0FFEF54FDFF900ACEEF2D
:10292000F090091DE0FFEF4408FF90091DEFF090C3
:102930000ACEE0FFEF1313543FFFEF543FFF7E003A
:10294000C3EF9405EE64809480501E90091BE0FF55
:10295000EF4401FF90091BEFF090091BE0FFEF54DB
:10296000EFFF90091BEFF0801C90091BE0FFEF5474
:10297000FEFF90091BEFF090091BE0FFEF54EFFF03
:1029800090091BEFF0900ACEE0FFEF1313543FFEC7
:10299000EF5403FFEE04FEEE543FFEEE25E025E08B
:1029A000FEEE4FFF900ACEEFF0900ACEE0FFEF135D
:1029B00013543FFFEF543FFF7E00C3EF940AEE64D1
:1029C000809480402B900ACEE0FFEF5403FF900AE2
:1029D000CEEFF02290091BE0FFEF54FEFF90091BA1
:1029E000EFF090091BE0FFEF4410FF90091BEFF0A0
:1029F00022900BE4121C03900BED121BE31216D075
:102A0000FF7E00EF64FF4E70037F0122900BED12FA
:102A10001BE31216D0FF7E08EF8EF0A4FFAEF090FD
:102A20000BE4121BE3E92FF9EA3EFA758204758381
:102A30000012185DFDACF0E41215207BCD7ACC7944
:102A40004C783E1212FCC004C005C006C007900BB3
:102A5000E7121BE3121832FDACF0E4121520A804B3
:102A6000A905AA06AB07D007D006D005D0041214DA
:102A7000A24003022B87900BE4121BE3C003C002A9
:102A8000C001900BED121BE31216D0FF75F008EF9A
:102A9000A4F58285F083D001D002D003121B3590BB
:102AA000095FE0FEA3E0FFE4FCFDC3121A8C700393
:102AB000022B50900BE4121BE3C003C002C0019034
:102AC0000BED121BE31216D0FF75F008EFA4F58290
:102AD00085F083D001D002D003121AC390095FEEB3
:102AE000F0A3EFF0900BE4121BE3C003C002C0019F
:102AF000900BED121BE31216D0FF75F008EFA4F552
:102B00008285F083D001D002D003121AC3AD07AC86
:102B1000067F101256A4900BE4121BE3C003C00200
:102B2000C001900BED121BE31216D0FF75F008EFF9
:102B3000A4F58285F083D001D002D003121AC3908D
:102B40000961EEF0A3EFF07D017F00126012802793
:102B5000900961E0FCA3E0FDE41215207B007A00FF
:102B60007900783F1212FC121559AD07AC06AC067D
:102B7000AD077F0212109E900BE7121BE3E475F085
:102B800001121895022CB1900BED121BE31216D016
:102B9000FF7E08EF8EF0A4FFAEF0900BE4121BE373
:102BA000E92FF9EA3EFA75820675830012185DFD79
:102BB000ACF0E41215207BCD7ACC794C783E121221
:102BC000FCC004C005C006C007900BEA121BE3124C
:102BD0001832FDACF0E4121520A804A905AA06AB32
:102BE00007D007D006D005D0041214A250197D00DA
:102BF0007C007F0212109E900BEA121BE3E475F03A
:102C000001121895022CB1900BED121BE374011206
:102C10001716900BE7121BE3E475F00012191A90D7
:102C20000BEA121BE3E475F00012191A900BE41280
:102C30001BE3C003C002C001900BED121BE3121690
:102C4000D0FF75F008EFA4F58285F083D001D002A3
:102C5000D003121AC3900961EEF0A3EFF0900BE4D9
:102C6000121BE3C003C002C001900BED121BE31264
:102C700016D0FF75F008EFA4F58285F083D001D05F
:102C800002D003121AC37BFF7AFF79FF7800C312C8
:102C90001A8C701D900BED121BE374FF12176B90D2
:102CA000095FE4F0A3E4F07D007F001260127F0171
:102CB000227F0022900924E0FEA3E0FFEF4E600394
:102CC000022D607F007ED47D8F7C0590092A121B27
:102CD00029C3121A8C50031252607B607A03790068
:102CE000780090092A121B0D1219AF900CEF121BDD
:102CF0009A7FE07EA57D017C00900CEF121B29C31A
:102D0000121A8C4003022DE2900CEF121B29C3749F
:102D1000E09BFF74A59AFE740199FDE498FC900C69
:102D2000EF121B9A900CEF121B0DE412151B7B0087
:102D30007A0079877844121405900CF3121B9A904C
:102D40000CF3121B0D121559EF547FFF90095AE036
:102D5000FEEE5480FEEE4FFF90095AEFF0022DE296
:102D60007F007E9C7DDA7C01900926121B29C3120C
:102D70001A8C50031252607B607A037900780090BD
:102D80000926121B0D1219AF900CEF121B9A900C12
:102D9000EF121B29C374A09BFF748C9AFEE499FD6B
:102DA000E498FC900CEF121B9A900CEF121B0DE4B0
:102DB00012151B7B007A0079B47843121405900C2D
:102DC000F3121B9A900CF3121B0D121559EF547F3E
:102DD000FF90095AE0FEEE5480FEEE4FFF90095A34
:102DE000EFF0900924E0FEA3E0FFEF4E6003022E17
:102DF000A590091CE0FFEF20E603022EA57F747E5C
:102E0000C27D037C00900932121B29C3121A8C5018
:102E1000031251D2900932121B0DE412151B7B9242
:102E20007A917933783D1212FC121559900CEF12F9
:102E30001B9A7F307E2A7D007C00900CEF121B29AC
:102E4000D3121A8C400A900CEF121BA600002A30F5
:102E5000900CEF121B29C374309BFF742A9AFEE476
:102E600099FDE498FC900CEF121B9A900CEF121B4A
:102E70000DE412151B7B007A0079D87842121405F4
:102E8000900CF3121B9A900CF3121B0D121559EFB4
:102E9000547FFF90095BE0FEEE5480FEEE4FFF9002
:102EA000095BEFF022900924E0FEA3E0FFEF64014C
:102EB0004E6003022F6990091CE0FFEF20E6030239
:102EC0002F697FC57E407D017C0090092E121B2951
:102ED000C3121A8C50031251D290092E121B0DE40A
:102EE00012151B7B927A917933783D1212FC1215E0
:102EF00059900CEF121B9A7F107E0E7D007C009083
:102F00000CEF121B29D3121A8C400A900CEF121BE3
:102F1000A600000E10900CEF121B29C374109BFF2B
:102F2000740E9AFEE499FDE498FC900CEF121B9A43
:102F3000900CEF121B0DE412151B7B007A00791028
:102F40007842121405900CF3121B9A900CF3121B8A
:102F50000D121559EF547FFF90095BE0FEEE54808F
:102F6000FEEE4FFF90095BEFF022900915E0FF7E27
:102F700000C3EF940AEE64809480400302317590A0
:102F80000AB3E004F0900AB4E0FFEF121D042F9E94
:102F900000301501308C0231000300003175900AB9
:102FA000B3E0FF7E00EF64014E7004121016229011
:102FB0000AB3E0FF7E00EF64034E700B7D017F01DA
:102FC0001250B343AD4022900AB3E0FF7E00EF649D
:102FD000054E701A1265A5900915E0FDED25E02457
:102FE000C9F582E43408F583EEF0A3EFF022900AED
:102FF000B3E0FF7E00C3EF940AEE64809480500338
:10300000023175900AB4E004F0900AB3E4F01210B3
:103010001E12100622900AB3E0FF7E00EF64014EFC
:10302000700412102622900AB3E0FF7E00EF6403C2
:103030004E700B7D017F031250B343AD4022900AC6
:10304000B3E0FF7E00EF64054E701A1265A590098B
:1030500015E0FDED25E024F1F582E43408F583EE7A
:10306000F0A3EFF022900AB3E0FF7E00C3EF940AD2
:10307000EE648094805003023175900AB4E004F04D
:10308000900AB3E4F012102E12100E22900AB3E050
:10309000FF7E00EF64014E700412103622900AB3D6
:1030A000E0FF7E00EF64034E700B7D017F0612503F
:1030B000B343AD4022900AB3E0FF7E00EF64054EBB
:1030C000701A1265A5900915E0FDED25E024DDF5E7
:1030D00082E43408F583EEF0A3EFF022900AB3E027
:1030E000FF7E00C3EF940AEE6480948050030231A7
:1030F00075900AB4E004F0900AB3E4F012103E2296
:10310000900AB3E0FF7E00EF64014E7004121006D7
:1031100022900AB3E0FF7E00EF64034E700B7D0146
:103120007F071250B343AD4022900AB3E0FF7E0008
:10313000EF64054E701A1265A5900915E0FDED25A6
:10314000E024B5F582E43408F583EEF0A3EFF02235
:10315000900AB3E0FF7E00C3EF940AEE648094808F
:103160004013900AB4E4F0900AB3E4F012100E9009
:103170000915E004F022900DFEEFF0900DFFEDF048
:10318000900E00EBF0900DFEE0FFEF121D0431A455
:103190000031F001323C0232880332D4043320057E
:1031A00000003369900E00E0FFEF121D0431BA00F9
:1031B00031D10131E50200003369900DFFE0FFEFEE
:1031C000F4FFEF529A900DFFE0FFEFF4FFEF529BF8
:1031D00022900DFFE0FFEFF4FFEF529A900DFFE019
:1031E000FFEF429B22900DFFE0FFEF429A22222246
:1031F000900E00E0FFEF121D04320600321D013276
:10320000310200003369900DFFE0FFEFF4FFEF5251
:1032100091900DFFE0FFEFF4FFEF529222900DFF2F
:10322000E0FFEFF4FFEF5291900DFFE0FFEF4292CD
:1032300022900DFFE0FFEF4291222222900E00E04B
:10324000FFEF121D04325200326901327D0200008C
:103250003369900DFFE0FFEFF4FFEF52A1900DFFF7
:10326000E0FFEFF4FFEF52A222900DFFE0FFEFF43A
:10327000FFEF52A1900DFFE0FFEF42A222900DFF61
:10328000E0FFEF42A1222222900E00E0FFEF121D8C
:1032900004329E0032B50132C90200003369900D3C
:1032A000FFE0FFEFF4FFEF52B1900DFFE0FFEFF40E
:1032B000FFEF52B222900DFFE0FFEFF4FFEF52B1AB
:1032C000900DFFE0FFEF42B222900DFFE0FFEF42D2
:1032D000B1222222900E00E0FFEF121D0432EA001C
:1032E00033010133150200003369900DFFE0FFEF59
:1032F000F4FFEF52C1900DFFE0FFEFF4FFEF52C279
:1033000022900DFFE0FFEFF4FFEF52C1900DFFE0C0
:10331000FFEF42C222900DFFE0FFEF42C1222222C6
:10332000900E00E0FFEF121D04333600334D0133E1
:10333000610200003369900DFFE0FFEFF4FFEF52F0
:10334000D9900DFFE0FFEFF4FFEF52DA22900DFF6E
:10335000E0FFEFF4FFEF52D9900DFFE0FFEF42DA0C
:1033600022900DFFE0FFEF42D922900920E0FFEF0D
:1033700030E10302352090091AE0FFEF30E6030246
:103380003520900918E0FFEF30E41E90091AE0FFA5
:10339000EF20E215900AD1E4F090091AE0FFEF4423
:1033A00004FF90091AEFF0C2DB900AD1E0FFEF12A0
:1033B0001D0433CB0033F001342D02344E03346D41
:1033C0000434B80534E20600003520D2C2900AD198
:1033D0007401F090091BE0FFEF4480FF90091BEFA0
:1033E000F090091CE0FFEF4440FF90091CEFF02231
:1033F000900AD2E475F001121806900AD2E0FEA3FA
:10340000E0FFD3EF9409EE94005003023520900AB8
:10341000D2E4F0A3E4F0D2C0900AD1E004F0900925
:1034200019E0FFEF4440FF900919EFF022900918CE
:10343000E0FFEF30E403023520900AD1E004F09081
:10344000091BE0FFEF547FFF90091BEFF022C2C27F
:10345000900AD2E4F0A3E4F0900AD1E004F09009DD
:103460001AE0FFEF54FBFF90091AEFF022900AD206
:10347000E475F001121806900AD2E0FEA3E0FFD333
:10348000EF9409EE94005003023520900AD2E4F044
:10349000A3E4F0C2C090091CE0FFEF54BFFF900905
:1034A0001CEFF0900AD1E004F0900919E0FFEF540E
:1034B000BFFF900919EFF022900AD2E475F00112D3
:1034C0001806900AD2E0FEA3E0FFD3EF9470EE94CA
:1034D00017404D900AD2E4F0A3E4F0900AD1E00442
:1034E000F022900AD2E475F001121806900AD2E098
:1034F000FEA3E0FFD3EF94B0EE94044014900AD200
:10350000E4F0A3E4F0900AD1E004F0C2DBC2C08092
:1035100004D2DBD2C0900918E0FFEF30E402C2DB36
:1035200022900ACBE475F001121806900920E0FF02
:10353000EF20E1030236D1900920E0FFEF1313548E
:103540003FFFEF5401FF900920E0FEEEC313FEEEB3
:103550005401FEEE6FFFEF6044900ACDE4F0900955
:1035600020E0FFEF5402FFEF25E0FF900920E0FE8E
:10357000EE54FBFEEE4FFF900920EFF090091BE4A4
:10358000F090091DE0FFEF54EFFF90091DEFF09060
:10359000091CE0FFEF54EFFF90091CEFF0900ACBFD
:1035A000E0FEA3E0FFEF30E0030236D1900ACDE069
:1035B000FFEF121D0435D40035EB01360202361937
:1035C00003363004364705367E0636850736B5089D
:1035D000000036D1D2C090091BE0FFEF4410FF90ED
:1035E000091BEFF0900ACDE004F022D2C290091B33
:1035F000E0FFEF4420FF90091BEFF0900ACDE004BC
:10360000F022D2C190091BE0FFEF4480FF90091B1C
:10361000EFF0900ACDE004F022D2DB90091BE0FF2E
:10362000EF4440FF90091BEFF0900ACDE004F02238
:10363000D2C390091BE0FFEF4408FF90091BEFF095
:10364000900ACDE004F02290091CE0FFEF4420FF37
:1036500090091CEFF090091CE0FFEF4410FF900967
:103660001CEFF090091B74FFF090091DE0FFEF4480
:1036700010FF90091DEFF0900ACDE004F022900AAF
:10368000CDE004F02290091BE4F090091CE0FFEF6C
:1036900054DFFF90091CEFF090091CE0FFEF54EF9E
:1036A000FF90091CEFF0C2C2C2C1C2DBC2C3900AC4
:1036B000CDE004F022900920E0FFEF4408FF9009DC
:1036C00020EFF0900920E0FFEF54FDFF900920EF7C
:1036D000F022E0900A93FF75F002121BD7E0FCA3E2
:1036E000E0FDEF900A7D75F002021BD7F582E4340D
:1036F0000AF583E4F074972FF582E4340AF583E445
:10370000F0900A85EF75F002021BD7900B44E0752C
:10371000F002900A85121BD7E0FCA3E0C39FEE6481
:1037200080F8EC648098229EFEC3900B46E09FEEEA
:103730006480F8900B45E06480982274812FF582B4
:10374000E4340AF58322900B44E0FF75F002900AFE
:1037500075021BD7F583E4F0FFFEFDFCAB25AA2420
:10376000A923A822C3021A8C900B45E0FD900A936E
:1037700075F002021BD7900B48E0FFC3952A22F593
:1037800083E004F074792FF582E4340A22900B442C
:10379000E02483F582E4340AF58322900B44E0248C
:1037A00097F582E4340AF58322900B47E0C3940333
:1037B00074809480227D0A1217B1AD037C00121729
:1037C0009F900B4DE0FD900A7522900B44E0FF2482
:1037D00089F582E4340A22E0FCA3E0FD75F002EFF3
:1037E000900A93121BD7ECF0A3EDF022E5255529A2
:1037F000FFE5245528FEE5235527FDE52255262221
:10380000900B48E004F0227E00900CCFE0FCA3E097
:10381000FD12179F8EE78FE622E0FEA3E0C39DFF17
:10382000EE9C22900A92E0FF3395E0FE22A4FFE096
:10383000C39FE5F06480F874809822900B47740170
:10384000F022900B44E0FF2479F582E4340A2290C0
:103850000A92E0FB3395E0FAFEEB22E0FF900B4981
:10386000E0FEEFC39E229FEE6480F8EA6480982217
:10387000900B43E0FF900CCDE022410E3F01440449
:10388000B0EDB88320410021004100A700410003B2
:10389000004809510000000000000000420ACB006F
:1038A00000410ACD00410ACE00410AD400420ADD9F
:1038B0000000420ACF0000410AD105420AD20000AE
:1038C000420AD5006E420AD70032420AD9058C421C
:1038D0000ADB0460410AB300410AB400410AB500A2
:1038E000410AB6006038096A00000E74017C007855
:1038F00000000E74017C007800000E74017C0078DA
:1039000000000E74017C007800000E74017C0078C9
:1039100000000E74017C007800FFFFFFFFFFFFFF37
:103920005009A200000CE400C8037000FFFFFFFF75
:10393000FFFFFF5009B200000C4E00C8012C00FF31
:10394000FFFFFFFFFFFF602009C200000D48026C6F
:10395000026C00000D48026C026C00000D48026C05
:10396000026C00FFFFFFFFFFFFFF5009E2000008AD
:10397000FC07D003E800FFFFFFFFFFFFFF5809F23D
:10398000000006A400780064000008FC00780064D1
:1039900000FFFFFFFFFFFFFF42095F0000420961D8
:1039A0000000410CFB00410CFC00410CFD00410CEF
:1039B000F700410CF800410CF900410CFE00410CED
:1039C000FA00580A44E100E20FE326E437E502E694
:1039D00000E7F9E8F9E9F9EA05EB01EC03580A5CBC
:1039E000E100E20FE326E437E502E600E7F9E8F953
:1039F000E9F9EA05EB01EC03410CD300410A990017
:103A0000410A1400C10A440A39AA5555AA440A4079
:103A100000000000440A350000000000900B23EE77
:103A2000F0A3EFF0900B25ECF0A3EDF0900B27EA5C
:103A3000F0A3EBF0900B27E0FEA3E0FF900B23E058
:103A4000FCA3E0FDD3ED9FEC9E5003023B02900BE4
:103A500027E0FEA3E0FF900B23E0FCA3E0FDC3ED15
:103A60009FFDEC9EFCE4121520900B2B121B9A90EC
:103A70000B29E0FEA3E0FF900B25E0FCA3E0FDC3D3
:103A8000ED9FFDEC9EFCE4121520C004C005C006AD
:103A9000C0077F007EF07D7F7C45900B2B121B2999
:103AA0001212FCD003D002D001D000121405900BEA
:103AB0002B121B9A900B29E0FCA3E0FDE4121520C9
:103AC0007B007AF0797F7845121405900B2F121B3A
:103AD0009A900B2F121B0D900B2B121B291212FC0C
:103AE000900B2F121B9A900B27E0FCA3E0FDE41231
:103AF0001520900B2F121B29121207900B2F121B4F
:103B00009A22900B23E0FEA3E0FF900B27E0FCA39A
:103B1000E0FDC3ED9FFDEC9EFCE4121520900B2B05
:103B2000121B9A900B25E0FEA3E0FF900B29E0FC0E
:103B3000A3E0FDC3ED9FFDEC9EFCE4121520C00444
:103B4000C005C006C0077F007EF07D7F7C45900BDE
:103B50002B121B291212FCD003D002D001D000126C
:103B60001405900B2B121B9A900B29E0FCA3E0FD8F
:103B7000E41215207B007AF0797F784512140590C5
:103B80000B2F121B9A900B2F121B0D900B2B121B3D
:103B9000291212FC900B2F121B9A900B27E0FCA30A
:103BA000E0FDE4121520900B2F121B291212079032
:103BB0000B2F121B9A22900CF7E0FF7E00C3EF94AC
:103BC000FFEE648094805006900CF7E004F09009BA
:103BD00018E0FFEF20E203023C95900CF8E0FF7E36
:103BE00000D3EF9400EE648094805003023C9590E3
:103BF0000CF8E0FF7E00C3EF940AEE6480948040EE
:103C000003023C95900CF7E0FF7E00C3EF94C8EEF2
:103C1000648094805050900920E0FFEF20E14790AD
:103C20000CF9E004F090091DE0FFEF4404FF900957
:103C30001DEFF0900CF9E0FF7E00D3EF9404EE64EA
:103C40008094804021900920E0FFEF4402FF90091A
:103C500020EFF0900CF8E4F0900918E0FFEF54FE2C
:103C6000FF900918EFF0900CF8E4F0900918E0FFCD
:103C7000EF54FEFF900918EFF0900918E0FFEF54A1
:103C8000DFFF900918EFF0900918E0FFEF54BFFF35
:103C9000900918EFF0900918E0FFEF30E008900C61
:103CA000F8E004F0801C900CF8E0FF7E00D3EF9465
:103CB000C8EE64809480505D900918E0FFEF20E02A
:103CC0000122900CF8E0FF7E00EF643C4E701D90E6
:103CD000091DE0FFEF4402FF90091DEFF090091865
:103CE000E0FFEF4440FF900918EFF022900CF8E05D
:103CF000FF7E00EF64644E701C90091DE0FFEF54DE
:103D0000FBFF90091DEFF0900918E0FFEF4440FF22
:103D1000900918EFF02275100075180075170075DE
:103D2000160075150012106E5003023E461262E630
:103D30008F148E138D128C11750F00E50FC3952A09
:103D40005051AF14AE13AD12AC117801121A9D8F01
:103D5000148E138D128C1130D7357F017E007D00BB
:103D60007C00AB0F747B2BF582E4340AF583E0F919
:103D7000A801121AB0E5184FFFE5174EFEE5164DE3
:103D8000FDE5154CFC8F188E178D168C150510054A
:103D90000F80A8AF107E00C3EF9402EE6480948081
:103DA000401ED208AF107E00C3EF9403EE648094EF
:103DB00080400512107680081266C5EF6002C208C6
:103DC00020082C7F007E007D007C00AB18AA17A97C
:103DD00016A815C3121A8C600C900A90E475F001B5
:103DE0001218068020900A90E4F0A3E4F080169068
:103DF0000A8DE475F0011218067518007517007524
:103E000016007515001266A4900A90E0FCA3E0FD70
:103E1000D3ED9FEC9E400B121076900A90E4F0A335
:103E2000E4F0900A8DE0FEA3E0FFD3EF942CEE9433
:103E3000014020121076900A997401F0900A8DE4E6
:103E4000F0A3E4F0800D906753E493FE740193FFB8
:103E5000123F92AF18AE17AD16AC152212106612B3
:103E6000105E1258957BFF7A5F798AC003C002C04A
:103E7000017B017A0079A8900D22121C03D001D099
:103E800002D003125D877F001264F6125EB5124302
:103E90001C1254911266D043CF10900A8FE0FFEFAE
:103EA00020E703023F57900A8FE0FFEF547FFF9017
:103EB0000A8FEFF0123D16900BC4121B9A7F007E02
:103EC000007D007C00900BC4121B29D3121A8C4079
:103ED00075900918E0FFEF54FBFF900918EFF09080
:103EE0000BC4121B0DEF5402FFEE5400FEED540004
:103EF000FDEC5400FCEC4D4E4F600E900918E0FFB5
:103F0000EF4401FF900918EFF0900BC4121B0D78DD
:103F100008121A9D900BC4121B9A900BC4121B0D11
:103F2000EF5440FFEE5400FEED5400FDEC5400FC55
:103F3000EC4D4E4F601E900918E0FFEF4402FF90D9
:103F40000918EFF0800E900918E0FFEF4404FF908D
:103F50000918EFF012100012551AE5B720E510907D
:103F60000BC8E0FF7E00EF645A4E6003023E97905C
:103F70000BC8E0FFEF54A5FF900BC8EFF0124EDA2C
:103F800090091AE0FFEF4402FF90091AEFF0023E99
:103F90009722900B43EFF0900CD31237AC403EE4E5
:103FA000F0900A99E0702B900B44F0900B44E0C322
:103FB000952A501EE0FF12376DE0FCA3E0FD75F07E
:103FC00002EF12374EECF0A3EDF0900B44E004F05A
:103FD00080D91261D0C209E4900A99F022900CCDE8
:103FE000E004F0123870B5070812667BE4900CCE3E
:103FF000F0123870D39F50030240C3E4900B44F09A
:10400000900B44E0C3952A507A1236D2123819AD7B
:1040100007FC900A99E0702E12384F7802C333CE15
:1040200033CED8F9FFD3ED12371D4046E49BFFE4B1
:104030009AFEEF7802C333CE33CED8F9FFC3ED1228
:10404000371D502E803D12384F7803C333CE33CE08
:10405000D8F9FFD3ED12371D4018E49BFFE49AFE18
:10406000EF7803C333CE33CED8F9FFC3ED12371D3B
:104070004011900B44E0FF124735900B44E004F0F0
:10408000024000900B44E0B52A06900CCEE004F00C
:10409000900B43E0FD75F008900CCD12382D4023B5
:1040A000E4F0C208900CD3E004F0ED75F004900C3D
:1040B000CE12382D400DE4900CD3F012651512612C
:1040C000D0C20922900BD8121C03900BDBE4F0A3A2
:1040D000E4F0900BDD74FFF0A374FFF0900BDFE4CD
:1040E000F0A3E4F0900BE1E4F0A3E4F0900BE3E440
:1040F000F0900BE3E0FF7E00C3EF940AEE6480943F
:10410000804003024191900BD8121BE3900BE3E037
:10411000FF75F002EFA4F58285F08312185DFFAE03
:10412000F0900BE1EEF0A3EFF0900BDBE0FEA3E0EC
:10413000FF900BE1E0FCA3E0FDD3ED9FEC9E40106F
:10414000900BE1E0FEA3E0FF900BDBEEF0A3EFF0BD
:10415000900BDDE0FEA3E0FF900BE1E0FCA3E0FDAF
:10416000C3ED9FEC9E5010900BE1E0FEA3E0FF90AA
:104170000BDDEEF0A3EFF0900BE1E0FEA3E0FF908B
:104180000BDFEE8FF0121806900BE3E004F0024014
:10419000F1900BDFE0FEA3E0FF900BDDE0FCA3E07D
:1041A000FDC3EF9DFFEE9CFE900BDFEEF0A3EFF062
:1041B000900BDFE0FEA3E0FF900BDBE0FCA3E0FD53
:1041C000C3EF9DFFEE9CFE900BDFEEF0A3EFF090AF
:1041D0000BDFE0FEA3E0FFEF7803CEC313CE13D8CE
:1041E000F9FF900BDFEEF0A3EFF0900BDFE0FEA302
:1041F000E0FF22900DB6EEF0A3EFF0900DB8EDF0D9
:10420000900DB8E0FFEF121D044213004289010037
:1042100000431B900DB6E0FEA3E0FFEEFF7E00EF33
:10422000540FFF900953EFF0900953E0FFEF9067B0
:104230007593FF900953EFF0900DB6E0FEA3E0FFF9
:10424000EEC4F854F0C868FEEFC4540F48FFEF54B2
:104250000FFF900954EFF0900954E0FFEF9067755D
:1042600093FF900954EFF0900DB6E0FEA3E0FFEF4E
:10427000540FFF900955EFF0900955E0FFEF90675C
:104280007593FF900955EFF022900DB6E0FEA3E084
:10429000FFD3EF94E7EE9403400A900DB67403F059
:1042A000A374E7F0900DB6E0FEA3E0FF7C007D6410
:1042B0001217B1900953EFF0900953E0FFEF9067A8
:1042C0007593FF900953EFF0900DB6E0FEA3E0FF69
:1042D0007C007D0A1217B17C007D0A1217B1AF0570
:1042E000900954EFF0900954E0FFEF90677593FF49
:1042F000900954EFF0900DB6E0FEA3E0FF7C007D46
:104300000A1217B1AF05900955EFF0900955E0FF7B
:10431000EF90677593FF900955EFF02290095C12BA
:104320001BE3900C0F7404F0900C107402F07F00EB
:104330007E007D007C0012501B7E00EF4E701D90B1
:10434000095C121BE3900C0F7404F0900C107402C3
:10435000F07F007E007D007C0012501B90095C12F3
:104360001BE375820275830012185DFFAEF0C3EF88
:1043700094FFEE94FF5016900959E0FFEF54FDFFB3
:10438000900959EFF07F007E00125B262290095CB5
:10439000121BE3900C0F7404F0900C107402F07F69
:1043A000007E027D007C0012501B7E00EF4E701DCF
:1043B00090095C121BE3900C0F7404F0900C1074C5
:1043C00002F07F007E027D007C0012501B90095C91
:1043D000121BE375820275830012185DFFAEF0C3F5
:1043E000EF94FFEE94FF5016900959E0FFEF44025E
:1043F000FF900959EFF07F007E02125B26229009A0
:1044000059E0FFEF54FDFF900959EFF07F007E0265
:10441000125B267E007F047D0090095C121BE31274
:104420001D3090091AE0FFEF4440FF90091AEFF0A9
:1044300022900C4B121B9AE598542FFF900C53E0DE
:10444000FEEF4EFF900C55E0FEEF4EF598900C53AA
:10445000E0FF7E00EF4E70377F007E007D007C0025
:10446000900C4F121B29C3121A8C70065398DF024E
:1044700045387F017E007D007C00900C4F121B2987
:10448000C3121A8C6003024538439820024538E570
:10449000C854CFFF900C54E0FEEF4EF5C8900C547A
:1044A000E0FF7E00EF4E7041900C4F121B29900CE4
:1044B0004B121B0D1219AF7B007A017900780012A4
:1044C00019AF8F8D900C4F121B29900C4B121B0DA6
:1044D0001219AFEF54FFFFEE5400FEED5400FDEC57
:1044E0005400FC8F8BC28E804F900C54E0FF7E00F6
:1044F000EF64304E704275CE02900C4F121B299023
:104500000C4B121B0D1219AF7B007A017900780059
:104510001219AF8FCB900C4F121B29900C4B121B12
:104520000D1219AFEF54FFFFEE5400FEED5400FDE5
:10453000EC5400FC8FCAD2CAD2AC22C0E0C0F0C09A
:1045400083C082C0D075D000C000C001C002C003CB
:10455000C004C005C006C0077F007E831264B2128B
:104560006315900945E475F001121806900947E0BB
:1045700004F0900948E004F0900949E004F0900943
:1045800049E0FFEF75F00584AFF07E00EF4E701349
:10459000900921E0FFEF4410FF900921EFF090090E
:1045A00049E4F0900948E0FFEF75F03284AFF07E07
:1045B00000EF4E7013900921E0FFEF4404FF9009D3
:1045C00021EFF0900948E4F0900945E0FEA3E0FFF8
:1045D0007C037DE81217B1ED4C7016900921E0FFC5
:1045E000EF4408FF900921EFF0900945E4F0A3E4BF
:1045F000F0900947E0FFEF75F06484AFF07E00EFC4
:104600004E7013900921E0FFEF4401FF900921EF64
:10461000F0900947E4F0122F6A900921E0FFEF3093
:10462000E403124F7CD007D006D005D004D003D0CD
:1046300002D001D000D0D0D082D083D0F0D0E032F0
:10464000C0E0C0F0C083C082C0D075D000C000C040
:1046500001C002C003C004C005C006C00753B7BFF5
:10466000E5B720E50302471AC2AF7B007D047F0057
:104670001231767B007D107F001231767B007D0841
:104680007F041231767B007D047F041231767B003B
:104690007D027F041231767B007D807F03123176AC
:1046A0007B007D207F031231767B007D107F03121B
:1046B00031767B007D087F031231767B007D047F9D
:1046C000031231767B007D027F031231767B007D01
:1046D000017F011231767B007D047F011231767BF0
:1046E000007D107F011231767B007D207F02123128
:1046F000767B007D407F021231767B007D807F02D9
:104700001231767B007D017F001231767B007D02C5
:104710007F00123176124EDAD2AFD007D006D00524
:10472000D004D003D002D001D000D0D0D082D0832A
:10473000D0F0D0E032900B45EFF0F91236D21238BB
:1047400019900B46F0A3EFF0AF011260D5AD07ACA6
:1047500006900B46E0FEA3E0FFD39DEC6480F8EEEC
:104760006480985014C3E49DFBE49CFAC3EF9BEA79
:104770006480F8EE648098500E900B45E0FF12368E
:10478000E31237D7024819ECA2E713FEED13FF90AE
:104790000B46E0FAA3E0FBD31238665016ECA2E712
:1047A00013FEED13FFC3E49FFFE49EFEC3EB12383C
:1047B000665023123768E0FAA3E0FBEAC313FEEB6E
:1047C00013FFC3EB9FFBEA9EFAED1236E3E0C3133F
:1047D000FEA3E0138032123768E0FAA3E0FBAE02DA
:1047E0007803CEC313CE13D8F9FFC3EB9FFBEA9E29
:1047F000FA75F002ED900A7D121BD7E0FEA3E07877
:1048000003CEC313CE13D8F92BFFEA3EFE900B451F
:10481000E012376DEEF0A3EFF0900B451236D2ECBC
:10482000F0A3EDF0227B027D047F001231767B0243
:104830007D107F001231767B017D207F0012317662
:104840007B027D087F051231767B027D047F041296
:1048500031767B027D027F041231767B027D807F80
:10486000031231767B027D207F031231767B027D3D
:10487000107F031231767B027D087F031231767B35
:10488000027D047F031231767B027D027F031231A9
:10489000767B027D017F011231767B027D047F01F0
:1048A0001231767B027D107F011231767B007D20F4
:1048B0007F011231767B007D047F021231767B000E
:1048C0007D087F021231767B007D807F0112317678
:1048D0007B027D207F021231767B027D407F0212B7
:1048E00031767B027D807F021231767B027D017FF3
:1048F000001231767B027D027F001231767B027DD1
:10490000407F011231767B027D407F031231762297
:10491000900E15EFF0900E16E4F053DCF843DC0235
:10492000E58E54C0FF7E00EF64404E7045900E153A
:10493000E0FF7E00EF64804E601D900E15E0FF7E6C
:1049400000EF64404E6010900E15E0FF7E00EF64B3
:10495000084E60030249E8900E15E0FFEF55C5FFD1
:10496000EF6008900E167401F0807D900E16E4F052
:104970008076E58E54C0FF7E00EF64804E704390D9
:104980000E15E0FF7E00EF64804E701B900E15E068
:10499000FFEF55C5FFEF6008900E167401F08048D8
:1049A000900E16E4F08041900E15E0FFEF55C4FF25
:1049B000EF6008900E167401F0802D900E16E4F052
:1049C0008026E58E54C0FF7E00EF64C04E701990C3
:1049D0000E15E0FFEF55C4FFEF6008900E1674014E
:1049E000F08005900E16E4F0900E16E0FF22900E77
:1049F0004DE599F0900C74E0FF7E00EF4E7034901E
:104A00000E4DE0FF7E00EF64A54E701C900E4DE051
:104A1000FF900C76EFF0900E4DE0FF900C75E02FBC
:104A2000F0900C74E004F022900C74E4F0900C759B
:104A3000E4F022900C74E0FF7E00EF64074E706299
:104A4000900C75E0FF900E4DE0FEEE6F7049900CFB
:104A500078E0FF7E00D3EF9400EE648094804010F5
:104A6000900919E0FFEF4480FF900919EFF0800EE4
:104A7000900919E0FFEF547FFF900919EFF09009BA
:104A800020E0FFEF54FEFF900920EFF0900C74E45B
:104A9000F0900C75E4F022900C74E4F0900C75E446
:104AA000F022900E4DE0FF900C74E0FE74762EF52F
:104AB00082E4340CF583EFF0900C74E004F0900E77
:104AC0004DE0FF900C75E02FF022900CFEE4F0908A
:104AD0000918E0FFEF20E203024B5F900CFCE0FFBF
:104AE0007E00D3EF9400EE64809480405F900CFCD5
:104AF000E0FF7E00C3EF940AEE64809480504D90F6
:104B00000918E0FFEF30E508900CFEE004F0803C6F
:104B1000900918E0FFEF30E633900CFEE004F090CF
:104B20000924E0FEA3E0FFEF4E700B900924E4F0AF
:104B3000A37401F08008900924E4F0A3E4F0900944
:104B40001DE0FFEF4402FF90091DEFF0900CFCE424
:104B5000F0900918E0FFEF54FDFF900918EFF09076
:104B60000918E0FFEF30E107900CFCE004F0229020
:104B70000CFCE0FF7E00D3EF94C8EE64809480507C
:104B800005900918E0FF22900E60EFF053DCF84327
:104B9000DC02E58E54C0FF7E00EF64404E7033901F
:104BA0000E60E0FF7E00EF64804E601A900E60E0C1
:104BB000FF7E00EF64404E600D900E60E0FF7E00CF
:104BC000EF64084E7073900E60E0FFEFF4FFEF5259
:104BD000C522E58E54C0FF7E00EF64804E702590A4
:104BE0000E60E0FF7E00EF64804E700C900E60E07F
:104BF000FFEFF4FFEF52C522900E60E0FFEFF4FFED
:104C0000EF52C422E58E54C0FF7E00EF64C04E70A8
:104C100028900E60E0FF7E00EF64024E600D900E63
:104C200060E0FF7E00EF64014E700EE5C454FCFFAF
:104C3000900E60E0FEEF4EF5C422900E07EFF0906C
:104C40000916E0FF7E00C3EF940FEE64809480406D
:104C500005900916E4F0900E08E4F0900916E0FFC4
:104C6000900E08E0FEEED39F5063900E08E0FF74B4
:104C7000362FF582E43409F583E0FF900E07E0FE5D
:104C8000EE6F7041900E07E0FF7E00EF64154E60FE
:104C900034900E07E0FF7E00EF64164E6027900E02
:104CA00007E0FF7E00EF64174E601A900E07E0FFEA
:104CB0007E00EF64184E600D900E07E0FF7E00EF5F
:104CC00064144E7024900E08E004F0808E900E075D
:104CD000E0FF900916E0FE74362EF582E43409F503
:104CE00083EFF0900916E004F022900C14EEF0A38C
:104CF000EFF0900C16121C03900C16121BE3900C94
:104D00001C121C03900C1AE4F0900C19E0FF900C9C
:104D10001AE0FEEEC39F5078900C1AE0FF7E0090E0
:104D20000C14E0FCA3E0FDEF2DFFEE3CFE900C1C0C
:104D3000121BE3900C1AE0FD8D827583001216E9B8
:104D4000FD125AC3900C1AE0FF7E00900C14E0FC98
:104D5000A3E0FDEF2DFFEE3CFEE4FCFD900D1B7487
:104D600002F0125C39900C1BEFF0900C1C121BE34C
:104D7000900C1AE0FF8F827583001216E9FF900CE9
:104D80001BE0FEEEB50791900C1AE004F0024D090D
:104D90007F0122900DECEFF0900DEDEDF0900DEE17
:104DA000EBF0900DECE0FFEF121D044DBB004DC980
:104DB000024DEB034E110400004E36900DEDE0FF66
:104DC000900DEEE0FD1262B622900DEDE0FF7E0048
:104DD000EF4E7004C2AD8002D2AD900DEEE0FF7ECA
:104DE00000EF4E7003C2BD22D2BD22900DEDE0FF58
:104DF0007E00EF4E700553A9BF800343A940900D7C
:104E0000EEE0FF7E00EF4E700453B9BF2243B9407D
:104E100022900DEDE0FF7E00EF4E700553A97F80DC
:104E20000343A980900DEEE0FF7E00EF4E70045327
:104E3000B97F2243B98022900DDDEFF0900DDEEDB9
:104E4000F0900DDDE0FFEF54F0FF7E00EF4E70427A
:104E5000900DDEE0FF7E00EF64014E7019900DDDD5
:104E6000E0FFEF540FFFA8077401088002C333D896
:104E7000FCFFEF42D322900DDDE0FFEF540FFFA8BF
:104E8000077401088002C333D8FCFFEFF4FFEF5230
:104E9000D322900DDDE0FFEF54F0FFEFC4540FF587
:104EA000CE900DDDE0FFEF30E008900DDF7420F0D4
:104EB0008006900DDF7410F0900DDEE0FF7E00EFB5
:104EC00064014E7009900DDFE0FFEF42C922900DA2
:104ED000DFE0FFEFF4FFEF52C922900959E0FFEF46
:104EE00020E17290095C121BE3758202758300E475
:104EF00075F0011218CD90095C121BE3900C197427
:104F000004F07F007E00124CEA7E00EF4E706C9041
:104F1000095C121BE3900C197404F07F007E0012F0
:104F20004CEA7E00EF4E705390095C121BE3900C2C
:104F3000197404F07F007E00124CEA7E00EF4E7080
:104F40003A90095C121BE3900C197404F07F007E08
:104F500002124CEA2290095C121BE37582027583EF
:104F600000E475F00012193990095C121BE3900CF3
:104F7000197404F07F007E02124CEA2290091BE0B3
:104F8000FF7E00EF4E7005C2B3C2B522D2B7D2B4D5
:104F9000D2B2D2B190091CE0FFEF30E33F90091C80
:104FA000E0FFEF54F7FF90091CEFF0D2B3C2B590C9
:104FB000091BE0FFEF30E402C2B790091BE0FFEFEE
:104FC00030E502C2B490091BE0FFEF30E602C2B246
:104FD00090091BE0FFEF30E741C2B12290091CE0CD
:104FE000FFEF4408FF90091CEFF0C2B3D2B590095F
:104FF0001BE0FFEF30E002C2B790091BE0FFEF308B
:10500000E102C2B490091BE0FFEF30E202C2B290AD
:10501000091BE0FFEF30E302C2B122900C08121B23
:105020009A900C0C121C03900C13E5F4F0A2AFE460
:1050300033FF900C12EFF0900C12E0FF7E00EF4E69
:105040006002C2AF900C10E0FF8FF4900C11E4F0FE
:10505000900C08121B0D8F828E83E493FF900C0C32
:10506000121BE3900C11E0FE8E82758300EF121785
:105070007D900C08121B0D7B017A007900780012DC
:105080001966900C08121B9A900C0FE0FF900C11FF
:10509000E004FEF0EEC39F40B7900C13E0FF8FF4E6
:1050A000900C12E0FF7E00EF4E6002D2AF900C1128
:1050B000E0FF22900DB2EFF0900DB3EDF0900DB245
:1050C000E0FF7E00C3EF941FEE64809480506590F3
:1050D0000DB2E0FF7E007401A807088005C333CE3F
:1050E00033CED8F9FF900DB4EEF0A3EFF0900DB3EE
:1050F000E0FF7E00EF4E7022900DB4E0FEA3E0FFD3
:10510000EFF4FFEF52AB900DB4E0FEA3E0FFEEFF33
:105110007E00EFF4FFEF52AC801A900DB4E0FEA3D6
:10512000E0FFEF42AB900DB4E0FEA3E0FFEEFF7EA8
:1051300000EF42ACE5AD54E0FF900DB2E0FEEF4E63
:10514000F5AD22900915E0FF7E00C3EF940AEE64EE
:10515000809480407C900AB5E0FF7E00C3EF940508
:10516000EE64809480501B900AB5E004F0900AB57C
:10517000E0FF7E00C3EE648094805055900915E4F2
:10518000F022900AB5740FF0900915E4F07B017AD3
:105190000879B51240C4900905EEF0A3EFF07B0149
:1051A0007A0879C91240C4900907EEF0A3EFF07BAA
:1051B000017A0879DD1240C4900909EEF0A3EFF0FE
:1051C0007B017A0879F11240C490090BEEF0A3EF4D
:1051D000F022900E47EFF0900920E0FFEF30E3451A
:1051E000900E47E0FF7E00EF4E701D900932121BBB
:1051F0000DEF2458FFEE3402FEED3400FDEC3400D8
:10520000FC900932121B9A2290092E121B0DEF24DA
:1052100058FFEE3402FEED3400FDEC3400FC900942
:105220002E121B9A22900E47E0FF7E00EF4E701860
:10523000900932121B0D7B017A0079007800121957
:1052400066900932121B9A2290092E121B0D7B01C7
:105250007A007900780012196690092E121B9A22A2
:10526000900E48EFF0900920E0FFEF30E345900EFC
:1052700048E0FF7E00EF4E701D90092A121B0DEFD3
:105280002480FFEE3451FEED3401FDEC3400FC903F
:10529000092A121B9A22900926121B0DEF2480FF67
:1052A000EE3451FEED3401FDEC3400FC9009261281
:1052B0001B9A22900E48E0FF7E00EF4E7018900976
:1052C0002A121B0D7B017A00790078001219669072
:1052D000092A121B9A22900926121B0D7B017A00C3
:1052E00079007800121966900926121B9A229009FB
:1052F00021E0FFEF30E413900921E0FFEF54EFFFCE
:10530000900921EFF07F14124C3A900921E0FFEF51
:1053100030E113900921E0FFEF54FDFF900921EFE8
:10532000F07F15124C3A900921E0FFEF30E2139024
:105330000921E0FFEF54FBFF900921EFF07F1612E7
:105340004C3A900921E0FFEF30E013900921E0FF93
:10535000EF54FEFF900921EFF07F17124C3A9009AD
:1053600021E0FFEF30E313900921E0FFEF54F7FF56
:10537000900921EFF07F18124C3A22900907E0FEC5
:10538000A3E0FF7B017A09790D125EFE900905E02A
:10539000FEA3E0FF7B017A097911125EFE900AB646
:1053A000E0FF7E00C3EF9464EE648094805006902A
:1053B0000AB6E004F0900AB6E0FF7E00C3EF946402
:1053C000EE64809480503E900905E0FEA3E0FFC3A8
:1053D000EF9464EE94004003D2C322900905E0FEEE
:1053E000A3E0FFC3EF942CEE94014003D2C32290BC
:1053F0000905E0FEA3E0FFC3EF94F4EE940140033F
:10540000D2C322D2C322C2AF75FEC1AFFFD2AFEF6B
:105410005430FD7C0070047920801CED64104C70C9
:105420000479108012ED64204C700479088008ED36
:1054300064304C70027904E924F8601824F8602084
:1054400024F06028241C7030900B457401F0A37484
:10545000F4F08026900B457403F0A374E8F0801AF2
:10546000900B457407F0A374D0F0800E900B457438
:105470000FF0A374A0F08002E4F9900B45E07002F5
:10548000A3E0600C900B4574FFF5F012180680EA5B
:105490002275FE8543FF2053DB7FD2AFC209E49023
:1054A0000CD4F0900A8FF0125BE0E4FF125E6BEF19
:1054B0002401FDE433FC7E0F7FA01217B1900CCFC6
:1054C000EEF0A3EFF0E4FF1265521238077F0212EC
:1054D0005E6BEFC454F0FEC006E4FF125E6BD0E0DA
:1054E0002FF5E17F03125E6BE5E254804FF5E27F1A
:1054F00004125E6BEF6008E5E254804480F5E27FC1
:1055000001125E6B8FE31261D043A910900A7BE019
:105510004480F5E812590E0265151252EE1255A09C
:10552000EF121D04553414553816554517555218A9
:105530000000559F121DE622124ACA123BB61259AC
:105540008412336A22126534122639125143125CD6
:10555000E322900AD5E0FEA3E0FFC006C007900A50
:10556000D9E0FCA3E0FD900AD7E0FAA3E0FB900AA3
:10557000DBE0FEA3E0FF900B29EEF0A3EFF0D007F5
:10558000D006123A1C122CB4125FCF1235219009AA
:1055900018E0FFEF4480FF900918EFF012537B22D0
:1055A000900917E0FF7E00C3EF940FEE64809480B3
:1055B000401D900917E4F0900917E0FF74362FF5AD
:1055C00082E43409F583E0FF900E46EFF0804F90BF
:1055D0000916E0FF900917E0FEEEC39F4012900904
:1055E00017E4F0900916E4F0900E4674FFF0802E58
:1055F000900917E0FF74362FF582E43409F583E053
:10560000FF900E46EFF0900917E0FF74362FF582F9
:10561000E43409F58374FFF0900917E004F0900E6C
:1056200046E0FF22900B4DEFF012660D900B4EEF0F
:10563000F0125699900CD0E025E0FF900CCFE033AB
:10564000FE7C001237B51236E6E0FAA3E0C39FEA0B
:105650009E5009900B4EE0603F14802D1256999099
:105660000CCFE0FEA3E0FF7C007D0712179F1237EE
:10567000B5123705E0FAA3E0D39FEA9E401A900BDB
:105680004EE0FF647E6011EF04FF748B2DF582E421
:10569000340AF583EFF0D20922900B4DE0FF12653A
:1056A00052EFFB22900DDAEFF0900DDBECF0A3ED62
:1056B000F0900DDAE0FFEF540FFF7E00EF4E7039EF
:1056C000900DDB74FF75F0FF121806900DDAE0FF05
:1056D000EF54F0FFE5D254CFFEEE4FF5D2900DDB44
:1056E000E0FEA3E0FFEEFF7E008FD5900DDBE0FE35
:1056F000A3E0FFEF54FFF5D422900DDAE0FFEF5462
:105700000FF5CE900DDAE4F0900DDBE0FEA3E0FFA4
:10571000EEFF7E008FCB900DDBE0FEA3E0FFEF54A9
:10572000FFF5CA22900BCAEEF0A3EFF0900BCCEC81
:10573000F0A3EDF0900BCEEAF0A3EBF0900BCAE0F3
:10574000FCA3E0FDE41215207B007AF0797F784518
:10575000121405900BD0121B9A900BCCE0FCA3E026
:10576000FDEC121520900BD0121B291212FCC00464
:10577000C005C006C007900BCEE0FCA3E0FDEC1214
:105780001520A804A905AA06AB07D007D006D005A6
:10579000D00412120B900BD4121B9A900BD4121B34
:1057A0000D22900E41EFF0900E41E0FF9000191293
:1057B0001BE3900015E0FCA3E0FD8D828C83EF12CB
:1057C000177D900015E475F001121806900017E49B
:1057D00075F001121806900019121BE31216D0FF83
:1057E0007E00EF64184E6012900019121BE312162F
:1057F000D0FF7E00EF64044E7008900015E4F0A323
:10580000E4F0900015E0FEA3E0FFC3EF9485EE9472
:10581000004008900015E4F0A3E4F022C0E0C0F0DE
:10582000C083C082C0D075D000C000C001C002C01B
:1058300003C004C005C006C0073099355398FD90D9
:105840000E3FE0FF7E00C3EF9407EE64809480502B
:105850001B900E3FE004F0900E3FE0FF74512FF5D7
:1058600082E43409F583E0FF8F998005900E3FE4D0
:10587000F03098065398FE1249EED007D006D005B6
:10588000D004D003D002D001D000D0D0D082D083B9
:10589000D0F0D0E032D292D290D2B3D2B5C2B7C259
:1058A000B4C2B2C2B17DD07C077F0212109E9009B3
:1058B00021E0FFEF30E0F743CF10900AD4E004F08E
:1058C000900921E0FFEF54FEFF900921EFF0900ACC
:1058D000D4E0FF7E00C3EF941EEE64809480501DE0
:1058E000900AD4E0FF7E00C3EF9402EE64809480BF
:1058F00040BC7D007C007F0212109E80B1C2B3C20A
:10590000B5C2B7C2B4C2B2C2B1C292C29022900BA9
:10591000437420F0126468E4900B44F0900B44E070
:10592000FFC3952A5021E0FE1236E3E0FCA3E0FD20
:1059300075F002EE12374EECF0A3EDF01256249003
:105940000B44E004F080D5900B43E0FF14F0EF70BF
:10595000C312667B1266BA900B43EFF0126468E4E0
:10596000900B44F0900B44E0FFC3952A500B124774
:1059700035900B44E004F080EB900B43E0FF14F013
:10598000EF70D922208518900918E0FFEF20E30F6F
:10599000900918E0FFEF4408FF900918EFF022206B
:1059A0008534900918E0FFEF30E32B000000000081
:1059B000000000000020850F900918E0FFEF441060
:1059C000FF900918EFF022900918E0FFEF54F7FF5D
:1059D000900918EFF022900918E0FFEF54EFFF90C4
:1059E0000918EFF0900918E0FFEF54F7FF9009183D
:1059F000EFF022900924E0FEA3E0FFEF4E702E901E
:105A00000E4BE0FFEF54FCFF900E4BEFF0900E4B6F
:105A1000E0FFEF54CFFFEF4410FF900E4BEFF090FC
:105A2000090D121B0D12155912663B802C900E4B5E
:105A3000E0FFEF54FCFFEF4401FF900E4BEFF090BE
:105A40000E4BE0FFEF54CFFF900E4BEFF09009119B
:105A5000121B0D12155912663B900E4BE0FF22757A
:105A60000800750900750D02750C40750B00750A6C
:105A700000750800AF087E00C3EF941FEE648094A9
:105A800080503CAF0DAE0CAD0BAC0A7801121A9DE4
:105A90008F0D8E0C8D0B8C0A30D720AF09747B2FA5
:105AA000F582E4340AF583E508F00509AF097E00C4
:105AB000C3EF9402EE648094805004050880B5859D
:105AC000092A22AB07AA06900B4FE5F4F0A2AFE437
:105AD00033A3F0AFDFA3E4F0A3EFF0C2AF75F4029D
:105AE000AF058FF5EAF5F3AF038FF2AFF3EFFEAD3D
:105AF000F27C00E42DEC3EC39418501475F1F0755F
:105B0000F61043F6020000000080050000000000CF
:105B1000900B4FE0F5F4900B51A3E0F5DF900B50A4
:105B2000E024FF92AF22AD07AC06900B43E5F4F002
:105B3000A2AFE433A3F0AFDFA3E4F0A3EFF0C2AF72
:105B400075F402ECF5F3AF058FF2AFF3EFFEADF2B3
:105B50007C00E42DEC3EC39418501475F1F075F6FA
:105B60002043F602000000008005000000000090C5
:105B70000B43E0F5F4900B45A3E0F5DF900B44E018
:105B800024FF92AF22C20C900CD4E01236E3E5E57C
:105B9000F0A3E5E4F0900CD4E004F0E0C3952A40D3
:105BA0000BE4F0900A8FE04480F08002D20C900C5D
:105BB000D4E0FF126552123807900CD4E0FF126651
:105BC0000DE5E254804FF5E2900CD4E0247BF582A1
:105BD000E4340AF583E04480F5E8300C02D2EE228A
:105BE000906749E493FE740193FF900A74EFF0907C
:105BF0006763E493FE740193FF900A92EFF0125AE8
:105C00005F750E00E50EC3952A5025AF0EEF75F0B7
:105C100008A42469F582E43467F583E493FFAE0EAB
:105C2000748B2EF582E4340AF583EFF0050E80D4F0
:105C3000900A90E4F0A3E4F022900D17121B9A90C2
:105C40000D1EE5F4F0A2AFE433FF900D1DEFF090D0
:105C50000D1DE0FF7E00EF4E6002C2AF900D1BE015
:105C6000FF8FF4900D17121B0D8F828E83E493FF2C
:105C7000900D1CEFF0900D1EE0FF8FF4900D1DE0D5
:105C8000FF7E00EF4E6002D2AF900D1CE0FF22902D
:105C90000DF2EEF0A3EFF0900DF4EDF0900DF4E0C6
:105CA000FF7E00EF4E7021900DF2E0FEA3E0FFEFCB
:105CB000F4FFEF52AB900DF2E0FEA3E0FFEEFF7EAB
:105CC00000EFF4FFEF52AC22900DF2E0FEA3E0FFF4
:105CD000EF42AB900DF2E0FEA3E0FFEEFF7E00EF9F
:105CE00042AC2290095174A5F09009527408F01248
:105CF00059F3900956EFF0900958E4F0900E4CE4F7
:105D0000F0900E4CE0FF7E00C3EF9407EE648094A9
:105D100080501F900E4CE0FF74512FF582E434093F
:105D2000F583E0FF900958E02FF0900E4CE004F06E
:105D300080CF7599A522900E40EFF0900E40E0FFC5
:105D40009001ADE0FCA3E0FD74AF2DF58274013C41
:105D5000F583EFF09001ADE475F0011218069001A3
:105D6000ADE0FEA3E0FFD3EF9400EE940240089074
:105D700001ADE4F0A3E4F0900E40E0FFEFB40D06B7
:105D80009001A87403F022900D1F121C039085F05F
:105D9000E493FF900D25EFF0901200121B19900D67
:105DA00025E02FF0900A0C7401F0900A0DE4F0A3A6
:105DB000E4F0900A0FE4F0A3E4F0900D22121BE34C
:105DC000900A11121C03900D1F121BE3900A3D1242
:105DD0001C0322900DA6EFF0900DA7ECF0A3EDF0C0
:105DE000900DA9EBF0900DA6E0FF900DA7E0FCA3AD
:105DF000E0FD12109E900DA6E0FF900DA9E0FD12AF
:105E00004E37900DA9E0FF7E00EF64014E700F90B9
:105E10000DA6E0FFEFC4540FFF7D01126012229027
:105E20000E25EFF0900E26EDF0900E25E0FF7E009F
:105E3000EF4E7005538EFE8010900E25E0FF7E0021
:105E4000EF64014E7003438E01900E26E0FF7E004A
:105E5000EF64014E70045389FB22900E26E0FF7E12
:105E600000EF64024E700343890422900E51EFF05C
:105E7000900E51E0FFEF121D045E8C005E93015EF8
:105E80009A025EA1035EA70400005EB2906765E41B
:105E900093FF22906766E493FF22906767E493FF85
:105EA000227F0012660D22906757E493FE740193DF
:105EB000FF227F00227E007F0A7D007B017A097924
:105EC00018121D307E007F147D007B017A09792233
:105ED000121D307E007F067D007B017A0979591200
:105EE0001D307E007F0C7D007B017A097945121DF3
:105EF000307B017A09792290095C121C0322900CF4
:105F00006AEEF0A3EFF0900C6C121C03900C6AE0A8
:105F1000FEA3E0FF900C6FEEF0A3EFF0900C6C127C
:105F20001BE3900C71121C03900C6FE0FEA3E0FFCA
:105F30007B007A007DCD7C00125724900C71121BDF
:105F4000E3121AF322C0E0C0F0C083C082C0D07553
:105F5000D000C000C001C002C003C004C005C0061C
:105F6000C00712627F7F01124B877F02124B87D0DE
:105F700007D006D005D004D003D002D001D000D085
:105F8000D0D082D083D0F0D0E032900E42EFF090AB
:105F90000004E0FFEF121D045FAB005FAB015FB4D4
:105FA000025FBD035FAB0400005FC6900E42E0FFDE
:105FB000125D3622900E42E0FF1257A222900E424E
:105FC000E0FF125D3622900E42E0FF125D36229015
:105FD000091AE0FFEF30E639900ACFE475F00112BC
:105FE0001806D2C2D2C0D2C1D2C3900ACFE0FEA35B
:105FF000E0FFD3EF9484EE94034016C2C2C2C0C245
:10600000C1C2C390091AE0FFEF4440FF90091AEFA4
:10601000F022900E1DEFF0900E1EEDF0900E1DE0A0
:10602000FF7E00EF4E7013900E1EE0FF7E00EF4EDD
:10603000600443D2802253D27F22900E1DE0FF8F56
:10604000CE900E1EE0FF7E00EF4E600443C8042297
:1060500053C8FB22900D96EFF0900D97121C039001
:106060000D96E0FF90000DEFF09000117403F0A387
:1060700074E8F0900D97121BE3900019121C039026
:106080000015E4F0A3E4F0900017E4F0A3E4F0902E
:10609000000FE4F0227B017D017F021231767B014B
:1060A0007D027F02123176900C4F121BA600002554
:1060B00080900C537440F0900C54E4F0900C5574A4
:1060C00010F07F007E487DE87C011244317D007F26
:1060D0000112639922900E4EEFF0900E4EE0FFEF0A
:1060E00075F008A4246BF582E43467F583E493FF2C
:1060F0007E00EF7F00FE900E4EE0FDED75F008A4EF
:10610000246CF582E43467F583E493FD7C00EF2D85
:10611000FFEE3CFE22900DB9EFF0900DB9E0FF12BA
:1061200060D5900DBAEEF0A3EFF0900DBAE0FEA3AB
:10613000E0FFEF7803C333CE33CED8F9FF7C007D88
:106140000A1217B1900DBAEEF0A3EFF0900DBAE07D
:10615000FEA3E0FF227D9F7C0F7F101256A47B01DF
:106160007D007C007F02125DD37F0012648D7D0074
:106170007F00126419900DB1E4F07B007D207F0058
:106180001262467B007D007F00124D937D017F00EF
:10619000126012227D007F101266247D017F027E34
:1061A00000125C8F7D017F087E00125C8F7D017F75
:1061B000407E00125C8F7D017F807E00125C8F7DAF
:1061C000017F011250B3C2AEC2BE7F011265F5223B
:1061D000E4FFEFC3952A501A12373BE4F074892F7D
:1061E0001236ECE4F0A3F074832F123793E4F00F2F
:1061F00080E0E4F525F524F523F522900CCE74FF1C
:10620000F0E4900CD1F0A3F0C20922C0E0C0F0C0CD
:1062100083C082C0D075D000C000C001C002C003DE
:10622000C004C005C006C007125B85D007D006D0E9
:1062300005D004D003D002D001D000D0D0D082D07D
:1062400083D0F0D0E032900DAEEFF0900DAFEDF0D6
:10625000900DB0EBF0900DAEE0FF7E00EF4E701EA3
:10626000E5D754C0FF900DAFE0FEEF4EFF900DB0AC
:10627000E0FEEF4EFF900DB1E0FEEF4EF5D7227F2E
:1062800002124910EF60077F02124B87D20A7F018A
:10629000124910EF601F7F01124B87121086900E7B
:1062A00053EFF0900E53E0FF900A3D121BE38982FA
:1062B0008A83121D2E22900E1FEFF0900E20EDF01B
:1062C000900E1FE0FF7E00EF4E600543A9028003A1
:1062D00053A9FD900E20E0FF7E00EF4E700453B9ED
:1062E000FD2243B90222E4900CD5F0900B43F090CC
:1062F0000B43E0FFC3952A5013124735900B43E040
:10630000FF12221D900B43E004F080E3AF25AE2482
:10631000AD23AC2222900005121B0D7B017A00797F
:10632000007800121966900005121B9A900013E481
:1063300075F0011218069001A9E475F00112180613
:1063400022900D78EFF0900D78E0FF900004EFF0D0
:10635000900005121BA600000000900D79121B0D85
:10636000900009121B9A9001A87401F022900E313E
:10637000EFF0900E32EDF0900E31E0FF7E00EF4E28
:106380007004C2A98002D2A9900E32E0FF7E00EF15
:106390004E7003C2B922D2B922900E35EFF0900EA2
:1063A00036EDF0900E35E0FF7E00EF4E7004C2AC8B
:1063B0008002D2AC900E36E0FF7E00EF4E7003C23A
:1063C000BC22D2BC22900E27EEF0A3EFF05389FC42
:1063D000900E27E0FEA3E0FF8F8A900E27E0FEA339
:1063E000E0FFEF7805CEC313CE13D8F9FF8F8C22D0
:1063F000900E29EEF0A3EFF05389FC438901900E33
:1064000029E0FEA3E0FF7E008F8A900E29E0FEA324
:10641000E0FFEEFF7E008F8C22900E21EFF0900EB9
:1064200022EDF0900E21E0FF7E00EF4E7012900EF4
:1064300022E0FF7E00EF4E600443D7802253D77FD7
:1064400022900E45EFF07B017A0079227F011260E5
:1064500054900E45E0FFC007900D79121BA6000076
:106460000FA0D00712634122E4FE900A8FE0547F10
:10647000F0D2EE900A8FE05480701112540643CF90
:10648000100EEEC394647480948040E722900E64F2
:10649000EFF0900E64E0FF7E00EF4E700453D2FEEA
:1064A00022900E64E0FF7E00EF64014E700343D241
:1064B0000122900E2FEEF0A3EFF0900E2FE0FEA33E
:1064C000E0FF7E008F8A900E2FE0FEA3E0FFEEFF3C
:1064D0007E008F8C227D017F01125E1F7B007A007F
:1064E0007D007C837F0112119A7D017F0112636D13
:1064F0007F0112665122900E43EFF0900E43E0FFB1
:10650000EF3395E0FEEF4E70067F05126441227F67
:106510000012644122E4FFEFC3952A50161236E2BE
:10652000E0FCA3E0FD900A75123704ECF0A3EDF057
:106530000F80E42290091CE0FFEF30E504D2928046
:1065400002C29290091CE0FFEF30E403D29022C215
:106550009022900E4FEFF0900E4FE0FFEF75F00895
:10656000A42468F582E43467F583E493FF22900E57
:106570002BEFF0900E2CEDF0438903900E2BE0FFF3
:106580008F8A900E2CE0FF8F8C221248251266E431
:106590001260951264D512615512619412669912B7
:1065A000104AD2AF22AFAF7E00EF75F010A4FFAE5D
:1065B000F0E5AEC4540FFD7C00EF2DFFEE3CFE2253
:1065C000900E74EFF075FEC1900E74E0FF7E00EF48
:1065D0004E700453FF7F2243FF8022900E6EEFF037
:1065E0005389FC438902900E6EE0FF8F8A900E6EF5
:1065F000E0FF8F8C22900E6BEFF0900E6BE0FF7E31
:1066000000EF4E700453AD7F2243AD8022900E50B8
:10661000EFF0900E50E0FF748B2FF582E4340AF512
:1066200083E0FF22900E23EFF0900E24EDF0900E09
:1066300023E0FF8FB5900E24E4F022900E0BEEF0D5
:10664000A3EFF0900E0BE0FEA3E0FF7D011241F3FB
:1066500022900E6FEFF0900E6FE0FF7E00EF4E7015
:1066600003C28C22D28C22900E61EFF0E5CF54F859
:10667000FF900E61E0FEEF4EF5CF22E4FFEFC395F1
:106680002A50091236E21237D70F80F122900A748D
:10669000E0FFEF75F00384FF227F001266677F0141
:1066A0001265C02290674DE493FE740193FF22901F
:1066B0006751E493FE740193FF2290674BE493FECD
:1066C000740193FF22906745E493FE740193FF22C7
:1066D00075B78675B61843A92022900A74E0FFEFBB
:1066E000C313FF2243C1C043D930220000076C000E
:1066F000C800780000096000C8007800000B540052
:10670000C8007800000D4800C804B000FFFFFFFF7C
:10671000FFFFFF00000D4800C8007800000B540088
:10672000C800780000096000C800780000076C000D
:10673000C804B000FFFFFFFFFFFFFF00FFFFFFFFE8
:10674000FFFFFF0000000100000003000A0BB8007B
:10675000C80064000200000000000500000001FF06
:10676000FFFFFF0018034805081F05014403480503
:10677000081A0501913F065B4F666D7D077F6F77B5
:056780007C395E797117
:0485F000AA5555AA89
:00000001FF
