:1000000002290030000302280321033000030228E4
:100010000B210B30000302281321133000030228A8
:100020001B211B3000030228232123300003022858
:100030002B212B3000030228332133300003022808
:100040003B213B30000302284321433000030228B8
:100050004B214B3000030228532153300003022868
:100060005B215B3000030228632163300003022818
:100070006B216B30000302287321733000030228C8
:100080007B217B3000030228832183300003022878
:100090008B218B3000030228932193300003022828
:1000A0009B219B3000030228A321A33000030228D8
:0300B000AB21ABD6
:102800000271D002281EB294B2A5220256167F068B
:10281000026FBD0228267520FF222202282253883B
:10282000FD3232026B185388F7323202282A53AD38
:10283000DF323202282E02000032320228328FB5F7
:102840002232320228398F9922323202283AAF9945
:102850002232320228417F01223232026CC8D2EE8B
:012860002255
:06286300025711A2092238
:06286B00022842D20922FE
:03287300022849EF
:03287B0002284AE6
:03288300022851D7
:03288B00022852CE
:03289300022859BF
:10289B0002285AD292D290D2B3D2B5C2B7C2B4C226
:1028AB00B2C2B17DD07C078031900A61E030E0F993
:1028BB0043CF10900B6FE004F0900A61E054FEF0F0
:1028CB00900B6FE0C3941E748094805014E0C394FB
:1028DB00027480948040D2E4FDFC7F02126B9980DD
:1028EB00C8C2B3C2B5C2B7C2B4C2B2C2B1C292C23D
:0228FB00902229
:1029000078FFE4F6D8FD9000007F007E01E4F0A39C
:10291000DFFCDEFA758121022955024E33E493A3D0
:10292000F8E493A34003F68001F208DFF48029E481
:1029300093A3F85407240CC8C333C4540F4420C8CD
:10294000834004F456800146F6DFE4800B01020464
:102950000810204080904593E47E019360BCA3FF63
:10296000543F30E509541FFEE493A360010ECF5499
:10297000C025E060A840B8E493A3FAE493A3F8E488
:1029800093A3C8C582C8CAC583CAF0A3C8C582C8F4
:10299000CAC583CADFE9DEE780BEAB07AA06900A94
:1029A00040E5F4F0A2AFE433A3F0AFDFA3E4F0A37B
:1029B000EFF0C2AF75F402AF058FF5EAF5F3AF03A0
:1029C0008FF2AFF3EFFEADF27C00E42DEC3EC3944A
:1029D00018501475F1F075F61043F602000000006F
:1029E00080050000000000900A40E0F5F4900A42E3
:0D29F000A3E0F5DF900A41E024FF92AF2242
:102A000020230414EC4D6011E8497017ED33EC33CA
:102A100004600DE4FCFFFEFD22E933E8330470F8A6
:102A2000022C2D122BF858046009E4CC24815006A6
:102A3000285009022C37284003022C34C0E0EB4A0E
:102A40007044B98006D0E0FB022C23EF4E701CBD11
:102A50008008EBFFEAFEE9FD80EBE98DF0A4FEE5DE
:102A6000F0022AEDE9CDF9EAFEEBFFEF89F0A4FCD4
:102A7000E5F0CE89F0A42EFFE435F0CD89F0A42D49
:102A8000FEE435F08067EF4E7005BD80D780C3EF60
:102A90008BF0A4ACF0EE8BF0A42CFCE435F0F8EF56
:102AA0008AF0A42CE5F038FCE433CB8DF0A42CFCA8
:102AB000E5F03BF8EE8AF0A42CFCE5F038F8E433BE
:102AC000CF89F0A42CFCE5F038CF3400CE89F0A4F7
:102AD0002FFFE5F03EFEE433C98DF0A42EFEE5F0B5
:102AE00039CD8AF0A42FFFE5F03EFEE43DFD33D062
:102AF000E0FB50070BBB000F022C37EC2CFCEF3334
:102B0000FFEE33FEED33FD022C0F74F8CC6480CC65
:102B1000C86480C8F58204604FC3EB9FF5F0EA9E5D
:102B200042F0E99D42F0E89C45F0603C501DE58292
:102B30005FFFE582D313CB5BCBF42B5582FB502890
:102B40000ABA002409B9002008801DE5825BFBE574
:102B500082D313CF5FCFF4C3132F5582FF50090EDA
:102B6000BE00050DBD00010CC3EB9FF5F0EA9E42CF
:102B7000F0E99D42F0E89C45F06007CC4820E70171
:102B8000B3EC2275F020800E75F010800575F0080A
:102B90007D007E007F003392D530D5031230D0EC1B
:102BA000334010EF33FFEE33FEED33FDEC33FCD555
:102BB000F0ED22E5F0247EA2D513CC92E7CDCEFF36
:102BC00022EDD2E7CD33EC3392D524814006E4FFE9
:102BD000FEFDFC22FCE4CFCECDCC24E0501174FFEE
:102BE00080EDC3CC13CCCD13CDCE13CECF13CF04F9
:102BF00070F030D5DE0230D0E9D2E7C933E833F8DF
:102C000092D5EDD2E7CD33EC33FC5002B2D522ECB5
:102C100030E7100FBF000C0EBE00080DBD00040B06
:102C2000EB6014A2D5EB13FCED92E7FD2274FFFCE0
:102C3000FDFEFF22E480F8A2D574FF13FC7D80E442
:102C400080EFE709F608DFFA8046E709F208DFFAC5
:102C5000803E88828C83E709F0A3DFFA8032E309A3
:102C6000F608DFFA8078E309F208DFFA80708882DC
:102C70008C83E309F0A3DFFA806489828A83E0A36E
:102C8000F608DFFA805889828A83E0A3F208DFFA27
:102C9000804C80D280FA80C680D4806980F28033F4
:102CA000801080A680EA809A80A880DA80E280CABC
:102CB000803389828A83ECFAE493A3C8C582C8CCA6
:102CC000C583CCF0A3C8C582C8CCC583CCDFE9DE00
:102CD000E7800D89828A83E493A3F608DFF9ECFA92
:102CE000A9F0EDFB2289828A83ECFAE0A3C8C582B1
:102CF000C8CCC583CCF0A3C8C582C8CCC583CCDF03
:102D0000EADEE880DB89828A83E493A3F208DFF9B4
:102D100080CC88F0EF60010E4E60C388F0ED240295
:102D2000B4040050B9F582EB2402B4040050AF2380
:102D300023458223902C9273BB010689828A83E00B
:102D4000225002E722BBFE02E32289828A83E493B7
:102D500022BB010CE58229F582E5833AF583E02266
:102D60005006E92582F8E622BBFE06E92582F8E254
:102D700022E58229F582E5833AF583E49322BB01BB
:102D80000989828A83F8E028F022500327F722BBC2
:102D9000FE05F8E328F3228A838982F8E493282247
:102DA000BB010FF8E58229F582E5833AF583E02837
:102DB000F0225009C58229F8E58226F622BBFE09D9
:102DC000C58229F8E22582F222F8EA2583F583E913
:102DD000932822BB010689828A83F0225002F722BF
:102DE000BBFE01F322F8BB010DE58229F582E583E4
:102DF0003AF583E8F0225006E92582C8F622BBFEA8
:102E000005E92582C8F222EF8DF0A4A8F0CF8CF05E
:102E1000A428CE8DF0A42EFE22BC000BBE0029EF0C
:102E20008DF084FFADF022E4CCF875F008EF2FFFB1
:102E3000EE33FEEC33FCEE9DEC984005FCEE9DFE7F
:102E40000FD5F0E9E4CEFD22EDF8F5F0EE8420D2C6
:102E50001CFEADF075F008EF2FFFED33FD40079835
:102E60005006D5F0F222C398FD0FD5F0EA22C5F046
:102E7000F8A3E028F0C5F0F8E5821582700215830A
:102E8000E038F022A3F8E0C5F025F0F0E5821582E5
:102E900070021583E0C838F0E822BB010A89828AF3
:102EA00083E0F5F0A3E022500687F009E71922BB82
:102EB000FE07E3F5F009E3192289828A83E493F59A
:102EC000F074019322BB0110E58229F582E5833A73
:102ED000F583E0F5F0A3E0225009E92582F886F0B9
:102EE00008E622BBFE0AE92582F8E2F5F008E222B4
:102EF000E5832AF583E993F5F0A3E99322BB010763
:102F000089828A83022E6E500B09C5F027F7C5F01F
:102F10001937F722BBFE0D09F8E325F0F3C5F019C8
:102F2000E338F322F889828A8374019325F0C5F08F
:102F3000F8E4933822BB010DC58229C582C5833AC6
:102F4000C583022E6E5011C58229F808E5F026F6D9
:102F500018F5F0E58236F622BBFE11C58229F80885
:102F6000E225F0F5F0F218E23582F222F8E5822946
:102F7000F582E5832AF58374019325F0F5F0E49357
:102F80003822BB010A89828A83F0E5F0A3F022503F
:102F900006F709A7F01922BBFE06F3E5F009F319BD
:102FA00022F8BB0111E58229F582E5833AF583E831
:102FB000F0E5F0A3F0225009E92582C8F608A6F052
:102FC00022BBFE09E92582C8F2E5F008F222EF2BC8
:102FD000FFEE3AFEED39FDEC38FC2275F008758203
:102FE00000EF2FFFEE33FECD33CDCC33CCC5823393
:102FF000C5829BED9AEC99E58298400CF582EE9B98
:10300000FEED9AFDEC99FC0FD5F0D6E4CEFBE4CDB5
:10301000FAE4CCF9A88222B800C1B90059BA002D4F
:10302000EC8BF084CFCECDFCE5F0CBF97818EF2F08
:10303000FFEE33FEED33FDEC33FCEB33FB10D70337
:10304000994004EB99FB0FD8E5E4F9FA227818EFE0
:103050002FFFEE33FEED33FDEC33FCC933C910D73F
:10306000059BE99A4007EC9BFCE99AF90FD8E0E44C
:10307000C9FAE4CCFB2275F010EF2FFFEE33FEED22
:1030800033FDCC33CCC833C810D7079BEC9AE899F2
:10309000400AED9BFDEC9AFCE899F80FD5F0DAE4D4
:1030A000CDFBE4CCFAE4C8F922EF5BFFEE5AFEED6B
:1030B00059FDEC58FC22EF6BFFEE6AFEED69FDEC6A
:1030C00068FC22CFF4CFCEF4CECDF4CDCCF4CC221C
:1030D000C3E49FFFE49EFEE49DFDE49CFC22EB9F85
:1030E000F5F0EA9E42F0E99D42F0EC6480C864800D
:1030F0009845F022EB9FF5F0EA9E42F0E99D42F000
:10310000E89C45F022E8600FECC313FCED13FDEEE4
:1031100013FEEF13FFD8F122E8600FEFC333FFEE89
:1031200033FEED33FDEC33FCD8F122BB010DE5821B
:1031300029F582E5833AF58302315B5007E9258260
:10314000F80233AABBFE07E92582F80233B6E5820E
:1031500029F582E5833AF583023167E0FCA3E0FDBF
:10316000A3E0FEA3E0FF22E493FC740193FD74024C
:1031700093FE740393FF22E0F8A3E0F9A3E0FAA31F
:10318000E0FB22BB010DE58229F582E5833AF58358
:103190000231775007E92582F80233C2BBFE07E906
:1031A0002582F80233CFE58229F582E5833AF5835B
:1031B0000233DC7401FF3395E0FEFDFCA3A3A3E022
:1031C000CF2FF0E582158270021583E0CE3EF0E548
:1031D00082158270021583E0CD3DF0E58215827084
:1031E000021583E0CC3CF022ECF0A3EDF0A3EEF06E
:1031F000A3EFF022A8828583F0D083D08212320B15
:1032000012320B12320B12320BE473E493A3C58318
:10321000C5F0C583C8C582C8F0A3C583C5F0C58302
:10322000C8C582C822A42582F582E5F03583F583DE
:1032300022E0FBA3E0FAA3E0F922F8E0FBA3A3E07D
:10324000F925F0F0E582158270021583E0FA38F076
:1032500022EBF0A3EAF0A3E9F022BB010789828AFE
:10326000830232315005E9F80233ECBBFE05E9F880
:103270000233FE89828A83023410BB011A89828A52
:1032800083D0F0D0E0F8D0E0F9D0E0FAD0E0FBE86D
:10329000C0E0C0F00232515016E9F8D083D082D09D
:1032A000E0F9D0E0FAD0E0FBC082C0830233F5BB86
:1032B000FE16E9F8D083D082D0E0F9D0E0FAD0E071
:1032C000FBC082C08302340722BB010DE58229F5D1
:1032D00082E5833AF5830232315007E92582F8020C
:1032E00033ECBBFE07E92582F80233FEE58229F5BF
:1032F00082E5833AF583023410BB0120E58229F58B
:1033000082E5833AF583D0F0D0E0F8D0E0F9D0E060
:10331000FAD0E0FBE8C0E0C0F00232515018E925D5
:1033200082F8D083D082D0E0F9D0E0FAD0E0FBC0C0
:1033300082C0830233F5BBFE18E92582F8D083D022
:1033400082D0E0F9D0E0FAD0E0FBC082C083023442
:103350000722D083D082F8E4937012740193700D29
:10336000A3A393F8740193F5828883E473740293A2
:103370006860EFA3A3A380DF8A838982E473EF4EA2
:103380006012EF60010EEDBB010B89828A83F0A30E
:10339000DFFCDEFA2289F05007F709DFFCA9F022F2
:1033A000BBFEFCF309DFFCA9F022E6FC08E6FD0801
:1033B000E6FE08E6FF22E2FC08E2FD08E2FE08E283
:1033C000FF22E6FB08E6F908E6FA08E6CBF822E277
:1033D000FB08E2F908E2FA08E2CBF822E493F87479
:1033E0000193F9740293FA740393FB22E6FB08E657
:1033F000FA08E6F922EBF608EAF608E9F622E2FB1B
:1034000008E2FA08E2F922EBF208EAF208E9F2220D
:10341000E493FB740193FA740293F9229009ECEFA0
:10342000F0E49009F4F09009ECE0900B09124B07DE
:10343000124C4A9009EDF0A3EFF0E47F01FEFDFC91
:103440009009ECE0F9F81231188F198E188D178C4D
:1034500016AF01126F139009F2EEF0A3EFF0124BCA
:103460005A4005124C6C8005E49009EFF09009EF8A
:10347000E0640160030235CE9009ECE0FF241512F0
:103480004B6FE0C394FA748094805006124B6CE04A
:1034900004F0124C1DFCE4FBFAF9F8C31230F4609E
:1034A000030235BB900B08E09009F1F0122856EFAB
:1034B0006030E49009EFF0A3F0124BA75018124BC4
:1034C0006CE0C394017480948040069009EFE0049E
:1034D000F0124C3180E3124BDA40079009F1E024FE
:1034E0000FF09009ECE02415124B6F124C8C500336
:1034F0000235BBE49009EFF01273EFEF705E9009B4
:10350000F0F0124BA750229009ECE06F6016127396
:10351000BC9009F0E02415124B6FE0C39F400512E8
:103520004C6C8005124C3180D9122856EF3395E04F
:103530004F70639009EFE0705DA3F0124BA75056F7
:103540009009ECE06F60101273BC9009F0124BC14F
:10355000E0C39F4002803C124C3180DF122856EFBE
:103560003395E04F70309009F1F09009F0F0124B74
:10357000A75018124B6CE0C39402748094804006EC
:103580009009F1E004F0124C3180E39009F1124B04
:10359000DD4003124C6C9009EFE064017002D20828
:1035A000E5154519FFE5144518FEE5134517FDE53A
:1035B0001245168F158E148D13F5129009ECE0FF4D
:1035C000241D124B1DE4F0A3124BB40237E1900905
:1035D000ECE0FF12724A9009EDE0FCA3E0FDD3128B
:1035E0004B4E4008124BBEE004F0800B900B69E09C
:1035F00004F0124BBEE4F0124C54C3E49FFBE49E73
:10360000FAC3ED9BEA124B504066D3124B5B5060FD
:10361000124BFBF583E4124BB4124B856003023767
:10362000359009EDE0FEA3E0FF9009ECE0900B1966
:10363000124BA1EE8FF0122E6E127393124B3C4080
:1036400009124B77E475F0018019127393C3E49F5C
:10365000FFE49EFE124B3C4003023735124B777459
:10366000FFF5F0122E6E124B32E4F0A3F002373564
:10367000124C54C3E49FFFE4124B585073124BFB9F
:10368000124BB0F583E4F0741D2FF582E4340BF592
:1036900083E0FF75F00A84E5F07044C3EF9464742E
:1036A0008094809009ECE04010124C00F583E4F027
:1036B000D209900B2D04F08026124B7CC083C0826F
:1036C000E0FEA3E0FF900B26E0A2E713FD3395E0B8
:1036D000FCC3EF9DFFEE9CD082D083F0A3EFF0906F
:1036E00009ECE0FF900B62E06F704A74FFF08045D8
:1036F000124C54D3124B5B403C9009ECE0124C004E
:10370000124B857030124C73124BB0F583E064207D
:103710007023124C73F583E4F0900B26E0A2E713BC
:10372000A2E713FD3395E0FC75F002EF124B7FEC3E
:103730008DF0122E6E124C1D4D4E4F70030237ED60
:103740009009F2E0FCA3E0FDAE047802CEA2E713FC
:10375000CE13D8F8FFC3ED9FFFEC124B5840030285
:1037600037E6124BCCE004F01273F79009F1EFF05A
:10377000E49009F0F0124BA75018124B6CE0C39480
:10378000017480948040069009EFE004F0124C31FF
:1037900080E3124BDA4008900B08E09009F1F090BA
:1037A00009ECE0FB124BD0124C8C500302383774FA
:1037B0002B2B124BD2E4F0AF19AE18AD17AC16128A
:1037C00030C3E5155FFFE5145EFEE5135DFDE51210
:1037D0005C8F158E148D13F51274152BF582E4345D
:1037E0000BF583E4F022124BCCE014F0229009ECAC
:1037F000E02415124B6F124B8770089009ECE0FF24
:1038000012633FE51A14FF9009ECE06F7029900BEA
:1038100069E0C3951A4020E49009F0F0124BA750DC
:103820000E124B6CE06003124C6C124C3180ED9028
:1038300009EFE07002C208229009EF123251E490C1
:1038400009F2F0A3F090000FE0703B7F43126FBDD0
:1038500090000F7401F090000EF0E4900013F0A3BC
:10386000F0900002F0900AC91231F40000000090BC
:103870000000E4F0A304F0E49000A7F090001D1213
:1038800031F400000000900011E0FEA3E0FFD390AF
:103890000014E09F900013E09E4012900002E004AC
:1038A000F07F15126FBDE4900013F0A3F090000FAD
:1038B000E064016003023BD5C3900018E0940190DE
:1038C0000017E094005003023BD5900019123231EA
:1038D000122D38640460030239D69009F5F090097E
:1038E000F5E0FF7E00C394FF74809480503BC37466
:1038F000FF9FFFE49EFE74B02FF58274033EF583B4
:10390000E0F4701D9009F5E0FFC374FF9FFFE4949D
:1039100000FE74AF2FF58274033EF583E0641A60F5
:10392000089009F5E004F080B59009F5E02406F070
:103930007B017A0379B0E0FFC3E49FFF7401940038
:10394000FEE4FCFD9009FE1231E890001D12315B8F
:1039500012643590001D1231E8E49009F6F09009E8
:10396000F6E0FFC3940474809480504D9009F5E014
:10397000FDC3E49DFD74019400FC7E00ED2FFFEE7D
:103980003CFE74B02FF58274033EF583E0FB90009B
:103990001D12315BEF6B60089000A77401F0801975
:1039A00090001D12315B780812310590001D123114
:1039B000E89009F6E004F080A5E4900013F0A3F08D
:1039C000900017F0A3F090000E7402F0A3F07F06B1
:1039D000126FBD7F0122900019123231122D38640E
:1039E00018701E900013F0A3F0900017F0A3F09051
:1039F000000E7405F0A37402F07F06126FBD7F0302
:103A000022D3900018E09485900017E094004019AC
:103A1000E4900013F0A3F0900002E004F0E49000C2
:103A200017F0A3F07F15126FBD90001912323112FA
:103A30002D3864016003023BD5900017E07004A3A9
:103A4000E064856003023BD5900013F0A3F0900082
:103A500017F0A3F0A3123231900001122D51FF9004
:103A60000000E0FCA3E0FD6F7001E46003023BC9CD
:103A7000A3F0C3ED9403EC9400401F7B017A03791B
:103A8000B09009FE1231F40000008090001D123148
:103A90005B12643590001D1231E8E49009F5F09056
:103AA00009F5E0FFC39480748094805042E0FE24C6
:103AB00030F582E43404F583E0FD74B02EF582E441
:103AC0003403F583EDF0EF2403FDE433FC9000199B
:103AD0001232318D828C83122D51FE74302FF5827B
:103AE000E43404F583EEF09009F5E004F080B09042
:103AF0000019123231E92403F9E43AFA9009FC1270
:103B000031F4000000809009F2E0FEA3E0FF1261B2
:103B1000B49009F2EEF0FCA3EFF0FD900019123220
:103B200031900083122D51FEC3ED9400FFEC9EFEF8
:103B3000900084122D51FDC3EF9DFFEE94004F6065
:103B400003023BC9900001E024FFFF900000E03435
:103B5000FFFE9009EF123231900001EE8FF0122F2C
:103B6000A1900003E475F080122FA1E49009F4F015
:103B70009009EF123231900003122EC5FF9009F424
:103B8000E07C00C39FEC95F05033E0FF2403FDEC94
:103B900033FC9000191232318D828C83122D51FE2C
:103BA0009009EF1232319000051232C98F8275836D
:103BB00000EE122DE59009F4E004F080B3900000CF
:103BC000E475F001122E6E800C900002E02402F0E9
:103BD0007F15126FBD900002E0C394197480948029
:103BE00040237F18126FBD7F18126FBD7F18126FB0
:103BF000BDE4900017F0A3F090000E7405F0A374DC
:103C000002F07F03227F0022900A5AE020E1109008
:103C10000A5DE0D39400748094805003023CC59008
:103C200008BAE04401F0900A5DE030E6089008BB75
:103C30007401F08076900A5DE030E7089008BB746C
:103C400002F08067900A5AE030E1089008BB7403E4
:103C5000F08058900A5DE030E0089008BB741FF0D7
:103C60008049900A5DE030E1089008BB7420F08044
:103C70003A900A5DE030E2089008BB7421F0802B96
:103C8000900A5DE030E3089008BB7422F0801C903D
:103C90000A5DE030E4089008BB7423F0800D900AC0
:103CA0005DE030E5069008BB7424F0900A5AE054B9
:103CB000FDF0E4900A5DF09008C0F09008BCF0A31D
:103CC000F0A3F0A3F09008BAE020E003023ED0A3F6
:103CD000E0640170317B017A0879BC9009EE123200
:103CE000517A0879BE9009F11232517A0879C09060
:103CF00009F41232517A0809124137EF6401600366
:103D0000023ED6023EC89008BBE0640270327B01DE
:103D10007A0879BC9009EE1232517A0879BE90097E
:103D2000F11232517A0879C09009F41232517A08AE
:103D300079E9124137EF64016003023ED6023EC8C2
:103D40009008BBE0640370327B017A0879BC90096B
:103D5000EE1232517A0879BE9009F11232517A0886
:103D600079C09009F41232517A097911124137EF72
:103D700064016003023ED6023EC89008BBE0641FA7
:103D800070327B017A0879BC9009EE1232517A08C0
:103D900079BE9009F11232517A0879C09009F41273
:103DA00032517A097949124137EF64016003023ECA
:103DB000D6023EC89008BBE0642070327B017A08CE
:103DC00079BC9009EE1232517A0879BE9009F1124D
:103DD00032517A0879C09009F41232517A09798106
:103DE000124137EF64016003023ED6023EC89008DC
:103DF000BBE0642170327B017A0879BC9009EE1235
:103E000032517A0879BE9009F11232517A0879C09C
:103E10009009F41232517A097991124137EF640115
:103E20006003023ED6023EC89008BBE06422702EBA
:103E30007B017A0879BC9009EE1232517A0879BE7A
:103E40009009F11232517A0879C09009F412325176
:103E50007A0979A9124137EF6401707A806A900873
:103E6000BBE06423702E7B017A0879BC9009EE12C6
:103E700032517A0879BE9009F11232517A0879C02C
:103E80009009F41232517A0979B9124137EF64017D
:103E9000704480349008BBE06424703A7B017A0857
:103EA00079BC9009EE1232517A0879BE9009F1126C
:103EB00032517A0879C09009F41232517A0979D1D5
:103EC000124137EF6401700E9008BAE054FEF02200
:103ED000E4FDFF12708322E49009EBF0900004E00F
:103EE000C39405748094805003024131E0640860FB
:103EF00010900003E0D3942074809480500302401B
:103F000007E47F2C7E01FDFC900005123177C3127F
:103F100030F4401D9000051231F4000000007BFFDA
:103F20007A747906127030900003E004F0E0547F58
:103F3000F09001A8E06403600302413104F0E490D2
:103F400001ADF0A3F0900004E064086003023FD4E8
:103F50007BFF7A747910900A021232517B017A0148
:103F600079AF126B59EF60097BFF7A74791B12707D
:103F7000307BFF7A747923900A021232517B017AE6
:103F80000179AF126B59EF60097BFF7A74791B12CC
:103F900070307BFF7A747939900A021232517B01BA
:103FA0007A0179AF126B59EF60097BFF7A7479540B
:103FB0001270307BFF7A747966900A021232517B5C
:103FC000017A0179AF126B59EF60097BFF7A74793E
:103FD0001B1270307BFF7A74797A900A0212325188
:103FE0007B017A0179AF126B59EF70030241319076
:103FF00009F01231F400000FA0E4FF1270BF900925
:10400000EB7401F0024131E47F2C7E01FDFC900055
:1040100005123177C31230F440149000051231F4C8
:1040200000000000900003E004F0E0547FF09000F6
:1040300004E024FA60581470030240D9240260039B
:1040400002412B7BFF7A7479A49009F21232517AE3
:104050007479A79009F51232519009F81231F400E1
:104060000000647A7079309009FC1232517A7479C8
:104070008A125DB9900021EFF064026003024131C1
:104080009009F01231F400000FA07F0680467BFFFC
:104090007A7479A49009F21232517A7479A790094E
:1040A000F51232519009F81231F4000000647A7070
:1040B00079309009FC1232517A7479AD125DB99061
:1040C0000021EFF0640270699009F01231F40000F1
:1040D0000FA07F071270BF80587BFF7A7479A4907D
:1040E00009F21232517A7479A79009F5123251907F
:1040F00009F81231F4000000647A7079309009FCFC
:104100001232517A747954125DB9900021EFF06443
:1041100002701E9009F01231F400000FA07F081207
:1041200070BFE49001A9F0A3F0800690000474052C
:10413000F09009EBE0FF229009EB1232519009F464
:10414000123231122D38FEF470037F0122EE75F029
:1041500008A4FF9009EB123231E92FF9EA35F0FAA1
:10416000900004122EC5FDACF0E4122B887BCD7AB2
:10417000CC794C783E122A04C004C005C006C007A2
:104180009009EE123231122E9AFDACF0E4122B8817
:10419000A804A905AA06AB07D007D006D005D0040D
:1041A000122B0A40030242769009EB123231C0030F
:1041B000C002C0019009F4123231122D3875F00896
:1041C000A4F58285F083D001D002D0031231839010
:1041D00008B4E0FEA3E0FFE4FCFDC31230F460701D
:1041E0009009EB123231C003C002C0019009F412F1
:1041F0003231122D3875F008A4F58285F083D00194
:10420000D002D00312312BAD07AC069008B4ECF00D
:10421000A3EDF07F10126F3F9009EB123231C00313
:10422000C002C0019009F4123231122D3875F00825
:10423000A4F58285F083D001D002D00312312B90F7
:1042400008B8EEF0A3EFF07D01E4FF127083802147
:104250009008B8E0FCA3E0FDE4122B88E4FBFAF937
:10426000783F122A04122BC1AD07AC067F02126BF5
:10427000999009EE806B9009F4123231122D387545
:10428000F008A4FF9009EB123231E92FF9EA35F07A
:10429000FA900006122EC5FDACF0E4122B887BCDFF
:1042A0007ACC794C783E122A04C004C005C006C0FE
:1042B000079009F1123231122E9AFDACF0E4122B64
:1042C00088A804A905AA06AB07D007D006D005D058
:1042D00004122B0A5018E4FDFC7F02126B9990091E
:1042E000F1123231E475F001122EFD02438E900975
:1042F000F41232317401122D7E9009EE123231E443
:10430000F5F0122F829009F1123231E4F5F0122FFC
:10431000829009EB123231C003C002C0019009F44F
:10432000123231122D3875F008A4F58285F083D051
:1043300001D002D00312312B9008B8EEF0A3EFF0B9
:104340009009EB123231C003C002C0019009F4128F
:104350003231122D3875F008A4F58285F083D00132
:10436000D002D00312312B74FFFBFAF97800C3128C
:1043700030F4701A9009F412323174FF122DD3E424
:104380009008B4F0A3F0FDFF1270837F01227F003C
:1043900022900A64E07002A3E070557F807E337D36
:1043A000E17C01900A6A123177C31230F4501990FF
:1043B0000A6A12315BEF2401FFE43EFEE43DFDE4B6
:1043C0003CFC900A6A1231E87B807A5179017800CE
:1043D000900A6A12315B1230179009EBEEF0A3EFEE
:1043E000F0C374389FFF74049EFE7C047D388053B4
:1043F0007F807E337DE17C01900A66123177C312A3
:1044000030F45019900A6612315BEF2401FFE43E4C
:10441000FEE43DFDE43CFC900A661231E87B807AC4
:104420005179017800900A6612315B1230179009B9
:10443000EBEEF0A3EFF0C3746D9FFF74019EFE7C62
:10444000017D6D122E19EF75F064A4547FFF900A60
:1044500099E054804FF0900A64E07002A3E060039A
:104460000244EB900A5CE020E6030244EB7F747E9A
:10447000C27D037C00900A72123177C31230F4506F
:1044800019900A7212315BEF2401FFE43EFEE43D15
:10449000FDE43CFC900A721231E8900A7212315B22
:1044A000E4122B837B927A917933783D122A04129D
:1044B0002BC19009EBEEF0A3EFF0E4FCFD7B307A2A
:1044C0002AF9F8C31230F4500A9009EB742AF0A3C9
:1044D0007430F09009EBE0FEA3E0FFC374309FFF5F
:1044E000742A9EFE7C2A7D3002457F900A64E0702B
:1044F00004A3E064016003024592900A5CE020E6B8
:10450000030245927FC57E407D017C00900A6E12B9
:104510003177C31230F45019900A6E12315BEF24D8
:1045200001FFE43EFEE43DFDE43CFC900A6E1231E6
:10453000E89009EBE0FEA3E0FFE4FCFD7B107A0EBF
:10454000F9F8C31230F4500A9009EB740EF0A3741A
:1045500010F0900A6E12315BE4122B837B927A91F9
:104560007933783D122A04122BC19009EBEEF0A3A7
:10457000EFF0C374109FFF740E9EFE7C0E7D101230
:104580002E19EF75F064A4547FFF900A99E05480CF
:104590004FF022410B2E00480B4B603399909090C6
:1045A000D5FA602808C10000076C00C80078000038
:1045B000096000C8007800000B5400C800780000B3
:1045C0000D4800C804B000FFFFFFFFFFFFFF602899
:1045D00008E900000D4800C8007800000B5400C82E
:1045E00000780000096000C800780000076C00C86F
:1045F00004B000FFFFFFFFFFFFFF6038091100005C
:104600000F9F017C026C00000F9F017C026C000078
:104610000F9F017C026C00000F9F017C026C000068
:104620000F9F017C026C00000F9F017C026C00FF59
:10463000FFFFFFFFFFFF6038094900000D48017CC4
:10464000026C00000D48017C026C00000D48017CEA
:10465000026C00000D48017C026C00000D48017CDA
:10466000026C00000D48017C026C00FFFFFFFFFFA1
:10467000FFFF50098100000CE400C8026C00FFFF3E
:10468000FFFFFFFFFF58099100000C1C05DC000034
:1046900000000C4E01F4000000FFFFFFFFFFFFFFD2
:1046A0005009A900000CE4017C026C00FFFFFFFF31
:1046B000FFFFFF5809B9000008FC017C026C0000F4
:1046C00006A4017C026C00FFFFFFFFFFFFFF5809FB
:1046D000D1000006A4017C0064000008FC017C00FD
:1046E0006400FFFFFFFFFFFFFF4208B40000420825
:1046F000B600004208B800004404B0EDB88320586A
:104700000AD8E100E20FE326E437E502E600E7F924
:10471000E8F9E9F9EA05EB01EC03580AF0E100E2F7
:104720000FE326E437E502E600E7F9E8F9E9F9EAFC
:1047300005EB01EC03410B7300410B7400410B7559
:1047400000410B7200410021004100A7004100031D
:1047500000410AA800C10A440ACDAA5555AA440A34
:10476000D400000000440AC900000000410B6F00A3
:10477000420B700000420B6A0000410B6C05420BBB
:104780006D0000410B2D00410B6700009009EB12FA
:104790003251900004E01460601470030248452414
:1047A000FE70030248FE2404600302494B7BFF7A3B
:1047B0007479C69009F21232517A7479D59009F55C
:1047C0001232519009F81231F4000000647A7079C5
:1047D000309009FC1232517A747906125DB990005A
:1047E00021EFF06402600302494B9009F01231F4AA
:1047F000000013887F010248FB7BFF7A7479A49044
:1048000009F21232517A7479A79009F51232519057
:1048100009F81231F4000000647A7079309009FCD4
:104820001232517A7479DF125DB9900021EFF06491
:1048300002600302494B9009F01231F40000138822
:104840007F020248FB9000051231F4000000009046
:1048500009EB123231122D386403701890000312E4
:104860002EC545F0700E12280E9009EB12323174ED
:1048700001122DD39009EB123231122D38640F70D2
:104880000A04122DD390001C7403F09009EB12322D
:104890003112383890001CEFF0640170389000A796
:1048A000E0701012494C9009EB1232317404122D51
:1048B000D3801F9009EB123231740F122DD3E49084
:1048C00003AFF09009F01231F400002EE07F0412E3
:1048D00070BF02280E90001CE0640370129003AFBA
:1048E000F09009F01231F400002EE07F04800C906B
:1048F00009F01231F4000013887F020270BFE490C7
:1049000009EEF09009EEE0C3940A7480948050326E
:104910007BFF7A7479EF1270309000051231F40049
:10492000000000E47FC8FEFDFC900005123177C353
:104930001230F4500543CF1080E99009EEE004F006
:1049400080C1E4900004F0FF1270DF229009EF7440
:1049500003F0E4FF126BD99009F01231E89009F0EE
:1049600012315BE4FFFEFDEC54F0FCE4FBFAF97855
:1049700090C31230F45003024A249009F012315BC4
:10498000E4FFFEFDEC540FFCE47809C31230F45050
:1049900003024A249009F012315BE4FFFEED54F06B
:1049A000FDE4FC7990F8C31230F440789009F012DD
:1049B000315BE4FFFEED540FFDE4FC7909F8C3120E
:1049C00030F440609009F012315BE4FFEE54F0FEE9
:1049D000E4FDFC7A90F9F8C31230F440479009F0F6
:1049E00012315BE4FFEE540FFEE4FDFC7A09F8C3DC
:1049F0001230F4402F9009F012315BEF54F0FFE4D5
:104A0000FEFDFC7B90FAF8C31230F440179009F0D9
:104A100012315BEF540FFFE4FEFDFC7B09F8C3127B
:104A200030F4500A9009F01231F4000000007F01C8
:104A3000126BD99009F41231E812715B12713D903A
:104A40000ACDE0FF900AB9E06F702C900ACEE0FF2B
:104A5000900ABAE0B50720900ACFE0FF900ABBE0C9
:104A6000B50714900AD0E0FF900ABCE0B5070890A3
:104A700009EF7401F080069009EF7403F09009EFDC
:104A8000E064017015A312315B9009F4123177D301
:104A90001230F440059009EF803F900ACDE0FF907E
:104AA0000AA9E06F702B900ACEE0FF900AAAE0B549
:104AB000071F900ACFE0FF900AABE0B50713900AFA
:104AC000D0E0FF900AACE0B50707E49009EFF08072
:104AD0000B9009EFE0640170037402F09009EFE0BD
:104AE000FD7C0070037F0122ED64024C7012125DA8
:104AF00014EF60037F0122125D14EF60037F012237
:104B00007F0022E0900B27FF75F002123225E0FCB7
:104B1000A3E0FDEF900B1175F002023225F582E45F
:104B2000340BF583E4F0742B2FF582E4340BF5831A
:104B3000E4F0900B19EF75F0020232259009ECE0D9
:104B400075F002900B19123225E0FCA3E0C39FEE32
:104B50006480F8EC648098229EFEC39009EEE09F8A
:104B6000EE6480F89009EDE06480982274152FF5CA
:104B700082E4340BF583229009ECE0FF75F002909B
:104B80000B09023225F583E4F0FFFEFDFCAB15AA0C
:104B900014A913A812C30230F49009EDE0FD900BA4
:104BA0002775F0020232259009F0E0FFC3951A2222
:104BB000F583E004F0740D2FF582E4340B229009A4
:104BC000ECE02417F582E4340BF583229009ECE045
:104BD000242BF582E4340BF583229009EFE0C39493
:104BE0000374809480227D0A122E19AD037C00127A
:104BF0002E079009F5E0FD900B09229009ECE0FFEB
:104C0000241DF582E4340B22E0FCA3E0FD75F002E4
:104C1000EF900B27123225ECF0A3EDF022E51555AD
:104C200019FFE5145518FEE5135517FDE512551645
:104C3000229009F0E004F0227E00900B63E0FCA3D8
:104C4000E0FD122E078EE78FE622E0FEA3E0C39D73
:104C5000FFEE9C22900B26E0FF3395E0FE22A4FF9E
:104C6000E0C39FE5F06480F8748098229009EF74A7
:104C700001F0229009ECE0FF240DF582E4340B22D0
:104C8000900B26E0FB3395E0FAFEEB22E0FF900963
:104C9000F1E0FEEFC39E229FEE6480F8EA64809804
:104CA000229009EBE0FF900B61E0229009EB1232B9
:104CB00051E49009EEF0A3F09009EB12323190002C
:104CC00001122EC545F070239009FF1231F4000047
:104CD000FC007E92126A95900AC91231F40000001D
:104CE00000900AD41231F4000000009009EB123257
:104CF00031900003122EC5FF9009EEE5F0F0A3EF0E
:104D0000F0900003122EC5FDACF0900001122EC5EC
:104D1000FFAEF0122E07C3EE94285003024E2A90E5
:104D200009EB123231900003122EC5FDACF0900059
:104D300001122EC5FFAEF0122E07E4FCFDFB7A92A5
:104D4000F9F8D31230DE5003024E2A9009EB1232EA
:104D500031900003122EC5FDACF0900001122EC55B
:104D6000FFAEF0122E07E4FCFDC006C0079009EB71
:104D7000123231900003122EC5AEF0FBE4C39BFB50
:104D800074929EFAE49400F9E49400F8D007D006F7
:104D9000C31230DE700B9009EE74FF75F0F0122E26
:104DA0006E9009EB123231900003122EC5FDACF06B
:104DB000900001122EC5FFAEF0122E07E42FFFEE79
:104DC00034D8FE9000051232C99009EEE0FDA3E050
:104DD0009009F5CDF0A3EDF012658FEF60459009D5
:104DE000EB1232319000051232C99009EEE0FEA3B9
:104DF000E0FFE4FCFD900A0B1231E8900AD4126245
:104E0000BC900AD41231E8900AC91231779009EEA9
:104E1000E0FEA3E0FFE4FCFD122FCE900AC91231A0
:104E2000E88007E49009EEF0A3F09009EEE0FEA31D
:104E3000E0FF2212281612280012289E7B017A0019
:104E400079A89009EE1232517BFF7A7179B4126A17
:104E500053E4FF12732A126F93125AB412612B1289
:104E600073B243CF10123ED77B017A0A79A0124762
:104E70008C900AA3E07002A3E0602C1272057B0103
:104E80007A0A79A0124CAB9009E9EEF0A3EFF04E4C
:104E9000900AA060057403F08003740FF0E4900A98
:104EA000A3F0A3F0127273900AA0E06404701A12C7
:104EB00072051258F2EF700B127273900AA0740F01
:104EC000F08006127273122836900AA0E0640F7008
:104ED0001A7B017A0079A89009EE1232517BFF7A91
:104EE0007179B4126A53E4FF12732A900B23E030F5
:104EF000E771547FF01251E3900B5B1231E8E4FF4D
:104F0000FEFDFC900B5B123177D31230F4404A90D7
:104F10000A58E054FBF0900B5B12315BEF5402FF38
:104F2000E4FEFDFCEF6007900A58E04401F0900BAE
:104F30005B12315B7808123105900B5B1231E890FF
:104F40000B5B12315BEF5440FFE4FEFDFCEF6010A1
:104F5000900A58E04402F08007900A58E04404F0B8
:104F600012285E126E20E5B720E50B900B5FE0641F
:104F70005A6003024E62900B5FE054A5F01269285C
:104F8000900A5AE04402F0024E629009EBEFF09072
:104F90000B67124BDD403EE4F0900B2DE0702B9040
:104FA00009ECF09009ECE0C3951A501EE0FF124B9B
:104FB0009EE0FCA3E0FD75F002EF124B7FECF0A346
:104FC000EDF09009ECE004F080D9126D03C209E421
:104FD000900B2DF022900B61E004F0124CA1B5076C
:104FE00008127318E4900B62F0124CA1D39F500387
:104FF0000250BBE49009ECF09009ECE0C3951A5024
:105000007A124B03124C4AAD07FC900B2DE0702E28
:10501000124C807802C333CE33CED8F9FFD3ED12D1
:105020004B4E4046E49BFFE49AFEEF7802C333CE3A
:1050300033CED8F9FFC3ED124B4E502E803D124CAB
:10504000807803C333CE33CED8F9FFD3ED124B4E65
:105050004018E49BFFE49AFEEF7803C333CE33CECF
:10506000D8F9FFC3ED124B4E40119009ECE0FF124E
:1050700058029009ECE004F0024FF89009ECE0B51A
:105080001A06900B62E004F09009EBE0FD75F00861
:10509000900B61124C5E4023E4F0C208900B67E075
:1050A00004F0ED75F004900B62124C5E400DE4903C
:1050B0000B67F012711E126D03C20922900A5AE0AA
:1050C00030E6030251E2900A58E030E415900A5AA3
:1050D000E020E20EE4900B6CF0900A5AE04404F0F9
:1050E000C2DB900B6CE01233525102005117015198
:1050F0003B02515303516A0451920551B606000018
:1051000051E2D2C2900B6C7401F0900A5BE04480D3
:10511000F0A3E04440F022900B6DE475F001122EF4
:105120006ED3900B6EE09409900B6DE094005003E9
:105130000251E2E4F0A3F0D2C08074900A58E0304B
:10514000E4030251E2900B6CE004F0900A5BE0543F
:105150007FF022C2C2E4900B6DF0A3F0900B6CE0E4
:1051600004F0900A5AE054FBF022900B6DE475F0C5
:1051700001122E6ED3900B6EE09409900B6DE094AB
:1051800000405FE4F0A3F0C2C0900A5CE054BFF0BE
:10519000801D900B6DE475F001122E6ED3900B6E96
:1051A000E09470900B6DE094174037E4F0A3F0901A
:1051B0000B6CE004F022D3900B6EE094B0900B6D7A
:1051C000E094044010E4F0A3F0900B6C7405F0C27E
:1051D000DBC2C08004D2DBD2C0900A58E030E402C7
:1051E000C2DB22E4F509F511F510F50FF50E1228D2
:1051F0006650030252F6126EB78F0D8E0C8D0B8C1B
:105200000AE4F508E508C3951A504CAF0DAE0CAD95
:105210000BAC0A78011231058F0D8E0C8D0B8C0AA8
:1052200030D730E47F01FEFDFC740F2508F582E4E1
:10523000340BF583E0F9F8123118E5114FFFE51052
:105240004EFEE50F4DFDE50E4C8F118E108D0FF5C6
:105250000E0509050880ADAF097E00C3EF94027406
:105260008094804018D208EF9403748094804005A5
:1052700012286E80081273EFEF6002C2082008281F
:10528000E4FFFEFDFCAB11AA10A90FA80EC312305B
:10529000F4600C900B24E475F001122E6E801CE477
:1052A000900B24F0A3F08013900B21E475F0011211
:1052B0002E6EE4F511F510F50FF50E127388D390EC
:1052C0000B25E09F900B24E09E400A12286EE4908C
:1052D0000B24F0A3F0D3900B22E0942C900B21E050
:1052E0009401401D12286E900B2D7401F0E4900B78
:1052F00021F0A3F0800B90750EE4740193FF124F20
:105300008AAF11AE10AD0FAC0E22900A2D1231E80B
:10531000900A32E5F4F0A2AFE433A3F0AFDFA3E4E8
:10532000F0A3EFF0C2AFE4FFFE7D01FC900A2DE098
:10533000F8A3E0F9A3E0FAA3E0FBC31230F440784D
:105340007F007E807D017C00900A2DE0F8A3A3A35E
:10535000E01230F4501DE5DF54CF4420F5DF900A11
:105360002DE0FCA3E0FDA3E0FEA3E02400FFEE346B
:10537000808034E4FFFE7D02FC900A2DE0F8A3E07B
:10538000F9A3E0FAA3E0FBC31230F45033E5DF5495
:10539000CF4430F5DF900A2DE0FCA3E0FDA3E0FE52
:1053A000A3E02400FFE43EFEED34FFFDEC34FFFCFF
:1053B000900A2D1231E88008E5DF54CF4410F5DF64
:1053C000E4F5F4900A31E0F5F5900A2DE0FCA3E055
:1053D000FDA3E0FEA3E0FF78081231058FF3900AE9
:1053E0002DA3A3A3E0F5F275F1F075F61043F602D4
:1053F0000000000080050000000000900A32E0F587
:10540000F4900A34A3E0F5DF900A33E024FF92AF72
:1054100022900A071231F400000000900A0C1231A9
:10542000F400000000E4FF7E01FDFC900A0C123144
:1054300077C31230F44003025514900A071231F476
:1054400000000000900A0B7401F0900A0BE070035A
:105450000254D6900A0712315BEF5401FFE4FEFDBF
:10546000FCFBFAF9F8C31230F4900A07601F1231FE
:105470005B7801123105900A071231E8900A071291
:10548000315B9004B01231771230B6800812315B74
:105490007801123105900A071231E8900A0BE0FFFB
:1054A000E4FCFDFEA31231771230A9E4FBFAF9F80F
:1054B000C31230F46015900A0712315B9004B012E9
:1054C00031771230B6900A071231E8900A0BE0FFEC
:1054D00025E0F002544A900A0712315B900A0C1240
:1054E00031779004B475F004EB123225EA25E025FB
:1054F000E02583F5831231E8900A0C12315BEF242A
:1055000001FFE43EFEE43DFDE43CFC900A0C123158
:10551000E802542522900A0D1231E8900A11E5F4B0
:10552000F0A2AFE433A3F0AFDFA3E4F0A3EFF0C247
:10553000AFE4FFFE7D01FC900A0DE0F8A3E0F9A3C3
:10554000E0FAA3E0FBC31230F440787F007E807D58
:10555000017C00900A0DE0F8A3A3A3E01230F45000
:105560001DE5DF54CF4420F5DF900A0DE0FCA3E0F9
:10557000FDA3E0FEA3E02400FFEE34808034E4FFCE
:10558000FE7D02FC900A0DE0F8A3E0F9A3E0FAA387
:10559000E0FBC31230F45033E5DF54CF4430F5DF85
:1055A000900A0DE0FCA3E0FDA3E0FEA3E02400FFD1
:1055B000E43EFEED34FFFDEC34FFFC900A0D1231A9
:1055C000E88008E5DF54CF4410F5DFE4F5F4900AF5
:1055D0000DE0FCA3E0FDA3E0FEA3E0FF780812319C
:1055E000058FF3900A0DA3A3A3E0F5F275F1F07512
:1055F000F62043F6020000000080050000000000D5
:10560000900A11E0F5F4900A13A3E0F5DF900A1276
:10561000E024FF92AF22C0E0C0F0C083C082C0D0BF
:1056200075D000C000C001C002C003C004C005C0E6
:1056300006C0077F007E831273D7126EE6900A8A37
:10564000E475F001122E6E900A8CE004F0A3E004E1
:10565000F0A3E004F0A3E004F0A3E004F0E075F0B0
:105660000384E5F0700C900A61E04420F0900A9009
:10567000E4F0900A8FE075F00584E5F0700C900A74
:1056800061E04410F0900A8FE4F0900A8EE075F02B
:105690001484E5F0700C900A61E04402F0900A8EE8
:1056A000E4F0900A8DE075F03284E5F0700C900A19
:1056B00061E04404F0900A8DE4F0900A8AE0FEA3D1
:1056C000E0FF7C037DE8122E19ED4C700E900A610C
:1056D000E04408F0900A8AE4F0A3F0900A8CE075A8
:1056E000F06484E5F0700C900A61E04401F0900AE7
:1056F0008CE4F0126A0CD007D006D005D004D00399
:10570000D002D001D000D0D0D082D083D0F0D0E071
:1057100032C0E0C0F0C083C082C0D075D000C000ED
:10572000C001C002C003C004C005C006C00753B713
:10573000BFE5B720E5030257E7C2AFE4FB7D04FFF6
:105740001259DDE4FB7D10FF1259DDE4FB7D087F7B
:10575000041259DDE4FB7D047F041259DDE4FB7D76
:10576000027F041259DDE4FB7D807F031259DDE4E2
:10577000FB7D207F031259DDE4FB7D107F0312596E
:10578000DDE4FB7D087F031259DDE4FB7D047F032C
:105790001259DDE4FB7D027F031259DDE4FB7D013C
:1057A0007F011259DDE4FB7D047F011259DDE4FB2A
:1057B0007D107F011259DDE4FB7D207F021259DD4F
:1057C000E4FB7D407F021259DDE4FB7D807F021205
:1057D00059DDE4FB7D01FF1259DDE4FB7D02FF1280
:1057E00059DD126928D2AFD007D006D005D004D039
:1057F00003D002D001D000D0D0D082D083D0F0D05E
:10580000E0329009EDEFF0F9124B03124C4A900987
:10581000EEF0A3EFF0AF01126F13AD07AC069009E5
:10582000EEE0FEA3E0FFD39DEC6480F8EE64809888
:105830005014C3E49DFBE49CFAC3EF9BEA6480F838
:10584000EE648098500E9009EDE0FF124B14124C5C
:10585000080258E6ECA2E713FEED13FF9009EEE014
:10586000FAA3E0FBD3124C975016ECA2E713FEED1F
:1058700013FFC3E49FFFE49EFEC3EB124C9750233B
:10588000124B99E0FAA3E0FBEAC313FEEB13FFC34C
:10589000EB9FFBEA9EFAED124B14E0C313FEA3E06C
:1058A000138032124B99E0FAA3E0FBAE027803CEEC
:1058B000C313CE13D8F9FFC3EB9FFBEA9EFA75F032
:1058C00002ED900B11123225E0FEA3E07803CEC367
:1058D00013CE13D8F92BFFEA3EFE9009EDE0124BF0
:1058E0009EEEF0A3EFF09009ED124B03ECF0A3ED68
:1058F000F0229009FB1231F4000000009009FF1221
:1059000031F400000000900AC912315B9009FF12C7
:105910003177C31230F4505543CF109009FF123144
:105920005BE42FFFEE3492FEE43DFDE43CFC127399
:10593000CF900A03EFF07B017A0A7903900A0B12E9
:1059400031F4000000019009FB1262BC9009FB12C7
:1059500031E89009FF12315BEF2401FFE43EFEE4E1
:105960003DFDE43CFC9009FF1231E88099900AD497
:1059700012315B9009FB123177C31230F4705B90E7
:105980000AC912315B9009EF1231E8900AD4123142
:105990005B9009F31231E8900ACDE09009EBF090AA
:1059A0000ACEE09009ECF0900ACFE09009EDF0907B
:1059B0000AD0E09009EEF09009F71231F4A55A0FE1
:1059C000F078047C0A7D017B017A0979EB7E007F07
:1059D00010122D1212709E7F01227F0022EF1460A0
:1059E0003A146058146073147003025A78147003E8
:1059F000025A9624056003025AB3EB146011146036
:105A00001624026003025AB3EDF4529A529B22ED1F
:105A1000F4529AED429B22ED429A22EB146011144B
:105A2000601624026003025AB3EDF452915292229E
:105A3000EDF45291ED429222ED429122EB14600E70
:105A40001460132402706CEDF452A152A222EDF402
:105A500052A1ED42A222ED42A122EB14600E14608D
:105A6000132402704EEDF452B152B222EDF452B151
:105A7000ED42B222ED42B122EB14600E1460132409
:105A8000027030EDF452C152C222EDF452C1ED4227
:105A9000C222ED42C122EB14600E14601324027086
:105AA00012EDF452D952DA22EDF452D9ED42DA2253
:105AB000ED42D922900A9B1232319009F37414F00E
:105AC000A37402F07F007E007D007C00126238EF3C
:105AD000701B900A9B1232319009F37414F0A37476
:105AE00002F07F007E007D007C00126238900A9BED
:105AF000123231900002122EC5C394FFE5F094FFDC
:105B0000500C900A98E054FDF0E4FFFE8057900A94
:105B10009B1232319009F37414F0A37402F07F00E9
:105B2000FE7D007C00126238EF701A900A9B1232E0
:105B3000319009F37414F0A37402F07F00FE7D002D
:105B40007C00126238900A9B123231900002122EB1
:105B5000C5C394FFE5F094FF900A98E0500A440210
:105B6000F07F007E0202666254FDF07F007E02122A
:105B700066627E007F147D00900A9B1232311233E0
:105B80007E900A5AE04440F0227B027D04E4FF123A
:105B900059DD7B027D10E4FF1259DD7B017D20E49D
:105BA000FF1259DD7B027D087F051259DD7B027DE6
:105BB000087F041259DD7B027D047F041259DD7BCE
:105BC000027D027F041259DD7B027D807F03125922
:105BD000DD7B027D207F031259DD7B027D107F0378
:105BE0001259DD7B027D087F031259DD7B027D04A3
:105BF0007F031259DD7B027D027F031259DD7B0298
:105C00007D017F011259DD7B027D047F011259DD88
:105C10007B027D107F011259DD7B027D207F021205
:105C200059DD7B027D407F021259DD7B027D807F42
:105C3000021259DD7B027D01E4FF1259DD7B027DFA
:105C400002E4FF1259DDD280C281D294C2A5D2A64D
:105C5000C2A7D284C282229009EB1231E8E598549F
:105C60002FFF9009F3E0FE4FFF9009F5E04FF59804
:105C7000EE702AFFFEFDFC9009EF123177C312305F
:105C8000F470045398DF22E47F01FEFDFC9009EFDD
:105C9000123177C31230F4707A43982022E5C85449
:105CA000CFFF9009F4E0FE4FF5C8EE702E9009EF9B
:105CB0001231779009EB12315B123017E4FB7A0155
:105CC000F9F81230178F8D9009EF1231779009EBA8
:105CD00012315B1230178F8BC28E229009F4E06470
:105CE00030703075CE029009EF1231779009EB12C7
:105CF000315B123017E4FB7A01F9F81230178FCBC1
:105D00009009EF1231779009EB12315B1230178F47
:105D1000CAD2CA22E49009F8F0A3F0A3F012715B92
:105D20009009FF1231F4000092007E28126A95E477
:105D30009009F8F0A3F09009F8E0FEA3E0FFE4FC7E
:105D4000FD900ABD123177D31230F4404B43CF108F
:105D50009009F8E0FEA3E0FFE42FFFEE3492FEE4AA
:105D600033FDE433FC1273CF9009FAEFF0FB900996
:105D7000F9E02400FF9009F8E03428FEE4FCFD90EF
:105D80000A23EBF01272ACEF7002FF229009F8E4E4
:105D900075F001122E6E809E900A18E4F0A3741024
:105DA000F07B017A0A79B9A31232517FF07E917D9E
:105DB000007C001265FB7F01229001A8E06027E0D3
:105DC00064036022C003C002C0019009FC1232319A
:105DD00089828A83D001D002D00312337CE49001FF
:105DE000A8F0A3F0A3F09001A8E064037043900131
:105DF000ADF0A3F09001A804F09009F212323190B6
:105E00000A021232517B017A0179AF126B59EF60AD
:105E1000037F02229009F5123231900A02123251A8
:105E20007B017A0179AF126B59EF7F0060287F0305
:105E3000229001A9E0FEA3E0FFE4FCFD9009F81226
:105E40003177C31230F4500CE49001A9F0A3F09024
:105E500001A804F07F0022900A58E030E20CE490A0
:105E60000B75F0900A58E054FEF0900A58E030E0CC
:105E700008900B75E004F08014900B75E0D394C883
:105E800074809480506D900A58E030E066900B75F5
:105E9000E0FD7C00643C702B900A5DE04402F090D1
:105EA0000A5BE054FEF0E054FDF0E054FBF0E054F7
:105EB000F7F0E04410F0E04420F0E04440F0E0442B
:105EC00080F022ED64644C702A900A5DE04404F096
:105ED000900A5BE04401F0E04402F0E04404F0E0AA
:105EE0004408F0E054EFF0E054DFF0E054BFF0E09D
:105EF000547FF022900A9B123231900A3B7414F0C6
:105F0000E4FFFE900A36EEF0A3EFF0900A3D123265
:105F100051E4900A3CF0900A3CE0C39414748094DD
:105F2000805063900A3CE0FF900A37E02FFF900A10
:105F300036E03400FE900A3D123231900A3CE0F522
:105F400082758300122D51FD12299A900A3CE0FFC0
:105F5000900A37E02FFF900A36E03400FEE4FCFDA3
:105F6000900A447402F0126E87900A3D123231900A
:105F70000A3CE0F582758300122D51B507A5900A01
:105F80003CE004F080907F0122900A5BE07005C243
:105F9000B3C2B522D2B7D2B4D2B2D2B1900A5BE0CA
:105FA00020E40CE020E508E020E604E030E728D219
:105FB000B3900A5BE030E402C2B7900A5BE030E5E0
:105FC00002C2B4900A5BE030E602C2B2900A5BE023
:105FD00030E706C2B18002C2B3900A5BE020E00C59
:105FE000E020E108E020E204E030E327D2B5900AA7
:105FF0005BE030E002C2B7900A5BE030E102C2B47D
:10600000900A5BE030E202C2B2900A5BE030E30546
:10601000C2B122C2B522C2AF75FEC1AFFFD2AFEF8F
:106020005430FD7C0070047920801CED64104C70AD
:106030000479108012ED64204C700479088008ED1A
:1060400064304C70027904E924F8601824F8602068
:1060500024F06028241C70309009ED7401F0A374C2
:10606000F4F080269009ED7403F0A374E8F0801A30
:106070009009ED7407F0A374D0F0800E9009ED74D0
:106080000FF0A374A0F08002E4F99009EDE0700233
:10609000A3E0600C9009ED74FFF5F0122E6E80EA1B
:1060A00022900A58E030E263900B74E0FFD3940032
:1060B000748094804049EF940A748094805040909A
:1060C0000A5CE030E409E030E505E054DF802B9025
:1060D0000A5CE030E509E020E405E054DF800E9042
:1060E0000A5CE030E40EE020E50AE04420F0E04401
:1060F00010F0800B900A5CE04420F0E054EFF0E4F4
:10610000900B74F0900A58E054FDF0900A58E0307B
:10611000E107900B74E004F022900B74E0D394C874
:10612000748094805004900A58E02275FE8543FFE5
:106130002053DB7FD2AFC209E4900B68F0900B23B1
:10614000F0126976E4FF126E55EF2401FDE433FC92
:106150007E0F7FA0122E19900B63EEF0A3EFF0E4F8
:10616000FF127306124C387F02126E55EFC454F0C2
:10617000FEC006E4FF126E55D0E02FF5E17F03125A
:106180006E55E5E254804FF5E27F04126E55EF60E4
:1061900008E5E254804480F5E27F01126E558FE3FA
:1061A000126D0343A910900B0FE04480F5E81263D1
:1061B000BF02711E9009F7EEF0A3EFF0A312325167
:1061C0009009FC74FF1231B5EC4D4E4F606190099F
:1061D000F9E475F00112323A122D38FE9009F7E019
:1061E0006EF0A3E0F0E4900A00F0900A00E0C3949F
:1061F000087480948050C99009F7E0FEA3E0FFEE98
:1062000030E717EF25E0FFEE336410FEEF6421FF67
:106210009009F7EEF0A3EFF0800D9009F8E025E08B
:10622000F09009F7E033F0900A00E004F080BB90B2
:1062300009F7E0FEA3E0FF229009EC1231E8900993
:10624000F01232519009F7E5F4F0A2AFE43390096F
:10625000F6F0E06002C2AF9009F4E0F5F4E4A3F0D8
:106260009009EC12315B8F828E83E493FF9009F0EA
:106270001232319009F5E0F582758300EF122DE5B9
:106280009009EC12315BEF2401FFE43EFEE43DFD9A
:10629000E43CFC9009EC1231E89009F3E0FF90092E
:1062A000F5E004F0C39F40B89009F7E0F5F49009D9
:1062B000F6E06002D2AF9009F5E0FF2212315B9068
:1062C0000A041231E8900A08123251900A0F123172
:1062D000F400000000900A0B12315B900A0F12319B
:1062E00077C31230F45052900A04123177C000C0C4
:1062F00001C002C003900A0F12315B900A081232EB
:10630000318F828E83122D51FFE4FCFDFED003D02D
:1063100002D001D000122FCE900A041231E8900A68
:106320000F12315BEF2401FFE43EFEE43DFDE43C4F
:10633000FC900A0F1231E8809C900A0402315B90B5
:1063400009F5EFF01273659009F6EFF01263B4905F
:106350000B64E025E0FF900B63E033FE7C00124B02
:10636000E6124B17E0FAA3E0C39FEA9E500990099A
:10637000F6E0603F14802D1263B4900B63E0FEA33F
:10638000E0FF7C007D07122E07124BE6124B36E031
:10639000FAA3E0D39FEA9E401A9009F6E0FF647EDC
:1063A0006011EF04FF741F2DF582E4340BF583EFC9
:1063B000F0D209229009F5E0FF127306EFFB22905C
:1063C00009EB7420F0127055E49009ECF09009ECA0
:1063D000E0FFC3951A5021E0FE124B14E0FCA3E04D
:1063E000FD75F002EE124B7FECF0A3EDF012633F6F
:1063F0009009ECE004F080D59009EBE0FF14F0EF99
:1064000070C31273181273E79009EBEFF012705516
:10641000E49009ECF09009ECE0FFC3951A500B12E0
:1064200058029009ECE004F080EB9009EBE0FF14D7
:10643000F0EF70D9229009FB123251900A0212310A
:10644000E81254119009FE74FF1231B5EC4D4E4F15
:106450006052900A0212315B900A06EFF0900A0235
:1064600012315B7808123105900A021231E8900A65
:106470000212315B9009FB123231122D38FB900A67
:1064800006E06B75F0049004B412322512317712D5
:1064900030B6900A021231E89009FCE475F001125E
:1064A0002E6E80A0900A0202315B900A241231E81D
:1064B000900A2BE5F4F0A2AFE433A3F0E06002C24F
:1064C000AFE4900A2AF0900A29E07013900A24128F
:1064D000315B900A28E0900A31F012530A8016903E
:1064E0000A29E06402700E900A2412315B900A2897
:1064F000E0FD12299A900A2412315B900A29E0905B
:106500000A44F0126E87900A2BE0F5F4A3E06002D3
:10651000D2AF900A28E06F7F0160027F0022900ACC
:1065200058E030E609E054BFF07F02126779900A24
:1065300061E030E509E054DFF07F13126779900ADB
:1065400061E030E409E054EFF07F14126779900ABB
:1065500061E030E109E054FDF07F15126779900A9F
:1065600061E030E209E054FBF07F16126779900A8F
:1065700061E030E009E054FEF07F17126779900A7D
:1065800061E030E309E054F7F07F18126779229058
:1065900009F0EEF0A3EFF0A31232519009F5E0FEFE
:1065A000A3E0FF9009F1E02FFF9009F0E03EFEE448
:1065B000FCFD7BF07A69F9F8C31230DE50037F00EE
:1065C000229009F0E0FEA3E0FFE42FFFEE3492FEFC
:1065D000E433FDE433FC9009F5E0FBA3E0900A18F6
:1065E000CBF0A3EBF09009F2123231900A1A12327A
:1065F000511265FBEF7F017001FF22900A141231E6
:10660000E8E4900A1DF0A3F0900A18E0FCA3E0FD76
:10661000900A1DE0FEA3E0FFC39DEC6480F8EE64E9
:106620008098503BEE3395E0FDFC900A14123177D0
:10663000122FCE900A1A123231900A1DE0F8A3E010
:10664000F5828883122D51900A23F01272ACEF70FC
:1066500002FF22900A1DE475F001122E6E80A97FC0
:106660000122AD07AC06900A0DE5F4F0A2AFE433C9
:10667000A3F0AFDFA3E4F0A3EFF0C2AF75F402EC38
:10668000F5F3AF058FF2AFF3EFFEADF27C00E42D32
:10669000EC3EC39418501475F1F075F62043F602E1
:1066A0000000000080050000000000900A0DE0F5E9
:1066B000F4900A0FA3E0F5DF900A0EE024FF92AFFA
:1066C000229009FC1231E8E4900A05F0A3F0900A48
:1066D00000E0FCA3E0FD900A05E0FEA3E0FFC39DFF
:1066E000EC6480F8EE6480985033EE3395E0FDFC66
:1066F0009009FC123177122FCE1273CF900A02123A
:106700003231900A05E0FCA3E0F5828C83EF122D74
:10671000E5900A05E475F001122E6E80B122C20BDD
:10672000900B68E0124B14E5E5F0A3E5E4F0900B64
:1067300068E004F0E0C3951A400BE4F0900B23E00E
:106740004480F08002D20B900B68E0FF12730612B7
:106750004C38900B68E0FF127365E5E254804FF50A
:10676000E2900B68E0240FF582E4340BF583E044FB
:1067700080F5E8300B02D2EE22900A56E0C3941462
:10678000748094804002E4F0E4FE900A56E0FDEE4E
:10679000D39D502A74762EF582E4340AF583E0B551
:1067A0000719FB64156014EB6416600FEB64176047
:1067B0000AEB64186005EB641470150E80CC7476D7
:1067C0002DF582E4340AF583EFF0900A56E004F0E8
:1067D00022900019123231900015E0FCA3E0F582FE
:1067E0008C83EF122DE5900015E475F001122E6EEA
:1067F000900017E475F001122E6E900019123231DC
:10680000122D38FF64186005EF64047007E49000EF
:1068100015F0A3F0C3900016E09485900015E09465
:10682000004004E4F0A3F022E4F509F50A750E0235
:10683000750D40F50CF50BF509C3E509941F74803F
:1068400094805037AF0EAE0DAD0CAC0B7801123109
:10685000058F0E8E0D8D0C8C0B30D71B740F250AF7
:10686000F582E4340BF583E509F0050AC3E50A94E3
:1068700002748094805004050980BE850A1A229013
:106880000A57E0FEC3941474809480400FE4F0E053
:106890002476F582E4340AF583E0FF22900A56E07C
:1068A000FDEEC39D400AE4A3F0900A56F07FFF225C
:1068B000900A57E0FE2476F582E4340AF583E0FF7F
:1068C00074762EF582E4340AF58374FFF0900A574B
:1068D000E004F022EF24FE601114602014603324E1
:1068E000047044AF05AD03027234ED7004C2AD8094
:1068F00002D2ADEB7003C2BD22D2BD22ED700553B2
:10690000A9BF800343A940EB700453B9BF2243B928
:106910004022ED700553A97F800343A980EB7004EA
:1069200053B97F2243B98022900A98E020E12A904F
:106930000A9B123231900002E475F001122F3512D9
:106940005EFAEF7030125EF4EF702A125EF4EF70B0
:1069500024900A9B123231800F900A9B12323190A0
:106960000002E4F5F0122FA1900A3B7414F07F00AE
:106970007E02125F0322907504740193900B08F05D
:1069800090751E740193900B26F0126828E4F508A8
:10699000E508C3951A5023E50875F008A42424F5EA
:1069A00082E43475F583E493FF741F2508F582E4CF
:1069B000340BF583EFF0050880D6E4900B24F0A3A8
:1069C000F022EF54F0FC7028ED64017011EF540FC9
:1069D000FFF87401088002C333D8FC42D322EF547D
:1069E0000FFFF87401088002C333D8FCF452D3229D
:1069F000ECC4540FF5CEEF7E1030E0027E20ED6443
:106A0000017004EE42C922EEF452C922900B2EE02E
:106A100004F0E024FE600D14601524FB60042407DC
:106A20007021801C7D017F01126D7843AD402212E0
:106A3000721EAC06AD07E4122B88900A4A0231E8B8
:106A4000022806900B2EE0C3940A748094804002C2
:106A5000E4F0229009EB1232519091F0E493900906
:106A6000F1F0902A001231679009F1E02FF0900ABE
:106A7000A07401F0E4A3F0A3F0A3F0A3F09009EE5A
:106A8000123231900AA51232519009EB1232319034
:106A90000AD10232517F007D007C0080319009FFD5
:106AA00012315B9009FB123177C31230F450274347
:106AB000CF109009FB12315B1271979009FB1231D4
:106AC0005BE42FFFEE3402FEE43DFDE43CFC900964
:106AD000FB1231E880C7229009EBECF0A3EDF0EF58
:106AE00014601514601D1460232403702A9009EBB0
:106AF000E0FEA3E0FF0272D09009EBE0FEA3E0FF0E
:106B00000273579009EBA3E0FF02737D9009EBA39A
:106B1000E0FFAD0312739E22C0E0C0F0C083C082CC
:106B2000C0D075D000C000C001C002C003C004C006
:106B300005C006C0071270FF5398FD5398FED0079A
:106B4000D006D005D004D003D002D001D000D0D0E0
:106B5000D082D083D0F0D0E0329009FF123251E4DD
:106B6000FFFE900A02123231122D3860299009FF7F
:106B70001232310FEFAC0670010E14F5828C8312C5
:106B80002D51FD900A02E475F00112323A122D38AF
:106B90006D60CF7F00227F01229009F7ECF0A3ED1A
:106BA000F0EF54F0701753D2FD9009F7E0FCA3E02A
:106BB000FDEF25E02440F582E4342080149009F7AD
:106BC000E0FCA3E0FDEF540F25E02434F582E4342B
:106BD00020F583ECF0A3EDF022EF900A006016E4BC
:106BE000F0A37404F07B017A0979F8A31232517F83
:106BF000007E948014E4F0A37404F07B017A097998
:106C0000F8A31232517F007E2A7D007C001266C1FB
:106C10009009F802315B20850C900A58E020E305CA
:106C2000E04408F02220851E900A58E030E3170067
:106C3000000000000000000000208505E04410F086
:106C400022900A588007900A58E054EFF0E054F779
:106C5000F0227B017D017F021259DD7B017D027FE5
:106C6000021259DD9009EF1231F40001C2009009BF
:106C7000F37440F0E4A3F0A37410F07F007E487D2D
:106C8000E87C01125C57E4FD7F010272F4E4FD7FB1
:106C90001012283E7D017F027E001272867D017FE8
:106CA000087E001272867D017F407E001272867D12
:106CB000017F807E001272867D017F01126D78D285
:106CC000AEC2BE7F01027372C0E0C0F0C083C0825A
:106CD000C0D075D000C000C001C002C003C004C055
:106CE00005C006C00712671ED007D006D005D00425
:106CF000D003D002D001D000D0D0D082D083D0F049
:106D0000D0E032E4FFEFC3951A501A124B6CE4F056
:106D1000741D2F124B1DE4F0A3F074172F124BC4F7
:106D2000E4F00F80E0E4F515F514F513F512900B7F
:106D30006274FFF0E4900B65F0A3F0C209229001A9
:106D4000ADE0FCA3E024AFF58274013CF583EFF0E5
:106D50009001ADE475F001122E6ED39001AEE09477
:106D6000009001ADE094024004E4F0A3F0EFB40D14
:106D7000069001A87403F022AC07ECC3941F748042
:106D8000948050247E007401A804088005C333CE8B
:106D900033CED8F9FFED700AEFF452ABEEF452ACFB
:106DA0008006EF42ABEE42ACE5AD54E04CF5AD22CF
:106DB0007D9F7C0F7F10126F3F7B01E4FDFC7F0203
:106DC000127299E4FF12725FE4FDFF127349E490BE
:106DD00009EEF0FB7D20FF1272BEE4FBFDFF12689E
:106DE000D47D01E4FF027083900A5AE030E63090CF
:106DF0000B6AE475F001122E6ED2C2D2C0D2C1D29B
:106E0000C3D3900B6BE09484900B6AE09403400F23
:106E1000C2C2C2C0C2C1C2C3900A5AE04440F022FA
:106E200012651E12687FEF24EC601124FE601014BE
:106E300060191460192405701B025F89023C081256
:106E400060A1125E57126C160250BC0271EB124325
:106E500091126DE822EF146012146014146018147B
:106E6000601A2404701E907520800890752180039C
:106E7000907522E493FF22E4FF027365907512740B
:106E80000193FF227F0022900A401231E8ABF4A266
:106E9000AFE433FA6002C2AF900A44E0F5F4900A1E
:106EA0004012315B8F828E83E493FFAE038EF4AE8B
:106EB00002EA6002D2AF22E4900B69F09009EBF095
:106EC0009009EBE0FFC3951A50131258029009EB9A
:106ED000E0FF12341C9009EBE004F080E3AF15AE44
:106EE00014AD13AC122290000512315BEF2401FFA8
:106EF000E43EFEE43DFDE43CFC9000051231E890E8
:106F00000013E475F001122E6E9001A9E475F001F2
:106F1000022E6EAD07ED75F008A42426F582E43448
:106F200075F583E493FEED75F008A42427F582E45B
:106F30003475F583E4937C002400FFEC3EFE22AB25
:106F400007EB540FFA7019ED1D70011CEB54F0FFA4
:106F5000E5D254CF4FF5D2ECF5D5AF05EFF5D422FD
:106F60008ACEECF5CBEDF5CA22EFFB7A0070055323
:106F70008EFE8009EB64014A7003438E01EDFF7EB3
:106F800000640170045389FB22EF64024E700343D6
:106F90008904227E007F057D007B017A0A795812E0
:106FA000337E7E007F147D007B017A0A7962123382
:106FB0007E7B017A0A7962900A9B023251E4900941
:106FC000F7F0A3F0C20A122846200A189009F7E445
:106FD00075F001122E84FEC374D095F074079E5094
:106FE000E843CF1022900A07EFF0E4900A0CF0EF8C
:106FF0007009900A0812315B025515900A07E06487
:10700000027007A312315B1266622290000DEFF04E
:107010009000117403F0A374E8F09000191232513B
:10702000E4900015F0A3F0A3F0A3F090000FF0227D
:107030009009EF1232519009EF123231122D38605F
:10704000139009EFE475F00112323A122D38FF1255
:107050006FBD80E222E4FE900B23E0547FF0D2EE7D
:10706000900B23E05480701112601643CF100EEE87
:10707000C394647480948040E722AF02EFC4540F3D
:10708000FF7D01EF700BED600443D2802253D27F6D
:10709000228FCEED600443C8042253C8FB22900A1D
:1070A00018E4F0A37410F07B017A0A7904A3123279
:1070B000517FF07EFB7D007C001265FB7F012290FA
:1070C0000004EFF0A31231F4000000009009F01268
:1070D000315B9000091231E89001A87401F022AEF2
:1070E000077B017A0079227F0112700BAF06C0077F
:1070F0009009F01231F400000FA0D0070270BF30E9
:1071000099055398FDD20A3098135398FE12284ED1
:10711000900AD112323189828A8312337C22E4FFB1
:10712000EFC3951A5016124B13E0FCA3E0FD900B31
:1071300009124B35ECF0A3EDF00F80E422900A0029
:10714000E4F0A37410F07B017A0A79A9A3123251FA
:107150007FF07E917D007C000266C1900A00E4F021
:10716000A37410F07B017A0A79B9A31232517FF02F
:107170007EFB7D007C000266C17D017F01126F698C
:10718000E4FBFAFD7C837F01126AD7E4FD7F0112E4
:1071900072E27F010273C6900A031231E8900A037B
:1071A00012315B900A081231E8900A0C74F0F0E496
:1071B000FF026FE5900004E024FE600D14600824D7
:1071C0000324FB5002800080030267D1126D3E222F
:1071D000125B891273FF126C52127179126DB01228
:1071E0006C8D1273A812281AD2AF22900A5CE0307C
:1071F000E504D2928002C292900A5CE030E403D2AD
:107200009022C2902275FEC2900A9FE5FFF043FFD4
:107210000C75FEC1900A9EE5FFF075FB8522AFAFAD
:10722000EF75F010A4FFE5AEC4540F7C002FFFEC07
:1072300035F0FE22EF600543A902800353A9FDED5E
:10724000700453B9FD2243B90222126F13EF780381
:10725000C333CE33CED8F9FF7C007D0A022E19EF5E
:10726000FD7C00700453D2FE22ED64014C70034398
:10727000D2012275FEC2900A9FE0F5FF75FEC19013
:107280000A9EE0F5FF22ED7009EFF452ABEEF452E6
:10729000AC22EF42ABEE42AC22AA07126B99AD03CF
:1072A0001269C2EB6401700312707A22900A23E023
:1072B000900A28F0E4A3F0A374F0F00264AAEF703F
:1072C0000EE5D754C04D4BFF9009EEE04FF5D722A5
:1072D0005389FC8F8AEF7805CEC313CE13D8F9F506
:1072E0008C22EF7004C2A98002D2A9ED7003C2B94A
:1072F00022D2B922EF7004C2AC8002D2ACED70038E
:10730000C2BC22D2BC22EF75F008A42423F582E48B
:107310003475F583E493FF22E4FFEFC3951A500917
:10732000124B13124C080F80F122EF3395E04F708F
:10733000047F058002E4FF1270DF2275FEC1EF704A
:107340000453FF7F2243FF8022EF700AED60044365
:10735000D7802253D77F225389FC438901AD078D03
:107360008AEEF58C22741F2FF582E4340BF583E04E
:10737000FF22EF700453AD7F2243AD80225389FC7E
:107380004389028F8A8F8C22907508E493FE7401E2
:1073900093FF2290750CE493FE740193FF224389BE
:1073A000038F8AAF058F8C22E4FF1273DF7F010207
:1073B000733B75B78675B61843A92022900B08E079
:1073C00075F00384FF22EF7003C28C22D28C22E47A
:1073D000900A44F0026E87AD078D8AEEF58C22E5A7
:1073E000CF54F84FF5CF22907506740193FF229089
:1073F0007500740193FF22900B08E0C313FF224332
:10740000C1C043D930226765745F646F776E0D0029
:10741000646F776E206E6F6E650D00726573756CAC
:10742000740D00646F776E20756E6B6E6F776E5F94
:10743000636F6D6D616E640D00646F776E204D49F2
:10744000494F5F6D63755F76657273696F6E5F72CA
:1074500065710D006D63755F76657273696F6E207F
:10746000303030310D00646F776E206765745F7067
:10747000726F7065727469657300646F776E2075E2
:1074800070646174655F66770D006D6F64656C2074
:107490007361736573692E73727365722E73617392
:1074A00030310D006F6B006572726F7200626C6537
:1074B0005F636F6E666967207365742031353620AF
:1074C000303030310D00646F776E207570646174F8
:1074D000655F667700646F776E206E6F6E65007211
:1074E0006573756C7420227265616479220D006D7C
:1074F00063755F626F6F74206661696C0D000000D8
:10750000000100000003000A0BB800C8006400027C
:1075100000000000000500000001FFFFFFFF001851
:10752000034805081F050144034805081A05019191
:0491F000AA5555AA7D
:00000001FF
