:10000000021100300003021003210330000302102C
:100010000B210B30000302101321133000030210D8
:100020001B211B3000030210232123300003021088
:100030002B212B3000030210332133300003021038
:100040003B213B30000302104321433000030210E8
:100050004B214B3000030210532153300003021098
:100060005B215B3000030210632163300003021048
:100070006B216B30000302107321733000030210F8
:100080007B217B30000302108321833000030210A8
:100090008B218B3000030210932193300003021058
:1000A0009B219B3000030210A321A3300003021008
:0300B000AB21ABD6
:10100000D2EE2202102EC284D282220249EBC29476
:10101000D2A522021036D294C2A52202103AC2A64C
:10102000D2A722026F21C280D281220210425388AD
:10103000FD322202103E5388F7323202104A53AD7D
:10104000DF3232021052127F58223202105A12003E
:101050000022320210617520FF2232027A7EA2093C
:10106000223232025ADED2092232320210627F016B
:0A107000223232021069AFC72232AB
:03107B0002106AF6
:031083000277757C
:03108B00021071DF
:03109300021072D6
:10109B00021079900DC1EFF0900DC2ECF0A3EDF0C2
:1010AB00900DC1E0FFEF54F0FF7E00EF4E70225326
:1010BB00D2FD900DC2E0FEA3E0FF900DC1E0FDED6F
:1010CB0025E02440F582E43420F583EEF0A3EFF025
:1010DB0022900DC2E0FEA3E0FF900DC1E0FDED54A8
:1010EB000FFDED25E02434F582E43420F583EEF09A
:0410FB00A3EFF0224D
:1011000078FFE4F6D8FD9000007F007E01E4F0A3B4
:10111000DFFCDEFA75812A021155024189E493A3AE
:10112000F8E493A34003F68001F208DFF48029E499
:1011300093A3F85407240CC8C333C4540F4420C8E5
:10114000834004F456800146F6DFE4800B0102047C
:10115000081020408090485EE47E019360BCA3FFAD
:10116000543F30E509541FFEE493A360010ECF54B1
:10117000C025E060A840B8E493A3FAE493A3F8E4A0
:1011800093A3C8C582C8CAC583CAF0A3C8C582C80C
:10119000CAC583CADFE9DEE780BE900D6FEFF0902D
:1011A0000D70ECF0A3EDF0900D72EAF0A3EBF0906F
:1011B0000D6FE0FFEF121CEA11C80011D40111E01D
:1011C0000211EC03000011FF900D70E0FEA3E0FFA0
:1011D000127CA522900D70E0FEA3E0FF127CD022CD
:1011E000900D70E0FEA3E0FF127FA922900D70E049
:1011F000FEA3E0FF900D72E0FCA3E0FD127F3C2215
:10120000202304140215C5E86480F8E933E833604C
:10121000110460F0ED33EC337009E8FCE9FDEAFEFF
:10122000EBFF220460DED3EB9FEA9EE99DE8C2E774
:101230008CF0C2F795F0400CE8CCF8E9CDF9EACE95
:10124000FAEBCFFB12159085D0F05804700320D52F
:10125000B3E80470075002B2D50215CF92D5EC0462
:1012600060F7E4CCC0E0C398F8603B941860084095
:101270000DD0E0FB0215A7E4FBFAC9FC8028E8309A
:10128000E406E4C9FBE4CAFCE830E305E4C9CACBE0
:10129000FCE854076010F8C3E913F9EA13FAEB13FA
:1012A000FBEC13FCD8F130F52FC3E49CFCEF9BFF63
:1012B000EE9AFEED99FDD0E0FBEF4E4D4C70122200
:1012C000DB030215CCEC2CFCEF33FFEE33FEED33E9
:1012D000FDED30E7EB0215A7EF2BFFEE3AFEED39FF
:1012E000FDD0E0FB50130BBB00030215CFED13FD47
:1012F000EE13FEEF13FFEC13FC0215A7EC4D60118B
:10130000E8497017ED33EC3304600DE4FCFFFEFD9B
:1013100022E933E8330470F80215C5121590580419
:101320006009E4CC248150062850090215CF2840DA
:10133000030215CCC0E0EB4A7044B98006D0E0FB54
:101340000215BBEF4E701CBD8008EBFFEAFEE9FD05
:1013500080EBE98DF0A4FEE5F00213E5E9CDF9EAB2
:10136000FEEBFFEF89F0A4FCE5F0CE89F0A42EFFA0
:10137000E435F0CD89F0A42DFEE435F08067EF4E22
:101380007005BD80D780C3EF8BF0A4ACF0EE8BF07E
:10139000A42CFCE435F0F8EF8AF0A42CE5F038FC3E
:1013A000E433CB8DF0A42CFCE5F03BF8EE8AF0A4FE
:1013B0002CFCE5F038F8E433CF89F0A42CFCE5F000
:1013C00038CF3400CE89F0A42FFFE5F03EFEE433A1
:1013D000C98DF0A42EFEE5F039CD8AF0A42FFFE5EB
:1013E000F03EFEE43DFD33D0E0FB50070BBB000FA9
:1013F0000215CFEC2CFCEF33FFEE33FEED33FD0294
:1014000015A70215CFEC5D046005E85904700302CE
:1014100015C5121590580460F6EC4860F2EC7004A3
:10142000FDFEFF22C860DB2481C85009C39860021A
:1014300050060215CC9850CAF582E9294B4A70052E
:10144000AB820215BB75F0007C1A7880C3EF9BEE6F
:101450009AED99400DC3EF9BFFEE9AFEED99FDE8E2
:1014600042F0DC23ACF0D0E0FFD0E0FED0E0FDABFA
:101470008220E7101BEB60BAEC2CFCEF33FFEE335D
:10148000FEED33FD0215A7E803F830E705C0F0755F
:10149000F000EF2FFFEE33FEED33FD40B830E7C232
:1014A00080AA74F8CC6480CCC86480C8F5820460DB
:1014B0004FC3EB9FF5F0EA9E42F0E99D42F0E89CB5
:1014C00045F0603C501DE5825FFFE582D313CB5BA6
:1014D000CBF42B5582FB50280ABA002409B900200E
:1014E00008801DE5825BFBE582D313CF5FCFF4C399
:1014F000132F5582FF50090EBE00050DBD00010CD3
:10150000C3EB9FF5F0EA9E42F0E99D42F0E89C456E
:10151000F06007CC4820E701B3EC2275F020800E84
:1015200075F010800575F0087D007E007F00339215
:10153000D530D503121A68EC334010EF33FFEE3389
:10154000FEED33FDEC33FCD5F0ED22E5F0247EA278
:10155000D513CC92E7CDCEFF22EDD2E7CD33EC33DD
:1015600092D524814006E4FFFEFDFC22FCE4CFCEB0
:10157000CDCC24E0501174FF80EDC3CC13CCCD133F
:10158000CDCE13CECF13CF0470F030D5DE021A6863
:10159000E9D2E7C933E833F892D5EDD2E7CD33ECA1
:1015A00033FC5002B2D522EC30E7100FBF000C0E16
:1015B000BE00080DBD00040BEB6014A2D5EB13FCBC
:1015C000ED92E7FD2274FFFCFDFEFF22E480F8A20D
:1015D000D574FF13FC7D80E480EFE709F608DFFA9D
:1015E0008046E709F208DFFA803E88828C83E709AB
:1015F000F0A3DFFA8032E309F608DFFA8078E30926
:10160000F208DFFA807088828C83E309F0A3DFFAA6
:10161000806489828A83E0A3F608DFFA8058898291
:101620008A83E0A3F208DFFA804C80D280FA80C679
:1016300080D4806980F28033801080A680EA809A0E
:1016400080A880DA80E280CA803389828A83ECFABB
:10165000E493A3C8C582C8CCC583CCF0A3C8C58217
:10166000C8CCC583CCDFE9DEE7800D89828A83E4BC
:1016700093A3F608DFF9ECFAA9F0EDFB2289828A40
:1016800083ECFAE0A3C8C582C8CCC583CCF0A3C85C
:10169000C582C8CCC583CCDFEADEE880DB89828ADC
:1016A00083E493A3F208DFF980CC88F0EF60010EA9
:1016B0004E60C388F0ED2402B4040050B9F582EB0B
:1016C0002402B4040050AF232345822390162A73CA
:1016D000BB010689828A83E0225002E722BBFE0218
:1016E000E32289828A83E49322BB010CE58229F5F7
:1016F00082E5833AF583E0225006E92582F8E62266
:10170000BBFE06E92582F8E222E58229F582E5831F
:101710003AF583E49322BB010989828A83F8E028A1
:10172000F022500327F722BBFE05F8E328F3228AB4
:10173000838982F8E4932822BB010FF8E58229F51A
:1017400082E5833AF583E028F0225009C58229F822
:10175000E58226F622BBFE09C58229F8E22582F23F
:1017600022F8EA2583F583E9932822BB01068982C2
:101770008A83F0225002F722BBFE01F322F8BB015C
:101780000DE58229F582E5833AF583E8F0225006DB
:10179000E92582C8F622BBFE05E92582C8F222EFC0
:1017A0008DF0A4A8F0CF8CF0A428CE8DF0A42EFE4E
:1017B00022BC000BBE0029EF8DF084FFADF022E4C7
:1017C000CCF875F008EF2FFFEE33FEEC33FCEE9D06
:1017D000EC984005FCEE9DFE0FD5F0E9E4CEFD222D
:1017E000EDF8F5F0EE8420D21CFEADF075F008EFB8
:1017F0002FFFED33FD4007985006D5F0F222C39835
:10180000FD0FD5F0EA22C5F0F8A3E028F0C5F0F806
:10181000E582158270021583E038F022A3F8E0C556
:10182000F025F0F0E582158270021583E0C838F0EB
:10183000E822BB010A89828A83E0F5F0A3E0225006
:101840000687F009E71922BBFE07E3F5F009E31963
:101850002289828A83E493F5F074019322BB0110FC
:10186000E58229F582E5833AF583E0F5F0A3E022ED
:101870005009E92582F886F008E622BBFE0AE92530
:1018800082F8E2F5F008E222E5832AF583E993F590
:10189000F0A3E99322BB010789828A8302180650CC
:1018A0000B09C5F027F7C5F01937F722BBFE0D0964
:1018B000F8E325F0F3C5F019E338F322F889828ABA
:1018C0008374019325F0C5F0F8E4933822BB010D31
:1018D000C58229C582C5833AC5830218065011C541
:1018E0008229F808E5F026F618F5F0E58236F622AA
:1018F000BBFE11C58229F808E225F0F5F0F218E2E6
:101900003582F222F8E58229F582E5832AF583748F
:10191000019325F0F5F0E4933822BB010A89828A0D
:1019200083F0E5F0A3F0225006F709A7F01922BBD7
:10193000FE06F3E5F009F31922F8BB0111E582294F
:10194000F582E5833AF583E8F0E5F0A3F02250094B
:10195000E92582C8F608A6F022BBFE09E92582C85F
:10196000F2E5F008F222EF2BFFEE3AFEED39FDEC46
:1019700038FC2275F008758200EF2FFFEE33FECDA4
:1019800033CDCC33CCC58233C5829BED9AEC99E53F
:101990008298400CF582EE9BFEED9AFDEC99FC0FCF
:1019A000D5F0D6E4CEFBE4CDFAE4CCF9A88222B897
:1019B00000C1B90059BA002DEC8BF084CFCECDFC1C
:1019C000E5F0CBF97818EF2FFFEE33FEED33FDECA9
:1019D00033FCEB33FB10D703994004EB99FB0FD892
:1019E000E5E4F9FA227818EF2FFFEE33FEED33FD30
:1019F000EC33FCC933C910D7059BE99A4007EC9B2F
:101A0000FCE99AF90FD8E0E4C9FAE4CCFB2275F0BE
:101A100010EF2FFFEE33FEED33FDCC33CCC833C8CF
:101A200010D7079BEC9AE899400AED9BFDEC9AFCD5
:101A3000E899F80FD5F0DAE4CDFBE4CCFAE4C8F984
:101A400022EF5BFFEE5AFEED59FDEC58FC22EF6BE6
:101A5000FFEE6AFEED69FDEC68FC22CFF4CFCEF418
:101A6000CECDF4CDCCF4CC22C3E49FFFE49EFEE4C3
:101A70009DFDE49CFC22EB9FF5F0EA9E42F0E99D7F
:101A800042F0EC6480C864809845F022EB9FF5F04A
:101A9000EA9E42F0E99D42F0E89C45F022E8600FA2
:101AA000ECC313FCED13FDEE13FEEF13FFD8F12290
:101AB000E8600FEFC333FFEE33FEED33FDEC33FC94
:101AC000D8F122BB010DE58229F582E5833AF58341
:101AD000021AF35007E92582F8021D42BBFE07E90E
:101AE0002582F8021D4EE58229F582E5833AF583C9
:101AF000021AFFE0FCA3E0FDA3E0FEA3E0FF22E466
:101B000093FC740193FD740293FE740393FF22E02F
:101B1000F8A3E0F9A3E0FAA3E0FB22BB010DE58204
:101B200029F582E5833AF583021B0F5007E92582E8
:101B3000F8021D5ABBFE07E92582F8021D67E582FF
:101B400029F582E5833AF583021D747401FF33950C
:101B5000E0FEFDFCA3A3A3E0CF2FF0E58215827089
:101B6000021583E0CE3EF0E582158270021583E017
:101B7000CD3DF0E582158270021583E0CC3CF02269
:101B8000ECF0A3EDF0A3EEF0A3EFF022A8828583A2
:101B9000F0D083D082121BA3121BA3121BA3121B13
:101BA000A3E473E493A3C583C5F0C583C8C582C805
:101BB000F0A3C583C5F0C583C8C582C822A4258209
:101BC000F582E5F03583F58322E0FBA3E0FAA3E09C
:101BD000F922F8E0FBA3A3E0F925F0F0E5821582F5
:101BE00070021583E0FA38F022EBF0A3EAF0A3E9E3
:101BF000F022BB010789828A83021BC95005E9F8DC
:101C0000021D84BBFE05E9F8021D9689828A8302C3
:101C10001DA8BB011A89828A83D0F0D0E0F8D0E0F9
:101C2000F9D0E0FAD0E0FBE8C0E0C0F0021BE950D8
:101C300016E9F8D083D082D0E0F9D0E0FAD0E0FB0A
:101C4000C082C083021D8DBBFE16E9F8D083D0820E
:101C5000D0E0F9D0E0FAD0E0FBC082C083021D9F43
:101C600022BB010DE58229F582E5833AF583021B4B
:101C7000C95007E92582F8021D84BBFE07E92582C9
:101C8000F8021D96E58229F582E5833AF583021D67
:101C9000A8BB0120E58229F582E5833AF583D0F0DF
:101CA000D0E0F8D0E0F9D0E0FAD0E0FBE8C0E0C046
:101CB000F0021BE95018E92582F8D083D082D0E0E9
:101CC000F9D0E0FAD0E0FBC082C083021D8DBBFEDC
:101CD00018E92582F8D083D082D0E0F9D0E0FAD09C
:101CE000E0FBC082C083021D9F22D083D082F8E433
:101CF000937012740193700DA3A393F8740193F57C
:101D0000828883E4737402936860EFA3A3A380DFE7
:101D10008A838982E473EF4E6012EF60010EEDBB9F
:101D2000010B89828A83F0A3DFFCDEFA2289F0505E
:101D300007F709DFFCA9F022BBFEFCF309DFFCA9D1
:101D4000F022E6FC08E6FD08E6FE08E6FF22E2FCDB
:101D500008E2FD08E2FE08E2FF22E6FB08E6F908D9
:101D6000E6FA08E6CBF822E2FB08E2F908E2FA0814
:101D7000E2CBF822E493F8740193F9740293FA74B5
:101D80000393FB22E6FB08E6FA08E6F922EBF608E5
:101D9000EAF608E9F622E2FB08E2FA08E2F922EBA9
:101DA000F208EAF208E9F222E493FB740193FA7470
:101DB0000293F922900CC7121BE9900CCAE4F0A31D
:101DC000E4F090000FE0FF7E00EF4E70407F431282
:101DD0007AF290000F7401F090000E7401F0900000
:101DE00013E4F0A3E4F0900002E4F0900A33121B35
:101DF0008C00000000900000E4F0A37401F090005B
:101E0000A7E4F090001D121B8C0000000090001150
:101E1000E0FEA3E0FF900013E0FCA3E0FDD3ED9F04
:101E2000EC9E4013900002E004F07F15127AF290CD
:101E30000013E4F0A3E4F090000FE0FF7E00EF64F5
:101E4000014E600302225B900017E0FEA3E0FFC397
:101E5000EF9401EE9400500302225B900019121BD4
:101E6000C91216D0FF7E00EF64044E6003021FAE5D
:101E7000900CCDE4F0900CCDE0FF7E00C3EF94FF1A
:101E8000EE64809480504E900CCDE0FF7E00C374D1
:101E9000FF9FFFE49EFE74B02FF58274033EF5832E
:101EA000E0FF7E00EF64FF4E7023900CCDE0FF7EDC
:101EB00000C374FF9FFFE49EFE74AF2FF58274038E
:101EC0003EF583E0FF7E00EF641A4E6008900CCD73
:101ED000E004F080A0900CCDE0FFEF2406FF900C12
:101EE000CDEFF090001D121AF3C004C005C006C06B
:101EF000077B017A0379B0900CCDE0FF7E00C3E44C
:101F00009FFF74019EFEE4FCFD900AF8121B80D036
:101F100007D006D005D00412675190001D121B8017
:101F2000900CCEE4F0900CCEE0FF7E00C3EF940462
:101F3000EE648094805053900CCDE0FF7E00C3E4AB
:101F40009FFF74019EFE900CCEE0FD7C00EF2DFF04
:101F5000EE3CFE74B02FF58274033EF583E0FB90F7
:101F6000001D121AF3EF6B60089000A77401F08057
:101F70001990001D121AF37808121A9D90001D1274
:101F80001B80900CCEE004F0809B900013E4F0A343
:101F9000E4F0900017E4F0A3E4F090000E7402F077
:101FA00090000F7402F07F06127AF27F01229000F7
:101FB00019121BC91216D0FF7E00EF64184E702450
:101FC000900013E4F0A3E4F0900017E4F0A3E4F031
:101FD00090000E7405F090000F7402F07F06127AE4
:101FE000F27F0322900017E0FEA3E0FFD3EF948579
:101FF000EE9400401B900013E4F0A3E4F090000284
:10200000E004F0900017E4F0A3E4F07F15127AF2F8
:10201000900019121BC91216D0FF7E00EF64014E0A
:10202000600302225B900017E0FEA3E0FFEF6485EF
:102030004E600302225B900013E4F0A3E4F09000F2
:1020400017E4F0A3E4F0900019121BC97582017522
:1020500083001216E9FF7E00900000E0FCA3E0FD83
:102060007C00ED6F7002EC6E600302224F90000264
:10207000E4F0900000E0FEA3E0FFC3EF9403EE94D1
:1020800000402F90001D121AF3C004C005C006C006
:10209000077B017A0379B0900AF8121B8C000000CC
:1020A00080D007D006D005D00412675190001D12D1
:1020B0001B80900CCDE4F0900CCDE0FF7E00C3EFD0
:1020C0009480EE648094805058900CCDE0FF743082
:1020D0002FF582E43404F583E0FF900CCDE0FE742C
:1020E000B02EF582E43403F583EFF0900CCDE0FFE1
:1020F0007E00EF2403FFEE3400FE900019121BC98E
:102100008F828E831216E9FF900CCDE0FE74302E84
:10211000F582E43404F583EFF0900CCDE004F08018
:1021200096900CCAE0FEA3E0FFC006C0079000191D
:10213000121BC9E92403F9EA3400FA900C45121B7A
:102140008C00000080D007D0061260CA900CCAEE46
:10215000F0A3EFF0900019121BC9758283758300FC
:102160001216E9FF7E00EF7F00FE900CCAE0FCA390
:10217000E0FDC3ED9FFFEC9EFE900019121BC97598
:1021800082847583001216E9FD7C00C3EF9DFFEE8B
:102190009CFEEF4E6003022241900000E0FEA3E0AF
:1021A000FFEF24FFFFEE34FFFE900CC7121BC97532
:1021B0008201758300EE8FF0121939900CC7121B43
:1021C000C9758203758300E475F080121939900C8B
:1021D000CCE4F0900CC7121BC97582037583001202
:1021E000185DFFAEF0900CCCE0FD7C00C3ED9FECE1
:1021F0009E5042900CCCE0FF7E00EF2403FFEE34B3
:1022000000FE900019121BC98F828E831216E9FFFF
:10221000900CC7121BC9758205758300121C619052
:102220000CCCE0FE8E82758300EF12177D900CCCF3
:10223000E004F0809E900000E475F0011218068022
:102240001A900002E02402F07F15127AF2800C90BE
:102250000002E02402F07F15127AF2900002E0FF03
:102260007E00C3EF9419EE6480948040267F18129C
:102270007AF27F18127AF27F18127AF2900017E43D
:10228000F0A3E4F090000E7405F090000F7402F0DB
:102290007F03227F00229009C1E0FFEF20E115902B
:1022A00009C4E0FF7E00D3EF9400EE648094805078
:1022B000030223829008B8E0FFEF4401FF9008B8C2
:1022C000EFF09009C4E0FFEF30E6099008B974011F
:1022D000F002235A9009C4E0FFEF30E7089008B9F4
:1022E0007402F080759009C1E0FFEF30E1089008BA
:1022F000B97403F080649009C4E0FFEF30E0089007
:1023000008B9741FF080539009C4E0FFEF30E10872
:102310009008B97420F080429009C4E0FFEF30E2E9
:10232000089008B97421F080319009C4E0FFEF30C3
:10233000E3089008B97422F080209009C4E0FFEF10
:1023400030E4089008B97423F0800F9009C4E0FFCE
:10235000EF30E5069008B97424F09009C1E0FFEF72
:1023600054FDFF9009C1EFF09009C4E4F09008BE5D
:10237000E4F09008BAE4F0A3E4F09008BCE4F0A321
:10238000E4F09008B8E0FFEF20E0030226E89008B0
:10239000B9E0FF7E00EF64014E70537BFF7A8179D4
:1023A000EBC003C002C0017B017A0879BA900BD15F
:1023B000121BE97B017A0879BC900BD4121BE97BD4
:1023C000017A0879BE900BD7121BE9D001D002D058
:1023D000031231927E00EF64014E60030226EF90FB
:1023E00008B8E0FFEF54FEFF9008B8EFF022900825
:1023F000B9E0FF7E00EF64024E70537BFF7A827972
:1024000013C003C002C0017B017A0879BA900BD1D6
:10241000121BE97B017A0879BC900BD4121BE97B73
:10242000017A0879BE900BD7121BE9D001D002D0F7
:10243000031231927E00EF64014E60030226EF909A
:1024400008B8E0FFEF54FEFF9008B8EFF0229008C4
:10245000B9E0FF7E00EF64034E70537BFF7A827910
:102460003BC003C002C0017B017A0879BA900BD14E
:10247000121BE97B017A0879BC900BD4121BE97B13
:10248000017A0879BE900BD7121BE9D001D002D097
:10249000031231927E00EF64014E60030226EF903A
:1024A00008B8E0FFEF54FEFF9008B8EFF022900864
:1024B000B9E0FF7E00EF641F4E70537B017A08790C
:1024C000BFC003C002C0017B017A0879BA900BD16A
:1024D000121BE97B017A0879BC900BD4121BE97BB3
:1024E000017A0879BE900BD7121BE9D001D002D037
:1024F000031231927E00EF64014E60030226EF90DA
:1025000008B8E0FFEF54FEFF9008B8EFF022900803
:10251000B9E0FF7E00EF64204E70537B017A0879AA
:10252000F7C003C002C0017B017A0879BA900BD1D1
:10253000121BE97B017A0879BC900BD4121BE97B52
:10254000017A0879BE900BD7121BE9D001D002D0D6
:10255000031231927E00EF64014E60030226EF9079
:1025600008B8E0FFEF54FEFF9008B8EFF0229008A3
:10257000B9E0FF7E00EF64214E70537B017A097948
:1025800007C003C002C0017B017A0879BA900BD161
:10259000121BE97B017A0879BC900BD4121BE97BF2
:1025A000017A0879BE900BD7121BE9D001D002D076
:1025B000031231927E00EF64014E60030226EF9019
:1025C00008B8E0FFEF54FEFF9008B8EFF022900843
:1025D000B9E0FF7E00EF64224E70537B017A0979E7
:1025E00017C003C002C0017B017A0879BA900BD1F1
:1025F000121BE97B017A0879BC900BD4121BE97B92
:10260000017A0879BE900BD7121BE9D001D002D015
:10261000031231927E00EF64014E60030226EF90B8
:1026200008B8E0FFEF54FEFF9008B8EFF0229008E2
:10263000B9E0FF7E00EF64234E70507B017A097988
:1026400037C003C002C0017B017A0879BA900BD170
:10265000121BE97B017A0879BC900BD4121BE97B31
:10266000017A0879BE900BD7121BE9D001D002D0B5
:10267000031231927E00EF64014E70739008B8E04F
:10268000FFEF54FEFF9008B8EFF0229008B9E0FF8A
:102690007E00EF64244E70577B017A097947C003AE
:1026A000C002C0017B017A0879BA900BD1121BE9F4
:1026B0007B017A0879BC900BD4121BE97B017A0864
:1026C00079BE900BD7121BE9D001D002D003123192
:1026D000927E00EF64014E70169008B8E0FFEF5450
:1026E000FEFF9008B8EFF0227D007F00127885226F
:1026F000900B22EFF0E4900B2AF0900B22E0900A6E
:102700007312451F124662900B23F0A3EFF0E47F93
:1027100001FEFDFC900B22E0F9F8121AB08F298E11
:10272000288D278C26AF01127948900B28EEF0A354
:10273000EFF012457240051246848005E4900B25A7
:10274000F0900B25E0640160030228A2900B22E0C8
:10275000FF247F124587E0C394FA7480948050066A
:10276000124584E004F0124635FCE4FBFAF9F8C3A4
:10277000121A8C600302288F900A72E0900B27F0E7
:1027800012106EEF6030E4900B25F0A3F01245BFFD
:102790005018124584E0C3940174809480400690E0
:1027A0000B25E004F012464980E31245F240079001
:1027B0000B27E0240FF0900B22E0247F12458712B4
:1027C00046A4500302288FE4900B25F01280C7EF37
:1027D000705E900B26F01245BF5022900B22E06FE6
:1027E000601612808F900B26E0247F124587E0C38D
:1027F0009F4005124684800512464980D912106E0A
:10280000EF3395E04F7063900B25E0705DA3F012FD
:1028100045BF5056900B22E06F601012808F900BD6
:10282000261245D9E0C39F4002803C12464980DF12
:1028300012106EEF3395E04F7030900B27F0900B35
:1028400026F01245BF5018124584E0C394027480EC
:1028500094804006900B27E004F012464980E390F4
:102860000B271245F54003124684900B25E06401C6
:102870007002D208E5254529FFE5244528FEE52319
:102880004527FDE52245268F258E248D23F52290B0
:102890000B22E0FF2487124535E4F0A31245CC0259
:1028A0002AB5900B22E0FF127988900B23E0FCA35D
:1028B000E0FDD312456640081245D6E004F0800BD7
:1028C000900CB5E004F01245D6E4F012466CC3E477
:1028D0009FFBE49EFAC3ED9BEA1245684066D31263
:1028E00045735060124613F583E41245CC12459DA2
:1028F0006003022A09900B23E0FEA3E0FF900B2265
:10290000E0900A831245B9EE8FF01218061280B1DA
:10291000124554400912458FE475F0018019128068
:10292000B1C3E49FFFE49EFE1245544003022A090E
:1029300012458F74FFF5F012180612454AE4F0A311
:10294000F0022A0912466CC3E49FFFE4124570505E
:10295000731246131245C8F583E4F074872FF5828D
:10296000E4340AF583E0FF75F00A84E5F07044C3AF
:10297000EF946474809480900B22E040101246180B
:10298000F583E4F0D209900A9704F080261245946A
:10299000C083C082E0FEA3E0FF900A90E0A2E713AC
:1029A000FD3395E0FCC3EF9DFFEE9CD082D083F019
:1029B000A3EFF0900B22E0FF900CAEE06F704A7432
:1029C000FFF0804512466CD3124573403C900B22B9
:1029D000E012461812459D703012468B1245C8F51C
:1029E00083E06420702312468BF583E4F0900A9014
:1029F000E0A2E713A2E713FD3395E0FC75F002EFC8
:102A0000124597EC8DF01218061246354D4E4F7058
:102A100003022AC1900B28E0FCA3E0FDAE0478027B
:102A2000CEA2E713CE13D8F8FFC3ED9FFFEC1245FB
:102A3000704003022ABA1245E4E004F01280DC90F0
:102A40000B27EFF0E4900B26F01245BF501812450B
:102A500084E0C39401748094804006900B25E004C8
:102A6000F012464980E31245F24008900A72E09065
:102A70000B27F0900B22E0FB1245E81246A450030E
:102A8000022B0B74952B1245EAE4F0AF29AE28AD6A
:102A900027AC26121A5BE5255FFFE5245EFEE523E1
:102AA0005DFDE5225C8F258E248D23F522747F2B1E
:102AB000F582E4340AF583E4F0221245E4E014F0F0
:102AC00022900B22E0247F12458712459F700890C8
:102AD0000B22E0FF126C31E52A14FF900B22E06F0D
:102AE0007029900CB5E0C3952A4020E4900B26F0A5
:102AF0001245BF500E124584E06003124684124610
:102B00004980ED900B25E07002C20822900A03E094
:102B1000FFEF547FFF900E27EFF09009C7E0FFEF23
:102B200030E103022E649009BFE0FFEF20E70122AD
:102B3000900E27E0FF900A03E0FEEE547FFEEEC306
:102B40009F500E900A03E0FFEF547FFF900E27EF97
:102B5000F09009CBE0FEA3E0FFEF4E6003022CE112
:102B6000900E27E0FF7E00D3EF9401EE6480948006
:102B70005059900BC5E0FFEF20E1339009BFE0FF13
:102B8000EF30E32A900BC5E0FFEF54FEFF900BC53A
:102B9000EFF0900BC5E0FFEF4402FF900BC5EFF0A4
:102BA0009009C4E0FFEF4401FF9009C4EFF09009E1
:102BB000C2E0FFEF4402FF9009C2EFF09009C2E0CB
:102BC000FFEF54DFFF9009C2EFF022900E27E0FFE5
:102BD0007E00D3EF9403EE648094804003022CC403
:102BE000900BC5E0FFEF20E0339009BFE0FFEF302E
:102BF000E32A900BC5E0FFEF4401FF900BC5EFF017
:102C0000900BC5E0FFEF54FDFF900BC5EFF090096E
:102C1000C4E0FFEF4408FF9009C4EFF0900BC5E05B
:102C2000FFEF1313543FFFEF543FFF7E00D3EF94A9
:102C300005EE64809480501E9009C2E0FFEF4402CC
:102C4000FF9009C2EFF09009C2E0FFEF54DFFF9060
:102C500009C2EFF0801C9009C2E0FFEF54FDFF9025
:102C600009C2EFF09009C2E0FFEF54DFFF9009C204
:102C7000EFF0900BC5E0FFEF1313543FFEEF54034A
:102C8000FFEE04FEEE543FFEEE25E025E0FEEE4FA3
:102C9000FF900BC5EFF0900BC5E0FFEF1313543F0F
:102CA000FFEF543FFF7E00C3EF940AEE64809480F0
:102CB0005003022E64900BC5E0FFEF5403FF900B0E
:102CC000C5EFF0229009C2E0FFEF54FDFF9009C26A
:102CD000EFF09009C2E0FFEF4420FF9009C2EFF04F
:102CE00022900E27E0FF7E00D3EF9403EE648094E1
:102CF00080505F9009C2E0FFEF4401FF9009C2EFEE
:102D0000F09009C2E0FFEF54EFFF9009C2EFF0909E
:102D10000BC5E0FFEF30E103022E649009BFE0FF36
:102D2000EF20E303022E64900BC5E0FFEF54FEFF9B
:102D3000900BC5EFF0900BC5E0FFEF4402FF900B46
:102D4000C5EFF09009C4E0FFEF4401FF9009C4EF24
:102D5000F022900E27E0FF7E00D3EF940AEE64800D
:102D600094804003022E48900BC5E0FFEF20E03333
:102D70009009BFE0FFEF30E32A900BC5E0FFEF447E
:102D800001FF900BC5EFF0900BC5E0FFEF54FDFF86
:102D9000900BC5EFF09009C4E0FFEF4408FF9009E5
:102DA000C4EFF0900BC5E0FFEF1313543FFFEF5457
:102DB0003FFF7E00C3EF9405EE64809480501E9028
:102DC00009C2E0FFEF4401FF9009C2EFF09009C291
:102DD000E0FFEF54EFFF9009C2EFF0801C9009C2B2
:102DE000E0FFEF54FEFF9009C2EFF09009C2E0FF50
:102DF000EF54EFFF9009C2EFF0900BC5E0FFEF1327
:102E000013543FFEEF5403FFEE04FEEE543FFEEE7C
:102E100025E025E0FEEE4FFF900BC5EFF0900BC5CF
:102E2000E0FFEF1313543FFFEF543FFF7E00C3EF6B
:102E3000940AEE64809480402B900BC5E0FFEF5421
:102E400003FF900BC5EFF0229009C2E0FFEF54FEA4
:102E5000FF9009C2EFF09009C2E0FFEF4410FF902D
:102E600009C2EFF022900E22E4F0900004E0FF7E11
:102E700000C3EF9405EE64809480500302318C907F
:102E80000004E0FF7E00EF64084E6015900003E050
:102E9000FF7E00D3EF9420EE648094805003022FD5
:102EA000FD7F2C7E017D007C00900005121B0FC36E
:102EB000121A8C4027900005121B8C000000007B2A
:102EC000FF7A8079F3127D48900003E004F09000CF
:102ED00003E0FFEF547FFF900003EFF09001A8E0C4
:102EE000FF7E00EF64034E600302318C9001A874F2
:102EF00001F09001ADE4F0A3E4F0900004E0FF7E67
:102F000000EF64084E6003022FBE7B017A0179AFA7
:102F1000C003C002C0017BFF7A8079FD900CC21211
:102F20001BE9D001D002D0031275AEEF60097BFF20
:102F30007A817908127D487B017A0179AFC003C09C
:102F400002C0017BFF7A817910900CC2121BE9D07C
:102F500001D002D0031275AEEF60097BFF7A817950
:102F600008127D487B017A0179AFC003C002C0011D
:102F70007BFF7A817926900CC2121BE9D001D00226
:102F8000D0031275AEEF60097BFF7A817941127D23
:102F9000487B017A0179AFC003C002C0017BFF7A90
:102FA000817953900CC2121BE9D001D002D00312D8
:102FB00075AEEF60097BFF7A817908127D487B014D
:102FC0007A0179AFC003C002C0017BFF7A817967C3
:102FD000900CC2121BE9D001D002D0031275AEEFE3
:102FE000700302318C900D57121B8C00000FA07FD4
:102FF00000127C21900E227401F002318C7F2C7E15
:10300000017D007C00900005121B0FC3121A8C403A
:103010001E900005121B8C00000000900003E004CD
:10302000F0900003E0FFEF547FFF900003EFF0907B
:103030000004E0FFEF121CEA30450530AF063118FE
:1030400007000031867BFF7A817977C003C002C018
:10305000017BFF7A817991900B04121BE97BFF7A47
:10306000817994900B07121BE9900B0A121B8C00BC
:103070000000647BFF7A7D7948900B0E121BE9D02B
:1030800001D002D003125CC3900021EFF090002128
:10309000E0FF7E00EF64024E600302318C900D571A
:1030A000121B8C00000FA07F06127C2102318C7B4A
:1030B000FF7A81799AC003C002C0017BFF7A8179CF
:1030C00091900B04121BE97BFF7A817994900B0796
:1030D000121BE9900B0A121B8C000000647BFF7A24
:1030E0007D7948900B0E121BE9D001D002D003125B
:1030F0005CC3900021EFF0900021E0FF7E00EF64C0
:10310000024E600302318C900D57121B8C00000F91
:10311000A07F07127C2180747BFF7A817941C003F4
:10312000C002C0017BFF7A817991900B04121BE9E8
:103130007BFF7A817994900B07121BE9900B0A129E
:103140001B8C000000647BFF7A7D7948900B0E1287
:103150001BE9D001D002D003125CC3900021EFF034
:10316000900021E0FF7E00EF64024E701F900D572B
:10317000121B8C00000FA07F08127C219001A9E493
:10318000F0A3E4F080069000047405F0900E22E0B5
:10319000FF22900BCE121BE9900BD7121BC91216FF
:1031A000D0FF7E00EF64FF4E70037F0122900BD7AB
:1031B000121BC91216D0FF7E08EF8EF0A4FFAEF0EE
:1031C000900BCE121BC9E92FF9EA3EFA75820475FD
:1031D000830012185DFDACF0E41215207BCD7ACC93
:1031E000794C783E1212FCC004C005C006C007909E
:1031F0000BD1121BC9121832FDACF0E4121520A835
:1032000004A905AA06AB07D007D006D005D0041242
:1032100014A24003023328900BCE121BC9C003C076
:1032200002C001900BD7121BC91216D0FF75F0080F
:10323000EFA4F58285F083D001D002D003121B1BCE
:103240009008B4E0FEA3E0FFE4FCFDC3121A8C700A
:10325000030232F1900BCE121BC9C003C002C001A1
:10326000900BD7121BC91216D0FF75F008EFA4F50A
:103270008285F083D001D002D003121AC39008B423
:10328000EEF0A3EFF0900BCE121BC9C003C002C03A
:1032900001900BD7121BC91216D0FF75F008EFA4CE
:1032A000F58285F083D001D002D003121AC3AD0796
:1032B000AC067F10126CB1900BCE121BC9C003C0BC
:1032C00002C001900BD7121BC91216D0FF75F0086F
:1032D000EFA4F58285F083D001D002D003121AC387
:1032E0009008B6EEF0A3EFF07D017F0012788580A4
:1032F000279008B6E0FCA3E0FDE41215207B007ADD
:10330000007900783F1212FC121559AD07AC06ACDB
:1033100006AD077F0212109E900BD1121BC9E475F7
:10332000F001121895023452900BD7121BC91216D5
:10333000D0FF7E08EF8EF0A4FFAEF0900BCE121BF4
:10334000C9E92FF9EA3EFA75820675830012185D05
:10335000FDACF0E41215207BCD7ACC794C783E128E
:1033600012FCC004C005C006C007900BD4121BC9D4
:10337000121832FDACF0E4121520A804A905AA0623
:10338000AB07D007D006D005D0041214A250197D87
:10339000007C007F0212109E900BD4121BC9E475B2
:1033A000F001121895023452900BD7121BC9740108
:1033B000121716900BD1121BC9E475F00012191ADE
:1033C000900BD4121BC9E475F00012191A900BCEA1
:1033D000121BC9C003C002C001900BD7121BC91237
:1033E00016D0FF75F008EFA4F58285F083D001D0E8
:1033F00002D003121AC39008B6EEF0A3EFF0900BC0
:10340000CE121BC9C003C002C001900BD7121BC94A
:103410001216D0FF75F008EFA4F58285F083D00175
:10342000D002D003121AC37BFF7AFF79FF7800C362
:10343000121A8C701D900BD7121BC974FF12176BD8
:103440009008B4E4F0A3E4F07D007F001278857F5B
:1034500001227F00229009CBE0FEA3E0FFEF4E6047
:10346000030235017F007ED47D8F7C059009D11247
:103470001B0FC3121A8C50031269057B607A037903
:103480000078009009D1121AF31219AF900CCF12E4
:103490001B807FE07EA57D017C00900CCF121B0F6E
:1034A000C3121A8C4003023583900CCF121B0FC33A
:1034B00074E09BFF74A59AFE740199FDE498FC905A
:1034C0000CCF121B80900CCF121AF3E412151B7B49
:1034D000007A0079877844121405900CD3121B806F
:1034E000900CD3121AF3121559EF547FFF900A0370
:1034F000E0FEEE5480FEEE4FFF900A03EFF002353F
:10350000837F007E9C7DDA7C019009CD121B0FC366
:10351000121A8C50031269057B607A0379007800D7
:103520009009CD121AF31219AF900CCF121B809094
:103530000CCF121B0FC374A09BFF748C9AFEE499EE
:10354000FDE498FC900CCF121B80900CCF121AF364
:10355000E412151B7B007A0079B4784312140590AD
:103560000CD3121B80900CD3121AF3121559EF547E
:103570007FFF900A03E0FEEE5480FEEE4FFF900ABC
:1035800003EFF09009CBE0FEA3E0FFEF4E600302F3
:1035900036469009C3E0FFEF20E6030236467F740B
:1035A0007EC27D037C009009D9121B0FC3121A8CB6
:1035B00050031268779009D9121AF3E412151B7B95
:1035C000927A917933783D1212FC121559900CCFF2
:1035D000121B807F307E2A7D007C00900CCF121B56
:1035E0000FD3121A8C400A900CCF121B8C00002AA9
:1035F00030900CCF121B0FC374309BFF742A9AFEBD
:10360000E499FDE498FC900CCF121B80900CCF1233
:103610001AF3E412151B7B007A0079D87842121451
:1036200005900CD3121B80900CD3121AF31215596B
:10363000EF547FFF900A04E0FEEE5480FEEE4FFF51
:10364000900A04EFF0229009CBE0FEA3E0FFEF64C4
:10365000014E600302370A9009C3E0FFEF20E60342
:1036600002370A7FC57E407D017C009009D5121B80
:103670000FC3121A8C50031268779009D5121AF3EF
:10368000E412151B7B927A917933783D1212FC1269
:103690001559900CCF121B807F107E0E7D007C0090
:1036A000900CCF121B0FD3121A8C400A900CCF1221
:1036B0001B8C00000E10900CCF121B0FC374109BBC
:1036C000FF740E9AFEE499FDE498FC900CCF121B57
:1036D00080900CCF121AF3E412151B7B007A00794C
:1036E000107842121405900CD3121B80900CD31248
:1036F0001AF3121559EF547FFF900A04E0FEEE54BE
:1037000080FEEE4FFF900A04EFF022900CB6740397
:10371000F07F0012745D900CB7121B80900CB712F2
:103720001AF3EF5400FFEE5400FEED5400FDEC548C
:10373000F0FC7B007A0079007890C3121A8C500359
:10374000023848900CB7121AF3EF5400FFEE540001
:10375000FEED5400FDEC540FFC7B007A00790078FC
:1037600009C3121A8C5003023848900CB7121AF38E
:10377000EF5400FFEE5400FEED54F0FDEC5400FC5D
:103780007B007A0079907800C3121A8C50030238BB
:1037900048900CB7121AF3EF5400FFEE5400FEED00
:1037A000540FFDEC5400FC7B007A0079097800C3CB
:1037B000121A8C5003023848900CB7121AF3EF54C7
:1037C00000FFEE54F0FEED5400FDEC5400FC7B00D5
:1037D0007A9079007800C3121A8C406C900CB71262
:1037E0001AF3EF5400FFEE540FFEED5400FDEC54BD
:1037F00000FC7B007A0979007800C3121A8C4048DB
:10380000900CB7121AF3EF54F0FFEE5400FEED5493
:1038100000FDEC5400FC7B907A0079007800C31224
:103820001A8C4024900CB7121AF3EF540FFFEE5489
:1038300000FEED5400FDEC5400FC7B097A00790099
:103840007800C3121A8C500A900CB7121B8C00001F
:1038500000007F0112745D900CBB121B80127E660B
:10386000127E45900A37E0FF900A23E0FEEE6F706B
:1038700032900A38E0FF900A24E0FEEEB50724906B
:103880000A39E0FF900A25E0FEEEB50716900A3AE5
:10389000E0FF900A26E0FEEEB50708900CB6740132
:1038A000F08006900CB67403F0900CB6E0FF7E003A
:1038B000EF64014E701A900CB7121AF3900CBB1201
:1038C0001B0FD3121A8C4008900CB67402F0805271
:1038D000900A37E0FF900A13E0FEEE6F7031900A15
:1038E00038E0FF900A14E0FEEEB50723900A39E0B5
:1038F000FF900A15E0FEEEB50715900A3AE0FF903A
:103900000A16E0FEEEB50707900CB6E4F0801390BF
:103910000CB6E0FF7E00EF64014E7006900CB674AA
:1039200002F0900CB6E0FF7E00EF4E70037F0122A4
:10393000900CB6E0FF7E00EF64024E701212600B36
:10394000EF60037F012212600BEF60037F01227F93
:103950000022900D78121BE9900004E0FFEF121C8A
:10396000EA39740039DC013A44023B8A033B3504EE
:1039700000003B8A7BFF7A8079F3C003C002C0015C
:103980007BFF7A8179B3900B04121BE97BFF7A816C
:1039900079C2900B07121BE9900B0A121B8C0000D6
:1039A00000647BFF7A7D7948900B0E121BE9D001F1
:1039B000D002D003125CC3900021EFF0900021E010
:1039C000FF7E00EF64024E6003023B8A900D5712A7
:1039D0001B8C000013887F01127C21227BFF7A81DF
:1039E00079CCC003C002C0017BFF7A817991900B32
:1039F00004121BE97BFF7A817994900B07121BE973
:103A0000900B0A121B8C000000647BFF7A7D7948C2
:103A1000900B0E121BE9D001D002D003125CC390B0
:103A20000021EFF0900021E0FF7E00EF64024E6085
:103A300003023B8A900D57121B8C000013887F02F3
:103A4000127C2122900005121B8C00000000900DBA
:103A500078121BC91216D0FF7E00EF64034E70244B
:103A6000900D78121BC975820375830012185DFFD3
:103A7000AEF0EF4E700E1280ED900D78121BC974EF
:103A80000112176B900D78121BC91216D0FF7E0021
:103A9000EF640F4E7011900D78121BC9740112174C
:103AA0006B90001C7403F0900D78121BC9121DB4AA
:103AB00090001CEFF090001CE0FF7E00EF64014ED0
:103AC00070409000A7E0FF7E00EF4E701212370B9F
:103AD000900D78121BC9740412176B1280ED22909E
:103AE0000D78121BC9740F12176B9003AFE4F0909E
:103AF0000D57121B8C00002EE07F04127C211280D7
:103B0000ED2290001CE0FF7E00EF64034E701590E4
:103B100003AFE4F0900D57121B8C00002EE07F04E1
:103B2000127C2122900D57121B8C000013887F02FB
:103B3000127C212222900D7BE4F0900D7BE0FF7E31
:103B400000C3EF940AEE6480948050347BFF7A8146
:103B500079DC127D48900005121B8C000000007F6C
:103B6000C87E007D007C00900005121B0FC3121A56
:103B70008C500543CF1080E7900D7BE004F080BAB5
:103B8000900004E4F07F00127D21229009BCE0FF48
:103B90007E00C3EF940AEE648094804003023D905F
:103BA000900A98E004F0900A99E0FFEF121CEA3BBB
:103BB000BF003C33013CA7023D1B0300003D909039
:103BC0000A98E0FF7E00EF64014E700412100E228E
:103BD000900A98E0FF7E00EF64034E700B7D017F3A
:103BE000011267E743AD4022900A98E0FF7E00EFA4
:103BF00064054E701A127F739009BCE0FDED25E05C
:103C00002474F582E43409F583EEF0A3EFF02290FA
:103C10000A98E0FF7E00C3EF940FEE64809480501A
:103C200003023D90900A99E004F0900A98E4F012A3
:103C3000101622900A98E0FF7E00EF64014E700497
:103C400012101E22900A98E0FF7E00EF64034E706F
:103C50000B7D017F031267E743AD4022900A98E095
:103C6000FF7E00EF64054E701A127F739009BCE06E
:103C7000FDED25E0249CF582E43409F583EEF0A304
:103C8000EFF022900A98E0FF7E00C3EF940FEE64FD
:103C90008094805003023D90900A99E004F0900ACD
:103CA00098E4F012101E22900A98E0FF7E00EF6464
:103CB000014E700412102622900A98E0FF7E00EF59
:103CC00064034E700B7D017F061267E743AD40220F
:103CD000900A98E0FF7E00EF64054E701A127F7321
:103CE0009009BCE0FDED25E02488F582E43409F577
:103CF00083EEF0A3EFF022900A98E0FF7E00C3EF7E
:103D0000940FEE648094805003023D90900A99E0F5
:103D100004F0900A98E4F012102622900A98E0FF2E
:103D20007E00EF64014E700412100622900A98E0A3
:103D3000FF7E00EF64034E700B7D017F071267E783
:103D400043AD4022900A98E0FF7E00EF64054E707C
:103D50001A127F739009BCE0FDED25E02460F58226
:103D6000E43409F583EEF0A3EFF022900A98E0FF27
:103D70007E00C3EF940FEE648094804013900A9904
:103D8000E4F0900A98E4F01210069009BCE004F008
:103D900022900D65121BE9900D68E4F0A3E4F09009
:103DA0000D65121BC975820175830012185DFFAE87
:103DB000F0EF4E7029900CDB121B8C0000FC007F92
:103DC000007E867D007C00127842900A33121B8CA4
:103DD00000000000900A3E121B8C00000000900DB5
:103DE00065121BC975820375830012185DFFAEF062
:103DF000900D68EEF0A3EFF0900D65121BC975826F
:103E00000375830012185DFDACF0900D65121BC99F
:103E100075820175830012185DFFAEF012179FC303
:103E2000EE94105003023F8C900D65121BC97582F1
:103E30000375830012185DFDACF0900D65121BC96F
:103E400075820175830012185DFFAEF012179FE4B2
:103E5000FCFD7B007A8679007800D3121A76500335
:103E6000023F8C900D65121BC97582037583001289
:103E7000185DFDACF0900D65121BC975820175834C
:103E80000012185DFFAEF012179FE4FCFDC004C0E5
:103E900005C006C007900D65121BC97582037583A6
:103EA0000012185DFFAEF0AB07AA06E4F9F8C3E410
:103EB0009BFB74869AFAE499F9E498F8D007D00647
:103EC000D005D004C3121A76700B900D6874FF757C
:103ED000F0F0121806900D65121BC97582037583E8
:103EE0000012185DFDACF0900D65121BC9758201C2
:103EF00075830012185DFFAEF012179FEF2400FFCC
:103F0000EE34F0FE900D65121BC9758205758300B5
:103F1000121C61900D68E0FCA3E0FD900D03ECF035
:103F2000A3EDF0126DAFEF605B900A3E121AF3C082
:103F300004C005C006C007900D65121BC975820537
:103F4000758300121C61900D68E0FEA3E0FFE4FCA5
:103F5000FD900B38121B80D007D006D005D004127C
:103F60006BB0900A3E121B80900A33121B0F900D0B
:103F700068E0FEA3E0FFE4FCFD121966900A33122C
:103F80001B808008900D68E4F0A3E4F0900D68E0D9
:103F9000FEA3E0FF22900DDCEFF0900DDDEDF09040
:103FA0000DDEEBF0900DDCE0FFEF121CEA3FC300EA
:103FB000400F01405B0240A70340F304413F05006E
:103FC000004188900DDEE0FFEF121CEA3FD9003F70
:103FD000F00140040200004188900DDDE0FFEFF4A5
:103FE000FFEF529A900DDDE0FFEFF4FFEF529B22BE
:103FF000900DDDE0FFEFF4FFEF529A900DDDE0FF52
:10400000EF429B22900DDDE0FFEF429A22222290A8
:104010000DDEE0FFEF121CEA402500403C0140505D
:104020000200004188900DDDE0FFEFF4FFEF5291B8
:10403000900DDDE0FFEFF4FFEF529222900DDDE0F6
:10404000FFEFF4FFEF5291900DDDE0FFEF4292227F
:10405000900DDDE0FFEF4291222222900DDEE0FF85
:10406000EF121CEA407100408801409C02000041B0
:1040700088900DDDE0FFEFF4FFEF52A1900DDDE041
:10408000FFEFF4FFEF52A222900DDDE0FFEFF4FF0F
:10409000EF52A1900DDDE0FFEF42A222900DDDE096
:1040A000FFEF42A1222222900DDEE0FFEF121CEA78
:1040B00040BD0040D40140E80200004188900DDD81
:1040C000E0FFEFF4FFEF52B1900DDDE0FFEFF4FF02
:1040D000EF52B222900DDDE0FFEFF4FFEF52B1900E
:1040E0000DDDE0FFEF42B222900DDDE0FFEF42B1C7
:1040F000222222900DDEE0FFEF121CEA410900416E
:10410000200141340200004188900DDDE0FFEFF412
:10411000FFEF52C1900DDDE0FFEFF4FFEF52C2223E
:10412000900DDDE0FFEFF4FFEF52C1900DDDE0FFF9
:10413000EF42C222900DDDE0FFEF42C12222229029
:104140000DDEE0FFEF121CEA415500416C01418099
:104150000200004188900DDDE0FFEFF4FFEF52D93F
:10416000900DDDE0FFEFF4FFEF52DA22900DDDE07D
:10417000FFEFF4FFEF52D9900DDDE0FFEF42DA22BE
:10418000900DDDE0FFEF42D92212105612104612B8
:104190006F9A7BFF7A7779BAC003C002C0017B01B6
:1041A0007A0079A8900CFA121BE9D001D002D00352
:1041B0001275FE7F00127E8712772C1255BF126A8D
:1041C0001E1280D243CF10122E657B017A0A790A23
:1041D000123952900A0DE0FEA3E0FFEF4E60391253
:1041E0007FC37B017A0A790A123D91900DE5EEF0CA
:1041F000A3EFF0900DE5E0FEA3E0FFEF4E60089026
:104200000A0A7403F08006900A0A740FF0900A0DEF
:10421000E4F0A3E4F0128038900A0AE0FF7E00EF99
:1042200064044E701A127FC31254A6EF700B1280F2
:1042300038900A0A740FF0800612803812104E90DF
:104240000A0AE0FF7E00EF640F4E70267BFF7A774C
:1042500079BAC003C002C0017B017A0079A8900C32
:10426000FA121BE9D001D002D0031275FE7F0012B2
:104270007E87900A8DE0FFEF20E70302432F900A2C
:104280008DE0FFEF547FFF900A8DEFF0124B3A90D4
:104290000BA2121B807F007E007D007C00900BA291
:1042A000121B0FD3121A8C40759009BFE0FFEF5418
:1042B000FBFF9009BFEFF0900BA2121AF3EF54022C
:1042C000FFEE5400FEED5400FDEC5400FCEC4D4EAE
:1042D0004F600E9009BFE0FFEF4401FF9009BFEF70
:1042E000F0900BA2121AF37808121A9D900BA212EA
:1042F0001B80900BA2121AF3EF5440FFEE5400FE05
:10430000ED5400FDEC5400FCEC4D4E4F601E900946
:10431000BFE0FFEF4402FF9009BFEFF0800E90096D
:10432000BFE0FFEF4404FF9009BFEFF0121000124E
:1043300072F2E5B720E510900BA6E0FF7E00EF6477
:104340005A4E60030241C4900BA6E0FFEF54A5FF54
:10435000900BA6EFF01265789009C1E0FFEF4402E0
:10436000FF9009C1EFF00241C422900BC2E475F046
:10437000011218069009C7E0FFEF20E10302451A79
:104380009009C7E0FFEF1313543FFFEF5401FF9074
:1043900009C7E0FEEEC313FEEE5401FEEE6FFFEF21
:1043A0006044900BC4E4F09009C7E0FFEF5402FFB3
:1043B000EF25E0FF9009C7E0FEEE54FBFEEE4FFF55
:1043C0009009C7EFF09009C2E4F09009C4E0FFEF54
:1043D00054EFFF9009C4EFF09009C3E0FFEF54EFF2
:1043E000FF9009C3EFF0900BC2E0FEA3E0FFEF30B7
:1043F000E00302451A900BC4E0FFEF121CEA441DD3
:1044000000443401444B024462034479044490055F
:1044100044C70644CE0744FE080000451AD2C090A7
:1044200009C2E0FFEF4410FF9009C2EFF0900BC407
:10443000E004F022D2C29009C2E0FFEF4420FF90D6
:1044400009C2EFF0900BC4E004F022D2C19009C27F
:10445000E0FFEF4480FF9009C2EFF0900BC4E0044E
:10446000F022D2DB9009C2E0FFEF4440FF9009C286
:10447000EFF0900BC4E004F022D2C39009C2E0FF39
:10448000EF4408FF9009C2EFF0900BC4E004F02263
:104490009009C3E0FFEF4420FF9009C3EFF09009BB
:1044A000C3E0FFEF4410FF9009C3EFF09009C2741E
:1044B000FFF09009C4E0FFEF4410FF9009C4EFF053
:1044C000900BC4E004F022900BC4E004F0229009A9
:1044D000C2E4F09009C3E0FFEF54DFFF9009C3EF9F
:1044E000F09009C3E0FFEF54EFFF9009C3EFF0C273
:1044F000C2C2C1C2DBC2C3900BC4E004F022900967
:10450000C7E0FFEF4408FF9009C7EFF09009C7E04C
:10451000FFEF54FDFF9009C7EFF022E0900A91FFF2
:1045200075F002121BBDE0FCA3E0FDEF900A7B7565
:10453000F002021BBDF582E4340AF583E4F07495C1
:104540002FF582E4340AF583E4F0900A83EF75F0E6
:1045500002021BBD900B22E075F002900A83121B31
:10456000BDE0FCA3E0C39FEE6480F8EC6480982279
:104570009EFEC3900B24E09FEE6480F8900B23E036
:1045800064809822747F2FF582E4340AF5832290A8
:104590000B22E0FF75F002900A73021BBDF583E465
:1045A000F0FFFEFDFCAB25AA24A923A822C3021A12
:1045B0008C900B23E0FD900A9175F002021BBD90D8
:1045C0000B26E0FFC3952A22F583E004F074772FD1
:1045D000F582E4340A22900B22E02481F582E4344F
:1045E0000AF58322900B22E02495F582E4340AF543
:1045F0008322900B25E0C3940374809480227D0A6B
:104600001217B1AD037C0012179F900B2BE0FD90A9
:104610000A7322900B22E0FF2487F582E4340A22F9
:10462000E0FCA3E0FD75F002EF900A91121BBDECD7
:10463000F0A3EDF022E5255529FFE5245528FEE5F8
:10464000235527FDE522552622900B26E004F02273
:104650007E00900CAFE0FCA3E0FD12179F8EE78F69
:10466000E622E0FEA3E0C39DFFEE9C22900A90E0CC
:10467000FF3395E0FE22A4FFE0C39FE5F06480F8DD
:1046800074809822900B257401F022900B22E0FF99
:104690002477F582E4340A22900A90E0FB3395E017
:1046A000FAFEEB22E0FF900B27E0FEEFC39E229F75
:1046B000EE6480F8EA64809822900B21E0FF900C71
:1046C000ADE0229009C7E0FFEF30E10302485D90C2
:1046D00009C1E0FFEF30E60302485D9009BFE0FF4B
:1046E000EF30E41E9009C1E0FFEF20E215900BC807
:1046F000E4F09009C1E0FFEF4404FF9009C1EFF03E
:10470000C2DB900BC8E0FFEF121CEA4724004749C8
:104710000147780247990347B80447F505481F0643
:104720000000485DD2C2900BC87401F09009C2E04D
:10473000FFEF4480FF9009C2EFF09009C3E0FFEF64
:104740004440FF9009C3EFF022900BC9E475F001DB
:10475000121806900BC9E0FEA3E0FFD3EF9409EE18
:104760009400500302485D900BC9E4F0A3E4F0D23A
:10477000C0900BC8E004F0229009BFE0FFEF30E4E6
:104780000302485D900BC8E004F09009C2E0FFEF1F
:10479000547FFF9009C2EFF022C2C2900BC9E4F02F
:1047A000A3E4F0900BC8E004F09009C1E0FFEF54DF
:1047B000FBFF9009C1EFF022900BC9E475F00112E4
:1047C0001806900BC9E0FEA3E0FFD3EF9409EE9426
:1047D00000500302485D900BC9E4F0A3E4F0C2C0AE
:1047E0009009C3E0FFEF54BFFF9009C3EFF0900BB7
:1047F000C8E004F022900BC9E475F001121806908D
:104800000BC9E0FEA3E0FFD3EF9470EE9417404D88
:10481000900BC9E4F0A3E4F0900BC8E004F0229000
:104820000BC9E475F001121806900BC9E0FEA3E075
:10483000FFD3EF94B0EE94044014900BC9E4F0A3BE
:10484000E4F0900BC8E004F0C2DBC2C08004D2DB0D
:10485000D2C09009BFE0FFEF30E402C2DB22410E7C
:104860001D01410A9800410A9900410A9A00440A30
:104870009E00000000410A9B004404B0EDB8832074
:10488000410021004100A700410003004809FA004F
:1048900000000000000000420BC20000410BC400F9
:1048A000410BC500410BCB00420BCC0000420BC6B4
:1048B0000000410BC805420BC90000603808BF006A
:1048C000000E74017C007800000E74017C007800FA
:1048D000000E74017C007800000E74017C007800EA
:1048E000000E74017C007800000E74017C007800DA
:1048F000FFFFFFFFFFFFFF5008F700000CE400C8B8
:10490000037000FFFFFFFFFFFFFF50090700000CCF
:104910004E00C8012C00FFFFFFFFFFFFFF602009D2
:104920001700000D48026C026C00000D48026C027A
:104930006C00000D48026C026C00FFFFFFFFFFFFE0
:10494000FF500937000008FC07D003E800FFFFFF15
:10495000FFFFFFFF580947000006A400780064002D
:104960000008FC0078006400FFFFFFFFFFFFFF422C
:1049700008B400004208B60000410D4700410D4850
:1049800000410D4900410D4400410D4500410D46D7
:1049900000580A42E100E20FE326E437E502E600B0
:1049A000E7F9E8F9E9F9EA05EB01EC03580A5AE1FD
:1049B00000E20FE326E437E502E600E7F9E8F9E96B
:1049C000F9EA05EB01EC03410CB300410A97004101
:1049D0000A1200C10A440A37AA5555AA440A3E00E1
:1049E000000000440A330000000000C0E0C0F0C036
:1049F00083C082C0D075D000C000C001C002C00317
:104A0000C004C005C006C0077F007E83127E01126D
:104A10007BF59009ECE475F0011218069009EEE0C0
:104A200004F09009EFE004F09009F0E004F0900940
:104A3000F1E004F09009F2E004F09009F2E0FFEFF9
:104A400075F00384AFF07E00EF4E70139009C8E05C
:104A5000FFEF4420FF9009C8EFF09009F2E4F090D6
:104A600009F1E0FFEF75F00584AFF07E00EF4E70C6
:104A7000139009C8E0FFEF4410FF9009C8EFF090D1
:104A800009F1E4F09009F0E0FFEF75F01484AFF065
:104A90007E00EF4E70139009C8E0FFEF4402FF90D4
:104AA00009C8EFF09009F0E4F09009EFE0FFEF752E
:104AB000F03284AFF07E00EF4E70139009C8E0FF33
:104AC000EF4404FF9009C8EFF09009EFE4F090097B
:104AD000ECE0FEA3E0FF7C037DE81217B1ED4C7023
:104AE000169009C8E0FFEF4408FF9009C8EFF09066
:104AF00009ECE4F0A3E4F09009EEE0FFEF75F06458
:104B000084AFF07E00EF4E70139009C8E0FFEF44D1
:104B100001FF9009C8EFF09009EEE4F0123B8BD052
:104B200007D006D005D004D003D002D001D000D0E9
:104B3000D0D082D083D0F0D0E0327510007518004C
:104B400075170075160075150012105E5003024CA3
:104B50006A127BC68F148E138D128C11750F00E5AF
:104B60000FC3952A5051AF14AE13AD12AC1178019A
:104B7000121A9D8F148E138D128C1130D7357F0130
:104B80007E007D007C00AB0F74792BF582E4340A43
:104B9000F583E0F9A801121AB0E5184FFFE5174EAA
:104BA000FEE5164DFDE5154CFC8F188E178D168C05
:104BB000150510050F80A8AF107E00C3EF9402EE1C
:104BC00064809480401ED208AF107E00C3EF94032F
:104BD000EE64809480400512106680081280C7EF52
:104BE0006002C20820082C7F007E007D007C00ABA4
:104BF00018AA17A916A815C3121A8C600C900A8E51
:104C0000E475F0011218068020900A8EE4F0A3E407
:104C1000F08016900A8BE475F001121806751800E2
:104C20007517007516007515001280A6900A8EE0A3
:104C3000FCA3E0FDD3ED9FEC9E400B121066900AA2
:104C40008EE4F0A3E4F0900A8BE0FEA3E0FFD3EF44
:104C5000942CEE94014020121066900A977401F093
:104C6000900A8BE4F0A3E4F0800D908283E493FE3D
:104C7000740193FF124DBAAF18AE17AD16AC1522E2
:104C8000900D44E0FF7E00C3EF94FFEE64809480BB
:104C90005006900D44E004F09009BFE0FFEF20E2E1
:104CA00003024D55900D49E0FF7E00D3EF9400EED6
:104CB000648094805003024D42900D49E0FF7E00D5
:104CC000C3EF940AEE648094805077900D44E0FF27
:104CD0007E00C3EF94C8EE6480948050509009C762
:104CE000E0FFEF20E147900D45E004F09009C4E0BB
:104CF000FFEF4404FF9009C4EFF0900D45E0FF7E04
:104D000000D3EF9404EE6480948040219009C7E0C2
:104D1000FFEF4402FF9009C7EFF0900D49E4F090D7
:104D200009BFE0FFEF54FEFF9009BFEFF0900D497F
:104D3000E4F09009BFE0FFEF54FEFF9009BFEFF0F1
:104D40008013900D49E4F09009BFE0FFEF54FEFF9F
:104D50009009BFEFF09009BFE0FFEF30E008900D41
:104D600049E004F0801C900D49E0FF7E00D3EF94F1
:104D7000C8EE6480948050419009BFE0FFEF20E0CE
:104D80000122900D49E0FF7E00EF643C4E700F90D1
:104D900009C4E0FFEF4402FF9009C4EFF022900D38
:104DA00049E0FF7E00EF64644E700E9009C4E0FF9E
:104DB000EF54FBFF9009C4EFF022900B21EFF0902D
:104DC0000CB31245F5403EE4F0900A97E0702B904A
:104DD0000B22F0900B22E0C3952A501EE0FF1245F3
:104DE000B6E0FCA3E0FD75F002EF124597ECF0A3EE
:104DF000EDF0900B22E004F080D9127A43C209E46E
:104E0000900A97F022900CADE004F01246B9B50775
:104E100008128061E4900CAEF01246B9D39F5003A3
:104E2000024EEBE4900B22F0900B22E0C3952A5047
:104E30007A12451B124662AD07FC900A97E0702E6D
:104E40001246987802C333CE33CED8F9FFD3ED1291
:104E500045664046E49BFFE49AFEEF7802C333CEFA
:104E600033CED8F9FFC3ED124566502E803D124671
:104E7000987803C333CE33CED8F9FFD3ED1245660D
:104E80004018E49BFFE49AFEEF7803C333CE33CEA1
:104E9000D8F9FFC3ED1245664011900B22E0FF12D6
:104EA0005BD3900B22E004F0024E28900B22E0B579
:104EB0002A06900CAEE004F0900B21E0FD75F0089E
:104EC000900CAD1246764023E4F0C208900CB3E09B
:104ED00004F0ED75F004900CAE124676400DE490AF
:104EE0000CB3F0127EA6127A43C20922900BB612BE
:104EF0001BE9900BB9E4F0A3E4F0900BBB74FFF056
:104F0000A374FFF0900BBDE4F0A3E4F0900BBFE4BA
:104F1000F0A3E4F0900BC1E4F0900BC1E0FF7E0041
:104F2000C3EF940AEE648094804003024FB9900B63
:104F3000B6121BC9900BC1E0FF75F002EFA4F58219
:104F400085F08312185DFFAEF0900BBFEEF0A3EF7B
:104F5000F0900BB9E0FEA3E0FF900BBFE0FCA3E0F4
:104F6000FDD3ED9FEC9E4010900BBFE0FEA3E0FF51
:104F7000900BB9EEF0A3EFF0900BBBE0FEA3E0FFC7
:104F8000900BBFE0FCA3E0FDC3ED9FEC9E501090A2
:104F90000BBFE0FEA3E0FF900BBBEEF0A3EFF090A1
:104FA0000BBFE0FEA3E0FF900BBDEE8FF0121806E2
:104FB000900BC1E004F0024F19900BBDE0FEA3E09E
:104FC000FF900BBBE0FCA3E0FDC3EF9DFFEE9CFE5A
:104FD000900BBDEEF0A3EFF0900BBDE0FEA3E0FF61
:104FE000900BB9E0FCA3E0FDC3EF9DFFEE9CFE90AB
:104FF0000BBDEEF0A3EFF0900BBDE0FEA3E0FFEFE2
:105000007803CEC313CE13D8F9FF900BBDEEF0A3F7
:10501000EFF0900BBDE0FEA3E0FF22900CA4121B6A
:105020008C00000000900CA9121B8C000000007F77
:10503000007E017D007C00900CA9121B0FC3121A88
:105040008C4003025143900CA4121B8C0000000002
:10505000900CA87401F0900CA8E0FF7E00EF4E7059
:1050600003025107900CA4121AF3EF5401FFEE54FF
:1050700000FEED5400FDEC5400FC7B007A0079004A
:105080007800C3121A8C6028900CA4121AF37801CD
:10509000121A9D900CA4121B80900CA4121AF3906B
:1050A00004B0121B0F121A4E900CA4121B80801118
:1050B000900CA4121AF37801121A9D900CA4121BE2
:1050C00080900CA8E0FFE4FCFDFE900CA9121B0FE1
:1050D000121A417B007A0079007800C3121A8C60A2
:1050E00015900CA4121AF39004B0121B0F121A4E52
:1050F000900CA4121B80900CA8E0FFEF25E0FF901D
:105100000CA8EFF0025056900CA4121AF3900CA9C0
:10511000121B0F9004B475F004EB121BBDEA25E0DE
:1051200025E02583F583121B80900CA9121AF37BCE
:10513000017A0079007800121966900CA9121B8080
:1051400002502F22900D94EEF0A3EFF0900D96ED0B
:10515000F0900D96E0FFEF121CEA51640051DA0165
:105160000000526C900D94E0FEA3E0FFEEFF7E0085
:10517000EF540FFF9009FCEFF09009FCE0FFEF9077
:1051800082A593FF9009FCEFF0900D94E0FEA3E060
:10519000FFEEC4F854F0C868FEEFC4540F48FFEFA8
:1051A000540FFF9009FDEFF09009FDE0FFEF9082B2
:1051B000A593FF9009FDEFF0900D94E0FEA3E0FFB2
:1051C000EF540FFF9009FEEFF09009FEE0FFEF9023
:1051D00082A593FF9009FEEFF022900D94E0FEA3CC
:1051E000E0FFD3EF94E7EE9403400A900D9474032C
:1051F000F0A374E7F0900D94E0FEA3E0FF7C007D47
:10520000641217B19009FCEFF09009FCE0FFEF90F9
:1052100082A593FF9009FCEFF0900D94E0FEA3E0CF
:10522000FF7C007D0A1217B17C007D0A1217B1AF16
:10523000059009FDEFF09009FDE0FFEF9082A59346
:10524000FF9009FDEFF0900D94E0FEA3E0FF7C00DD
:105250007D0A1217B1AF059009FEEFF09009FEE04C
:10526000FFEF9082A593FF9009FEEFF0229009BF17
:10527000E0FFEF20E203025362900D48E0FF7E0062
:10528000D3EF9400EE64809480500302534F900D4E
:1052900048E0FF7E00C3EF940AEE648094804003F0
:1052A00002534F9009C3E0FFEF30E4279009C3E0B9
:1052B000FFEF30E51E9009C3E0FFEF54DFFF9009D8
:1052C000C3EFF09009C3E0FFEF54EFFF9009C3EF85
:1052D000F0807C9009C3E0FFEF30E5279009C3E040
:1052E000FFEF20E41E9009C3E0FFEF54DFFF9009B9
:1052F000C3EFF09009C3E0FFEF4410FF9009C3EF44
:10530000F0804C9009C3E0FFEF30E4279009C3E040
:10531000FFEF20E51E9009C3E0FFEF4420FF900956
:10532000C3EFF09009C3E0FFEF4410FF9009C3EF13
:10533000F0801C9009C3E0FFEF4420FF9009C3EF09
:10534000F09009C3E0FFEF54EFFF9009C3EFF09036
:105350000D48E4F09009BFE0FFEF54FDFF9009BF56
:10536000EFF09009BFE0FFEF30E107900D48E00457
:10537000F022900D48E0FF7E00D3EF94C8EE6480E9
:10538000948050059009BFE0FF229009B2E0FEA38F
:10539000E0FFD3EF94F1EE9402501A9009B2E0FED0
:1053A000A3E0FF7BFD7AFF7DAC7C00126D3190099C
:1053B000B8121B80229009B2E0FEA3E0FFD3EF9465
:1053C00070EE9403501A9009B2E0FEA3E0FF7BFA5E
:1053D0007AFF7DC87C00126D319009B8121B8022C3
:1053E0009009B2E0FEA3E0FFD3EF9497EE9404504F
:1053F0001A9009B2E0FEA3E0FF7BF77AFF7DE87C1C
:1054000000126D319009B8121B80229009B2E0FEA3
:10541000A3E0FFD3EF9487EE9405501A9009B2E011
:10542000FEA3E0FF7BC77AFF7DA57C01126D319062
:1054300009B8121B80229009B2E0FEA3E0FFD3EF6F
:10544000941CEE9407501A9009B2E0FEA3E0FF7B93
:105450001F7AFF7D817C03126D319009B8121B8089
:10546000229009B2E0FEA3E0FFD3EF94E4EE9407AC
:10547000501A9009B2E0FEA3E0FF7B227AFE7DDCA9
:105480007C05126D319009B8121B80229009B2E0A0
:10549000FEA3E0FF7B407AFD7DD07C07126D31904A
:1054A00009B8121B8022900AC4121B8C0000000055
:1054B000900AC8121B8C00000000900A33121AF3E5
:1054C000900AC8121B0FC3121A8C506943CF109058
:1054D0000AC8121AF3EF2400FFEE3486FEED340002
:1054E000FDEC3400FC127EC5900ACCEFF0900AC4AB
:1054F000121AF3C004C005C006C0077B017A0A79FE
:10550000CC900B38121B8C00000001D007D006D0C5
:1055100005D004126BB0900AC4121B80900AC81206
:105520001AF37B017A0079007800121966900AC894
:10553000121B808085900A3E121AF3900AC4121B37
:105540000FC3121A8C7075900A33121AF3900AB8AE
:10555000121B80900A3E121AF3900ABC121B809014
:105560000A37E0FF900AB4EFF0900A38E0FF900AA3
:10557000B5EFF0900A39E0FF900AB6EFF0900A3AE2
:10558000E0FF900AB7EFF0900AC0121B8CA55A0FEB
:10559000F07B017A0A79B4C003C002C0017B017AB2
:1055A0000B7911A801AC02AD03D001D002D0037E6B
:1055B000007F101216AA127DDE7F01227F0022904A
:1055C0000A05121BC9900BF97404F0900BFA7402CF
:1055D000F07F007E007D007C001266B97E00EF4EF9
:1055E000701D900A05121BC9900BF97404F0900B02
:1055F000FA7402F07F007E007D007C001266B99094
:105600000A05121BC975820275830012185DFFAE70
:10561000F0C3EF94FFEE94FF5016900A02E0FFEF04
:1056200054FDFF900A02EFF07F007E001272932279
:10563000900A05121BC9900BF97404F0900BFA74D0
:1056400002F07F007E027D007C001266B97E00EFD2
:105650004E701D900A05121BC9900BF97404F0904E
:105660000BFA7402F07F007E027D007C001266B9A6
:10567000900A05121BC975820275830012185DFF1E
:10568000AEF0C3EF94FFEE94FF5016900A02E0FFD5
:10569000EF4402FF900A02EFF07F007E0212729345
:1056A00022900A02E0FFEF54FDFF900A02EFF07F24
:1056B000007E021272937E007F047D00900A051224
:1056C0001BC9121D169009C1E0FFEF4440FF90096D
:1056D000C1EFF022900C35121B80E598542FFF90FB
:1056E0000C3DE0FEEF4EFF900C3FE0FEEF4EF598D4
:1056F000900C3DE0FF7E00EF4E70377F007E007D16
:10570000007C00900C39121B0FC3121A8C700653C8
:1057100098DF0257DB7F017E007D007C00900C3912
:10572000121B0FC3121A8C60030257DB439820022E
:1057300057DBE5C854CFFF900C3EE0FEEF4EF5C8B6
:10574000900C3EE0FF7E00EF4E7041900C39121B32
:105750000F900C35121AF31219AF7B007A01790001
:1057600078001219AF8F8D900C39121B0F900C35E9
:10577000121AF31219AFEF54FFFFEE5400FEED546E
:1057800000FDEC5400FC8F8BC28E804F900C3EE0ED
:10579000FF7E00EF64304E704275CE02900C3912DD
:1057A0001B0F900C35121AF31219AF7B007A017996
:1057B0000078001219AF8FCB900C39121B0F900C90
:1057C00035121AF31219AFEF54FFFFEE5400FEED3D
:1057D0005400FDEC5400FC8FCAD2CAD2AC22900B0C
:1057E00021121B80900B26E5F4F0A2AFE433A3F066
:1057F000AFDFA3E4F0A3EFF0C2AFE4FFFE7D01FC56
:10580000900B21E0F8A3E0F9A3E0FAA3E0FBC312B8
:105810001A8C40787F007E807D017C00900B21E017
:10582000F8A3A3A3E0121A8C501DE5DF54CF442047
:10583000F5DF900B21E0FCA3E0FDA3E0FEA3E02454
:1058400000FFEE34808034E4FFFE7D02FC900B21EB
:10585000E0F8A3E0F9A3E0FAA3E0FBC3121A8C502E
:1058600033E5DF54CF4430F5DF900B21E0FCA3E0BB
:10587000FDA3E0FEA3E02400FFE43EFEED34FFFDC7
:10588000EC34FFFC900B21121B808008E5DF54CF25
:105890004410F5DFE4F5F4900B25E0F5F5900B21CD
:1058A000E0FCA3E0FDA3E0FEA3E0FF7808121A9D50
:1058B0008FF3900B21A3A3A3E0F5F275F1F075F639
:1058C0001043F60200000000800500000000009078
:1058D0000B26E0F5F4900B28A3E0F5DF900B27E012
:1058E00024FF92AF22900B21121B80900B25E5F430
:1058F000F0A2AFE433A3F0AFDFA3E4F0A3EFF0C274
:10590000AFE4FFFE7D01FC900B21E0F8A3E0F9A3DA
:10591000E0FAA3E0FBC3121A8C40787F007E807D02
:10592000017C00900B21E0F8A3A3A3E0121A8C5095
:105930001DE5DF54CF4420F5DF900B21E0FCA3E010
:10594000FDA3E0FEA3E02400FFEE34808034E4FFFA
:10595000FE7D02FC900B21E0F8A3E0F9A3E0FAA39E
:10596000E0FBC3121A8C5033E5DF54CF4430F5DF2F
:10597000900B21E0FCA3E0FDA3E0FEA3E02400FFE8
:10598000E43EFEED34FFFDEC34FFFC900B21121BD6
:10599000808008E5DF54CF4410F5DFE4F5F4900B88
:1059A00021E0FCA3E0FDA3E0FEA3E0FF7808121ACB
:1059B0009D8FF3900B21A3A3A3E0F5F275F1F07591
:1059C000F62043F602000000008005000000000001
:1059D000900B25E0F5F4900B27A3E0F5DF900B2664
:1059E000E024FF92AF22900E2AE599F0900C54E04B
:1059F000FF7E00EF4E7034900E2AE0FF7E00EF64D1
:105A0000A54E701C900E2AE0FF900C56EFF0900E01
:105A10002AE0FF900C55E02FF0900C54E004F022A7
:105A2000900C54E4F0900C55E4F022900C54E0FFFC
:105A30007E00EF64074E707E900C55E0FF900E2ABA
:105A4000E0FEEE6F7065900C58E0FF7E00D3EF949F
:105A500000EE64809480401E9009C0E0FFEF448017
:105A6000FF9009C0EFF09009C0E0FFEF54BFFF9036
:105A700009C0EFF0801C9009C0E0FFEF547FFF9059
:105A800009C0EFF09009C0E0FFEF4440FF9009C06B
:105A9000EFF09009C7E0FFEF54FEFF9009C7EFF069
:105AA000900C54E4F0900C55E4F022900C54E4F087
:105AB000900C55E4F022900E2AE0FF900C54E0FE8A
:105AC00074562EF582E4340CF583EFF0900C54E01C
:105AD00004F0900E2AE0FF900C55E02FF022C0E079
:105AE000C0F0C083C082C0D075D000C000C001C06B
:105AF00002C003C004C005C006C00753B7BFE5B766
:105B000020E503025BB8C2AF7B007D047F00123F3B
:105B1000957B007D107F00123F957B007D087F0400
:105B2000123F957B007D047F04123F957B007D0230
:105B30007F04123F957B007D807F03123F957B00A1
:105B40007D207F03123F957B007D107F03123F95E0
:105B50007B007D087F03123F957B007D047F03124D
:105B60003F957B007D027F03123F957B007D017F87
:105B700001123F957B007D047F01123F957B007DE4
:105B8000107F01123F957B007D207F02123F957BA5
:105B9000007D407F02123F957B007D807F02123F97
:105BA000957B007D017F00123F957B007D027F0089
:105BB000123F95126578D2AFD007D006D005D00439
:105BC000D003D002D001D000D0D0D082D083D0F08A
:105BD000D0E032900B23EFF0F912451B1246629091
:105BE0000B24F0A3EFF0AF01127948AD07AC06909B
:105BF0000B24E0FEA3E0FFD39DEC6480F8EE64800C
:105C0000985014C3E49DFBE49CFAC3EF9BEA6480C4
:105C1000F8EE648098500E900B23E0FF12452C1292
:105C20004620025CB7ECA2E713FEED13FF900B24B5
:105C3000E0FAA3E0FBD31246AF5016ECA2E713FE46
:105C4000ED13FFC3E49FFFE49EFEC3EB1246AF508B
:105C5000231245B1E0FAA3E0FBEAC313FEEB13FF06
:105C6000C3EB9FFBEA9EFAED12452CE0C313FEA3A3
:105C7000E01380321245B1E0FAA3E0FBAE027803F4
:105C8000CEC313CE13D8F9FFC3EB9FFBEA9EFA7580
:105C9000F002ED900A7B121BBDE0FEA3E07803CE7C
:105CA000C313CE13D8F92BFFEA3EFE900B23E0126C
:105CB00045B6EEF0A3EFF0900B2312451BECF0A3DA
:105CC000EDF022900B01121BE99001A8E0FF7E008D
:105CD000EF4E60399001A8E0FF7E00EF64034E6054
:105CE0002C900B01121BC9C003C002C001900B0E07
:105CF000121BC989828A83D001D002D003121D14DD
:105D00009001A8E4F09001A9E4F0A3E4F09001A8C8
:105D1000E0FF7E00EF64034E705F9001ADE4F0A3FE
:105D2000E4F09001A87401F07B017A0179AFC0031F
:105D3000C002C001900B04121BC9900CC2121BE9D7
:105D4000D001D002D0031275AEEF60037F02227B38
:105D5000017A0179AFC003C002C001900B07121B8A
:105D6000C9900CC2121BE9D001D002D0031275AE4B
:105D7000EF60037F03227F00229001A9E0FEA3E0F1
:105D8000FFE4FCFD900B0A121B0FC3121A8C500E7D
:105D90009001A9E4F0A3E4F09001A87401F07F0061
:105DA00022900DF3EFF0900DF4E4F053DCF843DCB7
:105DB00002E58E54C0FF7E00EF64404E7045900DAA
:105DC000F3E0FF7E00EF64804E601D900DF3E0FF76
:105DD0007E00EF64404E6010900DF3E0FF7E00EF18
:105DE00064084E6003025E79900DF3E0FFEF55C545
:105DF000FFEF6008900DF47401F0807D900DF4E4E5
:105E0000F08076E58E54C0FF7E00EF64804E7043D4
:105E1000900DF3E0FF7E00EF64804E701B900DF359
:105E2000E0FFEF55C5FFEF6008900DF47401F080BE
:105E300048900DF4E4F08041900DF3E0FFEF55C47D
:105E4000FFEF6008900DF47401F0802D900DF4E4E4
:105E5000F08026E58E54C0FF7E00EF64C04E7019BE
:105E6000900DF3E0FFEF55C4FFEF6008900DF47460
:105E700001F08005900DF4E4F0900DF4E0FF227B3A
:105E8000027D047F00123F957B027D107F00123F50
:105E9000957B017D207F00123F957B027D087F0569
:105EA000123F957B027D047F04123F957B027D02A9
:105EB0007F04123F957B027D807F03123F957B021A
:105EC0007D207F03123F957B027D107F03123F955B
:105ED0007B027D087F03123F957B027D047F0312C6
:105EE0003F957B027D027F03123F957B027D017F00
:105EF00001123F957B027D047F01123F957B027D5D
:105F0000107F01123F957B027D207F02123F957B1F
:105F1000027D407F02123F957B027D807F02123F0F
:105F2000957B027D017F00123F957B027D027F0001
:105F3000123F957B027D407F01123F957B027D40A1
:105F40007F03123F95229009BFE0FFEF30E61390E8
:105F500009BFE0FFEF54BFFF9009BFEFF07F0212CF
:105F600062359009C8E0FFEF30E5139009C8E0FF03
:105F7000EF54DFFF9009C8EFF07F131262359009EC
:105F8000C8E0FFEF30E4139009C8E0FFEF54EFFFE3
:105F90009009C8EFF07F141262359009C8E0FFEF56
:105FA00030E1139009C8E0FFEF54FDFF9009C8EFFE
:105FB000F07F151262359009C8E0FFEF30E21390D0
:105FC00009C8E0FFEF54FBFF9009C8EFF07F1612FD
:105FD00062359009C8E0FFEF30E0139009C8E0FF98
:105FE000EF54FEFF9009C8EFF07F17126235900959
:105FF000C8E0FFEF30E3139009C8E0FFEF54F7FF6C
:106000009009C8EFF07F1812623522900DA0E4F0DD
:10601000A3E4F0900DA2E4F0127E66900CDB121B5C
:106020008C000086007F007E107D007C001278428C
:10603000900DA0E4F0A3E4F0900DA0E0FEA3E0FF3B
:10604000E4FCFD900A27121B0FD3121A8C40584310
:10605000CF10900DA0E0FEA3E0FFE4FCFDEF2400D4
:10606000FFEE3486FEED3400FDEC3400FC127EC5FC
:10607000900DA2EFF0900DA0E0FEA3E0FFEF240052
:10608000FFEE3410FEE4FCFD900DA2E0FB900D64E9
:10609000EBF0127D94EF70037F0022900DA0E47569
:1060A000F0011218068091900C18E4F0A37410F01F
:1060B0007B017A0A7923900C1A121BE97FF07E8506
:1060C0007D007C00126AA77F0122900C40EEF0A3B5
:1060D000EFF0900C42121BE9900C4574FF121B4D1F
:1060E000EC4D4E4F7003026179900C40E0FCA3E050
:1060F000FD900C42E475F001121BD21216D0FF7E07
:1061000000EF7F00FEEC6EFEED6FFF900C40EEF0B6
:10611000A3EFF0900C49E4F0900C49E0FF7E00C33F
:10612000EF9408EE6480948050AE900C40E0FEA3A3
:10613000E0FFEE30E721900C40E0FEA3E0FFEF250A
:10614000E0FFEE33FEEE6410FEEF6421FF900C40A2
:10615000EEF0A3EFF08017900C40E0FEA3E0FFEF1D
:1061600025E0FFEE33FE900C40EEF0A3EFF0900C34
:1061700049E004F080A20260D8900C40E0FEA3E069
:10618000FF22900E3DEFF053DCF843DC02E58E5425
:10619000C0FF7E00EF64404E7033900E3DE0FF7E06
:1061A00000EF64804E601A900E3DE0FF7E00EF64C9
:1061B000404E600D900E3DE0FF7E00EF64084E7093
:1061C00073900E3DE0FFEFF4FFEF52C522E58E54D1
:1061D000C0FF7E00EF64804E7025900E3DE0FF7E94
:1061E00000EF64804E700C900E3DE0FFEFF4FFEF87
:1061F00052C522900E3DE0FFEFF4FFEF52C422E5BE
:106200008E54C0FF7E00EF64C04E7028900E3DE0BB
:10621000FF7E00EF64024E600D900E3DE0FF7E00B9
:10622000EF64014E700EE5C454FCFF900E3DE0FE9D
:10623000EF4EF5C422900DE7EFF09009BDE0FF7E30
:1062400000C3EF940FEE6480948040059009BDE494
:10625000F0900DE8E4F09009BDE0FF900DE8E0FE5D
:10626000EED39F5063900DE8E0FF74DD2FF582E4DC
:106270003409F583E0FF900DE7E0FEEE6F7041908A
:106280000DE7E0FF7E00EF64154E6034900DE7E00F
:10629000FF7E00EF64164E6027900DE7E0FF7E0062
:1062A000EF64174E601A900DE7E0FF7E00EF641870
:1062B0004E600D900DE7E0FF7E00EF64144E7024F9
:1062C000900DE8E004F0808E900DE7E0FF9009BDAE
:1062D000E0FE74DD2EF582E43409F583EFF09009D9
:1062E000BDE004F022900BFEEEF0A3EFF0900C0066
:1062F000121BE9900C00121BC9900C06121BE990AE
:106300000C04E4F0900C03E0FF900C04E0FEEEC3FC
:106310009F5078900C04E0FF7E00900BFEE0FCA301
:10632000E0FDEF2DFFEE3CFE900C06121BC9900C19
:1063300004E0FD8D827583001216E9FD1272309023
:106340000C04E0FF7E00900BFEE0FCA3E0FDEF2DCF
:10635000FFEE3CFEE4FCFD900CF37402F01274B30B
:10636000900C05EFF0900C06121BC9900C04E0FF96
:106370008F827583001216E9FF900C05E0FEEEB5E2
:106380000791900C04E004F00263047F0122900D59
:10639000CAEFF0900DCBEDF0900DCCEBF0900DCA64
:1063A000E0FFEF121CEA63B60063C40263E6036415
:1063B0000C0400006431900DCBE0FF900DCCE0FDAB
:1063C000127B9622900DCBE0FF7E00EF4E7004C250
:1063D000AD8002D2AD900DCCE0FF7E00EF4E700399
:1063E000C2BD22D2BD22900DCBE0FF7E00EF4E70E9
:1063F0000553A9BF800343A940900DCCE0FF7E0068
:10640000EF4E700453B9BF2243B94022900DCBE048
:10641000FF7E00EF4E700553A97F800343A9809053
:106420000DCCE0FF7E00EF4E700453B97F2243B9DC
:106430008022900DBBEFF0900DBCEDF0900DBBE015
:10644000FFEF54F0FF7E00EF4E7042900DBCE0FF76
:106450007E00EF64014E7019900DBBE0FFEF540F0A
:10646000FFA8077401088002C333D8FCFFEF42D3B2
:1064700022900DBBE0FFEF540FFFA80774010880C6
:1064800002C333D8FCFFEFF4FFEF52D322900DBBD1
:10649000E0FFEF54F0FFEFC4540FF5CE900DBBE0DA
:1064A000FFEF30E008900DBD7420F08006900DBD28
:1064B0007410F0900DBCE0FF7E00EF64014E700997
:1064C000900DBDE0FFEF42C922900DBDE0FFEFF45B
:1064D000FFEF52C922900C9A121B80900CA2E5F497
:1064E000F0A2AFE433FF900CA3EFF0900CA3E0FF19
:1064F0007E00EF4E6002C2AF900CA0E4F0900C9FC3
:10650000E0FF7E00EF4E7015900C9A121AF3900C7B
:106510009EE0FB900B25EBF01257DE801B900C9F4A
:10652000E0FF7E00EF64024E700E900C9A121AF398
:10653000900C9EE0FD127230900C9A121AF3900C9F
:106540009FE0FB900CF3EBF01274B3900CA1EFF012
:10655000900CA2E0FF8FF4900CA3E0FF7E00EF4EC2
:106560006002D2AF900C9EE0FF900CA1E0FEEE6FB7
:1065700060037F00227F0122900A02E0FFEF20E10A
:1065800072900A05121BC9758202758300E475F0CA
:10659000011218CD900A05121BC9900C037404F067
:1065A0007F007E001262E57E00EF4E706C900A055F
:1065B000121BC9900C037404F07F007E001262E588
:1065C0007E00EF4E7053900A05121BC9900C0374A5
:1065D00004F07F007E001262E57E00EF4E703A907C
:1065E0000A05121BC9900C037404F07F007E02128E
:1065F00062E522900A05121BC9758202758300E4C8
:1066000075F000121939900A05121BC9900C037419
:1066100004F07F007E021262E5229009C2E0FF7E54
:1066200000EF4E7005C2B3C2B522D2B7D2B4D2B217
:10663000D2B19009C3E0FFEF30E33F9009C3E0FF20
:10664000EF54F7FF9009C3EFF0D2B3C2B59009C27F
:10665000E0FFEF30E402C2B79009C2E0FFEF30E59F
:1066600002C2B49009C2E0FFEF30E602C2B2900964
:10667000C2E0FFEF30E741C2B1229009C3E0FFEF73
:106680004408FF9009C3EFF0C2B3D2B59009C2E04D
:10669000FFEF30E002C2B79009C2E0FFEF30E10245
:1066A000C2B49009C2E0FFEF30E202C2B29009C268
:1066B000E0FFEF30E302C2B122900BF2121B809098
:1066C0000BF6121BE9900BFDE5F4F0A2AFE433FFEB
:1066D000900BFCEFF0900BFCE0FF7E00EF4E6002B1
:1066E000C2AF900BFAE0FF8FF4900BFBE4F0900B3D
:1066F000F2121AF38F828E83E493FF900BF6121B33
:10670000C9900BFBE0FE8E82758300EF12177D901F
:106710000BF2121AF37B017A0079007800121966E5
:10672000900BF2121B80900BF9E0FF900BFBE00442
:10673000FEF0EEC39F40B7900BFDE0FF8FF4900B8F
:10674000FCE0FF7E00EF4E6002D2AF900BFBE0FF5B
:1067500022900AF1121B80900AF5121BE9900AF1AF
:10676000121AF3900AFC121B8012501B900AF87444
:10677000FF121B4DEC4D4E4F6066900AFC121AF34F
:10678000EF54FFFFEE5400FEED5400FDEC5400FC0E
:10679000900B00EFF0900AFC121AF37808121A9D81
:1067A000900AFC121B80900AFC121AF3900AF51250
:1067B0001BC91216D0FB900B00E0FAEA6BFB75F0D8
:1067C00004EB9004B4121BBD121B0F121A4E900A58
:1067D000FC121B80900AF6E475F001121806808CFA
:1067E000900AFC121AF322900D90EFF0900D91EDAB
:1067F000F0900D90E0FF7E00C3EF941FEE64809454
:10680000805065900D90E0FF7E007401A80708801D
:1068100005C333CE33CED8F9FF900D92EEF0A3EF3F
:10682000F0900D91E0FF7E00EF4E7022900D92E00F
:10683000FEA3E0FFEFF4FFEF52AB900D92E0FEA35A
:10684000E0FFEEFF7E00EFF4FFEF52AC801A900DF8
:1068500092E0FEA3E0FFEF42AB900D92E0FEA3E0DA
:10686000FFEEFF7E00EF42ACE5AD54E0FF900D90EF
:10687000E0FEEF4EF5AD22900E25EFF09009C7E057
:10688000FFEF30E345900E25E0FF7E00EF4E701DD8
:106890009009D9121AF3EF2458FFEE3402FEED34BA
:1068A00000FDEC3400FC9009D9121B80229009D520
:1068B000121AF3EF2458FFEE3402FEED3400FDEC23
:1068C0003400FC9009D5121B8022900E25E0FF7E3B
:1068D00000EF4E70189009D9121AF37B017A0079F3
:1068E0000078001219669009D9121B80229009D5F0
:1068F000121AF37B017A0079007800121966900968
:10690000D5121B8022900E26EFF09009C7E0FFEF12
:1069100030E345900E26E0FF7E00EF4E701D90099B
:10692000D1121AF3EF2480FFEE3451FEED3401FD55
:10693000EC3400FC9009D1121B80229009CD121A70
:10694000F3EF2480FFEE3451FEED3401FDEC340012
:10695000FC9009CD121B8022900E26E0FF7E00EFF6
:106960004E70189009D1121AF37B017A00790078E1
:10697000001219669009D1121B80229009CD121ABB
:10698000F37B017A00790078001219669009CD1224
:106990001B8022C2AF75FEC1AFFFD2AFEF5430FDF6
:1069A0007C0070047920801CED64104C7004791018
:1069B0008012ED64204C700479088008ED64304C3E
:1069C00070027904E924F8601824F8602024F0604B
:1069D00028241C7030900B237401F0A374F4F08011
:1069E00026900B237403F0A374E8F0801A900B2315
:1069F0007407F0A374D0F0800E900B23740FF0A3F3
:106A000074A0F08002E4F9900B23E07002A3E06030
:106A10000C900B2374FFF5F012180680EA2275FE25
:106A20008543FF2053DB7FD2AFC209E4900CB4F062
