:10000000020E5330000302280321033000030228AC
:100010000B210B30000302281321133000030228A8
:100020001B211B3000030228232123300003022858
:100030002B212B3000030228332133300003022808
:100040003B213B30000302284321433000030228B8
:100050004B214B3000030228532153300003022868
:100060005B215B3000030228632163300003022818
:100070006B216B30000302287321733000030228C8
:100080007B217B3000030228832183300003022878
:100090008B218B3000030228932193300003022828
:1000A0009B219B3000030228A321A33000030228D8
:0300B000AB21ABD6
:0301030002165A87
:03010B0002120FCE
:0301130002165E73
:03011B0002167257
:030123000216734E
:03012B0002167445
:030133000216753C
:03013B0002167633
:030143000216772A
:03014B0002167821
:0301530002167918
:0301630002167A07
:03016B0002167BFE
:0301730002167CF5
:03017B0002167DEC
:0301830002167EE3
:03018B0002167FDA
:03019300021680D1
:03019B00021681C8
:10020000E709F608DFFA8046E709F208DFFA803EE0
:1002100088828C83E709F0A3DFFA8032E309F608CD
:10022000DFFA8078E309F208DFFA807088828C8335
:10023000E309F0A3DFFA806489828A83E0A3F608E9
:10024000DFFA805889828A83E0A3F208DFFA804CC3
:1002500080D280FA80C680D4806980F2803380109A
:1002600080A680EA809A80A880DA80E280CA803303
:1002700089828A83ECFAE493A3C8C582C8CCC5837B
:10028000CCF0A3C8C582C8CCC583CCDFE9DEE7804B
:100290000D89828A83E493A3F608DFF9ECFAA9F0CA
:1002A000EDFB2289828A83ECFAE0A3C8C582C8CC20
:1002B000C583CCF0A3C8C582C8CCC583CCDFEADE39
:1002C000E880DB89828A83E493A3F208DFF980CC9B
:1002D00088F0EF60010E4E60C388F0ED2402B40494
:1002E0000050B9F582EB2402B4040050AF2323453B
:1002F000822390025073BB010689828A83E02250D8
:1003000002E722BBFE02E32289828A83E49322BBB6
:10031000010CE58229F582E5833AF583E022500657
:10032000E92582F8E622BBFE06E92582F8E222E50D
:100330008229F582E5833AF583E49322BB010FF825
:10034000E58229F582E5833AF583E028F022500919
:10035000C58229F8E58226F622BBFE09C58229F866
:10036000E22582F222F8EA2583F583E9932822BB6D
:10037000010689828A83F0225002F722BBFE01F334
:1003800022F8BB010DE58229F582E5833AF583E881
:10039000F0225006E92582C8F622BBFE05E9258237
:1003A000C8F222EF8DF0A4A8F0CF8CF0A428CE8D57
:1003B000F0A42EFE22C5F0F8A3E028F0C5F0F8E581
:1003C00082158270021583E038F022A3F8E0C5F0B0
:1003D00025F0F0E582158270021583E0C838F0E858
:1003E00022BB0110E58229F582E5833AF583E0F529
:1003F000F0A3E0225009E92582F886F008E622BB46
:10040000FE0AE92582F8E2F5F008E222E5832AF502
:1004100083E993F5F0A3E99322F8BB0111E5822962
:10042000F582E5833AF583E8F0E5F0A3F022500980
:10043000E92582C8F608A6F022BBFE09E92582C894
:10044000F2E5F008F222EF2BFFEE3AFEED39FDEC7B
:1004500038FC2275F008758200EF2FFFEE33FECDD9
:1004600033CDCC33CCC58233C5829BED9AEC99E574
:100470008298400CF582EE9BFEED9AFDEC99FC0F04
:10048000D5F0D6E4CEFBE4CDFAE4CCF9A88222B8CC
:1004900000C1B90059BA002DEC8BF084CFCECDFC51
:1004A000E5F0CBF97818EF2FFFEE33FEED33FDECDE
:1004B00033FCEB33FB10D703994004EB99FB0FD8C7
:1004C000E5E4F9FA227818EF2FFFEE33FEED33FD65
:1004D000EC33FCC933C910D7059BE99A4007EC9B64
:1004E000FCE99AF90FD8E0E4C9FAE4CCFB2275F0F4
:1004F00010EF2FFFEE33FEED33FDCC33CCC833C805
:1005000010D7079BEC9AE899400AED9BFDEC9AFC0A
:10051000E899F80FD5F0DAE4CDFBE4CCFAE4C8F9B9
:1005200022EF5BFFEE5AFEED59FDEC58FC22EF6B1B
:10053000FFEE6AFEED69FDEC68FC22EB9FF5F0EA48
:100540009E42F0E99D42F0EC6480C864809845F0DA
:1005500022EB9FF5F0EA9E42F0E99D42F0E89C45CF
:10056000F022E8600FECC313FCED13FDEE13FEEF79
:1005700013FFD8F122E0FCA3E0FDA3E0FEA3E0FF1F
:1005800022E0F8A3E0F9A3E0FAA3E0FB227401FF64
:100590003395E0FEFDFCA3A3A3E0CF2FF0E5821589
:1005A0008270021583E0CE3EF0E58215827002155E
:1005B00083E0CD3DF0E582158270021583E0CC3CEE
:1005C000F022ECF0A3EDF0A3EEF0A3EFF022A8826E
:1005D0008583F0D083D0821205E51205E51205E58A
:1005E0001205E5E473E493A3C583C5F0C583C8C5CC
:1005F00082C8F0A3C583C5F0C583C8C582C822A43C
:100600002582F582E5F03583F58322E0FBA3E0FA4D
:10061000A3E0F922F8E0FBA3A3E0F925F0F0E582DE
:10062000158270021583E0FA38F022EBF0A3EAF0AD
:10063000A3E9F022BB010789828A8302060B5005D9
:10064000E9F8020732BBFE05E9F802074489828A0D
:1006500083020756BB011A89828A83D0F0D0E0F862
:10066000D0E0F9D0E0FAD0E0FBE8C0E0C0F002064C
:100670002B5016E9F8D083D082D0E0F9D0E0FAD040
:10068000E0FBC082C08302073BBBFE16E9F8D083C3
:10069000D082D0E0F9D0E0FAD0E0FBC082C0830283
:1006A000074D22BB010DE58229F582E5833AF583EA
:1006B00002060B5007E92582F8020732BBFE07E964
:1006C0002582F8020744E58229F582E5833AF5831D
:1006D000020756BB0120E58229F582E5833AF583BE
:1006E000D0F0D0E0F8D0E0F9D0E0FAD0E0FBE8C0FC
:1006F000E0C0F002062B5018E92582F8D083D082A2
:10070000D0E0F9D0E0FAD0E0FBC082C08302073B22
:10071000BBFE18E92582F8D083D082D0E0F9D0E082
:10072000FAD0E0FBC082C08302074D228A8389820F
:10073000E473E6FB08E6FA08E6F922EBF608EAF6C7
:1007400008E9F622E2FB08E2FA08E2F922EBF208F5
:10075000EAF208E9F222E493FB740193FA7402933B
:10076000F9229008EE7403F0E4FF1212D49008EF1F
:100770001205C29008EF120575E4FFFEFDEC54F07F
:10078000FCE4FBFAF97890C3120551500302083AD1
:100790009008EF120575E4FFFEFDEC540FFCE478C1
:1007A00009C3120551500302083A9008EF1205756B
:1007B000E4FFFEED54F0FDE4FC7990F8C31205511E
:1007C00040789008EF120575E4FFFEED540FFDE44C
:1007D000FC7909F8C312055140609008EF120575C5
:1007E000E4FFEE54F0FEE4FDFC7A90F9F8C3120544
:1007F0005140479008EF120575E4FFEE540FFEE4F8
:10080000FDFC7A09F8C3120551402F9008EF12053C
:1008100075EF54F0FFE4FEFDFC7B90FAF8C312057F
:100820005140179008EF120575EF540FFFE4FEFDDD
:10083000FC7B09F8C3120551500A9008EF1205CE4F
:10084000000000007F011212D49008F31205C212BA
:1008500015301215129008E3E0FF9008CFE06F709A
:100860002C9008E4E0FF9008D0E0B507209008E560
:10087000E0FF9008D1E0B507149008E6E0FF90088B
:10088000D2E0B507089008EE7401F080069008EEFB
:100890007403F09008EEE064017015A312057590E2
:1008A00008F3120581D312055140059008EE803FF0
:1008B0009008E3E0FF9008BFE06F702B9008E4E041
:1008C000FF9008C0E0B5071F9008E5E0FF9008C161
:1008D000E0B507139008E6E0FF9008C2E0B507070F
:1008E000E49008EEF0800B9008EEE0640170037471
:1008F00002F09008EEE0FD7C0070037F0122ED64C1
:10090000024C7012120DAEEF60037F0122120DAE89
:10091000EF60037F01227F00229009131205C2902D
:100920000918E5F4F0A2AFE433A3F0AFDFA3E4F0DD
:10093000A3EFF0C2AFE4FFFE7D01FC900913E0F8E5
:10094000A3E0F9A3E0FAA3E0FBC312055140787FCE
:10095000007E807D017C00900913E0F8A3A3A3E052
:10096000120551501DE5DF54CF4420F5DF900913E7
:10097000E0FCA3E0FDA3E0FEA3E02400FFEE348052
:100980008034E4FFFE7D02FC900913E0F8A3E0F957
:10099000A3E0FAA3E0FBC31205515033E5DF54CFC7
:1009A0004430F5DF900913E0FCA3E0FDA3E0FEA3D3
:1009B000E02400FFE43EFEED34FFFDEC34FFFC904C
:1009C00009131205C28008E5DF54CF4410F5DFE4B7
:1009D000F5F4900917E0F5F5900913E0FCA3E0FDAC
:1009E000A3E0FEA3E0FF78081205628FF3900913DD
:1009F000A3A3A3E0F5F275F1F075F61043F602003B
:100A000000000080050000000000900918E0F5F4E7
:100A100090091AA3E0F5DF900919E024FF92AF22B4
:100A200090090C1205C2900910E5F4F0A2AFE4336E
:100A3000A3F0AFDFA3E4F0A3EFF0C2AFE4FFFE7DCD
:100A400001FC90090CE0F8A3E0F9A3E0FAA3E0FBB5
:100A5000C312055140787F007E807D017C009009A3
:100A60000CE0F8A3A3A3E0120551501DE5DF54CF1D
:100A70004420F5DF90090CE0FCA3E0FDA3E0FEA319
:100A8000E02400FFEE34808034E4FFFE7D02FC9021
:100A9000090CE0F8A3E0F9A3E0FAA3E0FBC3120518
:100AA000515033E5DF54CF4430F5DF90090CE0FCC2
:100AB000A3E0FDA3E0FEA3E02400FFE43EFEED344E
:100AC000FFFDEC34FFFC90090C1205C28008E5DF45
:100AD00054CF4410F5DFE4F5F490090CE0FCA3E0FA
:100AE000FDA3E0FEA3E0FF78081205628FF39009F2
:100AF0000CA3A3A3E0F5F275F1F075F62043F6021E
:100B00000000000080050000000000900910E0F5E2
:100B1000F4900912A3E0F5DF900911E024FF92AFF1
:100B2000229008EEEFF0A31205CE0000000012158F
:100B3000129008E3E0FF9008BFE06F6003020C171B
:100B40009008E4E0FF9008C0E06F6003020C17908B
:100B500008E5E0FF9008C1E06F6003020C17900801
:100B6000E6E0FF9008C2E06F6003020C179008EE09
:100B7000E070037F01227FF07E0F7D5A7CA59008F4
:100B8000CB120581C312055160037F01229008F347
:100B90001205CE000000009008C31205759008F3FE
:100BA000120581C3120551505843CF109008F3121B
:100BB0000575E42FFFEE3428FEE43DFDE43CFC1215
:100BC000164A9008F7EFF07B017A0879F79008FF52
:100BD0001205CE000000019008EF120575120EF00C
:100BE0009008EF1205C29008F3120575EF2401FF7B
:100BF000E43EFEE43DFDE43CFC9008F31205C280B7
:100C0000969008C7120575EC9008EF120581C31283
:100C1000055170037F01227F0022EF14603A1460B7
:100C200058146073147003020CB5147003020CD3D3
:100C300024056003020CF0EB14601114601624020A
:100C40006003020CF0EDF4529A529B22EDF4529A9A
:100C5000ED429B22ED429A22EB146011146016249F
:100C6000026003020CF0EDF45291529222EDF45224
:100C700091ED429222ED429122EB14600E1460132A
:100C80002402706CEDF452A152A222EDF452A1EDB7
:100C900042A222ED42A122EB14600E146013240242
:100CA000704EEDF452B152B222EDF452B1ED42B2B7
:100CB00022ED42B122EB14600E1460132402703056
:100CC000EDF452C152C222EDF452C1ED42C222ED06
:100CD00042C122EB14600E14601324027012EDF472
:100CE00052D952DA22EDF452D9ED42DA22ED42D94C
:100CF000229008EE1205C2E598542FFF9008F6E006
:100D0000FE4FFF9008F8E04FF598EE702AFFFEFDC9
:100D1000FC9008F2120581C312055170045398DF4C
:100D200022E47F01FEFDFC9008F2120581C312054A
:100D300051707A43982022E5C854CFFF9008F7E01D
:100D4000FE4FF5C8EE702E9008F21205819008EE65
:100D500012057512048FE4FB7A01F9F812048F8FE3
:100D60008D9008F21205819008EE12057512048F1D
:100D70008F8BC28E229008F7E06430703075CE02FF
:100D80009008F21205819008EE12057512048FE4A6
:100D9000FB7A01F9F812048F8FCB9008F2120581CB
:100DA0009008EE12057512048F8FCAD2CA22E49001
:100DB00008F7F0A3F0A3F01215309008FE1205CE4C
:100DC000000094007E28121251E49008F7F0A3F07E
:100DD0009008F7E0FEA3E0FFE4FCFD9008D31205C5
:100DE00081D3120551404B43CF109008F7E0FEA38A
:100DF000E0FFE42FFFEE3494FEE433FDE433FC1215
:100E0000164A9008F9EFF0FB9008F8E02400FF90F4
:100E100008F7E03428FEE4FCFD900909EBF0121518
:100E2000C5EF7002FF229008F7E475F0011203B5D8
:100E3000809E9008FEE4F0A37410F07B017A08799C
:100E4000CFA312062B7FF07E937D007C00120FE46F
:100E50007F012278FFE4F6D8FD9000007F007E013C
:100E6000E4F0A3DFFCDEFA758121020EA80211C1B5
:100E7000E493A3F8E493A34003F68001F208DFF4BF
:100E80008029E493A3F85407240CC8C333C4540F37
:100E90004420C8834004F456800146F6DFE4800B0A
:100EA00001020408102040809013B6E47E01936094
:100EB000BCA3FF543F30E509541FFEE493A3600137
:100EC0000ECF54C025E060A840B8E493A3FAE493A1
:100ED000A3F8E493A3C8C582C8CAC583CAF0A3C84F
:100EE000C582C8CAC583CADFE9DEE780BE120575C0
:100EF0009008F81205C29008FC12062B9009031204
:100F000005CE000000009008FF120575900903123D
:100F10000581C312055150529008F8120581C00096
:100F2000C001C002C0039009031205759008FC12AD
:100F3000060B8F828E8312030FFFE4FCFDFED003AD
:100F4000D002D001D0001204469008F81205C290D9
:100F50000903120575EF2401FFE43EFEE43DFDE4C4
:100F60003CFC9009031205C2809C9008F8020575AC
:100F700090090A1205C2900911E5F4F0A2AFE4331A
:100F8000A3F0E06002C2AFE4900910F090090FE016
:100F9000701390090A12057590090EE0900917F078
:100FA000120919801690090FE06402700E90090A68
:100FB00012057590090EE0FD12104B90090A1205FA
:100FC0007590090FE0900917F0121386900911E04F
:100FD000F5F4A3E06002D2AF90090EE06F7F0160EC
:100FE000027F00229008FA1205C2E4900903F0A3E0
:100FF000F09008FEE0FCA3E0FD900903E0FEA3E012
:10100000FFC39DEC6480F8EE648098503BEE33950E
:10101000E0FDFC9008FA12058112044690090012C6
:10102000060B900903E0F8A3E0F582888312030F12
:10103000900909F01215C5EF7002FF22900903E430
:1010400075F0011203B580A97F0122AB07AA0690B3
:101050000913E5F4F0A2AFE433A3F0AFDFA3E4F0AB
:10106000A3EFF0C2AF75F402AF058FF5EAF5F3AF69
:10107000038FF2AFF3EFFEADF27C00E42DEC3EC344
:101080009418501475F1F075F61043F60200000044
:101090000080050000000000900913E0F5F49009BD
:1010A00015A3E0F5DF900914E024FF92AF22AD070D
:1010B000AC0690090CE5F4F0A2AFE433A3F0AFDF87
:1010C000A3E4F0A3EFF0C2AF75F402ECF5F3AF05C3
:1010D0008FF2AFF3EFFEADF27C00E42DEC3EC39453
:1010E00018501475F1F075F62043F6020000000068
:1010F0008005000000000090090CE0F5F490090E56
:10110000A3E0F5DF90090DE024FF92AF229008FBE9
:101110001205C2E4900904F0A3F09008FFE0FCA3DC
:10112000E0FD900904E0FEA3E0FFC39DEC6480F8BD
:10113000EE6480985033EE3395E0FDFC9008FB128E
:10114000058112044612164A90090112060B9009F5
:1011500004E0FCA3E0F5828C83EF12038190090484
:10116000E475F0011203B580B12290001912060B4C
:10117000900015E0FCA3E0F5828C83EF12038190D0
:101180000015E475F0011203B5900017E475F00145
:101190001203B590001912060B1202F6FF641860D4
:1011A00005EF64047007E4900015F0A3F0C390000D
:1011B00016E09485900015E094004004E4F0A3F05C
:1011C000221216621216667B017A0079A89008F145
:1011D00012062B7BFF7A15796B1214127F011216FF
:1011E0000D1215879008BE7408F043CF109008BE0A
:1011F000E06004E4F080F31207627F01120B21EF3C
:1012000060081215A012166980E012166C80DBC00F
:10121000E0C0F0C083C082C0D075D000C000C00163
:10122000C002C003C004C005C006C0077F007E83A3
:101230001216521213E5D007D006D005D004D00301
:10124000D002D001D000D0D0D082D083D0F0D0E076
:10125000327F007D007C0080319008FE1205759081
:1012600008FA120581C3120551502743CF10900888
:10127000FA12057512154E9008FA120575E42FFF43
:10128000EE3402FEE43DFDE43CFC9008FA1205C297
:1012900080C7229008EEECF0A3EDF0EF1460151477
:1012A000601D1460232403702A9008EEE0FEA3E082
:1012B000FF0215D79008EEE0FEA3E0FF02161E9095
:1012C00008EEA3E0FF02162C9008EEA3E0FFAD03AA
:1012D00012163722EF9008FF6016E4F0A37404F0B2
:1012E0007B017A0879F7A312062B7F007E96801483
:1012F000E4F0A37404F07B017A0879F7A312062BBB
:101300007F007E2A7D007C0012110D9008F70205F7
:10131000757B017D017F02120C1A7B017D027F0229
:10132000120C1A9008F21205CE0001C2009008F6C5
:101330007440F0E4A3F0A37410F07F007E487DE8D1
:101340007C01120CF1E4FD7F010215FB9001ADE080
:10135000FCA3E024AFF58274013CF583EFF090012B
:10136000ADE475F0011203B5D39001AEE0940090A6
:1013700001ADE094024004E4F0A3F0EFB40D069058
:1013800001A87403F0229009131205C2ABF4A2AFB6
:10139000E433FA6002C2AF900917E0F5F490091344
:1013A0001205758F828E83E493FFAE038EF4AE0236
:1013B000EA6002D2AF224404B0EDB883204100219C
:1013C000004100A700410003004108BE00C10844DD
:1013D00008E3AA5555AA4408EA000000004408DFC3
:1013E0000000000000900005120575EF2401FFE4E5
:1013F0003EFEE43DFDE43CFC9000051205C2900079
:1014000013E475F0011203B59001A9E475F001022F
:1014100003B59008EE12062B9008B67401F0E4A311
:10142000F0A3F0A3F0A3F09008F112060B9008BB14
:1014300012062B9008EE12060B9008E702062BEF1F
:10144000FB7A007005538EFE8009EB64014A70033D
:10145000438E01EDFF7E00640170045389FB22EF8F
:1014600064024E700343890422900906EFF0E49071
:10147000090BF0EF7009900907120575020A209018
:101480000906E064027007A31205751210AE2290DF
:10149000000DEFF09000117403F0A374E8F09000D9
:1014A0001912062BE4900015F0A3F0A3F0A3F0901E
:1014B000000FF022900004EFF0A31205CE00000010
:1014C000009008EF1205759000091205C29001A85E
:1014D0007401F022AE077B017A0079227F01121499
:1014E0008FAF06C0079008EF1205CE00000FA0D006
:1014F000070214B47D017F0112143FE4FBFAFD7C66
:10150000837F01121293E4FD7F011215E97F01022E
:1015100016419008FFE4F0A37410F07B017A08797B
:10152000BFA312062B7FF07E937D007C0002110D7D
:101530009008FFE4F0A37410F07B017A0879CFA340
:1015400012062B7FF07EFF7D007C0002110D9009BA
:10155000021205C29009021205759009071205C210
:1015600090090B74F0F0E4FF021469900004E02489
:10157000FE600D146008240324FB500280008003E9
:1015800002116A12134C2275FEC29008B5E5FFF0F5
:1015900043FF0C75FEC19008B4E5FFF075FB852292
:1015A00075FEC29008B5E0F5FF75FEC19008B4E085
:1015B000F5FF2212167012166F1213111214F41284
:1015C0001671D2AF22900909E090090EF0E4A3F061
:1015D000A374F0F0020F705389FC8F8AEF7805CE68
:1015E000C313CE13D8F9F58C22EF7004C2A9800280
:1015F000D2A9ED7003C2B922D2B922EF7004C2ACF5
:101600008002D2ACED7003C2BC22D2BC22EF339573
:10161000E04F70047F058002E4FF1214D422538946
:10162000FC438901AD078D8AEEF58C225389FC437A
:1016300089028F8A8F8C224389038F8AAF058F8C12
:1016400022EF7003C28C22D28C22E4900917F002A0
:101650001386AD078D8AEEF58C225388FD325388B0
:10166000F732E4F520220215B3022900020000221D
:10167000222232323232323232323232323232326A
:02168000323204
:00000001FF
