:03000000020C8867
:100C880078FFE4F6D8FD9000007F007E03E4F0A32F
:0A0C9800DFFCDEFA758130020CDD8E
:0B122800042A00000000012E00C1029B
:1011FB00538EFE5389F0858989758CE0758A18C2E8
:08120B008DC28CD2A9D28C2205
:03000B0002127B63
:09127B00758CE0758A18D202326C
:10111D0075CF10759AFF759BFF7591FF7592FF75D1
:10112D00A1FF75A2FF75D9FF75DAFF7580FF759068
:0C113D00FF75A0FFE4F5D8D2AF0211FB53
:1011E200900033E030E711547FF01209F88F2D8E12
:0911F2002C8D2B8C2A12129F2275
:1011BF0012111D120D2275CF103002FAC202052E28
:1011CF00D3E52E940A7480948040EBE4F52E12112F
:0311DF00E280E3C8
:101003000000000000000007000A0BB8012C00C814
:1010130000020000000000020064000AFFFFFFFF5F
:10102300000A033204081F0501D1033204081F0517
:1010330001D1033204081F0501D1033204081F053F
:0510430001D10A0A20A2
:041233004100430033
:0B125B0090100DE493FE740193FF223D
:0B126600901011E493FE740193FF222E
:0812840090100B740193FF228E
:03129C007F0122AD
:10114900AD07ED75F008A4242BF582E43410F5837E
:10115900E493FEED75F008A4242CF582E43410F52F
:0C11690083E4937C002400FFEC3EFE2297
:10123C00EF75F008A42428F582E43410F583E493C8
:02124C00FF227F
:08128C00901005740193FF228C
:0D124E00742D2FF582E43400F583E0FF22BB
:08129400900000E0C313FF22EB
:0A127100900000E075F00384FF22F6
:10121300121149EF7803C333CE33CED8F9FF7C00E4
:051223007D0A020B3200
:100F7100E4FBFA750B0FF50AF509F508EBC3941FAD
:100F8100748094805032AF0BAE0AAD09AC08780181
:100F9100120BBB8F0B8E0A8D098C0830D717740D7D
:100FA1002AF582E43400F583EBF00AEAC394047471
:0A0FB10080948050030B80C48A294D
:010FBB002213
:1010EB00EF14601214601414601814601A24047046
:1010FB001E90102580089010268003901027E493F3
:10110B00FF22E4FF02124E901017740193FF227F0F
:02111B000022B0
:100FBC00901009740193900000F090102374019329
:100FCC00900036F0120F71E4FFEFC395295020EF1B
:100FDC0075F008A42429F582E43410F583E493FE1B
:100FEC00742D2FF582E43400F583EEF00F80DAE4F3
:060FFC00900034F0A3F0A8
:0110020022CB
:1009F800E4F508F510F50FF50EF50D1212A25003E7
:100A0800020B0C12119A8F0C8E0B8D0A8C09E4FBC9
:100A1800EBC395295047AF0CAE0BAD0AAC09780172
:100A2800120BBB8F0C8E0B8D0A8C0930D72CE47FF0
:100A380001FEFDFC740D2BF582E43400F583E0F92A
:100A4800F8120BCEE5104FF510E50F4EF50FE50E39
:100A58004DF50EE50D4CF50D05080B80B3AF087E7E
:100A680000C3EF9402748094804018D200EF94037E
:100A78007480948040051212A5800812128CEF60D1
:100A880002C20020002CE4FFFEFDFCAB10AA0FA957
:100A98000EA80DC3120BAA6010900035E004F07088
:100AA80006900034E004F08020E4900034F0A3F0D5
:100AB8008017900032E004F07006900031E004F0F6
:100AC800E4F510F50FF50EF50D12125BD390003515
:100AD800E09F900034E09E400A1212A5E490003492
:100AE800F0A3F0D3900032E0942C900031E0940110
:100AF800401D1212A59000437401F0E4900031F0FB
:100B0800A3F0800B901013E4740193FF1206F0AF6A
:070B180010AE0FAD0EAC0D95
:010B1F0022B3
:03005B0002104848
:10104800C0E0C0F0C083C082C0D075D000C000C06E
:1010580001C002C003C004C005C006C007120DB914
:10106800D007D006D005D004D003D002D001D000DC
:0B107800D0D0D082D083D0F0D0E03286
:0412370041004A0028
:100EA100C2AF75FEC1ADFFD2AF530530EDFB7A0085
:100EB10070047920801CEB64104A70047910801250
:100EC100EB64204A700479088008EB64304A7002B0
:100ED1007904E924F8601224F8601424F0601624DF
:100EE1001C70187E017FF480147E037FE8800E7EE3
:100EF100077FD080087E0F7FA08002E4F9EF4E606B
:080F010007EF1F70F81E80F5D8
:010F090022C5
:020BE1008F1B68
:100BE30012124E90004DEFF0AF1B12123CEFFB9030
:100BF3000047E025E0FF900046E033FE7C007D0ADD
:100C0300120B32AD037C00120B2075F002E51BA41E
:100C13002401F582E5F03400F583E0FCA3E0C39FF3
:100C2300EC9E500990004DE0605A148047AF1B12B0
:100C3300123CEFFB900046E0FEA3E0FF7C007D0743
:100C4300120B207D0A120B32AD037C00120B2075B0
:100C5300F002E51BA42401F582E5F03400F583E0FE
:100C6300FCA3E0D39FEC9E401B90004DE0FF647E0D
:100C73006012EF04FF742D251BF582E43400F58325
:040C8300EFF0D201BB
:010C8700224A
:100DB900C20390004BE075F002A42411F582E5F01E
:100DC9003400F583E5E5F0A3E5E4F090004BE00499
:100DD900F0E0C39529400BE4F0900033E04480F043
:100DE9008002D20390004BE0FF12123C7E0090007B
:100DF90046E0FCA3E0FD120B208EE78FE690004B46
:100E0900E0FF12124EE5E254804FF5E290004BE00C
:100E1900240DF582E43400F583E04480F5E83003DD
:030E290002D2EE04
:010E2C0022A3
:100D220075FE8543FF2053DB7FD2AFC201E4900002
:100D32004BF0900033F0120FBCE4FF1210EBEF24E3
:100D420001FDE433FC7E0F7FA0120B32900046EED1
:100D5200F0A3EFF0E4FF12123C7E00900046E0FCAC
:100D6200A3E0FD120B208EE78FE67F021210EBEF5D
:100D7200C454F0FEC006E4FF1210EBD0E02FF5E100
:100D82007F031210EBE5E254804FF5E27F0412106C
:100D9200EBEF6008E5E254804480F5E27F01121037
:100DA200EB8FE3120F0A43A91090000DE04480F587
:070DB200E8120E2D02108370
:03129F00D2EE226A
:10117500E4FC900033E0547FF0D2EE900033E0546D
:10118500807011120EA143CF100CECC394647480CF
:04119500948040E71B
:011199002233
:100E2D00901047E493F508121175E4F509E509C32F
:100E3D009529503375F002E509A42411F582E5F0EA
:100E4D003400F583E0FEA3E0FF75F002E509A4246C
:100E5D0001F582E5F03400F583EEF0A3EFF0AF0974
:100E6D00120BE1050980C6AF081508EF70B9121015
:100E7D00B71212848F08121175E4F509E509C395AF
:100E8D00295009AF09120888050980F0AF08150827
:030E9D00EF70E310
:010EA000222F
:10108300E4FFEFC39529502B75F002EFA42411F56B
:1010930082E5F03400F583E0FCA3E0FD75F002EF98
:1010A300A42401F582E5F03400F583ECF0A3EDF020
:0310B3000F80CFDC
:0110B6002217
:10119A00E490004CF0F511E511C39529500EAF11FA
:1011AA00120888AF11120100051180EBAF24AE239B
:0411BA00AD22AC2195
:0111BE00220E
:020100008F125C
:10010200E4F51A75F002EFA42401F582E5F034005B
:10011200F583E0FEA3E0FF75F002E512A42411F5D9
:1001220082E5F03400F583E0FCA3E0C39FF514EC14
:100132009EF513E47F01FEFDFCA912A801120BCE6D
:100142008F288E278D268C25AF121211498E188F7B
:1001520019C3E5149519E5186480F8E513648098CD
:1001620040057515018003E4F515E515640160038A
:1001720002031474192512F582E43400F583E0C3F6
:1001820094FA74809480500E74192512F582E43426
:1001920000F583E004F0E5245528FFE5235527FE0A
:1001A200E5225526FDE5215525FCE4FBFAF9F8C3C5
:1001B200120BAA60030202DA900000E0F517121295
:1001C2009CEF6038E4F515F516E516C39529501B2A
:1001D20074192516F582E43400F583E0C3940174A2
:1001E20080948040020515051680DEC3E515940350
:1001F200748094804006740F2517F5177419251220
:10020200F582E43400F583E0C3951750030202DA65
:10021200E4F51512128CEF7061F516E516C39529F7
:100222005022E5126516601812127174192516F51E
:1002320082E43400F583E0C39F4005751501800414
:10024200051680D712129CEF3395E04F706AE515C0
:100252007066F516E516C39529505DE512651660C0
:1002620015121271741D2516F582E43400F583E02F
:10027200C39F4002803F051680DA12129CEF33952D
:10028200E04F7034F517F516E516C39529501B7427
:10029200192516F582E43400F583E0C394027480D4
:1002A200948040020517051680DEC3E51794037497
:1002B2008094804003751501E51564017002D20037
:1002C200E5244528F524E5234527F523E52245269F
:1002D200F522E5214525F52174292512F582E4341C
:1002E20000F583E4F0743F2512F582E43400F583CF
:1002F200E4F075F002E512A42421F582E5F0340061
:10030200F583E4F0A3F074092512F582E4340002C7
:100312000682AF12121213D3E5149FEE6480F8E541
:10032200136480984010741D2512F582E43400F5A0
:1003320083E004F0801390004CE004F0741D251259
:10034200F582E43400F583E4F0900036E0FF339563
:10035200E0FEC3E49FFDE49EFCC3E5149DEC6480D3
:10036200F8E513648098500302045AD3E5149FEE13
:100372006480F8E513648098400302045A742925C6
:1003820012F582E43400F583E4F074092512F58253
:10039200E43400F583E4F0FFFEFDFCAB24AA23A9BC
:1003A20022A821C3120BAA60030205AA75F002E576
:1003B20012A42421F582E5F03400F583E5138514B7
:1003C200F0120B8712126675F002E512A42421F5D1
:1003D20082E5F03400F583E0FCA3E0C39FEE648085
:1003E200F8EC648098401675F002E512A42401F539
:1003F20082E5F03400F583E475F001804112126663
:10040200C3E49FFFE49EFE75F002E512A42421F5E9
:1004120082E5F03400F583E0FCA3E0C39FEE648044
:10042200F8EC64809840030205AA75F002E512A474
:100432002401F582E5F03400F58374FFF5F0120B28
:100442008775F002E512A42421F582E5F03400F567
:1004520083E4F0A3F00205AA900036E0FF3395E0B2
:10046200FEC3E49FFFE49EFEC3E5149FEE6480F8A2
:10047200E513648098400302052374292512F5824E
:10048200E43400F583E004F074092512F582E434C3
:1004920000F583E4F074292512F582E43400F58333
:1004A200E0FD901045E493FFED8FF084E5F070607D
:1004B20090104693FEEF8EF0A4FFC3ED9FE5F0642B
:1004C20080F8748098401674292512F582E434006D
:1004D200F583E4F0D20190004304F0803375F0021A
:1004E200E512A42401F582E5F03400F583C083C04F
:1004F20082E0FEA3E0FF900036E0A2E713FD339511
:10050200E0FCC3EF9DFFEE9CD082D083F0A3EFF01E
:10051200900045E0651260030205AA74FFF002052F
:10052200AA900036E0FF3395E0FED3E5149FEE6417
:1005320080F8E513648098406F74292512F582E4EF
:100542003400F583E4F0FFFEFDFCAB24AA23A922CC
:10055200A821C3120BAA705074092512F582E43443
:1005620000F583E004F074092512F582E43400F505
:1005720083E06420703274092512F582E43400F5B8
:1005820083E4F0900036E0A2E713A2E713FF33956D
:10059200E0FE75F002E512A42401F582E5F03400D4
:1005A200F583EE8FF0120B87E5245528FFE52355DE
:1005B20027FEE5225526FDE5215525FC4D4E4F70BF
:1005C20003020696AE18E5197802CEA2E713CE13FF
:1005D200D8F8FFC3E5199FFFE5189EFEC3E5149FF7
:1005E200EE6480F8E5136480984003020687743F46
:1005F2002512F582E43400F583E004F01212948FA0
:1006020017E4F516E516C39529501B74192516F53E
:1006120082E43400F583E0C3940174809480400244
:100622000515051680DEC3E5159403748094804099
:1006320006900000E0F517743F2512F582E43400BD
:10064200F583E0C3951750030206EF743F2512F5B8
:1006520082E43400F583E4F0AF28AE27AD26AC2562
:10066200120B9DE5245FF524E5235EF523E5225D6B
:10067200F522E5215CF52174192512F582E4340096
:10068200F583E4F022743F2512F582E43400F58309
:10069200E014F02274192512F582E43400F583E4A3
:1006A200F0FFFEFDFCAB24AA23A922A821C3120B52
:1006B200AA7005AF12120BE1E529146512702E9093
:1006C200004CE0C395294025E4F516E516C39529AB
:1006D200501574192516F582E43400F583E06003A1
:0D06E200751501051680E4E5157002C200D3
:0106EF0022E8
:1010B700E4FFEFC39529502B75F002EFA42411F537
:1010C70082E5F03400F583E0FCA3E0FD75F002EF64
:1010D700A42437F582E5F03400F583ECF0A3EDF0B6
:0310E7000F80CFA8
:0110EA0022E3
:020888008F13CC
:10088A0075F002EFA42437F582E5F03400F583E031
:10089A00FEA3E0FF75F002E513A42411F582E5F04A
:1008AA003400F583E0FCA3E0C39FF515EC9EF51434
:1008BA00AF13121149AD07AC06D3E5159DEC648060
:1008CA00F8E5146480985016C3E49DFFE49CFEC3C7
:1008DA00E5159FEE6480F8E514648098501875F069
:1008EA0002E513A42411F582E5F03400F583E0FE55
:1008FA00A3E0FF0209B8ECA2E713FEED13FFD3E56C
:10090A00159FEE6480F8E5146480985016C3E49F3E
:10091A00FFE49EFEC3E5159FEE6480F8E51464804B
:10092A0098504175F002E513A42437F582E5F034B6
:10093A0000F583E0FCA3E0FDECC313FEED13FFC357
:10094A00ED9FFDEC9EFC75F002E513A42411F582DF
:10095A00E5F03400F583E0C313FEA3E0132DFFECAA
:10096A003EFE804A75F002E513A42437F582E5F0CD
:10097A003400F583E0FCA3E0FDAE047803CEC31394
:10098A00CE13D8F9FFC3ED9FFDEC9EFC75F002E58E
:10099A0013A42411F582E5F03400F583E0FEA3E008
:1009AA007803CEC313CE13D8F92DFFEC3EFE75F0B3
:1009BA0002E513A42437F582E5F03400F583EEF05E
:1009CA00A3EFF075F002E513A42437F582E5F034BD
:1009DA0000F583E0FEA3E0FF75F002E513A42411FD
:0D09EA00F582E5F03400F583EEF0A3EFF0A8
:0109F70022DD
:0312A200A2012284
:0312A500D2012251
:100F0A00E4FFEFC39529504674192FF582E43400A3
:100F1A00F583E4F074292FF582E43400F583E4F0D4
:100F2A00743F2FF582E43400F583E4F075F002EFA4
:100F3A00A42421F582E5F03400F583E4F0A3F074EB
:100F4A001D2FF582E43400F583E4F00F80B4E4F554
:100F5A0024F523F522F52190004574FFF0E4900072
:060F6A0048F0A3F0C201F3
:010F7000225E
:0206F0008F1168
:1006F20090004AE0C3940374809480404AE4F090EE
:100702000043E07037F512E512C39529502E75F0BB
:1007120002E512A42437F582E5F03400F583E0FE09
:10072200A3E0FF75F002E512A42401F582E5F0349E
:1007320000F583EEF0A3EFF0051280CB120F0AC290
:1007420001E4900043F022900044E004F0E0B5118F
:10075200081210B7E4900045F0900044E0D39511E0
:100762005003020887E4F512E512C39529400302FB
:10077200083775F002E512A42437F582E5F034005B
:10078200F583E0FEA3E0FF75F002E512A42411F563
:1007920082E5F03400F583E0FCA3E0C39FFFEC9E0A
:1007A200AD07FC900043E07042900036E0FB3395C9
:1007B200E0FAFEEB7802C333CE33CED8F9FFD3EDA5
:1007C2009FEE6480F8EC6480984060E49BFFE49ABA
:1007D200FEEF7802C333CE33CED8F9FFC3ED9FEEDE
:1007E2006480F8EC6480985042804A900036E0FBC6
:1007F2003395E0FAFEEB7803C333CE33CED8F9FF5C
:10080200D3ED9FEE6480F8EC648098401EE49BFF79
:10081200E49AFEEF7803C333CE33CED8F9FFC3EDAB
:100822009FEE6480F8EC648098400AAF1212088848
:10083200051202076AE512B52906900045E004F0A8
:10084200E51175F008A4FF900044E0C39FE5F06451
:1008520080F8748098402EE4F0C20090004AE004D0
:10086200F0E51175F004A4FF900045E0C39FE5F0A8
:100872006480F8748098400DE490004AF01210836E
:05088200120F0AC20183
:01088700224E
:100CA2000211BFE493A3F8E493A34003F68001F298
:100CB20008DFF48029E493A3F85407240CC8C33353
:100CC200C4540F4420C8834004F456800146F6DF22
:100CD200E4800B0102040810204080901228E47E78
:100CE200019360BCA3FF543F30E509541FFEE49317
:100CF200A360010ECF54C025E060A840B8E493A3DE
:100D0200FAE493A3F8E493A3C8C582C8CAC583CA08
:100D1200F0A3C8C582C8CAC583CADFE9DEE780BEC0
:01123B0000B2
:100B2000EF8DF0A4A8F0CF8CF0A428CE8DF0A42EE9
:020B3000FE22A3
:100B3200BC000BBE0029EF8DF084FFADF022E4CCA7
:100B4200F875F008EF2FFFEE33FEEC33FCEE9DEC70
:100B5200984005FCEE9DFE0FD5F0E9E4CEFD22EDB6
:100B6200F8F5F0EE8420D21CFEADF075F008EF2F00
:100B7200FFED33FD4007985006D5F0F222C398FDF1
:050B82000FD5F0EA228E
:100B8700C5F0F8A3E028F0C5F0F8E58215827002F9
:060B97001583E038F02296
:0D0B9D00CFF4CFCEF4CECDF4CDCCF4CC22ED
:100BAA00EB9FF5F0EA9E42F0E99D42F0E89C45F0A1
:010BBA002218
:100BBB00E8600FECC313FCED13FDEE13FEEF13FF18
:030BCB00D8F1223C
:100BCE00E8600FEFC333FFEE33FEED33FDEC33FC85
:030BDE00D8F12229
:00000001FF
